{
  "_format": "hh-sol-artifact-1",
  "contractName": "adminVerifier",
  "sourceName": "contracts/Verification/adminVerifier.sol",
  "abi": [
    {
      "anonymous": false,
      "inputs": [
        {
          "indexed": true,
          "internalType": "address",
          "name": "previousOwner",
          "type": "address"
        },
        {
          "indexed": true,
          "internalType": "address",
          "name": "newOwner",
          "type": "address"
        }
      ],
      "name": "OwnershipTransferred",
      "type": "event"
    },
    {
      "anonymous": false,
      "inputs": [
        {
          "indexed": false,
          "internalType": "address",
          "name": "user",
          "type": "address"
        },
        {
          "indexed": false,
          "internalType": "bool",
          "name": "isMasterLinked",
          "type": "bool"
        },
        {
          "indexed": false,
          "internalType": "string",
          "name": "metadata",
          "type": "string"
        }
      ],
      "name": "UserRegistered",
      "type": "event"
    },
    {
      "anonymous": false,
      "inputs": [
        {
          "indexed": false,
          "internalType": "address",
          "name": "user",
          "type": "address"
        }
      ],
      "name": "UserUnregistered",
      "type": "event"
    },
    {
      "inputs": [
        {
          "internalType": "address",
          "name": "_admin",
          "type": "address"
        },
        {
          "internalType": "address",
          "name": "_verification",
          "type": "address"
        }
      ],
      "name": "initialize",
      "outputs": [],
      "stateMutability": "nonpayable",
      "type": "function"
    },
    {
      "inputs": [],
      "name": "owner",
      "outputs": [
        {
          "internalType": "address",
          "name": "",
          "type": "address"
        }
      ],
      "stateMutability": "view",
      "type": "function"
    },
    {
      "inputs": [
        {
          "internalType": "address",
          "name": "_user",
          "type": "address"
        },
        {
          "internalType": "string",
          "name": "_metadata",
          "type": "string"
        },
        {
          "internalType": "bool",
          "name": "_isMasterLinked",
          "type": "bool"
        }
      ],
      "name": "registerUser",
      "outputs": [],
      "stateMutability": "nonpayable",
      "type": "function"
    },
    {
      "inputs": [],
      "name": "renounceOwnership",
      "outputs": [],
      "stateMutability": "nonpayable",
      "type": "function"
    },
    {
      "inputs": [
        {
          "internalType": "address",
          "name": "newOwner",
          "type": "address"
        }
      ],
      "name": "transferOwnership",
      "outputs": [],
      "stateMutability": "nonpayable",
      "type": "function"
    },
    {
      "inputs": [
        {
          "internalType": "address",
          "name": "_user",
          "type": "address"
        }
      ],
      "name": "unregisterUser",
      "outputs": [],
      "stateMutability": "nonpayable",
      "type": "function"
    },
    {
      "inputs": [],
      "name": "verification",
      "outputs": [
        {
          "internalType": "contract IVerification",
          "name": "",
          "type": "address"
        }
      ],
      "stateMutability": "view",
      "type": "function"
    }
  ],
  "bytecode": "0x608060405234801561001057600080fd5b50610b8d806100206000396000f3fe608060405234801561001057600080fd5b506004361061007d5760003560e01c80634ffe2a8b1161005b5780634ffe2a8b14610190578063715018a6146101b45780638da5cb5b146101bc578063f2fde38b146101c45761007d565b806316596d7f1461008257806321f2ca3b1461013c578063485cc95514610162575b600080fd5b61013a6004803603606081101561009857600080fd5b6001600160a01b0382351691908101906040810160208201356401000000008111156100c357600080fd5b8201836020820111156100d557600080fd5b803590602001918460018302840111640100000000831117156100f757600080fd5b91908080601f01602080910402602001604051908101604052809392919081815260200183838082843760009201919091525092955050505035151590506101ea565b005b61013a6004803603602081101561015257600080fd5b50356001600160a01b03166103e7565b61013a6004803603604081101561017857600080fd5b506001600160a01b0381358116916020013516610588565b610198610658565b604080516001600160a01b039092168252519081900360200190f35b61013a610667565b610198610713565b61013a600480360360208110156101da57600080fd5b50356001600160a01b0316610722565b6101f2610825565b6001600160a01b0316610203610713565b6001600160a01b03161461024c576040805162461bcd60e51b81526020600482018190526024820152600080516020610b38833981519152604482015290519081900360640190fd5b6001600160a01b03831660009081526066602052604090205460026000196101006001841615020190911604156102c0576040805162461bcd60e51b81526020600482015260136024820152725573657220616c72656164792065786973747360681b604482015290519081900360640190fd5b6065546040805163a94413a160e01b81526001600160a01b03868116600483015284151560248301529151919092169163a94413a191604480830192600092919082900301818387803b15801561031657600080fd5b505af115801561032a573d6000803e3d6000fd5b505050507fd0cc6197d4f74413f62e2cef7b4b43536e1965d8f11dcbf4c376ec1e85d2b22e83828460405180846001600160a01b03168152602001831515815260200180602001828103825283818151815260200191508051906020019080838360005b838110156103a657818101518382015260200161038e565b50505050905090810190601f1680156103d35780820380516001836020036101000a031916815260200191505b5094505050505060405180910390a1505050565b6103ef610825565b6001600160a01b0316610400610713565b6001600160a01b031614610449576040805162461bcd60e51b81526020600482018190526024820152600080516020610b38833981519152604482015290519081900360640190fd5b6001600160a01b038116600090815260666020526040902054600260001961010060018416150201909116046104bb576040805162461bcd60e51b81526020600482015260126024820152715573657220646f65736e742065786973747360701b604482015290519081900360640190fd5b6001600160a01b03811660009081526066602052604081206104dc91610a8b565b60655460408051635a6ace8760e11b81526001600160a01b0384811660048301523060248301529151919092169163b4d59d0e91604480830192600092919082900301818387803b15801561053057600080fd5b505af1158015610544573d6000803e3d6000fd5b5050604080516001600160a01b038516815290517f69c4cef1aa574ae7852ac8b784ab60926951c604b70049150e4091759ea980769350908190036020019150a150565b600054610100900460ff16806105a157506105a1610829565b806105af575060005460ff16155b6105ea5760405162461bcd60e51b815260040180806020018281038252602e815260200180610b0a602e913960400191505060405180910390fd5b600054610100900460ff16158015610615576000805460ff1961ff0019909116610100171660011790555b61061d61083a565b61062683610722565b606580546001600160a01b0319166001600160a01b0384161790558015610653576000805461ff00191690555b505050565b6065546001600160a01b031681565b61066f610825565b6001600160a01b0316610680610713565b6001600160a01b0316146106c9576040805162461bcd60e51b81526020600482018190526024820152600080516020610b38833981519152604482015290519081900360640190fd5b6033546040516000916001600160a01b0316907f8be0079c531659141344cd1fd0a4f28419497f9722a3daafe3b4186f6b6457e0908390a3603380546001600160a01b0319169055565b6033546001600160a01b031690565b61072a610825565b6001600160a01b031661073b610713565b6001600160a01b031614610784576040805162461bcd60e51b81526020600482018190526024820152600080516020610b38833981519152604482015290519081900360640190fd5b6001600160a01b0381166107c95760405162461bcd60e51b8152600401808060200182810382526026815260200180610ae46026913960400191505060405180910390fd5b6033546040516001600160a01b038084169216907f8be0079c531659141344cd1fd0a4f28419497f9722a3daafe3b4186f6b6457e090600090a3603380546001600160a01b0319166001600160a01b0392909216919091179055565b3390565b6000610834306108ec565b15905090565b600054610100900460ff16806108535750610853610829565b80610861575060005460ff16155b61089c5760405162461bcd60e51b815260040180806020018281038252602e815260200180610b0a602e913960400191505060405180910390fd5b600054610100900460ff161580156108c7576000805460ff1961ff0019909116610100171660011790555b6108cf6108f2565b6108d7610992565b80156108e9576000805461ff00191690555b50565b3b151590565b600054610100900460ff168061090b575061090b610829565b80610919575060005460ff16155b6109545760405162461bcd60e51b815260040180806020018281038252602e815260200180610b0a602e913960400191505060405180910390fd5b600054610100900460ff161580156108d7576000805460ff1961ff00199091166101001716600117905580156108e9576000805461ff001916905550565b600054610100900460ff16806109ab57506109ab610829565b806109b9575060005460ff16155b6109f45760405162461bcd60e51b815260040180806020018281038252602e815260200180610b0a602e913960400191505060405180910390fd5b600054610100900460ff16158015610a1f576000805460ff1961ff0019909116610100171660011790555b6000610a29610825565b603380546001600160a01b0319166001600160a01b038316908117909155604051919250906000907f8be0079c531659141344cd1fd0a4f28419497f9722a3daafe3b4186f6b6457e0908290a35080156108e9576000805461ff001916905550565b50805460018160011615610100020316600290046000825580601f10610ab157506108e9565b601f0160209004906000526020600020908101906108e991905b80821115610adf5760008155600101610acb565b509056fe4f776e61626c653a206e6577206f776e657220697320746865207a65726f2061646472657373496e697469616c697a61626c653a20636f6e747261637420697320616c726561647920696e697469616c697a65644f776e61626c653a2063616c6c6572206973206e6f7420746865206f776e6572a2646970667358221220c595b54c5b7631e17d58a286ab88788ccb64fd4b2395e20ad8ec82ab752fbf7f64736f6c63430007000033",
  "linkReferences": {},
  "deployedLinkReferences": {}
}