{
  "_format": "hh-sol-artifact-1",
  "contractName": "CreditLine",
  "sourceName": "contracts/CreditLine/CreditLine.sol",
  "abi": [
    {
      "anonymous": false,
      "inputs": [
        {
          "indexed": false,
          "internalType": "uint256",
          "name": "borrowAmount",
          "type": "uint256"
        },
        {
          "indexed": false,
          "internalType": "bytes32",
          "name": "creditLineHash",
          "type": "bytes32"
        }
      ],
      "name": "BorrowedFromCreditLine",
      "type": "event"
    },
    {
      "anonymous": false,
      "inputs": [
        {
          "indexed": false,
          "internalType": "bytes32",
          "name": "creditLineHash",
          "type": "bytes32"
        },
        {
          "indexed": false,
          "internalType": "uint256",
          "name": "repayAmount",
          "type": "uint256"
        }
      ],
      "name": "CompleteCreditLineRepaid",
      "type": "event"
    },
    {
      "anonymous": false,
      "inputs": [
        {
          "indexed": false,
          "internalType": "bytes32",
          "name": "creditLineHash",
          "type": "bytes32"
        }
      ],
      "name": "CreditLineAccepted",
      "type": "event"
    },
    {
      "anonymous": false,
      "inputs": [
        {
          "indexed": false,
          "internalType": "bytes32",
          "name": "creditLineHash",
          "type": "bytes32"
        }
      ],
      "name": "CreditLineClosed",
      "type": "event"
    },
    {
      "anonymous": false,
      "inputs": [
        {
          "indexed": false,
          "internalType": "bytes32",
          "name": "creditLineHash",
          "type": "bytes32"
        },
        {
          "indexed": false,
          "internalType": "address",
          "name": "liquidator",
          "type": "address"
        }
      ],
      "name": "CreditLineLiquidated",
      "type": "event"
    },
    {
      "anonymous": false,
      "inputs": [
        {
          "indexed": false,
          "internalType": "bytes32",
          "name": "creditLineHash",
          "type": "bytes32"
        },
        {
          "indexed": false,
          "internalType": "address",
          "name": "lender",
          "type": "address"
        },
        {
          "indexed": false,
          "internalType": "address",
          "name": "borrower",
          "type": "address"
        }
      ],
      "name": "CreditLineRequestedToBorrower",
      "type": "event"
    },
    {
      "anonymous": false,
      "inputs": [
        {
          "indexed": false,
          "internalType": "bytes32",
          "name": "creditLineHash",
          "type": "bytes32"
        },
        {
          "indexed": false,
          "internalType": "address",
          "name": "lender",
          "type": "address"
        },
        {
          "indexed": false,
          "internalType": "address",
          "name": "borrower",
          "type": "address"
        }
      ],
      "name": "CreditLineRequestedToLender",
      "type": "event"
    },
    {
      "anonymous": false,
      "inputs": [
        {
          "indexed": false,
          "internalType": "bytes32",
          "name": "creditLineHash",
          "type": "bytes32"
        }
      ],
      "name": "CreditLineReset",
      "type": "event"
    },
    {
      "anonymous": false,
      "inputs": [
        {
          "indexed": false,
          "internalType": "address",
          "name": "defaultStrategy",
          "type": "address"
        }
      ],
      "name": "DefaultStrategyUpdated",
      "type": "event"
    },
    {
      "anonymous": false,
      "inputs": [
        {
          "indexed": true,
          "internalType": "address",
          "name": "previousOwner",
          "type": "address"
        },
        {
          "indexed": true,
          "internalType": "address",
          "name": "newOwner",
          "type": "address"
        }
      ],
      "name": "OwnershipTransferred",
      "type": "event"
    },
    {
      "anonymous": false,
      "inputs": [
        {
          "indexed": false,
          "internalType": "bytes32",
          "name": "creditLineHash",
          "type": "bytes32"
        },
        {
          "indexed": false,
          "internalType": "uint256",
          "name": "repayAmount",
          "type": "uint256"
        }
      ],
      "name": "PartialCreditLineRepaid",
      "type": "event"
    },
    {
      "anonymous": false,
      "inputs": [
        {
          "indexed": false,
          "internalType": "address",
          "name": "priceOracle",
          "type": "address"
        }
      ],
      "name": "PriceOracleUpdated",
      "type": "event"
    },
    {
      "anonymous": false,
      "inputs": [
        {
          "indexed": false,
          "internalType": "address",
          "name": "updatedProtocolFeeCollector",
          "type": "address"
        }
      ],
      "name": "ProtocolFeeCollectorUpdated",
      "type": "event"
    },
    {
      "anonymous": false,
      "inputs": [
        {
          "indexed": false,
          "internalType": "uint256",
          "name": "updatedProtocolFee",
          "type": "uint256"
        }
      ],
      "name": "ProtocolFeeFractionUpdated",
      "type": "event"
    },
    {
      "anonymous": false,
      "inputs": [
        {
          "indexed": false,
          "internalType": "address",
          "name": "savingsAccount",
          "type": "address"
        }
      ],
      "name": "SavingsAccountUpdated",
      "type": "event"
    },
    {
      "anonymous": false,
      "inputs": [
        {
          "indexed": false,
          "internalType": "address",
          "name": "strategyRegistry",
          "type": "address"
        }
      ],
      "name": "StrategyRegistryUpdated",
      "type": "event"
    },
    {
      "inputs": [],
      "name": "CreditLineCounter",
      "outputs": [
        {
          "internalType": "uint256",
          "name": "",
          "type": "uint256"
        }
      ],
      "stateMutability": "view",
      "type": "function"
    },
    {
      "inputs": [
        {
          "internalType": "bytes32",
          "name": "_creditLineHash",
          "type": "bytes32"
        }
      ],
      "name": "acceptCreditLineBorrower",
      "outputs": [],
      "stateMutability": "nonpayable",
      "type": "function"
    },
    {
      "inputs": [
        {
          "internalType": "bytes32",
          "name": "_creditLineHash",
          "type": "bytes32"
        }
      ],
      "name": "acceptCreditLineLender",
      "outputs": [],
      "stateMutability": "nonpayable",
      "type": "function"
    },
    {
      "inputs": [
        {
          "internalType": "uint256",
          "name": "borrowAmount",
          "type": "uint256"
        },
        {
          "internalType": "bytes32",
          "name": "creditLineHash",
          "type": "bytes32"
        }
      ],
      "name": "borrowFromCreditLine",
      "outputs": [],
      "stateMutability": "payable",
      "type": "function"
    },
    {
      "inputs": [
        {
          "internalType": "bytes32",
          "name": "_creditLineHash",
          "type": "bytes32"
        }
      ],
      "name": "calculateBorrowableAmount",
      "outputs": [
        {
          "internalType": "uint256",
          "name": "",
          "type": "uint256"
        }
      ],
      "stateMutability": "nonpayable",
      "type": "function"
    },
    {
      "inputs": [
        {
          "internalType": "bytes32",
          "name": "creditLineHash",
          "type": "bytes32"
        }
      ],
      "name": "calculateCurrentCollateralRatio",
      "outputs": [
        {
          "internalType": "uint256",
          "name": "",
          "type": "uint256"
        }
      ],
      "stateMutability": "nonpayable",
      "type": "function"
    },
    {
      "inputs": [
        {
          "internalType": "bytes32",
          "name": "_creditLineHash",
          "type": "bytes32"
        }
      ],
      "name": "calculateCurrentDebt",
      "outputs": [
        {
          "internalType": "uint256",
          "name": "",
          "type": "uint256"
        }
      ],
      "stateMutability": "view",
      "type": "function"
    },
    {
      "inputs": [
        {
          "internalType": "uint256",
          "name": "_principal",
          "type": "uint256"
        },
        {
          "internalType": "uint256",
          "name": "_borrowRate",
          "type": "uint256"
        },
        {
          "internalType": "uint256",
          "name": "_timeElapsed",
          "type": "uint256"
        }
      ],
      "name": "calculateInterest",
      "outputs": [
        {
          "internalType": "uint256",
          "name": "",
          "type": "uint256"
        }
      ],
      "stateMutability": "pure",
      "type": "function"
    },
    {
      "inputs": [
        {
          "internalType": "bytes32",
          "name": "creditLineHash",
          "type": "bytes32"
        }
      ],
      "name": "calculateInterestAccrued",
      "outputs": [
        {
          "internalType": "uint256",
          "name": "",
          "type": "uint256"
        }
      ],
      "stateMutability": "view",
      "type": "function"
    },
    {
      "inputs": [
        {
          "internalType": "bytes32",
          "name": "creditLineHash",
          "type": "bytes32"
        }
      ],
      "name": "calculateTotalCollateralTokens",
      "outputs": [
        {
          "internalType": "uint256",
          "name": "amount",
          "type": "uint256"
        }
      ],
      "stateMutability": "nonpayable",
      "type": "function"
    },
    {
      "inputs": [
        {
          "internalType": "bytes32",
          "name": "creditLineHash",
          "type": "bytes32"
        }
      ],
      "name": "closeCreditLine",
      "outputs": [],
      "stateMutability": "nonpayable",
      "type": "function"
    },
    {
      "inputs": [
        {
          "internalType": "bytes32",
          "name": "",
          "type": "bytes32"
        }
      ],
      "name": "creditLineInfo",
      "outputs": [
        {
          "internalType": "bool",
          "name": "exists",
          "type": "bool"
        },
        {
          "internalType": "address",
          "name": "lender",
          "type": "address"
        },
        {
          "internalType": "address",
          "name": "borrower",
          "type": "address"
        },
        {
          "internalType": "uint256",
          "name": "borrowLimit",
          "type": "uint256"
        },
        {
          "internalType": "uint256",
          "name": "idealCollateralRatio",
          "type": "uint256"
        },
        {
          "internalType": "uint256",
          "name": "liquidationThreshold",
          "type": "uint256"
        },
        {
          "internalType": "uint256",
          "name": "borrowRate",
          "type": "uint256"
        },
        {
          "internalType": "address",
          "name": "borrowAsset",
          "type": "address"
        },
        {
          "internalType": "address",
          "name": "collateralAsset",
          "type": "address"
        },
        {
          "internalType": "enum CreditLineStorage.creditLineStatus",
          "name": "currentStatus",
          "type": "uint8"
        },
        {
          "internalType": "bool",
          "name": "autoLiquidation",
          "type": "bool"
        },
        {
          "internalType": "bool",
          "name": "requestByLender",
          "type": "bool"
        }
      ],
      "stateMutability": "view",
      "type": "function"
    },
    {
      "inputs": [
        {
          "internalType": "bytes32",
          "name": "",
          "type": "bytes32"
        }
      ],
      "name": "creditLineUsage",
      "outputs": [
        {
          "internalType": "uint256",
          "name": "principal",
          "type": "uint256"
        },
        {
          "internalType": "uint256",
          "name": "totalInterestRepaid",
          "type": "uint256"
        },
        {
          "internalType": "uint256",
          "name": "lastPrincipalUpdateTime",
          "type": "uint256"
        },
        {
          "internalType": "uint256",
          "name": "interestAccruedTillPrincipalUpdate",
          "type": "uint256"
        },
        {
          "internalType": "uint256",
          "name": "collateralAmount",
          "type": "uint256"
        }
      ],
      "stateMutability": "view",
      "type": "function"
    },
    {
      "inputs": [],
      "name": "defaultStrategy",
      "outputs": [
        {
          "internalType": "address",
          "name": "",
          "type": "address"
        }
      ],
      "stateMutability": "view",
      "type": "function"
    },
    {
      "inputs": [
        {
          "internalType": "address",
          "name": "_collateralAsset",
          "type": "address"
        },
        {
          "internalType": "uint256",
          "name": "_collateralAmount",
          "type": "uint256"
        },
        {
          "internalType": "bytes32",
          "name": "_creditLineHash",
          "type": "bytes32"
        },
        {
          "internalType": "bool",
          "name": "_fromSavingAccount",
          "type": "bool"
        }
      ],
      "name": "depositCollateral",
      "outputs": [],
      "stateMutability": "payable",
      "type": "function"
    },
    {
      "inputs": [
        {
          "internalType": "address",
          "name": "_defaultStrategy",
          "type": "address"
        },
        {
          "internalType": "address",
          "name": "_priceOracle",
          "type": "address"
        },
        {
          "internalType": "address",
          "name": "_savingsAccount",
          "type": "address"
        },
        {
          "internalType": "address",
          "name": "_strategyRegistry",
          "type": "address"
        },
        {
          "internalType": "address",
          "name": "_owner",
          "type": "address"
        },
        {
          "internalType": "uint256",
          "name": "_protocolFeeFraction",
          "type": "uint256"
        },
        {
          "internalType": "address",
          "name": "_protocolFeeCollector",
          "type": "address"
        }
      ],
      "name": "initialize",
      "outputs": [],
      "stateMutability": "nonpayable",
      "type": "function"
    },
    {
      "inputs": [
        {
          "internalType": "bytes32",
          "name": "creditLineHash",
          "type": "bytes32"
        }
      ],
      "name": "liquidation",
      "outputs": [],
      "stateMutability": "payable",
      "type": "function"
    },
    {
      "inputs": [],
      "name": "owner",
      "outputs": [
        {
          "internalType": "address",
          "name": "",
          "type": "address"
        }
      ],
      "stateMutability": "view",
      "type": "function"
    },
    {
      "inputs": [],
      "name": "priceOracle",
      "outputs": [
        {
          "internalType": "address",
          "name": "",
          "type": "address"
        }
      ],
      "stateMutability": "view",
      "type": "function"
    },
    {
      "inputs": [],
      "name": "protocolFeeCollector",
      "outputs": [
        {
          "internalType": "address",
          "name": "",
          "type": "address"
        }
      ],
      "stateMutability": "view",
      "type": "function"
    },
    {
      "inputs": [],
      "name": "protocolFeeFraction",
      "outputs": [
        {
          "internalType": "uint256",
          "name": "",
          "type": "uint256"
        }
      ],
      "stateMutability": "view",
      "type": "function"
    },
    {
      "inputs": [],
      "name": "renounceOwnership",
      "outputs": [],
      "stateMutability": "nonpayable",
      "type": "function"
    },
    {
      "inputs": [
        {
          "internalType": "uint256",
          "name": "repayAmount",
          "type": "uint256"
        },
        {
          "internalType": "bytes32",
          "name": "creditLineHash",
          "type": "bytes32"
        },
        {
          "internalType": "bool",
          "name": "_transferFromSavingAccount",
          "type": "bool"
        }
      ],
      "name": "repayCreditLine",
      "outputs": [],
      "stateMutability": "payable",
      "type": "function"
    },
    {
      "inputs": [
        {
          "internalType": "address",
          "name": "_borrower",
          "type": "address"
        },
        {
          "internalType": "uint256",
          "name": "_borrowLimit",
          "type": "uint256"
        },
        {
          "internalType": "uint256",
          "name": "_liquidationThreshold",
          "type": "uint256"
        },
        {
          "internalType": "uint256",
          "name": "_borrowRate",
          "type": "uint256"
        },
        {
          "internalType": "bool",
          "name": "_autoLiquidation",
          "type": "bool"
        },
        {
          "internalType": "uint256",
          "name": "_collateralRatio",
          "type": "uint256"
        },
        {
          "internalType": "address",
          "name": "_borrowAsset",
          "type": "address"
        },
        {
          "internalType": "address",
          "name": "_collateralAsset",
          "type": "address"
        }
      ],
      "name": "requestCreditLineToBorrower",
      "outputs": [
        {
          "internalType": "bytes32",
          "name": "",
          "type": "bytes32"
        }
      ],
      "stateMutability": "nonpayable",
      "type": "function"
    },
    {
      "inputs": [
        {
          "internalType": "address",
          "name": "_lender",
          "type": "address"
        },
        {
          "internalType": "uint256",
          "name": "_borrowLimit",
          "type": "uint256"
        },
        {
          "internalType": "uint256",
          "name": "_liquidationThreshold",
          "type": "uint256"
        },
        {
          "internalType": "uint256",
          "name": "_borrowRate",
          "type": "uint256"
        },
        {
          "internalType": "bool",
          "name": "_autoLiquidation",
          "type": "bool"
        },
        {
          "internalType": "uint256",
          "name": "_collateralRatio",
          "type": "uint256"
        },
        {
          "internalType": "address",
          "name": "_borrowAsset",
          "type": "address"
        },
        {
          "internalType": "address",
          "name": "_collateralAsset",
          "type": "address"
        }
      ],
      "name": "requestCreditLineToLender",
      "outputs": [
        {
          "internalType": "bytes32",
          "name": "",
          "type": "bytes32"
        }
      ],
      "stateMutability": "nonpayable",
      "type": "function"
    },
    {
      "inputs": [],
      "name": "savingsAccount",
      "outputs": [
        {
          "internalType": "address",
          "name": "",
          "type": "address"
        }
      ],
      "stateMutability": "view",
      "type": "function"
    },
    {
      "inputs": [],
      "name": "strategyRegistry",
      "outputs": [
        {
          "internalType": "address",
          "name": "",
          "type": "address"
        }
      ],
      "stateMutability": "view",
      "type": "function"
    },
    {
      "inputs": [
        {
          "internalType": "address",
          "name": "newOwner",
          "type": "address"
        }
      ],
      "name": "transferOwnership",
      "outputs": [],
      "stateMutability": "nonpayable",
      "type": "function"
    },
    {
      "inputs": [
        {
          "internalType": "address",
          "name": "_defaultStrategy",
          "type": "address"
        }
      ],
      "name": "updateDefaultStrategy",
      "outputs": [],
      "stateMutability": "nonpayable",
      "type": "function"
    },
    {
      "inputs": [
        {
          "internalType": "address",
          "name": "_priceOracle",
          "type": "address"
        }
      ],
      "name": "updatePriceOracle",
      "outputs": [],
      "stateMutability": "nonpayable",
      "type": "function"
    },
    {
      "inputs": [
        {
          "internalType": "address",
          "name": "_protocolFeeCollector",
          "type": "address"
        }
      ],
      "name": "updateProtocolFeeCollector",
      "outputs": [],
      "stateMutability": "nonpayable",
      "type": "function"
    },
    {
      "inputs": [
        {
          "internalType": "uint256",
          "name": "_protocolFee",
          "type": "uint256"
        }
      ],
      "name": "updateProtocolFeeFraction",
      "outputs": [],
      "stateMutability": "nonpayable",
      "type": "function"
    },
    {
      "inputs": [
        {
          "internalType": "address",
          "name": "_savingsAccount",
          "type": "address"
        }
      ],
      "name": "updateSavingsAccount",
      "outputs": [],
      "stateMutability": "nonpayable",
      "type": "function"
    },
    {
      "inputs": [
        {
          "internalType": "address",
          "name": "_strategyRegistry",
          "type": "address"
        }
      ],
      "name": "updateStrategyRegistry",
      "outputs": [],
      "stateMutability": "nonpayable",
      "type": "function"
    },
    {
      "inputs": [
        {
          "internalType": "bytes32",
          "name": "creditLineHash",
          "type": "bytes32"
        },
        {
          "internalType": "uint256",
          "name": "amount",
          "type": "uint256"
        }
      ],
      "name": "withdrawCollateralFromCreditLine",
      "outputs": [],
      "stateMutability": "nonpayable",
      "type": "function"
    },
    {
      "inputs": [],
      "name": "yearInSeconds",
      "outputs": [
        {
          "internalType": "uint256",
          "name": "",
          "type": "uint256"
        }
      ],
      "stateMutability": "view",
      "type": "function"
    },
    {
      "stateMutability": "payable",
      "type": "receive"
    }
  ],
  "bytecode": "0x608060405234801561001057600080fd5b506001606955614f2b806100256000396000f3fe6080604052600436106102125760003560e01c8063967ae0f511610118578063e428c46f116100a0578063eabcca101161006f578063eabcca101461083c578063ecced6231461089f578063ee0c743d146108b4578063f2fde38b14610918578063fac5bb9b1461094b57610262565b8063e428c46f146107a7578063e7f61b71146107d2578063e8b5cedc146107fc578063e8beada01461081f57610262565b8063ae974ff6116100e7578063ae974ff614610618578063c6c6fd2a146106da578063d080bf271461073e578063de9de06e14610753578063e410a8d41461077d57610262565b8063967ae0f514610545578063a164b4231461056f578063a1f0102b146105c4578063a98952a7146105ee57610262565b80634c1f2dc51161019b578063715018a61161016a578063715018a6146104ac578063850a1501146104c15780638ce9ae15146104d65780638da5cb5b1461050657806395ed30cb1461051b57610262565b80634c1f2dc5146103e0578063565b54ea1461041357806356f421d0146104465780636cf14f9d1461047957610262565b80632630c12f116101e25780632630c12f14610328578063280d21141461035957806339d1fc82146103835780633a0298eb146103b65780634059d596146103cb57610262565b8062d8075d1461026757806305e1bd8c146102a15780630fb40d83146102e957806313ef9c2e146102fe57610262565b3661026257606a546001600160a01b031633146102605760405162461bcd60e51b8152600401808060200182810382526027815260200180614af86027913960400191505060405180910390fd5b005b600080fd5b6102606004803603608081101561027d57600080fd5b506001600160a01b0381351690602081013590604081013590606001351515610960565b3480156102ad57600080fd5b506102d7600480360360608110156102c457600080fd5b5080359060208101359060400135610a5f565b60408051918252519081900360200190f35b3480156102f557600080fd5b506102d7610a9e565b34801561030a57600080fd5b506102606004803603602081101561032157600080fd5b5035610aa4565b34801561033457600080fd5b5061033d610b9e565b604080516001600160a01b039092168252519081900360200190f35b34801561036557600080fd5b506102d76004803603602081101561037c57600080fd5b5035610bad565b34801561038f57600080fd5b50610260600480360360208110156103a657600080fd5b50356001600160a01b0316610cfc565b3480156103c257600080fd5b506102d7610d6a565b3480156103d757600080fd5b506102d7610d70565b3480156103ec57600080fd5b506102606004803603602081101561040357600080fd5b50356001600160a01b0316610d78565b34801561041f57600080fd5b506102606004803603602081101561043657600080fd5b50356001600160a01b0316610de3565b34801561045257600080fd5b506102606004803603602081101561046957600080fd5b50356001600160a01b0316610e4e565b34801561048557600080fd5b506102606004803603602081101561049c57600080fd5b50356001600160a01b0316610eb9565b3480156104b857600080fd5b50610260610f24565b3480156104cd57600080fd5b5061033d610fd0565b3480156104e257600080fd5b50610260600480360360408110156104f957600080fd5b5080359060200135610fdf565b34801561051257600080fd5b5061033d61119a565b34801561052757600080fd5b506102606004803603602081101561053e57600080fd5b50356111a9565b34801561055157600080fd5b506102d76004803603602081101561056857600080fd5b5035611212565b34801561057b57600080fd5b506105996004803603602081101561059257600080fd5b503561147c565b6040805195865260208601949094528484019290925260608401526080830152519081900360a00190f35b3480156105d057600080fd5b50610260600480360360208110156105e757600080fd5b50356114ab565b3480156105fa57600080fd5b506102d76004803603602081101561061157600080fd5b5035611700565b34801561062457600080fd5b506106426004803603602081101561063b57600080fd5b5035611756565b604051808d151581526020018c6001600160a01b031681526020018b6001600160a01b031681526020018a8152602001898152602001888152602001878152602001866001600160a01b03168152602001856001600160a01b031681526020018460058111156106ae57fe5b8152602001831515815260200182151581526020019c5050505050505050505050505060405180910390f35b3480156106e657600080fd5b506102d760048036036101008110156106fe57600080fd5b506001600160a01b038135811691602081013591604082013591606081013591608082013515159160a08101359160c082013581169160e00135166117cd565b34801561074a57600080fd5b5061033d611904565b34801561075f57600080fd5b506102606004803603602081101561077657600080fd5b5035611913565b34801561078957600080fd5b506102d7600480360360208110156107a057600080fd5b503561197e565b610260600480360360608110156107bd57600080fd5b508035906020810135906040013515156119e1565b3480156107de57600080fd5b506102d7600480360360208110156107f557600080fd5b5035611bd0565b6102606004803603604081101561081257600080fd5b5080359060200135611da9565b6102606004803603602081101561083557600080fd5b5035612410565b34801561084857600080fd5b50610260600480360360e081101561085f57600080fd5b506001600160a01b038135811691602081013582169160408201358116916060810135821691608082013581169160a08101359160c09091013516612749565b3480156108ab57600080fd5b5061033d612838565b3480156108c057600080fd5b506102d760048036036101008110156108d857600080fd5b506001600160a01b038135811691602081013591604082013591606081013591608082013515159160a08101359160c082013581169160e0013516612847565b34801561092457600080fd5b506102606004803603602081101561093b57600080fd5b50356001600160a01b03166129f0565b34801561095757600080fd5b5061033d612af3565b8160008082815260686020526040902060070154600160a01b900460ff16600581111561098957fe5b14156109d9576040805162461bcd60e51b815260206004820152601a60248201527910dc99591a5d081b1a5b9948191bd95cc81b9bdd08195e1a5cdd60321b604482015290519081900360640190fd5b6002600084815260686020526040902060070154600160a01b900460ff166005811115610a0257fe5b14610a4c576040805162461bcd60e51b81526020600482015260156024820152744372656469744c696e65206e6f742061637469766560581b604482015290519081900360640190fd5b610a5885858585612b02565b5050505050565b600080610a936301e13380610a8d6c0c9f2c9cd04674edea400000008187610a878b8b612dfc565b90612dfc565b90612e5e565b9150505b9392505050565b60655481565b600081815260686020526040902054819061010090046001600160a01b03163314610b005760405162461bcd60e51b8152600401808060200182810382526022815260200180614a426022913960400191505060405180910390fd5b610b0b826000612ec5565b606a5460008381526068602052604080822060068101548154600290920154835163b9d15aa960e01b81526001600160a01b0392831660048201526101009093048216602484015260448301529151919093169263b9d15aa992606480830193919282900301818387803b158015610b8257600080fd5b505af1158015610b96573d6000803e3d6000fd5b505050505050565b606b546001600160a01b031681565b60008181600082815260686020526040902060070154600160a01b900460ff166005811115610bd857fe5b1415610c28576040805162461bcd60e51b815260206004820152601a60248201527910dc99591a5d081b1a5b9948191bd95cc81b9bdd08195e1a5cdd60321b604482015290519081900360640190fd5b606b54600084815260686020526040808220600781015460069091015482516310603c1160e01b81526001600160a01b03928316600482015290821660248201528251939485949216926310603c1192604480840193829003018186803b158015610c9257600080fd5b505afa158015610ca6573d6000803e3d6000fd5b505050506040513d6040811015610cbc57600080fd5b50805160209091015190925090506000610cd586611700565b90506000610cf183600a0a610a8d84610a8d88610a878d611212565b979650505050505050565b610d04612fe8565b6001600160a01b0316610d1561119a565b6001600160a01b031614610d5e576040805162461bcd60e51b81526020600482018190526024820152600080516020614c34833981519152604482015290519081900360640190fd5b610d6781612fec565b50565b606e5481565b6301e1338081565b610d80612fe8565b6001600160a01b0316610d9161119a565b6001600160a01b031614610dda576040805162461bcd60e51b81526020600482018190526024820152600080516020614c34833981519152604482015290519081900360640190fd5b610d6781613040565b610deb612fe8565b6001600160a01b0316610dfc61119a565b6001600160a01b031614610e45576040805162461bcd60e51b81526020600482018190526024820152600080516020614c34833981519152604482015290519081900360640190fd5b610d67816130e4565b610e56612fe8565b6001600160a01b0316610e6761119a565b6001600160a01b031614610eb0576040805162461bcd60e51b81526020600482018190526024820152600080516020614c34833981519152604482015290519081900360640190fd5b610d6781613138565b610ec1612fe8565b6001600160a01b0316610ed261119a565b6001600160a01b031614610f1b576040805162461bcd60e51b81526020600482018190526024820152600080516020614c34833981519152604482015290519081900360640190fd5b610d678161318c565b610f2c612fe8565b6001600160a01b0316610f3d61119a565b6001600160a01b031614610f86576040805162461bcd60e51b81526020600482018190526024820152600080516020614c34833981519152604482015290519081900360640190fd5b6033546040516000916001600160a01b0316907f8be0079c531659141344cd1fd0a4f28419497f9722a3daafe3b4186f6b6457e0908390a3603380546001600160a01b0319169055565b606f546001600160a01b031681565b60008281526068602052604090206001015482906001600160a01b031633146110395760405162461bcd60e51b8152600401808060200182810382526024815260200180614d566024913960400191505060405180910390fd5b606b54600084815260686020526040808220600781015460069091015482516310603c1160e01b81526001600160a01b03928316600482015290821660248201528251939485949216926310603c1192604480840193829003018186803b1580156110a357600080fd5b505afa1580156110b7573d6000803e3d6000fd5b505050506040513d60408110156110cd57600080fd5b508051602090910151909250905060006110e686611212565b905060006110f387611700565b9050801561116a576000611115600a85900a610a8d848189610a87898e6131e0565b6000898152606860205260409020600301549091508110156111685760405162461bcd60e51b8152600401808060200182810382526066815260200180614b456066913960800191505060405180910390fd5b505b6000878152606860205260409020600701546001600160a01b031661119081888a61323d565b5050505050505050565b6033546001600160a01b031690565b60008181526068602052604090206001015481906001600160a01b031633146112035760405162461bcd60e51b8152600401808060200182810382526024815260200180614d566024913960400191505060405180910390fd5b61120e826001612ec5565b5050565b60008181526068602052604080822060070154606c54825163b49a60bb60e01b815292516001600160a01b03928316936060939092169163b49a60bb9160048083019288929190829003018186803b15801561126d57600080fd5b505afa158015611281573d6000803e3d6000fd5b505050506040513d6000823e601f3d908101601f1916820160405260208110156112aa57600080fd5b8101908080516040519392919084600160201b8211156112c957600080fd5b9083019060208201858111156112de57600080fd5b82518660208202830111600160201b821117156112fa57600080fd5b82525081516020918201928201910280838360005b8381101561132757818101518382015260200161130f565b505050509050016040525050509050600080600090505b82518110156114735760666000878152602001908152602001600020600084838151811061136857fe5b60200260200101516001600160a01b03166001600160a01b03168152602001908152602001600020549150600082905060006001600160a01b03168483815181106113af57fe5b60200260200101516001600160a01b03161461145e578382815181106113d157fe5b60200260200101516001600160a01b03166359846d2984876040518363ffffffff1660e01b815260040180838152602001826001600160a01b0316815260200192505050602060405180830381600087803b15801561142f57600080fd5b505af1158015611443573d6000803e3d6000fd5b505050506040513d602081101561145957600080fd5b505190505b61146886826136a4565b95505060010161133e565b50505050919050565b606760205260009081526040902080546001820154600283015460038401546004909401549293919290919085565b8060008082815260686020526040902060070154600160a01b900460ff1660058111156114d457fe5b1415611524576040805162461bcd60e51b815260206004820152601a60248201527910dc99591a5d081b1a5b9948191bd95cc81b9bdd08195e1a5cdd60321b604482015290519081900360640190fd5b6000828152606860205260409020600101546001600160a01b0316331480611567575060008281526068602052604090205461010090046001600160a01b031633145b6115a25760405162461bcd60e51b815260040180806020018281038252603a815260200180614bab603a913960400191505060405180910390fd5b6002600083815260686020526040902060070154600160a01b900460ff1660058111156115cb57fe5b146116075760405162461bcd60e51b8152600401808060200182810382526029815260200180614c546029913960400191505060405180910390fd5b600082815260676020526040902054156116525760405162461bcd60e51b815260040180806020018281038252602e815260200180614a92602e913960400191505060405180910390fd5b600082815260676020526040902060030154156116a05760405162461bcd60e51b815260040180806020018281038252602e815260200180614a92602e913960400191505060405180910390fd5b600082815260686020526040902060070180546003919060ff60a01b1916600160a01b8302179055506040805183815290517f5b7fd56fe846ffce3e6c0b895b926e9e946f85bbf400897503c0f48c0408a9379181900360200190a15050565b60008061170c8361197e565b6000848152606760205260408120600181015460038201549154939450919261174c929161174691869161174091906136a4565b906136a4565b906131e0565b925050505b919050565b6068602052600090815260409020805460018201546002830154600384015460048501546005860154600687015460079097015460ff808816986001600160a01b03610100909904891698978816979081169290811691600160a01b8204811691600160a81b8104821691600160b01b909104168c565b606b546040805163633defbd60e01b81526001600160a01b03858116600483015284811660248301529151600093929092169163633defbd91604480820192602092909190829003018186803b15801561182657600080fd5b505afa15801561183a573d6000803e3d6000fd5b505050506040513d602081101561185057600080fd5b5051611897576040805162461bcd60e51b815260206004820152601160248201527010d30e88139bc81c1c9a58d94819995959607a1b604482015290519081900360640190fd5b60006118ac8a338b8b8b8b8b8b8b60006136fe565b604080518281526001600160a01b038d166020820152338183015290519192507f4da89af7917cbc408e5f0a24a737e69491d0e7bf8f09a11245695f24729ff733919081900360600190a19998505050505050505050565b606c546001600160a01b031681565b61191b612fe8565b6001600160a01b031661192c61119a565b6001600160a01b031614611975576040805162461bcd60e51b81526020600482018190526024820152600080516020614c34833981519152604482015290519081900360640190fd5b610d6781613862565b6000818152606760205260408120600201548061199f576000915050611751565b60006119ab42836131e0565b600085815260676020908152604080832054606890925282206005015492935090916119d8919084610a5f565b95945050505050565b6002600083815260686020526040902060070154600160a01b900460ff166005811115611a0a57fe5b14611a465760405162461bcd60e51b815260040180806020018281038252602e815260200180614a64602e913960400191505060405180910390fd5b6000611a518361197e565b60008481526067602052604081206003015491925090611a7190836136a4565b60008581526067602052604081205491925090611a8f9083906136a4565b60008681526067602052604081206001015491925090611aaf90886136a4565b9050600082881115611ac357600190508297505b83821115611b0a57600087815260676020526040902054611aea90839061174690876136a4565b600088815260676020526040902090815560038101859055426002909101555b6000878152606760205260409020600101829055611b2987878a61389d565b600087815260676020526040902054611b4557611b4587613b01565b8015611b8b5760408051888152602081018a905281517fd661508da6b44131ec30d46a97b00a6e7d8c3d9ec2abd6456fa28372d29624d8929181900390910190a1611190565b60408051888152602081018a905281517fe7966c9f6f7b304f7aad430c31cd465eea204ee7bae9e10019e6c8e425d9bf25929181900390910190a15050505050505050565b60006002600083815260686020526040902060070154600160a01b900460ff166005811115611bfb57fe5b1480611c2d57506001600083815260686020526040902060070154600160a01b900460ff166005811115611c2b57fe5b145b611c685760405162461bcd60e51b815260040180806020018281038252603a815260200180614e34603a913960400191505060405180910390fd5b606b54600083815260686020526040808220600781015460069091015482516310603c1160e01b81526001600160a01b03928316600482015290821660248201528251939485949216926310603c1192604480840193829003018186803b158015611cd257600080fd5b505afa158015611ce6573d6000803e3d6000fd5b505050506040513d6040811015611cfc57600080fd5b50805160209091015190925090506000611d1585611212565b90506000611d2286611700565b60008781526068602052604081206003015491925090611d4e90600a86900a90610a8d9081878a612dfc565b600088815260686020526040902060020154909150811115611d7e57506000868152606860205260409020600201545b81811115611d9c57611d9081836131e0565b95505050505050611751565b5060009695505050505050565b60026069541415611e01576040805162461bcd60e51b815260206004820152601f60248201527f5265656e7472616e637947756172643a207265656e7472616e742063616c6c00604482015290519081900360640190fd5b600260695560008181526068602052604090206001015481906001600160a01b03163314611e605760405162461bcd60e51b8152600401808060200182810382526024815260200180614d566024913960400191505060405180910390fd5b6002600083815260686020526040902060070154600160a01b900460ff166005811115611e8957fe5b14611ec55760405162461bcd60e51b815260040180806020018281038252602e815260200180614a64602e913960400191505060405180910390fd5b6000611ed083611700565b600084815260686020526040902060020154909150611eef82866136a4565b1115611f2c5760405162461bcd60e51b8152600401808060200182810382526028815260200180614cb96028913960400191505060405180910390fd5b606b54600084815260686020526040808220600781015460069091015482516310603c1160e01b81526001600160a01b03928316600482015290821660248201528251939485949216926310603c1192604480840193829003018186803b158015611f9657600080fd5b505afa158015611faa573d6000803e3d6000fd5b505050506040513d6040811015611fc057600080fd5b50805160209091015190925090506000611fd986611212565b90506000611ffc611ff2600a85900a610a87888c6136a4565b610a8d8685612dfc565b600088815260686020526040902060030154909150811161204e5760405162461bcd60e51b8152600401808060200182810382526064815260200180614dd06064913960800191505060405180910390fd5b6000878152606860205260409020600681015490546001600160a01b03918216916101009091041661207f89613b5b565b600089815260676020526040902054612098908b6136a4565b60008a8152606760205260408120918255426002909201919091556001600160a01b038316156121da576000836001600160a01b03166370a08231306040518263ffffffff1660e01b815260040180826001600160a01b0316815260200191505060206040518083038186803b15801561211157600080fd5b505afa158015612125573d6000803e3d6000fd5b505050506040513d602081101561213b57600080fd5b5051905061214a848d85613c05565b6000846001600160a01b03166370a08231306040518263ffffffff1660e01b815260040180826001600160a01b0316815260200191505060206040518083038186803b15801561219957600080fd5b505afa1580156121ad573d6000803e3d6000fd5b505050506040513d60208110156121c357600080fd5b505190506121d181836131e0565b925050506121e8565b6121e5838c84613c05565b50895b60006122106c0c9f2c9cd04674edea40000000610a8d606e5485612dfc90919063ffffffff16565b905061221c82826131e0565b91506001600160a01b03841661239357606f546040516000916001600160a01b03169083908381818185875af1925050503d8060008114612279576040519150601f19603f3d011682016040523d82523d6000602084013e61227e565b606091505b50509050806122c4576040805162461bcd60e51b815260206004820152600d60248201526c151c985b9cd9995c8819985a5b609a1b604482015290519081900360640190fd5b604051600090339085908381818185875af1925050503d8060008114612306576040519150601f19603f3d011682016040523d82523d6000602084013e61230b565b606091505b5050905080612351576040805162461bcd60e51b815260206004820152600d60248201526c151c985b9cd9995c8819985a5b609a1b604482015290519081900360640190fd5b60408051858152602081018f905281517f42eaeb6b664725e88edc8bd224f268cc0818b1cfbdecf564fe24cec42e757b44929181900390910190a150506123fd565b606f546123ad906001600160a01b03868116911683614016565b6123c16001600160a01b0385163384614016565b60408051838152602081018d905281517f42eaeb6b664725e88edc8bd224f268cc0818b1cfbdecf564fe24cec42e757b44929181900390910190a15b5050600160695550505050505050505050565b60026069541415612468576040805162461bcd60e51b815260206004820152601f60248201527f5265656e7472616e637947756172643a207265656e7472616e742063616c6c00604482015290519081900360640190fd5b60026069819055600082815260686020526040902060070154600160a01b900460ff16600581111561249657fe5b146124d25760405162461bcd60e51b8152600401808060200182810382526029815260200180614c546029913960400191505060405180910390fd5b60006124dd82610bad565b600083815260686020526040902060040154909150811061252f5760405162461bcd60e51b8152600401808060200182810382526041815260200180614ce16041913960600191505060405180910390fd5b6000828152606860205260408120600781015490546001600160a01b03918216926101009091049091169061256385611212565b600086815260686020526040902060068101546007909101549192506001600160a01b031690600160a81b900460ff1615612686576001600160a01b0383163314156125ba576125b584833033614068565b612681565b606b54604080516310603c1160e01b81526001600160a01b0384811660048301528781166024830152825160009485949216926310603c11926044808301939192829003018186803b15801561260f57600080fd5b505afa158015612623573d6000803e3d6000fd5b505050506040513d604081101561263957600080fd5b5080516020909101519092509050600061265b600a83900a610a8d8786612dfc565b90506126726001600160a01b038516338884614465565b61267d87868b61323d565b5050505b6126d9565b336001600160a01b038416146126cd5760405162461bcd60e51b8152600401808060200182810382526038815260200180614ac06038913960400191505060405180910390fd5b6126d984833033614068565b600086815260686020526040902060070180546005919060ff60a01b1916600160a01b8302179055506040805187815233602082015281517f0e044b81978bd74936009a77734e944061e89d03fa6b15a71a3b864bab4047f5929181900390910190a15050600160695550505050565b600054610100900460ff168061276257506127626144bf565b80612770575060005460ff16155b6127ab5760405162461bcd60e51b815260040180806020018281038252602e815260200180614be5602e913960400191505060405180910390fd5b600054610100900460ff161580156127d6576000805460ff1961ff0019909116610100171660011790555b6127de6144d0565b6127e7846129f0565b6127f088613138565b6127f987612fec565b6128028661318c565b61280b85613040565b61281483613862565b61281d826130e4565b8015611190576000805461ff00191690555050505050505050565b606a546001600160a01b031681565b606b546040805163633defbd60e01b81526001600160a01b03858116600483015284811660248301529151600093929092169163633defbd91604480820192602092909190829003018186803b1580156128a057600080fd5b505afa1580156128b4573d6000803e3d6000fd5b505050506040513d60208110156128ca57600080fd5b5051612911576040805162461bcd60e51b815260206004820152601160248201527010d30e88139bc81c1c9a58d94819995959607a1b604482015290519081900360640190fd5b6000612926338b8b8b8b8b8b8b8b60016136fe565b606a546040805163b9d15aa960e01b81526001600160a01b038881166004830152336024830152604482018e9052915193945091169163b9d15aa99160648082019260009290919082900301818387803b15801561298357600080fd5b505af1158015612997573d6000803e3d6000fd5b5050604080518481523360208201526001600160a01b038e168183015290517f59d513e7efd4dd31544855938bf1602ae4ef19b5b6b5499a7dd0d0bf1770bbde9350908190036060019150a19998505050505050505050565b6129f8612fe8565b6001600160a01b0316612a0961119a565b6001600160a01b031614612a52576040805162461bcd60e51b81526020600482018190526024820152600080516020614c34833981519152604482015290519081900360640190fd5b6001600160a01b038116612a975760405162461bcd60e51b8152600401808060200182810382526026815260200180614a1c6026913960400191505060405180910390fd5b6033546040516001600160a01b038084169216907f8be0079c531659141344cd1fd0a4f28419497f9722a3daafe3b4186f6b6457e090600090a3603380546001600160a01b0319166001600160a01b0392909216919091179055565b606d546001600160a01b031681565b60026069541415612b5a576040805162461bcd60e51b815260206004820152601f60248201527f5265656e7472616e637947756172643a207265656e7472616e742063616c6c00604482015290519081900360640190fd5b60026069558015612b7657612b7184843330614068565b612df1565b606d54606a546001600160a01b0391821691908116908616612bd557843414612bd05760405162461bcd60e51b815260040180806020018281038252604c815260200180614e6e604c913960600191505060405180910390fd5b612d05565b612bea6001600160a01b038716333088614465565b6001600160a01b038216612c8157856001600160a01b031663095ea7b382876040518363ffffffff1660e01b815260040180836001600160a01b0316815260200182815260200192505050602060405180830381600087803b158015612c4f57600080fd5b505af1158015612c63573d6000803e3d6000fd5b505050506040513d6020811015612c7957600080fd5b50612d059050565b856001600160a01b031663095ea7b383876040518363ffffffff1660e01b815260040180836001600160a01b0316815260200182815260200192505050602060405180830381600087803b158015612cd857600080fd5b505af1158015612cec573d6000803e3d6000fd5b505050506040513d6020811015612d0257600080fd5b50505b6040805162a3da2560e61b8152600481018790526001600160a01b038881166024830152848116604483015230606483015291516000928416916328f6894091349160848082019260209290919082900301818588803b158015612d6857600080fd5b505af1158015612d7c573d6000803e3d6000fd5b50505050506040513d6020811015612d9357600080fd5b505160008681526066602090815260408083206001600160a01b0388168452909152902054909150612dc590826136a4565b60008681526066602090815260408083206001600160a01b039097168352959052939093209290925550505b505060016069555050565b600082612e0b57506000612e58565b82820282848281612e1857fe5b0414612e555760405162461bcd60e51b8152600401808060200182810382526021815260200180614c136021913960400191505060405180910390fd5b90505b92915050565b6000808211612eb4576040805162461bcd60e51b815260206004820152601a60248201527f536166654d6174683a206469766973696f6e206279207a65726f000000000000604482015290519081900360640190fd5b818381612ebd57fe5b049392505050565b6001600083815260686020526040902060070154600160a01b900460ff166005811115612eee57fe5b14612f2a5760405162461bcd60e51b81526004018080602001828103825260438152602001806149d96043913960600191505060405180910390fd5b60008281526068602052604090206007015460ff600160b01b90910416151581151514612f885760405162461bcd60e51b8152600401808060200182810382526034815260200180614d226034913960400191505060405180910390fd5b600082815260686020526040902060070180546002919060ff60a01b1916600160a01b8302179055506040805183815290517f94a4d7286368682acd8115aead8b6a1e6e206702c1245cb7df7dba279d88b39f9181900360200190a15050565b3390565b606b80546001600160a01b0383166001600160a01b0319909116811790915560408051918252517fefe8ab924ca486283a79dc604baa67add51afb82af1db8ac386ebbba643cdffd9181900360200190a150565b6001600160a01b038116613090576040805162461bcd60e51b8152602060048201526012602482015271434c3a3a49207a65726f206164647265737360701b604482015290519081900360640190fd5b606c80546001600160a01b0383166001600160a01b0319909116811790915560408051918252517f0ae0dc70cd51233fb6650002520dcd7be97d65702ded4fbd4fc90777326935889181900360200190a150565b606f80546001600160a01b0383166001600160a01b0319909116811790915560408051918252517f33837f672315b6cffcf11894714abfdec631a913c18d7738fcaf40c444376fb69181900360200190a150565b606d80546001600160a01b0383166001600160a01b0319909116811790915560408051918252517f45a9e715f8779ebeab88d3e8d081fb8b484b7730857e7c4478a95a5b1d8f79489181900360200190a150565b606a80546001600160a01b0383166001600160a01b0319909116811790915560408051918252517f5e8a3d56d9512a62f643367551a65727148c2516dce6b54956df80926dd2536c9181900360200190a150565b600082821115613237576040805162461bcd60e51b815260206004820152601e60248201527f536166654d6174683a207375627472616374696f6e206f766572666c6f770000604482015290519081900360640190fd5b50900390565b606c546040805163b49a60bb60e01b815290516060926001600160a01b03169163b49a60bb916004808301926000929190829003018186803b15801561328257600080fd5b505afa158015613296573d6000803e3d6000fd5b505050506040513d6000823e601f3d908101601f1916820160405260208110156132bf57600080fd5b8101908080516040519392919084600160201b8211156132de57600080fd5b9083019060208201858111156132f357600080fd5b82518660208202830111600160201b8211171561330f57600080fd5b82525081516020918201928201910280838360005b8381101561333c578181015183820152602001613324565b505050509050016040525050509050600080600090505b82518110156136515760008481526066602052604081208451829086908590811061337a57fe5b60200260200101516001600160a01b03166001600160a01b0316815260200190815260200160002054905080600014156133b45750613649565b835181906000908690859081106133c757fe5b60200260200101516001600160a01b031614613476578483815181106133e957fe5b60200260200101516001600160a01b03166359846d29838a6040518363ffffffff1660e01b815260040180838152602001826001600160a01b0316815260200192505050602060405180830381600087803b15801561344757600080fd5b505af115801561345b573d6000803e3d6000fd5b505050506040513d602081101561347157600080fd5b505190505b808761348286836136a4565b11156134a55761349288866131e0565b90506134a282610a8d8584612dfc565b92505b6134af85826136a4565b945061350d83606660008a815260200190815260200160002060008988815181106134d657fe5b60200260200101516001600160a01b03166001600160a01b03168152602001908152602001600020546131e090919063ffffffff16565b60666000898152602001908152602001600020600088878151811061352e57fe5b60200260200101516001600160a01b03166001600160a01b0316815260200190815260200160002081905550606a60009054906101000a90046001600160a01b03166001600160a01b03166396885ed333838c8a898151811061358d57fe5b602002602001015160006040518663ffffffff1660e01b815260040180866001600160a01b03168152602001858152602001846001600160a01b03168152602001836001600160a01b03168152602001821515815260200195505050505050602060405180830381600087803b15801561360657600080fd5b505af115801561361a573d6000803e3d6000fd5b505050506040513d602081101561363057600080fd5b5050848814156136455750505050505061369f565b5050505b600101613353565b506040805162461bcd60e51b815260206004820152601760248201527f696e73756666696369656e7420636f6c6c61746572616c000000000000000000604482015290519081900360640190fd5b505050565b600082820183811015612e55576040805162461bcd60e51b815260206004820152601b60248201527f536166654d6174683a206164646974696f6e206f766572666c6f770000000000604482015290519081900360640190fd5b6000896001600160a01b03168b6001600160a01b031614156137515760405162461bcd60e51b815260040180806020018281038252602c815260200180614d7a602c913960400191505060405180910390fd5b60658054600190810191829055604080516020808201949094528151808203850181529082018252805190840120600081815260689094529220600701805460ff60a01b1916600160a01b83021790555060008181526068602052604090206001810180546001600160a01b03808f166001600160a01b03199283161790925582548f831661010002610100600160a81b0319909116178355600283018d9055600783018054600385018b9055600485018e9055600585018d9055600690940180548a8516908416179055861515600160b01b0260ff60b01b199389168c1515600160a81b0260ff60a81b1990961695909517909216939093179190911617905590509a9950505050505050505050565b606e8190556040805182815290517fcfd641dab5b2592643d4b878bf2b771142aff4595263753dc7611f947749999d9181900360200190a150565b600083815260686020526040902060068101549054606a54606d546001600160a01b0393841693610100909304831692918216911685613a4c576001600160a01b0384166139b8578434146139235760405162461bcd60e51b815260040180806020018281038252603c815260200180614c7d603c913960400191505060405180910390fd5b6040805162a3da2560e61b8152600481018790526001600160a01b038681166024830152838116604483015285811660648301529151918416916328f68940913491608480830192602092919082900301818588803b15801561398557600080fd5b505af1158015613999573d6000803e3d6000fd5b50505050506040513d60208110156139b057600080fd5b50613a479050565b6040805162a3da2560e61b8152600481018790526001600160a01b038681166024830152838116604483015285811660648301529151918416916328f68940916084808201926020929091908290030181600087803b158015613a1a57600080fd5b505af1158015613a2e573d6000803e3d6000fd5b505050506040513d6020811015613a4457600080fd5b50505b613a78565b600087815260686020526040902054613a789085908790339061010090046001600160a01b0316614068565b816001600160a01b031663b9d15aa98585886040518463ffffffff1660e01b815260040180846001600160a01b03168152602001836001600160a01b031681526020018281526020019350505050600060405180830381600087803b158015613ae057600080fd5b505af1158015613af4573d6000803e3d6000fd5b5050505050505050505050565b6000818152606760209081526040808320600281018490556001810184905560030192909255815183815291517f0ea9e9f50832fd88162eaf81147589c1ce63c83a78b22975fe71b0365a7496089281900390910190a150565b6002600082815260686020526040902060070154600160a01b900460ff166005811115613b8457fe5b14613bc05760405162461bcd60e51b815260040180806020018281038252602e815260200180614a64602e913960400191505060405180910390fd5b6000613bcb8261197e565b60008381526067602052604081206003015491925090613beb90836136a4565b600093845260676020526040909320600301929092555050565b606c546040805163b49a60bb60e01b815290516060926001600160a01b03169163b49a60bb916004808301926000929190829003018186803b158015613c4a57600080fd5b505afa158015613c5e573d6000803e3d6000fd5b505050506040513d6000823e601f3d908101601f191682016040526020811015613c8757600080fd5b8101908080516040519392919084600160201b821115613ca657600080fd5b908301906020820185811115613cbb57600080fd5b82518660208202830111600160201b82111715613cd757600080fd5b82525081516020918201928201910280838360005b83811015613d04578181015183820152602001613cec565b50505050919091016040525050606a54929350506001600160a01b0390911690506000805b8351811015613fca576000836001600160a01b0316633281ac78878a888681518110613d5157fe5b60200260200101516040518463ffffffff1660e01b815260040180846001600160a01b03168152602001836001600160a01b03168152602001826001600160a01b03168152602001935050505060206040518083038186803b158015613db657600080fd5b505afa158015613dca573d6000803e3d6000fd5b505050506040513d6020811015613de057600080fd5b505190508015613fc15784518190600090879085908110613dfd57fe5b60200260200101516001600160a01b031614613eac57858381518110613e1f57fe5b60200260200101516001600160a01b03166359846d29838b6040518363ffffffff1660e01b815260040180838152602001826001600160a01b0316815260200192505050602060405180830381600087803b158015613e7d57600080fd5b505af1158015613e91573d6000803e3d6000fd5b505050506040513d6020811015613ea757600080fd5b505190505b8088613eb886836136a4565b10613eca57613ec789866131e0565b90505b613ed485826136a4565b9450856001600160a01b0316632f2eaca48930848e8c8a81518110613ef557fe5b602002602001015160006040518763ffffffff1660e01b815260040180876001600160a01b03168152602001866001600160a01b03168152602001858152602001846001600160a01b03168152602001836001600160a01b0316815260200182151581526020019650505050505050602060405180830381600087803b158015613f7e57600080fd5b505af1158015613f92573d6000803e3d6000fd5b505050506040513d6020811015613fa857600080fd5b505084891415613fbe575050505050505061369f565b50505b50600101613d29565b50848114610b96576040805162461bcd60e51b8152602060048201526014602482015273696e73756666696369656e742062616c616e636560601b604482015290519081900360640190fd5b604080516001600160a01b038416602482015260448082018490528251808303909101815260649091019091526020810180516001600160e01b031663a9059cbb60e01b17905261369f908490614581565b606c546040805163b49a60bb60e01b815290516060926001600160a01b03169163b49a60bb916004808301926000929190829003018186803b1580156140ad57600080fd5b505afa1580156140c1573d6000803e3d6000fd5b505050506040513d6000823e601f3d908101601f1916820160405260208110156140ea57600080fd5b8101908080516040519392919084600160201b82111561410957600080fd5b90830190602082018581111561411e57600080fd5b82518660208202830111600160201b8211171561413a57600080fd5b82525081516020918201928201910280838360005b8381101561416757818101518382015260200161414f565b50505050919091016040525050606a54929350506001600160a01b0390911690506000805b8351811015614427576000836001600160a01b0316633281ac78888b8886815181106141b457fe5b60200260200101516040518463ffffffff1660e01b815260040180846001600160a01b03168152602001836001600160a01b03168152602001826001600160a01b03168152602001935050505060206040518083038186803b15801561421957600080fd5b505afa15801561422d573d6000803e3d6000fd5b505050506040513d602081101561424357600080fd5b5051905080614252575061441f565b8451819060009087908590811061426557fe5b60200260200101516001600160a01b0316146143145785838151811061428757fe5b60200260200101516001600160a01b03166359846d29838c6040518363ffffffff1660e01b815260040180838152602001826001600160a01b0316815260200192505050602060405180830381600087803b1580156142e557600080fd5b505af11580156142f9573d6000803e3d6000fd5b505050506040513d602081101561430f57600080fd5b505190505b808961432086836136a4565b106143325761432f8a866131e0565b90505b61433c85826136a4565b9450856001600160a01b0316636e275bd28c8b8b8b898151811061435c57fe5b6020026020010151866040518663ffffffff1660e01b815260040180866001600160a01b03168152602001856001600160a01b03168152602001846001600160a01b03168152602001836001600160a01b0316815260200182815260200195505050505050602060405180830381600087803b1580156143db57600080fd5b505af11580156143ef573d6000803e3d6000fd5b505050506040513d602081101561440557600080fd5b50508985141561441b575050505050505061445f565b5050505b60010161418c565b5060405162461bcd60e51b815260040180806020018281038252603c815260200180614eba603c913960400191505060405180910390fd5b50505050565b604080516001600160a01b0380861660248301528416604482015260648082018490528251808303909101815260849091019091526020810180516001600160e01b03166323b872dd60e01b17905261445f908590614581565b60006144ca30614632565b15905090565b600054610100900460ff16806144e957506144e96144bf565b806144f7575060005460ff16155b6145325760405162461bcd60e51b815260040180806020018281038252602e815260200180614be5602e913960400191505060405180910390fd5b600054610100900460ff1615801561455d576000805460ff1961ff0019909116610100171660011790555b614565614638565b61456d6146d8565b8015610d67576000805461ff001916905550565b60606145d6826040518060400160405280602081526020017f5361666545524332303a206c6f772d6c6576656c2063616c6c206661696c6564815250856001600160a01b03166147d19092919063ffffffff16565b80519091501561369f578080602001905160208110156145f557600080fd5b505161369f5760405162461bcd60e51b815260040180806020018281038252602a815260200180614da6602a913960400191505060405180910390fd5b3b151590565b600054610100900460ff168061465157506146516144bf565b8061465f575060005460ff16155b61469a5760405162461bcd60e51b815260040180806020018281038252602e815260200180614be5602e913960400191505060405180910390fd5b600054610100900460ff1615801561456d576000805460ff1961ff0019909116610100171660011790558015610d67576000805461ff001916905550565b600054610100900460ff16806146f157506146f16144bf565b806146ff575060005460ff16155b61473a5760405162461bcd60e51b815260040180806020018281038252602e815260200180614be5602e913960400191505060405180910390fd5b600054610100900460ff16158015614765576000805460ff1961ff0019909116610100171660011790555b600061476f612fe8565b603380546001600160a01b0319166001600160a01b038316908117909155604051919250906000907f8be0079c531659141344cd1fd0a4f28419497f9722a3daafe3b4186f6b6457e0908290a3508015610d67576000805461ff001916905550565b60606147e084846000856147e8565b949350505050565b6060824710156148295760405162461bcd60e51b8152600401808060200182810382526026815260200180614b1f6026913960400191505060405180910390fd5b61483285614632565b614883576040805162461bcd60e51b815260206004820152601d60248201527f416464726573733a2063616c6c20746f206e6f6e2d636f6e7472616374000000604482015290519081900360640190fd5b60006060866001600160a01b031685876040518082805190602001908083835b602083106148c25780518252601f1990920191602091820191016148a3565b6001836020036101000a03801982511681845116808217855250505050505090500191505060006040518083038185875af1925050503d8060008114614924576040519150601f19603f3d011682016040523d82523d6000602084013e614929565b606091505b5091509150610cf182828660608315614943575081610a97565b8251156149535782518084602001fd5b8160405162461bcd60e51b81526004018080602001828103825283818151815260200191508051906020019080838360005b8381101561499d578181015183820152602001614985565b50505050905090810190601f1680156149ca5780820380516001836020036101000a031916815260200191505b509250505060405180910390fdfe4372656469744c696e653a3a6163636570744372656469744c696e654c656e646572202d204372656469744c696e6520697320616c72656164792061636365707465644f776e61626c653a206e6577206f776e657220697320746865207a65726f20616464726573734f6e6c7920637265646974206c696e65204c656e6465722063616e206163636573734372656469744c696e653a2054686520637265646974206c696e65206973206e6f7420796574206163746976652e4372656469744c696e653a2043616e6e6f7420626520636c6f7365642073696e6365206e6f74207265706169642e4372656469744c696e653a204c69717569646174696f6e2063616e206f6e6c7920626520706572666f726d6564206279206c656e6465722e4372656469744c696e653a3a7265636569766520696e76616c6964207472616e73616374696f6e416464726573733a20696e73756666696369656e742062616c616e636520666f722063616c6c4372656469744c696e653a3a7769746864726177436f6c6c61746572616c46726f6d4372656469744c696e65202d205468652063757272656e7420636f6c6c61746572616c20726174696f6e20646f65736e277420616c6c6f7720746f2077697468647261774372656469744c696e653a205065726d697373696f6e2064656e696564207768696c6520636c6f73696e67204c696e65206f6620637265646974496e697469616c697a61626c653a20636f6e747261637420697320616c726561647920696e697469616c697a6564536166654d6174683a206d756c7469706c69636174696f6e206f766572666c6f774f776e61626c653a2063616c6c6572206973206e6f7420746865206f776e65724372656469744c696e653a20437265646974206c696e652073686f756c64206265206163746976652e6372656469744c696e653a3a7265706179202d2076616c756520746f207472616e7366657220646f65736e2774206d6174636820617267756d656e744372656469744c696e653a20416d6f756e74206578636565647320626f72726f77206c696d69742e4372656469744c696e653a20436f6c6c61746572616c20726174696f20697320686967686572207468616e206c69717569646174696f6e207468726573686f6c644372656469744c696e653a3a6163636570744372656469744c696e654c656e646572202d20496e76616c696420726571756573744f6e6c7920637265646974206c696e6520426f72726f7765722063616e206163636573734c656e64657220616e6420426f72726f7765722063616e6e6f742062652073616d65206164647265737365735361666545524332303a204552433230206f7065726174696f6e20646964206e6f7420737563636565644372656469744c696e653a3a626f72726f7746726f6d4372656469744c696e65202d205468652063757272656e7420636f6c6c61746572616c20726174696f20646f65736e277420616c6c6f7720746f2077697468647261772074686520616d6f756e744372656469744c696e653a2043616e6e6f74206f6e6c7920696620637265646974206c696e6520414354495645206f72205245515545535445444372656469744c696e65203a3a626f72726f7746726f6d4372656469744c696e65202d2076616c756520746f207472616e7366657220646f65736e2774206d6174636820617267756d656e744372656469744c696e653a3a7472616e7366657246726f6d536176696e674163636f756e74202d20496e73756666696369656e742062616c616e6365a264697066735822122010d821edb3e0a5164709bfd7015c9700a691837620491468beb8c6a1f838baa464736f6c63430007000033",
  "linkReferences": {},
  "deployedLinkReferences": {}
}