{
  "contractName": "CreditLineStorage",
  "abi": [
    {
      "anonymous": false,
      "inputs": [
        {
          "indexed": true,
          "internalType": "address",
          "name": "previousOwner",
          "type": "address"
        },
        {
          "indexed": true,
          "internalType": "address",
          "name": "newOwner",
          "type": "address"
        }
      ],
      "name": "OwnershipTransferred",
      "type": "event"
    },
    {
      "inputs": [
        {
          "internalType": "bytes32",
          "name": "",
          "type": "bytes32"
        }
      ],
      "name": "creditLineInfo",
      "outputs": [
        {
          "internalType": "bool",
          "name": "exists",
          "type": "bool"
        },
        {
          "internalType": "address",
          "name": "lender",
          "type": "address"
        },
        {
          "internalType": "address",
          "name": "borrower",
          "type": "address"
        },
        {
          "internalType": "uint256",
          "name": "borrowLimit",
          "type": "uint256"
        },
        {
          "internalType": "uint256",
          "name": "idealCollateralRatio",
          "type": "uint256"
        },
        {
          "internalType": "uint256",
          "name": "liquidationThreshold",
          "type": "uint256"
        },
        {
          "internalType": "uint256",
          "name": "borrowRate",
          "type": "uint256"
        },
        {
          "internalType": "address",
          "name": "borrowAsset",
          "type": "address"
        },
        {
          "internalType": "address",
          "name": "collateralAsset",
          "type": "address"
        },
        {
          "internalType": "enum CreditLineStorage.creditLineStatus",
          "name": "currentStatus",
          "type": "uint8"
        },
        {
          "internalType": "bool",
          "name": "autoLiquidation",
          "type": "bool"
        },
        {
          "internalType": "bool",
          "name": "requestByLender",
          "type": "bool"
        }
      ],
      "stateMutability": "view",
      "type": "function"
    },
    {
      "inputs": [
        {
          "internalType": "bytes32",
          "name": "",
          "type": "bytes32"
        }
      ],
      "name": "creditLineUsage",
      "outputs": [
        {
          "internalType": "uint256",
          "name": "principal",
          "type": "uint256"
        },
        {
          "internalType": "uint256",
          "name": "totalInterestRepaid",
          "type": "uint256"
        },
        {
          "internalType": "uint256",
          "name": "lastPrincipalUpdateTime",
          "type": "uint256"
        },
        {
          "internalType": "uint256",
          "name": "interestAccruedTillPrincipalUpdate",
          "type": "uint256"
        },
        {
          "internalType": "uint256",
          "name": "collateralAmount",
          "type": "uint256"
        }
      ],
      "stateMutability": "view",
      "type": "function"
    },
    {
      "inputs": [],
      "name": "owner",
      "outputs": [
        {
          "internalType": "address",
          "name": "",
          "type": "address"
        }
      ],
      "stateMutability": "view",
      "type": "function"
    },
    {
      "inputs": [],
      "name": "renounceOwnership",
      "outputs": [],
      "stateMutability": "nonpayable",
      "type": "function"
    },
    {
      "inputs": [
        {
          "internalType": "address",
          "name": "newOwner",
          "type": "address"
        }
      ],
      "name": "transferOwnership",
      "outputs": [],
      "stateMutability": "nonpayable",
      "type": "function"
    },
    {
      "inputs": [],
      "name": "yearInSeconds",
      "outputs": [
        {
          "internalType": "uint256",
          "name": "",
          "type": "uint256"
        }
      ],
      "stateMutability": "view",
      "type": "function"
    }
  ],
  "bytecode": "0x608060405234801561001057600080fd5b506104c2806100206000396000f3fe608060405234801561001057600080fd5b50600436106100625760003560e01c80634059d59614610067578063715018a6146100815780638da5cb5b1461008b578063a164b423146100af578063ae974ff6146100f7578063f2fde38b146101ac575b600080fd5b61006f6101d2565b60408051918252519081900360200190f35b6100896101da565b005b610093610298565b604080516001600160a01b039092168252519081900360200190f35b6100cc600480360360208110156100c557600080fd5b50356102a7565b6040805195865260208601949094528484019290925260608401526080830152519081900360a00190f35b6101146004803603602081101561010d57600080fd5b50356102d6565b604051808d151581526020018c6001600160a01b031681526020018b6001600160a01b031681526020018a8152602001898152602001888152602001878152602001866001600160a01b03168152602001856001600160a01b0316815260200184600381111561018057fe5b8152602001831515815260200182151581526020019c5050505050505050505050505060405180910390f35b610089600480360360208110156101c257600080fd5b50356001600160a01b031661034d565b6301e1338081565b6101e2610462565b6001600160a01b03166101f3610298565b6001600160a01b03161461024e576040805162461bcd60e51b815260206004820181905260248201527f4f776e61626c653a2063616c6c6572206973206e6f7420746865206f776e6572604482015290519081900360640190fd5b6033546040516000916001600160a01b0316907f8be0079c531659141344cd1fd0a4f28419497f9722a3daafe3b4186f6b6457e0908390a3603380546001600160a01b0319169055565b6033546001600160a01b031690565b606760205260009081526040902080546001820154600283015460038401546004909401549293919290919085565b6068602052600090815260409020805460018201546002830154600384015460048501546005860154600687015460079097015460ff808816986001600160a01b03610100909904891698978816979081169290811691600160a01b8204811691600160a81b8104821691600160b01b909104168c565b610355610462565b6001600160a01b0316610366610298565b6001600160a01b0316146103c1576040805162461bcd60e51b815260206004820181905260248201527f4f776e61626c653a2063616c6c6572206973206e6f7420746865206f776e6572604482015290519081900360640190fd5b6001600160a01b0381166104065760405162461bcd60e51b81526004018080602001828103825260268152602001806104676026913960400191505060405180910390fd5b6033546040516001600160a01b038084169216907f8be0079c531659141344cd1fd0a4f28419497f9722a3daafe3b4186f6b6457e090600090a3603380546001600160a01b0319166001600160a01b0392909216919091179055565b339056fe4f776e61626c653a206e6577206f776e657220697320746865207a65726f2061646472657373a26469706673582212203625b666729fcc11fc067985e9c54e77b85fc21af097a617a6d5cca148b502bb64736f6c63430007000033",
  "immutableReferences": {},
  "source": "// SPDX-License-Identifier: MIT\r\npragma solidity 0.7.0;\r\n\r\nimport \"@openzeppelin/contracts/token/ERC20/SafeERC20.sol\";\r\nimport \"@openzeppelin/contracts/math/SafeMath.sol\";\r\nimport \"@openzeppelin/contracts-upgradeable/access/OwnableUpgradeable.sol\";\r\n\r\n\r\n/**\r\n * @title Credit Line contract with Methods related to credit Line\r\n * @notice Implements the functions related to Credit Line\r\n * @author Sublime\r\n **/\r\n\r\ncontract CreditLineStorage is OwnableUpgradeable {\r\n    using SafeERC20 for IERC20;\r\n    using SafeMath for uint256;\r\n\r\n    \r\n    enum creditLineStatus {REQUESTED, ACTIVE, CLOSED, CANCELLED}\r\n\r\n    uint256 CreditLineCounter;\r\n\r\n    // assuming number of days in year is 365 more discussion is needed for this\r\n    uint256 public constant yearInSeconds = 365 days;\r\n\r\n    /*struct repayments {\r\n        uint256 lastRepaymentTime;\r\n        uint256 currentDebt;\r\n        uint256 netPrinciple;\r\n        uint256 accrueInterest;\r\n    }*/\r\n\r\n\r\n\r\n    struct CreditLineUsageVars {\r\n        uint256 principal;\r\n        uint256 totalInterestRepaid;\r\n        uint256 lastPrincipalUpdateTime;\r\n        uint256 interestAccruedTillPrincipalUpdate;\r\n        uint256 collateralAmount;\r\n    }\r\n\r\n    struct CreditLineVars {\r\n        bool exists;\r\n        address lender;\r\n        address borrower;\r\n        uint256 borrowLimit;\r\n        uint256 idealCollateralRatio;\r\n        uint256 liquidationThreshold;\r\n        uint256 borrowRate;\r\n        address borrowAsset;\r\n        address collateralAsset;\r\n        creditLineStatus currentStatus;\r\n        bool autoLiquidation;\r\n        bool requestByLender;\r\n    }\r\n    mapping(bytes32 => mapping(address => uint256)) collateralShareInStrategy;\r\n    mapping(bytes32 => CreditLineUsageVars) public creditLineUsage;\r\n    mapping(bytes32 => CreditLineVars) public creditLineInfo;\r\n}\r\n",
  "sourcePath": "C:\\Users\\Harshita\\Documents\\sublime-v1\\sublime-v1\\contracts\\CreditLine\\CreditLineStorage.sol",
  "compiler": {
    "name": "solc",
    "version": "0.7.0+commit.9e61f92b.Emscripten.clang"
  },
  "schemaVersion": "3.3.3",
  "updatedAt": "2021-03-22T07:18:06.954Z",
  "devdoc": {
    "author": "Sublime*",
    "kind": "dev",
    "methods": {
      "owner()": {
        "details": "Returns the address of the current owner."
      },
      "renounceOwnership()": {
        "details": "Leaves the contract without owner. It will not be possible to call `onlyOwner` functions anymore. Can only be called by the current owner. NOTE: Renouncing ownership will leave the contract without an owner, thereby removing any functionality that is only available to the owner."
      },
      "transferOwnership(address)": {
        "details": "Transfers ownership of the contract to a new account (`newOwner`). Can only be called by the current owner."
      }
    },
    "title": "Credit Line contract with Methods related to credit Line",
    "version": 1
  },
  "userdoc": {
    "kind": "user",
    "methods": {},
    "notice": "Implements the functions related to Credit Line",
    "version": 1
  }
}