{
  "contractName": "CreditLine",
  "abi": [
    {
      "anonymous": false,
      "inputs": [
        {
          "indexed": false,
          "internalType": "uint256",
          "name": "borrowAmount",
          "type": "uint256"
        },
        {
          "indexed": false,
          "internalType": "bytes32",
          "name": "creditLineHash",
          "type": "bytes32"
        }
      ],
      "name": "BorrowedFromCreditLine",
      "type": "event"
    },
    {
      "anonymous": false,
      "inputs": [
        {
          "indexed": false,
          "internalType": "bytes32",
          "name": "creditLineHash",
          "type": "bytes32"
        }
      ],
      "name": "CreditLineAccepted",
      "type": "event"
    },
    {
      "anonymous": false,
      "inputs": [
        {
          "indexed": false,
          "internalType": "bytes32",
          "name": "creditLineHash",
          "type": "bytes32"
        }
      ],
      "name": "CreditLineClosed",
      "type": "event"
    },
    {
      "anonymous": false,
      "inputs": [
        {
          "indexed": false,
          "internalType": "bytes32",
          "name": "creditLineHash",
          "type": "bytes32"
        },
        {
          "indexed": false,
          "internalType": "address",
          "name": "lender",
          "type": "address"
        },
        {
          "indexed": false,
          "internalType": "address",
          "name": "borrower",
          "type": "address"
        }
      ],
      "name": "CreditLineRequestedToBorrower",
      "type": "event"
    },
    {
      "anonymous": false,
      "inputs": [
        {
          "indexed": false,
          "internalType": "bytes32",
          "name": "creditLineHash",
          "type": "bytes32"
        },
        {
          "indexed": false,
          "internalType": "address",
          "name": "lender",
          "type": "address"
        },
        {
          "indexed": false,
          "internalType": "address",
          "name": "borrower",
          "type": "address"
        }
      ],
      "name": "CreditLineRequestedToLender",
      "type": "event"
    },
    {
      "anonymous": false,
      "inputs": [
        {
          "indexed": false,
          "internalType": "bytes32",
          "name": "creditLineHash",
          "type": "bytes32"
        }
      ],
      "name": "CreditLineReset",
      "type": "event"
    },
    {
      "anonymous": false,
      "inputs": [
        {
          "indexed": true,
          "internalType": "address",
          "name": "previousOwner",
          "type": "address"
        },
        {
          "indexed": true,
          "internalType": "address",
          "name": "newOwner",
          "type": "address"
        }
      ],
      "name": "OwnershipTransferred",
      "type": "event"
    },
    {
      "anonymous": false,
      "inputs": [
        {
          "indexed": false,
          "internalType": "bytes32",
          "name": "creditLineHash",
          "type": "bytes32"
        },
        {
          "indexed": false,
          "internalType": "uint256",
          "name": "repayAmount",
          "type": "uint256"
        }
      ],
      "name": "PartialCreditLineRepaid",
      "type": "event"
    },
    {
      "inputs": [],
      "name": "PoolFactory",
      "outputs": [
        {
          "internalType": "address",
          "name": "",
          "type": "address"
        }
      ],
      "stateMutability": "view",
      "type": "function"
    },
    {
      "inputs": [
        {
          "internalType": "bytes32",
          "name": "",
          "type": "bytes32"
        }
      ],
      "name": "creditLineInfo",
      "outputs": [
        {
          "internalType": "bool",
          "name": "exists",
          "type": "bool"
        },
        {
          "internalType": "address",
          "name": "lender",
          "type": "address"
        },
        {
          "internalType": "address",
          "name": "borrower",
          "type": "address"
        },
        {
          "internalType": "uint256",
          "name": "borrowLimit",
          "type": "uint256"
        },
        {
          "internalType": "uint256",
          "name": "idealCollateralRatio",
          "type": "uint256"
        },
        {
          "internalType": "uint256",
          "name": "liquidationThreshold",
          "type": "uint256"
        },
        {
          "internalType": "uint256",
          "name": "borrowRate",
          "type": "uint256"
        },
        {
          "internalType": "address",
          "name": "borrowAsset",
          "type": "address"
        },
        {
          "internalType": "address",
          "name": "collateralAsset",
          "type": "address"
        },
        {
          "internalType": "enum CreditLineStorage.creditLineStatus",
          "name": "currentStatus",
          "type": "uint8"
        },
        {
          "internalType": "bool",
          "name": "autoLiquidation",
          "type": "bool"
        },
        {
          "internalType": "bool",
          "name": "requestByLender",
          "type": "bool"
        }
      ],
      "stateMutability": "view",
      "type": "function"
    },
    {
      "inputs": [
        {
          "internalType": "bytes32",
          "name": "",
          "type": "bytes32"
        }
      ],
      "name": "creditLineUsage",
      "outputs": [
        {
          "internalType": "uint256",
          "name": "principal",
          "type": "uint256"
        },
        {
          "internalType": "uint256",
          "name": "totalInterestRepaid",
          "type": "uint256"
        },
        {
          "internalType": "uint256",
          "name": "lastPrincipalUpdateTime",
          "type": "uint256"
        },
        {
          "internalType": "uint256",
          "name": "interestAccruedTillPrincipalUpdate",
          "type": "uint256"
        },
        {
          "internalType": "uint256",
          "name": "collateralAmount",
          "type": "uint256"
        }
      ],
      "stateMutability": "view",
      "type": "function"
    },
    {
      "inputs": [],
      "name": "defaultStrategy",
      "outputs": [
        {
          "internalType": "address",
          "name": "",
          "type": "address"
        }
      ],
      "stateMutability": "view",
      "type": "function"
    },
    {
      "inputs": [],
      "name": "owner",
      "outputs": [
        {
          "internalType": "address",
          "name": "",
          "type": "address"
        }
      ],
      "stateMutability": "view",
      "type": "function"
    },
    {
      "inputs": [],
      "name": "renounceOwnership",
      "outputs": [],
      "stateMutability": "nonpayable",
      "type": "function"
    },
    {
      "inputs": [],
      "name": "strategyRegistry",
      "outputs": [
        {
          "internalType": "address",
          "name": "",
          "type": "address"
        }
      ],
      "stateMutability": "view",
      "type": "function"
    },
    {
      "inputs": [
        {
          "internalType": "address",
          "name": "newOwner",
          "type": "address"
        }
      ],
      "name": "transferOwnership",
      "outputs": [],
      "stateMutability": "nonpayable",
      "type": "function"
    },
    {
      "inputs": [],
      "name": "yearInSeconds",
      "outputs": [
        {
          "internalType": "uint256",
          "name": "",
          "type": "uint256"
        }
      ],
      "stateMutability": "view",
      "type": "function"
    },
    {
      "stateMutability": "payable",
      "type": "receive"
    },
    {
      "inputs": [
        {
          "internalType": "address",
          "name": "_defaultStrategy",
          "type": "address"
        }
      ],
      "name": "initialize",
      "outputs": [],
      "stateMutability": "nonpayable",
      "type": "function"
    },
    {
      "inputs": [
        {
          "internalType": "uint256",
          "name": "_principal",
          "type": "uint256"
        },
        {
          "internalType": "uint256",
          "name": "_borrowRate",
          "type": "uint256"
        }
      ],
      "name": "calculateInterestPerSecond",
      "outputs": [
        {
          "internalType": "uint256",
          "name": "",
          "type": "uint256"
        }
      ],
      "stateMutability": "pure",
      "type": "function"
    },
    {
      "inputs": [
        {
          "internalType": "bytes32",
          "name": "creditLineHash",
          "type": "bytes32"
        }
      ],
      "name": "calculateInterestAccrued",
      "outputs": [
        {
          "internalType": "uint256",
          "name": "",
          "type": "uint256"
        }
      ],
      "stateMutability": "view",
      "type": "function"
    },
    {
      "inputs": [
        {
          "internalType": "bytes32",
          "name": "_creditLineHash",
          "type": "bytes32"
        }
      ],
      "name": "calculateCurrentDebt",
      "outputs": [
        {
          "internalType": "uint256",
          "name": "",
          "type": "uint256"
        }
      ],
      "stateMutability": "view",
      "type": "function"
    },
    {
      "inputs": [
        {
          "internalType": "address",
          "name": "_sender",
          "type": "address"
        },
        {
          "internalType": "address",
          "name": "_asset",
          "type": "address"
        }
      ],
      "name": "getTotalTokensInStrategies",
      "outputs": [
        {
          "internalType": "uint256",
          "name": "",
          "type": "uint256"
        }
      ],
      "stateMutability": "nonpayable",
      "type": "function"
    },
    {
      "inputs": [
        {
          "internalType": "address",
          "name": "_lender",
          "type": "address"
        },
        {
          "internalType": "uint256",
          "name": "_borrowLimit",
          "type": "uint256"
        },
        {
          "internalType": "uint256",
          "name": "_liquidationThreshold",
          "type": "uint256"
        },
        {
          "internalType": "uint256",
          "name": "_borrowRate",
          "type": "uint256"
        },
        {
          "internalType": "bool",
          "name": "_autoLiquidation",
          "type": "bool"
        },
        {
          "internalType": "uint256",
          "name": "_collateralRatio",
          "type": "uint256"
        },
        {
          "internalType": "address",
          "name": "_borrowAsset",
          "type": "address"
        },
        {
          "internalType": "address",
          "name": "_collateralAsset",
          "type": "address"
        }
      ],
      "name": "requestCreditLineToLender",
      "outputs": [
        {
          "internalType": "bytes32",
          "name": "",
          "type": "bytes32"
        }
      ],
      "stateMutability": "nonpayable",
      "type": "function"
    },
    {
      "inputs": [
        {
          "internalType": "address",
          "name": "_borrower",
          "type": "address"
        },
        {
          "internalType": "uint256",
          "name": "_borrowLimit",
          "type": "uint256"
        },
        {
          "internalType": "uint256",
          "name": "_liquidationThreshold",
          "type": "uint256"
        },
        {
          "internalType": "uint256",
          "name": "_borrowRate",
          "type": "uint256"
        },
        {
          "internalType": "bool",
          "name": "_autoLiquidation",
          "type": "bool"
        },
        {
          "internalType": "uint256",
          "name": "_collateralRatio",
          "type": "uint256"
        },
        {
          "internalType": "address",
          "name": "_borrowAsset",
          "type": "address"
        },
        {
          "internalType": "address",
          "name": "_collateralAsset",
          "type": "address"
        }
      ],
      "name": "requestCreditLineToBorrower",
      "outputs": [
        {
          "internalType": "bytes32",
          "name": "",
          "type": "bytes32"
        }
      ],
      "stateMutability": "nonpayable",
      "type": "function"
    },
    {
      "inputs": [
        {
          "internalType": "bytes32",
          "name": "_creditLineHash",
          "type": "bytes32"
        }
      ],
      "name": "acceptCreditLineLender",
      "outputs": [],
      "stateMutability": "nonpayable",
      "type": "function"
    },
    {
      "inputs": [
        {
          "internalType": "bytes32",
          "name": "_creditLineHash",
          "type": "bytes32"
        }
      ],
      "name": "acceptCreditLineBorrower",
      "outputs": [],
      "stateMutability": "nonpayable",
      "type": "function"
    },
    {
      "inputs": [
        {
          "internalType": "address",
          "name": "_collateralAsset",
          "type": "address"
        },
        {
          "internalType": "uint256",
          "name": "_collateralAmount",
          "type": "uint256"
        },
        {
          "internalType": "bytes32",
          "name": "_creditLineHash",
          "type": "bytes32"
        },
        {
          "internalType": "bool",
          "name": "_transferCollateralFromSavingAccount",
          "type": "bool"
        }
      ],
      "name": "_depositCollateral",
      "outputs": [],
      "stateMutability": "payable",
      "type": "function"
    },
    {
      "inputs": [
        {
          "internalType": "uint256",
          "name": "borrowAmount",
          "type": "uint256"
        },
        {
          "internalType": "bytes32",
          "name": "creditLineHash",
          "type": "bytes32"
        }
      ],
      "name": "borrowFromCreditLine",
      "outputs": [],
      "stateMutability": "payable",
      "type": "function"
    },
    {
      "inputs": [
        {
          "internalType": "bytes32",
          "name": "_creditLineHash",
          "type": "bytes32"
        },
        {
          "internalType": "bool",
          "name": "_transferFromSavingAccount",
          "type": "bool"
        },
        {
          "internalType": "uint256",
          "name": "_repayAmount",
          "type": "uint256"
        }
      ],
      "name": "repay",
      "outputs": [],
      "stateMutability": "payable",
      "type": "function"
    },
    {
      "inputs": [
        {
          "internalType": "uint256",
          "name": "repayAmount",
          "type": "uint256"
        },
        {
          "internalType": "bytes32",
          "name": "creditLineHash",
          "type": "bytes32"
        },
        {
          "internalType": "address",
          "name": "asset",
          "type": "address"
        },
        {
          "internalType": "bool",
          "name": "_transferFromSavingAccount",
          "type": "bool"
        }
      ],
      "name": "repayCreditLine",
      "outputs": [],
      "stateMutability": "payable",
      "type": "function"
    },
    {
      "inputs": [
        {
          "internalType": "bytes32",
          "name": "creditLineHash",
          "type": "bytes32"
        }
      ],
      "name": "closeCreditLine",
      "outputs": [],
      "stateMutability": "nonpayable",
      "type": "function"
    },
    {
      "inputs": [
        {
          "internalType": "bytes32",
          "name": "creditLineHash",
          "type": "bytes32"
        }
      ],
      "name": "calculateCurrentCollateralRatio",
      "outputs": [
        {
          "internalType": "uint256",
          "name": "",
          "type": "uint256"
        }
      ],
      "stateMutability": "view",
      "type": "function"
    },
    {
      "inputs": [
        {
          "internalType": "bytes32",
          "name": "creditLineHash",
          "type": "bytes32"
        }
      ],
      "name": "calculateTotalCollateralTokens",
      "outputs": [
        {
          "internalType": "uint256",
          "name": "amount",
          "type": "uint256"
        }
      ],
      "stateMutability": "nonpayable",
      "type": "function"
    },
    {
      "inputs": [
        {
          "internalType": "bytes32",
          "name": "creditLineHash",
          "type": "bytes32"
        },
        {
          "internalType": "uint256",
          "name": "amount",
          "type": "uint256"
        }
      ],
      "name": "withdrawCollateralFromCreditLine",
      "outputs": [],
      "stateMutability": "nonpayable",
      "type": "function"
    },
    {
      "inputs": [
        {
          "internalType": "bytes32",
          "name": "creditLineHash",
          "type": "bytes32"
        }
      ],
      "name": "liquidation",
      "outputs": [],
      "stateMutability": "payable",
      "type": "function"
    }
  ],
  "bytecode": "0x608060405234801561001057600080fd5b506156d7806100206000396000f3fe6080604052600436106101a05760003560e01c8063967ae0f5116100ec578063d080bf271161008a578063e8beada011610064578063e8beada014610734578063ee0c743d14610751578063f2fde38b146107b5578063fac5bb9b146107e857610267565b8063d080bf27146106d2578063e410a8d4146106e7578063e8b5cedc1461071157610267565b8063a98952a7116100c6578063a98952a71461054f578063ae974ff614610579578063c4d66de81461063b578063c6c6fd2a1461066e57610267565b8063967ae0f5146104a6578063a164b423146104d0578063a1f0102b1461052557610267565b80634dd6e772116101595780638720edd9116101335780638720edd9146103fd5780638ce9ae15146104375780638da5cb5b1461046757806395ed30cb1461047c57610267565b80634dd6e7721461038257806360bdc80a146103bd578063715018a6146103e857610267565b806313ef9c2e1461026c57806322ba152514610296578063280d2114146102c75780633c23b2b2146103035780634059d5961461033d5780634765c20e1461035257610267565b3661026757606960009054906101000a90046001600160a01b03166001600160a01b031663ecced6236040518163ffffffff1660e01b815260040160206040518083038186803b1580156101f357600080fd5b505afa158015610207573d6000803e3d6000fd5b505050506040513d602081101561021d57600080fd5b50516001600160a01b031633146102655760405162461bcd60e51b815260040180806020018281038252602781526020018061532b6027913960400191505060405180910390fd5b005b600080fd5b34801561027857600080fd5b506102656004803603602081101561028f57600080fd5b50356107fd565b3480156102a257600080fd5b506102ab610acd565b604080516001600160a01b039092168252519081900360200190f35b3480156102d357600080fd5b506102f1600480360360208110156102ea57600080fd5b5035610adc565b60408051918252519081900360200190f35b6102656004803603608081101561031957600080fd5b506001600160a01b0381351690602081013590604081013590606001351515610c8c565b34801561034957600080fd5b506102f1610f6d565b34801561035e57600080fd5b506102f16004803603604081101561037557600080fd5b5080359060200135610f75565b34801561038e57600080fd5b506102f1600480360360408110156103a557600080fd5b506001600160a01b0381358116916020013516610f94565b610265600480360360608110156103d357600080fd5b508035906020810135151590604001356112ac565b3480156103f457600080fd5b5061026561161f565b6102656004803603608081101561041357600080fd5b508035906020810135906001600160a01b03604082013516906060013515156116dd565b34801561044357600080fd5b506102656004803603604081101561045a57600080fd5b5080359060200135611a19565b34801561047357600080fd5b506102ab611c39565b34801561048857600080fd5b506102656004803603602081101561049f57600080fd5b5035611c48565b3480156104b257600080fd5b506102f1600480360360208110156104c957600080fd5b5035611de3565b3480156104dc57600080fd5b506104fa600480360360208110156104f357600080fd5b503561201c565b6040805195865260208601949094528484019290925260608401526080830152519081900360a00190f35b34801561053157600080fd5b506102656004803603602081101561054857600080fd5b503561204b565b34801561055b57600080fd5b506102f16004803603602081101561057257600080fd5b503561227f565b34801561058557600080fd5b506105a36004803603602081101561059c57600080fd5b503561231f565b604051808d151581526020018c6001600160a01b031681526020018b6001600160a01b031681526020018a8152602001898152602001888152602001878152602001866001600160a01b03168152602001856001600160a01b0316815260200184600381111561060f57fe5b8152602001831515815260200182151581526020019c5050505050505050505050505060405180910390f35b34801561064757600080fd5b506102656004803603602081101561065e57600080fd5b50356001600160a01b0316612396565b34801561067a57600080fd5b506102f1600480360361010081101561069257600080fd5b506001600160a01b038135811691602081013591604082013591606081013591608082013515159160a08101359160c082013581169160e001351661245c565b3480156106de57600080fd5b506102ab612739565b3480156106f357600080fd5b506102f16004803603602081101561070a57600080fd5b5035612748565b6102656004803603604081101561072757600080fd5b50803590602001356127ef565b6102656004803603602081101561074a57600080fd5b5035612c6e565b34801561075d57600080fd5b506102f1600480360361010081101561077557600080fd5b506001600160a01b038135811691602081013591604082013591606081013591608082013515159160a08101359160c082013581169160e001351661308d565b3480156107c157600080fd5b50610265600480360360208110156107d857600080fd5b50356001600160a01b0316613461565b3480156107f457600080fd5b506102ab613576565b600081815260686020526040902054819060ff161515600114610855576040805162461bcd60e51b815260206004820152601a60248201526000805160206155fa833981519152604482015290519081900360640190fd5b600082815260686020526040902054829061010090046001600160a01b031633146108b15760405162461bcd60e51b81526004018080602001828103825260228152602001806152546022913960400191505060405180910390fd5b60008084815260686020526040902060070154600160a01b900460ff1660038111156108d957fe5b146109155760405162461bcd60e51b81526004018080602001828103825260438152602001806151eb6043913960600191505060405180910390fd5b600083815260686020526040902060070154600160b01b900460ff161561096d5760405162461bcd60e51b81526004018080602001828103825260348152602001806155a26034913960400191505060405180910390fd5b606960009054906101000a90046001600160a01b03166001600160a01b031663ecced6236040518163ffffffff1660e01b815260040160206040518083038186803b1580156109bb57600080fd5b505afa1580156109cf573d6000803e3d6000fd5b505050506040513d60208110156109e557600080fd5b50516000848152606860205260408082206006810154600290910154825163e1f21c6760e01b81526001600160a01b0392831660048201523060248201526044810191909152915193169263e1f21c679260648084019391929182900301818387803b158015610a5457600080fd5b505af1158015610a68573d6000803e3d6000fd5b505050600084815260686020526040902060070180546001925060ff60a01b1916600160a01b835b02179055506040805184815290517f94a4d7286368682acd8115aead8b6a1e6e206702c1245cb7df7dba279d88b39f9181900360200190a1505050565b6069546001600160a01b031681565b600081815260686020526040812054829060ff161515600114610b34576040805162461bcd60e51b815260206004820152601a60248201526000805160206155fa833981519152604482015290519081900360640190fd5b60695460408051632630c12f60e01b815290516000926001600160a01b031691632630c12f916004808301926020929190829003018186803b158015610b7957600080fd5b505afa158015610b8d573d6000803e3d6000fd5b505050506040513d6020811015610ba357600080fd5b5051600085815260686020908152604091829020600781015460069091015483516310603c1160e01b81526001600160a01b039283166004820152908216602482015292519316926310603c11926044808201939291829003018186803b158015610c0d57600080fd5b505afa158015610c21573d6000803e3d6000fd5b505050506040513d6020811015610c3757600080fd5b505190506000610c468561227f565b60008681526067602052604081206004015491925090610c82906305f5e10090610c7c908690610c769087613585565b906135ec565b90613585565b9695505050505050565b6069546040805163ecced62360e01b815290516000926001600160a01b03169163ecced623916004808301926020929190829003018186803b158015610cd157600080fd5b505afa158015610ce5573d6000803e3d6000fd5b505050506040513d6020811015610cfb57600080fd5b5051905060008215610d1757610d1285853061364c565b610f65565b606b546001600160a01b03908116908716610e0657853414610d6a5760405162461bcd60e51b815260040180806020018281038252604c81526020018061561a604c913960600191505060405180910390fd5b826001600160a01b0316632e2d298434888a856040518563ffffffff1660e01b815260040180848152602001836001600160a01b03168152602001826001600160a01b0316815260200193505050506020604051808303818588803b158015610dd257600080fd5b505af1158015610de6573d6000803e3d6000fd5b50505050506040513d6020811015610dfd57600080fd5b50519150610f11565b604080516323b872dd60e01b81523360048201523060248201526044810188905290516001600160a01b038916916323b872dd9160648083019260209291908290030181600087803b158015610e5b57600080fd5b505af1158015610e6f573d6000803e3d6000fd5b505050506040513d6020811015610e8557600080fd5b505060408051630b8b4a6160e21b8152600481018890526001600160a01b0389811660248301528381166044830152915191851691632e2d2984916064808201926020929091908290030181600087803b158015610ee257600080fd5b505af1158015610ef6573d6000803e3d6000fd5b505050506040513d6020811015610f0c57600080fd5b505191505b60008581526066602090815260408083206001600160a01b0385168452909152902054610f3e9083613cb2565b60008681526066602090815260408083206001600160a01b03909516835293905291909120555b505050505050565b6301e1338081565b600080610f8a6301e13380610c7c86866135ec565b9150505b92915050565b60006060606a60009054906101000a90046001600160a01b03166001600160a01b031663b49a60bb6040518163ffffffff1660e01b815260040160006040518083038186803b158015610fe657600080fd5b505afa158015610ffa573d6000803e3d6000fd5b505050506040513d6000823e601f3d908101601f19168201604052602081101561102357600080fd5b8101908080516040519392919084600160201b82111561104257600080fd5b90830190602082018581111561105757600080fd5b82518660208202830111600160201b8211171561107357600080fd5b82525081516020918201928201910280838360005b838110156110a0578181015183820152602001611088565b5050505090500160405250505090506000606960009054906101000a90046001600160a01b03166001600160a01b031663ecced6236040518163ffffffff1660e01b815260040160206040518083038186803b1580156110ff57600080fd5b505afa158015611113573d6000803e3d6000fd5b505050506040513d602081101561112957600080fd5b5051905060008080805b855181101561129f57846001600160a01b0316633281ac788a8a89858151811061115957fe5b60200260200101516040518463ffffffff1660e01b815260040180846001600160a01b03168152602001836001600160a01b03168152602001826001600160a01b03168152602001935050505060206040518083038186803b1580156111be57600080fd5b505afa1580156111d2573d6000803e3d6000fd5b505050506040513d60208110156111e857600080fd5b505191508115611297578581815181106111fe57fe5b60200260200101516001600160a01b03166359846d29838a6040518363ffffffff1660e01b815260040180838152602001826001600160a01b0316815260200192505050602060405180830381600087803b15801561125c57600080fd5b505af1158015611270573d6000803e3d6000fd5b505050506040513d602081101561128657600080fd5b505193506112948385613cb2565b92505b600101611133565b5090979650505050505050565b600083815260686020908152604080832060068101549054606954835163ecced62360e01b815293516001600160a01b03938416966101009093048416959294939091169263ecced623926004808301939192829003018186803b15801561131357600080fd5b505afa158015611327573d6000803e3d6000fd5b505050506040513d602081101561133d57600080fd5b5051606b549091506001600160a01b0316600086611569576001600160a01b03851661143d578534146113a15760405162461bcd60e51b815260040180806020018281038252603c815260200180615498603c913960400191505060405180910390fd5b826001600160a01b0316632e2d2984348888866040518563ffffffff1660e01b815260040180848152602001836001600160a01b03168152602001826001600160a01b0316815260200193505050506020604051808303818588803b15801561140957600080fd5b505af115801561141d573d6000803e3d6000fd5b50505050506040513d602081101561143457600080fd5b505190506114d4565b826001600160a01b0316632e2d29848787856040518463ffffffff1660e01b815260040180848152602001836001600160a01b03168152602001826001600160a01b031681526020019350505050602060405180830381600087803b1580156114a557600080fd5b505af11580156114b9573d6000803e3d6000fd5b505050506040513d60208110156114cf57600080fd5b505190505b60408051633c6340f360e21b81526001600160a01b038781166004830152868116602483015284811660448301526064820184905291519185169163f18d03cc916084808201926020929091908290030181600087803b15801561153757600080fd5b505af115801561154b573d6000803e3d6000fd5b505050506040513d602081101561156157600080fd5b506115959050565b6000888152606860205260409020546115959086908890339061010090046001600160a01b0316613d0c565b826001600160a01b031663b9d15aa98686896040518463ffffffff1660e01b815260040180846001600160a01b03168152602001836001600160a01b031681526020018281526020019350505050600060405180830381600087803b1580156115fd57600080fd5b505af1158015611611573d6000803e3d6000fd5b505050505050505050505050565b611627614219565b6001600160a01b0316611638611c39565b6001600160a01b031614611693576040805162461bcd60e51b815260206004820181905260248201527f4f776e61626c653a2063616c6c6572206973206e6f7420746865206f776e6572604482015290519081900360640190fd5b6033546040516000916001600160a01b0316907f8be0079c531659141344cd1fd0a4f28419497f9722a3daafe3b4186f6b6457e0908390a3603380546001600160a01b0319169055565b600083815260686020526040902054839060ff161515600114611735576040805162461bcd60e51b815260206004820152601a60248201526000805160206155fa833981519152604482015290519081900360640190fd5b60008481526068602052604090206001015484906001600160a01b0316331461178f5760405162461bcd60e51b81526004018080602001828103825260248152602001806155d66024913960400191505060405180910390fd5b6001600086815260686020526040902060070154600160a01b900460ff1660038111156117b857fe5b146117f45760405162461bcd60e51b815260040180806020018281038252602e815260200180615297602e913960400191505060405180910390fd5b6000858152606860205260409020600601546001600160a01b0385811691161461184f5760405162461bcd60e51b81526004018080602001828103825260218152602001806152766021913960400191505060405180910390fd5b600061185a86612748565b6000878152606760205260408120600301549192509061187a9083613cb2565b60008881526067602052604081205491925090611898908390613cb2565b9050888110156118d95760405162461bcd60e51b815260040180806020018281038252602e8152602001806153b8602e913960400191505060405180910390fd5b60008881526067602052604090206001015482906118f8908b90613cb2565b116119315760008881526067602052604090206001015461191a908a90613cb2565b6000898152606760205260409020600101556119ac565b600088815260676020526040902060018101549054611967918491611961919061195b908e61421d565b9061421d565b90613cb2565b6000898152606760205260409020908155600381018390556001015461198e908a90613cb2565b60008981526067602052604090206001810191909155426002909101555b6119b788878b6112ac565b6000888152606760205260409020546119d3576119d38861427a565b60408051898152602081018b905281517fe7966c9f6f7b304f7aad430c31cd465eea204ee7bae9e10019e6c8e425d9bf25929181900390910190a1505050505050505050565b60008281526068602052604090206001015482906001600160a01b03163314611a735760405162461bcd60e51b81526004018080602001828103825260248152602001806155d66024913960400191505060405180910390fd5b60695460408051632630c12f60e01b815290516000926001600160a01b031691632630c12f916004808301926020929190829003018186803b158015611ab857600080fd5b505afa158015611acc573d6000803e3d6000fd5b505050506040513d6020811015611ae257600080fd5b5051600085815260686020908152604091829020600781015460069091015483516310603c1160e01b81526001600160a01b039283166004820152908216602482015292519316926310603c11926044808201939291829003018186803b158015611b4c57600080fd5b505afa158015611b60573d6000803e3d6000fd5b505050506040513d6020811015611b7657600080fd5b505190506000611b8585611de3565b90506000611b928661227f565b90506000611bb66305f5e100610c7c86610c76611baf878c613cb2565b8890613585565b600088815260686020526040902060030154909150811015611c095760405162461bcd60e51b81526004018080602001828103825260668152602001806153526066913960800191505060405180910390fd5b6000878152606860205260409020600701546001600160a01b0316611c2f81888a614392565b5050505050505050565b6033546001600160a01b031690565b600081815260686020526040902054819060ff161515600114611ca0576040805162461bcd60e51b815260206004820152601a60248201526000805160206155fa833981519152604482015290519081900360640190fd5b60008281526068602052604090206001015482906001600160a01b03163314611cfa5760405162461bcd60e51b81526004018080602001828103825260248152602001806155d66024913960400191505060405180910390fd5b60008084815260686020526040902060070154600160a01b900460ff166003811115611d2257fe5b14611d5e5760405162461bcd60e51b81526004018080602001828103825260438152602001806151eb6043913960600191505060405180910390fd5b600083815260686020526040902060070154600160b01b900460ff161515600114611dba5760405162461bcd60e51b81526004018080602001828103825260348152602001806155a26034913960400191505060405180910390fd5b600083815260686020526040902060070180546001919060ff60a01b1916600160a01b83610a90565b60008181526068602052604080822060070154606a54825163b49a60bb60e01b815292516001600160a01b03928316936060939092169163b49a60bb9160048083019288929190829003018186803b158015611e3e57600080fd5b505afa158015611e52573d6000803e3d6000fd5b505050506040513d6000823e601f3d908101601f191682016040526020811015611e7b57600080fd5b8101908080516040519392919084600160201b821115611e9a57600080fd5b908301906020820185811115611eaf57600080fd5b82518660208202830111600160201b82111715611ecb57600080fd5b82525081516020918201928201910280838360005b83811015611ef8578181015183820152602001611ee0565b505050509050016040525050509050600080600090505b825181101561201357606660008781526020019081526020016000206000848381518110611f3957fe5b60200260200101516001600160a01b03166001600160a01b031681526020019081526020016000205491506000838281518110611f7257fe5b60200260200101516001600160a01b03166359846d2984876040518363ffffffff1660e01b815260040180838152602001826001600160a01b0316815260200192505050602060405180830381600087803b158015611fd057600080fd5b505af1158015611fe4573d6000803e3d6000fd5b505050506040513d6020811015611ffa57600080fd5b505190506120088682613cb2565b955050600101611f0f565b50505050919050565b606760205260009081526040902080546001820154600283015460038401546004909401549293919290919085565b600081815260686020526040902054819060ff1615156001146120a3576040805162461bcd60e51b815260206004820152601a60248201526000805160206155fa833981519152604482015290519081900360640190fd5b6000828152606860205260409020600101546001600160a01b03163314806120e6575060008281526068602052604090205461010090046001600160a01b031633145b6121215760405162461bcd60e51b815260040180806020018281038252603a8152602001806153e6603a913960400191505060405180910390fd5b6001600083815260686020526040902060070154600160a01b900460ff16600381111561214a57fe5b146121865760405162461bcd60e51b815260040180806020018281038252602981526020018061546f6029913960400191505060405180910390fd5b600082815260676020526040902054156121d15760405162461bcd60e51b815260040180806020018281038252602e8152602001806152c5602e913960400191505060405180910390fd5b6000828152606760205260409020600301541561221f5760405162461bcd60e51b815260040180806020018281038252602e8152602001806152c5602e913960400191505060405180910390fd5b600082815260686020526040902060070180546002919060ff60a01b1916600160a01b8302179055506040805183815290517f5b7fd56fe846ffce3e6c0b895b926e9e946f85bbf400897503c0f48c0408a9379181900360200190a15050565b600081815260686020526040812054829060ff1615156001146122d7576040805162461bcd60e51b815260206004820152601a60248201526000805160206155fa833981519152604482015290519081900360640190fd5b60006122e284612748565b60008581526067602052604081206001810154600382015491549394509192612316929161195b9186916119619190613cb2565b95945050505050565b6068602052600090815260409020805460018201546002830154600384015460048501546005860154600687015460079097015460ff808816986001600160a01b03610100909904891698978816979081169290811691600160a01b8204811691600160a81b8104821691600160b01b909104168c565b600054610100900460ff16806123af57506123af61482f565b806123bd575060005460ff16155b6123f85760405162461bcd60e51b815260040180806020018281038252602e815260200180615420602e913960400191505060405180910390fd5b600054610100900460ff16158015612423576000805460ff1961ff0019909116610100171660011790555b61242b614840565b606b80546001600160a01b0319166001600160a01b0384161790558015612458576000805461ff00191690555b5050565b6065805460010190819055604080516020808201939093528151808203840181529082019091528051910120600090612493615187565b600181526000610120820181815250503381604001906001600160a01b031690816001600160a01b0316815250508a81602001906001600160a01b031690816001600160a01b03168152505089816060018181525050868161014001901515908115158152505085816080018181525050888160a0018181525050878160c0018181525050848160e001906001600160a01b031690816001600160a01b031681525050838161010001906001600160a01b031690816001600160a01b031681525050600081610160019015159081151581525050806068600084815260200190815260200160002060008201518160000160006101000a81548160ff02191690831515021790555060208201518160000160016101000a8154816001600160a01b0302191690836001600160a01b0316021790555060408201518160010160006101000a8154816001600160a01b0302191690836001600160a01b03160217905550606082015181600201556080820151816003015560a0820151816004015560c0820151816005015560e08201518160060160006101000a8154816001600160a01b0302191690836001600160a01b031602179055506101008201518160070160006101000a8154816001600160a01b0302191690836001600160a01b031602179055506101208201518160070160146101000a81548160ff0219169083600381111561269d57fe5b021790555061014082015160079091018054610160909301511515600160b01b0260ff60b01b19921515600160a81b0260ff60a81b199094169390931791909116919091179055604080518381526001600160a01b038d166020820152338183015290517f4da89af7917cbc408e5f0a24a737e69491d0e7bf8f09a11245695f24729ff7339181900360600190a1509998505050505050505050565b606a546001600160a01b031681565b600081815260686020526040812054829060ff1615156001146127a0576040805162461bcd60e51b815260206004820152601a60248201526000805160206155fa833981519152604482015290519081900360640190fd5b6000838152606760205260408120600201546127bd90429061421d565b60008581526067602090815260408083205460689092528220600501549293509091612316918491610c769190610f75565b600081815260686020526040902054819060ff161515600114612847576040805162461bcd60e51b815260206004820152601a60248201526000805160206155fa833981519152604482015290519081900360640190fd5b60008281526068602052604090206001015482906001600160a01b031633146128a15760405162461bcd60e51b81526004018080602001828103825260248152602001806155d66024913960400191505060405180910390fd5b6001600084815260686020526040902060070154600160a01b900460ff1660038111156128ca57fe5b146129065760405162461bcd60e51b815260040180806020018281038252602e815260200180615297602e913960400191505060405180910390fd5b60006129118461227f565b6000858152606860205260409020600201549091506129308287613cb2565b111561296d5760405162461bcd60e51b81526004018080602001828103825260288152602001806154d46028913960400191505060405180910390fd5b60695460408051632630c12f60e01b815290516000926001600160a01b031691632630c12f916004808301926020929190829003018186803b1580156129b257600080fd5b505afa1580156129c6573d6000803e3d6000fd5b505050506040513d60208110156129dc57600080fd5b5051600086815260686020908152604091829020600781015460069091015483516310603c1160e01b81526001600160a01b039283166004820152908216602482015292519316926310603c11926044808201939291829003018186803b158015612a4657600080fd5b505afa158015612a5a573d6000803e3d6000fd5b505050506040513d6020811015612a7057600080fd5b505190506000612a7f86611de3565b90506000612a8c8761227f565b90506000612aa96305f5e100610c7c86610c76611baf878f613cb2565b6000898152606860205260409020600301549091508111612afb5760405162461bcd60e51b815260040180806020018281038252606581526020018061553d6065913960800191505060405180910390fd5b6000888152606860205260409020600681015490546001600160a01b039182169161010090910416612b2c8a6148f2565b60008a815260676020526040902054612b45908c613cb2565b60008b815260676020526040902090815542600290910155612b69828c8c846149f5565b6001600160a01b038216612baa5760405133908c156108fc02908d906000818181858888f19350505050158015612ba4573d6000803e3d6000fd5b50612c26565b6040805163a9059cbb60e01b8152336004820152602481018d905290516001600160a01b0384169163a9059cbb9160448083019260209291908290030181600087803b158015612bf957600080fd5b505af1158015612c0d573d6000803e3d6000fd5b505050506040513d6020811015612c2357600080fd5b50505b604080518c8152602081018c905281517f42eaeb6b664725e88edc8bd224f268cc0818b1cfbdecf564fe24cec42e757b44929181900390910190a15050505050505050505050565b600081815260686020526040902054819060ff161515600114612cc6576040805162461bcd60e51b815260206004820152601a60248201526000805160206155fa833981519152604482015290519081900360640190fd5b6001600083815260686020526040902060070154600160a01b900460ff166003811115612cef57fe5b14612d2b5760405162461bcd60e51b815260040180806020018281038252602981526020018061546f6029913960400191505060405180910390fd5b6000612d3683610adc565b6000848152606860205260409020600401549091508110612d885760405162461bcd60e51b81526004018080602001828103825260418152602001806154fc6041913960600191505060405180910390fd5b6000838152606860205260408120600781015490546001600160a01b039182169261010090910490911690612dbc86611de3565b600087815260686020526040902060068101546007909101549192506001600160a01b031690600160a81b900460ff1615612fb4576001600160a01b038316331415612e1357612e0e84833033613d0c565b612faf565b60695460408051632630c12f60e01b815290516000926001600160a01b031691632630c12f916004808301926020929190829003018186803b158015612e5857600080fd5b505afa158015612e6c573d6000803e3d6000fd5b505050506040513d6020811015612e8257600080fd5b5051604080516310603c1160e01b81526001600160a01b0385811660048301528881166024830152915191909216916310603c11916044808301926020929190829003018186803b158015612ed657600080fd5b505afa158015612eea573d6000803e3d6000fd5b505050506040513d6020811015612f0057600080fd5b505190506000612f186305f5e100610c7c86856135ec565b604080516323b872dd60e01b81523360048201526001600160a01b038881166024830152604482018490529151929350908516916323b872dd916064808201926020929091908290030181600087803b158015612f7457600080fd5b505af1158015612f88573d6000803e3d6000fd5b505050506040513d6020811015612f9e57600080fd5b50612fac905086858b614392565b50505b61301a565b60008781526068602052604090205461010090046001600160a01b0316331461300e5760405162461bcd60e51b81526004018080602001828103825260388152602001806152f36038913960400191505060405180910390fd5b61301a84833033613d0c565b505050600093845250506068602052506040812080546001600160a81b03191681556001810180546001600160a01b0319908116909155600282018390556003820183905560048201839055600582019290925560068101805490921690915560070180546001600160b81b0319169055565b60658054600101908190556040805160208082019390935281518082038401815290820190915280519101206000906130c4615187565b600181526000610120820181815250508a81604001906001600160a01b031690816001600160a01b0316815250503381602001906001600160a01b031690816001600160a01b03168152505089816060018181525050868161014001901515908115158152505085816080018181525050888160a0018181525050878160c0018181525050848160e001906001600160a01b031690816001600160a01b031681525050838161010001906001600160a01b031690816001600160a01b031681525050600181610160019015159081151581525050806068600084815260200190815260200160002060008201518160000160006101000a81548160ff02191690831515021790555060208201518160000160016101000a8154816001600160a01b0302191690836001600160a01b0316021790555060408201518160010160006101000a8154816001600160a01b0302191690836001600160a01b03160217905550606082015181600201556080820151816003015560a0820151816004015560c0820151816005015560e08201518160060160006101000a8154816001600160a01b0302191690836001600160a01b031602179055506101008201518160070160006101000a8154816001600160a01b0302191690836001600160a01b031602179055506101208201518160070160146101000a81548160ff021916908360038111156132ce57fe5b021790555061014082015160079091018054610160909301511515600160b01b0260ff60b01b19921515600160a81b0260ff60a81b1990941693909317919091169190911790556069546040805163ecced62360e01b815290516001600160a01b039092169163ecced62391600480820192602092909190829003018186803b15801561335a57600080fd5b505afa15801561336e573d6000803e3d6000fd5b505050506040513d602081101561338457600080fd5b50516000838152606860205260408082206006810154600290910154825163e1f21c6760e01b81526001600160a01b0392831660048201523060248201526044810191909152915193169263e1f21c679260648084019391929182900301818387803b1580156133f357600080fd5b505af1158015613407573d6000803e3d6000fd5b5050604080518581523360208201526001600160a01b038f168183015290517f59d513e7efd4dd31544855938bf1602ae4ef19b5b6b5499a7dd0d0bf1770bbde9350908190036060019150a1509998505050505050505050565b613469614219565b6001600160a01b031661347a611c39565b6001600160a01b0316146134d5576040805162461bcd60e51b815260206004820181905260248201527f4f776e61626c653a2063616c6c6572206973206e6f7420746865206f776e6572604482015290519081900360640190fd5b6001600160a01b03811661351a5760405162461bcd60e51b815260040180806020018281038252602681526020018061522e6026913960400191505060405180910390fd5b6033546040516001600160a01b038084169216907f8be0079c531659141344cd1fd0a4f28419497f9722a3daafe3b4186f6b6457e090600090a3603380546001600160a01b0319166001600160a01b0392909216919091179055565b606b546001600160a01b031681565b60008082116135db576040805162461bcd60e51b815260206004820152601a60248201527f536166654d6174683a206469766973696f6e206279207a65726f000000000000604482015290519081900360640190fd5b8183816135e457fe5b049392505050565b6000826135fb57506000610f8e565b8282028284828161360857fe5b04146136455760405162461bcd60e51b815260040180806020018281038252602181526020018061544e6021913960400191505060405180910390fd5b9392505050565b606a546040805163b49a60bb60e01b815290516060926001600160a01b03169163b49a60bb916004808301926000929190829003018186803b15801561369157600080fd5b505afa1580156136a5573d6000803e3d6000fd5b505050506040513d6000823e601f3d908101601f1916820160405260208110156136ce57600080fd5b8101908080516040519392919084600160201b8211156136ed57600080fd5b90830190602082018581111561370257600080fd5b82518660208202830111600160201b8211171561371e57600080fd5b82525081516020918201928201910280838360005b8381101561374b578181015183820152602001613733565b5050505090500160405250505090506000806000806000606960009054906101000a90046001600160a01b03166001600160a01b031663ecced6236040518163ffffffff1660e01b815260040160206040518083038186803b1580156137b057600080fd5b505afa1580156137c4573d6000803e3d6000fd5b505050506040513d60208110156137da57600080fd5b5051905060005b8651811015613ca5576000898152606860205260409020600181015460079091015488516001600160a01b0380861693633281ac7893908216929116908b908690811061382a57fe5b60200260200101516040518463ffffffff1660e01b815260040180846001600160a01b03168152602001836001600160a01b03168152602001826001600160a01b03168152602001935050505060206040518083038186803b15801561388f57600080fd5b505afa1580156138a3573d6000803e3d6000fd5b505050506040513d60208110156138b957600080fd5b505193508315613c9d578681815181106138cf57fe5b60209081029190910181015160008b81526068835260408082206007015481516359846d2960e01b8152600481018a90526001600160a01b03918216602482015291519316936359846d299360448084019492939192918390030190829087803b15801561393c57600080fd5b505af1158015613950573d6000803e3d6000fd5b505050506040513d602081101561396657600080fd5b50519450896139758787613cb2565b10613b325789955061398f84610c7687610c7c8a8061421d565b60008a8152606860205260409020600781015460019091015489519295506001600160a01b0380861693636e275bd293821692909116908c908c90879081106139d457fe5b6020026020010151886040518663ffffffff1660e01b815260040180866001600160a01b03168152602001856001600160a01b03168152602001846001600160a01b03168152602001836001600160a01b0316815260200182815260200195505050505050602060405180830381600087803b158015613a5357600080fd5b505af1158015613a67573d6000803e3d6000fd5b505050506040513d6020811015613a7d57600080fd5b505060008981526066602052604081208851613ad9928692918b9086908110613aa257fe5b60200260200101516001600160a01b03166001600160a01b0316815260200190815260200160002054613cb290919063ffffffff16565b606660008b81526020019081526020016000206000898481518110613afa57fe5b60200260200101516001600160a01b03166001600160a01b031681526020019081526020016000208190555050505050505050613cad565b613b3c8686613cb2565b60008a8152606860205260409020600781015460019091015489519298506001600160a01b0380861693636e275bd293821692909116908c908c9087908110613b8157fe5b6020026020010151896040518663ffffffff1660e01b815260040180866001600160a01b03168152602001856001600160a01b03168152602001846001600160a01b03168152602001836001600160a01b0316815260200182815260200195505050505050602060405180830381600087803b158015613c0057600080fd5b505af1158015613c14573d6000803e3d6000fd5b505050506040513d6020811015613c2a57600080fd5b505060008981526066602052604081208851613c4f928792918b9086908110613aa257fe5b606660008b81526020019081526020016000206000898481518110613c7057fe5b60200260200101516001600160a01b03166001600160a01b03168152602001908152602001600020819055505b6001016137e1565b505050505050505b505050565b600082820183811015613645576040805162461bcd60e51b815260206004820152601b60248201527f536166654d6174683a206164646974696f6e206f766572666c6f770000000000604482015290519081900360640190fd5b606a546040805163b49a60bb60e01b815290516060926001600160a01b03169163b49a60bb916004808301926000929190829003018186803b158015613d5157600080fd5b505afa158015613d65573d6000803e3d6000fd5b505050506040513d6000823e601f3d908101601f191682016040526020811015613d8e57600080fd5b8101908080516040519392919084600160201b821115613dad57600080fd5b908301906020820185811115613dc257600080fd5b82518660208202830111600160201b82111715613dde57600080fd5b82525081516020918201928201910280838360005b83811015613e0b578181015183820152602001613df3565b5050505090500160405250505090506000606960009054906101000a90046001600160a01b03166001600160a01b031663ecced6236040518163ffffffff1660e01b815260040160206040518083038186803b158015613e6a57600080fd5b505afa158015613e7e573d6000803e3d6000fd5b505050506040513d6020811015613e9457600080fd5b50519050600080805b84518110156141d457836001600160a01b0316633281ac78888b888581518110613ec357fe5b60200260200101516040518463ffffffff1660e01b815260040180846001600160a01b03168152602001836001600160a01b03168152602001826001600160a01b03168152602001935050505060206040518083038186803b158015613f2857600080fd5b505afa158015613f3c573d6000803e3d6000fd5b505050506040513d6020811015613f5257600080fd5b5051915081156141cc576000858281518110613f6a57fe5b60200260200101516001600160a01b03166359846d29848c6040518363ffffffff1660e01b815260040180838152602001826001600160a01b0316815260200192505050602060405180830381600087803b158015613fc857600080fd5b505af1158015613fdc573d6000803e3d6000fd5b505050506040513d6020811015613ff257600080fd5b50519050886140018583613cb2565b106140f557889350600061401d84610c7684610c7c898061421d565b9050856001600160a01b0316636e275bd28c8b8b8b888151811061403d57fe5b6020026020010151866040518663ffffffff1660e01b815260040180866001600160a01b03168152602001856001600160a01b03168152602001846001600160a01b03168152602001836001600160a01b0316815260200182815260200195505050505050602060405180830381600087803b1580156140bc57600080fd5b505af11580156140d0573d6000803e3d6000fd5b505050506040513d60208110156140e657600080fd5b50614213975050505050505050565b6140ff8482613cb2565b9350846001600160a01b0316636e275bd28b8a8a8a878151811061411f57fe5b6020026020010151886040518663ffffffff1660e01b815260040180866001600160a01b03168152602001856001600160a01b03168152602001846001600160a01b03168152602001836001600160a01b0316815260200182815260200195505050505050602060405180830381600087803b15801561419e57600080fd5b505af11580156141b2573d6000803e3d6000fd5b505050506040513d60208110156141c857600080fd5b5050505b600101613e9d565b50868214611c2f5760405162461bcd60e51b815260040180806020018281038252603c815260200180615666603c913960400191505060405180910390fd5b50505050565b3390565b600082821115614274576040805162461bcd60e51b815260206004820152601e60248201527f536166654d6174683a207375627472616374696f6e206f766572666c6f770000604482015290519081900360640190fd5b50900390565b600081815260686020526040902054819060ff1615156001146142d2576040805162461bcd60e51b815260206004820152601a60248201526000805160206155fa833981519152604482015290519081900360640190fd5b6001600083815260686020526040902060070154600160a01b900460ff1660038111156142fb57fe5b146143375760405162461bcd60e51b815260040180806020018281038252602981526020018061546f6029913960400191505060405180910390fd5b6000828152606760209081526040808320600281018490556001810184905560030192909255815184815291517f0ea9e9f50832fd88162eaf81147589c1ce63c83a78b22975fe71b0365a7496089281900390910190a15050565b606a546040805163b49a60bb60e01b815290516060926001600160a01b03169163b49a60bb916004808301926000929190829003018186803b1580156143d757600080fd5b505afa1580156143eb573d6000803e3d6000fd5b505050506040513d6000823e601f3d908101601f19168201604052602081101561441457600080fd5b8101908080516040519392919084600160201b82111561443357600080fd5b90830190602082018581111561444857600080fd5b82518660208202830111600160201b8211171561446457600080fd5b82525081516020918201928201910280838360005b83811015614491578181015183820152602001614479565b505050509050016040525050509050600080600080600090505b84518110156147da576066600087815260200190815260200160002060008683815181106144d557fe5b60200260200101516001600160a01b03166001600160a01b0316815260200190815260200160002054915060008211156147d25784818151811061451557fe5b60200260200101516001600160a01b03166359846d29838a6040518363ffffffff1660e01b815260040180838152602001826001600160a01b0316815260200192505050602060405180830381600087803b15801561457357600080fd5b505af1158015614587573d6000803e3d6000fd5b505050506040513d602081101561459d57600080fd5b505192506145ab8484613cb2565b9350868411156145d4576145d16145ca84610c7c85610c76898d61421d565b839061421d565b91505b606960009054906101000a90046001600160a01b03166001600160a01b031663ecced6236040518163ffffffff1660e01b815260040160206040518083038186803b15801561462257600080fd5b505afa158015614636573d6000803e3d6000fd5b505050506040513d602081101561464c57600080fd5b505185516001600160a01b03909116906396885ed390339085908c908a908790811061467457fe5b602002602001015160006040518663ffffffff1660e01b815260040180866001600160a01b03168152602001858152602001846001600160a01b03168152602001836001600160a01b03168152602001821515815260200195505050505050602060405180830381600087803b1580156146ed57600080fd5b505af1158015614701573d6000803e3d6000fd5b505050506040513d602081101561471757600080fd5b5050600086815260666020526040812086516147739285929189908690811061473c57fe5b60200260200101516001600160a01b03166001600160a01b031681526020019081526020016000205461421d90919063ffffffff16565b60666000888152602001908152602001600020600087848151811061479457fe5b60200260200101516001600160a01b03166001600160a01b0316815260200190815260200160002081905550868411156147d2575050505050613cad565b6001016144ab565b86841015611c2f576040805162461bcd60e51b815260206004820152601760248201527f696e73756666696369656e7420636f6c6c61746572616c000000000000000000604482015290519081900360640190fd5b600061483a30614fe8565b15905090565b600054610100900460ff1680614859575061485961482f565b80614867575060005460ff16155b6148a25760405162461bcd60e51b815260040180806020018281038252602e815260200180615420602e913960400191505060405180910390fd5b600054610100900460ff161580156148cd576000805460ff1961ff0019909116610100171660011790555b6148d5614fee565b6148dd61508e565b80156148ef576000805461ff00191690555b50565b600081815260686020526040902054819060ff16151560011461494a576040805162461bcd60e51b815260206004820152601a60248201526000805160206155fa833981519152604482015290519081900360640190fd5b6001600083815260686020526040902060070154600160a01b900460ff16600381111561497357fe5b146149af5760405162461bcd60e51b815260040180806020018281038252602e815260200180615297602e913960400191505060405180910390fd5b60006149ba83612748565b600084815260676020526040812060030154919250906149da9083613cb2565b60009485526067602052604090942060030193909355505050565b606a546040805163b49a60bb60e01b815290516060926001600160a01b03169163b49a60bb916004808301926000929190829003018186803b158015614a3a57600080fd5b505afa158015614a4e573d6000803e3d6000fd5b505050506040513d6000823e601f3d908101601f191682016040526020811015614a7757600080fd5b8101908080516040519392919084600160201b821115614a9657600080fd5b908301906020820185811115614aab57600080fd5b82518660208202830111600160201b82111715614ac757600080fd5b82525081516020918201928201910280838360005b83811015614af4578181015183820152602001614adc565b5050505090500160405250505090506000606960009054906101000a90046001600160a01b03166001600160a01b031663ecced6236040518163ffffffff1660e01b815260040160206040518083038186803b158015614b5357600080fd5b505afa158015614b67573d6000803e3d6000fd5b505050506040513d6020811015614b7d57600080fd5b50519050846000808080805b8751811015614f8f57866001600160a01b0316633281ac788a8e8b8581518110614baf57fe5b60200260200101516040518463ffffffff1660e01b815260040180846001600160a01b03168152602001836001600160a01b03168152602001826001600160a01b03168152602001935050505060206040518083038186803b158015614c1457600080fd5b505afa158015614c28573d6000803e3d6000fd5b505050506040513d6020811015614c3e57600080fd5b505194508415614f8757878181518110614c5457fe5b60200260200101516001600160a01b03166359846d29868e6040518363ffffffff1660e01b815260040180838152602001826001600160a01b0316815260200192505050602060405180830381600087803b158015614cb257600080fd5b505af1158015614cc6573d6000803e3d6000fd5b505050506040513d6020811015614cdc57600080fd5b5051915085614ceb8584613cb2565b10614e4757859350614d0585610c7684610c7c888061421d565b9250866001600160a01b0316630e49fd9f8a858f8c8681518110614d2557fe5b602002602001015160006040518663ffffffff1660e01b815260040180866001600160a01b03168152602001858152602001846001600160a01b03168152602001836001600160a01b03168152602001821515815260200195505050505050602060405180830381600087803b158015614d9e57600080fd5b505af1158015614db2573d6000803e3d6000fd5b505050506040513d6020811015614dc857600080fd5b505060008a81526066602052604081208951614ded928692918c9086908110613aa257fe5b606660008c815260200190815260200160002060008a8481518110614e0e57fe5b60200260200101516001600160a01b03166001600160a01b03168152602001908152602001600020819055505050505050505050614213565b614e518483613cb2565b9350866001600160a01b0316630e49fd9f8a878f8c8681518110614e7157fe5b602002602001015160006040518663ffffffff1660e01b815260040180866001600160a01b03168152602001858152602001846001600160a01b03168152602001836001600160a01b03168152602001821515815260200195505050505050602060405180830381600087803b158015614eea57600080fd5b505af1158015614efe573d6000803e3d6000fd5b505050506040513d6020811015614f1457600080fd5b505060008a81526066602052604081208951614f39928892918c9086908110613aa257fe5b606660008c815260200190815260200160002060008a8481518110614f5a57fe5b60200260200101516001600160a01b03166001600160a01b03168152602001908152602001600020819055505b600101614b89565b50848314614fdb576040805162461bcd60e51b8152602060048201526014602482015273696e73756666696369656e742062616c616e636560601b604482015290519081900360640190fd5b5050505050505050505050565b3b151590565b600054610100900460ff1680615007575061500761482f565b80615015575060005460ff16155b6150505760405162461bcd60e51b815260040180806020018281038252602e815260200180615420602e913960400191505060405180910390fd5b600054610100900460ff161580156148dd576000805460ff1961ff00199091166101001716600117905580156148ef576000805461ff001916905550565b600054610100900460ff16806150a757506150a761482f565b806150b5575060005460ff16155b6150f05760405162461bcd60e51b815260040180806020018281038252602e815260200180615420602e913960400191505060405180910390fd5b600054610100900460ff1615801561511b576000805460ff1961ff0019909116610100171660011790555b6000615125614219565b603380546001600160a01b0319166001600160a01b038316908117909155604051919250906000907f8be0079c531659141344cd1fd0a4f28419497f9722a3daafe3b4186f6b6457e0908290a35080156148ef576000805461ff001916905550565b6040805161018081018252600080825260208201819052918101829052606081018290526080810182905260a0810182905260c0810182905260e0810182905261010081018290529061012082019081526000602082018190526040909101529056fe4372656469744c696e653a3a6163636570744372656469744c696e654c656e646572202d204372656469744c696e6520697320616c72656164792061636365707465644f776e61626c653a206e6577206f776e657220697320746865207a65726f20616464726573734f6e6c7920637265646974206c696e65204c656e6465722063616e206163636573734372656469744c696e653a20417373657420646f6573206e6f74206d617463682e4372656469744c696e653a2054686520637265646974206c696e65206973206e6f7420796574206163746976652e4372656469744c696e653a2043616e6e6f7420626520636c6f7365642073696e6365206e6f74207265706169642e4372656469744c696e653a204c69717569646174696f6e2063616e206f6e6c7920626520706572666f726d6564206279206c656e6465722e4372656469744c696e653a3a7265636569766520696e76616c6964207472616e73616374696f6e4372656469744c696e653a3a7769746864726177436f6c6c61746572616c46726f6d4372656469744c696e65202d205468652063757272656e7420636f6c6c61746572616c20726174696f6e20646f65736e277420616c6c6f7720746f2077697468647261774372656469744c696e653a20526570617920616d6f756e742069732067726561746572207468616e20646562742e4372656469744c696e653a205065726d697373696f6e2064656e696564207768696c6520636c6f73696e67204c696e65206f6620637265646974496e697469616c697a61626c653a20636f6e747261637420697320616c726561647920696e697469616c697a6564536166654d6174683a206d756c7469706c69636174696f6e206f766572666c6f774372656469744c696e653a20437265646974206c696e652073686f756c64206265206163746976652e6372656469744c696e653a3a7265706179202d2076616c756520746f207472616e7366657220646f65736e2774206d6174636820617267756d656e744372656469744c696e653a20416d6f756e74206578636565647320626f72726f77206c696d69742e4372656469744c696e653a20436f6c6c61746572616c20726174696f20697320686967686572207468616e206c69717569646174696f6e207468726573686f6c644372656469744c696e653a3a626f72726f7746726f6d4372656469744c696e65202d205468652063757272656e7420636f6c6c61746572616c20726174696f6e20646f65736e277420616c6c6f7720746f2077697468647261772074686520416d6f756e744372656469744c696e653a3a6163636570744372656469744c696e654c656e646572202d20496e76616c696420726571756573744f6e6c7920637265646974206c696e6520426f72726f7765722063616e20616363657373437265646974206c696e6520646f6573206e6f742065786973740000000000004372656469744c696e65203a3a626f72726f7746726f6d4372656469744c696e65202d2076616c756520746f207472616e7366657220646f65736e2774206d6174636820617267756d656e744372656469744c696e653a3a7472616e7366657246726f6d536176696e674163636f756e74202d20496e73756666696369656e742062616c616e6365a2646970667358221220f8fa532185f96a1789fef7acb703b08f677f46323ffc5b8356ef830e4450626664736f6c63430007000033",
  "immutableReferences": {},
  "source": "// SPDX-License-Identifier: MIT\r\npragma solidity 0.7.0;\r\n\r\nimport \"@openzeppelin/contracts/token/ERC20/SafeERC20.sol\";\r\nimport \"@openzeppelin/contracts/math/SafeMath.sol\";\r\nimport \"./CreditLineStorage.sol\";\r\nimport \"../interfaces/IPoolFactory.sol\";\r\nimport \"../interfaces/IPriceOracle.sol\";\r\nimport \"../interfaces/IYield.sol\";\r\nimport \"../interfaces/IRepayment.sol\";\r\nimport \"../interfaces/ISavingsAccount.sol\";\r\nimport \"../interfaces/IStrategyRegistry.sol\";\r\n/**\r\n * @title Credit Line contract with Methods related to credit Line\r\n * @notice Implements the functions related to Credit Line\r\n * @author Sublime\r\n **/\r\n\r\ncontract CreditLine is CreditLineStorage {\r\n    using SafeERC20 for IERC20;\r\n    using SafeMath for uint256;\r\n\r\n    address public PoolFactory;\r\n    address public strategyRegistry;\r\n    address public defaultStrategy;\r\n    /**\r\n     * @dev checks if Credit Line exists\r\n     * @param creditLineHash credit hash\r\n     **/\r\n    modifier ifCreditLineExists(bytes32 creditLineHash) {\r\n        require(\r\n            creditLineInfo[creditLineHash].exists == true,\r\n            \"Credit line does not exist\"\r\n        );\r\n        _;\r\n    }\r\n\r\n    /**\r\n     * @dev checks if called by credit Line Borrower\r\n     * @param creditLineHash creditLine Hash\r\n     **/\r\n    modifier onlyCreditLineBorrower(bytes32 creditLineHash) {\r\n        require(\r\n            creditLineInfo[creditLineHash].borrower == msg.sender,\r\n            \"Only credit line Borrower can access\"\r\n        );\r\n        _;\r\n    }\r\n\r\n    /**\r\n     * @dev checks if called by credit Line Lender\r\n     * @param creditLineHash creditLine Hash\r\n     **/\r\n    modifier onlyCreditLineLender(bytes32 creditLineHash) {\r\n        require(\r\n            creditLineInfo[creditLineHash].lender == msg.sender,\r\n            \"Only credit line Lender can access\"\r\n        );\r\n        _;\r\n    }\r\n\r\n    event CreditLineRequestedToLender(bytes32 creditLineHash, address lender, address borrower);\r\n    event CreditLineRequestedToBorrower(bytes32 creditLineHash, address lender, address borrower);\r\n    event BorrowedFromCreditLine(uint256 borrowAmount, bytes32 creditLineHash);\r\n    event CreditLineAccepted(bytes32 creditLineHash);\r\n    event CreditLineReset(bytes32 creditLineHash);\r\n    event PartialCreditLineRepaid(bytes32 creditLineHash, uint256 repayAmount);\r\n    event CreditLineClosed(bytes32 creditLineHash);\r\n\r\n    function initialize(address _defaultStrategy) public initializer {\r\n        __Ownable_init();\r\n        defaultStrategy = _defaultStrategy;\r\n    }\r\n\r\n\r\n\r\n\r\n    /**\r\n     * @dev Used to Calculate Interest Per second on given principal and Interest rate\r\n     * @param _principal principal Amount for which interest has to be calculated.\r\n     * @param _borrowRate It is the Interest Rate at which Credit Line is approved\r\n    * @return uint256 interest per second for the given parameters\r\n    */\r\n    function calculateInterestPerSecond(uint256 _principal, uint256 _borrowRate)\r\n        public\r\n        pure\r\n        returns (uint256)\r\n    {\r\n        uint256 _interest = (_principal.mul(_borrowRate)).div(yearInSeconds);\r\n        return _interest;\r\n    }\r\n\r\n\r\n    /**\r\n     * @dev Used to calculate interest accrued since last repayment\r\n     * @param creditLineHash Hash of the credit line for which interest accrued has to be calculated\r\n     * @return uint256 interest accrued over current borrowed amount since last repayment\r\n    */\r\n\r\n    function calculateInterestAccrued(bytes32 creditLineHash)\r\n        public\r\n        view\r\n        ifCreditLineExists(creditLineHash)\r\n        returns (uint256)\r\n    {\r\n        uint256 _timeElapsed = (block.timestamp).sub(creditLineUsage[creditLineHash].lastPrincipalUpdateTime);\r\n        uint256 _interestAccrued = calculateInterestPerSecond(\r\n                                        creditLineUsage[creditLineHash].principal,\r\n                                        creditLineInfo[creditLineHash].borrowRate\r\n                                    ).mul(_timeElapsed);\r\n        return _interestAccrued;\r\n    }\r\n\r\n    /**\r\n     * @dev Used to calculate current debt of borrower against a credit line. \r\n     * @param _creditLineHash Hash of the credit line for which current debt has to be calculated\r\n     * @return uint256 current debt of borrower \r\n    */\r\n\r\n    // maybe change interestAccruedTillPrincipalUpdate to interestAccruedTillLastPrincipalUpdate\r\n    function calculateCurrentDebt(bytes32 _creditLineHash)\r\n        public\r\n        view\r\n        ifCreditLineExists(_creditLineHash)\r\n        returns (uint256)\r\n    {\r\n        uint256 _interestAccrued = calculateInterestAccrued(_creditLineHash);\r\n        uint256 _currentDebt =\r\n            (creditLineUsage[_creditLineHash].principal)\r\n                .add(creditLineUsage[_creditLineHash].interestAccruedTillPrincipalUpdate)\r\n                .add(_interestAccrued)\r\n                .sub(creditLineUsage[_creditLineHash].totalInterestRepaid);\r\n        return _currentDebt;\r\n    }\r\n\r\n    function updateinterestAccruedTillPrincipalUpdate(bytes32 creditLineHash)\r\n        internal\r\n        ifCreditLineExists(creditLineHash) {\r\n\r\n            require(creditLineInfo[creditLineHash].currentStatus == creditLineStatus.ACTIVE,\r\n                    \"CreditLine: The credit line is not yet active.\");\r\n\r\n            uint256 _interestAccrued = calculateInterestAccrued(creditLineHash);\r\n            uint256 _newInterestAccrued = (creditLineUsage[creditLineHash].interestAccruedTillPrincipalUpdate)\r\n                                            .add(_interestAccrued);\r\n            creditLineUsage[creditLineHash].interestAccruedTillPrincipalUpdate = _newInterestAccrued;\r\n        }\r\n\r\n    function getTotalTokensInStrategies(address _sender, address _asset) public returns(uint256) {\r\n        address[] memory _strategyList = IStrategyRegistry(strategyRegistry).getStrategies();\r\n        ISavingsAccount _savingsAccount = ISavingsAccount(IPoolFactory(PoolFactory).savingsAccount());\r\n        uint256 _tokenInStrategy;\r\n        uint256 _totalTokens;\r\n        uint256 _liquidityShares;\r\n        for (uint256 _index = 0; _index < _strategyList.length; _index++) {\r\n\r\n            _liquidityShares = _savingsAccount.userLockedBalance(_sender, _asset, _strategyList[_index]);\r\n\r\n            if (_liquidityShares > 0) {\r\n                _tokenInStrategy = IYield(_strategyList[_index]).getTokensForShares(_liquidityShares, _asset);\r\n                _totalTokens = _totalTokens.add(_tokenInStrategy);\r\n            }\r\n        }\r\n        return _totalTokens;\r\n\r\n    }\r\n\r\n     function transferFromSavingAccount(address _asset, uint256 _amount, address _sender, address _recipient) internal {\r\n\r\n        address[] memory _strategyList = IStrategyRegistry(strategyRegistry).getStrategies();\r\n        ISavingsAccount _savingsAccount = ISavingsAccount(IPoolFactory(PoolFactory).savingsAccount());\r\n        uint256 _activeAmount;\r\n        uint256 _liquidityShares;\r\n        //uint256 _remainingliquidityShares;\r\n\r\n        //uint256 _totalTokens = getTotalTokensInStrategies(_sender, _asset);\r\n        //require(_totalTokens >= _amount, \"CreditLine::transferCollateral - Insufficient balance.\");\r\n\r\n        for (uint256 _index = 0; _index < _strategyList.length; _index++) {\r\n            _liquidityShares = _savingsAccount.userLockedBalance(_sender, _asset, _strategyList[_index]);\r\n            if (_liquidityShares > 0) {\r\n                uint256 _tokenInStrategy = IYield(_strategyList[_index]).getTokensForShares(_liquidityShares, _asset);\r\n\r\n                //_activeAmount = _activeAmount.add(_tokenInStrategy);\r\n\r\n                if(_activeAmount.add(_tokenInStrategy) >= _amount) {\r\n                    _activeAmount = _amount;\r\n                    uint256 _sharesToTransfer = (_amount.sub(_activeAmount)).div(_tokenInStrategy).mul(_liquidityShares);\r\n                    _savingsAccount.transferFrom(_asset, _sender, _recipient, _strategyList[_index], _sharesToTransfer);\r\n                    return;\r\n                }\r\n\r\n                else {\r\n                    _activeAmount = _activeAmount.add(_tokenInStrategy);\r\n                    _savingsAccount.transferFrom(_asset, _sender, _recipient, _strategyList[_index], _liquidityShares);\r\n                }\r\n   \r\n            }\r\n        }\r\n        require(_activeAmount == _amount, \"CreditLine::transferFromSavingAccount - Insufficient balance\");\r\n    }\r\n\r\n\r\n    function transferCollateral(uint256 _amount, bytes32 _creditLineHash, address _recipient) internal {\r\n\r\n        address[] memory _strategyList = IStrategyRegistry(strategyRegistry).getStrategies();\r\n        uint256 _activeAmount;\r\n        uint256 _tokenInStrategy;\r\n        uint256 _liquidityShares;\r\n        uint256 _sharesToTransfer;\r\n        //uint256 _totalTokens = getTotalTokensInStrategies(creditLineInfo[_creditLineHash].borrower, creditLineInfo[_creditLineHash].collateralAsset);\r\n        //require(_totalTokens >= _amount, \"CreditLine::transferCollateral - Insufficient balance.\");\r\n\r\n        ISavingsAccount _savingsAccount = ISavingsAccount(IPoolFactory(PoolFactory).savingsAccount());\r\n\r\n        for (uint256 _index = 0; _index < _strategyList.length; _index++) {\r\n            _liquidityShares = _savingsAccount.userLockedBalance(creditLineInfo[_creditLineHash].borrower, creditLineInfo[_creditLineHash].collateralAsset, _strategyList[_index]);\r\n            \r\n            if (_liquidityShares > 0) {\r\n                _tokenInStrategy = IYield(_strategyList[_index]).getTokensForShares(_liquidityShares, creditLineInfo[_creditLineHash].collateralAsset);\r\n\r\n                if (_activeAmount.add(_tokenInStrategy) >= _amount) {\r\n                    _activeAmount = _amount;\r\n                    _sharesToTransfer = (_amount.sub(_activeAmount)).div(_tokenInStrategy).mul(_liquidityShares);\r\n                    _savingsAccount.transferFrom(creditLineInfo[_creditLineHash].collateralAsset, creditLineInfo[_creditLineHash].borrower, _recipient, _strategyList[_index], _sharesToTransfer);\r\n                    collateralShareInStrategy[_creditLineHash][_strategyList[_index]] = collateralShareInStrategy[_creditLineHash][_strategyList[_index]]\r\n                                                                                        .add(_sharesToTransfer);\r\n                    return;\r\n                }\r\n                else {\r\n                    _activeAmount = _activeAmount.add(_tokenInStrategy);\r\n                    _savingsAccount.transferFrom(creditLineInfo[_creditLineHash].collateralAsset, creditLineInfo[_creditLineHash].borrower, _recipient, _strategyList[_index], _liquidityShares);\r\n                    collateralShareInStrategy[_creditLineHash][_strategyList[_index]] = collateralShareInStrategy[_creditLineHash][_strategyList[_index]]\r\n                                                                                        .add(_liquidityShares);\r\n                }\r\n            }\r\n        }\r\n        //require(_activeAmount == _amount, \"CreditLine::transferCollateral - Insufficient balance\");\r\n    }\r\n\r\n    /**\r\n     * @dev used to request a credit line by a borrower\r\n     * @param _lender lender from whom creditLine is requested\r\n     * @param _borrowLimit maximum borrow amount in a credit line\r\n     * @param _liquidationThreshold threshold for liquidation \r\n     * @param _borrowRate Interest Rate at which credit Line is requested\r\n    */\r\n    function requestCreditLineToLender(\r\n        address _lender,\r\n        uint256 _borrowLimit,\r\n        uint256 _liquidationThreshold,\r\n        uint256 _borrowRate,\r\n        bool _autoLiquidation,\r\n        uint256 _collateralRatio,\r\n        address _borrowAsset,\r\n        address _collateralAsset\r\n    ) public returns (bytes32) {\r\n\r\n        //require(userData[lender].blockCreditLineRequests == true,\r\n        //        \"CreditLine: External requests blocked\");\r\n\r\n        CreditLineCounter = CreditLineCounter + 1; // global counter to generate ID\r\n        bytes32 _creditLineHash = keccak256(abi.encodePacked(CreditLineCounter));\r\n        CreditLineVars memory _temp;\r\n        _temp.exists = true;\r\n        _temp.currentStatus = creditLineStatus.REQUESTED;\r\n        _temp.borrower = msg.sender;\r\n        _temp.lender = _lender;\r\n        _temp.borrowLimit = _borrowLimit;\r\n        _temp.autoLiquidation = _autoLiquidation;\r\n        _temp.idealCollateralRatio = _collateralRatio;\r\n        _temp.liquidationThreshold = _liquidationThreshold;\r\n        _temp.borrowRate = _borrowRate;\r\n        _temp.borrowAsset = _borrowAsset;\r\n        _temp.collateralAsset = _collateralAsset;\r\n        _temp.requestByLender = false;\r\n        creditLineInfo[_creditLineHash] = _temp;\r\n        // setRepayments(creditLineHash);\r\n        emit CreditLineRequestedToLender(_creditLineHash, _lender, msg.sender);\r\n        return _creditLineHash;\r\n\r\n    }\r\n\r\n    function requestCreditLineToBorrower(\r\n        address _borrower,\r\n        uint256 _borrowLimit,\r\n        uint256 _liquidationThreshold,\r\n        uint256 _borrowRate,\r\n        bool _autoLiquidation,\r\n        uint256 _collateralRatio,\r\n        address _borrowAsset,\r\n        address _collateralAsset\r\n    ) public returns (bytes32) {\r\n\r\n        //require(userData[borrower].blockCreditLineRequests == true,\r\n        //        \"CreditLine: External requests blocked\");\r\n\r\n        CreditLineCounter = CreditLineCounter + 1; // global counter to generate ID\r\n        bytes32 _creditLineHash = keccak256(abi.encodePacked(CreditLineCounter));\r\n        CreditLineVars memory _temp;\r\n        _temp.exists = true;\r\n        _temp.currentStatus = creditLineStatus.REQUESTED;\r\n        _temp.borrower = _borrower;\r\n        _temp.lender = msg.sender;\r\n        _temp.borrowLimit = _borrowLimit;\r\n        _temp.autoLiquidation = _autoLiquidation;\r\n        _temp.idealCollateralRatio = _collateralRatio;\r\n        _temp.liquidationThreshold = _liquidationThreshold;\r\n        _temp.borrowRate = _borrowRate;\r\n        _temp.borrowAsset = _borrowAsset;\r\n        _temp.collateralAsset = _collateralAsset;\r\n        _temp.requestByLender = true;\r\n        creditLineInfo[_creditLineHash] = _temp;\r\n        // setRepayments(creditLineHash);\r\n        ISavingsAccount(IPoolFactory(PoolFactory).savingsAccount()).approve(creditLineInfo[_creditLineHash].borrowAsset, address(this), creditLineInfo[_creditLineHash].borrowLimit);\r\n        emit CreditLineRequestedToBorrower(_creditLineHash, msg.sender, _borrower);\r\n        return _creditLineHash;\r\n\r\n    }\r\n    \r\n    /**\r\n     * @dev used to Accept a credit line by a specified lender\r\n     * @param _creditLineHash Credit line hash which represents the credit Line Unique Hash\r\n    */\r\n    function acceptCreditLineLender(bytes32 _creditLineHash)\r\n        external\r\n        ifCreditLineExists(_creditLineHash)\r\n        onlyCreditLineLender(_creditLineHash)\r\n    {\r\n        require(creditLineInfo[_creditLineHash].currentStatus == creditLineStatus.REQUESTED,\r\n                \"CreditLine::acceptCreditLineLender - CreditLine is already accepted\");\r\n        require(creditLineInfo[_creditLineHash].requestByLender == false,\r\n                \"CreditLine::acceptCreditLineLender - Invalid request\");\r\n\r\n        ISavingsAccount(IPoolFactory(PoolFactory).savingsAccount()).approve(creditLineInfo[_creditLineHash].borrowAsset, address(this), creditLineInfo[_creditLineHash].borrowLimit);\r\n\r\n        creditLineInfo[_creditLineHash].currentStatus = creditLineStatus.ACTIVE;\r\n        emit CreditLineAccepted(_creditLineHash);\r\n    }\r\n\r\n    function acceptCreditLineBorrower(bytes32 _creditLineHash)\r\n        external\r\n        ifCreditLineExists(_creditLineHash)\r\n        onlyCreditLineBorrower(_creditLineHash)\r\n    {\r\n        require(creditLineInfo[_creditLineHash].currentStatus == creditLineStatus.REQUESTED,\r\n                \"CreditLine::acceptCreditLineLender - CreditLine is already accepted\");\r\n        require(creditLineInfo[_creditLineHash].requestByLender == true,\r\n                \"CreditLine::acceptCreditLineLender - Invalid request\");\r\n\r\n        creditLineInfo[_creditLineHash].currentStatus = creditLineStatus.ACTIVE;\r\n        emit CreditLineAccepted(_creditLineHash);\r\n    }\r\n\r\n\r\n    function _depositCollateral(address _collateralAsset, uint256 _collateralAmount, bytes32 _creditLineHash, bool _transferCollateralFromSavingAccount) public payable {\r\n\r\n        ISavingsAccount _savingsAccount = ISavingsAccount(IPoolFactory(PoolFactory).savingsAccount());\r\n        uint256 _sharesReceived;\r\n\r\n        if(_transferCollateralFromSavingAccount){\r\n            transferCollateral(_collateralAmount, _creditLineHash, address(this));\r\n        }\r\n        else{\r\n            address _strategy = defaultStrategy;\r\n            if(_collateralAsset == address(0)){\r\n                require(msg.value == _collateralAmount, \"CreditLine ::borrowFromCreditLine - value to transfer doesn't match argument\");\r\n                _sharesReceived = _savingsAccount.deposit{value:msg.value}(_collateralAmount, _collateralAsset, _strategy);\r\n            }\r\n            else{\r\n                IERC20(_collateralAsset).transferFrom(msg.sender, address(this), _collateralAmount);           \r\n                _sharesReceived = _savingsAccount.deposit(_collateralAmount, _collateralAsset, _strategy);\r\n            }\r\n            collateralShareInStrategy[_creditLineHash][_strategy] = collateralShareInStrategy[_creditLineHash][_strategy].add(_sharesReceived);\r\n        }\r\n\r\n    }\r\n\r\n    function _withdrawBorrowAmount(address _asset, uint256 _amountInTokens, bytes32 _creditLineHash, address _lender) internal {\r\n\r\n        //address _lender = creditLineInfo[creditLineHash].lender;\r\n        address[] memory _strategyList = IStrategyRegistry(strategyRegistry).getStrategies();\r\n        ISavingsAccount _savingsAccount = ISavingsAccount(IPoolFactory(PoolFactory).savingsAccount());\r\n        uint256 _amount = _amountInTokens;\r\n        uint256 _liquidityShares;\r\n        uint256 _activeAmount;\r\n        uint256 _sharesToTransfer;\r\n        uint256 _tokenInStrategy;\r\n        for (uint256 _index = 0; _index < _strategyList.length; _index++) {\r\n\r\n            _liquidityShares = _savingsAccount.userLockedBalance(_lender, _asset, _strategyList[_index]);\r\n            if (_liquidityShares > 0) {\r\n                _tokenInStrategy = IYield(_strategyList[_index]).getTokensForShares(_liquidityShares, _asset); //TODO might not pass since yield is included in tokenInStrategy\r\n\r\n                if (_activeAmount.add(_tokenInStrategy) >= _amount) {\r\n                    _activeAmount = _amount;\r\n                    _sharesToTransfer = (_amount.sub(_activeAmount)).div(_tokenInStrategy).mul(_liquidityShares);\r\n                    _savingsAccount.withdrawFrom(_lender, _sharesToTransfer, _asset, _strategyList[_index], false);\r\n                    //_savingsAccount.transferFrom(_asset, _sender, _recipient, _strategyList[_index], _sharesToTransfer);\r\n                    collateralShareInStrategy[_creditLineHash][_strategyList[_index]] = collateralShareInStrategy[_creditLineHash][_strategyList[_index]]\r\n                                                                                        .add(_sharesToTransfer);\r\n                    return;\r\n                }\r\n                else {\r\n                    _activeAmount = _activeAmount.add(_tokenInStrategy);\r\n                    _savingsAccount.withdrawFrom(_lender, _liquidityShares, _asset, _strategyList[_index], false);\r\n                    //_savingsAccount.transferFrom(_asset, _sender, _recipient, _strategyList[_index], _liquidityShares);\r\n                    collateralShareInStrategy[_creditLineHash][_strategyList[_index]] = collateralShareInStrategy[_creditLineHash][_strategyList[_index]]\r\n                                                                                        .add(_liquidityShares);\r\n                }   \r\n            }\r\n        }\r\n        require(_activeAmount == _amount,\"insufficient balance\");\r\n    }\r\n\r\n\r\n    function borrowFromCreditLine(uint256 borrowAmount, bytes32 creditLineHash)\r\n        external payable\r\n        ifCreditLineExists(creditLineHash)\r\n        onlyCreditLineBorrower(creditLineHash)\r\n    {   \r\n\r\n        require(creditLineInfo[creditLineHash].currentStatus == creditLineStatus.ACTIVE,\r\n                \"CreditLine: The credit line is not yet active.\");\r\n        uint256 _currentDebt = calculateCurrentDebt(creditLineHash);\r\n        require(\r\n            _currentDebt.add(borrowAmount) <= creditLineInfo[creditLineHash].borrowLimit,\r\n            \"CreditLine: Amount exceeds borrow limit.\");\r\n\r\n        uint256 _ratioOfPrices =\r\n            IPriceOracle(IPoolFactory(PoolFactory).priceOracle())\r\n                .getLatestPrice(\r\n                creditLineInfo[creditLineHash].collateralAsset,\r\n                creditLineInfo[creditLineHash].borrowAsset);\r\n\r\n        uint256 _totalCollateralToken = calculateTotalCollateralTokens(creditLineHash);\r\n        uint256 currentDebt = calculateCurrentDebt(creditLineHash);\r\n        uint256 collateralRatioIfAmountIsWithdrawn = ((_totalCollateralToken).div(currentDebt.add(borrowAmount))).mul(_ratioOfPrices).div(10**8);\r\n        require(\r\n            collateralRatioIfAmountIsWithdrawn >\r\n                creditLineInfo[creditLineHash].idealCollateralRatio,\r\n            \"CreditLine::borrowFromCreditLine - The current collateral ration doesn't allow to withdraw the Amount\"\r\n        );\r\n        address _borrowAsset = creditLineInfo[creditLineHash].borrowAsset;\r\n        address _lender = creditLineInfo[creditLineHash].lender;\r\n    \r\n        updateinterestAccruedTillPrincipalUpdate(creditLineHash);\r\n        creditLineUsage[creditLineHash].principal = creditLineUsage[creditLineHash].principal.add(borrowAmount);\r\n        creditLineUsage[creditLineHash].lastPrincipalUpdateTime = block.timestamp;\r\n\r\n        //transferFromSavingAccount(_borrowAsset,borrowAmount,_lender,address(this));\r\n        _withdrawBorrowAmount(_borrowAsset, borrowAmount, creditLineHash, _lender);\r\n        if(_borrowAsset==address(0)){\r\n            msg.sender.transfer(borrowAmount);\r\n        }\r\n        else{\r\n            IERC20(_borrowAsset).transfer(msg.sender, borrowAmount);\r\n        }\r\n        emit BorrowedFromCreditLine(borrowAmount, creditLineHash);\r\n    }\r\n\r\n\r\n    //TODO:- Make the function to accept ether as well \r\n    /**\r\n     * @dev used to repay assest to credit line \r\n     * @param _repayAmount amount which borrower wants to repay to credit line\r\n     * @param _creditLineHash Credit line hash which represents the credit Line Unique Hash\r\n    */\r\n\r\n    /*\r\n        Parameters used:\r\n        - currentStatus\r\n        - borrowAsset\r\n        - interestAccruedTillPrincipalUpdate\r\n        - principal\r\n        - totalInterestRepaid\r\n        - lastPrincipalUpdateTime\r\n\r\n\r\n\r\n    */\r\n    function repay(bytes32 _creditLineHash, bool _transferFromSavingAccount, uint256 _repayAmount) public payable {\r\n\r\n        address _borrowAsset = creditLineInfo[_creditLineHash].borrowAsset;\r\n        address _lender = creditLineInfo[_creditLineHash].lender;\r\n        ISavingsAccount _savingsAccount = ISavingsAccount(IPoolFactory(PoolFactory).savingsAccount());\r\n        address _defaultStrategy = defaultStrategy;\r\n        uint256 _sharesReceived;\r\n        if(_transferFromSavingAccount == false){\r\n            if(_borrowAsset == address(0)){\r\n                require(msg.value == _repayAmount, \"creditLine::repay - value to transfer doesn't match argument\");\r\n                _sharesReceived = _savingsAccount.deposit{value:msg.value}(_repayAmount, _borrowAsset, _defaultStrategy);\r\n            }\r\n            else{\r\n                _sharesReceived = _savingsAccount.deposit(_repayAmount, _borrowAsset, _defaultStrategy);\r\n            }\r\n            _savingsAccount.transfer(_borrowAsset, _lender, _defaultStrategy, _sharesReceived);\r\n        }\r\n        else{\r\n            transferFromSavingAccount(_borrowAsset, _repayAmount, msg.sender, creditLineInfo[_creditLineHash].lender);\r\n        }\r\n        _savingsAccount.approveFromToCreditLine(_borrowAsset, _lender, _repayAmount);\r\n\r\n    }\r\n\r\n\r\n    function repayCreditLine(uint256 repayAmount, bytes32 creditLineHash, address asset, bool _transferFromSavingAccount)\r\n        external payable\r\n        ifCreditLineExists(creditLineHash)\r\n        onlyCreditLineBorrower(creditLineHash)\r\n    {   \r\n        require(creditLineInfo[creditLineHash].currentStatus == creditLineStatus.ACTIVE,\r\n                \"CreditLine: The credit line is not yet active.\");\r\n        // update \r\n        require(asset == creditLineInfo[creditLineHash].borrowAsset,\r\n                \"CreditLine: Asset does not match.\");\r\n        uint256 _interestSincePrincipalUpdate = calculateInterestAccrued(creditLineHash);\r\n        uint256 _totalInterestAccrued = (creditLineUsage[creditLineHash].interestAccruedTillPrincipalUpdate)\r\n                                        .add(_interestSincePrincipalUpdate);\r\n        uint256 _totalDebt = _totalInterestAccrued.add(creditLineUsage[creditLineHash].principal);\r\n        // check requried for correct token type\r\n        //uint256 _currentDebt = calculateCurrentDebt(creditLineHash);\r\n        require(_totalDebt >= repayAmount,\r\n                \"CreditLine: Repay amount is greater than debt.\");\r\n\r\n        if (repayAmount.add(creditLineUsage[creditLineHash].totalInterestRepaid) <= _totalInterestAccrued) {\r\n            creditLineUsage[creditLineHash].totalInterestRepaid = repayAmount\r\n                                                                .add(creditLineUsage[creditLineHash].totalInterestRepaid);\r\n        }\r\n        else {\r\n            creditLineUsage[creditLineHash].principal = (creditLineUsage[creditLineHash].principal)\r\n                                                        .sub(repayAmount)\r\n                                                        .sub(creditLineUsage[creditLineHash].totalInterestRepaid)\r\n                                                        .add(_totalInterestAccrued);\r\n            creditLineUsage[creditLineHash].interestAccruedTillPrincipalUpdate = _totalInterestAccrued;\r\n            creditLineUsage[creditLineHash].totalInterestRepaid = repayAmount\r\n                                                            .add(creditLineUsage[creditLineHash].totalInterestRepaid);\r\n            creditLineUsage[creditLineHash].lastPrincipalUpdateTime = block.timestamp;\r\n        }\r\n        repay(creditLineHash,_transferFromSavingAccount,repayAmount);\r\n\r\n        if (creditLineUsage[creditLineHash].principal == 0) {\r\n            _resetCreditLine(creditLineHash);\r\n        }\r\n        PartialCreditLineRepaid(creditLineHash, repayAmount);\r\n    }\r\n\r\n    function _resetCreditLine(bytes32 creditLineHash) \r\n        internal \r\n        ifCreditLineExists(creditLineHash) {\r\n        require(creditLineInfo[creditLineHash].currentStatus == creditLineStatus.ACTIVE, \"CreditLine: Credit line should be active.\");\r\n        creditLineUsage[creditLineHash].lastPrincipalUpdateTime = 0; // check if can assign 0 or not\r\n        creditLineUsage[creditLineHash].totalInterestRepaid = 0;\r\n        creditLineUsage[creditLineHash].interestAccruedTillPrincipalUpdate = 0;\r\n        emit CreditLineReset(creditLineHash);\r\n    }\r\n\r\n    /**\r\n     * @dev used to close credit line once by borrower or lender  \r\n     * @param creditLineHash Credit line hash which represents the credit Line Unique Hash\r\n    */\r\n    function closeCreditLine(bytes32 creditLineHash)\r\n        external\r\n        ifCreditLineExists(creditLineHash)\r\n    {\r\n        require(\r\n            msg.sender == creditLineInfo[creditLineHash].borrower ||\r\n                msg.sender == creditLineInfo[creditLineHash].lender,\r\n            \"CreditLine: Permission denied while closing Line of credit\"\r\n        );\r\n        require(creditLineInfo[creditLineHash].currentStatus == creditLineStatus.ACTIVE,\r\n                \"CreditLine: Credit line should be active.\");\r\n        require(creditLineUsage[creditLineHash].principal == 0,\r\n                \"CreditLine: Cannot be closed since not repaid.\");\r\n        require(creditLineUsage[creditLineHash].interestAccruedTillPrincipalUpdate == 0,\r\n                \"CreditLine: Cannot be closed since not repaid.\");\r\n        creditLineInfo[creditLineHash].currentStatus = creditLineStatus.CLOSED;\r\n        emit CreditLineClosed(creditLineHash);\r\n    }\r\n\r\n    function calculateCurrentCollateralRatio(bytes32 creditLineHash) \r\n        public \r\n        view \r\n        ifCreditLineExists(creditLineHash) returns (uint256) {\r\n\r\n        uint256 _ratioOfPrices =\r\n            IPriceOracle(IPoolFactory(PoolFactory).priceOracle())\r\n                .getLatestPrice(\r\n                creditLineInfo[creditLineHash].collateralAsset,\r\n                creditLineInfo[creditLineHash].borrowAsset);\r\n\r\n        uint256 currentDebt = calculateCurrentDebt(creditLineHash);\r\n        uint256 currentCollateralRatio = ((creditLineUsage[creditLineHash].collateralAmount).div(currentDebt)).mul(_ratioOfPrices).div(10**8);\r\n        return currentCollateralRatio;\r\n    }\r\n\r\n    function calculateTotalCollateralTokens(bytes32 creditLineHash) public returns(uint256 amount){\r\n        address _collateralAsset = creditLineInfo[creditLineHash].collateralAsset;\r\n        address[] memory _strategyList = IStrategyRegistry(strategyRegistry).getStrategies();\r\n        //ISavingsAccount _savingsAccount = ISavingsAccount(IPoolFactory(PoolFactory).savingsAccount());\r\n        uint256 liquidityShares;\r\n        for (uint256 index = 0; index < _strategyList.length; index++) {\r\n            liquidityShares = collateralShareInStrategy[creditLineHash][_strategyList[index]];\r\n            uint256 tokenInStrategy = IYield(_strategyList[index]).getTokensForShares(liquidityShares, _collateralAsset);\r\n            amount = amount.add(tokenInStrategy);\r\n        }   \r\n    }\r\n\r\n    function withdrawCollateralFromCreditLine(bytes32 creditLineHash,uint256 amount) public onlyCreditLineBorrower(creditLineHash){\r\n\r\n        //check for ideal ratio\r\n        uint256 _ratioOfPrices =\r\n            IPriceOracle(IPoolFactory(PoolFactory).priceOracle())\r\n                .getLatestPrice(\r\n                creditLineInfo[creditLineHash].collateralAsset,\r\n                creditLineInfo[creditLineHash].borrowAsset);\r\n\r\n        uint256 _totalCollateralToken = calculateTotalCollateralTokens(creditLineHash);\r\n        uint256 currentDebt = calculateCurrentDebt(creditLineHash);\r\n        uint256 collateralRatioIfAmountIsWithdrawn = ((_totalCollateralToken).div(currentDebt.add(amount))).mul(_ratioOfPrices).div(10**8);\r\n        require(\r\n            collateralRatioIfAmountIsWithdrawn >=\r\n                creditLineInfo[creditLineHash].idealCollateralRatio,\r\n            \"CreditLine::withdrawCollateralFromCreditLine - The current collateral ration doesn't allow to withdraw\"\r\n        );\r\n        address _collateralAsset = creditLineInfo[creditLineHash].collateralAsset;\r\n        _withdrawCollateral(_collateralAsset, amount, creditLineHash);\r\n    }\r\n\r\n\r\n    function _withdrawCollateral(address _asset, uint256 _amountInTokens, bytes32 creditLineHash) internal {\r\n\r\n        address[] memory _strategyList = IStrategyRegistry(strategyRegistry).getStrategies();\r\n        uint256 _activeAmount;\r\n        uint256 _tokenInStrategy;\r\n        uint256 liquidityShares;\r\n        uint256 index;\r\n        for (index = 0; index < _strategyList.length; index++) {\r\n            liquidityShares = collateralShareInStrategy[creditLineHash][_strategyList[index]];\r\n            if (liquidityShares > 0) {\r\n                _tokenInStrategy = IYield(_strategyList[index]).getTokensForShares(liquidityShares, _asset);\r\n                _activeAmount = _activeAmount.add(_tokenInStrategy);\r\n                if(_activeAmount>_amountInTokens){\r\n                    liquidityShares = liquidityShares.sub((_activeAmount.sub(_amountInTokens)).mul(liquidityShares).div(_tokenInStrategy));\r\n                }\r\n                ISavingsAccount(IPoolFactory(PoolFactory).savingsAccount()).withdraw(msg.sender,liquidityShares, _asset, _strategyList[index], false);\r\n                collateralShareInStrategy[creditLineHash][_strategyList[index]] = collateralShareInStrategy[creditLineHash][_strategyList[index]].sub(liquidityShares);\r\n                if(_activeAmount>_amountInTokens){\r\n                    return;\r\n                }\r\n            }\r\n        }\r\n        require(_activeAmount >= _amountInTokens,\"insufficient collateral\");\r\n    }\r\n\r\n\r\n    function liquidation(bytes32 creditLineHash) \r\n        external payable\r\n        ifCreditLineExists(creditLineHash) \r\n    {\r\n        require(creditLineInfo[creditLineHash].currentStatus == creditLineStatus.ACTIVE,\r\n                \"CreditLine: Credit line should be active.\");\r\n\r\n        uint currentCollateralRatio = calculateCurrentCollateralRatio(creditLineHash);\r\n        require(currentCollateralRatio < creditLineInfo[creditLineHash].liquidationThreshold,\r\n                \"CreditLine: Collateral ratio is higher than liquidation threshold\");\r\n\r\n        address _collateralAsset = creditLineInfo[creditLineHash].collateralAsset;\r\n        address _lender = creditLineInfo[creditLineHash].lender;\r\n        uint256 _totalCollateralToken = calculateTotalCollateralTokens(creditLineHash);\r\n        address _borrowAsset = creditLineInfo[creditLineHash].borrowAsset;\r\n\r\n        if(creditLineInfo[creditLineHash].autoLiquidation) { \r\n\r\n            if(_lender == msg.sender){\r\n                transferFromSavingAccount(_collateralAsset, _totalCollateralToken, address(this), msg.sender);    \r\n            }\r\n            else{\r\n                uint256 _ratioOfPrices =IPriceOracle(IPoolFactory(PoolFactory).priceOracle()).getLatestPrice(\r\n                    _borrowAsset,\r\n                    _collateralAsset);\r\n\r\n                uint256 _borrowToken = (_totalCollateralToken.mul(_ratioOfPrices).div(10**8));\r\n                IERC20(_borrowAsset).transferFrom(msg.sender,_lender, _borrowToken);\r\n                _withdrawCollateral(_collateralAsset, _totalCollateralToken,creditLineHash);   \r\n            }\r\n           \r\n        }\r\n        else {\r\n            require(msg.sender == creditLineInfo[creditLineHash].lender,\"CreditLine: Liquidation can only be performed by lender.\");\r\n            transferFromSavingAccount(_collateralAsset, _totalCollateralToken, address(this), msg.sender);\r\n        }\r\n\r\n        delete creditLineInfo[creditLineHash];\r\n    }\r\n\r\n\r\n    receive() external payable {\r\n        require(\r\n            msg.sender == IPoolFactory(PoolFactory).savingsAccount(),\r\n            \"CreditLine::receive invalid transaction\"\r\n        );\r\n    }\r\n\r\n    // Think about threshHold liquidation \r\n    // only one type of token is accepted check for that\r\n    // collateral ratio has to calculated initially\r\n    // current debt is more than borrow amount\r\n}\r\n",
  "sourcePath": "C:/Users/Harshita/Documents/sublime-v1/sublime-v1/contracts/CreditLine/CreditLine.sol",
  "compiler": {
    "name": "solc",
    "version": "0.7.0+commit.9e61f92b.Emscripten.clang"
  },
  "schemaVersion": "3.3.3",
  "updatedAt": "2021-03-22T07:18:06.858Z",
  "devdoc": {
    "author": "Sublime*",
    "kind": "dev",
    "methods": {
      "acceptCreditLineLender(bytes32)": {
        "details": "used to Accept a credit line by a specified lender",
        "params": {
          "_creditLineHash": "Credit line hash which represents the credit Line Unique Hash"
        }
      },
      "calculateCurrentDebt(bytes32)": {
        "details": "Used to calculate current debt of borrower against a credit line. ",
        "params": {
          "_creditLineHash": "Hash of the credit line for which current debt has to be calculated"
        },
        "returns": {
          "_0": "uint256 current debt of borrower "
        }
      },
      "calculateInterestAccrued(bytes32)": {
        "details": "Used to calculate interest accrued since last repayment",
        "params": {
          "creditLineHash": "Hash of the credit line for which interest accrued has to be calculated"
        },
        "returns": {
          "_0": "uint256 interest accrued over current borrowed amount since last repayment"
        }
      },
      "calculateInterestPerSecond(uint256,uint256)": {
        "details": "Used to Calculate Interest Per second on given principal and Interest rate",
        "params": {
          "_borrowRate": "It is the Interest Rate at which Credit Line is approved",
          "_principal": "principal Amount for which interest has to be calculated."
        },
        "returns": {
          "_0": "uint256 interest per second for the given parameters"
        }
      },
      "closeCreditLine(bytes32)": {
        "details": "used to close credit line once by borrower or lender  ",
        "params": {
          "creditLineHash": "Credit line hash which represents the credit Line Unique Hash"
        }
      },
      "owner()": {
        "details": "Returns the address of the current owner."
      },
      "renounceOwnership()": {
        "details": "Leaves the contract without owner. It will not be possible to call `onlyOwner` functions anymore. Can only be called by the current owner. NOTE: Renouncing ownership will leave the contract without an owner, thereby removing any functionality that is only available to the owner."
      },
      "repay(bytes32,bool,uint256)": {
        "details": "used to repay assest to credit line ",
        "params": {
          "_creditLineHash": "Credit line hash which represents the credit Line Unique Hash",
          "_repayAmount": "amount which borrower wants to repay to credit line"
        }
      },
      "requestCreditLineToLender(address,uint256,uint256,uint256,bool,uint256,address,address)": {
        "details": "used to request a credit line by a borrower",
        "params": {
          "_borrowLimit": "maximum borrow amount in a credit line",
          "_borrowRate": "Interest Rate at which credit Line is requested",
          "_lender": "lender from whom creditLine is requested",
          "_liquidationThreshold": "threshold for liquidation "
        }
      },
      "transferOwnership(address)": {
        "details": "Transfers ownership of the contract to a new account (`newOwner`). Can only be called by the current owner."
      }
    },
    "title": "Credit Line contract with Methods related to credit Line",
    "version": 1
  },
  "userdoc": {
    "kind": "user",
    "methods": {},
    "notice": "Implements the functions related to Credit Line",
    "version": 1
  }
}