{
  "_format": "hh-sol-artifact-1",
  "contractName": "CreditLine",
  "sourceName": "contracts/CreditLine/CreditLine.sol",
  "abi": [
    {
      "anonymous": false,
      "inputs": [
        {
          "indexed": false,
          "internalType": "uint256",
          "name": "borrowAmount",
          "type": "uint256"
        },
        {
          "indexed": false,
          "internalType": "bytes32",
          "name": "creditLineHash",
          "type": "bytes32"
        }
      ],
      "name": "BorrowedFromCreditLine",
      "type": "event"
    },
    {
      "anonymous": false,
      "inputs": [
        {
          "indexed": false,
          "internalType": "bytes32",
          "name": "creditLineHash",
          "type": "bytes32"
        },
        {
          "indexed": false,
          "internalType": "uint256",
          "name": "repayAmount",
          "type": "uint256"
        }
      ],
      "name": "CompleteCreditLineRepaid",
      "type": "event"
    },
    {
      "anonymous": false,
      "inputs": [
        {
          "indexed": false,
          "internalType": "bytes32",
          "name": "creditLineHash",
          "type": "bytes32"
        }
      ],
      "name": "CreditLineAccepted",
      "type": "event"
    },
    {
      "anonymous": false,
      "inputs": [
        {
          "indexed": false,
          "internalType": "bytes32",
          "name": "creditLineHash",
          "type": "bytes32"
        }
      ],
      "name": "CreditLineClosed",
      "type": "event"
    },
    {
      "anonymous": false,
      "inputs": [
        {
          "indexed": false,
          "internalType": "bytes32",
          "name": "creditLineHash",
          "type": "bytes32"
        },
        {
          "indexed": false,
          "internalType": "address",
          "name": "liquidator",
          "type": "address"
        }
      ],
      "name": "CreditLineLiquidated",
      "type": "event"
    },
    {
      "anonymous": false,
      "inputs": [
        {
          "indexed": false,
          "internalType": "bytes32",
          "name": "creditLineHash",
          "type": "bytes32"
        },
        {
          "indexed": false,
          "internalType": "address",
          "name": "lender",
          "type": "address"
        },
        {
          "indexed": false,
          "internalType": "address",
          "name": "borrower",
          "type": "address"
        }
      ],
      "name": "CreditLineRequestedToBorrower",
      "type": "event"
    },
    {
      "anonymous": false,
      "inputs": [
        {
          "indexed": false,
          "internalType": "bytes32",
          "name": "creditLineHash",
          "type": "bytes32"
        },
        {
          "indexed": false,
          "internalType": "address",
          "name": "lender",
          "type": "address"
        },
        {
          "indexed": false,
          "internalType": "address",
          "name": "borrower",
          "type": "address"
        }
      ],
      "name": "CreditLineRequestedToLender",
      "type": "event"
    },
    {
      "anonymous": false,
      "inputs": [
        {
          "indexed": false,
          "internalType": "bytes32",
          "name": "creditLineHash",
          "type": "bytes32"
        }
      ],
      "name": "CreditLineReset",
      "type": "event"
    },
    {
      "anonymous": false,
      "inputs": [
        {
          "indexed": false,
          "internalType": "address",
          "name": "defaultStrategy",
          "type": "address"
        }
      ],
      "name": "DefaultStrategyUpdated",
      "type": "event"
    },
    {
      "anonymous": false,
      "inputs": [
        {
          "indexed": true,
          "internalType": "address",
          "name": "previousOwner",
          "type": "address"
        },
        {
          "indexed": true,
          "internalType": "address",
          "name": "newOwner",
          "type": "address"
        }
      ],
      "name": "OwnershipTransferred",
      "type": "event"
    },
    {
      "anonymous": false,
      "inputs": [
        {
          "indexed": false,
          "internalType": "bytes32",
          "name": "creditLineHash",
          "type": "bytes32"
        },
        {
          "indexed": false,
          "internalType": "uint256",
          "name": "repayAmount",
          "type": "uint256"
        }
      ],
      "name": "PartialCreditLineRepaid",
      "type": "event"
    },
    {
      "anonymous": false,
      "inputs": [
        {
          "indexed": false,
          "internalType": "address",
          "name": "priceOracle",
          "type": "address"
        }
      ],
      "name": "PriceOracleUpdated",
      "type": "event"
    },
    {
      "anonymous": false,
      "inputs": [
        {
          "indexed": false,
          "internalType": "address",
          "name": "updatedProtocolFeeCollector",
          "type": "address"
        }
      ],
      "name": "ProtocolFeeCollectorUpdated",
      "type": "event"
    },
    {
      "anonymous": false,
      "inputs": [
        {
          "indexed": false,
          "internalType": "uint256",
          "name": "updatedProtocolFee",
          "type": "uint256"
        }
      ],
      "name": "ProtocolFeeFractionUpdated",
      "type": "event"
    },
    {
      "anonymous": false,
      "inputs": [
        {
          "indexed": false,
          "internalType": "address",
          "name": "savingsAccount",
          "type": "address"
        }
      ],
      "name": "SavingsAccountUpdated",
      "type": "event"
    },
    {
      "anonymous": false,
      "inputs": [
        {
          "indexed": false,
          "internalType": "address",
          "name": "strategyRegistry",
          "type": "address"
        }
      ],
      "name": "StrategyRegistryUpdated",
      "type": "event"
    },
    {
      "inputs": [],
      "name": "CreditLineCounter",
      "outputs": [
        {
          "internalType": "uint256",
          "name": "",
          "type": "uint256"
        }
      ],
      "stateMutability": "view",
      "type": "function"
    },
    {
      "inputs": [
        {
          "internalType": "bytes32",
          "name": "_creditLineHash",
          "type": "bytes32"
        }
      ],
      "name": "acceptCreditLineBorrower",
      "outputs": [],
      "stateMutability": "nonpayable",
      "type": "function"
    },
    {
      "inputs": [
        {
          "internalType": "bytes32",
          "name": "_creditLineHash",
          "type": "bytes32"
        }
      ],
      "name": "acceptCreditLineLender",
      "outputs": [],
      "stateMutability": "nonpayable",
      "type": "function"
    },
    {
      "inputs": [
        {
          "internalType": "uint256",
          "name": "borrowAmount",
          "type": "uint256"
        },
        {
          "internalType": "bytes32",
          "name": "creditLineHash",
          "type": "bytes32"
        }
      ],
      "name": "borrowFromCreditLine",
      "outputs": [],
      "stateMutability": "payable",
      "type": "function"
    },
    {
      "inputs": [
        {
          "internalType": "bytes32",
          "name": "_creditLineHash",
          "type": "bytes32"
        }
      ],
      "name": "calculateBorrowableAmount",
      "outputs": [
        {
          "internalType": "uint256",
          "name": "",
          "type": "uint256"
        }
      ],
      "stateMutability": "nonpayable",
      "type": "function"
    },
    {
      "inputs": [
        {
          "internalType": "bytes32",
          "name": "creditLineHash",
          "type": "bytes32"
        }
      ],
      "name": "calculateCurrentCollateralRatio",
      "outputs": [
        {
          "internalType": "uint256",
          "name": "",
          "type": "uint256"
        }
      ],
      "stateMutability": "nonpayable",
      "type": "function"
    },
    {
      "inputs": [
        {
          "internalType": "bytes32",
          "name": "_creditLineHash",
          "type": "bytes32"
        }
      ],
      "name": "calculateCurrentDebt",
      "outputs": [
        {
          "internalType": "uint256",
          "name": "",
          "type": "uint256"
        }
      ],
      "stateMutability": "view",
      "type": "function"
    },
    {
      "inputs": [
        {
          "internalType": "uint256",
          "name": "_principal",
          "type": "uint256"
        },
        {
          "internalType": "uint256",
          "name": "_borrowRate",
          "type": "uint256"
        },
        {
          "internalType": "uint256",
          "name": "_timeElapsed",
          "type": "uint256"
        }
      ],
      "name": "calculateInterest",
      "outputs": [
        {
          "internalType": "uint256",
          "name": "",
          "type": "uint256"
        }
      ],
      "stateMutability": "pure",
      "type": "function"
    },
    {
      "inputs": [
        {
          "internalType": "bytes32",
          "name": "creditLineHash",
          "type": "bytes32"
        }
      ],
      "name": "calculateInterestAccrued",
      "outputs": [
        {
          "internalType": "uint256",
          "name": "",
          "type": "uint256"
        }
      ],
      "stateMutability": "view",
      "type": "function"
    },
    {
      "inputs": [
        {
          "internalType": "bytes32",
          "name": "creditLineHash",
          "type": "bytes32"
        }
      ],
      "name": "calculateTotalCollateralTokens",
      "outputs": [
        {
          "internalType": "uint256",
          "name": "amount",
          "type": "uint256"
        }
      ],
      "stateMutability": "nonpayable",
      "type": "function"
    },
    {
      "inputs": [
        {
          "internalType": "bytes32",
          "name": "creditLineHash",
          "type": "bytes32"
        }
      ],
      "name": "closeCreditLine",
      "outputs": [],
      "stateMutability": "nonpayable",
      "type": "function"
    },
    {
      "inputs": [
        {
          "internalType": "bytes32",
          "name": "",
          "type": "bytes32"
        }
      ],
      "name": "creditLineInfo",
      "outputs": [
        {
          "internalType": "bool",
          "name": "exists",
          "type": "bool"
        },
        {
          "internalType": "address",
          "name": "lender",
          "type": "address"
        },
        {
          "internalType": "address",
          "name": "borrower",
          "type": "address"
        },
        {
          "internalType": "uint256",
          "name": "borrowLimit",
          "type": "uint256"
        },
        {
          "internalType": "uint256",
          "name": "idealCollateralRatio",
          "type": "uint256"
        },
        {
          "internalType": "uint256",
          "name": "liquidationThreshold",
          "type": "uint256"
        },
        {
          "internalType": "uint256",
          "name": "borrowRate",
          "type": "uint256"
        },
        {
          "internalType": "address",
          "name": "borrowAsset",
          "type": "address"
        },
        {
          "internalType": "address",
          "name": "collateralAsset",
          "type": "address"
        },
        {
          "internalType": "enum CreditLineStorage.creditLineStatus",
          "name": "currentStatus",
          "type": "uint8"
        },
        {
          "internalType": "bool",
          "name": "autoLiquidation",
          "type": "bool"
        },
        {
          "internalType": "bool",
          "name": "requestByLender",
          "type": "bool"
        }
      ],
      "stateMutability": "view",
      "type": "function"
    },
    {
      "inputs": [
        {
          "internalType": "bytes32",
          "name": "",
          "type": "bytes32"
        }
      ],
      "name": "creditLineUsage",
      "outputs": [
        {
          "internalType": "uint256",
          "name": "principal",
          "type": "uint256"
        },
        {
          "internalType": "uint256",
          "name": "totalInterestRepaid",
          "type": "uint256"
        },
        {
          "internalType": "uint256",
          "name": "lastPrincipalUpdateTime",
          "type": "uint256"
        },
        {
          "internalType": "uint256",
          "name": "interestAccruedTillPrincipalUpdate",
          "type": "uint256"
        },
        {
          "internalType": "uint256",
          "name": "collateralAmount",
          "type": "uint256"
        }
      ],
      "stateMutability": "view",
      "type": "function"
    },
    {
      "inputs": [],
      "name": "defaultStrategy",
      "outputs": [
        {
          "internalType": "address",
          "name": "",
          "type": "address"
        }
      ],
      "stateMutability": "view",
      "type": "function"
    },
    {
      "inputs": [
        {
          "internalType": "address",
          "name": "_collateralAsset",
          "type": "address"
        },
        {
          "internalType": "uint256",
          "name": "_collateralAmount",
          "type": "uint256"
        },
        {
          "internalType": "bytes32",
          "name": "_creditLineHash",
          "type": "bytes32"
        },
        {
          "internalType": "bool",
          "name": "_fromSavingAccount",
          "type": "bool"
        }
      ],
      "name": "depositCollateral",
      "outputs": [],
      "stateMutability": "payable",
      "type": "function"
    },
    {
      "inputs": [
        {
          "internalType": "address",
          "name": "_defaultStrategy",
          "type": "address"
        },
        {
          "internalType": "address",
          "name": "_priceOracle",
          "type": "address"
        },
        {
          "internalType": "address",
          "name": "_savingsAccount",
          "type": "address"
        },
        {
          "internalType": "address",
          "name": "_strategyRegistry",
          "type": "address"
        },
        {
          "internalType": "address",
          "name": "_owner",
          "type": "address"
        },
        {
          "internalType": "uint256",
          "name": "_protocolFeeFraction",
          "type": "uint256"
        },
        {
          "internalType": "address",
          "name": "_protocolFeeCollector",
          "type": "address"
        }
      ],
      "name": "initialize",
      "outputs": [],
      "stateMutability": "nonpayable",
      "type": "function"
    },
    {
      "inputs": [
        {
          "internalType": "bytes32",
          "name": "creditLineHash",
          "type": "bytes32"
        }
      ],
      "name": "liquidation",
      "outputs": [],
      "stateMutability": "payable",
      "type": "function"
    },
    {
      "inputs": [],
      "name": "owner",
      "outputs": [
        {
          "internalType": "address",
          "name": "",
          "type": "address"
        }
      ],
      "stateMutability": "view",
      "type": "function"
    },
    {
      "inputs": [],
      "name": "priceOracle",
      "outputs": [
        {
          "internalType": "address",
          "name": "",
          "type": "address"
        }
      ],
      "stateMutability": "view",
      "type": "function"
    },
    {
      "inputs": [],
      "name": "protocolFeeCollector",
      "outputs": [
        {
          "internalType": "address",
          "name": "",
          "type": "address"
        }
      ],
      "stateMutability": "view",
      "type": "function"
    },
    {
      "inputs": [],
      "name": "protocolFeeFraction",
      "outputs": [
        {
          "internalType": "uint256",
          "name": "",
          "type": "uint256"
        }
      ],
      "stateMutability": "view",
      "type": "function"
    },
    {
      "inputs": [],
      "name": "renounceOwnership",
      "outputs": [],
      "stateMutability": "nonpayable",
      "type": "function"
    },
    {
      "inputs": [
        {
          "internalType": "uint256",
          "name": "repayAmount",
          "type": "uint256"
        },
        {
          "internalType": "bytes32",
          "name": "creditLineHash",
          "type": "bytes32"
        },
        {
          "internalType": "bool",
          "name": "_transferFromSavingAccount",
          "type": "bool"
        }
      ],
      "name": "repayCreditLine",
      "outputs": [],
      "stateMutability": "payable",
      "type": "function"
    },
    {
      "inputs": [
        {
          "internalType": "address",
          "name": "_borrower",
          "type": "address"
        },
        {
          "internalType": "uint256",
          "name": "_borrowLimit",
          "type": "uint256"
        },
        {
          "internalType": "uint256",
          "name": "_liquidationThreshold",
          "type": "uint256"
        },
        {
          "internalType": "uint256",
          "name": "_borrowRate",
          "type": "uint256"
        },
        {
          "internalType": "bool",
          "name": "_autoLiquidation",
          "type": "bool"
        },
        {
          "internalType": "uint256",
          "name": "_collateralRatio",
          "type": "uint256"
        },
        {
          "internalType": "address",
          "name": "_borrowAsset",
          "type": "address"
        },
        {
          "internalType": "address",
          "name": "_collateralAsset",
          "type": "address"
        }
      ],
      "name": "requestCreditLineToBorrower",
      "outputs": [
        {
          "internalType": "bytes32",
          "name": "",
          "type": "bytes32"
        }
      ],
      "stateMutability": "nonpayable",
      "type": "function"
    },
    {
      "inputs": [
        {
          "internalType": "address",
          "name": "_lender",
          "type": "address"
        },
        {
          "internalType": "uint256",
          "name": "_borrowLimit",
          "type": "uint256"
        },
        {
          "internalType": "uint256",
          "name": "_liquidationThreshold",
          "type": "uint256"
        },
        {
          "internalType": "uint256",
          "name": "_borrowRate",
          "type": "uint256"
        },
        {
          "internalType": "bool",
          "name": "_autoLiquidation",
          "type": "bool"
        },
        {
          "internalType": "uint256",
          "name": "_collateralRatio",
          "type": "uint256"
        },
        {
          "internalType": "address",
          "name": "_borrowAsset",
          "type": "address"
        },
        {
          "internalType": "address",
          "name": "_collateralAsset",
          "type": "address"
        }
      ],
      "name": "requestCreditLineToLender",
      "outputs": [
        {
          "internalType": "bytes32",
          "name": "",
          "type": "bytes32"
        }
      ],
      "stateMutability": "nonpayable",
      "type": "function"
    },
    {
      "inputs": [],
      "name": "savingsAccount",
      "outputs": [
        {
          "internalType": "address",
          "name": "",
          "type": "address"
        }
      ],
      "stateMutability": "view",
      "type": "function"
    },
    {
      "inputs": [],
      "name": "strategyRegistry",
      "outputs": [
        {
          "internalType": "address",
          "name": "",
          "type": "address"
        }
      ],
      "stateMutability": "view",
      "type": "function"
    },
    {
      "inputs": [
        {
          "internalType": "address",
          "name": "newOwner",
          "type": "address"
        }
      ],
      "name": "transferOwnership",
      "outputs": [],
      "stateMutability": "nonpayable",
      "type": "function"
    },
    {
      "inputs": [
        {
          "internalType": "address",
          "name": "_defaultStrategy",
          "type": "address"
        }
      ],
      "name": "updateDefaultStrategy",
      "outputs": [],
      "stateMutability": "nonpayable",
      "type": "function"
    },
    {
      "inputs": [
        {
          "internalType": "address",
          "name": "_priceOracle",
          "type": "address"
        }
      ],
      "name": "updatePriceOracle",
      "outputs": [],
      "stateMutability": "nonpayable",
      "type": "function"
    },
    {
      "inputs": [
        {
          "internalType": "address",
          "name": "_protocolFeeCollector",
          "type": "address"
        }
      ],
      "name": "updateProtocolFeeCollector",
      "outputs": [],
      "stateMutability": "nonpayable",
      "type": "function"
    },
    {
      "inputs": [
        {
          "internalType": "uint256",
          "name": "_protocolFee",
          "type": "uint256"
        }
      ],
      "name": "updateProtocolFeeFraction",
      "outputs": [],
      "stateMutability": "nonpayable",
      "type": "function"
    },
    {
      "inputs": [
        {
          "internalType": "address",
          "name": "_savingsAccount",
          "type": "address"
        }
      ],
      "name": "updateSavingsAccount",
      "outputs": [],
      "stateMutability": "nonpayable",
      "type": "function"
    },
    {
      "inputs": [
        {
          "internalType": "address",
          "name": "_strategyRegistry",
          "type": "address"
        }
      ],
      "name": "updateStrategyRegistry",
      "outputs": [],
      "stateMutability": "nonpayable",
      "type": "function"
    },
    {
      "inputs": [
        {
          "internalType": "bytes32",
          "name": "creditLineHash",
          "type": "bytes32"
        },
        {
          "internalType": "uint256",
          "name": "amount",
          "type": "uint256"
        }
      ],
      "name": "withdrawCollateralFromCreditLine",
      "outputs": [],
      "stateMutability": "nonpayable",
      "type": "function"
    },
    {
      "inputs": [],
      "name": "yearInSeconds",
      "outputs": [
        {
          "internalType": "uint256",
          "name": "",
          "type": "uint256"
        }
      ],
      "stateMutability": "view",
      "type": "function"
    },
    {
      "stateMutability": "payable",
      "type": "receive"
    }
  ],
  "bytecode": "0x608060405234801561001057600080fd5b506001606955615036806100256000396000f3fe6080604052600436106102125760003560e01c8063967ae0f511610118578063e428c46f116100a0578063eabcca101161006f578063eabcca101461083c578063ecced6231461089f578063ee0c743d146108b4578063f2fde38b14610918578063fac5bb9b1461094b57610262565b8063e428c46f146107a7578063e7f61b71146107d2578063e8b5cedc146107fc578063e8beada01461081f57610262565b8063ae974ff6116100e7578063ae974ff614610618578063c6c6fd2a146106da578063d080bf271461073e578063de9de06e14610753578063e410a8d41461077d57610262565b8063967ae0f514610545578063a164b4231461056f578063a1f0102b146105c4578063a98952a7146105ee57610262565b80634c1f2dc51161019b578063715018a61161016a578063715018a6146104ac578063850a1501146104c15780638ce9ae15146104d65780638da5cb5b1461050657806395ed30cb1461051b57610262565b80634c1f2dc5146103e0578063565b54ea1461041357806356f421d0146104465780636cf14f9d1461047957610262565b80632630c12f116101e25780632630c12f14610328578063280d21141461035957806339d1fc82146103835780633a0298eb146103b65780634059d596146103cb57610262565b8062d8075d1461026757806305e1bd8c146102a15780630fb40d83146102e957806313ef9c2e146102fe57610262565b3661026257606a546001600160a01b031633146102605760405162461bcd60e51b8152600401808060200182810382526027815260200180614bc56027913960400191505060405180910390fd5b005b600080fd5b6102606004803603608081101561027d57600080fd5b506001600160a01b0381351690602081013590604081013590606001351515610960565b3480156102ad57600080fd5b506102d7600480360360608110156102c457600080fd5b5080359060208101359060400135610aaf565b60408051918252519081900360200190f35b3480156102f557600080fd5b506102d7610aee565b34801561030a57600080fd5b506102606004803603602081101561032157600080fd5b5035610af4565b34801561033457600080fd5b5061033d610bee565b604080516001600160a01b039092168252519081900360200190f35b34801561036557600080fd5b506102d76004803603602081101561037c57600080fd5b5035610bfd565b34801561038f57600080fd5b50610260600480360360208110156103a657600080fd5b50356001600160a01b0316610d4c565b3480156103c257600080fd5b506102d7610dba565b3480156103d757600080fd5b506102d7610dc0565b3480156103ec57600080fd5b506102606004803603602081101561040357600080fd5b50356001600160a01b0316610dc8565b34801561041f57600080fd5b506102606004803603602081101561043657600080fd5b50356001600160a01b0316610e33565b34801561045257600080fd5b506102606004803603602081101561046957600080fd5b50356001600160a01b0316610e9e565b34801561048557600080fd5b506102606004803603602081101561049c57600080fd5b50356001600160a01b0316610f09565b3480156104b857600080fd5b50610260610f74565b3480156104cd57600080fd5b5061033d611020565b3480156104e257600080fd5b50610260600480360360408110156104f957600080fd5b508035906020013561102f565b34801561051257600080fd5b5061033d61123a565b34801561052757600080fd5b506102606004803603602081101561053e57600080fd5b5035611249565b34801561055157600080fd5b506102d76004803603602081101561056857600080fd5b50356112b2565b34801561057b57600080fd5b506105996004803603602081101561059257600080fd5b503561151c565b6040805195865260208601949094528484019290925260608401526080830152519081900360a00190f35b3480156105d057600080fd5b50610260600480360360208110156105e757600080fd5b503561154b565b3480156105fa57600080fd5b506102d76004803603602081101561061157600080fd5b50356117a0565b34801561062457600080fd5b506106426004803603602081101561063b57600080fd5b50356117f6565b604051808d151581526020018c6001600160a01b031681526020018b6001600160a01b031681526020018a8152602001898152602001888152602001878152602001866001600160a01b03168152602001856001600160a01b031681526020018460058111156106ae57fe5b8152602001831515815260200182151581526020019c5050505050505050505050505060405180910390f35b3480156106e657600080fd5b506102d760048036036101008110156106fe57600080fd5b506001600160a01b038135811691602081013591604082013591606081013591608082013515159160a08101359160c082013581169160e001351661186d565b34801561074a57600080fd5b5061033d6119a4565b34801561075f57600080fd5b506102606004803603602081101561077657600080fd5b50356119b3565b34801561078957600080fd5b506102d7600480360360208110156107a057600080fd5b5035611a1e565b610260600480360360608110156107bd57600080fd5b50803590602081013590604001351515611a81565b3480156107de57600080fd5b506102d7600480360360208110156107f557600080fd5b5035611cbd565b6102606004803603604081101561081257600080fd5b5080359060200135611e96565b6102606004803603602081101561083557600080fd5b50356124bd565b34801561084857600080fd5b50610260600480360360e081101561085f57600080fd5b506001600160a01b038135811691602081013582169160408201358116916060810135821691608082013581169160a08101359160c090910135166127cd565b3480156108ab57600080fd5b5061033d6128bd565b3480156108c057600080fd5b506102d760048036036101008110156108d857600080fd5b506001600160a01b038135811691602081013591604082013591606081013591608082013515159160a08101359160c082013581169160e00135166128cc565b34801561092457600080fd5b506102606004803603602081101561093b57600080fd5b50356001600160a01b0316612a75565b34801561095757600080fd5b5061033d612b78565b600260695414156109a6576040805162461bcd60e51b815260206004820152601f6024820152600080516020614a86833981519152604482015290519081900360640190fd5b60026069558160008082815260686020526040902060070154600160a01b900460ff1660058111156109d457fe5b1415610a24576040805162461bcd60e51b815260206004820152601a60248201527910dc99591a5d081b1a5b9948191bd95cc81b9bdd08195e1a5cdd60321b604482015290519081900360640190fd5b6002600084815260686020526040902060070154600160a01b900460ff166005811115610a4d57fe5b14610a97576040805162461bcd60e51b81526020600482015260156024820152744372656469744c696e65206e6f742061637469766560581b604482015290519081900360640190fd5b610aa385858585612b87565b50506001606955505050565b600080610ae36301e13380610add6c0c9f2c9cd04674edea400000008187610ad78b8b612e1f565b90612e1f565b90612e81565b9150505b9392505050565b60655481565b600081815260686020526040902054819061010090046001600160a01b03163314610b505760405162461bcd60e51b8152600401808060200182810382526022815260200180614b0f6022913960400191505060405180910390fd5b610b5b826000612ee8565b606a5460008381526068602052604080822060068101548154600290920154835163b9d15aa960e01b81526001600160a01b0392831660048201526101009093048216602484015260448301529151919093169263b9d15aa992606480830193919282900301818387803b158015610bd257600080fd5b505af1158015610be6573d6000803e3d6000fd5b505050505050565b606b546001600160a01b031681565b60008181600082815260686020526040902060070154600160a01b900460ff166005811115610c2857fe5b1415610c78576040805162461bcd60e51b815260206004820152601a60248201527910dc99591a5d081b1a5b9948191bd95cc81b9bdd08195e1a5cdd60321b604482015290519081900360640190fd5b606b54600084815260686020526040808220600781015460069091015482516310603c1160e01b81526001600160a01b03928316600482015290821660248201528251939485949216926310603c1192604480840193829003018186803b158015610ce257600080fd5b505afa158015610cf6573d6000803e3d6000fd5b505050506040513d6040811015610d0c57600080fd5b50805160209091015190925090506000610d25866117a0565b90506000610d4183600a0a610add84610add88610ad78d6112b2565b979650505050505050565b610d5461300b565b6001600160a01b0316610d6561123a565b6001600160a01b031614610dae576040805162461bcd60e51b81526020600482018190526024820152600080516020614d01833981519152604482015290519081900360640190fd5b610db78161300f565b50565b606e5481565b6301e1338081565b610dd061300b565b6001600160a01b0316610de161123a565b6001600160a01b031614610e2a576040805162461bcd60e51b81526020600482018190526024820152600080516020614d01833981519152604482015290519081900360640190fd5b610db781613063565b610e3b61300b565b6001600160a01b0316610e4c61123a565b6001600160a01b031614610e95576040805162461bcd60e51b81526020600482018190526024820152600080516020614d01833981519152604482015290519081900360640190fd5b610db781613107565b610ea661300b565b6001600160a01b0316610eb761123a565b6001600160a01b031614610f00576040805162461bcd60e51b81526020600482018190526024820152600080516020614d01833981519152604482015290519081900360640190fd5b610db78161315b565b610f1161300b565b6001600160a01b0316610f2261123a565b6001600160a01b031614610f6b576040805162461bcd60e51b81526020600482018190526024820152600080516020614d01833981519152604482015290519081900360640190fd5b610db7816131af565b610f7c61300b565b6001600160a01b0316610f8d61123a565b6001600160a01b031614610fd6576040805162461bcd60e51b81526020600482018190526024820152600080516020614d01833981519152604482015290519081900360640190fd5b6033546040516000916001600160a01b0316907f8be0079c531659141344cd1fd0a4f28419497f9722a3daafe3b4186f6b6457e0908390a3603380546001600160a01b0319169055565b606f546001600160a01b031681565b60026069541415611075576040805162461bcd60e51b815260206004820152601f6024820152600080516020614a86833981519152604482015290519081900360640190fd5b600260695560008281526068602052604090206001015482906001600160a01b031633146110d45760405162461bcd60e51b8152600401808060200182810382526024815260200180614e616024913960400191505060405180910390fd5b606b54600084815260686020526040808220600781015460069091015482516310603c1160e01b81526001600160a01b03928316600482015290821660248201528251939485949216926310603c1192604480840193829003018186803b15801561113e57600080fd5b505afa158015611152573d6000803e3d6000fd5b505050506040513d604081101561116857600080fd5b50805160209091015190925090506000611181866112b2565b9050600061118e876117a0565b905080156112055760006111b0600a85900a610add848189610ad7898e613203565b6000898152606860205260409020600301549091508110156112035760405162461bcd60e51b8152600401808060200182810382526066815260200180614c126066913960800191505060405180910390fd5b505b6000878152606860205260409020600701546001600160a01b031661122b81888a613260565b50506001606955505050505050565b6033546001600160a01b031690565b60008181526068602052604090206001015481906001600160a01b031633146112a35760405162461bcd60e51b8152600401808060200182810382526024815260200180614e616024913960400191505060405180910390fd5b6112ae826001612ee8565b5050565b60008181526068602052604080822060070154606c54825163b49a60bb60e01b815292516001600160a01b03928316936060939092169163b49a60bb9160048083019288929190829003018186803b15801561130d57600080fd5b505afa158015611321573d6000803e3d6000fd5b505050506040513d6000823e601f3d908101601f19168201604052602081101561134a57600080fd5b8101908080516040519392919084600160201b82111561136957600080fd5b90830190602082018581111561137e57600080fd5b82518660208202830111600160201b8211171561139a57600080fd5b82525081516020918201928201910280838360005b838110156113c75781810151838201526020016113af565b505050509050016040525050509050600080600090505b82518110156115135760666000878152602001908152602001600020600084838151811061140857fe5b60200260200101516001600160a01b03166001600160a01b03168152602001908152602001600020549150600082905060006001600160a01b031684838151811061144f57fe5b60200260200101516001600160a01b0316146114fe5783828151811061147157fe5b60200260200101516001600160a01b03166359846d2984876040518363ffffffff1660e01b815260040180838152602001826001600160a01b0316815260200192505050602060405180830381600087803b1580156114cf57600080fd5b505af11580156114e3573d6000803e3d6000fd5b505050506040513d60208110156114f957600080fd5b505190505b61150886826136c7565b9550506001016113de565b50505050919050565b606760205260009081526040902080546001820154600283015460038401546004909401549293919290919085565b8060008082815260686020526040902060070154600160a01b900460ff16600581111561157457fe5b14156115c4576040805162461bcd60e51b815260206004820152601a60248201527910dc99591a5d081b1a5b9948191bd95cc81b9bdd08195e1a5cdd60321b604482015290519081900360640190fd5b6000828152606860205260409020600101546001600160a01b0316331480611607575060008281526068602052604090205461010090046001600160a01b031633145b6116425760405162461bcd60e51b815260040180806020018281038252603a815260200180614c78603a913960400191505060405180910390fd5b6002600083815260686020526040902060070154600160a01b900460ff16600581111561166b57fe5b146116a75760405162461bcd60e51b8152600401808060200182810382526029815260200180614d216029913960400191505060405180910390fd5b600082815260676020526040902054156116f25760405162461bcd60e51b815260040180806020018281038252602e815260200180614b5f602e913960400191505060405180910390fd5b600082815260676020526040902060030154156117405760405162461bcd60e51b815260040180806020018281038252602e815260200180614b5f602e913960400191505060405180910390fd5b600082815260686020526040902060070180546003919060ff60a01b1916600160a01b8302179055506040805183815290517f5b7fd56fe846ffce3e6c0b895b926e9e946f85bbf400897503c0f48c0408a9379181900360200190a15050565b6000806117ac83611a1e565b600084815260676020526040812060018101546003820154915493945091926117ec92916117e69186916117e091906136c7565b906136c7565b90613203565b925050505b919050565b6068602052600090815260409020805460018201546002830154600384015460048501546005860154600687015460079097015460ff808816986001600160a01b03610100909904891698978816979081169290811691600160a01b8204811691600160a81b8104821691600160b01b909104168c565b606b546040805163633defbd60e01b81526001600160a01b03858116600483015284811660248301529151600093929092169163633defbd91604480820192602092909190829003018186803b1580156118c657600080fd5b505afa1580156118da573d6000803e3d6000fd5b505050506040513d60208110156118f057600080fd5b5051611937576040805162461bcd60e51b815260206004820152601160248201527010d30e88139bc81c1c9a58d94819995959607a1b604482015290519081900360640190fd5b600061194c8a338b8b8b8b8b8b8b6000613721565b604080518281526001600160a01b038d166020820152338183015290519192507f4da89af7917cbc408e5f0a24a737e69491d0e7bf8f09a11245695f24729ff733919081900360600190a19998505050505050505050565b606c546001600160a01b031681565b6119bb61300b565b6001600160a01b03166119cc61123a565b6001600160a01b031614611a15576040805162461bcd60e51b81526020600482018190526024820152600080516020614d01833981519152604482015290519081900360640190fd5b610db781613885565b60008181526067602052604081206002015480611a3f5760009150506117f1565b6000611a4b4283613203565b60008581526067602090815260408083205460689092528220600501549293509091611a78919084610aaf565b95945050505050565b60026069541415611ac7576040805162461bcd60e51b815260206004820152601f6024820152600080516020614a86833981519152604482015290519081900360640190fd5b60026069819055600083815260686020526040902060070154600160a01b900460ff166005811115611af557fe5b14611b315760405162461bcd60e51b815260040180806020018281038252602e815260200180614b31602e913960400191505060405180910390fd5b6000611b3c83611a1e565b60008481526067602052604081206003015491925090611b5c90836136c7565b60008581526067602052604081205491925090611b7a9083906136c7565b9050600081871115611b8d575094508460015b600086815260676020526040812060010154611ba990896136c7565b905083811115611bf257600087815260676020526040902054611bd29082906117e690876136c7565b600088815260676020526040902090815560038101859055426002909101555b6000878152606760205260409020600101819055611c1187878a6138c0565b600087815260676020526040902054611c2d57611c2d87613bb4565b8115611c735760408051888152602081018a905281517fd661508da6b44131ec30d46a97b00a6e7d8c3d9ec2abd6456fa28372d29624d8929181900390910190a161122b565b60408051888152602081018a905281517fe7966c9f6f7b304f7aad430c31cd465eea204ee7bae9e10019e6c8e425d9bf25929181900390910190a150506001606955505050505050565b60006002600083815260686020526040902060070154600160a01b900460ff166005811115611ce857fe5b1480611d1a57506001600083815260686020526040902060070154600160a01b900460ff166005811115611d1857fe5b145b611d555760405162461bcd60e51b815260040180806020018281038252603a815260200180614f3f603a913960400191505060405180910390fd5b606b54600083815260686020526040808220600781015460069091015482516310603c1160e01b81526001600160a01b03928316600482015290821660248201528251939485949216926310603c1192604480840193829003018186803b158015611dbf57600080fd5b505afa158015611dd3573d6000803e3d6000fd5b505050506040513d6040811015611de957600080fd5b50805160209091015190925090506000611e02856112b2565b90506000611e0f866117a0565b60008781526068602052604081206003015491925090611e3b90600a86900a90610add9081878a612e1f565b600088815260686020526040902060020154909150811115611e6b57506000868152606860205260409020600201545b81811115611e8957611e7d8183613203565b955050505050506117f1565b5060009695505050505050565b60026069541415611edc576040805162461bcd60e51b815260206004820152601f6024820152600080516020614a86833981519152604482015290519081900360640190fd5b600260695560008181526068602052604090206001015481906001600160a01b03163314611f3b5760405162461bcd60e51b8152600401808060200182810382526024815260200180614e616024913960400191505060405180910390fd5b6002600083815260686020526040902060070154600160a01b900460ff166005811115611f6457fe5b14611fa05760405162461bcd60e51b815260040180806020018281038252602e815260200180614b31602e913960400191505060405180910390fd5b6000611fab836117a0565b600084815260686020526040902060020154909150611fca82866136c7565b11156120075760405162461bcd60e51b8152600401808060200182810382526028815260200180614d4a6028913960400191505060405180910390fd5b606b54600084815260686020526040808220600781015460069091015482516310603c1160e01b81526001600160a01b03928316600482015290821660248201528251939485949216926310603c1192604480840193829003018186803b15801561207157600080fd5b505afa158015612085573d6000803e3d6000fd5b505050506040513d604081101561209b57600080fd5b508051602090910151909250905060006120b4866112b2565b905060006120d76120cd600a85900a610ad7888c6136c7565b610add8685612e1f565b60008881526068602052604090206003015490915081116121295760405162461bcd60e51b8152600401808060200182810382526064815260200180614edb6064913960800191505060405180910390fd5b6000878152606860205260409020600681015490546001600160a01b03918216916101009091041661215a89613c0e565b600089815260676020526040902054612173908b6136c7565b60008a8152606760205260408120918255426002909201919091556001600160a01b038316156122b5576000836001600160a01b03166370a08231306040518263ffffffff1660e01b815260040180826001600160a01b0316815260200191505060206040518083038186803b1580156121ec57600080fd5b505afa158015612200573d6000803e3d6000fd5b505050506040513d602081101561221657600080fd5b50519050612225848d85613cb8565b6000846001600160a01b03166370a08231306040518263ffffffff1660e01b815260040180826001600160a01b0316815260200191505060206040518083038186803b15801561227457600080fd5b505afa158015612288573d6000803e3d6000fd5b505050506040513d602081101561229e57600080fd5b505190506122ac8183613203565b925050506122d1565b476122c1848d85613cb8565b476122cc8183613203565b925050505b60006122f96c0c9f2c9cd04674edea40000000610add606e5485612e1f90919063ffffffff16565b90506123058282613203565b91506001600160a01b03841661244157606f546040516000916001600160a01b03169083908381818185875af1925050503d8060008114612362576040519150601f19603f3d011682016040523d82523d6000602084013e612367565b606091505b50509050806123ad576040805162461bcd60e51b815260206004820152600d60248201526c151c985b9cd9995c8819985a5b609a1b604482015290519081900360640190fd5b604051600090339085908381818185875af1925050503d80600081146123ef576040519150601f19603f3d011682016040523d82523d6000602084013e6123f4565b606091505b505090508061243a576040805162461bcd60e51b815260206004820152600d60248201526c151c985b9cd9995c8819985a5b609a1b604482015290519081900360640190fd5b505061246f565b606f5461245b906001600160a01b038681169116836140c9565b61246f6001600160a01b03851633846140c9565b60408051838152602081018d905281517f42eaeb6b664725e88edc8bd224f268cc0818b1cfbdecf564fe24cec42e757b44929181900390910190a15050600160695550505050505050505050565b60026069541415612503576040805162461bcd60e51b815260206004820152601f6024820152600080516020614a86833981519152604482015290519081900360640190fd5b60026069819055600082815260686020526040902060070154600160a01b900460ff16600581111561253157fe5b1461256d5760405162461bcd60e51b8152600401808060200182810382526029815260200180614d216029913960400191505060405180910390fd5b600061257882610bfd565b60008381526068602052604090206004015490915081106125ca5760405162461bcd60e51b8152600401808060200182810382526041815260200180614db26041913960600191505060405180910390fd5b6000828152606860205260408120600781015490546001600160a01b0391821692610100909104909116906125fe856112b2565b600086815260686020526040902060068101546007909101805460ff60a01b1916600560a01b17908190559192506001600160a01b031690600160a81b900460ff1615612733576001600160a01b038316331415612667576126628483303361411b565b61272e565b606b54604080516310603c1160e01b81526001600160a01b0384811660048301528781166024830152825160009485949216926310603c11926044808301939192829003018186803b1580156126bc57600080fd5b505afa1580156126d0573d6000803e3d6000fd5b505050506040513d60408110156126e657600080fd5b50805160209091015190925090506000612708600a83900a610add8786612e1f565b905061271f6001600160a01b038516338884614512565b61272a87868b613260565b5050505b612786565b336001600160a01b0384161461277a5760405162461bcd60e51b8152600401808060200182810382526038815260200180614b8d6038913960400191505060405180910390fd5b6127868483303361411b565b6040805187815233602082015281517f0e044b81978bd74936009a77734e944061e89d03fa6b15a71a3b864bab4047f5929181900390910190a15050600160695550505050565b600054610100900460ff16806127e657506127e661456c565b806127f4575060005460ff16155b61282f5760405162461bcd60e51b815260040180806020018281038252602e815260200180614cb2602e913960400191505060405180910390fd5b600054610100900460ff1615801561285a576000805460ff1961ff0019909116610100171660011790555b61286261457d565b61286b84612a75565b6128748861315b565b61287d8761300f565b612886866131af565b61288f85613063565b61289883613885565b6128a182613107565b80156128b3576000805461ff00191690555b5050505050505050565b606a546001600160a01b031681565b606b546040805163633defbd60e01b81526001600160a01b03858116600483015284811660248301529151600093929092169163633defbd91604480820192602092909190829003018186803b15801561292557600080fd5b505afa158015612939573d6000803e3d6000fd5b505050506040513d602081101561294f57600080fd5b5051612996576040805162461bcd60e51b815260206004820152601160248201527010d30e88139bc81c1c9a58d94819995959607a1b604482015290519081900360640190fd5b60006129ab338b8b8b8b8b8b8b8b6001613721565b606a546040805163b9d15aa960e01b81526001600160a01b038881166004830152336024830152604482018e9052915193945091169163b9d15aa99160648082019260009290919082900301818387803b158015612a0857600080fd5b505af1158015612a1c573d6000803e3d6000fd5b5050604080518481523360208201526001600160a01b038e168183015290517f59d513e7efd4dd31544855938bf1602ae4ef19b5b6b5499a7dd0d0bf1770bbde9350908190036060019150a19998505050505050505050565b612a7d61300b565b6001600160a01b0316612a8e61123a565b6001600160a01b031614612ad7576040805162461bcd60e51b81526020600482018190526024820152600080516020614d01833981519152604482015290519081900360640190fd5b6001600160a01b038116612b1c5760405162461bcd60e51b8152600401808060200182810382526026815260200180614ae96026913960400191505060405180910390fd5b6033546040516001600160a01b038084169216907f8be0079c531659141344cd1fd0a4f28419497f9722a3daafe3b4186f6b6457e090600090a3603380546001600160a01b0319166001600160a01b0392909216919091179055565b606d546001600160a01b031681565b8015612b9e57612b998484333061411b565b612e19565b606d54606a546001600160a01b0391821691908116908616612bfd57843414612bf85760405162461bcd60e51b815260040180806020018281038252604c815260200180614f79604c913960600191505060405180910390fd5b612d2d565b612c126001600160a01b038716333088614512565b6001600160a01b038216612ca957856001600160a01b031663095ea7b382876040518363ffffffff1660e01b815260040180836001600160a01b0316815260200182815260200192505050602060405180830381600087803b158015612c7757600080fd5b505af1158015612c8b573d6000803e3d6000fd5b505050506040513d6020811015612ca157600080fd5b50612d2d9050565b856001600160a01b031663095ea7b383876040518363ffffffff1660e01b815260040180836001600160a01b0316815260200182815260200192505050602060405180830381600087803b158015612d0057600080fd5b505af1158015612d14573d6000803e3d6000fd5b505050506040513d6020811015612d2a57600080fd5b50505b6040805162a3da2560e61b8152600481018790526001600160a01b038881166024830152848116604483015230606483015291516000928416916328f6894091349160848082019260209290919082900301818588803b158015612d9057600080fd5b505af1158015612da4573d6000803e3d6000fd5b50505050506040513d6020811015612dbb57600080fd5b505160008681526066602090815260408083206001600160a01b0388168452909152902054909150612ded90826136c7565b60008681526066602090815260408083206001600160a01b039097168352959052939093209290925550505b50505050565b600082612e2e57506000612e7b565b82820282848281612e3b57fe5b0414612e785760405162461bcd60e51b8152600401808060200182810382526021815260200180614ce06021913960400191505060405180910390fd5b90505b92915050565b6000808211612ed7576040805162461bcd60e51b815260206004820152601a60248201527f536166654d6174683a206469766973696f6e206279207a65726f000000000000604482015290519081900360640190fd5b818381612ee057fe5b049392505050565b6001600083815260686020526040902060070154600160a01b900460ff166005811115612f1157fe5b14612f4d5760405162461bcd60e51b8152600401808060200182810382526043815260200180614aa66043913960600191505060405180910390fd5b60008281526068602052604090206007015460ff600160b01b90910416151581151514612fab5760405162461bcd60e51b8152600401808060200182810382526034815260200180614df36034913960400191505060405180910390fd5b600082815260686020526040902060070180546002919060ff60a01b1916600160a01b8302179055506040805183815290517f94a4d7286368682acd8115aead8b6a1e6e206702c1245cb7df7dba279d88b39f9181900360200190a15050565b3390565b606b80546001600160a01b0383166001600160a01b0319909116811790915560408051918252517fefe8ab924ca486283a79dc604baa67add51afb82af1db8ac386ebbba643cdffd9181900360200190a150565b6001600160a01b0381166130b3576040805162461bcd60e51b8152602060048201526012602482015271434c3a3a49207a65726f206164647265737360701b604482015290519081900360640190fd5b606c80546001600160a01b0383166001600160a01b0319909116811790915560408051918252517f0ae0dc70cd51233fb6650002520dcd7be97d65702ded4fbd4fc90777326935889181900360200190a150565b606f80546001600160a01b0383166001600160a01b0319909116811790915560408051918252517f33837f672315b6cffcf11894714abfdec631a913c18d7738fcaf40c444376fb69181900360200190a150565b606d80546001600160a01b0383166001600160a01b0319909116811790915560408051918252517f45a9e715f8779ebeab88d3e8d081fb8b484b7730857e7c4478a95a5b1d8f79489181900360200190a150565b606a80546001600160a01b0383166001600160a01b0319909116811790915560408051918252517f5e8a3d56d9512a62f643367551a65727148c2516dce6b54956df80926dd2536c9181900360200190a150565b60008282111561325a576040805162461bcd60e51b815260206004820152601e60248201527f536166654d6174683a207375627472616374696f6e206f766572666c6f770000604482015290519081900360640190fd5b50900390565b606c546040805163b49a60bb60e01b815290516060926001600160a01b03169163b49a60bb916004808301926000929190829003018186803b1580156132a557600080fd5b505afa1580156132b9573d6000803e3d6000fd5b505050506040513d6000823e601f3d908101601f1916820160405260208110156132e257600080fd5b8101908080516040519392919084600160201b82111561330157600080fd5b90830190602082018581111561331657600080fd5b82518660208202830111600160201b8211171561333257600080fd5b82525081516020918201928201910280838360005b8381101561335f578181015183820152602001613347565b505050509050016040525050509050600080600090505b82518110156136745760008481526066602052604081208451829086908590811061339d57fe5b60200260200101516001600160a01b03166001600160a01b0316815260200190815260200160002054905080600014156133d7575061366c565b835181906000908690859081106133ea57fe5b60200260200101516001600160a01b0316146134995784838151811061340c57fe5b60200260200101516001600160a01b03166359846d29838a6040518363ffffffff1660e01b815260040180838152602001826001600160a01b0316815260200192505050602060405180830381600087803b15801561346a57600080fd5b505af115801561347e573d6000803e3d6000fd5b505050506040513d602081101561349457600080fd5b505190505b80876134a586836136c7565b11156134c8576134b58886613203565b90506134c582610add8584612e1f565b92505b6134d285826136c7565b945061353083606660008a815260200190815260200160002060008988815181106134f957fe5b60200260200101516001600160a01b03166001600160a01b031681526020019081526020016000205461320390919063ffffffff16565b60666000898152602001908152602001600020600088878151811061355157fe5b60200260200101516001600160a01b03166001600160a01b0316815260200190815260200160002081905550606a60009054906101000a90046001600160a01b03166001600160a01b03166396885ed333838c8a89815181106135b057fe5b602002602001015160006040518663ffffffff1660e01b815260040180866001600160a01b03168152602001858152602001846001600160a01b03168152602001836001600160a01b03168152602001821515815260200195505050505050602060405180830381600087803b15801561362957600080fd5b505af115801561363d573d6000803e3d6000fd5b505050506040513d602081101561365357600080fd5b505084881415613668575050505050506136c2565b5050505b600101613376565b506040805162461bcd60e51b815260206004820152601760248201527f696e73756666696369656e7420636f6c6c61746572616c000000000000000000604482015290519081900360640190fd5b505050565b600082820183811015612e78576040805162461bcd60e51b815260206004820152601b60248201527f536166654d6174683a206164646974696f6e206f766572666c6f770000000000604482015290519081900360640190fd5b6000896001600160a01b03168b6001600160a01b031614156137745760405162461bcd60e51b815260040180806020018281038252602c815260200180614e85602c913960400191505060405180910390fd5b60658054600190810191829055604080516020808201949094528151808203850181529082018252805190840120600081815260689094529220600701805460ff60a01b1916600160a01b83021790555060008181526068602052604090206001810180546001600160a01b03808f166001600160a01b03199283161790925582548f831661010002610100600160a81b0319909116178355600283018d9055600783018054600385018b9055600485018e9055600585018d9055600690940180548a8516908416179055861515600160b01b0260ff60b01b199389168c1515600160a81b0260ff60a81b1990961695909517909216939093179190911617905590509a9950505050505050505050565b606e8190556040805182815290517fcfd641dab5b2592643d4b878bf2b771142aff4595263753dc7611f947749999d9181900360200190a150565b600083815260686020526040902060068101549054606a54606d546001600160a01b0393841693610100909304831692918216911685613aff576001600160a01b038416613a6b57843410156139475760405162461bcd60e51b8152600401808060200182810382526040815260200180614d726040913960400191505060405180910390fd5b6000336139543488613203565b604051600081818185875af1925050503d8060008114613990576040519150601f19603f3d011682016040523d82523d6000602084013e613995565b606091505b50509050806139d55760405162461bcd60e51b815260040180806020018281038252603a815260200180614e27603a913960400191505060405180910390fd5b6040805162a3da2560e61b8152600481018890526001600160a01b038781166024830152848116604483015286811660648301529151918516916328f68940918991608480830192602092919082900301818588803b158015613a3757600080fd5b505af1158015613a4b573d6000803e3d6000fd5b50505050506040513d6020811015613a6257600080fd5b50613afa915050565b6040805162a3da2560e61b8152600481018790526001600160a01b038681166024830152838116604483015285811660648301529151918416916328f68940916084808201926020929091908290030181600087803b158015613acd57600080fd5b505af1158015613ae1573d6000803e3d6000fd5b505050506040513d6020811015613af757600080fd5b50505b613b2b565b600087815260686020526040902054613b2b9085908790339061010090046001600160a01b031661411b565b816001600160a01b031663b9d15aa98585886040518463ffffffff1660e01b815260040180846001600160a01b03168152602001836001600160a01b031681526020018281526020019350505050600060405180830381600087803b158015613b9357600080fd5b505af1158015613ba7573d6000803e3d6000fd5b5050505050505050505050565b6000818152606760209081526040808320600281018490556001810184905560030192909255815183815291517f0ea9e9f50832fd88162eaf81147589c1ce63c83a78b22975fe71b0365a7496089281900390910190a150565b6002600082815260686020526040902060070154600160a01b900460ff166005811115613c3757fe5b14613c735760405162461bcd60e51b815260040180806020018281038252602e815260200180614b31602e913960400191505060405180910390fd5b6000613c7e82611a1e565b60008381526067602052604081206003015491925090613c9e90836136c7565b600093845260676020526040909320600301929092555050565b606c546040805163b49a60bb60e01b815290516060926001600160a01b03169163b49a60bb916004808301926000929190829003018186803b158015613cfd57600080fd5b505afa158015613d11573d6000803e3d6000fd5b505050506040513d6000823e601f3d908101601f191682016040526020811015613d3a57600080fd5b8101908080516040519392919084600160201b821115613d5957600080fd5b908301906020820185811115613d6e57600080fd5b82518660208202830111600160201b82111715613d8a57600080fd5b82525081516020918201928201910280838360005b83811015613db7578181015183820152602001613d9f565b50505050919091016040525050606a54929350506001600160a01b0390911690506000805b835181101561407d576000836001600160a01b0316633281ac78878a888681518110613e0457fe5b60200260200101516040518463ffffffff1660e01b815260040180846001600160a01b03168152602001836001600160a01b03168152602001826001600160a01b03168152602001935050505060206040518083038186803b158015613e6957600080fd5b505afa158015613e7d573d6000803e3d6000fd5b505050506040513d6020811015613e9357600080fd5b5051905080156140745784518190600090879085908110613eb057fe5b60200260200101516001600160a01b031614613f5f57858381518110613ed257fe5b60200260200101516001600160a01b03166359846d29838b6040518363ffffffff1660e01b815260040180838152602001826001600160a01b0316815260200192505050602060405180830381600087803b158015613f3057600080fd5b505af1158015613f44573d6000803e3d6000fd5b505050506040513d6020811015613f5a57600080fd5b505190505b8088613f6b86836136c7565b10613f7d57613f7a8986613203565b90505b613f8785826136c7565b9450856001600160a01b0316632f2eaca48930848e8c8a81518110613fa857fe5b602002602001015160006040518763ffffffff1660e01b815260040180876001600160a01b03168152602001866001600160a01b03168152602001858152602001846001600160a01b03168152602001836001600160a01b0316815260200182151581526020019650505050505050602060405180830381600087803b15801561403157600080fd5b505af1158015614045573d6000803e3d6000fd5b505050506040513d602081101561405b57600080fd5b50508489141561407157505050505050506136c2565b50505b50600101613ddc565b50848114610be6576040805162461bcd60e51b8152602060048201526014602482015273696e73756666696369656e742062616c616e636560601b604482015290519081900360640190fd5b604080516001600160a01b038416602482015260448082018490528251808303909101815260649091019091526020810180516001600160e01b031663a9059cbb60e01b1790526136c290849061462e565b606c546040805163b49a60bb60e01b815290516060926001600160a01b03169163b49a60bb916004808301926000929190829003018186803b15801561416057600080fd5b505afa158015614174573d6000803e3d6000fd5b505050506040513d6000823e601f3d908101601f19168201604052602081101561419d57600080fd5b8101908080516040519392919084600160201b8211156141bc57600080fd5b9083019060208201858111156141d157600080fd5b82518660208202830111600160201b821117156141ed57600080fd5b82525081516020918201928201910280838360005b8381101561421a578181015183820152602001614202565b50505050919091016040525050606a54929350506001600160a01b0390911690506000805b83518110156144da576000836001600160a01b0316633281ac78888b88868151811061426757fe5b60200260200101516040518463ffffffff1660e01b815260040180846001600160a01b03168152602001836001600160a01b03168152602001826001600160a01b03168152602001935050505060206040518083038186803b1580156142cc57600080fd5b505afa1580156142e0573d6000803e3d6000fd5b505050506040513d60208110156142f657600080fd5b505190508061430557506144d2565b8451819060009087908590811061431857fe5b60200260200101516001600160a01b0316146143c75785838151811061433a57fe5b60200260200101516001600160a01b03166359846d29838c6040518363ffffffff1660e01b815260040180838152602001826001600160a01b0316815260200192505050602060405180830381600087803b15801561439857600080fd5b505af11580156143ac573d6000803e3d6000fd5b505050506040513d60208110156143c257600080fd5b505190505b80896143d386836136c7565b106143e5576143e28a86613203565b90505b6143ef85826136c7565b9450856001600160a01b0316636e275bd28c8b8b8b898151811061440f57fe5b6020026020010151866040518663ffffffff1660e01b815260040180866001600160a01b03168152602001856001600160a01b03168152602001846001600160a01b03168152602001836001600160a01b0316815260200182815260200195505050505050602060405180830381600087803b15801561448e57600080fd5b505af11580156144a2573d6000803e3d6000fd5b505050506040513d60208110156144b857600080fd5b5050898514156144ce5750505050505050612e19565b5050505b60010161423f565b5060405162461bcd60e51b815260040180806020018281038252603c815260200180614fc5603c913960400191505060405180910390fd5b604080516001600160a01b0380861660248301528416604482015260648082018490528251808303909101815260849091019091526020810180516001600160e01b03166323b872dd60e01b179052612e1990859061462e565b6000614577306146df565b15905090565b600054610100900460ff1680614596575061459661456c565b806145a4575060005460ff16155b6145df5760405162461bcd60e51b815260040180806020018281038252602e815260200180614cb2602e913960400191505060405180910390fd5b600054610100900460ff1615801561460a576000805460ff1961ff0019909116610100171660011790555b6146126146e5565b61461a614785565b8015610db7576000805461ff001916905550565b6060614683826040518060400160405280602081526020017f5361666545524332303a206c6f772d6c6576656c2063616c6c206661696c6564815250856001600160a01b031661487e9092919063ffffffff16565b8051909150156136c2578080602001905160208110156146a257600080fd5b50516136c25760405162461bcd60e51b815260040180806020018281038252602a815260200180614eb1602a913960400191505060405180910390fd5b3b151590565b600054610100900460ff16806146fe57506146fe61456c565b8061470c575060005460ff16155b6147475760405162461bcd60e51b815260040180806020018281038252602e815260200180614cb2602e913960400191505060405180910390fd5b600054610100900460ff1615801561461a576000805460ff1961ff0019909116610100171660011790558015610db7576000805461ff001916905550565b600054610100900460ff168061479e575061479e61456c565b806147ac575060005460ff16155b6147e75760405162461bcd60e51b815260040180806020018281038252602e815260200180614cb2602e913960400191505060405180910390fd5b600054610100900460ff16158015614812576000805460ff1961ff0019909116610100171660011790555b600061481c61300b565b603380546001600160a01b0319166001600160a01b038316908117909155604051919250906000907f8be0079c531659141344cd1fd0a4f28419497f9722a3daafe3b4186f6b6457e0908290a3508015610db7576000805461ff001916905550565b606061488d8484600085614895565b949350505050565b6060824710156148d65760405162461bcd60e51b8152600401808060200182810382526026815260200180614bec6026913960400191505060405180910390fd5b6148df856146df565b614930576040805162461bcd60e51b815260206004820152601d60248201527f416464726573733a2063616c6c20746f206e6f6e2d636f6e7472616374000000604482015290519081900360640190fd5b60006060866001600160a01b031685876040518082805190602001908083835b6020831061496f5780518252601f199092019160209182019101614950565b6001836020036101000a03801982511681845116808217855250505050505090500191505060006040518083038185875af1925050503d80600081146149d1576040519150601f19603f3d011682016040523d82523d6000602084013e6149d6565b606091505b5091509150610d41828286606083156149f0575081610ae7565b825115614a005782518084602001fd5b8160405162461bcd60e51b81526004018080602001828103825283818151815260200191508051906020019080838360005b83811015614a4a578181015183820152602001614a32565b50505050905090810190601f168015614a775780820380516001836020036101000a031916815260200191505b509250505060405180910390fdfe5265656e7472616e637947756172643a207265656e7472616e742063616c6c004372656469744c696e653a3a6163636570744372656469744c696e654c656e646572202d204372656469744c696e6520697320616c72656164792061636365707465644f776e61626c653a206e6577206f776e657220697320746865207a65726f20616464726573734f6e6c7920637265646974206c696e65204c656e6465722063616e206163636573734372656469744c696e653a2054686520637265646974206c696e65206973206e6f7420796574206163746976652e4372656469744c696e653a2043616e6e6f7420626520636c6f7365642073696e6365206e6f74207265706169642e4372656469744c696e653a204c69717569646174696f6e2063616e206f6e6c7920626520706572666f726d6564206279206c656e6465722e4372656469744c696e653a3a7265636569766520696e76616c6964207472616e73616374696f6e416464726573733a20696e73756666696369656e742062616c616e636520666f722063616c6c4372656469744c696e653a3a7769746864726177436f6c6c61746572616c46726f6d4372656469744c696e65202d205468652063757272656e7420636f6c6c61746572616c20726174696f6e20646f65736e277420616c6c6f7720746f2077697468647261774372656469744c696e653a205065726d697373696f6e2064656e696564207768696c6520636c6f73696e67204c696e65206f6620637265646974496e697469616c697a61626c653a20636f6e747261637420697320616c726561647920696e697469616c697a6564536166654d6174683a206d756c7469706c69636174696f6e206f766572666c6f774f776e61626c653a2063616c6c6572206973206e6f7420746865206f776e65724372656469744c696e653a20437265646974206c696e652073686f756c64206265206163746976652e4372656469744c696e653a20416d6f756e74206578636565647320626f72726f77206c696d69742e6372656469744c696e653a3a7265706179202d2076616c75652073686f756c64206265206571206f72206d6f7265207468616e20726570617920616d6f756e744372656469744c696e653a20436f6c6c61746572616c20726174696f20697320686967686572207468616e206c69717569646174696f6e207468726573686f6c644372656469744c696e653a3a6163636570744372656469744c696e654c656e646572202d20496e76616c696420726571756573746372656469744c696e653a3a7265706179202d2072656d61696e69672076616c7565207472616e736665726564207375636365737366756c6c794f6e6c7920637265646974206c696e6520426f72726f7765722063616e206163636573734c656e64657220616e6420426f72726f7765722063616e6e6f742062652073616d65206164647265737365735361666545524332303a204552433230206f7065726174696f6e20646964206e6f7420737563636565644372656469744c696e653a3a626f72726f7746726f6d4372656469744c696e65202d205468652063757272656e7420636f6c6c61746572616c20726174696f20646f65736e277420616c6c6f7720746f2077697468647261772074686520616d6f756e744372656469744c696e653a2043616e6e6f74206f6e6c7920696620637265646974206c696e6520414354495645206f72205245515545535445444372656469744c696e65203a3a626f72726f7746726f6d4372656469744c696e65202d2076616c756520746f207472616e7366657220646f65736e2774206d6174636820617267756d656e744372656469744c696e653a3a7472616e7366657246726f6d536176696e674163636f756e74202d20496e73756666696369656e742062616c616e6365a264697066735822122034b7a9e9c9356e6c34ed439ac264b3b6bc65eaf400919f1912fa28c9fbf889d664736f6c63430007000033",
  "linkReferences": {},
  "deployedLinkReferences": {}
}