{
  "_format": "hh-sol-artifact-1",
  "contractName": "Extension",
  "sourceName": "contracts/Pool/Extension.sol",
  "abi": [
    {
      "anonymous": false,
      "inputs": [
        {
          "indexed": false,
          "internalType": "uint256",
          "name": "loanInterval",
          "type": "uint256"
        }
      ],
      "name": "ExtensionPassed",
      "type": "event"
    },
    {
      "anonymous": false,
      "inputs": [
        {
          "indexed": false,
          "internalType": "uint256",
          "name": "extensionVoteEndTime",
          "type": "uint256"
        }
      ],
      "name": "ExtensionRequested",
      "type": "event"
    },
    {
      "anonymous": false,
      "inputs": [
        {
          "indexed": false,
          "internalType": "address",
          "name": "lender",
          "type": "address"
        },
        {
          "indexed": false,
          "internalType": "uint256",
          "name": "totalExtensionSupport",
          "type": "uint256"
        },
        {
          "indexed": false,
          "internalType": "uint256",
          "name": "lastVoteTime",
          "type": "uint256"
        }
      ],
      "name": "LenderVoted",
      "type": "event"
    },
    {
      "anonymous": false,
      "inputs": [
        {
          "indexed": false,
          "internalType": "address",
          "name": "poolFactory",
          "type": "address"
        }
      ],
      "name": "PoolFactoryUpdated",
      "type": "event"
    },
    {
      "anonymous": false,
      "inputs": [
        {
          "indexed": false,
          "internalType": "uint256",
          "name": "votingPassRatio",
          "type": "uint256"
        }
      ],
      "name": "VotingPassRatioUpdated",
      "type": "event"
    },
    {
      "inputs": [],
      "name": "closePoolExtension",
      "outputs": [],
      "stateMutability": "nonpayable",
      "type": "function"
    },
    {
      "inputs": [
        {
          "internalType": "address",
          "name": "_poolFactory",
          "type": "address"
        },
        {
          "internalType": "uint256",
          "name": "_votingPassRatio",
          "type": "uint256"
        }
      ],
      "name": "initialize",
      "outputs": [],
      "stateMutability": "nonpayable",
      "type": "function"
    },
    {
      "inputs": [
        {
          "internalType": "uint256",
          "name": "_repaymentInterval",
          "type": "uint256"
        }
      ],
      "name": "initializePoolExtension",
      "outputs": [],
      "stateMutability": "nonpayable",
      "type": "function"
    },
    {
      "inputs": [
        {
          "internalType": "address",
          "name": "",
          "type": "address"
        }
      ],
      "name": "poolInfo",
      "outputs": [
        {
          "internalType": "uint256",
          "name": "periodWhenExtensionIsPassed",
          "type": "uint256"
        },
        {
          "internalType": "uint256",
          "name": "totalExtensionSupport",
          "type": "uint256"
        },
        {
          "internalType": "uint256",
          "name": "extensionVoteEndTime",
          "type": "uint256"
        },
        {
          "internalType": "uint256",
          "name": "repaymentInterval",
          "type": "uint256"
        }
      ],
      "stateMutability": "view",
      "type": "function"
    },
    {
      "inputs": [
        {
          "internalType": "address",
          "name": "_pool",
          "type": "address"
        }
      ],
      "name": "requestExtension",
      "outputs": [],
      "stateMutability": "nonpayable",
      "type": "function"
    },
    {
      "inputs": [
        {
          "internalType": "address",
          "name": "_poolFactory",
          "type": "address"
        }
      ],
      "name": "updatePoolFactory",
      "outputs": [],
      "stateMutability": "nonpayable",
      "type": "function"
    },
    {
      "inputs": [
        {
          "internalType": "uint256",
          "name": "_votingPassRatio",
          "type": "uint256"
        }
      ],
      "name": "updateVotingPassRatio",
      "outputs": [],
      "stateMutability": "nonpayable",
      "type": "function"
    },
    {
      "inputs": [
        {
          "internalType": "address",
          "name": "_pool",
          "type": "address"
        }
      ],
      "name": "voteOnExtension",
      "outputs": [],
      "stateMutability": "nonpayable",
      "type": "function"
    }
  ],
  "bytecode": "0x608060405234801561001057600080fd5b50611126806100206000396000f3fe608060405234801561001057600080fd5b50600436106100885760003560e01c80638afed92a1161005b5780638afed92a146101005780639a7b5f1114610126578063b5a70cea14610172578063cd6dc6871461018f57610088565b80630347e8041461008d57806345f8f010146100ac57806347cb7c6c146100d257806380d59c85146100da575b600080fd5b6100aa600480360360208110156100a357600080fd5b50356101bb565b005b6100aa600480360360208110156100c257600080fd5b50356001600160a01b0316610289565b6100aa610354565b6100aa600480360360208110156100f057600080fd5b50356001600160a01b031661037b565b6100aa6004803603602081101561011657600080fd5b50356001600160a01b0316610607565b61014c6004803603602081101561013c57600080fd5b50356001600160a01b031661090f565b604080519485526020850193909352838301919091526060830152519081900360800190f35b6100aa6004803603602081101561018857600080fd5b5035610937565b6100aa600480360360408110156101a557600080fd5b506001600160a01b038135169060200135610a58565b600260009054906101000a90046001600160a01b03166001600160a01b0316638da5cb5b6040518163ffffffff1660e01b815260040160206040518083038186803b15801561020957600080fd5b505afa15801561021d573d6000803e3d6000fd5b505050506040513d602081101561023357600080fd5b50516001600160a01b0316331461027d576040805162461bcd60e51b81526020600482015260096024820152682737ba1037bbb732b960b91b604482015290519081900360640190fd5b61028681610b0e565b50565b600260009054906101000a90046001600160a01b03166001600160a01b0316638da5cb5b6040518163ffffffff1660e01b815260040160206040518083038186803b1580156102d757600080fd5b505afa1580156102eb573d6000803e3d6000fd5b505050506040513d602081101561030157600080fd5b50516001600160a01b0316331461034b576040805162461bcd60e51b81526020600482015260096024820152682737ba1037bbb732b960b91b604482015290519081900360640190fd5b61028681610b49565b33600090815260016020819052604082208281559081018290556002810182905560030155565b6001600160a01b0381166000908152600160205260409020600201544281116103d55760405162461bcd60e51b8152600401808060200182810382526026815260200180610f846026913960400191505060405180910390fd5b600080836001600160a01b031663b2c09233336040518263ffffffff1660e01b815260040180826001600160a01b03168152602001915050604080518083038186803b15801561042457600080fd5b505afa158015610438573d6000803e3d6000fd5b505050506040513d604081101561044e57600080fd5b5080516020909101519092509050816104985760405162461bcd60e51b81526004018080602001828103825260338152602001806110396033913960400191505060405180910390fd5b600380546001600160a01b0386166000818152600160208181526040808420338552600481018352908420549490935252909201549091906104da8682610bf8565b82106105175760405162461bcd60e51b815260040180806020018281038252602e815260200180610fe3602e913960400191505060405180910390fd5b6001600160a01b038716600090815260016020819052604090912001544292506105418187610c5a565b6001600160a01b03891660009081526001602090815260408083203380855260049091018352928190208790558051928352908201839052818101869052519192507f0a8ea94a61adb9b6f01366abaa0ed52716931571afd18109d2ed9f18c522f0b5919081900360600190a16001600160a01b0388166000908152600160208190526040909120018190556105ee6c0c9f2c9cd04674edea400000006105e88787610cbb565b90610d14565b81106105fd576105fd88610d7b565b5050505050505050565b80336001600160a01b0316816001600160a01b0316637df1f1b96040518163ffffffff1660e01b8152600401602060405180830381600087803b15801561064d57600080fd5b505af1158015610661573d6000803e3d6000fd5b505050506040513d602081101561067757600080fd5b50516001600160a01b0316146106c3576040805162461bcd60e51b815260206004820152600c60248201526b2737ba102137b93937bbb2b960a11b604482015290519081900360640190fd5b6001600160a01b038216600090815260016020526040902060030154806106e957600080fd5b6001600160a01b0383166000908152600160205260409020600201544281106107435760405162461bcd60e51b8152600401808060200182810382526039815260200180610faa6039913960400191505060405180910390fd5b6001600160a01b038416600090815260016020526040902054156107985760405162461bcd60e51b81526004018080602001828103825260368152602001806110bb6036913960400191505060405180910390fd5b6001600160a01b038085166000908152600160208181526040808420909201839055600254825163171e108560e01b815292519394169263171e1085926004808201939291829003018186803b1580156107f157600080fd5b505afa158015610805573d6000803e3d6000fd5b505050506040513d602081101561081b57600080fd5b50516040805163bf3b8e4b60e01b81526001600160a01b03888116600483015291519293506000929184169163bf3b8e4b91602480820192602092909190829003018186803b15801561086d57600080fd5b505afa158015610881573d6000803e3d6000fd5b505050506040513d602081101561089757600080fd5b505190506108b2816c0c9f2c9cd04674edea40000000610d14565b6001600160a01b038716600090815260016020908152604091829020600201839055815183815291519295507fd1227b96f2a4760a4dbde6777d1cd5a4f68c7d46a202a290c9a91946290b5e0e92918290030190a1505050505050565b6001602081905260009182526040909120805491810154600282015460039092015490919084565b600254336000908152600160205260409020600301546001600160a01b0390911690156109955760405162461bcd60e51b8152600401808060200182810382526043815260200180610f416043913960600191505060405180910390fd5b60408051631746617960e31b815233600482015290516001600160a01b0383169163ba330bc8916024808301926020929190829003018186803b1580156109db57600080fd5b505afa1580156109ef573d6000803e3d6000fd5b505050506040513d6020811015610a0557600080fd5b5051610a425760405162461bcd60e51b81526004018080602001828103825260288152602001806110116028913960400191505060405180910390fd5b5033600090815260016020526040902060030155565b600054610100900460ff1680610a715750610a71610f29565b80610a7f575060005460ff16155b610aba5760405162461bcd60e51b815260040180806020018281038252602e81526020018061106c602e913960400191505060405180910390fd5b600054610100900460ff16158015610ae5576000805460ff1961ff0019909116610100171660011790555b610aee83610b49565b610af782610b0e565b8015610b09576000805461ff00191690555b505050565b60038190556040805182815290517f80e7cab94b51becc6b80510fb0ceac2a7ee03afd9670427b2cac6a2ff739a8d79181900360200190a150565b6001600160a01b038116610ba4576040805162461bcd60e51b815260206004820152601860248201527f5a65726f2061646472657373206e6f7420616c6c6f7765640000000000000000604482015290519081900360640190fd5b600280546001600160a01b0383166001600160a01b0319909116811790915560408051918252517f1c7678eaee5fa898fb56c2cae0f73cba66bd4eee97d2df577030caea131dd9a59181900360200190a150565b600082821115610c4f576040805162461bcd60e51b815260206004820152601e60248201527f536166654d6174683a207375627472616374696f6e206f766572666c6f770000604482015290519081900360640190fd5b508082035b92915050565b600082820183811015610cb4576040805162461bcd60e51b815260206004820152601b60248201527f536166654d6174683a206164646974696f6e206f766572666c6f770000000000604482015290519081900360640190fd5b9392505050565b600082610cca57506000610c54565b82820282848281610cd757fe5b0414610cb45760405162461bcd60e51b815260040180806020018281038252602181526020018061109a6021913960400191505060405180910390fd5b6000808211610d6a576040805162461bcd60e51b815260206004820152601a60248201527f536166654d6174683a206469766973696f6e206279207a65726f000000000000604482015290519081900360640190fd5b818381610d7357fe5b049392505050565b6002546040805163171e108560e01b815290516001600160a01b0390921691600091839163171e108591600480820192602092909190829003018186803b158015610dc557600080fd5b505afa158015610dd9573d6000803e3d6000fd5b505050506040513d6020811015610def57600080fd5b505160408051637954540360e11b81526001600160a01b03868116600483015291519293506000929184169163f2a8a80691602480820192602092909190829003018186803b158015610e4157600080fd5b505afa158015610e55573d6000803e3d6000fd5b505050506040513d6020811015610e6b57600080fd5b50516001600160a01b0380861660008181526001602052604080822085815542600290910155805162e5e17d60e21b8152600481019390935260248301859052519394509185169263039785f49260448084019391929182900301818387803b158015610ed757600080fd5b505af1158015610eeb573d6000803e3d6000fd5b50506040805184815290517f69d7c951e30e7704947889791c1aef25c64ac28c6226d1bd9134dec2ea5afeef9350908190036020019150a150505050565b6000610f3430610f3a565b15905090565b3b15159056fe457874656e73696f6e3a3a696e697469616c697a65506f6f6c457874656e73696f6e202d205f72657061796d656e74496e74657276616c2063616e6e6f742062652030506f6f6c3a3a766f74654f6e457874656e73696f6e202d20566f74696e67206973206f766572457874656e73696f6e3a3a72657175657374457874656e73696f6e202d20457874656e73696f6e2072657175657374656420616c7265616479506f6f6c3a3a766f74654f6e457874656e73696f6e202d20796f75206861766520616c726561647920766f74656452657061796d656e74733a3a6f6e6c7956616c6964506f6f6c202d20496e76616c696420506f6f6c506f6f6c3a3a766f74654f6e457874656e73696f6e202d204e6f7420612076616c6964206c656e64657220666f7220706f6f6c496e697469616c697a61626c653a20636f6e747261637420697320616c726561647920696e697469616c697a6564536166654d6174683a206d756c7469706c69636174696f6e206f766572666c6f77457874656e73696f6e3a3a72657175657374457874656e73696f6e3a20457874656e73696f6e20616c726561647920617661696c6564a2646970667358221220a5799501fa94486935513e0c75ac66317dc479aaa02c5cce49328121a9b3986864736f6c63430007000033",
  "linkReferences": {},
  "deployedLinkReferences": {}
}