{
  "_format": "hh-sol-artifact-1",
  "contractName": "Pool",
  "sourceName": "contracts/Pool/Pool.sol",
  "abi": [
    {
      "anonymous": false,
      "inputs": [
        {
          "indexed": false,
          "internalType": "uint256",
          "name": "amount",
          "type": "uint256"
        }
      ],
      "name": "AmountBorrowed",
      "type": "event"
    },
    {
      "anonymous": false,
      "inputs": [
        {
          "indexed": false,
          "internalType": "address",
          "name": "borrower",
          "type": "address"
        },
        {
          "indexed": false,
          "internalType": "uint256",
          "name": "amount",
          "type": "uint256"
        },
        {
          "indexed": false,
          "internalType": "uint256",
          "name": "sharesReceived",
          "type": "uint256"
        }
      ],
      "name": "CollateralAdded",
      "type": "event"
    },
    {
      "anonymous": false,
      "inputs": [
        {
          "indexed": false,
          "internalType": "address",
          "name": "borrower",
          "type": "address"
        },
        {
          "indexed": false,
          "internalType": "uint256",
          "name": "amount",
          "type": "uint256"
        }
      ],
      "name": "CollateralWithdrawn",
      "type": "event"
    },
    {
      "anonymous": false,
      "inputs": [
        {
          "indexed": false,
          "internalType": "address",
          "name": "liquidator",
          "type": "address"
        },
        {
          "indexed": false,
          "internalType": "address",
          "name": "lender",
          "type": "address"
        },
        {
          "indexed": false,
          "internalType": "uint256",
          "name": "_tokenReceived",
          "type": "uint256"
        }
      ],
      "name": "LenderLiquidated",
      "type": "event"
    },
    {
      "anonymous": false,
      "inputs": [
        {
          "indexed": false,
          "internalType": "uint256",
          "name": "amountSupplied",
          "type": "uint256"
        },
        {
          "indexed": false,
          "internalType": "address",
          "name": "lenderAddress",
          "type": "address"
        }
      ],
      "name": "LiquiditySupplied",
      "type": "event"
    },
    {
      "anonymous": false,
      "inputs": [
        {
          "indexed": false,
          "internalType": "uint256",
          "name": "amount",
          "type": "uint256"
        },
        {
          "indexed": false,
          "internalType": "address",
          "name": "lenderAddress",
          "type": "address"
        }
      ],
      "name": "LiquidityWithdrawn",
      "type": "event"
    },
    {
      "anonymous": false,
      "inputs": [
        {
          "indexed": false,
          "internalType": "address",
          "name": "borrower",
          "type": "address"
        },
        {
          "indexed": false,
          "internalType": "address",
          "name": "lender",
          "type": "address"
        },
        {
          "indexed": false,
          "internalType": "uint256",
          "name": "amount",
          "type": "uint256"
        },
        {
          "indexed": false,
          "internalType": "uint256",
          "name": "sharesReceived",
          "type": "uint256"
        }
      ],
      "name": "MarginCallCollateralAdded",
      "type": "event"
    },
    {
      "anonymous": false,
      "inputs": [
        {
          "indexed": false,
          "internalType": "address",
          "name": "lenderAddress",
          "type": "address"
        }
      ],
      "name": "MarginCalled",
      "type": "event"
    },
    {
      "anonymous": false,
      "inputs": [],
      "name": "OpenBorrowPoolCancelled",
      "type": "event"
    },
    {
      "anonymous": false,
      "inputs": [],
      "name": "OpenBorrowPoolClosed",
      "type": "event"
    },
    {
      "anonymous": false,
      "inputs": [],
      "name": "OpenBorrowPoolTerminated",
      "type": "event"
    },
    {
      "anonymous": false,
      "inputs": [
        {
          "indexed": false,
          "internalType": "address",
          "name": "liquidator",
          "type": "address"
        }
      ],
      "name": "PoolLiquidated",
      "type": "event"
    },
    {
      "inputs": [
        {
          "internalType": "address",
          "name": "_lender",
          "type": "address"
        },
        {
          "internalType": "uint256",
          "name": "_amount",
          "type": "uint256"
        },
        {
          "internalType": "bool",
          "name": "_transferFromSavingsAccount",
          "type": "bool"
        }
      ],
      "name": "addCollateralInMarginCall",
      "outputs": [],
      "stateMutability": "payable",
      "type": "function"
    },
    {
      "inputs": [
        {
          "internalType": "address",
          "name": "_from",
          "type": "address"
        },
        {
          "internalType": "address",
          "name": "_to",
          "type": "address"
        },
        {
          "internalType": "uint256",
          "name": "_amount",
          "type": "uint256"
        }
      ],
      "name": "beforeTransfer",
      "outputs": [],
      "stateMutability": "nonpayable",
      "type": "function"
    },
    {
      "inputs": [],
      "name": "borrower",
      "outputs": [
        {
          "internalType": "address",
          "name": "",
          "type": "address"
        }
      ],
      "stateMutability": "view",
      "type": "function"
    },
    {
      "inputs": [
        {
          "internalType": "uint256",
          "name": "_balance",
          "type": "uint256"
        },
        {
          "internalType": "uint256",
          "name": "_liquidityShares",
          "type": "uint256"
        }
      ],
      "name": "calculateCollateralRatio",
      "outputs": [
        {
          "internalType": "uint256",
          "name": "_ratio",
          "type": "uint256"
        }
      ],
      "stateMutability": "nonpayable",
      "type": "function"
    },
    {
      "inputs": [],
      "name": "calculateCurrentPeriod",
      "outputs": [
        {
          "internalType": "uint256",
          "name": "",
          "type": "uint256"
        }
      ],
      "stateMutability": "view",
      "type": "function"
    },
    {
      "inputs": [],
      "name": "cancelPool",
      "outputs": [],
      "stateMutability": "nonpayable",
      "type": "function"
    },
    {
      "inputs": [],
      "name": "closeLoan",
      "outputs": [],
      "stateMutability": "payable",
      "type": "function"
    },
    {
      "inputs": [
        {
          "internalType": "uint256",
          "name": "_totalCollateralTokens",
          "type": "uint256"
        },
        {
          "internalType": "address",
          "name": "_poolFactory",
          "type": "address"
        },
        {
          "internalType": "uint256",
          "name": "_fraction",
          "type": "uint256"
        }
      ],
      "name": "correspondingBorrowTokens",
      "outputs": [
        {
          "internalType": "uint256",
          "name": "",
          "type": "uint256"
        }
      ],
      "stateMutability": "view",
      "type": "function"
    },
    {
      "inputs": [
        {
          "internalType": "uint256",
          "name": "_amount",
          "type": "uint256"
        },
        {
          "internalType": "bool",
          "name": "_transferFromSavingsAccount",
          "type": "bool"
        }
      ],
      "name": "depositCollateral",
      "outputs": [],
      "stateMutability": "payable",
      "type": "function"
    },
    {
      "inputs": [
        {
          "internalType": "address",
          "name": "_lender",
          "type": "address"
        }
      ],
      "name": "getBalanceDetails",
      "outputs": [
        {
          "internalType": "uint256",
          "name": "",
          "type": "uint256"
        },
        {
          "internalType": "uint256",
          "name": "",
          "type": "uint256"
        }
      ],
      "stateMutability": "view",
      "type": "function"
    },
    {
      "inputs": [
        {
          "internalType": "address",
          "name": "_lender",
          "type": "address"
        }
      ],
      "name": "getCurrentCollateralRatio",
      "outputs": [
        {
          "internalType": "uint256",
          "name": "_ratio",
          "type": "uint256"
        }
      ],
      "stateMutability": "nonpayable",
      "type": "function"
    },
    {
      "inputs": [],
      "name": "getCurrentCollateralRatio",
      "outputs": [
        {
          "internalType": "uint256",
          "name": "_ratio",
          "type": "uint256"
        }
      ],
      "stateMutability": "nonpayable",
      "type": "function"
    },
    {
      "inputs": [
        {
          "internalType": "address",
          "name": "_source",
          "type": "address"
        },
        {
          "internalType": "address",
          "name": "_target",
          "type": "address"
        },
        {
          "internalType": "uint256",
          "name": "_amount",
          "type": "uint256"
        }
      ],
      "name": "getEquivalentTokens",
      "outputs": [
        {
          "internalType": "uint256",
          "name": "",
          "type": "uint256"
        }
      ],
      "stateMutability": "view",
      "type": "function"
    },
    {
      "inputs": [],
      "name": "getLoanStatus",
      "outputs": [
        {
          "internalType": "uint256",
          "name": "",
          "type": "uint256"
        }
      ],
      "stateMutability": "view",
      "type": "function"
    },
    {
      "inputs": [
        {
          "internalType": "address",
          "name": "_lender",
          "type": "address"
        }
      ],
      "name": "getMarginCallEndTime",
      "outputs": [
        {
          "internalType": "uint256",
          "name": "",
          "type": "uint256"
        }
      ],
      "stateMutability": "view",
      "type": "function"
    },
    {
      "inputs": [],
      "name": "getTotalSupply",
      "outputs": [
        {
          "internalType": "uint256",
          "name": "",
          "type": "uint256"
        }
      ],
      "stateMutability": "view",
      "type": "function"
    },
    {
      "inputs": [
        {
          "internalType": "uint256",
          "name": "_borrowAmountRequested",
          "type": "uint256"
        },
        {
          "internalType": "uint256",
          "name": "_minborrowAmount",
          "type": "uint256"
        },
        {
          "internalType": "address",
          "name": "_borrower",
          "type": "address"
        },
        {
          "internalType": "address",
          "name": "_borrowAsset",
          "type": "address"
        },
        {
          "internalType": "address",
          "name": "_collateralAsset",
          "type": "address"
        },
        {
          "internalType": "uint256",
          "name": "_idealCollateralRatio",
          "type": "uint256"
        },
        {
          "internalType": "uint256",
          "name": "_borrowRate",
          "type": "uint256"
        },
        {
          "internalType": "uint256",
          "name": "_repaymentInterval",
          "type": "uint256"
        },
        {
          "internalType": "uint256",
          "name": "_noOfRepaymentIntervals",
          "type": "uint256"
        },
        {
          "internalType": "address",
          "name": "_poolSavingsStrategy",
          "type": "address"
        },
        {
          "internalType": "uint256",
          "name": "_collateralAmount",
          "type": "uint256"
        },
        {
          "internalType": "bool",
          "name": "_transferFromSavingsAccount",
          "type": "bool"
        },
        {
          "internalType": "uint256",
          "name": "_loanWithdrawalDuration",
          "type": "uint256"
        },
        {
          "internalType": "uint256",
          "name": "_collectionPeriod",
          "type": "uint256"
        }
      ],
      "name": "initialize",
      "outputs": [],
      "stateMutability": "payable",
      "type": "function"
    },
    {
      "inputs": [
        {
          "internalType": "uint256",
          "name": "_balance",
          "type": "uint256"
        }
      ],
      "name": "interestPerPeriod",
      "outputs": [
        {
          "internalType": "uint256",
          "name": "",
          "type": "uint256"
        }
      ],
      "stateMutability": "view",
      "type": "function"
    },
    {
      "inputs": [
        {
          "internalType": "uint256",
          "name": "_principal",
          "type": "uint256"
        }
      ],
      "name": "interestPerSecond",
      "outputs": [
        {
          "internalType": "uint256",
          "name": "",
          "type": "uint256"
        }
      ],
      "stateMutability": "view",
      "type": "function"
    },
    {
      "inputs": [],
      "name": "interestTillNow",
      "outputs": [
        {
          "internalType": "uint256",
          "name": "",
          "type": "uint256"
        }
      ],
      "stateMutability": "view",
      "type": "function"
    },
    {
      "inputs": [
        {
          "internalType": "address",
          "name": "_lender",
          "type": "address"
        },
        {
          "internalType": "uint256",
          "name": "_amountLent",
          "type": "uint256"
        },
        {
          "internalType": "bool",
          "name": "_fromSavingsAccount",
          "type": "bool"
        }
      ],
      "name": "lend",
      "outputs": [],
      "stateMutability": "payable",
      "type": "function"
    },
    {
      "inputs": [
        {
          "internalType": "address",
          "name": "",
          "type": "address"
        }
      ],
      "name": "lenders",
      "outputs": [
        {
          "internalType": "uint256",
          "name": "principalWithdrawn",
          "type": "uint256"
        },
        {
          "internalType": "uint256",
          "name": "interestWithdrawn",
          "type": "uint256"
        },
        {
          "internalType": "uint256",
          "name": "lastVoteTime",
          "type": "uint256"
        },
        {
          "internalType": "uint256",
          "name": "marginCallEndTime",
          "type": "uint256"
        },
        {
          "internalType": "uint256",
          "name": "extraLiquidityShares",
          "type": "uint256"
        }
      ],
      "stateMutability": "view",
      "type": "function"
    },
    {
      "inputs": [
        {
          "internalType": "bool",
          "name": "_toSavingsAccount",
          "type": "bool"
        },
        {
          "internalType": "bool",
          "name": "_receiveLiquidityShare",
          "type": "bool"
        }
      ],
      "name": "liquidateCancelPenality",
      "outputs": [],
      "stateMutability": "nonpayable",
      "type": "function"
    },
    {
      "inputs": [
        {
          "internalType": "address",
          "name": "_lender",
          "type": "address"
        },
        {
          "internalType": "bool",
          "name": "_fromSavingsAccount",
          "type": "bool"
        },
        {
          "internalType": "bool",
          "name": "_toSavingsAccount",
          "type": "bool"
        },
        {
          "internalType": "bool",
          "name": "_recieveLiquidityShare",
          "type": "bool"
        }
      ],
      "name": "liquidateLender",
      "outputs": [],
      "stateMutability": "payable",
      "type": "function"
    },
    {
      "inputs": [
        {
          "internalType": "bool",
          "name": "_fromSavingsAccount",
          "type": "bool"
        },
        {
          "internalType": "bool",
          "name": "_toSavingsAccount",
          "type": "bool"
        },
        {
          "internalType": "bool",
          "name": "_recieveLiquidityShare",
          "type": "bool"
        }
      ],
      "name": "liquidatePool",
      "outputs": [],
      "stateMutability": "payable",
      "type": "function"
    },
    {
      "inputs": [],
      "name": "poolConstants",
      "outputs": [
        {
          "internalType": "address",
          "name": "borrower",
          "type": "address"
        },
        {
          "internalType": "uint256",
          "name": "borrowAmountRequested",
          "type": "uint256"
        },
        {
          "internalType": "uint256",
          "name": "minborrowAmount",
          "type": "uint256"
        },
        {
          "internalType": "uint256",
          "name": "loanStartTime",
          "type": "uint256"
        },
        {
          "internalType": "uint256",
          "name": "loanWithdrawalDeadline",
          "type": "uint256"
        },
        {
          "internalType": "address",
          "name": "borrowAsset",
          "type": "address"
        },
        {
          "internalType": "uint256",
          "name": "idealCollateralRatio",
          "type": "uint256"
        },
        {
          "internalType": "uint256",
          "name": "borrowRate",
          "type": "uint256"
        },
        {
          "internalType": "uint256",
          "name": "noOfRepaymentIntervals",
          "type": "uint256"
        },
        {
          "internalType": "uint256",
          "name": "repaymentInterval",
          "type": "uint256"
        },
        {
          "internalType": "address",
          "name": "collateralAsset",
          "type": "address"
        },
        {
          "internalType": "address",
          "name": "poolSavingsStrategy",
          "type": "address"
        }
      ],
      "stateMutability": "view",
      "type": "function"
    },
    {
      "inputs": [],
      "name": "poolToken",
      "outputs": [
        {
          "internalType": "contract IPoolToken",
          "name": "",
          "type": "address"
        }
      ],
      "stateMutability": "view",
      "type": "function"
    },
    {
      "inputs": [],
      "name": "poolVars",
      "outputs": [
        {
          "internalType": "uint256",
          "name": "baseLiquidityShares",
          "type": "uint256"
        },
        {
          "internalType": "uint256",
          "name": "extraLiquidityShares",
          "type": "uint256"
        },
        {
          "internalType": "enum Pool.LoanStatus",
          "name": "loanStatus",
          "type": "uint8"
        },
        {
          "internalType": "uint256",
          "name": "penalityLiquidityAmount",
          "type": "uint256"
        }
      ],
      "stateMutability": "view",
      "type": "function"
    },
    {
      "inputs": [],
      "name": "requestMarginCall",
      "outputs": [],
      "stateMutability": "nonpayable",
      "type": "function"
    },
    {
      "inputs": [
        {
          "internalType": "address",
          "name": "_poolToken",
          "type": "address"
        }
      ],
      "name": "setPoolToken",
      "outputs": [],
      "stateMutability": "nonpayable",
      "type": "function"
    },
    {
      "inputs": [],
      "name": "terminateOpenBorrowPool",
      "outputs": [],
      "stateMutability": "nonpayable",
      "type": "function"
    },
    {
      "inputs": [],
      "name": "withdrawBorrowedAmount",
      "outputs": [],
      "stateMutability": "nonpayable",
      "type": "function"
    },
    {
      "inputs": [],
      "name": "withdrawLiquidity",
      "outputs": [],
      "stateMutability": "nonpayable",
      "type": "function"
    },
    {
      "inputs": [],
      "name": "withdrawRepayment",
      "outputs": [],
      "stateMutability": "nonpayable",
      "type": "function"
    },
    {
      "stateMutability": "payable",
      "type": "receive"
    }
  ],
  "bytecode": "0x608060405234801561001057600080fd5b50600180556153c9806100246000396000f3fe6080604052600436106101fd5760003560e01c80637df1f1b91161010d578063bda9e06b116100a0578063d2b93bfd1161006f578063d2b93bfd14610844578063d820d4c914610869578063daf5539e14610893578063e3bd9cb6146108c6578063e70d72d714610904576102bf565b8063bda9e06b146107d1578063c145fe69146107e6578063c4e41b221461081a578063cbdf382c1461082f576102bf565b8063969dec34116100dc578063969dec3414610710578063acc1ab1314610725578063b2c092331461073a578063bb1a195f14610786576102bf565b80637df1f1b9146106815780637ea382c1146106b25780637ee0682b146106c757806395f3f456146106fb576102bf565b806333ce01fd116101905780636886c8141161015f5780636886c8141461054757806372954480146105cb5780637320fc291461060a5780637489b4511461063d5780637729886f14610652576102bf565b806333ce01fd1461048c5780633fe32520146104bf57806346b55fbb146104d45780635afaa80f14610504576102bf565b8063272edaf2116101cc578063272edaf21461034b578063275ac252146103d057806328fd10d7146103fa5780632dea621414610458576102bf565b80630fc72889146102c45780631b55b2a8146102eb5780631ffb811f14610300578063232fa73314610343576102bf565b366102bf57600260009054906101000a90046001600160a01b03166001600160a01b031663ecced6236040518163ffffffff1660e01b815260040160206040518083038186803b15801561025057600080fd5b505afa158015610264573d6000803e3d6000fd5b505050506040513d602081101561027a57600080fd5b50516001600160a01b031633146102bd576040805162461bcd60e51b8152602060048201526002602482015261333560f01b604482015290519081900360640190fd5b005b600080fd5b3480156102d057600080fd5b506102d9610919565b60408051918252519081900360200190f35b3480156102f757600080fd5b506102bd610959565b34801561030c57600080fd5b506102bd6004803603606081101561032357600080fd5b506001600160a01b03813581169160208101359091169060400135610b7e565b6102bd610e2e565b6102bd60048036036101c081101561036257600080fd5b508035906020810135906001600160a01b0360408201358116916060810135821691608082013581169160a08101359160c08201359160e081013591610100820135916101208101359091169061014081013590610160810135151590610180810135906101a00135611180565b3480156103dc57600080fd5b506102d9600480360360208110156103f357600080fd5b50356112de565b34801561040657600080fd5b5061042d6004803603602081101561041d57600080fd5b50356001600160a01b0316611308565b6040805195865260208601949094528484019290925260608401526080830152519081900360a00190f35b6102bd6004803603606081101561046e57600080fd5b506001600160a01b0381351690602081013590604001351515611338565b34801561049857600080fd5b506102bd600480360360208110156104af57600080fd5b50356001600160a01b031661157c565b3480156104cb57600080fd5b506102d96115e1565b3480156104e057600080fd5b506102d9600480360360408110156104f757600080fd5b508035906020013561176e565b34801561051057600080fd5b506102d96004803603606081101561052757600080fd5b506001600160a01b03813581169160208101359091169060400135611871565b34801561055357600080fd5b5061055c611992565b604080516001600160a01b039d8e168152602081019c909c528b81019a909a5260608b019890985260808a019690965293891660a089015260c088019290925260e087015261010086015261012085015284166101408401529092166101608201529051908190036101800190f35b3480156105d757600080fd5b506102d9600480360360608110156105ee57600080fd5b508035906001600160a01b0360208201351690604001356119ce565b34801561061657600080fd5b506102d96004803603602081101561062d57600080fd5b50356001600160a01b0316611b00565b34801561064957600080fd5b506102bd611bbb565b6102bd6004803603606081101561066857600080fd5b5080351515906020810135151590604001351515611cc4565b34801561068d57600080fd5b5061069661201e565b604080516001600160a01b039092168252519081900360200190f35b3480156106be57600080fd5b506102bd61202d565b3480156106d357600080fd5b506102bd600480360360408110156106ea57600080fd5b508035151590602001351515612508565b34801561070757600080fd5b506102bd6126fd565b34801561071c57600080fd5b506102bd612c4d565b34801561073157600080fd5b506102d9612e7e565b34801561074657600080fd5b5061076d6004803603602081101561075d57600080fd5b50356001600160a01b0316612e97565b6040805192835260208301919091528051918290030190f35b34801561079257600080fd5b5061079b612f8c565b604051808581526020018481526020018360058111156107b757fe5b815260200182815260200194505050505060405180910390f35b3480156107dd57600080fd5b506102bd612fa1565b6102bd600480360360608110156107fc57600080fd5b506001600160a01b0381351690602081013590604001351515613265565b34801561082657600080fd5b506102d9613478565b34801561083b57600080fd5b506106966134ee565b6102bd6004803603604081101561085a57600080fd5b508035906020013515156134fd565b34801561087557600080fd5b506102d96004803603602081101561088c57600080fd5b5035613542565b34801561089f57600080fd5b506102d9600480360360208110156108b657600080fd5b50356001600160a01b031661355c565b6102bd600480360360808110156108dc57600080fd5b506001600160a01b038135169060208101351515906040810135151590606001351515613688565b34801561091057600080fd5b506102d96138ae565b600e546008546040805180820190915260028152610ccd60f21b602082015260009283926109529261094c914291613947565b906139de565b9150505b90565b60135460ff16600081600581111561096d57fe5b146109a5576040805162461bcd60e51b815260206004820152600360248201526243503160e81b604482015290519081900360640190fd5b6008544281108015610a285750600754600354604080516318160ddd60e01b815290516001600160a01b03909216916318160ddd91600480820192602092909190829003018186803b1580156109fa57600080fd5b505afa158015610a0e573d6000803e3d6000fd5b505050506040513d6020811015610a2457600080fd5b5051105b15610a3e57610a376000613a45565b5050610b7c565b600954421015610a8d576005546001600160a01b03163314610a8d576040805162461bcd60e51b815260206004820152600360248201526221a81960e91b604482015290519081900360640190fd5b601154600e5442831015610ab257610aaf610aa84285613bc9565b8290613c26565b90505b60025460408051636687e7b760e01b815290516000926001600160a01b031691636687e7b7916004808301926020929190829003018186803b158015610af757600080fd5b505afa158015610b0b573d6000803e3d6000fd5b505050506040513d6020811015610b2157600080fd5b5051600c54909150600090610b6a907109f4f2726179a224501d762422c946590d91603c1b9061094c906301e133809082908890610b64908b9082908b90613c80565b90613c80565b9050610b7581613a45565b5050505050505b565b60026001541415610bc4576040805162461bcd60e51b815260206004820152601f602482015260008051602061529f833981519152604482015290519081900360640190fd5b60026001556003546001600160a01b03163314610be057600080fd5b610be983611b00565b15610c20576040805162461bcd60e51b8152602060048201526002602482015261062760f31b604482015290519081900360640190fd5b610c2982611b00565b15610c60576040805162461bcd60e51b8152602060048201526002602482015261313960f01b604482015290519081900360640190fd5b610c6983613cd9565b610c7282613cd9565b6001600160a01b0383166000908152600460208190526040909120015480610c9a5750610e25565b600354604080516370a0823160e01b81526001600160a01b0387811660048301529151849392909216916370a0823191602480820192602092909190829003018186803b158015610cea57600080fd5b505afa158015610cfe573d6000803e3d6000fd5b505050506040513d6020811015610d1457600080fd5b50518314610da757600354604080516370a0823160e01b81526001600160a01b0388811660048301529151610da49392909216916370a0823191602480820192602092909190829003018186803b158015610d6e57600080fd5b505afa158015610d82573d6000803e3d6000fd5b505050506040513d6020811015610d9857600080fd5b505161094c8585613c80565b90505b6001600160a01b03851660009081526004602081905260409091200154610dce9082613bc9565b6001600160a01b0380871660009081526004602081905260408083208201949094559187168152919091200154610e059082613c26565b6001600160a01b0385166000908152600460208190526040909120015550505b50506001805550565b60026001541415610e74576040805162461bcd60e51b815260206004820152601f602482015260008051602061529f833981519152604482015290519081900360640190fd5b60026001819055546040805163171e108560e01b815290516001600160a01b039092169163171e108591600480820192602092909190829003018186803b158015610ebe57600080fd5b505afa158015610ed2573d6000803e3d6000fd5b505050506040513d6020811015610ee857600080fd5b50516001600160a01b03163314610f2b576040805162461bcd60e51b8152602060048201526002602482015261323560f01b604482015290519081900360640190fd5b600160135460ff166005811115610f3e57fe5b14610f75576040805162461bcd60e51b8152602060048201526002602482015261191960f11b604482015290519081900360640190fd5b600354604080516318160ddd60e01b815290516000926001600160a01b0316916318160ddd916004808301926020929190829003018186803b158015610fba57600080fd5b505afa158015610fce573d6000803e3d6000fd5b505050506040513d6020811015610fe457600080fd5b5051600a549091506001600160a01b031661100181833330613d4d565b506013805460ff1916600290811790915554604080516302d5537b60e41b815290516001600160a01b0390921691632d5537b091600480820192602092909190829003018186803b15801561105557600080fd5b505afa158015611069573d6000803e3d6000fd5b505050506040513d602081101561107f57600080fd5b5051604080516311f2df1b60e21b815290516001600160a01b03909216916347cb7c6c9160048082019260009290919082900301818387803b1580156110c457600080fd5b505af11580156110d8573d6000803e3d6000fd5b505050506110e7336000613f73565b600360009054906101000a90046001600160a01b03166001600160a01b0316638456cb596040518163ffffffff1660e01b8152600401600060405180830381600087803b15801561113757600080fd5b505af115801561114b573d6000803e3d6000fd5b50506040517f16806a4b81acb154f2a096d5f8d970f04bd4546e2a070933d28b8212cfc9ddce925060009150a1505060018055565b600054610100900460ff16806111995750611199614124565b806111a7575060005460ff16155b6111e25760405162461bcd60e51b815260040180806020018281038252602e8152602001806152e5602e913960400191505060405180910390fd5b600054610100900460ff1615801561120d576000805460ff1961ff0019909116610100171660011790555b60028054336001600160a01b031991821617909155600a805482166001600160a01b038f811691909117909155600b8c9055600f805483168e83161790556010805490921690881617905560068f90556112688d8686614135565b600580546001600160a01b0319166001600160a01b038f1617905560078e9055600c899055600d879055600e8890556112a14283613c26565b6008556112b8836112b24285613c26565b90613c26565b60095580156112cd576000805461ff00191690555b505050505050505050505050505050565b6000806113016301e1338061094c60056007015486613c8090919063ffffffff16565b9392505050565b60046020819052600091825260409091208054600182015460028301546003840154939094015491939092909185565b6002600154141561137e576040805162461bcd60e51b815260206004820152601f602482015260008051602061529f833981519152604482015290519081900360640190fd5b6002600155600060135460ff16600581111561139657fe5b146113cd576040805162461bcd60e51b8152602060048201526002602482015261313560f01b604482015290519081900360640190fd5b6008544210611408576040805162461bcd60e51b8152602060048201526002602482015261189b60f11b604482015290519081900360640190fd5b600654600354604080516318160ddd60e01b815290518593926000926001600160a01b03909116916318160ddd91600480820192602092909190829003018186803b15801561145657600080fd5b505afa15801561146a573d6000803e3d6000fd5b505050506040513d602081101561148057600080fd5b505190508161148f8683613c26565b11156114a25761149f8282613bc9565b92505b600a546001600160a01b03166114be85600083878233306141c6565b50600354604080516340c10f1960e01b81526001600160a01b038a8116600483015260248201889052915191909216916340c10f1991604480830192600092919082900301818387803b15801561151457600080fd5b505af1158015611528573d6000803e3d6000fd5b5050604080518781526001600160a01b038b16602082015281517ff09dbebdc018e2d81469b76b813a178bbc38dde6fd1056134b68f291a58802e29450908190039091019150a15050600180555050505050565b6002546001600160a01b031633146115bf576040805162461bcd60e51b81526020600482015260016024820152601b60f91b604482015290519081900360640190fd5b600380546001600160a01b0319166001600160a01b0392909216919091179055565b6002546040805163171e108560e01b815290516000926001600160a01b03169183918291849163171e108591600480820192602092909190829003018186803b15801561162d57600080fd5b505afa158015611641573d6000803e3d6000fd5b505050506040513d602081101561165757600080fd5b50516040805160016216f02b60e01b0319815230600482015281516001600160a01b039093169263ffe90fd592602480840193919291829003018186803b1580156116a157600080fd5b505afa1580156116b5573d6000803e3d6000fd5b505050506040513d60408110156116cb57600080fd5b508051602090910151909250905060006116f2426c0c9f2c9cd04674edea40000000613c80565b60085490915060009061171d90611716906c0c9f2c9cd04674edea40000000613c80565b8390613bc9565b905083811161173457600095505050505050610956565b60006117637109f4f2726179a224501d762422c946590d91603c1b61094c61175c8589613bc9565b8790613c80565b965050505050505090565b6000806117796115e1565b600f546010549192506001600160a01b0390811691166000811561181f57816001600160a01b03166359846d2987856040518363ffffffff1660e01b815260040180838152602001826001600160a01b0316815260200192505050602060405180830381600087803b1580156117ee57600080fd5b505af1158015611802573d6000803e3d6000fd5b505050506040513d602081101561181857600080fd5b5051611821565b855b600a5490915060009061183f9085906001600160a01b031684611871565b905061186561184e8987613c26565b61094c836c0c9f2c9cd04674edea40000000613c80565b98975050505050505050565b6000806000600260009054906101000a90046001600160a01b03166001600160a01b0316632630c12f6040518163ffffffff1660e01b815260040160206040518083038186803b1580156118c457600080fd5b505afa1580156118d8573d6000803e3d6000fd5b505050506040513d60208110156118ee57600080fd5b5051604080516310603c1160e01b81526001600160a01b038981166004830152888116602483015282519316926310603c1192604480840193919291829003018186803b15801561193e57600080fd5b505afa158015611952573d6000803e3d6000fd5b505050506040513d604081101561196857600080fd5b5080516020909101519092509050611988600a82900a61094c8685613c80565b9695505050505050565b600554600654600754600854600954600a54600b54600c54600d54600e54600f546010546001600160a01b039b8c169b9687169691821691168c565b600080839050600080826001600160a01b0316632630c12f6040518163ffffffff1660e01b815260040160206040518083038186803b158015611a1057600080fd5b505afa158015611a24573d6000803e3d6000fd5b505050506040513d6020811015611a3a57600080fd5b5051600f54600a54604080516310603c1160e01b81526001600160a01b0393841660048201529183166024830152805192909316926310603c1192604480840193829003018186803b158015611a8f57600080fd5b505afa158015611aa3573d6000803e3d6000fd5b505050506040513d6040811015611ab957600080fd5b5080516020909101519092509050611af56c0c9f2c9cd04674edea4000000061094c600a84900a81611aeb848b613bc9565b610b648d89613c80565b979650505050505050565b600080600260009054906101000a90046001600160a01b03166001600160a01b0316639b9842c16040518163ffffffff1660e01b815260040160206040518083038186803b158015611b5157600080fd5b505afa158015611b65573d6000803e3d6000fd5b505050506040513d6020811015611b7b57600080fd5b50516001600160a01b038416600090815260046020526040902060030154909150611baa610aa8836002613c80565b421115611301575060009392505050565b600354604080516370a0823160e01b81523360048201819052915191926001600160a01b0316916370a0823191602480820192602092909190829003018186803b158015611c0857600080fd5b505afa158015611c1c573d6000803e3d6000fd5b505050506040513d6020811015611c3257600080fd5b5051611c69576040805162461bcd60e51b81526020600482015260016024820152601960f91b604482015290519081900360640190fd5b60026001541415611caf576040805162461bcd60e51b815260206004820152601f602482015260008051602061529f833981519152604482015290519081900360640190fd5b6002600155611cbd33613cd9565b5060018055565b60026001541415611d0a576040805162461bcd60e51b815260206004820152601f602482015260008051602061529f833981519152604482015290519081900360640190fd5b60026001819055601354905460ff909116906001600160a01b03166004826005811115611d3357fe5b14158015611e165750806001600160a01b031663171e10856040518163ffffffff1660e01b815260040160206040518083038186803b158015611d7557600080fd5b505afa158015611d89573d6000803e3d6000fd5b505050506040513d6020811015611d9f57600080fd5b505160408051633bada68960e21b815230600482015290516001600160a01b039092169163eeb69a2491602480820192602092909190829003018186803b158015611de957600080fd5b505afa158015611dfd573d6000803e3d6000fd5b505050506040513d6020811015611e1357600080fd5b50515b15611e2e576013805460ff1916600490811790915591505b6004826005811115611e3c57fe5b14611e785760405162461bcd60e51b815260040180806020018281038252603581526020018061526a6035913960400191505060405180910390fd5b600f54600a546012546011546001600160a01b039384169390921691600091611ea19190613c26565b6010549091506001600160a01b0316818115611f3d57816001600160a01b03166359846d2984876040518363ffffffff1660e01b815260040180838152602001826001600160a01b0316815260200192505050602060405180830381600087803b158015611f0e57600080fd5b505af1158015611f22573d6000803e3d6000fd5b505050506040513d6020811015611f3857600080fd5b505190505b6000611fae8288896001600160a01b031663acca944f6040518163ffffffff1660e01b815260040160206040518083038186803b158015611f7d57600080fd5b505afa158015611f91573d6000803e3d6000fd5b505050506040513d6020811015611fa757600080fd5b50516119ce565b9050611fc18b60008784600033306141c6565b50611fcf8a8a8886866142d1565b50600060128190556011556040805133815290517fc54b2aa56ebf583bfce79c646ac5d4618f0e44bc6874bd07194673a5bd2626a09181900360200190a1505060018055505050505050505050565b6005546001600160a01b031690565b600354604080516370a0823160e01b81523360048201819052915191926001600160a01b0316916370a0823191602480820192602092909190829003018186803b15801561207a57600080fd5b505afa15801561208e573d6000803e3d6000fd5b505050506040513d60208110156120a457600080fd5b50516120db576040805162461bcd60e51b81526020600482015260016024820152601960f91b604482015290519081900360640190fd5b60026001541415612121576040805162461bcd60e51b815260206004820152601f602482015260008051602061529f833981519152604482015290519081900360640190fd5b6002600181905560135460ff169081600581111561213b57fe5b14806121525750600381600581111561215057fe5b145b806121685750600481600581111561216657fe5b145b8061217e5750600581600581111561217c57fe5b145b6121b4576040805162461bcd60e51b81526020600482015260026024820152610c8d60f21b604482015290519081900360640190fd5b600354604080516370a0823160e01b815233600482015290516000926001600160a01b0316916370a08231916024808301926020929190829003018186803b1580156121ff57600080fd5b505afa158015612213573d6000803e3d6000fd5b505050506040513d602081101561222957600080fd5b5051905080600483600581111561223c57fe5b14806122535750600583600581111561225157fe5b145b1561236d57600a546000906001600160a01b0316156122ea57600a54604080516370a0823160e01b815230600482015290516001600160a01b03909216916370a0823191602480820192602092909190829003018186803b1580156122b757600080fd5b505afa1580156122cb573d6000803e3d6000fd5b505050506040513d60208110156122e157600080fd5b505190506122ed565b50475b600354604080516318160ddd60e01b81529051612369926001600160a01b0316916318160ddd916004808301926020929190829003018186803b15801561233357600080fd5b505afa158015612347573d6000803e3d6000fd5b505050506040513d602081101561235d57600080fd5b505161094c8484613c80565b9150505b600383600581111561237b57fe5b14156124125761240f610aa8600360009054906101000a90046001600160a01b03166001600160a01b03166318160ddd6040518163ffffffff1660e01b815260040160206040518083038186803b1580156123d557600080fd5b505afa1580156123e9573d6000803e3d6000fd5b505050506040513d60208110156123ff57600080fd5b505160145461094c908590613c80565b90505b33600090815260046020526040812055600283600581111561243057fe5b141561243f5761243f33613cd9565b60035460408051632770a7eb60e21b81523360048201526024810185905290516001600160a01b0390921691639dc29fac9160448082019260009290919082900301818387803b15801561249257600080fd5b505af11580156124a6573d6000803e3d6000fd5b5050600a546124c392506001600160a01b03169050823033613d4d565b506040805182815233602082015281517f971f63643b6d0341cf9c1971238adc8625537ce1c41ba0a9dfcbd784832bd5f9929181900390910190a15050600180555050565b6002600154141561254e576040805162461bcd60e51b815260206004820152601f602482015260008051602061529f833981519152604482015290519081900360640190fd5b6002600155600360135460ff16600581111561256657fe5b14612592576040805162461bcd60e51b8152602060048201526000602482015290519081900360640190fd5b601454156125c1576040805162461bcd60e51b8152602060048201526000602482015290519081900360640190fd5b600254601054600f546011546001600160a01b03938416939283169290911690821561266d57826001600160a01b03166359846d2982846040518363ffffffff1660e01b815260040180838152602001826001600160a01b0316815260200192505050602060405180830381600087803b15801561263e57600080fd5b505af1158015612652573d6000803e3d6000fd5b505050506040513d602081101561266857600080fd5b505190505b60006126ad8286876001600160a01b031663acca944f6040518163ffffffff1660e01b815260040160206040518083038186803b158015611f7d57600080fd5b600a549091506126c8906001600160a01b0316823330613d4d565b506014819055600f546010546126ef91899189916001600160a01b039081169116866142d1565b505060018055505050505050565b60055433906001600160a01b03168114612742576040805162461bcd60e51b81526020600482015260016024820152603160f81b604482015290519081900360640190fd5b60026001541415612788576040805162461bcd60e51b815260206004820152601f602482015260008051602061529f833981519152604482015290519081900360640190fd5b6002600155601354600354604080516318160ddd60e01b8152905160ff909316926000926001600160a01b0316916318160ddd916004808301926020929190829003018186803b1580156127db57600080fd5b505afa1580156127ef573d6000803e3d6000fd5b505050506040513d602081101561280557600080fd5b50519050600082600581111561281757fe5b148015612825575060085442115b8015612832575060095442105b612868576040805162461bcd60e51b8152602060048201526002602482015261189960f11b604482015290519081900360640190fd5b6007548110156128a4576040805162461bcd60e51b8152602060048201526002602482015261313360f01b604482015290519081900360640190fd5b6013805460ff1916600117905560006128bb6138ae565b600254600f5460408051626c78a760e71b81526001600160a01b039283166004820152905193945091169161294791839163363c538091602480820192602092909190829003018186803b15801561291257600080fd5b505afa158015612926573d6000803e3d6000fd5b505050506040513d602081101561293c57600080fd5b5051600b5490613bc9565b821015612980576040805162461bcd60e51b81526020600482015260026024820152610c4d60f21b604482015290519081900360640190fd5b600d54600e546040805163171e108560e01b815290516001600160a01b0385169163171e1085916004808301926020929190829003018186803b1580156129c657600080fd5b505afa1580156129da573d6000803e3d6000fd5b505050506040513d60208110156129f057600080fd5b5051600c54600854600a5460408051632447e4a760e11b81526004810188905260248101879052604481019490945260648401929092526001600160a01b039081166084840152905192169163488fc94e9160a48082019260009290919082900301818387803b158015612a6357600080fd5b505af1158015612a77573d6000803e3d6000fd5b50505050826001600160a01b0316632d5537b06040518163ffffffff1660e01b815260040160206040518083038186803b158015612ab457600080fd5b505afa158015612ac8573d6000803e3d6000fd5b505050506040513d6020811015612ade57600080fd5b505160408051635ad3867560e11b81526004810184905290516001600160a01b039092169163b5a70cea9160248082019260009290919082900301818387803b158015612b2a57600080fd5b505af1158015612b3e573d6000803e3d6000fd5b5050600a5460408051637bad520760e01b815281516001600160a01b039384169550600094508493891692637bad52079260048082019391829003018186803b158015612b8a57600080fd5b505afa158015612b9e573d6000803e3d6000fd5b505050506040513d6040811015612bb457600080fd5b50805160209091015190925090506000612bdf6c0c9f2c9cd04674edea4000000061094c8b86613c80565b9050612bed84823085613d4d565b50612c0384612bfc8b84613bc9565b3033613d4d565b506000600955604080518a815290517fd34aff353e8e4ad78ec390d5c4bd580941a8299db97e6c9b7a536ce2030d09899181900360200190a1505060018055505050505050505050565b600260009054906101000a90046001600160a01b03166001600160a01b0316638da5cb5b6040518163ffffffff1660e01b815260040160206040518083038186803b158015612c9b57600080fd5b505afa158015612caf573d6000803e3d6000fd5b505050506040513d6020811015612cc557600080fd5b50516001600160a01b03163314612d07576040805162461bcd60e51b81526020600482015260016024820152603360f81b604482015290519081900360640190fd5b612d12336000613f73565b600360009054906101000a90046001600160a01b03166001600160a01b0316638456cb596040518163ffffffff1660e01b8152600401600060405180830381600087803b158015612d6257600080fd5b505af1158015612d76573d6000803e3d6000fd5b50506013805460ff191660051790555050600254604080516302d5537b60e41b815290516001600160a01b0390921691632d5537b091600480820192602092909190829003018186803b158015612dcc57600080fd5b505afa158015612de0573d6000803e3d6000fd5b505050506040513d6020811015612df657600080fd5b5051604080516311f2df1b60e21b815290516001600160a01b03909216916347cb7c6c9160048082019260009290919082900301818387803b158015612e3b57600080fd5b505af1158015612e4f573d6000803e3d6000fd5b50506040517f63565abe08812999f78f5a975601697854790c627fc35ad638bcf130f3e537c6925060009150a1565b60135460009060ff166005811115612e9257fe5b905090565b600354604080516370a0823160e01b81526001600160a01b03848116600483015291516000938493169182916370a0823191602480820192602092909190829003018186803b158015612ee957600080fd5b505afa158015612efd573d6000803e3d6000fd5b505050506040513d6020811015612f1357600080fd5b5051604080516318160ddd60e01b815290516001600160a01b038416916318160ddd916004808301926020929190829003018186803b158015612f5557600080fd5b505afa158015612f69573d6000803e3d6000fd5b505050506040513d6020811015612f7f57600080fd5b5051909350915050915091565b60115460125460135460145460ff9091169084565b600354604080516370a0823160e01b81523360048201819052915191926001600160a01b0316916370a0823191602480820192602092909190829003018186803b158015612fee57600080fd5b505afa158015613002573d6000803e3d6000fd5b505050506040513d602081101561301857600080fd5b505161304f576040805162461bcd60e51b81526020600482015260016024820152601960f91b604482015290519081900360640190fd5b600160135460ff16600581111561306257fe5b14613098576040805162461bcd60e51b81526020600482015260016024820152600d60fa1b604482015290519081900360640190fd5b6002546001600160a01b03166130ad33611b00565b156130e8576040805162461bcd60e51b81526020600480830191909152602482015263524d433160e01b604482015290519081900360640190fd5b600b54600f5460408051626c78a760e71b81526001600160a01b039283166004820152905161316e9285169163363c5380916024808301926020929190829003018186803b15801561313957600080fd5b505afa15801561314d573d6000803e3d6000fd5b505050506040513d602081101561316357600080fd5b50516112b23361355c565b81116131a6576040805162461bcd60e51b8152602060048201526002602482015261191b60f11b604482015290519081900360640190fd5b613215826001600160a01b0316639b9842c16040518163ffffffff1660e01b815260040160206040518083038186803b1580156131e257600080fd5b505afa1580156131f6573d6000803e3d6000fd5b505050506040513d602081101561320c57600080fd5b50514290613c26565b33600081815260046020908152604091829020600301939093558051918252517f5334a046b9fb8040bcaa4dd9a9ecbbe06e299568931f336e4aa6bbf51d511b80929181900390910190a1505050565b600260015414156132ab576040805162461bcd60e51b815260206004820152601f602482015260008051602061529f833981519152604482015290519081900360640190fd5b6002600190815560135460ff1660058111156132c357fe5b146132f9576040805162461bcd60e51b81526020600482015260016024820152603960f81b604482015290519081900360640190fd5b4261330384611b00565b101561333b576040805162461bcd60e51b8152602060048201526002602482015261031360f41b604482015290519081900360640190fd5b81613372576040805162461bcd60e51b8152602060048201526002602482015261313160f01b604482015290519081900360640190fd5b600f5460105460009161339a9184916001916001600160a01b039182169188911633306141c6565b6012549091506133aa9082613c26565b6012556001600160a01b038416600090815260046020819052604090912001546133d49082613c26565b6001600160a01b03851660009081526004602081905260409091200155600b546133fd8561355c565b1061341f576001600160a01b0384166000908152600460205260408120600301555b604080513381526001600160a01b03861660208201528082018590526060810183905290517f7745b8ee282b3bb1a0958b211eb3a34506deb988e5488e560a63b83ce03ba9d99181900360800190a15050600180555050565b600354604080516318160ddd60e01b815290516000926001600160a01b0316916318160ddd916004808301926020929190829003018186803b1580156134bd57600080fd5b505afa1580156134d1573d6000803e3d6000fd5b505050506040513d60208110156134e757600080fd5b5051905090565b6003546001600160a01b031681565b81613533576040805162461bcd60e51b81526020600482015260016024820152603760f81b604482015290519081900360640190fd5b61353e338383614360565b5050565b6000613556600560090154610b64846112de565b92915050565b600354604080516370a0823160e01b81526001600160a01b0384811660048301529151600093849316916370a08231916024808301926020929190829003018186803b1580156135ab57600080fd5b505afa1580156135bf573d6000803e3d6000fd5b505050506040513d60208110156135d557600080fd5b50516001600160a01b03808516600090815260046020818152604080842083015460035482516318160ddd60e01b8152925197985094966136749691956112b2959216936318160ddd938084019391929190829003018186803b15801561363b57600080fd5b505afa15801561364f573d6000803e3d6000fd5b505050506040513d602081101561366557600080fd5b505160115461094c9087613c80565b9050613680828261176e565b949350505050565b600260015414156136ce576040805162461bcd60e51b815260206004820152601f602482015260008051602061529f833981519152604482015290519081900360640190fd5b60026001556136dc84614438565b6010546001600160a01b03166000806136f487614681565b9092509050816001600160a01b0384161561378e57600f54604080516359846d2960e01b8152600481018690526001600160a01b0392831660248201529051918616916359846d29916044808201926020929091908290030181600087803b15801561375f57600080fd5b505af1158015613773573d6000803e3d6000fd5b505050506040513d602081101561378957600080fd5b505190505b6137998789836147d4565b600f546000906137b790889088906001600160a01b031688866142d1565b60035460408051632770a7eb60e21b81526001600160a01b038d81166004830152602482018890529151939450911691639dc29fac9160448082019260009290919082900301818387803b15801561380e57600080fd5b505af1158015613822573d6000803e3d6000fd5b5050506001600160a01b038a1660008181526004602081815260408084208481556001810185905560028101859055600381018590559092019290925580513381529182019290925280820184905290517f9b4fed4f3cd02b7624ed7521dce91b2f3aee138fc5c04d59f2f087e6b261a40d92509081900360600190a150506001805550505050505050565b60125460115460009182916138c291613c26565b9050610952600360009054906101000a90046001600160a01b03166001600160a01b03166318160ddd6040518163ffffffff1660e01b815260040160206040518083038186803b15801561391557600080fd5b505afa158015613929573d6000803e3d6000fd5b505050506040513d602081101561393f57600080fd5b50518261176e565b600081848411156139d65760405162461bcd60e51b81526004018080602001828103825283818151815260200191508051906020019080838360005b8381101561399b578181015183820152602001613983565b50505050905090810190601f1680156139c85780820380516001836020036101000a031916815260200191505b509250505060405180910390fd5b505050900390565b6000808211613a34576040805162461bcd60e51b815260206004820152601a60248201527f536166654d6174683a206469766973696f6e206279207a65726f000000000000604482015290519081900360640190fd5b818381613a3d57fe5b049392505050565b6013805460ff19166003179055600254604080516302d5537b60e41b815290516001600160a01b0390921691632d5537b091600480820192602092909190829003018186803b158015613a9757600080fd5b505afa158015613aab573d6000803e3d6000fd5b505050506040513d6020811015613ac157600080fd5b5051604080516311f2df1b60e21b815290516001600160a01b03909216916347cb7c6c9160048082019260009290919082900301818387803b158015613b0657600080fd5b505af1158015613b1a573d6000803e3d6000fd5b5050600554613b3592506001600160a01b0316905082613f73565b600360009054906101000a90046001600160a01b03166001600160a01b0316638456cb596040518163ffffffff1660e01b8152600401600060405180830381600087803b158015613b8557600080fd5b505af1158015613b99573d6000803e3d6000fd5b50506040517f1b3fded7559ac6f503ef6da9a5c2322391699306cf412307650cebb15ba6ea28925060009150a150565b600082821115613c20576040805162461bcd60e51b815260206004820152601e60248201527f536166654d6174683a207375627472616374696f6e206f766572666c6f770000604482015290519081900360640190fd5b50900390565b600082820183811015611301576040805162461bcd60e51b815260206004820152601b60248201527f536166654d6174683a206164646974696f6e206f766572666c6f770000000000604482015290519081900360640190fd5b600082613c8f57506000613556565b82820282848281613c9c57fe5b04146113015760405162461bcd60e51b81526004018080602001828103825260218152602001806153136021913960400191505060405180910390fd5b6000613ce48261485e565b905080613cf15750613d4a565b6001600160a01b038216600090815260046020526040902060010154613d179082613c26565b6001600160a01b03808416600090815260046020526040902060010191909155600a54613d479116823085613d4d565b50505b50565b600083613d5c57506000613680565b6001600160a01b038516613f2b5783341015613d99576040805162461bcd60e51b8152602060048201526000602482015290519081900360640190fd5b6001600160a01b0382163014613e43576040516000906001600160a01b0384169086908381818185875af1925050503d8060008114613df4576040519150601f19603f3d011682016040523d82523d6000602084013e613df9565b606091505b5050905080613e41576040805162461bcd60e51b815260206004820152600f60248201526e151c985b9cd9995c8819985a5b1959608a1b604482015290519081900360640190fd5b505b833410613ee257604051600090339034879003908381818185875af1925050503d8060008114613e8f576040519150601f19603f3d011682016040523d82523d6000602084013e613e94565b606091505b5050905080613edc576040805162461bcd60e51b815260206004820152600f60248201526e151c985b9cd9995c8819985a5b1959608a1b604482015290519081900360640190fd5b50613f24565b6040805162461bcd60e51b815260206004820152601260248201527124b739bab33334b1b4b2b73a1022ba3432b960711b604482015290519081900360640190fd5b5082613680565b6001600160a01b038316301415613f5557613f506001600160a01b0386168386614a62565b613f6a565b613f6a6001600160a01b038616848487614ab4565b50919392505050565b601054600f546012546011546001600160a01b039384169390921691600091613fa8918691613fa29190613c26565b90613bc9565b9050806001600160a01b0384161561404057836001600160a01b03166359846d2983856040518363ffffffff1660e01b815260040180838152602001826001600160a01b0316815260200192505050602060405180830381600087803b15801561401157600080fd5b505af1158015614025573d6000803e3d6000fd5b505050506040513d602081101561403b57600080fd5b505190505b600082156140cd576002546040805163ecced62360e01b815290516000926001600160a01b03169163ecced623916004808301926020929190829003018186803b15801561408d57600080fd5b505afa1580156140a1573d6000803e3d6000fd5b505050506040513d60208110156140b757600080fd5b505190506140c981308a86898b614b0e565b9150505b604080516001600160a01b03891681526020810183905281517fc30fcfbcaac9e0deffa719714eaa82396ff506a0d0d0eebe170830177288715d929181900390910190a15050506011929092555050600060125550565b600061412f30614c59565b15905090565b600a54600f54600654600092614159926001600160a01b0391821692911690611871565b600b5490915061417c906c0c9f2c9cd04674edea400000009061094c9084613c80565b8310156141b5576040805162461bcd60e51b8152602060048201526002602482015261199b60f11b604482015290519081900360640190fd5b6141c0848484614360565b50505050565b60008715614254576002546040805163ecced62360e01b8152905161424d926001600160a01b03169163ecced623916004808301926020929190829003018186803b15801561421457600080fd5b505afa158015614228573d6000803e3d6000fd5b505050506040513d602081101561423e57600080fd5b50518484888a8960018e614c5f565b9050611af5565b6002546040805163ecced62360e01b81529051611865926001600160a01b03169163ecced623916004808301926020929190829003018186803b15801561429a57600080fd5b505afa1580156142ae573d6000803e3d6000fd5b505050506040513d60208110156142c457600080fd5b50518484888a8c8a614c8b565b600080600260009054906101000a90046001600160a01b03166001600160a01b031663ecced6236040518163ffffffff1660e01b815260040160206040518083038186803b15801561432257600080fd5b505afa158015614336573d6000803e3d6000fd5b505050506040513d602081101561434c57600080fd5b50519050611af58130338689898c8e614c5f565b600260015414156143a6576040805162461bcd60e51b815260206004820152601f602482015260008051602061529f833981519152604482015290519081900360640190fd5b60026001908155600f546010546000926143d29285926001600160a01b039182169188911689306141c6565b6011549091506143e29082613c26565b601155604080516001600160a01b03861681526020810185905280820183905290517f11f8990ac38271f23dea447d5728e9914fca7cea2edda43af6c43c415f8bc30b9181900360600190a15050600180555050565b600160135460ff16600581111561444b57fe5b148015614459575060095442115b61448f576040805162461bcd60e51b8152602060048201526002602482015261323760f01b604482015290519081900360640190fd5b6001600160a01b0381166000908152600460205260409020600301546144b482611b00565b614505576040805162461bcd60e51b815260206004820152601f60248201527f4e6f206d617267696e2063616c6c20686173206265656e2063616c6c65642e00604482015290519081900360640190fd5b42811061453e576040805162461bcd60e51b8152602060048201526002602482015261064760f31b604482015290519081900360640190fd5b6145478261355c565b600254600f5460408051626c78a760e71b81526001600160a01b039283166004820152905161459b93929092169163363c538091602480820192602092909190829003018186803b15801561291257600080fd5b116145d2576040805162461bcd60e51b8152602060048201526002602482015261323960f01b604482015290519081900360640190fd5b600354604080516370a0823160e01b81526001600160a01b038581166004830152915191909216916370a08231916024808301926020929190829003018186803b15801561461f57600080fd5b505afa158015614633573d6000803e3d6000fd5b505050506040513d602081101561464957600080fd5b505161353e576040805162461bcd60e51b8152602060048201526002602482015261033360f41b604482015290519081900360640190fd5b601154600354604080516370a0823160e01b81526001600160a01b03858116600483015291516000948594909316916370a08231916024808301926020929190829003018186803b1580156146d557600080fd5b505afa1580156146e9573d6000803e3d6000fd5b505050506040513d60208110156146ff57600080fd5b5051600354604080516318160ddd60e01b81529051929450600092614783926001600160a01b0316916318160ddd916004808301926020929190829003018186803b15801561474d57600080fd5b505afa158015614761573d6000803e3d6000fd5b505050506040513d602081101561477757600080fd5b505161094c8486613c80565b6001600160a01b038616600090815260046020819052604090912001549091506147ad8383613bc9565b6011556012546147bd9082613bc9565b6012556147ca8282613c26565b9450505050915091565b6010546002546040805163acca944f60e01b815290516001600160a01b03938416939092169160009161482c9186918591829163acca944f916004808301926020929190829003018186803b158015611f7d57600080fd5b600a549091506001600160a01b031661484b876000838588338c6141c6565b5061485586613cd9565b50505050505050565b600080600260009054906101000a90046001600160a01b03166001600160a01b031663171e10856040518163ffffffff1660e01b815260040160206040518083038186803b1580156148af57600080fd5b505afa1580156148c3573d6000803e3d6000fd5b505050506040513d60208110156148d957600080fd5b505160408051630a3371f560e11b815230600482015290516001600160a01b0390921691631466e3ea91602480820192602092909190829003018186803b15801561492357600080fd5b505afa158015614937573d6000803e3d6000fd5b505050506040513d602081101561494d57600080fd5b50516001600160a01b0380851660009081526004602081815260408084206001015460035482516318160ddd60e01b815292519798509496613680969195613fa2959216936318160ddd938084019391929190829003018186803b1580156149b457600080fd5b505afa1580156149c8573d6000803e3d6000fd5b505050506040513d60208110156149de57600080fd5b5051600354604080516370a0823160e01b81526001600160a01b038b81166004830152915161094c938a9316916370a08231916024808301926020929190829003018186803b158015614a3057600080fd5b505afa158015614a44573d6000803e3d6000fd5b505050506040513d6020811015614a5a57600080fd5b505190613c80565b604080516001600160a01b038416602482015260448082018490528251808303909101815260649091019091526020810180516001600160e01b031663a9059cbb60e01b179052613d47908490614cad565b604080516001600160a01b0380861660248301528416604482015260648082018490528251808303909101815260849091019091526020810180516001600160e01b03166323b872dd60e01b1790526141c0908590614cad565b60006001600160a01b038616301415614bb65760408051633c6340f360e21b81526001600160a01b038581166004830152878116602483015284811660448301526064820187905291519189169163f18d03cc916084808201926020929091908290030181600087803b158015614b8457600080fd5b505af1158015614b98573d6000803e3d6000fd5b505050506040513d6020811015614bae57600080fd5b50614c4e9050565b60408051633713ade960e11b81526001600160a01b03858116600483015288811660248301528781166044830152848116606483015260848201879052915191891691636e275bd29160a4808201926020929091908290030181600087803b158015614c2157600080fd5b505af1158015614c35573d6000803e3d6000fd5b505050506040513d6020811015614c4b57600080fd5b50505b509195945050505050565b3b151590565b60008115614c7c57614c75898989898989614b0e565b9050611865565b614c7589898989898989614d5e565b60008215614ca15761424d888888888887614eba565b61424d84868989613d4d565b6060614d02826040518060400160405280602081526020017f5361666545524332303a206c6f772d6c6576656c2063616c6c206661696c6564815250856001600160a01b0316614f959092919063ffffffff16565b805190915015613d4757808060200190516020811015614d2157600080fd5b5051613d475760405162461bcd60e51b815260040180806020018281038252602a815260200180615334602a913960400191505060405180910390fd5b60006001600160a01b038716301415614e0f57604080516396885ed360e01b81526001600160a01b038881166004830152602482018890528681166044830152858116606483015284151560848301529151918a16916396885ed39160a4808201926020929091908290030181600087803b158015614ddc57600080fd5b505af1158015614df0573d6000803e3d6000fd5b505050506040513d6020811015614e0657600080fd5b50519050611af5565b60408051630bcbab2960e21b81526001600160a01b0389811660048301528881166024830152604482018890528681166064830152858116608483015284151560a48301529151918a1691632f2eaca49160c4808201926020929091908290030181600087803b158015614e8257600080fd5b505af1158015614e96573d6000803e3d6000fd5b505050506040513d6020811015614eac57600080fd5b505198975050505050505050565b6000614ec883858830613d4d565b5060006001600160a01b038416614ee0575083614f08565b826001600160a01b038116614ef25750875b614f066001600160a01b0386168288614fa4565b505b6040805162a3da2560e61b8152600481018790526001600160a01b038681166024830152858116604483015288811660648301529151918a16916328f68940918491608480830192602092919082900301818588803b158015614f6a57600080fd5b505af1158015614f7e573d6000803e3d6000fd5b50505050506040513d6020811015614eac57600080fd5b606061368084846000856150b7565b80158061502a575060408051636eb1769f60e11b81523060048201526001600160a01b03848116602483015291519185169163dd62ed3e91604480820192602092909190829003018186803b158015614ffc57600080fd5b505afa158015615010573d6000803e3d6000fd5b505050506040513d602081101561502657600080fd5b5051155b6150655760405162461bcd60e51b815260040180806020018281038252603681526020018061535e6036913960400191505060405180910390fd5b604080516001600160a01b038416602482015260448082018490528251808303909101815260649091019091526020810180516001600160e01b031663095ea7b360e01b179052613d47908490614cad565b6060824710156150f85760405162461bcd60e51b81526004018080602001828103825260268152602001806152bf6026913960400191505060405180910390fd5b61510185614c59565b615152576040805162461bcd60e51b815260206004820152601d60248201527f416464726573733a2063616c6c20746f206e6f6e2d636f6e7472616374000000604482015290519081900360640190fd5b60006060866001600160a01b031685876040518082805190602001908083835b602083106151915780518252601f199092019160209182019101615172565b6001836020036101000a03801982511681845116808217855250505050505090500191505060006040518083038185875af1925050503d80600081146151f3576040519150601f19603f3d011682016040523d82523d6000602084013e6151f8565b606091505b5091509150611af582828660608315615212575081611301565b8251156152225782518084602001fd5b60405162461bcd60e51b815260206004820181815284516024840152845185939192839260440191908501908083836000831561399b57818101518382015260200161398356fe506f6f6c3a3a6c6971756964617465506f6f6c202d204e6f20726561736f6e20746f206c69717569646174652074686520706f6f6c5265656e7472616e637947756172643a207265656e7472616e742063616c6c00416464726573733a20696e73756666696369656e742062616c616e636520666f722063616c6c496e697469616c697a61626c653a20636f6e747261637420697320616c726561647920696e697469616c697a6564536166654d6174683a206d756c7469706c69636174696f6e206f766572666c6f775361666545524332303a204552433230206f7065726174696f6e20646964206e6f7420737563636565645361666545524332303a20617070726f76652066726f6d206e6f6e2d7a65726f20746f206e6f6e2d7a65726f20616c6c6f77616e6365a26469706673582212203b2c4b28ddbe1e9fd2b9f373a643e0638e1aa1801f19781411c7d3d982dc7f9264736f6c63430007000033",
  "linkReferences": {},
  "deployedLinkReferences": {}
}