{
  "_format": "hh-sol-artifact-1",
  "contractName": "PoolFactory",
  "sourceName": "contracts/Pool/PoolFactory.sol",
  "abi": [
    {
      "anonymous": false,
      "inputs": [
        {
          "indexed": false,
          "internalType": "address",
          "name": "borrowToken",
          "type": "address"
        },
        {
          "indexed": false,
          "internalType": "bool",
          "name": "isSupported",
          "type": "bool"
        }
      ],
      "name": "BorrowTokenUpdated",
      "type": "event"
    },
    {
      "anonymous": false,
      "inputs": [
        {
          "indexed": false,
          "internalType": "address",
          "name": "collateralToken",
          "type": "address"
        },
        {
          "indexed": false,
          "internalType": "bool",
          "name": "isSupported",
          "type": "bool"
        }
      ],
      "name": "CollateralTokenUpdated",
      "type": "event"
    },
    {
      "anonymous": false,
      "inputs": [
        {
          "indexed": false,
          "internalType": "uint256",
          "name": "updatedCollectionPeriod",
          "type": "uint256"
        }
      ],
      "name": "CollectionPeriodUpdated",
      "type": "event"
    },
    {
      "anonymous": false,
      "inputs": [
        {
          "indexed": false,
          "internalType": "address",
          "name": "updatedExtension",
          "type": "address"
        }
      ],
      "name": "ExtensionImplUpdated",
      "type": "event"
    },
    {
      "anonymous": false,
      "inputs": [
        {
          "indexed": false,
          "internalType": "uint256",
          "name": "updatedGracePeriodPenaltyFraction",
          "type": "uint256"
        }
      ],
      "name": "GracePeriodPenaltyFractionUpdated",
      "type": "event"
    },
    {
      "anonymous": false,
      "inputs": [
        {
          "indexed": false,
          "internalType": "string",
          "name": "limitType",
          "type": "string"
        },
        {
          "indexed": false,
          "internalType": "uint256",
          "name": "max",
          "type": "uint256"
        },
        {
          "indexed": false,
          "internalType": "uint256",
          "name": "min",
          "type": "uint256"
        }
      ],
      "name": "LimitsUpdated",
      "type": "event"
    },
    {
      "anonymous": false,
      "inputs": [
        {
          "indexed": false,
          "internalType": "uint256",
          "name": "updatedLiquidatorRewardFraction",
          "type": "uint256"
        }
      ],
      "name": "LiquidatorRewardFractionUpdated",
      "type": "event"
    },
    {
      "anonymous": false,
      "inputs": [
        {
          "indexed": false,
          "internalType": "uint256",
          "name": "updatedMarginCallDuration",
          "type": "uint256"
        }
      ],
      "name": "MarginCallDurationUpdated",
      "type": "event"
    },
    {
      "anonymous": false,
      "inputs": [
        {
          "indexed": false,
          "internalType": "uint256",
          "name": "updatedMatchCollateralRatioInterval",
          "type": "uint256"
        }
      ],
      "name": "MatchCollateralRatioIntervalUpdated",
      "type": "event"
    },
    {
      "anonymous": false,
      "inputs": [
        {
          "indexed": true,
          "internalType": "address",
          "name": "previousOwner",
          "type": "address"
        },
        {
          "indexed": true,
          "internalType": "address",
          "name": "newOwner",
          "type": "address"
        }
      ],
      "name": "OwnershipTransferred",
      "type": "event"
    },
    {
      "anonymous": false,
      "inputs": [
        {
          "indexed": false,
          "internalType": "uint256",
          "name": "updatedPoolCancelPenalityFraction",
          "type": "uint256"
        }
      ],
      "name": "PoolCancelPenalityFractionUpdated",
      "type": "event"
    },
    {
      "anonymous": false,
      "inputs": [
        {
          "indexed": false,
          "internalType": "address",
          "name": "pool",
          "type": "address"
        },
        {
          "indexed": false,
          "internalType": "address",
          "name": "borrower",
          "type": "address"
        },
        {
          "indexed": false,
          "internalType": "address",
          "name": "poolToken",
          "type": "address"
        }
      ],
      "name": "PoolCreated",
      "type": "event"
    },
    {
      "anonymous": false,
      "inputs": [
        {
          "indexed": false,
          "internalType": "bytes4",
          "name": "updatedSelector",
          "type": "bytes4"
        }
      ],
      "name": "PoolInitSelectorUpdated",
      "type": "event"
    },
    {
      "anonymous": false,
      "inputs": [
        {
          "indexed": false,
          "internalType": "address",
          "name": "updatedPoolLogic",
          "type": "address"
        }
      ],
      "name": "PoolLogicUpdated",
      "type": "event"
    },
    {
      "anonymous": false,
      "inputs": [
        {
          "indexed": false,
          "internalType": "address",
          "name": "updatedPoolTokenImpl",
          "type": "address"
        }
      ],
      "name": "PoolTokenImplUpdated",
      "type": "event"
    },
    {
      "anonymous": false,
      "inputs": [
        {
          "indexed": false,
          "internalType": "bytes4",
          "name": "updatedSelector",
          "type": "bytes4"
        }
      ],
      "name": "PoolTokenInitFuncSelector",
      "type": "event"
    },
    {
      "anonymous": false,
      "inputs": [
        {
          "indexed": false,
          "internalType": "address",
          "name": "updatedPriceOracle",
          "type": "address"
        }
      ],
      "name": "PriceOracleUpdated",
      "type": "event"
    },
    {
      "anonymous": false,
      "inputs": [
        {
          "indexed": false,
          "internalType": "address",
          "name": "updatedProtocolFeeCollector",
          "type": "address"
        }
      ],
      "name": "ProtocolFeeCollectorUpdated",
      "type": "event"
    },
    {
      "anonymous": false,
      "inputs": [
        {
          "indexed": false,
          "internalType": "uint256",
          "name": "updatedProtocolFee",
          "type": "uint256"
        }
      ],
      "name": "ProtocolFeeFractionUpdated",
      "type": "event"
    },
    {
      "anonymous": false,
      "inputs": [
        {
          "indexed": false,
          "internalType": "address",
          "name": "updatedRepaymentImpl",
          "type": "address"
        }
      ],
      "name": "RepaymentImplUpdated",
      "type": "event"
    },
    {
      "anonymous": false,
      "inputs": [
        {
          "indexed": false,
          "internalType": "address",
          "name": "savingsAccount",
          "type": "address"
        }
      ],
      "name": "SavingsAccountUpdated",
      "type": "event"
    },
    {
      "anonymous": false,
      "inputs": [
        {
          "indexed": false,
          "internalType": "address",
          "name": "updatedStrategyRegistry",
          "type": "address"
        }
      ],
      "name": "StrategyRegistryUpdated",
      "type": "event"
    },
    {
      "anonymous": false,
      "inputs": [
        {
          "indexed": false,
          "internalType": "address",
          "name": "updatedBorrowerRegistry",
          "type": "address"
        }
      ],
      "name": "UserRegistryUpdated",
      "type": "event"
    },
    {
      "anonymous": false,
      "inputs": [
        {
          "indexed": true,
          "internalType": "address",
          "name": "token",
          "type": "address"
        },
        {
          "indexed": false,
          "internalType": "uint256",
          "name": "updatedVolatilityThreshold",
          "type": "uint256"
        }
      ],
      "name": "VolatilityThresholdUpdated",
      "type": "event"
    },
    {
      "inputs": [],
      "name": "MINTER_ROLE",
      "outputs": [
        {
          "internalType": "bytes32",
          "name": "",
          "type": "bytes32"
        }
      ],
      "stateMutability": "view",
      "type": "function"
    },
    {
      "inputs": [],
      "name": "PAUSER_ROLE",
      "outputs": [
        {
          "internalType": "bytes32",
          "name": "",
          "type": "bytes32"
        }
      ],
      "stateMutability": "view",
      "type": "function"
    },
    {
      "inputs": [],
      "name": "collectionPeriod",
      "outputs": [
        {
          "internalType": "uint256",
          "name": "",
          "type": "uint256"
        }
      ],
      "stateMutability": "view",
      "type": "function"
    },
    {
      "inputs": [
        {
          "internalType": "uint256",
          "name": "_poolSize",
          "type": "uint256"
        },
        {
          "internalType": "uint256",
          "name": "_minBorrowAmount",
          "type": "uint256"
        },
        {
          "internalType": "address",
          "name": "_borrowTokenType",
          "type": "address"
        },
        {
          "internalType": "address",
          "name": "_collateralTokenType",
          "type": "address"
        },
        {
          "internalType": "uint256",
          "name": "_collateralRatio",
          "type": "uint256"
        },
        {
          "internalType": "uint256",
          "name": "_borrowRate",
          "type": "uint256"
        },
        {
          "internalType": "uint256",
          "name": "_repaymentInterval",
          "type": "uint256"
        },
        {
          "internalType": "uint256",
          "name": "_noOfRepaymentIntervals",
          "type": "uint256"
        },
        {
          "internalType": "address",
          "name": "_poolSavingsStrategy",
          "type": "address"
        },
        {
          "internalType": "uint256",
          "name": "_collateralAmount",
          "type": "uint256"
        },
        {
          "internalType": "bool",
          "name": "_transferFromSavingsAccount",
          "type": "bool"
        },
        {
          "internalType": "bytes32",
          "name": "_salt",
          "type": "bytes32"
        },
        {
          "internalType": "address",
          "name": "_verifier",
          "type": "address"
        },
        {
          "internalType": "address",
          "name": "_lenderVerifier",
          "type": "address"
        }
      ],
      "name": "createPool",
      "outputs": [],
      "stateMutability": "payable",
      "type": "function"
    },
    {
      "inputs": [],
      "name": "extension",
      "outputs": [
        {
          "internalType": "address",
          "name": "",
          "type": "address"
        }
      ],
      "stateMutability": "view",
      "type": "function"
    },
    {
      "inputs": [],
      "name": "getProtocolFeeData",
      "outputs": [
        {
          "internalType": "uint256",
          "name": "",
          "type": "uint256"
        },
        {
          "internalType": "address",
          "name": "",
          "type": "address"
        }
      ],
      "stateMutability": "view",
      "type": "function"
    },
    {
      "inputs": [],
      "name": "gracePeriodPenaltyFraction",
      "outputs": [
        {
          "internalType": "uint256",
          "name": "",
          "type": "uint256"
        }
      ],
      "stateMutability": "view",
      "type": "function"
    },
    {
      "inputs": [
        {
          "internalType": "address",
          "name": "_admin",
          "type": "address"
        },
        {
          "internalType": "uint256",
          "name": "_collectionPeriod",
          "type": "uint256"
        },
        {
          "internalType": "uint256",
          "name": "_matchCollateralRatioInterval",
          "type": "uint256"
        },
        {
          "internalType": "uint256",
          "name": "_marginCallDuration",
          "type": "uint256"
        },
        {
          "internalType": "uint256",
          "name": "_gracePeriodPenaltyFraction",
          "type": "uint256"
        },
        {
          "internalType": "bytes4",
          "name": "_poolInitFuncSelector",
          "type": "bytes4"
        },
        {
          "internalType": "bytes4",
          "name": "_poolTokenInitFuncSelector",
          "type": "bytes4"
        },
        {
          "internalType": "uint256",
          "name": "_liquidatorRewardFraction",
          "type": "uint256"
        },
        {
          "internalType": "uint256",
          "name": "_poolCancelPenalityFraction",
          "type": "uint256"
        },
        {
          "internalType": "uint256",
          "name": "_protocolFeeFraction",
          "type": "uint256"
        },
        {
          "internalType": "address",
          "name": "_protocolFeeCollector",
          "type": "address"
        }
      ],
      "name": "initialize",
      "outputs": [],
      "stateMutability": "nonpayable",
      "type": "function"
    },
    {
      "inputs": [],
      "name": "liquidatorRewardFraction",
      "outputs": [
        {
          "internalType": "uint256",
          "name": "",
          "type": "uint256"
        }
      ],
      "stateMutability": "view",
      "type": "function"
    },
    {
      "inputs": [],
      "name": "marginCallDuration",
      "outputs": [
        {
          "internalType": "uint256",
          "name": "",
          "type": "uint256"
        }
      ],
      "stateMutability": "view",
      "type": "function"
    },
    {
      "inputs": [],
      "name": "matchCollateralRatioInterval",
      "outputs": [
        {
          "internalType": "uint256",
          "name": "",
          "type": "uint256"
        }
      ],
      "stateMutability": "view",
      "type": "function"
    },
    {
      "inputs": [
        {
          "internalType": "address",
          "name": "",
          "type": "address"
        }
      ],
      "name": "openBorrowPoolRegistry",
      "outputs": [
        {
          "internalType": "bool",
          "name": "",
          "type": "bool"
        }
      ],
      "stateMutability": "view",
      "type": "function"
    },
    {
      "inputs": [],
      "name": "owner",
      "outputs": [
        {
          "internalType": "address",
          "name": "",
          "type": "address"
        }
      ],
      "stateMutability": "view",
      "type": "function"
    },
    {
      "inputs": [],
      "name": "poolCancelPenalityFraction",
      "outputs": [
        {
          "internalType": "uint256",
          "name": "",
          "type": "uint256"
        }
      ],
      "stateMutability": "view",
      "type": "function"
    },
    {
      "inputs": [],
      "name": "poolImpl",
      "outputs": [
        {
          "internalType": "address",
          "name": "",
          "type": "address"
        }
      ],
      "stateMutability": "view",
      "type": "function"
    },
    {
      "inputs": [],
      "name": "poolInitFuncSelector",
      "outputs": [
        {
          "internalType": "bytes4",
          "name": "",
          "type": "bytes4"
        }
      ],
      "stateMutability": "view",
      "type": "function"
    },
    {
      "inputs": [],
      "name": "poolTokenImpl",
      "outputs": [
        {
          "internalType": "address",
          "name": "",
          "type": "address"
        }
      ],
      "stateMutability": "view",
      "type": "function"
    },
    {
      "inputs": [],
      "name": "poolTokenInitFuncSelector",
      "outputs": [
        {
          "internalType": "bytes4",
          "name": "",
          "type": "bytes4"
        }
      ],
      "stateMutability": "view",
      "type": "function"
    },
    {
      "inputs": [],
      "name": "priceOracle",
      "outputs": [
        {
          "internalType": "address",
          "name": "",
          "type": "address"
        }
      ],
      "stateMutability": "view",
      "type": "function"
    },
    {
      "inputs": [],
      "name": "renounceOwnership",
      "outputs": [],
      "stateMutability": "nonpayable",
      "type": "function"
    },
    {
      "inputs": [],
      "name": "repaymentImpl",
      "outputs": [
        {
          "internalType": "address",
          "name": "",
          "type": "address"
        }
      ],
      "stateMutability": "view",
      "type": "function"
    },
    {
      "inputs": [],
      "name": "savingsAccount",
      "outputs": [
        {
          "internalType": "address",
          "name": "",
          "type": "address"
        }
      ],
      "stateMutability": "view",
      "type": "function"
    },
    {
      "inputs": [
        {
          "internalType": "address",
          "name": "_poolImpl",
          "type": "address"
        },
        {
          "internalType": "address",
          "name": "_repaymentImpl",
          "type": "address"
        },
        {
          "internalType": "address",
          "name": "_poolTokenImpl",
          "type": "address"
        },
        {
          "internalType": "address",
          "name": "_userRegistry",
          "type": "address"
        },
        {
          "internalType": "address",
          "name": "_strategyRegistry",
          "type": "address"
        },
        {
          "internalType": "address",
          "name": "_priceOracle",
          "type": "address"
        },
        {
          "internalType": "address",
          "name": "_savingsAccount",
          "type": "address"
        },
        {
          "internalType": "address",
          "name": "_extension",
          "type": "address"
        }
      ],
      "name": "setImplementations",
      "outputs": [],
      "stateMutability": "nonpayable",
      "type": "function"
    },
    {
      "inputs": [],
      "name": "strategyRegistry",
      "outputs": [
        {
          "internalType": "address",
          "name": "",
          "type": "address"
        }
      ],
      "stateMutability": "view",
      "type": "function"
    },
    {
      "inputs": [
        {
          "internalType": "address",
          "name": "newOwner",
          "type": "address"
        }
      ],
      "name": "transferOwnership",
      "outputs": [],
      "stateMutability": "nonpayable",
      "type": "function"
    },
    {
      "inputs": [
        {
          "internalType": "uint256",
          "name": "_min",
          "type": "uint256"
        },
        {
          "internalType": "uint256",
          "name": "_max",
          "type": "uint256"
        }
      ],
      "name": "updateBorrowRateLimit",
      "outputs": [],
      "stateMutability": "nonpayable",
      "type": "function"
    },
    {
      "inputs": [
        {
          "internalType": "uint256",
          "name": "_min",
          "type": "uint256"
        },
        {
          "internalType": "uint256",
          "name": "_max",
          "type": "uint256"
        }
      ],
      "name": "updateCollateralRatioLimit",
      "outputs": [],
      "stateMutability": "nonpayable",
      "type": "function"
    },
    {
      "inputs": [
        {
          "internalType": "uint256",
          "name": "_collectionPeriod",
          "type": "uint256"
        }
      ],
      "name": "updateCollectionPeriod",
      "outputs": [],
      "stateMutability": "nonpayable",
      "type": "function"
    },
    {
      "inputs": [
        {
          "internalType": "uint256",
          "name": "_gracePeriodPenaltyFraction",
          "type": "uint256"
        }
      ],
      "name": "updateGracePeriodPenaltyFraction",
      "outputs": [],
      "stateMutability": "nonpayable",
      "type": "function"
    },
    {
      "inputs": [
        {
          "internalType": "uint256",
          "name": "_liquidatorRewardFraction",
          "type": "uint256"
        }
      ],
      "name": "updateLiquidatorRewardFraction",
      "outputs": [],
      "stateMutability": "nonpayable",
      "type": "function"
    },
    {
      "inputs": [
        {
          "internalType": "uint256",
          "name": "_marginCallDuration",
          "type": "uint256"
        }
      ],
      "name": "updateMarginCallDuration",
      "outputs": [],
      "stateMutability": "nonpayable",
      "type": "function"
    },
    {
      "inputs": [
        {
          "internalType": "uint256",
          "name": "_matchCollateralRatioInterval",
          "type": "uint256"
        }
      ],
      "name": "updateMatchCollateralRatioInterval",
      "outputs": [],
      "stateMutability": "nonpayable",
      "type": "function"
    },
    {
      "inputs": [
        {
          "internalType": "uint256",
          "name": "_min",
          "type": "uint256"
        },
        {
          "internalType": "uint256",
          "name": "_max",
          "type": "uint256"
        }
      ],
      "name": "updateNoOfRepaymentIntervalsLimit",
      "outputs": [],
      "stateMutability": "nonpayable",
      "type": "function"
    },
    {
      "inputs": [
        {
          "internalType": "uint256",
          "name": "_poolCancelPenalityFraction",
          "type": "uint256"
        }
      ],
      "name": "updatePoolCancelPenalityFraction",
      "outputs": [],
      "stateMutability": "nonpayable",
      "type": "function"
    },
    {
      "inputs": [
        {
          "internalType": "address",
          "name": "_poolLogic",
          "type": "address"
        }
      ],
      "name": "updatePoolLogic",
      "outputs": [],
      "stateMutability": "nonpayable",
      "type": "function"
    },
    {
      "inputs": [
        {
          "internalType": "uint256",
          "name": "_min",
          "type": "uint256"
        },
        {
          "internalType": "uint256",
          "name": "_max",
          "type": "uint256"
        }
      ],
      "name": "updatePoolSizeLimit",
      "outputs": [],
      "stateMutability": "nonpayable",
      "type": "function"
    },
    {
      "inputs": [
        {
          "internalType": "address",
          "name": "_poolTokenImpl",
          "type": "address"
        }
      ],
      "name": "updatePoolTokenImpl",
      "outputs": [],
      "stateMutability": "nonpayable",
      "type": "function"
    },
    {
      "inputs": [
        {
          "internalType": "bytes4",
          "name": "_functionId",
          "type": "bytes4"
        }
      ],
      "name": "updatePoolTokenInitFuncSelector",
      "outputs": [],
      "stateMutability": "nonpayable",
      "type": "function"
    },
    {
      "inputs": [
        {
          "internalType": "address",
          "name": "_priceOracle",
          "type": "address"
        }
      ],
      "name": "updatePriceoracle",
      "outputs": [],
      "stateMutability": "nonpayable",
      "type": "function"
    },
    {
      "inputs": [
        {
          "internalType": "address",
          "name": "_protocolFeeCollector",
          "type": "address"
        }
      ],
      "name": "updateProtocolFeeCollector",
      "outputs": [],
      "stateMutability": "nonpayable",
      "type": "function"
    },
    {
      "inputs": [
        {
          "internalType": "uint256",
          "name": "_protocolFee",
          "type": "uint256"
        }
      ],
      "name": "updateProtocolFeeFraction",
      "outputs": [],
      "stateMutability": "nonpayable",
      "type": "function"
    },
    {
      "inputs": [
        {
          "internalType": "address",
          "name": "_repaymentImpl",
          "type": "address"
        }
      ],
      "name": "updateRepaymentImpl",
      "outputs": [],
      "stateMutability": "nonpayable",
      "type": "function"
    },
    {
      "inputs": [
        {
          "internalType": "uint256",
          "name": "_min",
          "type": "uint256"
        },
        {
          "internalType": "uint256",
          "name": "_max",
          "type": "uint256"
        }
      ],
      "name": "updateRepaymentIntervalLimit",
      "outputs": [],
      "stateMutability": "nonpayable",
      "type": "function"
    },
    {
      "inputs": [
        {
          "internalType": "address",
          "name": "_savingsAccount",
          "type": "address"
        }
      ],
      "name": "updateSavingsAccount",
      "outputs": [],
      "stateMutability": "nonpayable",
      "type": "function"
    },
    {
      "inputs": [
        {
          "internalType": "address",
          "name": "_strategyRegistry",
          "type": "address"
        }
      ],
      "name": "updateStrategyRegistry",
      "outputs": [],
      "stateMutability": "nonpayable",
      "type": "function"
    },
    {
      "inputs": [
        {
          "internalType": "address",
          "name": "_borrowToken",
          "type": "address"
        },
        {
          "internalType": "bool",
          "name": "_isSupported",
          "type": "bool"
        }
      ],
      "name": "updateSupportedBorrowTokens",
      "outputs": [],
      "stateMutability": "nonpayable",
      "type": "function"
    },
    {
      "inputs": [
        {
          "internalType": "address",
          "name": "_collateralToken",
          "type": "address"
        },
        {
          "internalType": "bool",
          "name": "_isSupported",
          "type": "bool"
        }
      ],
      "name": "updateSupportedCollateralTokens",
      "outputs": [],
      "stateMutability": "nonpayable",
      "type": "function"
    },
    {
      "inputs": [
        {
          "internalType": "address",
          "name": "_userRegistry",
          "type": "address"
        }
      ],
      "name": "updateUserRegistry",
      "outputs": [],
      "stateMutability": "nonpayable",
      "type": "function"
    },
    {
      "inputs": [
        {
          "internalType": "address",
          "name": "_token",
          "type": "address"
        },
        {
          "internalType": "uint256",
          "name": "_volatilityThreshold",
          "type": "uint256"
        }
      ],
      "name": "updateVolatilityThreshold",
      "outputs": [],
      "stateMutability": "nonpayable",
      "type": "function"
    },
    {
      "inputs": [
        {
          "internalType": "address",
          "name": "_extension",
          "type": "address"
        }
      ],
      "name": "updatedExtension",
      "outputs": [],
      "stateMutability": "nonpayable",
      "type": "function"
    },
    {
      "inputs": [
        {
          "internalType": "bytes4",
          "name": "_functionId",
          "type": "bytes4"
        }
      ],
      "name": "updatepoolInitFuncSelector",
      "outputs": [],
      "stateMutability": "nonpayable",
      "type": "function"
    },
    {
      "inputs": [],
      "name": "userRegistry",
      "outputs": [
        {
          "internalType": "address",
          "name": "",
          "type": "address"
        }
      ],
      "stateMutability": "view",
      "type": "function"
    },
    {
      "inputs": [
        {
          "internalType": "address",
          "name": "",
          "type": "address"
        }
      ],
      "name": "volatilityThreshold",
      "outputs": [
        {
          "internalType": "uint256",
          "name": "",
          "type": "uint256"
        }
      ],
      "stateMutability": "view",
      "type": "function"
    },
    {
      "inputs": [],
      "name": "votingPassRatio",
      "outputs": [
        {
          "internalType": "uint256",
          "name": "",
          "type": "uint256"
        }
      ],
      "stateMutability": "view",
      "type": "function"
    }
  ],
  "bytecode": "0x608060405234801561001057600080fd5b506145ad806100206000396000f3fe608060405260043610620003865760003560e01c80637bad520711620001d5578063ba330bc8116200010f578063de9de06e11620000a3578063e35ddc071162000079578063e35ddc071462000d24578063e63ab1e91462000d3c578063ecced6231462000d54578063f2fde38b1462000d6c5762000386565b8063de9de06e1462000c8b578063e030a06d1462000cb9578063e2613ffe1462000ced5762000386565b8063ce2f9f4c11620000e5578063ce2f9f4c1462000bf6578063d080bf271462000c24578063d53913931462000c3c578063dcc314db1462000c545762000386565b8063ba330bc81462000b3b578063bf658a2e1462000b86578063cad111ab1462000bbe5762000386565b8063950bb6d31162000187578063a3170fe5116200015d578063a3170fe51462000a89578063aa76834d1462000abe578063acca944f1462000aec578063b5e521671462000b045762000386565b8063950bb6d314620009d15780639732e24c1462000a595780639b9842c11462000a715762000386565b80637bad520714620008a05780637be4a7b514620008d95780637cf0aec814620009185780637d3edfee146200094c578063800987ba146200098b5780638da5cb5b14620009b95762000386565b8063406652c111620002c557806363832d5411620002595780636cf14f9d116200022f5780636cf14f9d1462000805578063715018a6146200083c57806374113a2714620008545780637908423b146200086c5762000386565b806363832d54146200079e578063651faffa14620007b65780636687e7b714620007ed5762000386565b806352cd2783116200029b57806352cd278314620006a8578063532cdea514620006df578063565b54ea146200074f5780635c7460d614620007865762000386565b8063406652c1146200061c5780634c1f2dc514620006595780634e73f74b14620006905762000386565b806329ae4a6f116200033d5780632e37d82611620003135780632e37d826146200056257806334c0af541462000599578063363c538014620005cd5780633a02ab3c14620006045762000386565b806329ae4a6f14620004ee5780632d5537b0146200051c5780632e3561ee14620005345762000386565b80630971976e146200038b57806310d22a2914620003b5578063112dc9dc1462000440578063171e1085146200046e57806317c03f0714620004a25780632630c12f14620004d6575b600080fd5b3480156200039857600080fd5b50620003a362000da3565b60408051918252519081900360200190f35b348015620003c257600080fd5b506200043e6004803603610160811015620003dc57600080fd5b506001600160a01b0381358116916020810135916040820135916060810135916080820135916001600160e01b031960a082013581169260c08301359091169160e0810135916101008201359161012081013591610140909101351662000da9565b005b3480156200044d57600080fd5b506200043e600480360360208110156200046657600080fd5b503562000ee1565b3480156200047b57600080fd5b506200048662000f57565b604080516001600160a01b039092168252519081900360200190f35b348015620004af57600080fd5b506200043e60048036036040811015620004c857600080fd5b508035906020013562000f66565b348015620004e357600080fd5b506200048662001043565b348015620004fb57600080fd5b506200043e600480360360208110156200051457600080fd5b503562001052565b3480156200052957600080fd5b5062000486620010c5565b3480156200054157600080fd5b506200043e600480360360208110156200055a57600080fd5b5035620010d4565b3480156200056f57600080fd5b506200043e600480360360208110156200058857600080fd5b50356001600160a01b031662001147565b348015620005a657600080fd5b506200043e60048036036040811015620005bf57600080fd5b5080359060200135620011ba565b348015620005da57600080fd5b50620003a360048036036020811015620005f357600080fd5b50356001600160a01b031662001291565b3480156200061157600080fd5b50620003a3620012a3565b3480156200062957600080fd5b506200043e600480360360408110156200064257600080fd5b506001600160a01b038135169060200135620012a9565b3480156200066657600080fd5b506200043e600480360360208110156200067f57600080fd5b50356001600160a01b031662001321565b3480156200069d57600080fd5b50620003a362001394565b348015620006b557600080fd5b506200043e60048036036020811015620006ce57600080fd5b50356001600160a01b03166200139a565b348015620006ec57600080fd5b506200043e60048036036101008110156200070657600080fd5b506001600160a01b038135811691602081013582169160408201358116916060810135821691608082013581169160a081013582169160c082013581169160e00135166200140d565b3480156200075c57600080fd5b506200043e600480360360208110156200077557600080fd5b50356001600160a01b0316620014d7565b3480156200079357600080fd5b50620004866200154a565b348015620007ab57600080fd5b506200048662001559565b348015620007c357600080fd5b506200043e60048036036020811015620007dc57600080fd5b50356001600160a01b03166200156f565b348015620007fa57600080fd5b50620003a3620015e2565b3480156200081257600080fd5b506200043e600480360360208110156200082b57600080fd5b50356001600160a01b0316620015e8565b3480156200084957600080fd5b506200043e6200165b565b3480156200086157600080fd5b50620003a36200170d565b3480156200087957600080fd5b506200043e600480360360408110156200089257600080fd5b508035906020013562001713565b348015620008ad57600080fd5b50620008b8620017e9565b604080519283526001600160a01b0390911660208301528051918290030190f35b348015620008e657600080fd5b506200043e60048036036040811015620008ff57600080fd5b506001600160a01b0381351690602001351515620017fc565b3480156200092557600080fd5b506200043e600480360360408110156200093e57600080fd5b508035906020013562001870565b3480156200095957600080fd5b506200043e600480360360408110156200097257600080fd5b506001600160a01b03813516906020013515156200193f565b3480156200099857600080fd5b506200043e60048036036020811015620009b157600080fd5b5035620019b3565b348015620009c657600080fd5b506200048662001a26565b6200043e60048036036101c0811015620009ea57600080fd5b508035906020810135906001600160a01b036040820135811691606081013582169160808201359160a08101359160c08201359160e08101359161010082013581169161012081013591610140820135151591610160810135916101808201358116916101a001351662001a37565b34801562000a6657600080fd5b506200048662001fe7565b34801562000a7e57600080fd5b50620003a362001ff6565b34801562000a9657600080fd5b5062000aa162001ffc565b604080516001600160e01b03199092168252519081900360200190f35b34801562000acb57600080fd5b506200043e6004803603602081101562000ae457600080fd5b503562002005565b34801562000af957600080fd5b50620003a362002078565b34801562000b1157600080fd5b506200043e6004803603602081101562000b2a57600080fd5b50356001600160a01b03166200207e565b34801562000b4857600080fd5b5062000b726004803603602081101562000b6157600080fd5b50356001600160a01b0316620020f1565b604080519115158252519081900360200190f35b34801562000b9357600080fd5b506200043e6004803603602081101562000bac57600080fd5b50356001600160e01b03191662002106565b34801562000bcb57600080fd5b506200043e6004803603602081101562000be457600080fd5b50356001600160e01b03191662002179565b34801562000c0357600080fd5b506200043e6004803603602081101562000c1c57600080fd5b5035620021ec565b34801562000c3157600080fd5b50620004866200225f565b34801562000c4957600080fd5b50620003a36200226e565b34801562000c6157600080fd5b506200043e6004803603602081101562000c7a57600080fd5b50356001600160a01b031662002292565b34801562000c9857600080fd5b506200043e6004803603602081101562000cb157600080fd5b503562002305565b34801562000cc657600080fd5b506200043e6004803603604081101562000cdf57600080fd5b508035906020013562002378565b34801562000cfa57600080fd5b506200043e6004803603602081101562000d1357600080fd5b50356001600160a01b031662002449565b34801562000d3157600080fd5b5062000aa1620024bc565b34801562000d4957600080fd5b50620003a3620024cd565b34801562000d6157600080fd5b5062000486620024f1565b34801562000d7957600080fd5b506200043e6004803603602081101562000d9257600080fd5b50356001600160a01b031662002500565b606d5481565b600054610100900460ff168062000dc5575062000dc56200260b565b8062000dd4575060005460ff16155b62000e115760405162461bcd60e51b815260040180806020018281038252602e81526020018062004348602e913960400191505060405180910390fd5b600054610100900460ff1615801562000e3d576000805460ff1961ff0019909116610100171660011790555b62000e476200261e565b62000e528c62002500565b62000e5d8b620026db565b62000e688a62002716565b62000e738962002751565b62000e7e886200278c565b62000e8987620027c7565b62000e94866200281b565b62000e9f856200287a565b62000eaa84620028b5565b62000eb583620028f0565b62000ec0826200292b565b801562000ed3576000805461ff00191690555b505050505050505050505050565b62000eeb6200297f565b6001600160a01b031662000efe62001a26565b6001600160a01b03161462000f49576040805162461bcd60e51b815260206004820181905260248201526000805160206200442a833981519152604482015290519081900360640190fd5b62000f54816200287a565b50565b606a546001600160a01b031681565b62000f706200297f565b6001600160a01b031662000f8362001a26565b6001600160a01b03161462000fce576040805162461bcd60e51b815260206004820181905260248201526000805160206200442a833981519152604482015290519081900360640190fd5b60408051808201825283815260209081018390526082849055608383905581519081018490528082018390526060808252601690820152754e6f4f6652657061796d656e74496e74657276616c7360501b608082015290516000805160206200440a8339815191529181900360a00190a15050565b606b546001600160a01b031681565b6200105c6200297f565b6001600160a01b03166200106f62001a26565b6001600160a01b031614620010ba576040805162461bcd60e51b815260206004820181905260248201526000805160206200442a833981519152604482015290519081900360640190fd5b62000f5481620026db565b6069546001600160a01b031681565b620010de6200297f565b6001600160a01b0316620010f162001a26565b6001600160a01b0316146200113c576040805162461bcd60e51b815260206004820181905260248201526000805160206200442a833981519152604482015290519081900360640190fd5b62000f5481620028b5565b620011516200297f565b6001600160a01b03166200116462001a26565b6001600160a01b031614620011af576040805162461bcd60e51b815260206004820181905260248201526000805160206200442a833981519152604482015290519081900360640190fd5b62000f548162002983565b620011c46200297f565b6001600160a01b0316620011d762001a26565b6001600160a01b03161462001222576040805162461bcd60e51b815260206004820181905260248201526000805160206200442a833981519152604482015290519081900360640190fd5b604080518082018252838152602090810183905260808481556081849055825191820185905281830184905260608083526011908301527014995c185e5b595b9d125b9d195c9d985b607a1b9082015290516000805160206200440a8339815191529181900360a00190a15050565b60706020526000908152604090205481565b606e5481565b620012b36200297f565b6001600160a01b0316620012c662001a26565b6001600160a01b03161462001311576040805162461bcd60e51b815260206004820181905260248201526000805160206200442a833981519152604482015290519081900360640190fd5b6200131d8282620029d7565b5050565b6200132b6200297f565b6001600160a01b03166200133e62001a26565b6001600160a01b03161462001389576040805162461bcd60e51b815260206004820181905260248201526000805160206200442a833981519152604482015290519081900360640190fd5b62000f548162002a2b565b60715481565b620013a46200297f565b6001600160a01b0316620013b762001a26565b6001600160a01b03161462001402576040805162461bcd60e51b815260206004820181905260248201526000805160206200442a833981519152604482015290519081900360640190fd5b62000f548162002a7f565b620014176200297f565b6001600160a01b03166200142a62001a26565b6001600160a01b03161462001475576040805162461bcd60e51b815260206004820181905260248201526000805160206200442a833981519152604482015290519081900360640190fd5b620014808862002ad3565b6200148b8762002b38565b620014968662002b8c565b620014a18262002be0565b620014ac8162002c34565b620014b78562002983565b620014c28462002a2b565b620014cd8362002a7f565b5050505050505050565b620014e16200297f565b6001600160a01b0316620014f462001a26565b6001600160a01b0316146200153f576040805162461bcd60e51b815260206004820181905260248201526000805160206200442a833981519152604482015290519081900360640190fd5b62000f54816200292b565b6067546001600160a01b031681565b606554600160401b90046001600160a01b031681565b620015796200297f565b6001600160a01b03166200158c62001a26565b6001600160a01b031614620015d7576040805162461bcd60e51b815260206004820181905260248201526000805160206200442a833981519152604482015290519081900360640190fd5b62000f548162002b38565b60745481565b620015f26200297f565b6001600160a01b03166200160562001a26565b6001600160a01b03161462001650576040805162461bcd60e51b815260206004820181905260248201526000805160206200442a833981519152604482015290519081900360640190fd5b62000f548162002be0565b620016656200297f565b6001600160a01b03166200167862001a26565b6001600160a01b031614620016c3576040805162461bcd60e51b815260206004820181905260248201526000805160206200442a833981519152604482015290519081900360640190fd5b6033546040516000916001600160a01b0316907f8be0079c531659141344cd1fd0a4f28419497f9722a3daafe3b4186f6b6457e0908390a3603380546001600160a01b0319169055565b60735481565b6200171d6200297f565b6001600160a01b03166200173062001a26565b6001600160a01b0316146200177b576040805162461bcd60e51b815260206004820181905260248201526000805160206200442a833981519152604482015290519081900360640190fd5b6040805180820182528381526020908101839052607c849055607d83905581519081018490528082018390526060808252600f908201526e436f6c6c61746572616c526174696f60881b608082015290516000805160206200440a8339815191529181900360a00190a15050565b6075546076546001600160a01b03169091565b620018066200297f565b6001600160a01b03166200181962001a26565b6001600160a01b03161462001864576040805162461bcd60e51b815260206004820181905260248201526000805160206200442a833981519152604482015290519081900360640190fd5b6200131d828262002c88565b6200187a6200297f565b6001600160a01b03166200188d62001a26565b6001600160a01b031614620018d8576040805162461bcd60e51b815260206004820181905260248201526000805160206200442a833981519152604482015290519081900360640190fd5b6040805180820182528381526020908101839052607a849055607b8390558151908101849052808201839052606080825260089082015267506f6f6c53697a6560c01b608082015290516000805160206200440a8339815191529181900360a00190a15050565b620019496200297f565b6001600160a01b03166200195c62001a26565b6001600160a01b031614620019a7576040805162461bcd60e51b815260206004820181905260248201526000805160206200442a833981519152604482015290519081900360640190fd5b6200131d828262002cec565b620019bd6200297f565b6001600160a01b0316620019d062001a26565b6001600160a01b03161462001a1b576040805162461bcd60e51b815260206004820181905260248201526000805160206200442a833981519152604482015290519081900360640190fd5b62000f548162002716565b600062001a3262002d50565b905090565b60675460408051625a87b960e31b81523360048201526001600160a01b0380861660248301529151859392909216916302d43dc891604480820192602092909190829003018186803b15801562001a8d57600080fd5b505afa15801562001aa2573d6000803e3d6000fd5b505050506040513d602081101562001ab957600080fd5b505162001af85760405162461bcd60e51b8152600401808060200182810382526041815260200180620042cb6041913960600191505060405180910390fd5b6001600160a01b038c1662001b475785341462001b475760405162461bcd60e51b8152600401808060200182810382526052815260200180620044bb6052913960600191505060405180910390fd5b8e8e111562001b885760405162461bcd60e51b8152600401808060200182810382526033815260200180620041fc6033913960400191505060405180910390fd5b6001600160a01b038c166000908152607060205260409020548b101562001be15760405162461bcd60e51b8152600401808060200182810382526031815260200180620043af6031913960400191505060405180910390fd5b6001600160a01b038d1660009081526077602052604090205460ff1662001c3a5760405162461bcd60e51b8152600401808060200182810382526033815260200180620044886033913960400191505060405180910390fd5b6001600160a01b038c1660009081526078602052604090205460ff1662001c935760405162461bcd60e51b8152600401808060200182810382526037815260200180620045416037913960400191505060405180910390fd5b606b60009054906101000a90046001600160a01b03166001600160a01b031663633defbd8d8f6040518363ffffffff1660e01b815260040180836001600160a01b03168152602001826001600160a01b031681526020019250505060206040518083038186803b15801562001d0757600080fd5b505afa15801562001d1c573d6000803e3d6000fd5b505050506040513d602081101562001d3357600080fd5b505162001d725760405162461bcd60e51b815260040180806020018281038252603f8152602001806200428c603f913960400191505060405180910390fd5b6068546040805163038defd760e01b81526001600160a01b038a811660048301529151919092169163038defd7916024808301926020929190829003018186803b15801562001dc057600080fd5b505afa15801562001dd5573d6000803e3d6000fd5b505050506040513d602081101562001dec57600080fd5b505162001e2b5760405162461bcd60e51b815260040180806020018281038252602a815260200180620043e0602a913960400191505060405180910390fd5b62001e428f607a60000154607a6001015462002d5f565b62001e7f5760405162461bcd60e51b81526004018080602001828103825260348152602001806200450d6034913960400191505060405180910390fd5b607c54607d5462001e92918d9162002d5f565b62001ecf5760405162461bcd60e51b815260040180806020018281038252603c8152602001806200430c603c913960400191505060405180910390fd5b607e54607f5462001ee2918c9162002d5f565b62001f1f5760405162461bcd60e51b8152600401808060200182810382526037815260200180620042556037913960400191505060405180910390fd5b60825460835462001f32918a9162002d5f565b62001f6f5760405162461bcd60e51b8152600401808060200182810382526039815260200180620043766039913960400191505060405180910390fd5b60805460815462001f82918b9162002d5f565b62001fbf5760405162461bcd60e51b815260040180806020018281038252603e8152602001806200444a603e913960400191505060405180910390fd5b62001fd68f8f8f8f8f8f8f8f8f8f8f8f8e62002dbe565b505050505050505050505050505050565b6066546001600160a01b031681565b606f5481565b60655460e01b81565b6200200f6200297f565b6001600160a01b03166200202262001a26565b6001600160a01b0316146200206d576040805162461bcd60e51b815260206004820181905260248201526000805160206200442a833981519152604482015290519081900360640190fd5b62000f54816200278c565b60725481565b620020886200297f565b6001600160a01b03166200209b62001a26565b6001600160a01b031614620020e6576040805162461bcd60e51b815260206004820181905260248201526000805160206200442a833981519152604482015290519081900360640190fd5b62000f548162002b8c565b60796020526000908152604090205460ff1681565b620021106200297f565b6001600160a01b03166200212362001a26565b6001600160a01b0316146200216e576040805162461bcd60e51b815260206004820181905260248201526000805160206200442a833981519152604482015290519081900360640190fd5b62000f5481620027c7565b620021836200297f565b6001600160a01b03166200219662001a26565b6001600160a01b031614620021e1576040805162461bcd60e51b815260206004820181905260248201526000805160206200442a833981519152604482015290519081900360640190fd5b62000f54816200281b565b620021f66200297f565b6001600160a01b03166200220962001a26565b6001600160a01b03161462002254576040805162461bcd60e51b815260206004820181905260248201526000805160206200442a833981519152604482015290519081900360640190fd5b62000f548162002751565b6068546001600160a01b031681565b7f9f2df0fed2c77648de5860a4cc508cd0818c85b8b8a1ab4ceeef8d981c8956a681565b6200229c6200297f565b6001600160a01b0316620022af62001a26565b6001600160a01b031614620022fa576040805162461bcd60e51b815260206004820181905260248201526000805160206200442a833981519152604482015290519081900360640190fd5b62000f548162002ad3565b6200230f6200297f565b6001600160a01b03166200232262001a26565b6001600160a01b0316146200236d576040805162461bcd60e51b815260206004820181905260248201526000805160206200442a833981519152604482015290519081900360640190fd5b62000f5481620028f0565b620023826200297f565b6001600160a01b03166200239562001a26565b6001600160a01b031614620023e0576040805162461bcd60e51b815260206004820181905260248201526000805160206200442a833981519152604482015290519081900360640190fd5b6040805180820182528381526020908101839052607e849055607f83905581519081018490528082018390526060808252600a9082015269426f72726f775261746560b01b608082015290516000805160206200440a8339815191529181900360a00190a15050565b620024536200297f565b6001600160a01b03166200246662001a26565b6001600160a01b031614620024b1576040805162461bcd60e51b815260206004820181905260248201526000805160206200442a833981519152604482015290519081900360640190fd5b62000f548162002c34565b606554640100000000900460e01b81565b7f65d7a28e3265b37a6474929f336521b332c1681b933f6cb9f3376673440d862a81565b606c546001600160a01b031681565b6200250a6200297f565b6001600160a01b03166200251d62001a26565b6001600160a01b03161462002568576040805162461bcd60e51b815260206004820181905260248201526000805160206200442a833981519152604482015290519081900360640190fd5b6001600160a01b038116620025af5760405162461bcd60e51b81526004018080602001828103825260268152602001806200422f6026913960400191505060405180910390fd5b6033546040516001600160a01b038084169216907f8be0079c531659141344cd1fd0a4f28419497f9722a3daafe3b4186f6b6457e090600090a3603380546001600160a01b0319166001600160a01b0392909216919091179055565b6000620026183062003232565b15905090565b600054610100900460ff16806200263a57506200263a6200260b565b8062002649575060005460ff16155b620026865760405162461bcd60e51b815260040180806020018281038252602e81526020018062004348602e913960400191505060405180910390fd5b600054610100900460ff16158015620026b2576000805460ff1961ff0019909116610100171660011790555b620026bc62003238565b620026c6620032e0565b801562000f54576000805461ff001916905550565b606d8190556040805182815290517f51aa68fcf65b26bbc5a9db0b5933c71c642bc16e263e1d8c9b018a3b951a2cda9181900360200190a150565b606e8190556040805182815290517fd69e359b3075417225bd0005493180e032a9745f5228e51204275897e9d3135e9181900360200190a150565b606f8190556040805182815290517f1e85e6efe46a52b040a7311c9f1e10e4fcda6cae6b435437cb19b633e2e655449181900360200190a150565b60718190556040805182815290517f949071e044e4732649303ce3f5f4ccb54a8840a73b510ae45d5cd9b81e930d889181900360200190a150565b6065805463ffffffff191660e083901c179055604080516001600160e01b03198316815290517fbeee152d2a9de9377f4b5c9385c813ffac47b3bac8f9fc5057902b1f032ea413916020908290030190a150565b6065805467ffffffff00000000191664010000000060e084901c02179055604080516001600160e01b03198316815290517f876c0a03ffe4ebcb472a9a7cad4b9351e28c8e5ab21fd428c2c2344bf6620a5e916020908290030190a150565b60728190556040805182815290517ffc9f5adb3ea0a0ee669d6b5200334f3bb22968c6e7b2eedf0e5819182319c5229181900360200190a150565b60748190556040805182815290517faaba8d8495aaed7834b60167d1ec58d9763fdfee5d35ea29b4b153674fbe11859181900360200190a150565b60758190556040805182815290517fcfd641dab5b2592643d4b878bf2b771142aff4595263753dc7611f947749999d9181900360200190a150565b607680546001600160a01b0383166001600160a01b0319909116811790915560408051918252517f33837f672315b6cffcf11894714abfdec631a913c18d7738fcaf40c444376fb69181900360200190a150565b3390565b606780546001600160a01b0383166001600160a01b0319909116811790915560408051918252517fed714fbe17e15258cc6c9677fcfc9b57807561d3c4ff5c776fd00508f9dc53b99181900360200190a150565b6001600160a01b038216600081815260706020908152604091829020849055815184815291517fb7c6e25243d6bfe4740b10f9614686b77306e91ed0fb3b69db4e0d56c16beb7c9281900390910190a25050565b606880546001600160a01b0383166001600160a01b0319909116811790915560408051918252517f0ae0dc70cd51233fb6650002520dcd7be97d65702ded4fbd4fc90777326935889181900360200190a150565b606b80546001600160a01b0383166001600160a01b0319909116811790915560408051918252517fefe8ab924ca486283a79dc604baa67add51afb82af1db8ac386ebbba643cdffd9181900360200190a150565b606580546001600160a01b038316600160401b810268010000000000000000600160e01b03199092169190911790915560408051918252517f8ee0ac431aa1f635687a8e5d2d1c00dc66d43e9d5d9f587748a563030cbdfc019181900360200190a150565b606a80546001600160a01b0383166001600160a01b0319909116811790915560408051918252517fc5d97bee24802645337b82f06929eb7187d3e96d3abfde102b4b5d316c1b98139181900360200190a150565b606680546001600160a01b0383166001600160a01b0319909116811790915560408051918252517f52ffa3b7d02a00f0464ba1f6c4c80ab69cb0271ae2f267cef0385c68aebc5dd09181900360200190a150565b606c80546001600160a01b0383166001600160a01b0319909116811790915560408051918252517f5e8a3d56d9512a62f643367551a65727148c2516dce6b54956df80926dd2536c9181900360200190a150565b606980546001600160a01b0383166001600160a01b0319909116811790915560408051918252517f48951af222000a326b404ddb507e4909d14517d79d2a5f9eb4e220c5c8f56eb79181900360200190a150565b6001600160a01b038216600081815260776020908152604091829020805460ff191685151590811790915582519384529083015280517fa6c7f9eef436525b9c658fcc90c25e3f399534d7f6654a4204f89690117ec26e9281900390910190a15050565b6001600160a01b038216600081815260786020908152604091829020805460ff191685151590811790915582519384529083015280517fa8465fce7714e145603abc61f76c96665912ca5d2f9b7dd67f27349d83294d629281900390910190a15050565b6033546001600160a01b031690565b6000821580159062002d7057508115155b1562002d8f5782841015801562002d875750818411155b905062002db7565b821562002da157508183101562002db7565b811562002db357508083111562002db7565b5060015b9392505050565b606062002dd58e8e8e8e8e8e8e8e8e8e8e620033e3565b60408051602080820187905233606090811b838501528351603481850301815260548401948590528051920191909120939450919062002e189060740162003569565b601f1982820381018352601f9091011660408181526065546001600160a01b03600160401b9091041660208381018281526001938501849052606080860190815289516080870152895193958a949293919260a09091019185019080838360005b8381101562002e9357818101518382015260200162002e79565b50505050905090810190601f16801562002ec15780820380516001836020036101000a031916815260200191505b509450505050506040516020818303038152906040526040516020018083805190602001908083835b6020831062002f0b5780518252601f19909201916020918201910162002eea565b51815160209384036101000a600019018019909216911617905285519190930192850191508083835b6020831062002f555780518252601f19909201916020918201910162002f34565b6001836020036101000a0380198251168184511680821785525050505050509050019250505060405160208183030381529060405290506000806001600160a01b03168e6001600160a01b03161462002fb057600062002fb2565b875b9050600062002fc3828585620034a8565b606554604080516001600160a01b03848116606483015260606024830152601760848301527f4f70656e20426f72726f7720506f6f6c20546f6b656e7300000000000000000060a483015260a06044830152600460c48301526313d0941560e21b60e48084019190915283518084039091018152610104909201835260208201805164010000000090950460e01b6001600160e01b0319166001600160e01b03909516949094179093526066549151939450926000929190911690829084906200308d9062003569565b80846001600160a01b03168152602001836001600160a01b0316815260200180602001828103825283818151815260200191508051906020019080838360005b83811015620030e7578181015183820152602001620030cd565b50505050905090810190601f168015620031155780820380516001836020036101000a031916815260200191505b50945050505050604051809103906000f08015801562003139573d6000803e3d6000fd5b509050826001600160a01b03166383366c19828a6040518363ffffffff1660e01b815260040180836001600160a01b03168152602001826001600160a01b0316815260200192505050600060405180830381600087803b1580156200319d57600080fd5b505af1158015620031b2573d6000803e3d6000fd5b5050506001600160a01b03808516600081815260796020908152604091829020805460ff19166001179055815192835233908301529184168183015290517f9c5d829b9b23efc461f9aeef91979ec04bb903feb3bee4f26d22114abfc7335b92509081900360600190a15050505050505050505050505050505050505050565b3b151590565b600054610100900460ff1680620032545750620032546200260b565b8062003263575060005460ff16155b620032a05760405162461bcd60e51b815260040180806020018281038252602e81526020018062004348602e913960400191505060405180910390fd5b600054610100900460ff16158015620026c6576000805460ff1961ff001990911661010017166001179055801562000f54576000805461ff001916905550565b600054610100900460ff1680620032fc5750620032fc6200260b565b806200330b575060005460ff16155b620033485760405162461bcd60e51b815260040180806020018281038252602e81526020018062004348602e913960400191505060405180910390fd5b600054610100900460ff1615801562003374576000805460ff1961ff0019909116610100171660011790555b6000620033806200297f565b603380546001600160a01b0319166001600160a01b038316908117909155604051919250906000907f8be0079c531659141344cd1fd0a4f28419497f9722a3daafe3b4186f6b6457e0908290a350801562000f54576000805461ff001916905550565b606554606e54606d5460408051602481019f909f5260448f019d909d523360648f01526001600160a01b039b8c1660848f0152998b1660a48e015260c48d019890985260e48c01969096526101048b01949094526101248a01929092529095166101448801526101648701949094529215156101848601526101a48501526101c480850191909152825180850390910181526101e490930190915260208201805160e09290921b6001600160e01b0319166001600160e01b0390921691909117905290565b600081516000141562003502576040805162461bcd60e51b815260206004820181905260248201527f437265617465323a2062797465636f6465206c656e677468206973207a65726f604482015290519081900360640190fd5b8282516020840186f590506001600160a01b03811662002db7576040805162461bcd60e51b815260206004820152601960248201527f437265617465323a204661696c6564206f6e206465706c6f7900000000000000604482015290519081900360640190fd5b610c8480620035788339019056fe608060405260405162000c8438038062000c84833981810160405260608110156200002957600080fd5b815160208301516040808501805191519395929483019291846401000000008211156200005557600080fd5b9083019060208201858111156200006b57600080fd5b82516401000000008111828201881017156200008657600080fd5b82525081516020918201929091019080838360005b83811015620000b55781810151838201526020016200009b565b50505050905090810190601f168015620000e35780820380516001836020036101000a031916815260200191505b5060405250849150839050828281620000fc826200013d565b8051156200011d576200011b8282620001b460201b620003841760201c565b505b50620001269050565b6200013182620001e3565b505050505050620003c5565b62000153816200020760201b620003b01760201c565b620001905760405162461bcd60e51b815260040180806020018281038252603681526020018062000c286036913960400191505060405180910390fd5b7f360894a13ba1a3210667c828492db98dca3e2076cc3735a920a3ca505d382bbc55565b6060620001dc838360405180606001604052806027815260200162000c01602791396200020d565b9392505050565b7fb53127684a568b3173ae13b9f8a6016e243e63b6e8ee1178d6a717850b5d610355565b3b151590565b60606200021a8462000207565b620002575760405162461bcd60e51b815260040180806020018281038252602681526020018062000c5e6026913960400191505060405180910390fd5b60006060856001600160a01b0316856040518082805190602001908083835b60208310620002975780518252601f19909201916020918201910162000276565b6001836020036101000a038019825116818451168082178552505050505050905001915050600060405180830381855af49150503d8060008114620002f9576040519150601f19603f3d011682016040523d82523d6000602084013e620002fe565b606091505b509092509050620003118282866200031b565b9695505050505050565b606083156200032c575081620001dc565b8251156200033d5782518084602001fd5b8160405162461bcd60e51b81526004018080602001828103825283818151815260200191508051906020019080838360005b83811015620003895781810151838201526020016200036f565b50505050905090810190601f168015620003b75780820380516001836020036101000a031916815260200191505b509250505060405180910390fd5b61082c80620003d56000396000f3fe60806040526004361061004e5760003560e01c80633659cfe6146100655780634f1ef286146100985780635c60da1b146101185780638f28397014610149578063f851a4401461017c5761005d565b3661005d5761005b610191565b005b61005b610191565b34801561007157600080fd5b5061005b6004803603602081101561008857600080fd5b50356001600160a01b03166101ab565b61005b600480360360408110156100ae57600080fd5b6001600160a01b0382351691908101906040810160208201356401000000008111156100d957600080fd5b8201836020820111156100eb57600080fd5b8035906020019184600183028401116401000000008311171561010d57600080fd5b5090925090506101e5565b34801561012457600080fd5b5061012d610262565b604080516001600160a01b039092168252519081900360200190f35b34801561015557600080fd5b5061005b6004803603602081101561016c57600080fd5b50356001600160a01b031661029f565b34801561018857600080fd5b5061012d610359565b6101996103b6565b6101a96101a4610416565b61043b565b565b6101b361045f565b6001600160a01b0316336001600160a01b031614156101da576101d581610484565b6101e2565b6101e2610191565b50565b6101ed61045f565b6001600160a01b0316336001600160a01b031614156102555761020f83610484565b61024f8383838080601f01602080910402602001604051908101604052809392919081815260200183838082843760009201919091525061038492505050565b5061025d565b61025d610191565b505050565b600061026c61045f565b6001600160a01b0316336001600160a01b031614156102945761028d610416565b905061029c565b61029c610191565b90565b6102a761045f565b6001600160a01b0316336001600160a01b031614156101da576001600160a01b0381166103055760405162461bcd60e51b815260040180806020018281038252603a8152602001806106f8603a913960400191505060405180910390fd5b7f7e644d79422f17c01e4894b5f4f588d331ebfa28653d42ae832dc59e38c9798f61032e61045f565b604080516001600160a01b03928316815291841660208301528051918290030190a16101d5816104c4565b600061036361045f565b6001600160a01b0316336001600160a01b031614156102945761028d61045f565b60606103a98383604051806060016040528060278152602001610732602791396104e8565b9392505050565b3b151590565b6103be61045f565b6001600160a01b0316336001600160a01b0316141561040e5760405162461bcd60e51b81526004018080602001828103825260428152602001806107b56042913960600191505060405180910390fd5b6101a96101a9565b7f360894a13ba1a3210667c828492db98dca3e2076cc3735a920a3ca505d382bbc5490565b3660008037600080366000845af43d6000803e80801561045a573d6000f35b3d6000fd5b7fb53127684a568b3173ae13b9f8a6016e243e63b6e8ee1178d6a717850b5d61035490565b61048d816105eb565b6040516001600160a01b038216907fbc7cd75a20ee27fd9adebab32041f755214dbc6bffa90cc0225b39da2e5c2d3b90600090a250565b7fb53127684a568b3173ae13b9f8a6016e243e63b6e8ee1178d6a717850b5d610355565b60606104f3846103b0565b61052e5760405162461bcd60e51b815260040180806020018281038252602681526020018061078f6026913960400191505060405180910390fd5b60006060856001600160a01b0316856040518082805190602001908083835b6020831061056c5780518252601f19909201916020918201910161054d565b6001836020036101000a038019825116818451168082178552505050505050905001915050600060405180830381855af49150503d80600081146105cc576040519150601f19603f3d011682016040523d82523d6000602084013e6105d1565b606091505b50915091506105e1828286610653565b9695505050505050565b6105f4816103b0565b61062f5760405162461bcd60e51b81526004018080602001828103825260368152602001806107596036913960400191505060405180910390fd5b7f360894a13ba1a3210667c828492db98dca3e2076cc3735a920a3ca505d382bbc55565b606083156106625750816103a9565b8251156106725782518084602001fd5b8160405162461bcd60e51b81526004018080602001828103825283818151815260200191508051906020019080838360005b838110156106bc5781810151838201526020016106a4565b50505050905090810190601f1680156106e95780820380516001836020036101000a031916815260200191505b509250505060405180910390fdfe5472616e73706172656e745570677261646561626c6550726f78793a206e65772061646d696e20697320746865207a65726f2061646472657373416464726573733a206c6f772d6c6576656c2064656c65676174652063616c6c206661696c65645570677261646561626c6550726f78793a206e657720696d706c656d656e746174696f6e206973206e6f74206120636f6e7472616374416464726573733a2064656c65676174652063616c6c20746f206e6f6e2d636f6e74726163745472616e73706172656e745570677261646561626c6550726f78793a2061646d696e2063616e6e6f742066616c6c6261636b20746f2070726f787920746172676574a2646970667358221220ad4cc489585b8c2bd332b46fba9cfbb85df9a6e1d894d59c61e2cdbc2e70d83464736f6c63430007000033416464726573733a206c6f772d6c6576656c2064656c65676174652063616c6c206661696c65645570677261646561626c6550726f78793a206e657720696d706c656d656e746174696f6e206973206e6f74206120636f6e7472616374416464726573733a2064656c65676174652063616c6c20746f206e6f6e2d636f6e7472616374506f6f6c466163746f72793a3a637265617465506f6f6c202d20696e76616c6964206d696e20626f72726f7720616d6f756e744f776e61626c653a206e6577206f776e657220697320746865207a65726f2061646472657373506f6f6c466163746f72793a3a637265617465506f6f6c202d20426f72726f772072617465206e6f742077697468696e206c696d697473506f6f6c466163746f72793a3a637265617465506f6f6c202d205072696365206665656420646f65736e277420737570706f727420746f6b656e2070616972506f6f6c466163746f72793a3a6f6e6c79426f72726f776572202d204f6e6c7920612076616c696420426f72726f7765722063616e2063726561746520506f6f6c506f6f6c466163746f72793a3a637265617465506f6f6c202d20436f6c6c61746572616c20526174696f206e6f742077697468696e206c696d697473496e697469616c697a61626c653a20636f6e747261637420697320616c726561647920696e697469616c697a6564506f6f6c466163746f72793a3a637265617465506f6f6c202d204c6f616e206475726174696f6e206e6f742077697468696e206c696d697473506f6f6c466163746f72793a637265617465506f6f6c202d20496e76616c696420636f6c6c61746572616c20726174696f506f6f6c466163746f72793a3a637265617465506f6f6c202d20496e76616c6964207374726174656779e9da20d631ef06f93c14c03acd9bc8f22141e6fce63b1066f76c903adb73ea404f776e61626c653a2063616c6c6572206973206e6f7420746865206f776e6572506f6f6c466163746f72793a3a637265617465506f6f6c202d2052657061796d656e7420696e74657276616c206e6f742077697468696e206c696d697473506f6f6c466163746f72793a3a637265617465506f6f6c202d20496e76616c696420626f72726f7720746f6b656e2074797065506f6f6c466163746f72793a3a637265617465506f6f6c202d2045746865722073656e6420697320646966666572656e742066726f6d20636f6c6c61746572616c20616d6f756e7420737065636966696564506f6f6c466163746f72793a3a637265617465506f6f6c202d20506f6f6c53697a65206e6f742077697468696e206c696d697473506f6f6c466163746f72793a3a637265617465506f6f6c202d20496e76616c696420636f6c6c61746572616c20746f6b656e2074797065a2646970667358221220e0012d05160afbc2ff1adcae2caf37f62a7b5fd36d77429fc799e0b7a30a1d0864736f6c63430007000033",
  "linkReferences": {},
  "deployedLinkReferences": {}
}