{
  "_format": "hh-sol-artifact-1",
  "contractName": "Pool",
  "sourceName": "contracts/Pool/Pool.sol",
  "abi": [
    {
      "anonymous": false,
      "inputs": [
        {
          "indexed": false,
          "internalType": "uint256",
          "name": "amount",
          "type": "uint256"
        }
      ],
      "name": "AmountBorrowed",
      "type": "event"
    },
    {
      "anonymous": false,
      "inputs": [
        {
          "indexed": false,
          "internalType": "address",
          "name": "borrower",
          "type": "address"
        },
        {
          "indexed": false,
          "internalType": "uint256",
          "name": "amount",
          "type": "uint256"
        },
        {
          "indexed": false,
          "internalType": "uint256",
          "name": "sharesReceived",
          "type": "uint256"
        }
      ],
      "name": "CollateralAdded",
      "type": "event"
    },
    {
      "anonymous": false,
      "inputs": [
        {
          "indexed": false,
          "internalType": "address",
          "name": "borrower",
          "type": "address"
        },
        {
          "indexed": false,
          "internalType": "uint256",
          "name": "amount",
          "type": "uint256"
        }
      ],
      "name": "CollateralWithdrawn",
      "type": "event"
    },
    {
      "anonymous": false,
      "inputs": [
        {
          "indexed": false,
          "internalType": "address",
          "name": "liquidator",
          "type": "address"
        },
        {
          "indexed": false,
          "internalType": "address",
          "name": "lender",
          "type": "address"
        },
        {
          "indexed": false,
          "internalType": "uint256",
          "name": "_tokenReceived",
          "type": "uint256"
        }
      ],
      "name": "LenderLiquidated",
      "type": "event"
    },
    {
      "anonymous": false,
      "inputs": [
        {
          "indexed": false,
          "internalType": "uint256",
          "name": "amountSupplied",
          "type": "uint256"
        },
        {
          "indexed": false,
          "internalType": "address",
          "name": "lenderAddress",
          "type": "address"
        }
      ],
      "name": "LiquiditySupplied",
      "type": "event"
    },
    {
      "anonymous": false,
      "inputs": [
        {
          "indexed": false,
          "internalType": "uint256",
          "name": "amount",
          "type": "uint256"
        },
        {
          "indexed": false,
          "internalType": "address",
          "name": "lenderAddress",
          "type": "address"
        }
      ],
      "name": "LiquidityWithdrawn",
      "type": "event"
    },
    {
      "anonymous": false,
      "inputs": [
        {
          "indexed": false,
          "internalType": "address",
          "name": "borrower",
          "type": "address"
        },
        {
          "indexed": false,
          "internalType": "address",
          "name": "lender",
          "type": "address"
        },
        {
          "indexed": false,
          "internalType": "uint256",
          "name": "amount",
          "type": "uint256"
        },
        {
          "indexed": false,
          "internalType": "uint256",
          "name": "sharesReceived",
          "type": "uint256"
        }
      ],
      "name": "MarginCallCollateralAdded",
      "type": "event"
    },
    {
      "anonymous": false,
      "inputs": [
        {
          "indexed": false,
          "internalType": "address",
          "name": "lenderAddress",
          "type": "address"
        }
      ],
      "name": "MarginCalled",
      "type": "event"
    },
    {
      "anonymous": false,
      "inputs": [],
      "name": "PoolCancelled",
      "type": "event"
    },
    {
      "anonymous": false,
      "inputs": [],
      "name": "PoolClosed",
      "type": "event"
    },
    {
      "anonymous": false,
      "inputs": [
        {
          "indexed": false,
          "internalType": "address",
          "name": "liquidator",
          "type": "address"
        }
      ],
      "name": "PoolLiquidated",
      "type": "event"
    },
    {
      "anonymous": false,
      "inputs": [],
      "name": "PoolTerminated",
      "type": "event"
    },
    {
      "inputs": [
        {
          "internalType": "address",
          "name": "_lender",
          "type": "address"
        },
        {
          "internalType": "uint256",
          "name": "_amount",
          "type": "uint256"
        },
        {
          "internalType": "bool",
          "name": "_transferFromSavingsAccount",
          "type": "bool"
        }
      ],
      "name": "addCollateralInMarginCall",
      "outputs": [],
      "stateMutability": "payable",
      "type": "function"
    },
    {
      "inputs": [
        {
          "internalType": "address",
          "name": "_from",
          "type": "address"
        },
        {
          "internalType": "address",
          "name": "_to",
          "type": "address"
        },
        {
          "internalType": "uint256",
          "name": "_amount",
          "type": "uint256"
        }
      ],
      "name": "beforeTransfer",
      "outputs": [],
      "stateMutability": "nonpayable",
      "type": "function"
    },
    {
      "inputs": [],
      "name": "borrower",
      "outputs": [
        {
          "internalType": "address",
          "name": "",
          "type": "address"
        }
      ],
      "stateMutability": "view",
      "type": "function"
    },
    {
      "inputs": [
        {
          "internalType": "uint256",
          "name": "_balance",
          "type": "uint256"
        },
        {
          "internalType": "uint256",
          "name": "_liquidityShares",
          "type": "uint256"
        }
      ],
      "name": "calculateCollateralRatio",
      "outputs": [
        {
          "internalType": "uint256",
          "name": "_ratio",
          "type": "uint256"
        }
      ],
      "stateMutability": "nonpayable",
      "type": "function"
    },
    {
      "inputs": [],
      "name": "calculateCurrentPeriod",
      "outputs": [
        {
          "internalType": "uint256",
          "name": "",
          "type": "uint256"
        }
      ],
      "stateMutability": "view",
      "type": "function"
    },
    {
      "inputs": [
        {
          "internalType": "address",
          "name": "_lender",
          "type": "address"
        }
      ],
      "name": "calculateRepaymentWithdrawable",
      "outputs": [
        {
          "internalType": "uint256",
          "name": "",
          "type": "uint256"
        }
      ],
      "stateMutability": "view",
      "type": "function"
    },
    {
      "inputs": [],
      "name": "cancelPool",
      "outputs": [],
      "stateMutability": "nonpayable",
      "type": "function"
    },
    {
      "inputs": [],
      "name": "closeLoan",
      "outputs": [],
      "stateMutability": "payable",
      "type": "function"
    },
    {
      "inputs": [
        {
          "internalType": "uint256",
          "name": "_totalCollateralTokens",
          "type": "uint256"
        },
        {
          "internalType": "address",
          "name": "_poolFactory",
          "type": "address"
        },
        {
          "internalType": "uint256",
          "name": "_fraction",
          "type": "uint256"
        }
      ],
      "name": "correspondingBorrowTokens",
      "outputs": [
        {
          "internalType": "uint256",
          "name": "",
          "type": "uint256"
        }
      ],
      "stateMutability": "view",
      "type": "function"
    },
    {
      "inputs": [
        {
          "internalType": "uint256",
          "name": "_amount",
          "type": "uint256"
        },
        {
          "internalType": "bool",
          "name": "_transferFromSavingsAccount",
          "type": "bool"
        }
      ],
      "name": "depositCollateral",
      "outputs": [],
      "stateMutability": "payable",
      "type": "function"
    },
    {
      "inputs": [
        {
          "internalType": "address",
          "name": "_lender",
          "type": "address"
        }
      ],
      "name": "getBalanceDetails",
      "outputs": [
        {
          "internalType": "uint256",
          "name": "",
          "type": "uint256"
        },
        {
          "internalType": "uint256",
          "name": "",
          "type": "uint256"
        }
      ],
      "stateMutability": "view",
      "type": "function"
    },
    {
      "inputs": [
        {
          "internalType": "address",
          "name": "_lender",
          "type": "address"
        }
      ],
      "name": "getCurrentCollateralRatio",
      "outputs": [
        {
          "internalType": "uint256",
          "name": "_ratio",
          "type": "uint256"
        }
      ],
      "stateMutability": "nonpayable",
      "type": "function"
    },
    {
      "inputs": [],
      "name": "getCurrentCollateralRatio",
      "outputs": [
        {
          "internalType": "uint256",
          "name": "_ratio",
          "type": "uint256"
        }
      ],
      "stateMutability": "nonpayable",
      "type": "function"
    },
    {
      "inputs": [
        {
          "internalType": "address",
          "name": "_source",
          "type": "address"
        },
        {
          "internalType": "address",
          "name": "_target",
          "type": "address"
        },
        {
          "internalType": "uint256",
          "name": "_amount",
          "type": "uint256"
        }
      ],
      "name": "getEquivalentTokens",
      "outputs": [
        {
          "internalType": "uint256",
          "name": "",
          "type": "uint256"
        }
      ],
      "stateMutability": "view",
      "type": "function"
    },
    {
      "inputs": [],
      "name": "getLoanStatus",
      "outputs": [
        {
          "internalType": "uint256",
          "name": "",
          "type": "uint256"
        }
      ],
      "stateMutability": "view",
      "type": "function"
    },
    {
      "inputs": [
        {
          "internalType": "address",
          "name": "_lender",
          "type": "address"
        }
      ],
      "name": "getMarginCallEndTime",
      "outputs": [
        {
          "internalType": "uint256",
          "name": "",
          "type": "uint256"
        }
      ],
      "stateMutability": "view",
      "type": "function"
    },
    {
      "inputs": [],
      "name": "getTokensLent",
      "outputs": [
        {
          "internalType": "uint256",
          "name": "",
          "type": "uint256"
        }
      ],
      "stateMutability": "view",
      "type": "function"
    },
    {
      "inputs": [
        {
          "internalType": "uint256",
          "name": "_borrowAmountRequested",
          "type": "uint256"
        },
        {
          "internalType": "uint256",
          "name": "_borrowRate",
          "type": "uint256"
        },
        {
          "internalType": "address",
          "name": "_borrower",
          "type": "address"
        },
        {
          "internalType": "address",
          "name": "_borrowAsset",
          "type": "address"
        },
        {
          "internalType": "address",
          "name": "_collateralAsset",
          "type": "address"
        },
        {
          "internalType": "uint256",
          "name": "_idealCollateralRatio",
          "type": "uint256"
        },
        {
          "internalType": "uint256",
          "name": "_volatilityThreshold",
          "type": "uint256"
        },
        {
          "internalType": "uint256",
          "name": "_repaymentInterval",
          "type": "uint256"
        },
        {
          "internalType": "uint256",
          "name": "_noOfRepaymentIntervals",
          "type": "uint256"
        },
        {
          "internalType": "address",
          "name": "_poolSavingsStrategy",
          "type": "address"
        },
        {
          "internalType": "uint256",
          "name": "_collateralAmount",
          "type": "uint256"
        },
        {
          "internalType": "bool",
          "name": "_transferFromSavingsAccount",
          "type": "bool"
        },
        {
          "internalType": "uint256",
          "name": "_loanWithdrawalDuration",
          "type": "uint256"
        },
        {
          "internalType": "uint256",
          "name": "_collectionPeriod",
          "type": "uint256"
        }
      ],
      "name": "initialize",
      "outputs": [],
      "stateMutability": "payable",
      "type": "function"
    },
    {
      "inputs": [
        {
          "internalType": "uint256",
          "name": "_balance",
          "type": "uint256"
        }
      ],
      "name": "interestPerPeriod",
      "outputs": [
        {
          "internalType": "uint256",
          "name": "",
          "type": "uint256"
        }
      ],
      "stateMutability": "view",
      "type": "function"
    },
    {
      "inputs": [
        {
          "internalType": "uint256",
          "name": "_principal",
          "type": "uint256"
        }
      ],
      "name": "interestPerSecond",
      "outputs": [
        {
          "internalType": "uint256",
          "name": "",
          "type": "uint256"
        }
      ],
      "stateMutability": "view",
      "type": "function"
    },
    {
      "inputs": [],
      "name": "interestToPay",
      "outputs": [
        {
          "internalType": "uint256",
          "name": "",
          "type": "uint256"
        }
      ],
      "stateMutability": "view",
      "type": "function"
    },
    {
      "inputs": [
        {
          "internalType": "address",
          "name": "_lender",
          "type": "address"
        },
        {
          "internalType": "uint256",
          "name": "_amount",
          "type": "uint256"
        },
        {
          "internalType": "bool",
          "name": "_fromSavingsAccount",
          "type": "bool"
        }
      ],
      "name": "lend",
      "outputs": [],
      "stateMutability": "payable",
      "type": "function"
    },
    {
      "inputs": [
        {
          "internalType": "address",
          "name": "",
          "type": "address"
        }
      ],
      "name": "lenders",
      "outputs": [
        {
          "internalType": "uint256",
          "name": "interestWithdrawn",
          "type": "uint256"
        },
        {
          "internalType": "uint256",
          "name": "marginCallEndTime",
          "type": "uint256"
        },
        {
          "internalType": "uint256",
          "name": "extraLiquidityShares",
          "type": "uint256"
        }
      ],
      "stateMutability": "view",
      "type": "function"
    },
    {
      "inputs": [
        {
          "internalType": "bool",
          "name": "_toSavingsAccount",
          "type": "bool"
        },
        {
          "internalType": "bool",
          "name": "_receiveLiquidityShare",
          "type": "bool"
        }
      ],
      "name": "liquidateCancelPenalty",
      "outputs": [],
      "stateMutability": "nonpayable",
      "type": "function"
    },
    {
      "inputs": [
        {
          "internalType": "address",
          "name": "_lender",
          "type": "address"
        },
        {
          "internalType": "bool",
          "name": "_fromSavingsAccount",
          "type": "bool"
        },
        {
          "internalType": "bool",
          "name": "_toSavingsAccount",
          "type": "bool"
        },
        {
          "internalType": "bool",
          "name": "_recieveLiquidityShare",
          "type": "bool"
        }
      ],
      "name": "liquidateForLender",
      "outputs": [],
      "stateMutability": "payable",
      "type": "function"
    },
    {
      "inputs": [
        {
          "internalType": "bool",
          "name": "_fromSavingsAccount",
          "type": "bool"
        },
        {
          "internalType": "bool",
          "name": "_toSavingsAccount",
          "type": "bool"
        },
        {
          "internalType": "bool",
          "name": "_recieveLiquidityShare",
          "type": "bool"
        }
      ],
      "name": "liquidatePool",
      "outputs": [],
      "stateMutability": "payable",
      "type": "function"
    },
    {
      "inputs": [],
      "name": "poolConstants",
      "outputs": [
        {
          "internalType": "address",
          "name": "borrower",
          "type": "address"
        },
        {
          "internalType": "uint256",
          "name": "borrowAmountRequested",
          "type": "uint256"
        },
        {
          "internalType": "uint256",
          "name": "loanStartTime",
          "type": "uint256"
        },
        {
          "internalType": "uint256",
          "name": "loanWithdrawalDeadline",
          "type": "uint256"
        },
        {
          "internalType": "address",
          "name": "borrowAsset",
          "type": "address"
        },
        {
          "internalType": "uint256",
          "name": "idealCollateralRatio",
          "type": "uint256"
        },
        {
          "internalType": "uint256",
          "name": "volatilityThreshold",
          "type": "uint256"
        },
        {
          "internalType": "uint256",
          "name": "borrowRate",
          "type": "uint256"
        },
        {
          "internalType": "uint256",
          "name": "noOfRepaymentIntervals",
          "type": "uint256"
        },
        {
          "internalType": "uint256",
          "name": "repaymentInterval",
          "type": "uint256"
        },
        {
          "internalType": "address",
          "name": "collateralAsset",
          "type": "address"
        },
        {
          "internalType": "address",
          "name": "poolSavingsStrategy",
          "type": "address"
        },
        {
          "internalType": "address",
          "name": "lenderVerifier",
          "type": "address"
        }
      ],
      "stateMutability": "view",
      "type": "function"
    },
    {
      "inputs": [],
      "name": "poolToken",
      "outputs": [
        {
          "internalType": "contract IPoolToken",
          "name": "",
          "type": "address"
        }
      ],
      "stateMutability": "view",
      "type": "function"
    },
    {
      "inputs": [],
      "name": "poolVariables",
      "outputs": [
        {
          "internalType": "uint256",
          "name": "baseLiquidityShares",
          "type": "uint256"
        },
        {
          "internalType": "uint256",
          "name": "extraLiquidityShares",
          "type": "uint256"
        },
        {
          "internalType": "enum Pool.LoanStatus",
          "name": "loanStatus",
          "type": "uint8"
        },
        {
          "internalType": "uint256",
          "name": "penaltyLiquidityAmount",
          "type": "uint256"
        }
      ],
      "stateMutability": "view",
      "type": "function"
    },
    {
      "inputs": [],
      "name": "requestMarginCall",
      "outputs": [],
      "stateMutability": "nonpayable",
      "type": "function"
    },
    {
      "inputs": [
        {
          "internalType": "address",
          "name": "_poolToken",
          "type": "address"
        },
        {
          "internalType": "address",
          "name": "_lenderVerifier",
          "type": "address"
        }
      ],
      "name": "setConstants",
      "outputs": [],
      "stateMutability": "nonpayable",
      "type": "function"
    },
    {
      "inputs": [],
      "name": "terminatePool",
      "outputs": [],
      "stateMutability": "nonpayable",
      "type": "function"
    },
    {
      "inputs": [],
      "name": "withdrawBorrowedAmount",
      "outputs": [],
      "stateMutability": "nonpayable",
      "type": "function"
    },
    {
      "inputs": [],
      "name": "withdrawLiquidity",
      "outputs": [],
      "stateMutability": "nonpayable",
      "type": "function"
    },
    {
      "inputs": [],
      "name": "withdrawRepayment",
      "outputs": [],
      "stateMutability": "nonpayable",
      "type": "function"
    },
    {
      "stateMutability": "payable",
      "type": "receive"
    }
  ],
  "bytecode": "0x608060405234801561001057600080fd5b5060018055615413806100246000396000f3fe6080604052600436106102085760003560e01c80637aa9f4a711610118578063c145fe69116100a0578063d2b93bfd1161006f578063d2b93bfd146107f8578063d7c358ae1461081d578063d820d4c914610832578063daf5539e1461085c578063e70d72d71461088f5761020f565b8063c145fe6914610748578063c4a3702f1461077c578063c94db32c146107af578063cbdf382c146107e35761020f565b806395f3f456116100e757806395f3f4561461067f578063acc1ab1314610694578063b2c09233146106a9578063bda9e06b146106f5578063bde5ef321461070a5761020f565b80637aa9f4a7146105b35780637df1f1b9146105fe5780637ea382c11461062f57806383366c19146106445761020f565b8063455712761161019b5780636886c8141161016a5780636886c8141461046e57806372954480146104fd5780637320fc291461053c5780637489b4511461056f5780637729886f146105845761020f565b806345571276146103d157806346b55fbb146103e65780635695d52d146104165780635afaa80f1461042b5761020f565b8063272edaf2116101d7578063272edaf21461029d578063275ac2521461032257806328fd10d71461034c5780632dea62141461039d5761020f565b80630fc72889146102145780631b55b2a81461023b5780631ffb811f14610252578063232fa733146102955761020f565b3661020f57005b600080fd5b34801561022057600080fd5b506102296108a4565b60408051918252519081900360200190f35b34801561024757600080fd5b506102506108e4565b005b34801561025e57600080fd5b506102506004803603606081101561027557600080fd5b506001600160a01b03813581169160208101359091169060400135610b80565b610250610e2b565b61025060048036036101c08110156102b457600080fd5b508035906020810135906001600160a01b0360408201358116916060810135821691608082013581169160a08101359160c08201359160e081013591610100820135916101208101359091169061014081013590610160810135151590610180810135906101a001356110fb565b34801561032e57600080fd5b506102296004803603602081101561034557600080fd5b5035611259565b34801561035857600080fd5b5061037f6004803603602081101561036f57600080fd5b50356001600160a01b0316611283565b60408051938452602084019290925282820152519081900360600190f35b610250600480360360608110156103b357600080fd5b506001600160a01b03813516906020810135906040013515156112a4565b3480156103dd57600080fd5b5061025061162d565b3480156103f257600080fd5b506102296004803603604081101561040957600080fd5b508035906020013561185e565b34801561042257600080fd5b506102296119e1565b34801561043757600080fd5b506102296004803603606081101561044e57600080fd5b506001600160a01b03813581169160208101359091169060400135611b70565b34801561047a57600080fd5b50610483611c91565b604080516001600160a01b039e8f168152602081019d909d528c81019b909b5260608c0199909952968b1660808b015260a08a019590955260c089019390935260e0880191909152610100870152610120860152851661014085015284166101608401529092166101808201529051908190036101a00190f35b34801561050957600080fd5b506102296004803603606081101561052057600080fd5b508035906001600160a01b036020820135169060400135611cd4565b34801561054857600080fd5b506102296004803603602081101561055f57600080fd5b50356001600160a01b0316611e07565b34801561057b57600080fd5b50610250611ec9565b6102506004803603606081101561059a57600080fd5b5080351515906020810135151590604001351515611fd2565b3480156105bf57600080fd5b506105c861232e565b604051808581526020018481526020018360058111156105e457fe5b815260200182815260200194505050505060405180910390f35b34801561060a57600080fd5b50610613612343565b604080516001600160a01b039092168252519081900360200190f35b34801561063b57600080fd5b50610250612352565b34801561065057600080fd5b506102506004803603604081101561066757600080fd5b506001600160a01b038135811691602001351661281d565b34801561068b57600080fd5b50610250612891565b3480156106a057600080fd5b50610229612dc3565b3480156106b557600080fd5b506106dc600480360360208110156106cc57600080fd5b50356001600160a01b0316612ddc565b6040805192835260208301919091528051918290030190f35b34801561070157600080fd5b50610250612ed1565b6102506004803603608081101561072057600080fd5b506001600160a01b038135169060208101351515906040810135151590606001351515613122565b6102506004803603606081101561075e57600080fd5b506001600160a01b0381351690602081013590604001351515613339565b34801561078857600080fd5b506102296004803603602081101561079f57600080fd5b50356001600160a01b031661354a565b3480156107bb57600080fd5b50610250600480360360408110156107d257600080fd5b508035151590602001351515613727565b3480156107ef57600080fd5b5061061361391c565b6102506004803603604081101561080e57600080fd5b5080359060200135151561392b565b34801561082957600080fd5b50610229613970565b34801561083e57600080fd5b506102296004803603602081101561085557600080fd5b50356139e6565b34801561086857600080fd5b506102296004803603602081101561087f57600080fd5b50356001600160a01b0316613a00565b34801561089b57600080fd5b50610229613b25565b600e546007546040805180820190915260028152610ccd60f21b602082015260009283926108dd926108d7914291613bbe565b90613c55565b9150505b90565b60145460ff1660008160058111156108f857fe5b14610930576040805162461bcd60e51b815260206004820152600360248201526243503160e81b604482015290519081900360640190fd5b6007546002546001600160a01b03164282108015610a4957506109cd68327cb2734119d3b7a9601e1b6108d7600560010154846001600160a01b031663c2bb7c8d6040518163ffffffff1660e01b815260040160206040518083038186803b15801561099b57600080fd5b505afa1580156109af573d6000803e3d6000fd5b505050506040513d60208110156109c557600080fd5b505190613cbc565b600360009054906101000a90046001600160a01b03166001600160a01b03166318160ddd6040518163ffffffff1660e01b815260040160206040518083038186803b158015610a1b57600080fd5b505afa158015610a2f573d6000803e3d6000fd5b505050506040513d6020811015610a4557600080fd5b5051105b15610a6057610a586000613d15565b505050610b7e565b60085442811115610ab0576005546001600160a01b03163314610ab0576040805162461bcd60e51b815260206004820152600360248201526221a81960e91b604482015290519081900360640190fd5b6012546000610abf8584613e99565b90506000846001600160a01b031663cf62591e6040518163ffffffff1660e01b815260040160206040518083038186803b158015610afc57600080fd5b505afa158015610b10573d6000803e3d6000fd5b505050506040513d6020811015610b2657600080fd5b5051600c54909150600090610b6a9068327cb2734119d3b7a9601e1b906108d7906301e133809082908890610b6490869084908d9084908d90613cbc565b90613cbc565b9050610b7581613d15565b50505050505050505b565b60026001541415610bc6576040805162461bcd60e51b815260206004820152601f60248201526000805160206152e1833981519152604482015290519081900360640190fd5b60026001556003546001600160a01b03163314610be257600080fd5b610beb83611e07565b15610c22576040805162461bcd60e51b8152602060048201526002602482015261062760f31b604482015290519081900360640190fd5b610c2b82611e07565b15610c62576040805162461bcd60e51b8152602060048201526002602482015261313960f01b604482015290519081900360640190fd5b610c6b83613ed0565b610c7482613ed0565b6001600160a01b03831660009081526004602052604090206002015480610c9b5750610e22565b600354604080516370a0823160e01b81526001600160a01b0387811660048301529151849392909216916370a0823191602480820192602092909190829003018186803b158015610ceb57600080fd5b505afa158015610cff573d6000803e3d6000fd5b505050506040513d6020811015610d1557600080fd5b50518314610da857600354604080516370a0823160e01b81526001600160a01b0388811660048301529151610da59392909216916370a0823191602480820192602092909190829003018186803b158015610d6f57600080fd5b505afa158015610d83573d6000803e3d6000fd5b505050506040513d6020811015610d9957600080fd5b50516108d78585613cbc565b90505b6001600160a01b038516600090815260046020526040902060020154610dce9082613f3e565b6001600160a01b038087166000908152600460205260408082206002908101949094559187168152200154610e039082613f9b565b6001600160a01b03851660009081526004602052604090206002015550505b50506001805550565b60026001541415610e71576040805162461bcd60e51b815260206004820152601f60248201526000805160206152e1833981519152604482015290519081900360640190fd5b60026001819055546040805163171e108560e01b815290516001600160a01b039092169163171e108591600480820192602092909190829003018186803b158015610ebb57600080fd5b505afa158015610ecf573d6000803e3d6000fd5b505050506040513d6020811015610ee557600080fd5b50516001600160a01b03163314610f28576040805162461bcd60e51b8152602060048201526002602482015261323560f01b604482015290519081900360640190fd5b600160145460ff166005811115610f3b57fe5b14610f72576040805162461bcd60e51b8152602060048201526002602482015261191960f11b604482015290519081900360640190fd5b6014805460ff1916600290811790915554604080516302d5537b60e41b815290516001600160a01b0390921691632d5537b091600480820192602092909190829003018186803b158015610fc557600080fd5b505afa158015610fd9573d6000803e3d6000fd5b505050506040513d6020811015610fef57600080fd5b5051604080516311f2df1b60e21b815290516001600160a01b03909216916347cb7c6c9160048082019260009290919082900301818387803b15801561103457600080fd5b505af1158015611048573d6000803e3d6000fd5b505060055461106492506001600160a01b031690506000613ff5565b600360009054906101000a90046001600160a01b03166001600160a01b0316638456cb596040518163ffffffff1660e01b8152600401600060405180830381600087803b1580156110b457600080fd5b505af11580156110c8573d6000803e3d6000fd5b50506040517fd9fd1a29efbd67e74bbcd110e7344e0a2fbc8efd8334b946c1b805670d8d08ea925060009150a160018055565b600054610100900460ff168061111457506111146141b7565b80611122575060005460ff16155b61115d5760405162461bcd60e51b815260040180806020018281038252602e81526020018061532f602e913960400191505060405180910390fd5b600054610100900460ff16158015611188576000805460ff1961ff0019909116610100171660011790555b60028054336001600160a01b0319918216179091556009805482166001600160a01b038f811691909117909155600a8c9055600b8b9055600f805483168e83161790556010805490921690881617905560068f90556111e88d86866141c8565b600580546001600160a01b0319166001600160a01b038f16179055600c8e9055600d879055600e88905561121c4283613f9b565b6007556112338361122d4285613f9b565b90613f9b565b6008558015611248576000805461ff00191690555b505050505050505050505050505050565b60008061127c6301e133806108d760056007015486613cbc90919063ffffffff16565b9392505050565b60046020526000908152604090208054600182015460029092015490919083565b600260015414156112ea576040805162461bcd60e51b815260206004820152601f60248201526000805160206152e1833981519152604482015290519081900360640190fd5b60026001556011546001600160a01b0316801561143a57600260009054906101000a90046001600160a01b03166001600160a01b0316635c7460d66040518163ffffffff1660e01b815260040160206040518083038186803b15801561134f57600080fd5b505afa158015611363573d6000803e3d6000fd5b505050506040513d602081101561137957600080fd5b505160408051625a87b960e31b81526001600160a01b0387811660048301528481166024830152915191909216916302d43dc8916044808301926020929190829003018186803b1580156113cc57600080fd5b505afa1580156113e0573d6000803e3d6000fd5b505050506040513d60208110156113f657600080fd5b505161143a576040805162461bcd60e51b815260206004820152600e60248201526d34b73b30b634b2103632b73232b960911b604482015290519081900360640190fd5b600060145460ff16600581111561144d57fe5b14611484576040805162461bcd60e51b8152602060048201526002602482015261313560f01b604482015290519081900360640190fd5b60075442106114bf576040805162461bcd60e51b8152602060048201526002602482015261189b60f11b604482015290519081900360640190fd5b600654600354604080516318160ddd60e01b815290516000926001600160a01b0316916318160ddd916004808301926020929190829003018186803b15801561150757600080fd5b505afa15801561151b573d6000803e3d6000fd5b505050506040513d602081101561153157600080fd5b50519050816115408683613f9b565b1115611553576115508282613f3e565b94505b6009546001600160a01b031661156f8560008389823330614258565b50600354604080516340c10f1960e01b81526001600160a01b038a81166004830152602482018a9052915191909216916340c10f1991604480830192600092919082900301818387803b1580156115c557600080fd5b505af11580156115d9573d6000803e3d6000fd5b5050604080518981526001600160a01b038b16602082015281517ff09dbebdc018e2d81469b76b813a178bbc38dde6fd1056134b68f291a58802e29450908190039091019150a15050600180555050505050565b600260009054906101000a90046001600160a01b03166001600160a01b0316638da5cb5b6040518163ffffffff1660e01b815260040160206040518083038186803b15801561167b57600080fd5b505afa15801561168f573d6000803e3d6000fd5b505050506040513d60208110156116a557600080fd5b50516001600160a01b031633146116e7576040805162461bcd60e51b81526020600482015260016024820152603360f81b604482015290519081900360640190fd5b6116f2336000613ff5565b600360009054906101000a90046001600160a01b03166001600160a01b0316638456cb596040518163ffffffff1660e01b8152600401600060405180830381600087803b15801561174257600080fd5b505af1158015611756573d6000803e3d6000fd5b50506014805460ff191660051790555050600254604080516302d5537b60e41b815290516001600160a01b0390921691632d5537b091600480820192602092909190829003018186803b1580156117ac57600080fd5b505afa1580156117c0573d6000803e3d6000fd5b505050506040513d60208110156117d657600080fd5b5051604080516311f2df1b60e21b815290516001600160a01b03909216916347cb7c6c9160048082019260009290919082900301818387803b15801561181b57600080fd5b505af115801561182f573d6000803e3d6000fd5b50506040517f07d64959f11f8107f710e3e88140e45b57efb9e6653fbf73e9e546b8aa1b0b36925060009150a1565b6000806118ea600360009054906101000a90046001600160a01b03166001600160a01b03166318160ddd6040518163ffffffff1660e01b815260040160206040518083038186803b1580156118b257600080fd5b505afa1580156118c6573d6000803e3d6000fd5b505050506040513d60208110156118dc57600080fd5b50516108d786610b646119e1565b600f546010549192506001600160a01b0390811691166000811561199057816001600160a01b03166359846d2987856040518363ffffffff1660e01b815260040180838152602001826001600160a01b0316815260200192505050602060405180830381600087803b15801561195f57600080fd5b505af1158015611973573d6000803e3d6000fd5b505050506040513d602081101561198957600080fd5b5051611992565b855b6009549091506000906119b09085906001600160a01b031684611b70565b90506119d56119bf8987613f9b565b6108d78368327cb2734119d3b7a9601e1b613cbc565b98975050505050505050565b6002546040805163171e108560e01b815290516000926001600160a01b03169183918291849163171e108591600480820192602092909190829003018186803b158015611a2d57600080fd5b505afa158015611a41573d6000803e3d6000fd5b505050506040513d6020811015611a5757600080fd5b50516040805160016216f02b60e01b0319815230600482015281516001600160a01b039093169263ffe90fd592602480840193919291829003018186803b158015611aa157600080fd5b505afa158015611ab5573d6000803e3d6000fd5b505050506040513d6040811015611acb57600080fd5b50805160209091015190925090506000611af14268327cb2734119d3b7a9601e1b613cbc565b600754909150600090611b1b90611b149068327cb2734119d3b7a9601e1b613cbc565b8390613f3e565b9050838111611b32576000955050505050506108e1565b6000611b65789f4f2726179a224501d762422c946590d910000000000000006108d7611b5e8589613f3e565b8790613cbc565b965050505050505090565b6000806000600260009054906101000a90046001600160a01b03166001600160a01b0316632630c12f6040518163ffffffff1660e01b815260040160206040518083038186803b158015611bc357600080fd5b505afa158015611bd7573d6000803e3d6000fd5b505050506040513d6020811015611bed57600080fd5b5051604080516310603c1160e01b81526001600160a01b038981166004830152888116602483015282519316926310603c1192604480840193919291829003018186803b158015611c3d57600080fd5b505afa158015611c51573d6000803e3d6000fd5b505050506040513d6040811015611c6757600080fd5b5080516020909101519092509050611c87600a82900a6108d78685613cbc565b9695505050505050565b600554600654600754600854600954600a54600b54600c54600d54600e54600f546010546011546001600160a01b039c8d169c988916989283169291821691168d565b600080839050600080826001600160a01b0316632630c12f6040518163ffffffff1660e01b815260040160206040518083038186803b158015611d1657600080fd5b505afa158015611d2a573d6000803e3d6000fd5b505050506040513d6020811015611d4057600080fd5b5051600f54600954604080516310603c1160e01b81526001600160a01b0393841660048201529183166024830152805192909316926310603c1192604480840193829003018186803b158015611d9557600080fd5b505afa158015611da9573d6000803e3d6000fd5b505050506040513d6040811015611dbf57600080fd5b5080516020909101519092509050611dfc68327cb2734119d3b7a9601e1b6108d7611dea8289613f3e565b610b64600a86900a6108d78d89613cbc565b979650505050505050565b600080600260009054906101000a90046001600160a01b03166001600160a01b0316639b9842c16040518163ffffffff1660e01b815260040160206040518083038186803b158015611e5857600080fd5b505afa158015611e6c573d6000803e3d6000fd5b505050506040513d6020811015611e8257600080fd5b50516001600160a01b038416600090815260046020526040902060010154909150611eb8611eb1836002613cbc565b8290613f9b565b42111561127c575060009392505050565b600354604080516370a0823160e01b81523360048201819052915191926001600160a01b0316916370a0823191602480820192602092909190829003018186803b158015611f1657600080fd5b505afa158015611f2a573d6000803e3d6000fd5b505050506040513d6020811015611f4057600080fd5b5051611f77576040805162461bcd60e51b81526020600482015260016024820152601960f91b604482015290519081900360640190fd5b60026001541415611fbd576040805162461bcd60e51b815260206004820152601f60248201526000805160206152e1833981519152604482015290519081900360640190fd5b6002600155611fcb33613ed0565b5060018055565b60026001541415612018576040805162461bcd60e51b815260206004820152601f60248201526000805160206152e1833981519152604482015290519081900360640190fd5b60026001819055601454905460ff909116906001600160a01b0316600482600581111561204157fe5b141580156121245750806001600160a01b031663171e10856040518163ffffffff1660e01b815260040160206040518083038186803b15801561208357600080fd5b505afa158015612097573d6000803e3d6000fd5b505050506040513d60208110156120ad57600080fd5b505160408051633bada68960e21b815230600482015290516001600160a01b039092169163eeb69a2491602480820192602092909190829003018186803b1580156120f757600080fd5b505afa15801561210b573d6000803e3d6000fd5b505050506040513d602081101561212157600080fd5b50515b1561213c576014805460ff1916600490811790915591505b600482600581111561214a57fe5b146121865760405162461bcd60e51b81526004018080602001828103825260358152602001806152ac6035913960400191505060405180910390fd5b600f546009546013546012546001600160a01b0393841693909216916000916121af9190613f9b565b6010549091506001600160a01b031681811561224b57816001600160a01b03166359846d2984876040518363ffffffff1660e01b815260040180838152602001826001600160a01b0316815260200192505050602060405180830381600087803b15801561221c57600080fd5b505af1158015612230573d6000803e3d6000fd5b505050506040513d602081101561224657600080fd5b505190505b60006122bc8288896001600160a01b031663acca944f6040518163ffffffff1660e01b815260040160206040518083038186803b15801561228b57600080fd5b505afa15801561229f573d6000803e3d6000fd5b505050506040513d60208110156122b557600080fd5b5051611cd4565b6000601381905560128190559091506122db908c908784823330614258565b506122e98a8a888686614363565b506040805133815290517fc54b2aa56ebf583bfce79c646ac5d4618f0e44bc6874bd07194673a5bd2626a09181900360200190a1505060018055505050505050505050565b60125460135460145460155460ff9091169084565b6005546001600160a01b031690565b600354604080516370a0823160e01b81523360048201819052915191926001600160a01b0316916370a0823191602480820192602092909190829003018186803b15801561239f57600080fd5b505afa1580156123b3573d6000803e3d6000fd5b505050506040513d60208110156123c957600080fd5b5051612400576040805162461bcd60e51b81526020600482015260016024820152601960f91b604482015290519081900360640190fd5b60026001541415612446576040805162461bcd60e51b815260206004820152601f60248201526000805160206152e1833981519152604482015290519081900360640190fd5b6002600181905560145460ff169081600581111561246057fe5b14806124775750600381600581111561247557fe5b145b8061248d5750600481600581111561248b57fe5b145b806124a3575060058160058111156124a157fe5b145b6124d9576040805162461bcd60e51b81526020600482015260026024820152610c8d60f21b604482015290519081900360640190fd5b600354604080516370a0823160e01b815233600482015290516000926001600160a01b0316916370a08231916024808301926020929190829003018186803b15801561252457600080fd5b505afa158015612538573d6000803e3d6000fd5b505050506040513d602081101561254e57600080fd5b5051905080600483600581111561256157fe5b14806125785750600583600581111561257657fe5b145b15612692576009546000906001600160a01b03161561260f57600954604080516370a0823160e01b815230600482015290516001600160a01b03909216916370a0823191602480820192602092909190829003018186803b1580156125dc57600080fd5b505afa1580156125f0573d6000803e3d6000fd5b505050506040513d602081101561260657600080fd5b50519050612612565b50475b600354604080516318160ddd60e01b8152905161268e926001600160a01b0316916318160ddd916004808301926020929190829003018186803b15801561265857600080fd5b505afa15801561266c573d6000803e3d6000fd5b505050506040513d602081101561268257600080fd5b50516108d78484613cbc565b9150505b60038360058111156126a057fe5b141561273757612734611eb1600360009054906101000a90046001600160a01b03166001600160a01b03166318160ddd6040518163ffffffff1660e01b815260040160206040518083038186803b1580156126fa57600080fd5b505afa15801561270e573d6000803e3d6000fd5b505050506040513d602081101561272457600080fd5b50516015546108d7908590613cbc565b90505b600283600581111561274557fe5b14156127545761275433613ed0565b60035460408051632770a7eb60e21b81523360048201526024810185905290516001600160a01b0390921691639dc29fac9160448082019260009290919082900301818387803b1580156127a757600080fd5b505af11580156127bb573d6000803e3d6000fd5b50506009546127d892506001600160a01b031690508230336143f2565b506040805182815233602082015281517f971f63643b6d0341cf9c1971238adc8625537ce1c41ba0a9dfcbd784832bd5f9929181900390910190a15050600180555050565b6002546001600160a01b03163314612860576040805162461bcd60e51b81526020600482015260016024820152601b60f91b604482015290519081900360640190fd5b601180546001600160a01b039283166001600160a01b03199182161790915560038054939092169216919091179055565b60055433906001600160a01b031681146128d6576040805162461bcd60e51b81526020600482015260016024820152603160f81b604482015290519081900360640190fd5b6002600154141561291c576040805162461bcd60e51b815260206004820152601f60248201526000805160206152e1833981519152604482015290519081900360640190fd5b6002600155601454600354604080516318160ddd60e01b8152905160ff909316926000926001600160a01b0316916318160ddd916004808301926020929190829003018186803b15801561296f57600080fd5b505afa158015612983573d6000803e3d6000fd5b505050506040513d602081101561299957600080fd5b5051905060008260058111156129ab57fe5b1480156129b9575060075442115b80156129c6575060085442105b6129fc576040805162461bcd60e51b8152602060048201526002602482015261189960f11b604482015290519081900360640190fd5b6002546006546040805163c2bb7c8d60e01b815290516001600160a01b0390931692612a5b9268327cb2734119d3b7a9601e1b926108d792869163c2bb7c8d916004808301926020929190829003018186803b15801561099b57600080fd5b821015612a94576040805162461bcd60e51b8152602060048201526002602482015261313360f01b604482015290519081900360640190fd5b6014805460ff191660011790556000612aab613b25565b600b54600a54919250612abe9190613f3e565b811015612af7576040805162461bcd60e51b81526020600482015260026024820152610c4d60f21b604482015290519081900360640190fd5b600d54600e546040805163171e108560e01b815290516001600160a01b0386169163171e1085916004808301926020929190829003018186803b158015612b3d57600080fd5b505afa158015612b51573d6000803e3d6000fd5b505050506040513d6020811015612b6757600080fd5b5051600c5460075460095460408051632447e4a760e11b81526004810188905260248101879052604481019490945260648401929092526001600160a01b039081166084840152905192169163488fc94e9160a48082019260009290919082900301818387803b158015612bda57600080fd5b505af1158015612bee573d6000803e3d6000fd5b50505050836001600160a01b0316632d5537b06040518163ffffffff1660e01b815260040160206040518083038186803b158015612c2b57600080fd5b505afa158015612c3f573d6000803e3d6000fd5b505050506040513d6020811015612c5557600080fd5b505160408051635ad3867560e11b81526004810184905290516001600160a01b039092169163b5a70cea9160248082019260009290919082900301818387803b158015612ca157600080fd5b505af1158015612cb5573d6000803e3d6000fd5b505060095460408051637bad520760e01b815281516001600160a01b0393841695506000945084938a1692637bad52079260048181019391829003018186803b158015612d0157600080fd5b505afa158015612d15573d6000803e3d6000fd5b505050506040513d6040811015612d2b57600080fd5b50805160209091015190925090506000612d5568327cb2734119d3b7a9601e1b6108d78b86613cbc565b60006008559050612d68848230856143f2565b50612d7e84612d778b84613f3e565b30336143f2565b50604080518a815290517fd34aff353e8e4ad78ec390d5c4bd580941a8299db97e6c9b7a536ce2030d09899181900360200190a1505060018055505050505050505050565b60145460009060ff166005811115612dd757fe5b905090565b600354604080516370a0823160e01b81526001600160a01b03848116600483015291516000938493169182916370a0823191602480820192602092909190829003018186803b158015612e2e57600080fd5b505afa158015612e42573d6000803e3d6000fd5b505050506040513d6020811015612e5857600080fd5b5051604080516318160ddd60e01b815290516001600160a01b038416916318160ddd916004808301926020929190829003018186803b158015612e9a57600080fd5b505afa158015612eae573d6000803e3d6000fd5b505050506040513d6020811015612ec457600080fd5b5051909350915050915091565b600354604080516370a0823160e01b81523360048201819052915191926001600160a01b0316916370a0823191602480820192602092909190829003018186803b158015612f1e57600080fd5b505afa158015612f32573d6000803e3d6000fd5b505050506040513d6020811015612f4857600080fd5b5051612f7f576040805162461bcd60e51b81526020600482015260016024820152601960f91b604482015290519081900360640190fd5b600160145460ff166005811115612f9257fe5b14612fc8576040805162461bcd60e51b81526020600482015260016024820152600d60fa1b604482015290519081900360640190fd5b6002546001600160a01b0316612fdd33611e07565b15613018576040805162461bcd60e51b81526020600480830191909152602482015263524d433160e01b604482015290519081900360640190fd5b600a54600b5461302b9061122d33613a00565b8111613063576040805162461bcd60e51b8152602060048201526002602482015261191b60f11b604482015290519081900360640190fd5b6130d2826001600160a01b0316639b9842c16040518163ffffffff1660e01b815260040160206040518083038186803b15801561309f57600080fd5b505afa1580156130b3573d6000803e3d6000fd5b505050506040513d60208110156130c957600080fd5b50514290613f9b565b33600081815260046020908152604091829020600101939093558051918252517f5334a046b9fb8040bcaa4dd9a9ecbbe06e299568931f336e4aa6bbf51d511b80929181900390910190a1505050565b60026001541415613168576040805162461bcd60e51b815260206004820152601f60248201526000805160206152e1833981519152604482015290519081900360640190fd5b600260015561317684614630565b6010546001600160a01b031660008061318e87614834565b9092509050816001600160a01b0384161561322857600f54604080516359846d2960e01b8152600481018690526001600160a01b0392831660248201529051918616916359846d29916044808201926020929091908290030181600087803b1580156131f957600080fd5b505af115801561320d573d6000803e3d6000fd5b505050506040513d602081101561322357600080fd5b505190505b613233878983614986565b600f5460009061325190889088906001600160a01b03168886614363565b60035460408051632770a7eb60e21b81526001600160a01b038d81166004830152602482018890529151939450911691639dc29fac9160448082019260009290919082900301818387803b1580156132a857600080fd5b505af11580156132bc573d6000803e3d6000fd5b5050506001600160a01b038a1660008181526004602090815260408083208381556001810184905560020192909255815133815290810192909252818101849052517f9b4fed4f3cd02b7624ed7521dce91b2f3aee138fc5c04d59f2f087e6b261a40d92509081900360600190a150506001805550505050505050565b6002600154141561337f576040805162461bcd60e51b815260206004820152601f60248201526000805160206152e1833981519152604482015290519081900360640190fd5b6002600190815560145460ff16600581111561339757fe5b146133cd576040805162461bcd60e51b81526020600482015260016024820152603960f81b604482015290519081900360640190fd5b426133d784611e07565b101561340f576040805162461bcd60e51b8152602060048201526002602482015261031360f41b604482015290519081900360640190fd5b81613446576040805162461bcd60e51b8152602060048201526002602482015261313160f01b604482015290519081900360640190fd5b600f5460105460009161346e9184916001916001600160a01b03918216918891163330614258565b60135490915061347e9082613f9b565b6013556001600160a01b0384166000908152600460205260409020600201546134a79082613f9b565b6001600160a01b038516600090815260046020526040902060020155600a546134cf85613a00565b106134f1576001600160a01b0384166000908152600460205260408120600101555b604080513381526001600160a01b03861660208201528082018590526060810183905290517f7745b8ee282b3bb1a0958b211eb3a34506deb988e5488e560a63b83ce03ba9d99181900360800190a15050600180555050565b600080600260009054906101000a90046001600160a01b03166001600160a01b031663171e10856040518163ffffffff1660e01b815260040160206040518083038186803b15801561359b57600080fd5b505afa1580156135af573d6000803e3d6000fd5b505050506040513d60208110156135c557600080fd5b505160408051630a3371f560e11b815230600482015290516001600160a01b0390921691631466e3ea91602480820192602092909190829003018186803b15801561360f57600080fd5b505afa158015613623573d6000803e3d6000fd5b505050506040513d602081101561363957600080fd5b50516001600160a01b0380851660009081526004602081815260408084205460035482516318160ddd60e01b81529251979850949661371f969195613719959216936318160ddd938084019391929190829003018186803b15801561369d57600080fd5b505afa1580156136b1573d6000803e3d6000fd5b505050506040513d60208110156136c757600080fd5b5051600354604080516370a0823160e01b81526001600160a01b038b8116600483015291516108d7938a9316916370a08231916024808301926020929190829003018186803b15801561099b57600080fd5b90613f3e565b949350505050565b6002600154141561376d576040805162461bcd60e51b815260206004820152601f60248201526000805160206152e1833981519152604482015290519081900360640190fd5b6002600155600360145460ff16600581111561378557fe5b146137b1576040805162461bcd60e51b8152602060048201526000602482015290519081900360640190fd5b601554156137e0576040805162461bcd60e51b8152602060048201526000602482015290519081900360640190fd5b600254601054600f546012546001600160a01b03938416939283169290911690821561388c57826001600160a01b03166359846d2982846040518363ffffffff1660e01b815260040180838152602001826001600160a01b0316815260200192505050602060405180830381600087803b15801561385d57600080fd5b505af1158015613871573d6000803e3d6000fd5b505050506040513d602081101561388757600080fd5b505190505b60006138cc8286876001600160a01b031663acca944f6040518163ffffffff1660e01b815260040160206040518083038186803b15801561228b57600080fd5b60158190556009549091506138ec906001600160a01b03168233306143f2565b50600f5460105461390e91899189916001600160a01b03908116911686614363565b505060018055505050505050565b6003546001600160a01b031681565b81613961576040805162461bcd60e51b81526020600482015260016024820152603760f81b604482015290519081900360640190fd5b61396c338383614a10565b5050565b600354604080516318160ddd60e01b815290516000926001600160a01b0316916318160ddd916004808301926020929190829003018186803b1580156139b557600080fd5b505afa1580156139c9573d6000803e3d6000fd5b505050506040513d60208110156139df57600080fd5b5051905090565b60006139fa600560090154610b6484611259565b92915050565b600354604080516370a0823160e01b81526001600160a01b0384811660048301529151600093849316916370a08231916024808301926020929190829003018186803b158015613a4f57600080fd5b505afa158015613a63573d6000803e3d6000fd5b505050506040513d6020811015613a7957600080fd5b50516001600160a01b0380851660009081526004602081815260408084206002015460035482516318160ddd60e01b815292519798509496613b1996919561122d959216936318160ddd938084019391929190829003018186803b158015613ae057600080fd5b505afa158015613af4573d6000803e3d6000fd5b505050506040513d6020811015613b0a57600080fd5b50516012546108d79087613cbc565b905061371f828261185e565b6013546012546000918291613b3991613f9b565b90506108dd600360009054906101000a90046001600160a01b03166001600160a01b03166318160ddd6040518163ffffffff1660e01b815260040160206040518083038186803b158015613b8c57600080fd5b505afa158015613ba0573d6000803e3d6000fd5b505050506040513d6020811015613bb657600080fd5b50518261185e565b60008184841115613c4d5760405162461bcd60e51b81526004018080602001828103825283818151815260200191508051906020019080838360005b83811015613c12578181015183820152602001613bfa565b50505050905090810190601f168015613c3f5780820380516001836020036101000a031916815260200191505b509250505060405180910390fd5b505050900390565b6000808211613cab576040805162461bcd60e51b815260206004820152601a60248201527f536166654d6174683a206469766973696f6e206279207a65726f000000000000604482015290519081900360640190fd5b818381613cb457fe5b049392505050565b600082613ccb575060006139fa565b82820282848281613cd857fe5b041461127c5760405162461bcd60e51b815260040180806020018281038252602181526020018061535d6021913960400191505060405180910390fd5b6014805460ff19166003179055600254604080516302d5537b60e41b815290516001600160a01b0390921691632d5537b091600480820192602092909190829003018186803b158015613d6757600080fd5b505afa158015613d7b573d6000803e3d6000fd5b505050506040513d6020811015613d9157600080fd5b5051604080516311f2df1b60e21b815290516001600160a01b03909216916347cb7c6c9160048082019260009290919082900301818387803b158015613dd657600080fd5b505af1158015613dea573d6000803e3d6000fd5b5050600554613e0592506001600160a01b0316905082613ff5565b600360009054906101000a90046001600160a01b03166001600160a01b0316638456cb596040518163ffffffff1660e01b8152600401600060405180830381600087803b158015613e5557600080fd5b505af1158015613e69573d6000803e3d6000fd5b50506040517f8cbd53891ca54fbd5e0e3309a32f9a006458224831c41274a5fd8d8a0d937e71925060009150a150565b600e546000904284101561127c574283811115613eb35750825b613ec7613ec08287613f3e565b8390613f9b565b95945050505050565b6000613edb8261354a565b905080613ee85750613f3b565b6001600160a01b038216600090815260046020526040902054613f0b9082613f9b565b6001600160a01b03808416600090815260046020526040902091909155600954613f3891168230856143f2565b50505b50565b600082821115613f95576040805162461bcd60e51b815260206004820152601e60248201527f536166654d6174683a207375627472616374696f6e206f766572666c6f770000604482015290519081900360640190fd5b50900390565b60008282018381101561127c576040805162461bcd60e51b815260206004820152601b60248201527f536166654d6174683a206164646974696f6e206f766572666c6f770000000000604482015290519081900360640190fd5b601054600f546013546012546001600160a01b039384169390921691600091859161401f91613f9b565b111561403d5760135460125461403a91869161371991613f9b565b90505b806001600160a01b038416156140d357836001600160a01b03166359846d2983856040518363ffffffff1660e01b815260040180838152602001826001600160a01b0316815260200192505050602060405180830381600087803b1580156140a457600080fd5b505af11580156140b8573d6000803e3d6000fd5b505050506040513d60208110156140ce57600080fd5b505190505b601285905560006013819055821561416a576002546040805163ecced62360e01b815290516000926001600160a01b03169163ecced623916004808301926020929190829003018186803b15801561412a57600080fd5b505afa15801561413e573d6000803e3d6000fd5b505050506040513d602081101561415457600080fd5b5051905061416681308a86898b614ae8565b9150505b604080516001600160a01b03891681526020810183905281517fc30fcfbcaac9e0deffa719714eaa82396ff506a0d0d0eebe170830177288715d929181900390910190a150505050505050565b60006141c230614c33565b15905090565b600954600f546006546000926141ec926001600160a01b0391821692911690611b70565b600a5490915061420e9068327cb2734119d3b7a9601e1b906108d79084613cbc565b831015614247576040805162461bcd60e51b8152602060048201526002602482015261199b60f11b604482015290519081900360640190fd5b614252848484614a10565b50505050565b600087156142e6576002546040805163ecced62360e01b815290516142df926001600160a01b03169163ecced623916004808301926020929190829003018186803b1580156142a657600080fd5b505afa1580156142ba573d6000803e3d6000fd5b505050506040513d60208110156142d057600080fd5b50518484888a8960018e614c39565b9050611dfc565b6002546040805163ecced62360e01b815290516119d5926001600160a01b03169163ecced623916004808301926020929190829003018186803b15801561432c57600080fd5b505afa158015614340573d6000803e3d6000fd5b505050506040513d602081101561435657600080fd5b50518484888a8c8a614c65565b600080600260009054906101000a90046001600160a01b03166001600160a01b031663ecced6236040518163ffffffff1660e01b815260040160206040518083038186803b1580156143b457600080fd5b505afa1580156143c8573d6000803e3d6000fd5b505050506040513d60208110156143de57600080fd5b50519050611dfc8130338689898c8e614c39565b6000836144015750600061371f565b6001600160a01b0385166145e8578334101561444e5760405162461bcd60e51b815260040180806020018281038252602e815260200180615301602e913960400191505060405180910390fd5b6001600160a01b03821630146144f8576040516000906001600160a01b0384169086908381818185875af1925050503d80600081146144a9576040519150601f19603f3d011682016040523d82523d6000602084013e6144ae565b606091505b50509050806144f6576040805162461bcd60e51b815260206004820152600f60248201526e151c985b9cd9995c8819985a5b1959608a1b604482015290519081900360640190fd5b505b8334111561459857604051600090339034879003908381818185875af1925050503d8060008114614545576040519150601f19603f3d011682016040523d82523d6000602084013e61454a565b606091505b5050905080614592576040805162461bcd60e51b815260206004820152600f60248201526e151c985b9cd9995c8819985a5b1959608a1b604482015290519081900360640190fd5b506145e1565b8334146145e1576040805162461bcd60e51b815260206004820152601260248201527124b739bab33334b1b4b2b73a1022ba3432b960711b604482015290519081900360640190fd5b508261371f565b6001600160a01b0383163014156146125761460d6001600160a01b0386168386614c87565b614627565b6146276001600160a01b038616848487614cd9565b50919392505050565b600160145460ff16600581111561464357fe5b148015614651575060085442115b614687576040805162461bcd60e51b8152602060048201526002602482015261323760f01b604482015290519081900360640190fd5b6001600160a01b0381166000908152600460205260409020600101546146ac82611e07565b6146fd576040805162461bcd60e51b815260206004820152601f60248201527f4e6f206d617267696e2063616c6c20686173206265656e2063616c6c65642e00604482015290519081900360640190fd5b428110614736576040805162461bcd60e51b8152602060048201526002602482015261064760f31b604482015290519081900360640190fd5b61473f82613a00565b600b54600a5461474e91613f3e565b11614785576040805162461bcd60e51b8152602060048201526002602482015261323960f01b604482015290519081900360640190fd5b600354604080516370a0823160e01b81526001600160a01b038581166004830152915191909216916370a08231916024808301926020929190829003018186803b1580156147d257600080fd5b505afa1580156147e6573d6000803e3d6000fd5b505050506040513d60208110156147fc57600080fd5b505161396c576040805162461bcd60e51b8152602060048201526002602482015261033360f41b604482015290519081900360640190fd5b601254600354604080516370a0823160e01b81526001600160a01b03858116600483015291516000948594909316916370a08231916024808301926020929190829003018186803b15801561488857600080fd5b505afa15801561489c573d6000803e3d6000fd5b505050506040513d60208110156148b257600080fd5b5051600354604080516318160ddd60e01b81529051929450600092614936926001600160a01b0316916318160ddd916004808301926020929190829003018186803b15801561490057600080fd5b505afa158015614914573d6000803e3d6000fd5b505050506040513d602081101561492a57600080fd5b50516108d78486613cbc565b6001600160a01b03861660009081526004602052604090206002015490915061495f8383613f3e565b60125560135461496f9082613f3e565b60135561497c8282613f9b565b9450505050915091565b6010546002546040805163acca944f60e01b815290516001600160a01b0393841693909216916000916149de9186918591829163acca944f916004808301926020929190829003018186803b15801561228b57600080fd5b6009549091506001600160a01b03166149fd876000838588338c614258565b50614a0786613ed0565b50505050505050565b60026001541415614a56576040805162461bcd60e51b815260206004820152601f60248201526000805160206152e1833981519152604482015290519081900360640190fd5b60026001908155600f54601054600092614a829285926001600160a01b03918216918891168930614258565b601254909150614a929082613f9b565b601255604080516001600160a01b03861681526020810185905280820183905290517f11f8990ac38271f23dea447d5728e9914fca7cea2edda43af6c43c415f8bc30b9181900360600190a15050600180555050565b60006001600160a01b038616301415614b90576040805163448b903960e11b8152600481018690526001600160a01b038581166024830152848116604483015287811660648301529151918916916389172072916084808201926020929091908290030181600087803b158015614b5e57600080fd5b505af1158015614b72573d6000803e3d6000fd5b505050506040513d6020811015614b8857600080fd5b50614c289050565b604080516319dad0dd60e11b8152600481018690526001600160a01b0385811660248301528481166044830152888116606483015287811660848301529151918916916333b5a1ba9160a4808201926020929091908290030181600087803b158015614bfb57600080fd5b505af1158015614c0f573d6000803e3d6000fd5b505050506040513d6020811015614c2557600080fd5b50505b509195945050505050565b3b151590565b60008115614c5657614c4f898989898989614ae8565b90506119d5565b614c4f89898989898989614d33565b60008215614c7b576142df888888888887614e8f565b6142df848689896143f2565b604080516001600160a01b038416602482015260448082018490528251808303909101815260649091019091526020810180516001600160e01b031663a9059cbb60e01b179052613f38908490614f6b565b604080516001600160a01b0380861660248301528416604482015260648082018490528251808303909101815260849091019091526020810180516001600160e01b03166323b872dd60e01b179052614252908590614f6b565b60006001600160a01b038716301415614de457604080516345cd75e960e01b8152600481018790526001600160a01b0386811660248301528581166044830152888116606483015284151560848301529151918a16916345cd75e99160a4808201926020929091908290030181600087803b158015614db157600080fd5b505af1158015614dc5573d6000803e3d6000fd5b505050506040513d6020811015614ddb57600080fd5b50519050611dfc565b6040805163ea975cb360e01b8152600481018790526001600160a01b03868116602483015285811660448301528981166064830152888116608483015284151560a48301529151918a169163ea975cb39160c4808201926020929091908290030181600087803b158015614e5757600080fd5b505af1158015614e6b573d6000803e3d6000fd5b505050506040513d6020811015614e8157600080fd5b505198975050505050505050565b6000614e9d838588306143f2565b5060006001600160a01b038416614eb5575083614edd565b826001600160a01b038116614ec75750875b614edb6001600160a01b038616828861501c565b505b604080516330940a0f60e21b8152600481018790526001600160a01b038681166024830152858116604483015288811660648301529151918a169163c250283c918491608480830192602092919082900301818588803b158015614f4057600080fd5b505af1158015614f54573d6000803e3d6000fd5b50505050506040513d6020811015614e8157600080fd5b6060614fc0826040518060400160405280602081526020017f5361666545524332303a206c6f772d6c6576656c2063616c6c206661696c6564815250856001600160a01b031661512f9092919063ffffffff16565b805190915015613f3857808060200190516020811015614fdf57600080fd5b5051613f385760405162461bcd60e51b815260040180806020018281038252602a81526020018061537e602a913960400191505060405180910390fd5b8015806150a2575060408051636eb1769f60e11b81523060048201526001600160a01b03848116602483015291519185169163dd62ed3e91604480820192602092909190829003018186803b15801561507457600080fd5b505afa158015615088573d6000803e3d6000fd5b505050506040513d602081101561509e57600080fd5b5051155b6150dd5760405162461bcd60e51b81526004018080602001828103825260368152602001806153a86036913960400191505060405180910390fd5b604080516001600160a01b038416602482015260448082018490528251808303909101815260649091019091526020810180516001600160e01b031663095ea7b360e01b179052613f38908490614f6b565b606061371f84846000858561514385614c33565b615194576040805162461bcd60e51b815260206004820152601d60248201527f416464726573733a2063616c6c20746f206e6f6e2d636f6e7472616374000000604482015290519081900360640190fd5b60006060866001600160a01b031685876040518082805190602001908083835b602083106151d35780518252601f1990920191602091820191016151b4565b6001836020036101000a03801982511681845116808217855250505050505090500191505060006040518083038185875af1925050503d8060008114615235576040519150601f19603f3d011682016040523d82523d6000602084013e61523a565b606091505b5091509150611dfc8282866060831561525457508161127c565b8251156152645782518084602001fd5b60405162461bcd60e51b8152602060048201818152845160248401528451859391928392604401919085019080838360008315613c12578181015183820152602001613bfa56fe506f6f6c3a3a6c6971756964617465506f6f6c202d204e6f20726561736f6e20746f206c69717569646174652074686520706f6f6c5265656e7472616e637947756172643a207265656e7472616e742063616c6c006574686572732070726f76696465642073686f756c642062652067726561746572207468616e205f616d6f756e74496e697469616c697a61626c653a20636f6e747261637420697320616c726561647920696e697469616c697a6564536166654d6174683a206d756c7469706c69636174696f6e206f766572666c6f775361666545524332303a204552433230206f7065726174696f6e20646964206e6f7420737563636565645361666545524332303a20617070726f76652066726f6d206e6f6e2d7a65726f20746f206e6f6e2d7a65726f20616c6c6f77616e6365a26469706673582212207dbdb9773d6cdecd4ac9a55a848432e322cdd0d68e46b8d2a15449694087f00664736f6c63430007000033",
  "linkReferences": {},
  "deployedLinkReferences": {}
}