{
  "_format": "hh-sol-artifact-1",
  "contractName": "PoolFactory",
  "sourceName": "contracts/Pool/PoolFactory.sol",
  "abi": [
    {
      "anonymous": false,
      "inputs": [
        {
          "indexed": false,
          "internalType": "address",
          "name": "borrowToken",
          "type": "address"
        },
        {
          "indexed": false,
          "internalType": "bool",
          "name": "isSupported",
          "type": "bool"
        }
      ],
      "name": "BorrowTokenUpdated",
      "type": "event"
    },
    {
      "anonymous": false,
      "inputs": [
        {
          "indexed": false,
          "internalType": "address",
          "name": "collateralToken",
          "type": "address"
        },
        {
          "indexed": false,
          "internalType": "bool",
          "name": "isSupported",
          "type": "bool"
        }
      ],
      "name": "CollateralTokenUpdated",
      "type": "event"
    },
    {
      "anonymous": false,
      "inputs": [
        {
          "indexed": false,
          "internalType": "uint256",
          "name": "updatedCollectionPeriod",
          "type": "uint256"
        }
      ],
      "name": "CollectionPeriodUpdated",
      "type": "event"
    },
    {
      "anonymous": false,
      "inputs": [
        {
          "indexed": false,
          "internalType": "address",
          "name": "updatedExtension",
          "type": "address"
        }
      ],
      "name": "ExtensionImplUpdated",
      "type": "event"
    },
    {
      "anonymous": false,
      "inputs": [
        {
          "indexed": false,
          "internalType": "string",
          "name": "limitType",
          "type": "string"
        },
        {
          "indexed": false,
          "internalType": "uint256",
          "name": "max",
          "type": "uint256"
        },
        {
          "indexed": false,
          "internalType": "uint256",
          "name": "min",
          "type": "uint256"
        }
      ],
      "name": "LimitsUpdated",
      "type": "event"
    },
    {
      "anonymous": false,
      "inputs": [
        {
          "indexed": false,
          "internalType": "uint256",
          "name": "updatedLiquidatorRewardFraction",
          "type": "uint256"
        }
      ],
      "name": "LiquidatorRewardFractionUpdated",
      "type": "event"
    },
    {
      "anonymous": false,
      "inputs": [
        {
          "indexed": false,
          "internalType": "uint256",
          "name": "updatedLoanWithdrawalDuration",
          "type": "uint256"
        }
      ],
      "name": "LoanWithdrawalDurationUpdated",
      "type": "event"
    },
    {
      "anonymous": false,
      "inputs": [
        {
          "indexed": false,
          "internalType": "uint256",
          "name": "updatedMarginCallDuration",
          "type": "uint256"
        }
      ],
      "name": "MarginCallDurationUpdated",
      "type": "event"
    },
    {
      "anonymous": false,
      "inputs": [
        {
          "indexed": false,
          "internalType": "uint256",
          "name": "updatedMinBorrowFraction",
          "type": "uint256"
        }
      ],
      "name": "MinBorrowFractionUpdated",
      "type": "event"
    },
    {
      "anonymous": false,
      "inputs": [
        {
          "indexed": true,
          "internalType": "address",
          "name": "previousOwner",
          "type": "address"
        },
        {
          "indexed": true,
          "internalType": "address",
          "name": "newOwner",
          "type": "address"
        }
      ],
      "name": "OwnershipTransferred",
      "type": "event"
    },
    {
      "anonymous": false,
      "inputs": [
        {
          "indexed": false,
          "internalType": "uint256",
          "name": "updatedPoolCancelPenaltyFraction",
          "type": "uint256"
        }
      ],
      "name": "PoolCancelPenaltyFractionUpdated",
      "type": "event"
    },
    {
      "anonymous": false,
      "inputs": [
        {
          "indexed": false,
          "internalType": "address",
          "name": "pool",
          "type": "address"
        },
        {
          "indexed": false,
          "internalType": "address",
          "name": "borrower",
          "type": "address"
        },
        {
          "indexed": false,
          "internalType": "address",
          "name": "poolToken",
          "type": "address"
        }
      ],
      "name": "PoolCreated",
      "type": "event"
    },
    {
      "anonymous": false,
      "inputs": [
        {
          "indexed": false,
          "internalType": "bytes4",
          "name": "updatedSelector",
          "type": "bytes4"
        }
      ],
      "name": "PoolInitSelectorUpdated",
      "type": "event"
    },
    {
      "anonymous": false,
      "inputs": [
        {
          "indexed": false,
          "internalType": "address",
          "name": "updatedPoolLogic",
          "type": "address"
        }
      ],
      "name": "PoolLogicUpdated",
      "type": "event"
    },
    {
      "anonymous": false,
      "inputs": [
        {
          "indexed": false,
          "internalType": "address",
          "name": "updatedPoolTokenImpl",
          "type": "address"
        }
      ],
      "name": "PoolTokenImplUpdated",
      "type": "event"
    },
    {
      "anonymous": false,
      "inputs": [
        {
          "indexed": false,
          "internalType": "bytes4",
          "name": "updatedSelector",
          "type": "bytes4"
        }
      ],
      "name": "PoolTokenInitFuncSelector",
      "type": "event"
    },
    {
      "anonymous": false,
      "inputs": [
        {
          "indexed": false,
          "internalType": "address",
          "name": "updatedPriceOracle",
          "type": "address"
        }
      ],
      "name": "PriceOracleUpdated",
      "type": "event"
    },
    {
      "anonymous": false,
      "inputs": [
        {
          "indexed": false,
          "internalType": "address",
          "name": "updatedProtocolFeeCollector",
          "type": "address"
        }
      ],
      "name": "ProtocolFeeCollectorUpdated",
      "type": "event"
    },
    {
      "anonymous": false,
      "inputs": [
        {
          "indexed": false,
          "internalType": "uint256",
          "name": "updatedProtocolFee",
          "type": "uint256"
        }
      ],
      "name": "ProtocolFeeFractionUpdated",
      "type": "event"
    },
    {
      "anonymous": false,
      "inputs": [
        {
          "indexed": false,
          "internalType": "address",
          "name": "updatedRepaymentImpl",
          "type": "address"
        }
      ],
      "name": "RepaymentImplUpdated",
      "type": "event"
    },
    {
      "anonymous": false,
      "inputs": [
        {
          "indexed": false,
          "internalType": "address",
          "name": "savingsAccount",
          "type": "address"
        }
      ],
      "name": "SavingsAccountUpdated",
      "type": "event"
    },
    {
      "anonymous": false,
      "inputs": [
        {
          "indexed": false,
          "internalType": "address",
          "name": "updatedStrategyRegistry",
          "type": "address"
        }
      ],
      "name": "StrategyRegistryUpdated",
      "type": "event"
    },
    {
      "anonymous": false,
      "inputs": [
        {
          "indexed": false,
          "internalType": "address",
          "name": "updatedBorrowerRegistry",
          "type": "address"
        }
      ],
      "name": "UserRegistryUpdated",
      "type": "event"
    },
    {
      "inputs": [],
      "name": "MINTER_ROLE",
      "outputs": [
        {
          "internalType": "bytes32",
          "name": "",
          "type": "bytes32"
        }
      ],
      "stateMutability": "view",
      "type": "function"
    },
    {
      "inputs": [],
      "name": "PAUSER_ROLE",
      "outputs": [
        {
          "internalType": "bytes32",
          "name": "",
          "type": "bytes32"
        }
      ],
      "stateMutability": "view",
      "type": "function"
    },
    {
      "inputs": [],
      "name": "collectionPeriod",
      "outputs": [
        {
          "internalType": "uint256",
          "name": "",
          "type": "uint256"
        }
      ],
      "stateMutability": "view",
      "type": "function"
    },
    {
      "inputs": [
        {
          "internalType": "uint256",
          "name": "_poolSize",
          "type": "uint256"
        },
        {
          "internalType": "uint256",
          "name": "_borrowRate",
          "type": "uint256"
        },
        {
          "internalType": "address",
          "name": "_borrowToken",
          "type": "address"
        },
        {
          "internalType": "address",
          "name": "_collateralToken",
          "type": "address"
        },
        {
          "internalType": "uint256",
          "name": "_collateralRatio",
          "type": "uint256"
        },
        {
          "internalType": "uint256",
          "name": "_volatilityThreshold",
          "type": "uint256"
        },
        {
          "internalType": "uint256",
          "name": "_repaymentInterval",
          "type": "uint256"
        },
        {
          "internalType": "uint256",
          "name": "_noOfRepaymentIntervals",
          "type": "uint256"
        },
        {
          "internalType": "address",
          "name": "_poolSavingsStrategy",
          "type": "address"
        },
        {
          "internalType": "uint256",
          "name": "_collateralAmount",
          "type": "uint256"
        },
        {
          "internalType": "bool",
          "name": "_transferFromSavingsAccount",
          "type": "bool"
        },
        {
          "internalType": "bytes32",
          "name": "_salt",
          "type": "bytes32"
        },
        {
          "internalType": "address",
          "name": "_verifier",
          "type": "address"
        },
        {
          "internalType": "address",
          "name": "_lenderVerifier",
          "type": "address"
        }
      ],
      "name": "createPool",
      "outputs": [],
      "stateMutability": "payable",
      "type": "function"
    },
    {
      "inputs": [],
      "name": "extension",
      "outputs": [
        {
          "internalType": "address",
          "name": "",
          "type": "address"
        }
      ],
      "stateMutability": "view",
      "type": "function"
    },
    {
      "inputs": [],
      "name": "getProtocolFeeData",
      "outputs": [
        {
          "internalType": "uint256",
          "name": "",
          "type": "uint256"
        },
        {
          "internalType": "address",
          "name": "",
          "type": "address"
        }
      ],
      "stateMutability": "view",
      "type": "function"
    },
    {
      "inputs": [
        {
          "internalType": "address",
          "name": "_admin",
          "type": "address"
        },
        {
          "internalType": "uint256",
          "name": "_collectionPeriod",
          "type": "uint256"
        },
        {
          "internalType": "uint256",
          "name": "_loanWithdrawalDuration",
          "type": "uint256"
        },
        {
          "internalType": "uint256",
          "name": "_marginCallDuration",
          "type": "uint256"
        },
        {
          "internalType": "bytes4",
          "name": "_poolInitFuncSelector",
          "type": "bytes4"
        },
        {
          "internalType": "bytes4",
          "name": "_poolTokenInitFuncSelector",
          "type": "bytes4"
        },
        {
          "internalType": "uint256",
          "name": "_liquidatorRewardFraction",
          "type": "uint256"
        },
        {
          "internalType": "uint256",
          "name": "_poolCancelPenaltyFraction",
          "type": "uint256"
        },
        {
          "internalType": "uint256",
          "name": "_minBorrowFraction",
          "type": "uint256"
        },
        {
          "internalType": "uint256",
          "name": "_protocolFeeFraction",
          "type": "uint256"
        },
        {
          "internalType": "address",
          "name": "_protocolFeeCollector",
          "type": "address"
        }
      ],
      "name": "initialize",
      "outputs": [],
      "stateMutability": "nonpayable",
      "type": "function"
    },
    {
      "inputs": [],
      "name": "liquidatorRewardFraction",
      "outputs": [
        {
          "internalType": "uint256",
          "name": "",
          "type": "uint256"
        }
      ],
      "stateMutability": "view",
      "type": "function"
    },
    {
      "inputs": [],
      "name": "loanWithdrawalDuration",
      "outputs": [
        {
          "internalType": "uint256",
          "name": "",
          "type": "uint256"
        }
      ],
      "stateMutability": "view",
      "type": "function"
    },
    {
      "inputs": [],
      "name": "marginCallDuration",
      "outputs": [
        {
          "internalType": "uint256",
          "name": "",
          "type": "uint256"
        }
      ],
      "stateMutability": "view",
      "type": "function"
    },
    {
      "inputs": [],
      "name": "minBorrowFraction",
      "outputs": [
        {
          "internalType": "uint256",
          "name": "",
          "type": "uint256"
        }
      ],
      "stateMutability": "view",
      "type": "function"
    },
    {
      "inputs": [],
      "name": "owner",
      "outputs": [
        {
          "internalType": "address",
          "name": "",
          "type": "address"
        }
      ],
      "stateMutability": "view",
      "type": "function"
    },
    {
      "inputs": [],
      "name": "poolCancelPenaltyFraction",
      "outputs": [
        {
          "internalType": "uint256",
          "name": "",
          "type": "uint256"
        }
      ],
      "stateMutability": "view",
      "type": "function"
    },
    {
      "inputs": [],
      "name": "poolImpl",
      "outputs": [
        {
          "internalType": "address",
          "name": "",
          "type": "address"
        }
      ],
      "stateMutability": "view",
      "type": "function"
    },
    {
      "inputs": [],
      "name": "poolInitFuncSelector",
      "outputs": [
        {
          "internalType": "bytes4",
          "name": "",
          "type": "bytes4"
        }
      ],
      "stateMutability": "view",
      "type": "function"
    },
    {
      "inputs": [
        {
          "internalType": "address",
          "name": "",
          "type": "address"
        }
      ],
      "name": "poolRegistry",
      "outputs": [
        {
          "internalType": "bool",
          "name": "",
          "type": "bool"
        }
      ],
      "stateMutability": "view",
      "type": "function"
    },
    {
      "inputs": [],
      "name": "poolTokenImpl",
      "outputs": [
        {
          "internalType": "address",
          "name": "",
          "type": "address"
        }
      ],
      "stateMutability": "view",
      "type": "function"
    },
    {
      "inputs": [],
      "name": "poolTokenInitFuncSelector",
      "outputs": [
        {
          "internalType": "bytes4",
          "name": "",
          "type": "bytes4"
        }
      ],
      "stateMutability": "view",
      "type": "function"
    },
    {
      "inputs": [],
      "name": "priceOracle",
      "outputs": [
        {
          "internalType": "address",
          "name": "",
          "type": "address"
        }
      ],
      "stateMutability": "view",
      "type": "function"
    },
    {
      "inputs": [],
      "name": "renounceOwnership",
      "outputs": [],
      "stateMutability": "nonpayable",
      "type": "function"
    },
    {
      "inputs": [],
      "name": "repaymentImpl",
      "outputs": [
        {
          "internalType": "address",
          "name": "",
          "type": "address"
        }
      ],
      "stateMutability": "view",
      "type": "function"
    },
    {
      "inputs": [],
      "name": "savingsAccount",
      "outputs": [
        {
          "internalType": "address",
          "name": "",
          "type": "address"
        }
      ],
      "stateMutability": "view",
      "type": "function"
    },
    {
      "inputs": [
        {
          "internalType": "address",
          "name": "_poolImpl",
          "type": "address"
        },
        {
          "internalType": "address",
          "name": "_repaymentImpl",
          "type": "address"
        },
        {
          "internalType": "address",
          "name": "_poolTokenImpl",
          "type": "address"
        },
        {
          "internalType": "address",
          "name": "_userRegistry",
          "type": "address"
        },
        {
          "internalType": "address",
          "name": "_strategyRegistry",
          "type": "address"
        },
        {
          "internalType": "address",
          "name": "_priceOracle",
          "type": "address"
        },
        {
          "internalType": "address",
          "name": "_savingsAccount",
          "type": "address"
        },
        {
          "internalType": "address",
          "name": "_extension",
          "type": "address"
        }
      ],
      "name": "setImplementations",
      "outputs": [],
      "stateMutability": "nonpayable",
      "type": "function"
    },
    {
      "inputs": [],
      "name": "strategyRegistry",
      "outputs": [
        {
          "internalType": "address",
          "name": "",
          "type": "address"
        }
      ],
      "stateMutability": "view",
      "type": "function"
    },
    {
      "inputs": [
        {
          "internalType": "address",
          "name": "newOwner",
          "type": "address"
        }
      ],
      "name": "transferOwnership",
      "outputs": [],
      "stateMutability": "nonpayable",
      "type": "function"
    },
    {
      "inputs": [
        {
          "internalType": "uint256",
          "name": "_min",
          "type": "uint256"
        },
        {
          "internalType": "uint256",
          "name": "_max",
          "type": "uint256"
        }
      ],
      "name": "updateBorrowRateLimit",
      "outputs": [],
      "stateMutability": "nonpayable",
      "type": "function"
    },
    {
      "inputs": [
        {
          "internalType": "uint256",
          "name": "_min",
          "type": "uint256"
        },
        {
          "internalType": "uint256",
          "name": "_max",
          "type": "uint256"
        }
      ],
      "name": "updateCollateralRatioLimit",
      "outputs": [],
      "stateMutability": "nonpayable",
      "type": "function"
    },
    {
      "inputs": [
        {
          "internalType": "uint256",
          "name": "_collectionPeriod",
          "type": "uint256"
        }
      ],
      "name": "updateCollectionPeriod",
      "outputs": [],
      "stateMutability": "nonpayable",
      "type": "function"
    },
    {
      "inputs": [
        {
          "internalType": "uint256",
          "name": "_liquidatorRewardFraction",
          "type": "uint256"
        }
      ],
      "name": "updateLiquidatorRewardFraction",
      "outputs": [],
      "stateMutability": "nonpayable",
      "type": "function"
    },
    {
      "inputs": [
        {
          "internalType": "uint256",
          "name": "_loanWithdrawalDuration",
          "type": "uint256"
        }
      ],
      "name": "updateLoanWithdrawalDuration",
      "outputs": [],
      "stateMutability": "nonpayable",
      "type": "function"
    },
    {
      "inputs": [
        {
          "internalType": "uint256",
          "name": "_marginCallDuration",
          "type": "uint256"
        }
      ],
      "name": "updateMarginCallDuration",
      "outputs": [],
      "stateMutability": "nonpayable",
      "type": "function"
    },
    {
      "inputs": [
        {
          "internalType": "uint256",
          "name": "_minBorrowFraction",
          "type": "uint256"
        }
      ],
      "name": "updateMinBorrowFraction",
      "outputs": [],
      "stateMutability": "nonpayable",
      "type": "function"
    },
    {
      "inputs": [
        {
          "internalType": "uint256",
          "name": "_min",
          "type": "uint256"
        },
        {
          "internalType": "uint256",
          "name": "_max",
          "type": "uint256"
        }
      ],
      "name": "updateNoOfRepaymentIntervalsLimit",
      "outputs": [],
      "stateMutability": "nonpayable",
      "type": "function"
    },
    {
      "inputs": [
        {
          "internalType": "uint256",
          "name": "_poolCancelPenaltyFraction",
          "type": "uint256"
        }
      ],
      "name": "updatePoolCancelPenaltyFraction",
      "outputs": [],
      "stateMutability": "nonpayable",
      "type": "function"
    },
    {
      "inputs": [
        {
          "internalType": "address",
          "name": "_poolLogic",
          "type": "address"
        }
      ],
      "name": "updatePoolLogic",
      "outputs": [],
      "stateMutability": "nonpayable",
      "type": "function"
    },
    {
      "inputs": [
        {
          "internalType": "uint256",
          "name": "_min",
          "type": "uint256"
        },
        {
          "internalType": "uint256",
          "name": "_max",
          "type": "uint256"
        }
      ],
      "name": "updatePoolSizeLimit",
      "outputs": [],
      "stateMutability": "nonpayable",
      "type": "function"
    },
    {
      "inputs": [
        {
          "internalType": "address",
          "name": "_poolTokenImpl",
          "type": "address"
        }
      ],
      "name": "updatePoolTokenImpl",
      "outputs": [],
      "stateMutability": "nonpayable",
      "type": "function"
    },
    {
      "inputs": [
        {
          "internalType": "bytes4",
          "name": "_functionId",
          "type": "bytes4"
        }
      ],
      "name": "updatePoolTokenInitFuncSelector",
      "outputs": [],
      "stateMutability": "nonpayable",
      "type": "function"
    },
    {
      "inputs": [
        {
          "internalType": "address",
          "name": "_priceOracle",
          "type": "address"
        }
      ],
      "name": "updatePriceoracle",
      "outputs": [],
      "stateMutability": "nonpayable",
      "type": "function"
    },
    {
      "inputs": [
        {
          "internalType": "address",
          "name": "_protocolFeeCollector",
          "type": "address"
        }
      ],
      "name": "updateProtocolFeeCollector",
      "outputs": [],
      "stateMutability": "nonpayable",
      "type": "function"
    },
    {
      "inputs": [
        {
          "internalType": "uint256",
          "name": "_protocolFee",
          "type": "uint256"
        }
      ],
      "name": "updateProtocolFeeFraction",
      "outputs": [],
      "stateMutability": "nonpayable",
      "type": "function"
    },
    {
      "inputs": [
        {
          "internalType": "address",
          "name": "_repaymentImpl",
          "type": "address"
        }
      ],
      "name": "updateRepaymentImpl",
      "outputs": [],
      "stateMutability": "nonpayable",
      "type": "function"
    },
    {
      "inputs": [
        {
          "internalType": "uint256",
          "name": "_min",
          "type": "uint256"
        },
        {
          "internalType": "uint256",
          "name": "_max",
          "type": "uint256"
        }
      ],
      "name": "updateRepaymentIntervalLimit",
      "outputs": [],
      "stateMutability": "nonpayable",
      "type": "function"
    },
    {
      "inputs": [
        {
          "internalType": "address",
          "name": "_savingsAccount",
          "type": "address"
        }
      ],
      "name": "updateSavingsAccount",
      "outputs": [],
      "stateMutability": "nonpayable",
      "type": "function"
    },
    {
      "inputs": [
        {
          "internalType": "address",
          "name": "_strategyRegistry",
          "type": "address"
        }
      ],
      "name": "updateStrategyRegistry",
      "outputs": [],
      "stateMutability": "nonpayable",
      "type": "function"
    },
    {
      "inputs": [
        {
          "internalType": "address",
          "name": "_borrowToken",
          "type": "address"
        },
        {
          "internalType": "bool",
          "name": "_isSupported",
          "type": "bool"
        }
      ],
      "name": "updateSupportedBorrowTokens",
      "outputs": [],
      "stateMutability": "nonpayable",
      "type": "function"
    },
    {
      "inputs": [
        {
          "internalType": "address",
          "name": "_collateralToken",
          "type": "address"
        },
        {
          "internalType": "bool",
          "name": "_isSupported",
          "type": "bool"
        }
      ],
      "name": "updateSupportedCollateralTokens",
      "outputs": [],
      "stateMutability": "nonpayable",
      "type": "function"
    },
    {
      "inputs": [
        {
          "internalType": "address",
          "name": "_userRegistry",
          "type": "address"
        }
      ],
      "name": "updateUserRegistry",
      "outputs": [],
      "stateMutability": "nonpayable",
      "type": "function"
    },
    {
      "inputs": [
        {
          "internalType": "address",
          "name": "_extension",
          "type": "address"
        }
      ],
      "name": "updatedExtension",
      "outputs": [],
      "stateMutability": "nonpayable",
      "type": "function"
    },
    {
      "inputs": [
        {
          "internalType": "bytes4",
          "name": "_functionId",
          "type": "bytes4"
        }
      ],
      "name": "updatepoolInitFuncSelector",
      "outputs": [],
      "stateMutability": "nonpayable",
      "type": "function"
    },
    {
      "inputs": [],
      "name": "userRegistry",
      "outputs": [
        {
          "internalType": "address",
          "name": "",
          "type": "address"
        }
      ],
      "stateMutability": "view",
      "type": "function"
    },
    {
      "inputs": [],
      "name": "votingPassRatio",
      "outputs": [
        {
          "internalType": "uint256",
          "name": "",
          "type": "uint256"
        }
      ],
      "stateMutability": "view",
      "type": "function"
    }
  ],
  "bytecode": "0x608060405234801561001057600080fd5b50614389806100206000396000f3fe6080604052600436106200034a5760003560e01c80638da5cb5b11620001b7578063d080bf2711620000f1578063e35ddc0711620000a3578063edf7ae211162000079578063edf7ae211462000bba578063f2fde38b1462000c05578063f2ff14611462000c3c578063fefc9aa41462000c6a576200034a565b8063e35ddc071462000b72578063e63ab1e91462000b8a578063ecced6231462000ba2576200034a565b8063d080bf271462000a72578063d53913931462000a8a578063dcc314db1462000aa2578063de9de06e1462000ad9578063e030a06d1462000b07578063e2613ffe1462000b3b576200034a565b8063b16c3f731162000169578063c2bb7c8d116200013f578063c2bb7c8d14620009dc578063cad111ab14620009f4578063ce2f9f4c1462000a2c578063cf62591e1462000a5a576200034a565b8063b16c3f73146200093f578063b5e52167146200096d578063bf658a2e14620009a4576200034a565b80638da5cb5b1462000822578063950bb6d3146200083a5780639732e24c14620008c25780639b9842c114620008da578063a3170fe514620008f2578063acca944f1462000927576200034a565b8063532cdea51162000289578063715018a6116200023b5780637bad520711620002115780637bad520714620007375780637be4a7b514620007705780637cf0aec814620007af5780637d3edfee14620007e3576200034a565b8063715018a614620006d357806374113a2714620006eb5780637908423b1462000703576200034a565b8063532cdea5146200058e578063565b54ea14620005fe5780635c7460d6146200063557806363832d54146200064d578063651faffa14620006655780636cf14f9d146200069c576200034a565b806329ae4a6f11620003015780632ecbf84311620002d75780632ecbf84314620004d457806334c0af5414620004ec5780634c1f2dc5146200052057806352cd27831462000557576200034a565b806329ae4a6f14620004575780632d5537b014620004855780632e37d826146200049d576200034a565b806304854817146200034f5780630971976e146200037f578063112dc9dc14620003a9578063171e108514620003d757806317c03f07146200040b5780632630c12f146200043f575b600080fd5b3480156200035c57600080fd5b506200037d600480360360208110156200037557600080fd5b503562000cf3565b005b3480156200038c57600080fd5b506200039762000d69565b60408051918252519081900360200190f35b348015620003b657600080fd5b506200037d60048036036020811015620003cf57600080fd5b503562000d6f565b348015620003e457600080fd5b50620003ef62000de2565b604080516001600160a01b039092168252519081900360200190f35b3480156200041857600080fd5b506200037d600480360360408110156200043157600080fd5b508035906020013562000df1565b3480156200044c57600080fd5b50620003ef62000ece565b3480156200046457600080fd5b506200037d600480360360208110156200047d57600080fd5b503562000edd565b3480156200049257600080fd5b50620003ef62000f50565b348015620004aa57600080fd5b506200037d60048036036020811015620004c357600080fd5b50356001600160a01b031662000f5f565b348015620004e157600080fd5b506200039762000fd2565b348015620004f957600080fd5b506200037d600480360360408110156200051257600080fd5b508035906020013562000fd8565b3480156200052d57600080fd5b506200037d600480360360208110156200054657600080fd5b50356001600160a01b0316620010af565b3480156200056457600080fd5b506200037d600480360360208110156200057d57600080fd5b50356001600160a01b031662001122565b3480156200059b57600080fd5b506200037d6004803603610100811015620005b557600080fd5b506001600160a01b038135811691602081013582169160408201358116916060810135821691608082013581169160a081013582169160c082013581169160e001351662001195565b3480156200060b57600080fd5b506200037d600480360360208110156200062457600080fd5b50356001600160a01b03166200125f565b3480156200064257600080fd5b50620003ef620012d2565b3480156200065a57600080fd5b50620003ef620012e1565b3480156200067257600080fd5b506200037d600480360360208110156200068b57600080fd5b50356001600160a01b0316620012f7565b348015620006a957600080fd5b506200037d60048036036020811015620006c257600080fd5b50356001600160a01b03166200136a565b348015620006e057600080fd5b506200037d620013dd565b348015620006f857600080fd5b50620003976200148f565b3480156200071057600080fd5b506200037d600480360360408110156200072957600080fd5b508035906020013562001495565b3480156200074457600080fd5b506200074f6200156b565b604080519283526001600160a01b0390911660208301528051918290030190f35b3480156200077d57600080fd5b506200037d600480360360408110156200079657600080fd5b506001600160a01b03813516906020013515156200157e565b348015620007bc57600080fd5b506200037d60048036036040811015620007d557600080fd5b5080359060200135620015f6565b348015620007f057600080fd5b506200037d600480360360408110156200080957600080fd5b506001600160a01b0381351690602001351515620016c5565b3480156200082f57600080fd5b50620003ef62001739565b6200037d60048036036101c08110156200085357600080fd5b508035906020810135906001600160a01b036040820135811691606081013582169160808201359160a08101359160c08201359160e08101359161010082013581169161012081013591610140820135151591610160810135916101808201358116916101a00135166200174a565b348015620008cf57600080fd5b50620003ef62001ca5565b348015620008e757600080fd5b506200039762001cb4565b348015620008ff57600080fd5b506200090a62001cba565b604080516001600160e01b03199092168252519081900360200190f35b3480156200093457600080fd5b506200039762001cc3565b3480156200094c57600080fd5b506200037d600480360360208110156200096557600080fd5b503562001cc9565b3480156200097a57600080fd5b506200037d600480360360208110156200099357600080fd5b50356001600160a01b031662001d3c565b348015620009b157600080fd5b506200037d60048036036020811015620009ca57600080fd5b50356001600160e01b03191662001daf565b348015620009e957600080fd5b506200039762001e22565b34801562000a0157600080fd5b506200037d6004803603602081101562000a1a57600080fd5b50356001600160e01b03191662001e28565b34801562000a3957600080fd5b506200037d6004803603602081101562000a5257600080fd5b503562001e9b565b34801562000a6757600080fd5b506200039762001f0e565b34801562000a7f57600080fd5b50620003ef62001f14565b34801562000a9757600080fd5b506200039762001f23565b34801562000aaf57600080fd5b506200037d6004803603602081101562000ac857600080fd5b50356001600160a01b031662001f47565b34801562000ae657600080fd5b506200037d6004803603602081101562000aff57600080fd5b503562001fba565b34801562000b1457600080fd5b506200037d6004803603604081101562000b2d57600080fd5b50803590602001356200202d565b34801562000b4857600080fd5b506200037d6004803603602081101562000b6157600080fd5b50356001600160a01b0316620020fe565b34801562000b7f57600080fd5b506200090a62002171565b34801562000b9757600080fd5b506200039762002182565b34801562000baf57600080fd5b50620003ef620021a6565b34801562000bc757600080fd5b5062000bf16004803603602081101562000be057600080fd5b50356001600160a01b0316620021b5565b604080519115158252519081900360200190f35b34801562000c1257600080fd5b506200037d6004803603602081101562000c2b57600080fd5b50356001600160a01b0316620021ca565b34801562000c4957600080fd5b506200037d6004803603602081101562000c6257600080fd5b5035620022d5565b34801562000c7757600080fd5b506200037d600480360361016081101562000c9157600080fd5b506001600160a01b0381358116916020810135916040820135916060810135916001600160e01b0319608083013581169260a08101359091169160c08201359160e0810135916101008201359161012081013591610140909101351662002348565b62000cfd62002480565b6001600160a01b031662000d1062001739565b6001600160a01b03161462000d5b576040805162461bcd60e51b8152602060048201819052602482015260008051602062004206833981519152604482015290519081900360640190fd5b62000d668162002484565b50565b606d5481565b62000d7962002480565b6001600160a01b031662000d8c62001739565b6001600160a01b03161462000dd7576040805162461bcd60e51b8152602060048201819052602482015260008051602062004206833981519152604482015290519081900360640190fd5b62000d6681620024bf565b606a546001600160a01b031681565b62000dfb62002480565b6001600160a01b031662000e0e62001739565b6001600160a01b03161462000e59576040805162461bcd60e51b8152602060048201819052602482015260008051602062004206833981519152604482015290519081900360640190fd5b60408051808201825283815260209081018390526081849055608283905581519081018490528082018390526060808252601690820152754e6f4f6652657061796d656e74496e74657276616c7360501b60808201529051600080516020620041e68339815191529181900360a00190a15050565b606b546001600160a01b031681565b62000ee762002480565b6001600160a01b031662000efa62001739565b6001600160a01b03161462000f45576040805162461bcd60e51b8152602060048201819052602482015260008051602062004206833981519152604482015290519081900360640190fd5b62000d6681620024fa565b6069546001600160a01b031681565b62000f6962002480565b6001600160a01b031662000f7c62001739565b6001600160a01b03161462000fc7576040805162461bcd60e51b8152602060048201819052602482015260008051602062004206833981519152604482015290519081900360640190fd5b62000d668162002535565b606e5481565b62000fe262002480565b6001600160a01b031662000ff562001739565b6001600160a01b03161462001040576040805162461bcd60e51b8152602060048201819052602482015260008051602062004206833981519152604482015290519081900360640190fd5b6040805180820182528381526020908101839052607f8490556080838155825191820185905281830184905260608083526011908301527014995c185e5b595b9d125b9d195c9d985b607a1b908201529051600080516020620041e68339815191529181900360a00190a15050565b620010b962002480565b6001600160a01b0316620010cc62001739565b6001600160a01b03161462001117576040805162461bcd60e51b8152602060048201819052602482015260008051602062004206833981519152604482015290519081900360640190fd5b62000d668162002589565b6200112c62002480565b6001600160a01b03166200113f62001739565b6001600160a01b0316146200118a576040805162461bcd60e51b8152602060048201819052602482015260008051602062004206833981519152604482015290519081900360640190fd5b62000d6681620025dd565b6200119f62002480565b6001600160a01b0316620011b262001739565b6001600160a01b031614620011fd576040805162461bcd60e51b8152602060048201819052602482015260008051602062004206833981519152604482015290519081900360640190fd5b620012088862002631565b620012138762002696565b6200121e86620026ea565b62001229826200273e565b620012348162002792565b6200123f8562002535565b6200124a8462002589565b6200125583620025dd565b5050505050505050565b6200126962002480565b6001600160a01b03166200127c62001739565b6001600160a01b031614620012c7576040805162461bcd60e51b8152602060048201819052602482015260008051602062004206833981519152604482015290519081900360640190fd5b62000d6681620027e6565b6067546001600160a01b031681565b606554600160401b90046001600160a01b031681565b6200130162002480565b6001600160a01b03166200131462001739565b6001600160a01b0316146200135f576040805162461bcd60e51b8152602060048201819052602482015260008051602062004206833981519152604482015290519081900360640190fd5b62000d668162002696565b6200137462002480565b6001600160a01b03166200138762001739565b6001600160a01b031614620013d2576040805162461bcd60e51b8152602060048201819052602482015260008051602062004206833981519152604482015290519081900360640190fd5b62000d66816200273e565b620013e762002480565b6001600160a01b0316620013fa62001739565b6001600160a01b03161462001445576040805162461bcd60e51b8152602060048201819052602482015260008051602062004206833981519152604482015290519081900360640190fd5b6033546040516000916001600160a01b0316907f8be0079c531659141344cd1fd0a4f28419497f9722a3daafe3b4186f6b6457e0908390a3603380546001600160a01b0319169055565b60725481565b6200149f62002480565b6001600160a01b0316620014b262001739565b6001600160a01b031614620014fd576040805162461bcd60e51b8152602060048201819052602482015260008051602062004206833981519152604482015290519081900360640190fd5b6040805180820182528381526020908101839052607b849055607c83905581519081018490528082018390526060808252600f908201526e436f6c6c61746572616c526174696f60881b60808201529051600080516020620041e68339815191529181900360a00190a15050565b6074546075546001600160a01b03169091565b6200158862002480565b6001600160a01b03166200159b62001739565b6001600160a01b031614620015e6576040805162461bcd60e51b8152602060048201819052602482015260008051602062004206833981519152604482015290519081900360640190fd5b620015f282826200283a565b5050565b6200160062002480565b6001600160a01b03166200161362001739565b6001600160a01b0316146200165e576040805162461bcd60e51b8152602060048201819052602482015260008051602062004206833981519152604482015290519081900360640190fd5b60408051808201825283815260209081018390526079849055607a8390558151908101849052808201839052606080825260089082015267506f6f6c53697a6560c01b60808201529051600080516020620041e68339815191529181900360a00190a15050565b620016cf62002480565b6001600160a01b0316620016e262001739565b6001600160a01b0316146200172d576040805162461bcd60e51b8152602060048201819052602482015260008051602062004206833981519152604482015290519081900360640190fd5b620015f282826200289e565b60006200174562002902565b905090565b60675460408051625a87b960e31b81523360048201526001600160a01b0380861660248301529151859392909216916302d43dc891604480820192602092909190829003018186803b158015620017a057600080fd5b505afa158015620017b5573d6000803e3d6000fd5b505050506040513d6020811015620017cc57600080fd5b50516200180b5760405162461bcd60e51b8152600401808060200182810382526041815260200180620040a76041913960600191505060405180910390fd5b6001600160a01b038c166200185a578534146200185a5760405162461bcd60e51b8152600401808060200182810382526052815260200180620042976052913960600191505060405180910390fd5b8a8a11156200189b5760405162461bcd60e51b81526004018080602001828103825260318152602001806200418b6031913960400191505060405180910390fd5b6001600160a01b038d1660009081526076602052604090205460ff16620018f45760405162461bcd60e51b8152600401808060200182810382526033815260200180620042646033913960400191505060405180910390fd5b6001600160a01b038c1660009081526077602052604090205460ff166200194d5760405162461bcd60e51b81526004018080602001828103825260378152602001806200431d6037913960400191505060405180910390fd5b606b60009054906101000a90046001600160a01b03166001600160a01b031663633defbd8d8f6040518363ffffffff1660e01b815260040180836001600160a01b03168152602001826001600160a01b031681526020019250505060206040518083038186803b158015620019c157600080fd5b505afa158015620019d6573d6000803e3d6000fd5b505050506040513d6020811015620019ed57600080fd5b505162001a2c5760405162461bcd60e51b815260040180806020018281038252603f81526020018062004068603f913960400191505060405180910390fd5b6068546040805163038defd760e01b81526001600160a01b038a811660048301529151919092169163038defd7916024808301926020929190829003018186803b15801562001a7a57600080fd5b505afa15801562001a8f573d6000803e3d6000fd5b505050506040513d602081101562001aa657600080fd5b505162001ae55760405162461bcd60e51b815260040180806020018281038252602a815260200180620041bc602a913960400191505060405180910390fd5b62001afc8f60796000015460796001015462002911565b62001b395760405162461bcd60e51b8152600401808060200182810382526034815260200180620042e96034913960400191505060405180910390fd5b607b54607c5462001b4c918d9162002911565b62001b895760405162461bcd60e51b815260040180806020018281038252603c815260200180620040e8603c913960400191505060405180910390fd5b62001ba08e607d60000154607d6001015462002911565b62001bdd5760405162461bcd60e51b8152600401808060200182810382526037815260200180620040316037913960400191505060405180910390fd5b60815460825462001bf0918a9162002911565b62001c2d5760405162461bcd60e51b8152600401808060200182810382526039815260200180620041526039913960400191505060405180910390fd5b607f5460805462001c40918b9162002911565b62001c7d5760405162461bcd60e51b815260040180806020018281038252603e81526020018062004226603e913960400191505060405180910390fd5b62001c948f8f8f8f8f8f8f8f8f8f8f8f8e62002970565b505050505050505050505050505050565b6066546001600160a01b031681565b606f5481565b60655460e01b81565b60715481565b62001cd362002480565b6001600160a01b031662001ce662001739565b6001600160a01b03161462001d31576040805162461bcd60e51b8152602060048201819052602482015260008051602062004206833981519152604482015290519081900360640190fd5b62000d668162002dd2565b62001d4662002480565b6001600160a01b031662001d5962001739565b6001600160a01b03161462001da4576040805162461bcd60e51b8152602060048201819052602482015260008051602062004206833981519152604482015290519081900360640190fd5b62000d6681620026ea565b62001db962002480565b6001600160a01b031662001dcc62001739565b6001600160a01b03161462001e17576040805162461bcd60e51b8152602060048201819052602482015260008051602062004206833981519152604482015290519081900360640190fd5b62000d668162002e0d565b60705481565b62001e3262002480565b6001600160a01b031662001e4562001739565b6001600160a01b03161462001e90576040805162461bcd60e51b8152602060048201819052602482015260008051602062004206833981519152604482015290519081900360640190fd5b62000d668162002e61565b62001ea562002480565b6001600160a01b031662001eb862001739565b6001600160a01b03161462001f03576040805162461bcd60e51b8152602060048201819052602482015260008051602062004206833981519152604482015290519081900360640190fd5b62000d668162002ec0565b60735481565b6068546001600160a01b031681565b7f9f2df0fed2c77648de5860a4cc508cd0818c85b8b8a1ab4ceeef8d981c8956a681565b62001f5162002480565b6001600160a01b031662001f6462001739565b6001600160a01b03161462001faf576040805162461bcd60e51b8152602060048201819052602482015260008051602062004206833981519152604482015290519081900360640190fd5b62000d668162002631565b62001fc462002480565b6001600160a01b031662001fd762001739565b6001600160a01b03161462002022576040805162461bcd60e51b8152602060048201819052602482015260008051602062004206833981519152604482015290519081900360640190fd5b62000d668162002efb565b6200203762002480565b6001600160a01b03166200204a62001739565b6001600160a01b03161462002095576040805162461bcd60e51b8152602060048201819052602482015260008051602062004206833981519152604482015290519081900360640190fd5b6040805180820182528381526020908101839052607d849055607e83905581519081018490528082018390526060808252600a9082015269426f72726f775261746560b01b60808201529051600080516020620041e68339815191529181900360a00190a15050565b6200210862002480565b6001600160a01b03166200211b62001739565b6001600160a01b03161462002166576040805162461bcd60e51b8152602060048201819052602482015260008051602062004206833981519152604482015290519081900360640190fd5b62000d668162002792565b606554640100000000900460e01b81565b7f65d7a28e3265b37a6474929f336521b332c1681b933f6cb9f3376673440d862a81565b606c546001600160a01b031681565b60786020526000908152604090205460ff1681565b620021d462002480565b6001600160a01b0316620021e762001739565b6001600160a01b03161462002232576040805162461bcd60e51b8152602060048201819052602482015260008051602062004206833981519152604482015290519081900360640190fd5b6001600160a01b038116620022795760405162461bcd60e51b81526004018080602001828103825260268152602001806200400b6026913960400191505060405180910390fd5b6033546040516001600160a01b038084169216907f8be0079c531659141344cd1fd0a4f28419497f9722a3daafe3b4186f6b6457e090600090a3603380546001600160a01b0319166001600160a01b0392909216919091179055565b620022df62002480565b6001600160a01b0316620022f262001739565b6001600160a01b0316146200233d576040805162461bcd60e51b8152602060048201819052602482015260008051602062004206833981519152604482015290519081900360640190fd5b62000d668162002f36565b600054610100900460ff16806200236457506200236462002f71565b8062002373575060005460ff16155b620023b05760405162461bcd60e51b815260040180806020018281038252602e81526020018062004124602e913960400191505060405180910390fd5b600054610100900460ff16158015620023dc576000805460ff1961ff0019909116610100171660011790555b620023e662002f84565b620023f18c620021ca565b620023fc8b620024fa565b620024078a62002484565b620024128962002ec0565b6200241d8862002e0d565b620024288762002e61565b6200243386620024bf565b6200243e8562002f36565b620024498462002dd2565b620024548362002efb565b6200245f82620027e6565b801562002472576000805461ff00191690555b505050505050505050505050565b3390565b606e8190556040805182815290517fd6a9356dd756296ce3cba8ba26397e758b2901383e69042b3aa9749cb42660df9181900360200190a150565b60718190556040805182815290517ffc9f5adb3ea0a0ee669d6b5200334f3bb22968c6e7b2eedf0e5819182319c5229181900360200190a150565b606d8190556040805182815290517f51aa68fcf65b26bbc5a9db0b5933c71c642bc16e263e1d8c9b018a3b951a2cda9181900360200190a150565b606780546001600160a01b0383166001600160a01b0319909116811790915560408051918252517fed714fbe17e15258cc6c9677fcfc9b57807561d3c4ff5c776fd00508f9dc53b99181900360200190a150565b606880546001600160a01b0383166001600160a01b0319909116811790915560408051918252517f0ae0dc70cd51233fb6650002520dcd7be97d65702ded4fbd4fc90777326935889181900360200190a150565b606b80546001600160a01b0383166001600160a01b0319909116811790915560408051918252517fefe8ab924ca486283a79dc604baa67add51afb82af1db8ac386ebbba643cdffd9181900360200190a150565b606580546001600160a01b038316600160401b810268010000000000000000600160e01b03199092169190911790915560408051918252517f8ee0ac431aa1f635687a8e5d2d1c00dc66d43e9d5d9f587748a563030cbdfc019181900360200190a150565b606a80546001600160a01b0383166001600160a01b0319909116811790915560408051918252517fc5d97bee24802645337b82f06929eb7187d3e96d3abfde102b4b5d316c1b98139181900360200190a150565b606680546001600160a01b0383166001600160a01b0319909116811790915560408051918252517f52ffa3b7d02a00f0464ba1f6c4c80ab69cb0271ae2f267cef0385c68aebc5dd09181900360200190a150565b606c80546001600160a01b0383166001600160a01b0319909116811790915560408051918252517f5e8a3d56d9512a62f643367551a65727148c2516dce6b54956df80926dd2536c9181900360200190a150565b606980546001600160a01b0383166001600160a01b0319909116811790915560408051918252517f48951af222000a326b404ddb507e4909d14517d79d2a5f9eb4e220c5c8f56eb79181900360200190a150565b607580546001600160a01b0383166001600160a01b0319909116811790915560408051918252517f33837f672315b6cffcf11894714abfdec631a913c18d7738fcaf40c444376fb69181900360200190a150565b6001600160a01b038216600081815260766020908152604091829020805460ff191685151590811790915582519384529083015280517fa6c7f9eef436525b9c658fcc90c25e3f399534d7f6654a4204f89690117ec26e9281900390910190a15050565b6001600160a01b038216600081815260776020908152604091829020805460ff191685151590811790915582519384529083015280517fa8465fce7714e145603abc61f76c96665912ca5d2f9b7dd67f27349d83294d629281900390910190a15050565b6033546001600160a01b031690565b600082158015906200292257508115155b156200294157828410158015620029395750818411155b905062002969565b82156200295357508183101562002969565b81156200296557508083111562002969565b5060015b9392505050565b6060620029878e8e8e8e8e8e8e8e8e8e8e62003041565b60408051602080820187905233606090811b8385015283516034818503018152605484019485905280519201919091209394509190620029ca9060740162003378565b601f1982820381018352601f9091011660408181526065546001600160a01b03600160401b9091041660208381018281526001938501849052606080860190815289516080870152895193958a949293919260a09091019185019080838360005b8381101562002a4557818101518382015260200162002a2b565b50505050905090810190601f16801562002a735780820380516001836020036101000a031916815260200191505b509450505050506040516020818303038152906040526040516020018083805190602001908083835b6020831062002abd5780518252601f19909201916020918201910162002a9c565b51815160209384036101000a600019018019909216911617905285519190930192850191508083835b6020831062002b075780518252601f19909201916020918201910162002ae6565b6001836020036101000a0380198251168184511680821785525050505050509050019250505060405160208183030381529060405290506000806001600160a01b03168e6001600160a01b03161462002b6257600062002b64565b875b9050600062002b7582858562003106565b606554604080516001600160a01b03848116606483015260606024830152600b60848301526a506f6f6c20546f6b656e7360a81b60a483015260a06044830152600460c48301526313d0941560e21b60e48084019190915283518084039091018152610104909201835260208201805164010000000090950460e01b6001600160e01b0319166001600160e01b039095169490941790935260665491519394509260009291909116908290849062002c2d9062003378565b80846001600160a01b03168152602001836001600160a01b0316815260200180602001828103825283818151815260200191508051906020019080838360005b8381101562002c8757818101518382015260200162002c6d565b50505050905090810190601f16801562002cb55780820380516001836020036101000a031916815260200191505b50945050505050604051809103906000f08015801562002cd9573d6000803e3d6000fd5b509050826001600160a01b03166383366c19828a6040518363ffffffff1660e01b815260040180836001600160a01b03168152602001826001600160a01b0316815260200192505050600060405180830381600087803b15801562002d3d57600080fd5b505af115801562002d52573d6000803e3d6000fd5b5050506001600160a01b03808516600081815260786020908152604091829020805460ff19166001179055815192835233908301529184168183015290517f9c5d829b9b23efc461f9aeef91979ec04bb903feb3bee4f26d22114abfc7335b92509081900360600190a15050505050505050505050505050505050505050565b60708190556040805182815290517fab19dd83cf2702c5ea79dac2821419054aadccdd02bc909d34abca761dbcf46f9181900360200190a150565b6065805463ffffffff191660e083901c179055604080516001600160e01b03198316815290517fbeee152d2a9de9377f4b5c9385c813ffac47b3bac8f9fc5057902b1f032ea413916020908290030190a150565b6065805467ffffffff00000000191664010000000060e084901c02179055604080516001600160e01b03198316815290517f876c0a03ffe4ebcb472a9a7cad4b9351e28c8e5ab21fd428c2c2344bf6620a5e916020908290030190a150565b606f8190556040805182815290517f1e85e6efe46a52b040a7311c9f1e10e4fcda6cae6b435437cb19b633e2e655449181900360200190a150565b60748190556040805182815290517fcfd641dab5b2592643d4b878bf2b771142aff4595263753dc7611f947749999d9181900360200190a150565b60738190556040805182815290517f6d8c6800ef325e6cae74a7b1dbd75bd3356983c08c8425b7177866c51ad3e5859181900360200190a150565b600062002f7e30620031c7565b15905090565b600054610100900460ff168062002fa0575062002fa062002f71565b8062002faf575060005460ff16155b62002fec5760405162461bcd60e51b815260040180806020018281038252602e81526020018062004124602e913960400191505060405180910390fd5b600054610100900460ff1615801562003018576000805460ff1961ff0019909116610100171660011790555b62003022620031cd565b6200302c62003275565b801562000d66576000805461ff001916905550565b606554606e54606d5460408051602481019f909f5260448f019d909d523360648f01526001600160a01b039b8c1660848f0152998b1660a48e015260c48d019890985260e48c01969096526101048b01949094526101248a01929092529095166101448801526101648701949094529215156101848601526101a48501526101c480850191909152825180850390910181526101e490930190915260208201805160e09290921b6001600160e01b0319166001600160e01b0390921691909117905290565b600081516000141562003160576040805162461bcd60e51b815260206004820181905260248201527f437265617465323a2062797465636f6465206c656e677468206973207a65726f604482015290519081900360640190fd5b8282516020840186f590506001600160a01b03811662002969576040805162461bcd60e51b815260206004820152601960248201527f437265617465323a204661696c6564206f6e206465706c6f7900000000000000604482015290519081900360640190fd5b3b151590565b600054610100900460ff1680620031e95750620031e962002f71565b80620031f8575060005460ff16155b620032355760405162461bcd60e51b815260040180806020018281038252602e81526020018062004124602e913960400191505060405180910390fd5b600054610100900460ff161580156200302c576000805460ff1961ff001990911661010017166001179055801562000d66576000805461ff001916905550565b600054610100900460ff16806200329157506200329162002f71565b80620032a0575060005460ff16155b620032dd5760405162461bcd60e51b815260040180806020018281038252602e81526020018062004124602e913960400191505060405180910390fd5b600054610100900460ff1615801562003309576000805460ff1961ff0019909116610100171660011790555b60006200331562002480565b603380546001600160a01b0319166001600160a01b038316908117909155604051919250906000907f8be0079c531659141344cd1fd0a4f28419497f9722a3daafe3b4186f6b6457e0908290a350801562000d66576000805461ff001916905550565b610c8480620033878339019056fe608060405260405162000c8438038062000c84833981810160405260608110156200002957600080fd5b815160208301516040808501805191519395929483019291846401000000008211156200005557600080fd5b9083019060208201858111156200006b57600080fd5b82516401000000008111828201881017156200008657600080fd5b82525081516020918201929091019080838360005b83811015620000b55781810151838201526020016200009b565b50505050905090810190601f168015620000e35780820380516001836020036101000a031916815260200191505b5060405250849150839050828281620000fc826200013d565b8051156200011d576200011b8282620001b460201b620003841760201c565b505b50620001269050565b6200013182620001e3565b505050505050620003c5565b62000153816200020760201b620003b01760201c565b620001905760405162461bcd60e51b815260040180806020018281038252603681526020018062000c286036913960400191505060405180910390fd5b7f360894a13ba1a3210667c828492db98dca3e2076cc3735a920a3ca505d382bbc55565b6060620001dc838360405180606001604052806027815260200162000c01602791396200020d565b9392505050565b7fb53127684a568b3173ae13b9f8a6016e243e63b6e8ee1178d6a717850b5d610355565b3b151590565b60606200021a8462000207565b620002575760405162461bcd60e51b815260040180806020018281038252602681526020018062000c5e6026913960400191505060405180910390fd5b60006060856001600160a01b0316856040518082805190602001908083835b60208310620002975780518252601f19909201916020918201910162000276565b6001836020036101000a038019825116818451168082178552505050505050905001915050600060405180830381855af49150503d8060008114620002f9576040519150601f19603f3d011682016040523d82523d6000602084013e620002fe565b606091505b509092509050620003118282866200031b565b9695505050505050565b606083156200032c575081620001dc565b8251156200033d5782518084602001fd5b8160405162461bcd60e51b81526004018080602001828103825283818151815260200191508051906020019080838360005b83811015620003895781810151838201526020016200036f565b50505050905090810190601f168015620003b75780820380516001836020036101000a031916815260200191505b509250505060405180910390fd5b61082c80620003d56000396000f3fe60806040526004361061004e5760003560e01c80633659cfe6146100655780634f1ef286146100985780635c60da1b146101185780638f28397014610149578063f851a4401461017c5761005d565b3661005d5761005b610191565b005b61005b610191565b34801561007157600080fd5b5061005b6004803603602081101561008857600080fd5b50356001600160a01b03166101ab565b61005b600480360360408110156100ae57600080fd5b6001600160a01b0382351691908101906040810160208201356401000000008111156100d957600080fd5b8201836020820111156100eb57600080fd5b8035906020019184600183028401116401000000008311171561010d57600080fd5b5090925090506101e5565b34801561012457600080fd5b5061012d610262565b604080516001600160a01b039092168252519081900360200190f35b34801561015557600080fd5b5061005b6004803603602081101561016c57600080fd5b50356001600160a01b031661029f565b34801561018857600080fd5b5061012d610359565b6101996103b6565b6101a96101a4610416565b61043b565b565b6101b361045f565b6001600160a01b0316336001600160a01b031614156101da576101d581610484565b6101e2565b6101e2610191565b50565b6101ed61045f565b6001600160a01b0316336001600160a01b031614156102555761020f83610484565b61024f8383838080601f01602080910402602001604051908101604052809392919081815260200183838082843760009201919091525061038492505050565b5061025d565b61025d610191565b505050565b600061026c61045f565b6001600160a01b0316336001600160a01b031614156102945761028d610416565b905061029c565b61029c610191565b90565b6102a761045f565b6001600160a01b0316336001600160a01b031614156101da576001600160a01b0381166103055760405162461bcd60e51b815260040180806020018281038252603a8152602001806106f8603a913960400191505060405180910390fd5b7f7e644d79422f17c01e4894b5f4f588d331ebfa28653d42ae832dc59e38c9798f61032e61045f565b604080516001600160a01b03928316815291841660208301528051918290030190a16101d5816104c4565b600061036361045f565b6001600160a01b0316336001600160a01b031614156102945761028d61045f565b60606103a98383604051806060016040528060278152602001610732602791396104e8565b9392505050565b3b151590565b6103be61045f565b6001600160a01b0316336001600160a01b0316141561040e5760405162461bcd60e51b81526004018080602001828103825260428152602001806107b56042913960600191505060405180910390fd5b6101a96101a9565b7f360894a13ba1a3210667c828492db98dca3e2076cc3735a920a3ca505d382bbc5490565b3660008037600080366000845af43d6000803e80801561045a573d6000f35b3d6000fd5b7fb53127684a568b3173ae13b9f8a6016e243e63b6e8ee1178d6a717850b5d61035490565b61048d816105eb565b6040516001600160a01b038216907fbc7cd75a20ee27fd9adebab32041f755214dbc6bffa90cc0225b39da2e5c2d3b90600090a250565b7fb53127684a568b3173ae13b9f8a6016e243e63b6e8ee1178d6a717850b5d610355565b60606104f3846103b0565b61052e5760405162461bcd60e51b815260040180806020018281038252602681526020018061078f6026913960400191505060405180910390fd5b60006060856001600160a01b0316856040518082805190602001908083835b6020831061056c5780518252601f19909201916020918201910161054d565b6001836020036101000a038019825116818451168082178552505050505050905001915050600060405180830381855af49150503d80600081146105cc576040519150601f19603f3d011682016040523d82523d6000602084013e6105d1565b606091505b50915091506105e1828286610653565b9695505050505050565b6105f4816103b0565b61062f5760405162461bcd60e51b81526004018080602001828103825260368152602001806107596036913960400191505060405180910390fd5b7f360894a13ba1a3210667c828492db98dca3e2076cc3735a920a3ca505d382bbc55565b606083156106625750816103a9565b8251156106725782518084602001fd5b8160405162461bcd60e51b81526004018080602001828103825283818151815260200191508051906020019080838360005b838110156106bc5781810151838201526020016106a4565b50505050905090810190601f1680156106e95780820380516001836020036101000a031916815260200191505b509250505060405180910390fdfe5472616e73706172656e745570677261646561626c6550726f78793a206e65772061646d696e20697320746865207a65726f2061646472657373416464726573733a206c6f772d6c6576656c2064656c65676174652063616c6c206661696c65645570677261646561626c6550726f78793a206e657720696d706c656d656e746174696f6e206973206e6f74206120636f6e7472616374416464726573733a2064656c65676174652063616c6c20746f206e6f6e2d636f6e74726163745472616e73706172656e745570677261646561626c6550726f78793a2061646d696e2063616e6e6f742066616c6c6261636b20746f2070726f787920746172676574a2646970667358221220ad4cc489585b8c2bd332b46fba9cfbb85df9a6e1d894d59c61e2cdbc2e70d83464736f6c63430007000033416464726573733a206c6f772d6c6576656c2064656c65676174652063616c6c206661696c65645570677261646561626c6550726f78793a206e657720696d706c656d656e746174696f6e206973206e6f74206120636f6e7472616374416464726573733a2064656c65676174652063616c6c20746f206e6f6e2d636f6e74726163744f776e61626c653a206e6577206f776e657220697320746865207a65726f2061646472657373506f6f6c466163746f72793a3a637265617465506f6f6c202d20426f72726f772072617465206e6f742077697468696e206c696d697473506f6f6c466163746f72793a3a637265617465506f6f6c202d205072696365206665656420646f65736e277420737570706f727420746f6b656e2070616972506f6f6c466163746f72793a3a6f6e6c79426f72726f776572202d204f6e6c7920612076616c696420426f72726f7765722063616e2063726561746520506f6f6c506f6f6c466163746f72793a3a637265617465506f6f6c202d20436f6c6c61746572616c20526174696f206e6f742077697468696e206c696d697473496e697469616c697a61626c653a20636f6e747261637420697320616c726561647920696e697469616c697a6564506f6f6c466163746f72793a3a637265617465506f6f6c202d204c6f616e206475726174696f6e206e6f742077697468696e206c696d697473506f6f6c466163746f72793a637265617465506f6f6c202d20496e76616c696420636f6c6c61746572616c20726174696f506f6f6c466163746f72793a3a637265617465506f6f6c202d20496e76616c6964207374726174656779e9da20d631ef06f93c14c03acd9bc8f22141e6fce63b1066f76c903adb73ea404f776e61626c653a2063616c6c6572206973206e6f7420746865206f776e6572506f6f6c466163746f72793a3a637265617465506f6f6c202d2052657061796d656e7420696e74657276616c206e6f742077697468696e206c696d697473506f6f6c466163746f72793a3a637265617465506f6f6c202d20496e76616c696420626f72726f7720746f6b656e2074797065506f6f6c466163746f72793a3a637265617465506f6f6c202d2045746865722073656e6420697320646966666572656e742066726f6d20636f6c6c61746572616c20616d6f756e7420737065636966696564506f6f6c466163746f72793a3a637265617465506f6f6c202d20506f6f6c53697a65206e6f742077697468696e206c696d697473506f6f6c466163746f72793a3a637265617465506f6f6c202d20496e76616c696420636f6c6c61746572616c20746f6b656e2074797065a2646970667358221220b3bfdbadc9c29df179c7a322c5cbc64c6d1d478e3af34fb3369bffeb65f1233464736f6c63430007000033",
  "linkReferences": {},
  "deployedLinkReferences": {}
}