{
  "_format": "hh-sol-artifact-1",
  "contractName": "PoolToken",
  "sourceName": "contracts/Pool/PoolToken.sol",
  "abi": [
    {
      "anonymous": false,
      "inputs": [
        {
          "indexed": true,
          "internalType": "address",
          "name": "owner",
          "type": "address"
        },
        {
          "indexed": true,
          "internalType": "address",
          "name": "spender",
          "type": "address"
        },
        {
          "indexed": false,
          "internalType": "uint256",
          "name": "value",
          "type": "uint256"
        }
      ],
      "name": "Approval",
      "type": "event"
    },
    {
      "anonymous": false,
      "inputs": [
        {
          "indexed": false,
          "internalType": "address",
          "name": "account",
          "type": "address"
        }
      ],
      "name": "Paused",
      "type": "event"
    },
    {
      "anonymous": false,
      "inputs": [
        {
          "indexed": true,
          "internalType": "bytes32",
          "name": "role",
          "type": "bytes32"
        },
        {
          "indexed": true,
          "internalType": "bytes32",
          "name": "previousAdminRole",
          "type": "bytes32"
        },
        {
          "indexed": true,
          "internalType": "bytes32",
          "name": "newAdminRole",
          "type": "bytes32"
        }
      ],
      "name": "RoleAdminChanged",
      "type": "event"
    },
    {
      "anonymous": false,
      "inputs": [
        {
          "indexed": true,
          "internalType": "bytes32",
          "name": "role",
          "type": "bytes32"
        },
        {
          "indexed": true,
          "internalType": "address",
          "name": "account",
          "type": "address"
        },
        {
          "indexed": true,
          "internalType": "address",
          "name": "sender",
          "type": "address"
        }
      ],
      "name": "RoleGranted",
      "type": "event"
    },
    {
      "anonymous": false,
      "inputs": [
        {
          "indexed": true,
          "internalType": "bytes32",
          "name": "role",
          "type": "bytes32"
        },
        {
          "indexed": true,
          "internalType": "address",
          "name": "account",
          "type": "address"
        },
        {
          "indexed": true,
          "internalType": "address",
          "name": "sender",
          "type": "address"
        }
      ],
      "name": "RoleRevoked",
      "type": "event"
    },
    {
      "anonymous": false,
      "inputs": [
        {
          "indexed": true,
          "internalType": "address",
          "name": "from",
          "type": "address"
        },
        {
          "indexed": true,
          "internalType": "address",
          "name": "to",
          "type": "address"
        },
        {
          "indexed": false,
          "internalType": "uint256",
          "name": "value",
          "type": "uint256"
        }
      ],
      "name": "Transfer",
      "type": "event"
    },
    {
      "anonymous": false,
      "inputs": [
        {
          "indexed": false,
          "internalType": "address",
          "name": "account",
          "type": "address"
        }
      ],
      "name": "Unpaused",
      "type": "event"
    },
    {
      "inputs": [],
      "name": "BURNER_ROLE",
      "outputs": [
        {
          "internalType": "bytes32",
          "name": "",
          "type": "bytes32"
        }
      ],
      "stateMutability": "view",
      "type": "function"
    },
    {
      "inputs": [],
      "name": "DEFAULT_ADMIN_ROLE",
      "outputs": [
        {
          "internalType": "bytes32",
          "name": "",
          "type": "bytes32"
        }
      ],
      "stateMutability": "view",
      "type": "function"
    },
    {
      "inputs": [],
      "name": "MINTER_ROLE",
      "outputs": [
        {
          "internalType": "bytes32",
          "name": "",
          "type": "bytes32"
        }
      ],
      "stateMutability": "view",
      "type": "function"
    },
    {
      "inputs": [],
      "name": "PAUSER_ROLE",
      "outputs": [
        {
          "internalType": "bytes32",
          "name": "",
          "type": "bytes32"
        }
      ],
      "stateMutability": "view",
      "type": "function"
    },
    {
      "inputs": [
        {
          "internalType": "address",
          "name": "owner",
          "type": "address"
        },
        {
          "internalType": "address",
          "name": "spender",
          "type": "address"
        }
      ],
      "name": "allowance",
      "outputs": [
        {
          "internalType": "uint256",
          "name": "",
          "type": "uint256"
        }
      ],
      "stateMutability": "view",
      "type": "function"
    },
    {
      "inputs": [
        {
          "internalType": "address",
          "name": "spender",
          "type": "address"
        },
        {
          "internalType": "uint256",
          "name": "amount",
          "type": "uint256"
        }
      ],
      "name": "approve",
      "outputs": [
        {
          "internalType": "bool",
          "name": "",
          "type": "bool"
        }
      ],
      "stateMutability": "nonpayable",
      "type": "function"
    },
    {
      "inputs": [
        {
          "internalType": "address",
          "name": "account",
          "type": "address"
        }
      ],
      "name": "balanceOf",
      "outputs": [
        {
          "internalType": "uint256",
          "name": "",
          "type": "uint256"
        }
      ],
      "stateMutability": "view",
      "type": "function"
    },
    {
      "inputs": [
        {
          "internalType": "uint256",
          "name": "amount",
          "type": "uint256"
        }
      ],
      "name": "burn",
      "outputs": [],
      "stateMutability": "nonpayable",
      "type": "function"
    },
    {
      "inputs": [
        {
          "internalType": "address",
          "name": "user",
          "type": "address"
        },
        {
          "internalType": "uint256",
          "name": "amount",
          "type": "uint256"
        }
      ],
      "name": "burn",
      "outputs": [],
      "stateMutability": "nonpayable",
      "type": "function"
    },
    {
      "inputs": [
        {
          "internalType": "address",
          "name": "account",
          "type": "address"
        },
        {
          "internalType": "uint256",
          "name": "amount",
          "type": "uint256"
        }
      ],
      "name": "burnFrom",
      "outputs": [],
      "stateMutability": "nonpayable",
      "type": "function"
    },
    {
      "inputs": [],
      "name": "decimals",
      "outputs": [
        {
          "internalType": "uint8",
          "name": "",
          "type": "uint8"
        }
      ],
      "stateMutability": "view",
      "type": "function"
    },
    {
      "inputs": [
        {
          "internalType": "address",
          "name": "spender",
          "type": "address"
        },
        {
          "internalType": "uint256",
          "name": "subtractedValue",
          "type": "uint256"
        }
      ],
      "name": "decreaseAllowance",
      "outputs": [
        {
          "internalType": "bool",
          "name": "",
          "type": "bool"
        }
      ],
      "stateMutability": "nonpayable",
      "type": "function"
    },
    {
      "inputs": [
        {
          "internalType": "bytes32",
          "name": "role",
          "type": "bytes32"
        }
      ],
      "name": "getRoleAdmin",
      "outputs": [
        {
          "internalType": "bytes32",
          "name": "",
          "type": "bytes32"
        }
      ],
      "stateMutability": "view",
      "type": "function"
    },
    {
      "inputs": [
        {
          "internalType": "bytes32",
          "name": "role",
          "type": "bytes32"
        },
        {
          "internalType": "uint256",
          "name": "index",
          "type": "uint256"
        }
      ],
      "name": "getRoleMember",
      "outputs": [
        {
          "internalType": "address",
          "name": "",
          "type": "address"
        }
      ],
      "stateMutability": "view",
      "type": "function"
    },
    {
      "inputs": [
        {
          "internalType": "bytes32",
          "name": "role",
          "type": "bytes32"
        }
      ],
      "name": "getRoleMemberCount",
      "outputs": [
        {
          "internalType": "uint256",
          "name": "",
          "type": "uint256"
        }
      ],
      "stateMutability": "view",
      "type": "function"
    },
    {
      "inputs": [
        {
          "internalType": "bytes32",
          "name": "role",
          "type": "bytes32"
        },
        {
          "internalType": "address",
          "name": "account",
          "type": "address"
        }
      ],
      "name": "grantRole",
      "outputs": [],
      "stateMutability": "nonpayable",
      "type": "function"
    },
    {
      "inputs": [
        {
          "internalType": "bytes32",
          "name": "role",
          "type": "bytes32"
        },
        {
          "internalType": "address",
          "name": "account",
          "type": "address"
        }
      ],
      "name": "hasRole",
      "outputs": [
        {
          "internalType": "bool",
          "name": "",
          "type": "bool"
        }
      ],
      "stateMutability": "view",
      "type": "function"
    },
    {
      "inputs": [
        {
          "internalType": "address",
          "name": "spender",
          "type": "address"
        },
        {
          "internalType": "uint256",
          "name": "addedValue",
          "type": "uint256"
        }
      ],
      "name": "increaseAllowance",
      "outputs": [
        {
          "internalType": "bool",
          "name": "",
          "type": "bool"
        }
      ],
      "stateMutability": "nonpayable",
      "type": "function"
    },
    {
      "inputs": [
        {
          "internalType": "string",
          "name": "name",
          "type": "string"
        },
        {
          "internalType": "string",
          "name": "symbol",
          "type": "string"
        },
        {
          "internalType": "address",
          "name": "_pool",
          "type": "address"
        }
      ],
      "name": "initialize",
      "outputs": [],
      "stateMutability": "nonpayable",
      "type": "function"
    },
    {
      "inputs": [
        {
          "internalType": "string",
          "name": "name",
          "type": "string"
        },
        {
          "internalType": "string",
          "name": "symbol",
          "type": "string"
        }
      ],
      "name": "initialize",
      "outputs": [],
      "stateMutability": "nonpayable",
      "type": "function"
    },
    {
      "inputs": [
        {
          "internalType": "address",
          "name": "to",
          "type": "address"
        },
        {
          "internalType": "uint256",
          "name": "amount",
          "type": "uint256"
        }
      ],
      "name": "mint",
      "outputs": [],
      "stateMutability": "nonpayable",
      "type": "function"
    },
    {
      "inputs": [],
      "name": "name",
      "outputs": [
        {
          "internalType": "string",
          "name": "",
          "type": "string"
        }
      ],
      "stateMutability": "view",
      "type": "function"
    },
    {
      "inputs": [],
      "name": "pause",
      "outputs": [],
      "stateMutability": "nonpayable",
      "type": "function"
    },
    {
      "inputs": [],
      "name": "paused",
      "outputs": [
        {
          "internalType": "bool",
          "name": "",
          "type": "bool"
        }
      ],
      "stateMutability": "view",
      "type": "function"
    },
    {
      "inputs": [],
      "name": "pool",
      "outputs": [
        {
          "internalType": "address",
          "name": "",
          "type": "address"
        }
      ],
      "stateMutability": "view",
      "type": "function"
    },
    {
      "inputs": [
        {
          "internalType": "bytes32",
          "name": "role",
          "type": "bytes32"
        },
        {
          "internalType": "address",
          "name": "account",
          "type": "address"
        }
      ],
      "name": "renounceRole",
      "outputs": [],
      "stateMutability": "nonpayable",
      "type": "function"
    },
    {
      "inputs": [
        {
          "internalType": "bytes32",
          "name": "role",
          "type": "bytes32"
        },
        {
          "internalType": "address",
          "name": "account",
          "type": "address"
        }
      ],
      "name": "revokeRole",
      "outputs": [],
      "stateMutability": "nonpayable",
      "type": "function"
    },
    {
      "inputs": [],
      "name": "symbol",
      "outputs": [
        {
          "internalType": "string",
          "name": "",
          "type": "string"
        }
      ],
      "stateMutability": "view",
      "type": "function"
    },
    {
      "inputs": [],
      "name": "totalSupply",
      "outputs": [
        {
          "internalType": "uint256",
          "name": "",
          "type": "uint256"
        }
      ],
      "stateMutability": "view",
      "type": "function"
    },
    {
      "inputs": [
        {
          "internalType": "address",
          "name": "_recipient",
          "type": "address"
        },
        {
          "internalType": "uint256",
          "name": "_amount",
          "type": "uint256"
        }
      ],
      "name": "transfer",
      "outputs": [
        {
          "internalType": "bool",
          "name": "",
          "type": "bool"
        }
      ],
      "stateMutability": "nonpayable",
      "type": "function"
    },
    {
      "inputs": [
        {
          "internalType": "address",
          "name": "_sender",
          "type": "address"
        },
        {
          "internalType": "address",
          "name": "_recipient",
          "type": "address"
        },
        {
          "internalType": "uint256",
          "name": "_amount",
          "type": "uint256"
        }
      ],
      "name": "transferFrom",
      "outputs": [
        {
          "internalType": "bool",
          "name": "",
          "type": "bool"
        }
      ],
      "stateMutability": "nonpayable",
      "type": "function"
    },
    {
      "inputs": [],
      "name": "unpause",
      "outputs": [],
      "stateMutability": "nonpayable",
      "type": "function"
    }
  ],
  "bytecode": "0x608060405234801561001057600080fd5b50612320806100206000396000f3fe608060405234801561001057600080fd5b50600436106101f05760003560e01c80635c975abb1161010f578063a217fddf116100a2578063d539139311610071578063d5391393146107ff578063d547741f14610807578063dd62ed3e14610833578063e63ab1e914610861576101f0565b8063a217fddf14610782578063a457c2d71461078a578063a9059cbb146107b6578063ca15c873146107e2576101f0565b80639010d07c116100de5780639010d07c146106ff57806391d148541461072257806395d89b411461074e5780639dc29fac14610756576101f0565b80635c975abb1461069d57806370a08231146106a557806379cc6790146106cb5780638456cb59146106f7576101f0565b80632f2ff15d116101875780633f4ba83a116101565780633f4ba83a1461052357806340c10f191461052b57806342966c68146105575780634cd88b7614610574576101f0565b80632f2ff15d14610481578063313ce567146104ad57806336568abe146104cb57806339509351146104f7576101f0565b806318160ddd116101c357806318160ddd1461040c57806323b872dd14610426578063248a9ca31461045c578063282c51f314610479576101f0565b806306fdde03146101f5578063077f224a14610272578063095ea7b3146103a857806316f0115b146103e8575b600080fd5b6101fd610869565b6040805160208082528351818301528351919283929083019185019080838360005b8381101561023757818101518382015260200161021f565b50505050905090810190601f1680156102645780820380516001836020036101000a031916815260200191505b509250505060405180910390f35b6103a66004803603606081101561028857600080fd5b810190602081018135600160201b8111156102a257600080fd5b8201836020820111156102b457600080fd5b803590602001918460018302840111600160201b831117156102d557600080fd5b91908080601f0160208091040260200160405190810160405280939291908181526020018383808284376000920191909152509295949360208101935035915050600160201b81111561032757600080fd5b82018360208201111561033957600080fd5b803590602001918460018302840111600160201b8311171561035a57600080fd5b91908080601f016020809104026020016040519081016040528093929190818152602001838380828437600092019190915250929550505090356001600160a01b031691506108ff9050565b005b6103d4600480360360408110156103be57600080fd5b506001600160a01b038135169060200135610a24565b604080519115158252519081900360200190f35b6103f0610a42565b604080516001600160a01b039092168252519081900360200190f35b610414610a52565b60408051918252519081900360200190f35b6103d46004803603606081101561043c57600080fd5b506001600160a01b03813581169160208101359091169060400135610a58565b6104146004803603602081101561047257600080fd5b5035610b2c565b610414610b41565b6103a66004803603604081101561049757600080fd5b50803590602001356001600160a01b0316610b65565b6104b5610bd1565b6040805160ff9092168252519081900360200190f35b6103a6600480360360408110156104e157600080fd5b50803590602001356001600160a01b0316610bda565b6103d46004803603604081101561050d57600080fd5b506001600160a01b038135169060200135610c3b565b6103a6610c89565b6103a66004803603604081101561054157600080fd5b506001600160a01b038135169060200135610ce8565b6103a66004803603602081101561056d57600080fd5b5035610d47565b6103a66004803603604081101561058a57600080fd5b810190602081018135600160201b8111156105a457600080fd5b8201836020820111156105b657600080fd5b803590602001918460018302840111600160201b831117156105d757600080fd5b91908080601f0160208091040260200160405190810160405280939291908181526020018383808284376000920191909152509295949360208101935035915050600160201b81111561062957600080fd5b82018360208201111561063b57600080fd5b803590602001918460018302840111600160201b8311171561065c57600080fd5b91908080601f016020809104026020016040519081016040528093929190818152602001838380828437600092019190915250929550610d5b945050505050565b6103d4610e09565b610414600480360360208110156106bb57600080fd5b50356001600160a01b0316610e12565b6103a6600480360360408110156106e157600080fd5b506001600160a01b038135169060200135610e2d565b6103a6610e76565b6103f06004803603604081101561071557600080fd5b5080359060200135610ed3565b6103d46004803603604081101561073857600080fd5b50803590602001356001600160a01b0316610ef2565b6101fd610f0a565b6103a66004803603604081101561076c57600080fd5b506001600160a01b038135169060200135610f6b565b610414610fa8565b6103d4600480360360408110156107a057600080fd5b506001600160a01b038135169060200135610fad565b6103d4600480360360408110156107cc57600080fd5b506001600160a01b038135169060200135611015565b610414600480360360208110156107f857600080fd5b50356110b4565b6104146110cb565b6103a66004803603604081101561081d57600080fd5b50803590602001356001600160a01b03166110dd565b6104146004803603604081101561084957600080fd5b506001600160a01b0381358116916020013516611136565b610414611161565b60688054604080516020601f60026000196101006001881615020190951694909404938401819004810282018101909252828152606093909290918301828280156108f55780601f106108ca576101008083540402835291602001916108f5565b820191906000526020600020905b8154815290600101906020018083116108d857829003601f168201915b5050505050905090565b600054610100900460ff16806109185750610918611173565b80610926575060005460ff16155b6109615760405162461bcd60e51b815260040180806020018281038252602e8152602001806120dc602e913960400191505060405180910390fd5b600054610100900460ff1615801561098c576000805460ff1961ff0019909116610100171660011790555b6109968484611184565b6109ae6000805160206121ac83398151915283610bc3565b6109c660008051602061213283398151915283610bc3565b6109f07f3c11d16cbaffd01df69ce1c404f6340ee057498f5f00246190ea54220576a84883610bc3565b61015f80546001600160a01b0319166001600160a01b0384161790558015610a1e576000805461ff00191690555b50505050565b6000610a38610a3161124d565b8484611251565b5060015b92915050565b61015f546001600160a01b031681565b60675490565b61015f5460408051631ffb811f60e01b81526001600160a01b03868116600483015285811660248301526044820185905291516000939290921691631ffb811f91606480820192869290919082900301818387803b158015610ab957600080fd5b505af1158015610acd573d6000803e3d6000fd5b50505050610adc84848461133d565b610b2284610ae861124d565b610b1d8560405180606001604052806028815260200161210a60289139610b168a610b1161124d565b611136565b919061149a565b611251565b5060019392505050565b60009081526033602052604090206002015490565b7f3c11d16cbaffd01df69ce1c404f6340ee057498f5f00246190ea54220576a84881565b600082815260336020526040902060020154610b8890610b8361124d565b610ef2565b610bc35760405162461bcd60e51b815260040180806020018281038252602f815260200180611fda602f913960400191505060405180910390fd5b610bcd8282611531565b5050565b606a5460ff1690565b610be261124d565b6001600160a01b0316816001600160a01b031614610c315760405162461bcd60e51b815260040180806020018281038252602f815260200180612292602f913960400191505060405180910390fd5b610bcd828261159a565b6000610a38610c4861124d565b84610b1d8560666000610c5961124d565b6001600160a01b03908116825260208083019390935260409182016000908120918c168152925290205490611603565b610ca3600080516020612132833981519152610b8361124d565b610cde5760405162461bcd60e51b815260040180806020018281038252603981526020018061202b6039913960400191505060405180910390fd5b610ce661165d565b565b610d026000805160206121ac833981519152610b8361124d565b610d3d5760405162461bcd60e51b81526004018080602001828103825260368152602001806121526036913960400191505060405180910390fd5b610bcd82826116fd565b610d58610d5261124d565b826117ef565b50565b600054610100900460ff1680610d745750610d74611173565b80610d82575060005460ff16155b610dbd5760405162461bcd60e51b815260040180806020018281038252602e8152602001806120dc602e913960400191505060405180910390fd5b600054610100900460ff16158015610de8576000805460ff1961ff0019909116610100171660011790555b610df28383611184565b8015610e04576000805461ff00191690555b505050565b60c95460ff1690565b6001600160a01b031660009081526065602052604090205490565b6000610e588260405180606001604052806024815260200161218860249139610b1686610b1161124d565b9050610e6c83610e6661124d565b83611251565b610e0483836117ef565b610e90600080516020612132833981519152610b8361124d565b610ecb5760405162461bcd60e51b81526004018080602001828103825260378152602001806122366037913960400191505060405180910390fd5b610ce66118eb565b6000828152603360205260408120610eeb908361196e565b9392505050565b6000828152603360205260408120610eeb908361197a565b60698054604080516020601f60026000196101006001881615020190951694909404938401819004810282018101909252828152606093909290918301828280156108f55780601f106108ca576101008083540402835291602001916108f5565b610f957f3c11d16cbaffd01df69ce1c404f6340ee057498f5f00246190ea54220576a84833610ef2565b610f9e57600080fd5b610bcd82826117ef565b600081565b6000610a38610fba61124d565b84610b1d8560405180606001604052806025815260200161226d6025913960666000610fe461124d565b6001600160a01b03908116825260208083019390935260409182016000908120918d1681529252902054919061149a565b61015f546000906001600160a01b0316631ffb811f61103261124d565b85856040518463ffffffff1660e01b815260040180846001600160a01b03168152602001836001600160a01b031681526020018281526020019350505050600060405180830381600087803b15801561108a57600080fd5b505af115801561109e573d6000803e3d6000fd5b50505050610a386110ad61124d565b848461133d565b6000818152603360205260408120610a3c9061198f565b6000805160206121ac83398151915281565b6000828152603360205260409020600201546110fb90610b8361124d565b610c315760405162461bcd60e51b81526004018080602001828103825260308152602001806120ac6030913960400191505060405180910390fd5b6001600160a01b03918216600090815260666020908152604080832093909416825291909152205490565b60008051602061213283398151915281565b600061117e3061199a565b15905090565b600054610100900460ff168061119d575061119d611173565b806111ab575060005460ff16155b6111e65760405162461bcd60e51b815260040180806020018281038252602e8152602001806120dc602e913960400191505060405180910390fd5b600054610100900460ff16158015611211576000805460ff1961ff0019909116610100171660011790555b6112196119a0565b6112216119a0565b61122b8383611a41565b6112336119a0565b61123b611b19565b6112436119a0565b610df28383611bc4565b3390565b6001600160a01b0383166112965760405162461bcd60e51b81526004018080602001828103825260248152602001806122126024913960400191505060405180910390fd5b6001600160a01b0382166112db5760405162461bcd60e51b81526004018080602001828103825260228152602001806120646022913960400191505060405180910390fd5b6001600160a01b03808416600081815260666020908152604080832094871680845294825291829020859055815185815291517f8c5be1e5ebec7d5bd14f71427d1e84f3dd0314c0f7b2291e5b200ac8c7c3b9259281900390910190a3505050565b6001600160a01b0383166113825760405162461bcd60e51b81526004018080602001828103825260258152602001806121ed6025913960400191505060405180910390fd5b6001600160a01b0382166113c75760405162461bcd60e51b8152600401808060200182810382526023815260200180611fb76023913960400191505060405180910390fd5b6113d2838383611c97565b61140f81604051806060016040528060268152602001612086602691396001600160a01b038616600090815260656020526040902054919061149a565b6001600160a01b03808516600090815260656020526040808220939093559084168152205461143e9082611603565b6001600160a01b0380841660008181526065602090815260409182902094909455805185815290519193928716927fddf252ad1be2c89b69c2b068fc378daa952ba7f163c4a11628f55a4df523b3ef92918290030190a3505050565b600081848411156115295760405162461bcd60e51b81526004018080602001828103825283818151815260200191508051906020019080838360005b838110156114ee5781810151838201526020016114d6565b50505050905090810190601f16801561151b5780820380516001836020036101000a031916815260200191505b509250505060405180910390fd5b505050900390565b60008281526033602052604090206115499082611cea565b15610bcd5761155661124d565b6001600160a01b0316816001600160a01b0316837f2f8788117e7eff1d82e926ec794901d17c78024a50270940304540a733656f0d60405160405180910390a45050565b60008281526033602052604090206115b29082611cff565b15610bcd576115bf61124d565b6001600160a01b0316816001600160a01b0316837ff6391f5c32d9c69d2a47ea670b442974b53935d1edc7fd64eb21e047a839171b60405160405180910390a45050565b600082820183811015610eeb576040805162461bcd60e51b815260206004820152601b60248201527f536166654d6174683a206164646974696f6e206f766572666c6f770000000000604482015290519081900360640190fd5b611665610e09565b6116ad576040805162461bcd60e51b815260206004820152601460248201527314185d5cd8589b194e881b9bdd081c185d5cd95960621b604482015290519081900360640190fd5b60c9805460ff191690557f5db9ee0a495bf2e6ff9c91a7834c1ba4fdd244a5e8aa4e537bd38aeae4b073aa6116e061124d565b604080516001600160a01b039092168252519081900360200190a1565b6001600160a01b038216611758576040805162461bcd60e51b815260206004820152601f60248201527f45524332303a206d696e7420746f20746865207a65726f206164647265737300604482015290519081900360640190fd5b61176460008383611c97565b6067546117719082611603565b6067556001600160a01b0382166000908152606560205260409020546117979082611603565b6001600160a01b03831660008181526065602090815260408083209490945583518581529351929391927fddf252ad1be2c89b69c2b068fc378daa952ba7f163c4a11628f55a4df523b3ef9281900390910190a35050565b6001600160a01b0382166118345760405162461bcd60e51b81526004018080602001828103825260218152602001806121cc6021913960400191505060405180910390fd5b61184082600083611c97565b61187d81604051806060016040528060228152602001612009602291396001600160a01b038516600090815260656020526040902054919061149a565b6001600160a01b0383166000908152606560205260409020556067546118a39082611d14565b6067556040805182815290516000916001600160a01b038516917fddf252ad1be2c89b69c2b068fc378daa952ba7f163c4a11628f55a4df523b3ef9181900360200190a35050565b6118f3610e09565b15611938576040805162461bcd60e51b815260206004820152601060248201526f14185d5cd8589b194e881c185d5cd95960821b604482015290519081900360640190fd5b60c9805460ff191660011790557f62e78cea01bee320cd4e420270b5ea74000d11b0c9f74754ebdbfc544b05a2586116e061124d565b6000610eeb8383611d71565b6000610eeb836001600160a01b038416611dd5565b6000610a3c82611ded565b3b151590565b600054610100900460ff16806119b957506119b9611173565b806119c7575060005460ff16155b611a025760405162461bcd60e51b815260040180806020018281038252602e8152602001806120dc602e913960400191505060405180910390fd5b600054610100900460ff16158015611a2d576000805460ff1961ff0019909116610100171660011790555b8015610d58576000805461ff001916905550565b600054610100900460ff1680611a5a5750611a5a611173565b80611a68575060005460ff16155b611aa35760405162461bcd60e51b815260040180806020018281038252602e8152602001806120dc602e913960400191505060405180910390fd5b600054610100900460ff16158015611ace576000805460ff1961ff0019909116610100171660011790555b8251611ae1906068906020860190611f01565b508151611af5906069906020850190611f01565b50606a805460ff191660121790558015610e04576000805461ff0019169055505050565b600054610100900460ff1680611b325750611b32611173565b80611b40575060005460ff16155b611b7b5760405162461bcd60e51b815260040180806020018281038252602e8152602001806120dc602e913960400191505060405180910390fd5b600054610100900460ff16158015611ba6576000805460ff1961ff0019909116610100171660011790555b60c9805460ff191690558015610d58576000805461ff001916905550565b600054610100900460ff1680611bdd5750611bdd611173565b80611beb575060005460ff16155b611c265760405162461bcd60e51b815260040180806020018281038252602e8152602001806120dc602e913960400191505060405180910390fd5b600054610100900460ff16158015611c51576000805460ff1961ff0019909116610100171660011790555b611c636000611c5e61124d565b610bc3565b611c7d6000805160206121ac833981519152611c5e61124d565b610df2600080516020612132833981519152611c5e61124d565b6001600160a01b03821615610e0457611cae610e09565b15610e045760405162461bcd60e51b815260040180806020018281038252602a8152602001806122c1602a913960400191505060405180910390fd5b6000610eeb836001600160a01b038416611df1565b6000610eeb836001600160a01b038416611e3b565b600082821115611d6b576040805162461bcd60e51b815260206004820152601e60248201527f536166654d6174683a207375627472616374696f6e206f766572666c6f770000604482015290519081900360640190fd5b50900390565b81546000908210611db35760405162461bcd60e51b8152600401808060200182810382526022815260200180611f956022913960400191505060405180910390fd5b826000018281548110611dc257fe5b9060005260206000200154905092915050565b60009081526001919091016020526040902054151590565b5490565b6000611dfd8383611dd5565b611e3357508154600181810184556000848152602080822090930184905584548482528286019093526040902091909155610a3c565b506000610a3c565b60008181526001830160205260408120548015611ef75783546000198083019190810190600090879083908110611e6e57fe5b9060005260206000200154905080876000018481548110611e8b57fe5b600091825260208083209091019290925582815260018981019092526040902090840190558654879080611ebb57fe5b60019003818190600052602060002001600090559055866001016000878152602001908152602001600020600090556001945050505050610a3c565b6000915050610a3c565b828054600181600116156101000203166002900490600052602060002090601f016020900481019282601f10611f4257805160ff1916838001178555611f6f565b82800160010185558215611f6f579182015b82811115611f6f578251825591602001919060010190611f54565b50611f7b929150611f7f565b5090565b5b80821115611f7b5760008155600101611f8056fe456e756d657261626c655365743a20696e646578206f7574206f6620626f756e647345524332303a207472616e7366657220746f20746865207a65726f2061646472657373416363657373436f6e74726f6c3a2073656e646572206d75737420626520616e2061646d696e20746f206772616e7445524332303a206275726e20616d6f756e7420657863656564732062616c616e636545524332305072657365744d696e7465725061757365723a206d75737420686176652070617573657220726f6c6520746f20756e706175736545524332303a20617070726f766520746f20746865207a65726f206164647265737345524332303a207472616e7366657220616d6f756e7420657863656564732062616c616e6365416363657373436f6e74726f6c3a2073656e646572206d75737420626520616e2061646d696e20746f207265766f6b65496e697469616c697a61626c653a20636f6e747261637420697320616c726561647920696e697469616c697a656445524332303a207472616e7366657220616d6f756e74206578636565647320616c6c6f77616e636565d7a28e3265b37a6474929f336521b332c1681b933f6cb9f3376673440d862a45524332305072657365744d696e7465725061757365723a206d7573742068617665206d696e74657220726f6c6520746f206d696e7445524332303a206275726e20616d6f756e74206578636565647320616c6c6f77616e63659f2df0fed2c77648de5860a4cc508cd0818c85b8b8a1ab4ceeef8d981c8956a645524332303a206275726e2066726f6d20746865207a65726f206164647265737345524332303a207472616e736665722066726f6d20746865207a65726f206164647265737345524332303a20617070726f76652066726f6d20746865207a65726f206164647265737345524332305072657365744d696e7465725061757365723a206d75737420686176652070617573657220726f6c6520746f20706175736545524332303a2064656372656173656420616c6c6f77616e63652062656c6f77207a65726f416363657373436f6e74726f6c3a2063616e206f6e6c792072656e6f756e636520726f6c657320666f722073656c6645524332305061757361626c653a20746f6b656e207472616e73666572207768696c6520706175736564a2646970667358221220becb1f3c0b5e1841f34221c43f2a848a96643c207b8a600edb6b0c9c458c0c2664736f6c63430007000033",
  "linkReferences": {},
  "deployedLinkReferences": {}
}