{
  "_format": "hh-sol-artifact-1",
  "contractName": "Pool",
  "sourceName": "contracts/Pool/Pool.sol",
  "abi": [
    {
      "anonymous": false,
      "inputs": [
        {
          "indexed": false,
          "internalType": "uint256",
          "name": "amount",
          "type": "uint256"
        }
      ],
      "name": "AmountBorrowed",
      "type": "event"
    },
    {
      "anonymous": false,
      "inputs": [
        {
          "indexed": false,
          "internalType": "address",
          "name": "borrower",
          "type": "address"
        },
        {
          "indexed": false,
          "internalType": "uint256",
          "name": "amount",
          "type": "uint256"
        },
        {
          "indexed": false,
          "internalType": "uint256",
          "name": "sharesReceived",
          "type": "uint256"
        }
      ],
      "name": "CollateralAdded",
      "type": "event"
    },
    {
      "anonymous": false,
      "inputs": [
        {
          "indexed": false,
          "internalType": "address",
          "name": "borrower",
          "type": "address"
        },
        {
          "indexed": false,
          "internalType": "uint256",
          "name": "amount",
          "type": "uint256"
        }
      ],
      "name": "CollateralWithdrawn",
      "type": "event"
    },
    {
      "anonymous": false,
      "inputs": [
        {
          "indexed": false,
          "internalType": "address",
          "name": "liquidator",
          "type": "address"
        },
        {
          "indexed": false,
          "internalType": "address",
          "name": "lender",
          "type": "address"
        },
        {
          "indexed": false,
          "internalType": "uint256",
          "name": "_tokenReceived",
          "type": "uint256"
        }
      ],
      "name": "LenderLiquidated",
      "type": "event"
    },
    {
      "anonymous": false,
      "inputs": [
        {
          "indexed": false,
          "internalType": "uint256",
          "name": "amountSupplied",
          "type": "uint256"
        },
        {
          "indexed": false,
          "internalType": "address",
          "name": "lenderAddress",
          "type": "address"
        }
      ],
      "name": "LiquiditySupplied",
      "type": "event"
    },
    {
      "anonymous": false,
      "inputs": [
        {
          "indexed": false,
          "internalType": "uint256",
          "name": "amount",
          "type": "uint256"
        },
        {
          "indexed": false,
          "internalType": "address",
          "name": "lenderAddress",
          "type": "address"
        }
      ],
      "name": "LiquidityWithdrawn",
      "type": "event"
    },
    {
      "anonymous": false,
      "inputs": [
        {
          "indexed": false,
          "internalType": "address",
          "name": "borrower",
          "type": "address"
        },
        {
          "indexed": false,
          "internalType": "address",
          "name": "lender",
          "type": "address"
        },
        {
          "indexed": false,
          "internalType": "uint256",
          "name": "amount",
          "type": "uint256"
        },
        {
          "indexed": false,
          "internalType": "uint256",
          "name": "sharesReceived",
          "type": "uint256"
        }
      ],
      "name": "MarginCallCollateralAdded",
      "type": "event"
    },
    {
      "anonymous": false,
      "inputs": [
        {
          "indexed": false,
          "internalType": "address",
          "name": "lenderAddress",
          "type": "address"
        }
      ],
      "name": "MarginCalled",
      "type": "event"
    },
    {
      "anonymous": false,
      "inputs": [],
      "name": "PoolCancelled",
      "type": "event"
    },
    {
      "anonymous": false,
      "inputs": [],
      "name": "PoolClosed",
      "type": "event"
    },
    {
      "anonymous": false,
      "inputs": [
        {
          "indexed": false,
          "internalType": "address",
          "name": "liquidator",
          "type": "address"
        }
      ],
      "name": "PoolLiquidated",
      "type": "event"
    },
    {
      "anonymous": false,
      "inputs": [],
      "name": "PoolTerminated",
      "type": "event"
    },
    {
      "inputs": [],
      "name": "PoolFactory",
      "outputs": [
        {
          "internalType": "address",
          "name": "",
          "type": "address"
        }
      ],
      "stateMutability": "view",
      "type": "function"
    },
    {
      "inputs": [
        {
          "internalType": "address",
          "name": "_lender",
          "type": "address"
        },
        {
          "internalType": "uint256",
          "name": "_amount",
          "type": "uint256"
        },
        {
          "internalType": "bool",
          "name": "_transferFromSavingsAccount",
          "type": "bool"
        }
      ],
      "name": "addCollateralInMarginCall",
      "outputs": [],
      "stateMutability": "payable",
      "type": "function"
    },
    {
      "inputs": [
        {
          "internalType": "address",
          "name": "_from",
          "type": "address"
        },
        {
          "internalType": "address",
          "name": "_to",
          "type": "address"
        },
        {
          "internalType": "uint256",
          "name": "_amount",
          "type": "uint256"
        }
      ],
      "name": "beforeTransfer",
      "outputs": [],
      "stateMutability": "nonpayable",
      "type": "function"
    },
    {
      "inputs": [],
      "name": "borrower",
      "outputs": [
        {
          "internalType": "address",
          "name": "",
          "type": "address"
        }
      ],
      "stateMutability": "view",
      "type": "function"
    },
    {
      "inputs": [
        {
          "internalType": "uint256",
          "name": "_balance",
          "type": "uint256"
        },
        {
          "internalType": "uint256",
          "name": "_liquidityShares",
          "type": "uint256"
        }
      ],
      "name": "calculateCollateralRatio",
      "outputs": [
        {
          "internalType": "uint256",
          "name": "_ratio",
          "type": "uint256"
        }
      ],
      "stateMutability": "nonpayable",
      "type": "function"
    },
    {
      "inputs": [],
      "name": "calculateCurrentPeriod",
      "outputs": [
        {
          "internalType": "uint256",
          "name": "",
          "type": "uint256"
        }
      ],
      "stateMutability": "view",
      "type": "function"
    },
    {
      "inputs": [
        {
          "internalType": "address",
          "name": "_lender",
          "type": "address"
        }
      ],
      "name": "calculateRepaymentWithdrawable",
      "outputs": [
        {
          "internalType": "uint256",
          "name": "",
          "type": "uint256"
        }
      ],
      "stateMutability": "view",
      "type": "function"
    },
    {
      "inputs": [],
      "name": "cancelPool",
      "outputs": [],
      "stateMutability": "nonpayable",
      "type": "function"
    },
    {
      "inputs": [],
      "name": "closeLoan",
      "outputs": [],
      "stateMutability": "payable",
      "type": "function"
    },
    {
      "inputs": [
        {
          "internalType": "uint256",
          "name": "_totalCollateralTokens",
          "type": "uint256"
        },
        {
          "internalType": "address",
          "name": "_poolFactory",
          "type": "address"
        },
        {
          "internalType": "uint256",
          "name": "_fraction",
          "type": "uint256"
        }
      ],
      "name": "correspondingBorrowTokens",
      "outputs": [
        {
          "internalType": "uint256",
          "name": "",
          "type": "uint256"
        }
      ],
      "stateMutability": "view",
      "type": "function"
    },
    {
      "inputs": [
        {
          "internalType": "uint256",
          "name": "_amount",
          "type": "uint256"
        },
        {
          "internalType": "bool",
          "name": "_transferFromSavingsAccount",
          "type": "bool"
        }
      ],
      "name": "depositCollateral",
      "outputs": [],
      "stateMutability": "payable",
      "type": "function"
    },
    {
      "inputs": [
        {
          "internalType": "address",
          "name": "_lender",
          "type": "address"
        }
      ],
      "name": "getBalanceDetails",
      "outputs": [
        {
          "internalType": "uint256",
          "name": "",
          "type": "uint256"
        },
        {
          "internalType": "uint256",
          "name": "",
          "type": "uint256"
        }
      ],
      "stateMutability": "view",
      "type": "function"
    },
    {
      "inputs": [
        {
          "internalType": "address",
          "name": "_lender",
          "type": "address"
        }
      ],
      "name": "getCurrentCollateralRatio",
      "outputs": [
        {
          "internalType": "uint256",
          "name": "_ratio",
          "type": "uint256"
        }
      ],
      "stateMutability": "nonpayable",
      "type": "function"
    },
    {
      "inputs": [],
      "name": "getCurrentCollateralRatio",
      "outputs": [
        {
          "internalType": "uint256",
          "name": "_ratio",
          "type": "uint256"
        }
      ],
      "stateMutability": "nonpayable",
      "type": "function"
    },
    {
      "inputs": [
        {
          "internalType": "address",
          "name": "_source",
          "type": "address"
        },
        {
          "internalType": "address",
          "name": "_target",
          "type": "address"
        },
        {
          "internalType": "uint256",
          "name": "_amount",
          "type": "uint256"
        }
      ],
      "name": "getEquivalentTokens",
      "outputs": [
        {
          "internalType": "uint256",
          "name": "",
          "type": "uint256"
        }
      ],
      "stateMutability": "view",
      "type": "function"
    },
    {
      "inputs": [],
      "name": "getLoanStatus",
      "outputs": [
        {
          "internalType": "uint256",
          "name": "",
          "type": "uint256"
        }
      ],
      "stateMutability": "view",
      "type": "function"
    },
    {
      "inputs": [
        {
          "internalType": "address",
          "name": "_lender",
          "type": "address"
        }
      ],
      "name": "getMarginCallEndTime",
      "outputs": [
        {
          "internalType": "uint256",
          "name": "",
          "type": "uint256"
        }
      ],
      "stateMutability": "view",
      "type": "function"
    },
    {
      "inputs": [],
      "name": "getTokensLent",
      "outputs": [
        {
          "internalType": "uint256",
          "name": "",
          "type": "uint256"
        }
      ],
      "stateMutability": "view",
      "type": "function"
    },
    {
      "inputs": [
        {
          "internalType": "uint256",
          "name": "_borrowAmountRequested",
          "type": "uint256"
        },
        {
          "internalType": "uint256",
          "name": "_borrowRate",
          "type": "uint256"
        },
        {
          "internalType": "address",
          "name": "_borrower",
          "type": "address"
        },
        {
          "internalType": "address",
          "name": "_borrowAsset",
          "type": "address"
        },
        {
          "internalType": "address",
          "name": "_collateralAsset",
          "type": "address"
        },
        {
          "internalType": "uint256",
          "name": "_idealCollateralRatio",
          "type": "uint256"
        },
        {
          "internalType": "uint256",
          "name": "_volatilityThreshold",
          "type": "uint256"
        },
        {
          "internalType": "uint256",
          "name": "_repaymentInterval",
          "type": "uint256"
        },
        {
          "internalType": "uint256",
          "name": "_noOfRepaymentIntervals",
          "type": "uint256"
        },
        {
          "internalType": "address",
          "name": "_poolSavingsStrategy",
          "type": "address"
        },
        {
          "internalType": "uint256",
          "name": "_collateralAmount",
          "type": "uint256"
        },
        {
          "internalType": "bool",
          "name": "_transferFromSavingsAccount",
          "type": "bool"
        },
        {
          "internalType": "uint256",
          "name": "_loanWithdrawalDuration",
          "type": "uint256"
        },
        {
          "internalType": "uint256",
          "name": "_collectionPeriod",
          "type": "uint256"
        }
      ],
      "name": "initialize",
      "outputs": [],
      "stateMutability": "payable",
      "type": "function"
    },
    {
      "inputs": [
        {
          "internalType": "uint256",
          "name": "_balance",
          "type": "uint256"
        }
      ],
      "name": "interestPerPeriod",
      "outputs": [
        {
          "internalType": "uint256",
          "name": "",
          "type": "uint256"
        }
      ],
      "stateMutability": "view",
      "type": "function"
    },
    {
      "inputs": [
        {
          "internalType": "uint256",
          "name": "_principal",
          "type": "uint256"
        }
      ],
      "name": "interestPerSecond",
      "outputs": [
        {
          "internalType": "uint256",
          "name": "",
          "type": "uint256"
        }
      ],
      "stateMutability": "view",
      "type": "function"
    },
    {
      "inputs": [],
      "name": "interestToPay",
      "outputs": [
        {
          "internalType": "uint256",
          "name": "",
          "type": "uint256"
        }
      ],
      "stateMutability": "view",
      "type": "function"
    },
    {
      "inputs": [
        {
          "internalType": "address",
          "name": "_lender",
          "type": "address"
        },
        {
          "internalType": "uint256",
          "name": "_amount",
          "type": "uint256"
        },
        {
          "internalType": "bool",
          "name": "_fromSavingsAccount",
          "type": "bool"
        }
      ],
      "name": "lend",
      "outputs": [],
      "stateMutability": "payable",
      "type": "function"
    },
    {
      "inputs": [
        {
          "internalType": "address",
          "name": "",
          "type": "address"
        }
      ],
      "name": "lenders",
      "outputs": [
        {
          "internalType": "uint256",
          "name": "interestWithdrawn",
          "type": "uint256"
        },
        {
          "internalType": "uint256",
          "name": "marginCallEndTime",
          "type": "uint256"
        },
        {
          "internalType": "uint256",
          "name": "extraLiquidityShares",
          "type": "uint256"
        }
      ],
      "stateMutability": "view",
      "type": "function"
    },
    {
      "inputs": [
        {
          "internalType": "bool",
          "name": "_toSavingsAccount",
          "type": "bool"
        },
        {
          "internalType": "bool",
          "name": "_receiveLiquidityShare",
          "type": "bool"
        }
      ],
      "name": "liquidateCancelPenalty",
      "outputs": [],
      "stateMutability": "nonpayable",
      "type": "function"
    },
    {
      "inputs": [
        {
          "internalType": "address",
          "name": "_lender",
          "type": "address"
        },
        {
          "internalType": "bool",
          "name": "_fromSavingsAccount",
          "type": "bool"
        },
        {
          "internalType": "bool",
          "name": "_toSavingsAccount",
          "type": "bool"
        },
        {
          "internalType": "bool",
          "name": "_recieveLiquidityShare",
          "type": "bool"
        }
      ],
      "name": "liquidateForLender",
      "outputs": [],
      "stateMutability": "payable",
      "type": "function"
    },
    {
      "inputs": [
        {
          "internalType": "bool",
          "name": "_fromSavingsAccount",
          "type": "bool"
        },
        {
          "internalType": "bool",
          "name": "_toSavingsAccount",
          "type": "bool"
        },
        {
          "internalType": "bool",
          "name": "_recieveLiquidityShare",
          "type": "bool"
        }
      ],
      "name": "liquidatePool",
      "outputs": [],
      "stateMutability": "payable",
      "type": "function"
    },
    {
      "inputs": [],
      "name": "poolConstants",
      "outputs": [
        {
          "internalType": "address",
          "name": "borrower",
          "type": "address"
        },
        {
          "internalType": "uint256",
          "name": "borrowAmountRequested",
          "type": "uint256"
        },
        {
          "internalType": "uint256",
          "name": "loanStartTime",
          "type": "uint256"
        },
        {
          "internalType": "uint256",
          "name": "loanWithdrawalDeadline",
          "type": "uint256"
        },
        {
          "internalType": "address",
          "name": "borrowAsset",
          "type": "address"
        },
        {
          "internalType": "uint256",
          "name": "idealCollateralRatio",
          "type": "uint256"
        },
        {
          "internalType": "uint256",
          "name": "volatilityThreshold",
          "type": "uint256"
        },
        {
          "internalType": "uint256",
          "name": "borrowRate",
          "type": "uint256"
        },
        {
          "internalType": "uint256",
          "name": "noOfRepaymentIntervals",
          "type": "uint256"
        },
        {
          "internalType": "uint256",
          "name": "repaymentInterval",
          "type": "uint256"
        },
        {
          "internalType": "address",
          "name": "collateralAsset",
          "type": "address"
        },
        {
          "internalType": "address",
          "name": "poolSavingsStrategy",
          "type": "address"
        },
        {
          "internalType": "address",
          "name": "lenderVerifier",
          "type": "address"
        }
      ],
      "stateMutability": "view",
      "type": "function"
    },
    {
      "inputs": [],
      "name": "poolToken",
      "outputs": [
        {
          "internalType": "contract IPoolToken",
          "name": "",
          "type": "address"
        }
      ],
      "stateMutability": "view",
      "type": "function"
    },
    {
      "inputs": [],
      "name": "poolVariables",
      "outputs": [
        {
          "internalType": "uint256",
          "name": "baseLiquidityShares",
          "type": "uint256"
        },
        {
          "internalType": "uint256",
          "name": "extraLiquidityShares",
          "type": "uint256"
        },
        {
          "internalType": "enum Pool.LoanStatus",
          "name": "loanStatus",
          "type": "uint8"
        },
        {
          "internalType": "uint256",
          "name": "penaltyLiquidityAmount",
          "type": "uint256"
        }
      ],
      "stateMutability": "view",
      "type": "function"
    },
    {
      "inputs": [],
      "name": "requestMarginCall",
      "outputs": [],
      "stateMutability": "nonpayable",
      "type": "function"
    },
    {
      "inputs": [
        {
          "internalType": "address",
          "name": "_poolToken",
          "type": "address"
        },
        {
          "internalType": "address",
          "name": "_lenderVerifier",
          "type": "address"
        }
      ],
      "name": "setConstants",
      "outputs": [],
      "stateMutability": "nonpayable",
      "type": "function"
    },
    {
      "inputs": [],
      "name": "terminatePool",
      "outputs": [],
      "stateMutability": "nonpayable",
      "type": "function"
    },
    {
      "inputs": [],
      "name": "withdrawBorrowedAmount",
      "outputs": [],
      "stateMutability": "nonpayable",
      "type": "function"
    },
    {
      "inputs": [],
      "name": "withdrawLiquidity",
      "outputs": [],
      "stateMutability": "nonpayable",
      "type": "function"
    },
    {
      "inputs": [],
      "name": "withdrawRepayment",
      "outputs": [],
      "stateMutability": "nonpayable",
      "type": "function"
    },
    {
      "stateMutability": "payable",
      "type": "receive"
    }
  ],
  "bytecode": "0x608060405234801561001057600080fd5b5060018055615442806100246000396000f3fe6080604052600436106102135760003560e01c80637aa9f4a711610118578063c145fe69116100a0578063d2b93bfd1161006f578063d2b93bfd14610818578063d7c358ae1461083d578063d820d4c914610852578063daf5539e1461087c578063e70d72d7146108af5761021a565b8063c145fe6914610768578063c4a3702f1461079c578063c94db32c146107cf578063cbdf382c146108035761021a565b806395f3f456116100e757806395f3f4561461069f578063acc1ab13146106b4578063b2c09233146106c9578063bda9e06b14610715578063bde5ef321461072a5761021a565b80637aa9f4a7146105ef5780637df1f1b91461063a5780637ea382c11461064f57806383366c19146106645761021a565b8063455712761161019b5780636886c8141161016a5780636886c814146104aa57806372954480146105395780637320fc29146105785780637489b451146105ab5780637729886f146105c05761021a565b8063455712761461040d57806346b55fbb146104225780635695d52d146104525780635afaa80f146104675761021a565b8063232fa733116101e2578063232fa733146102d1578063272edaf2146102d9578063275ac2521461035e57806328fd10d7146103885780632dea6214146103d95761021a565b80630fc728891461021f5780631b55b2a8146102465780631ffb811f1461025d57806322ba1525146102a05761021a565b3661021a57005b600080fd5b34801561022b57600080fd5b506102346108c4565b60408051918252519081900360200190f35b34801561025257600080fd5b5061025b610904565b005b34801561026957600080fd5b5061025b6004803603606081101561028057600080fd5b506001600160a01b03813581169160208101359091169060400135610ba0565b3480156102ac57600080fd5b506102b5610e4b565b604080516001600160a01b039092168252519081900360200190f35b61025b610e5a565b61025b60048036036101c08110156102f057600080fd5b508035906020810135906001600160a01b0360408201358116916060810135821691608082013581169160a08101359160c08201359160e081013591610100820135916101208101359091169061014081013590610160810135151590610180810135906101a0013561112a565b34801561036a57600080fd5b506102346004803603602081101561038157600080fd5b5035611288565b34801561039457600080fd5b506103bb600480360360208110156103ab57600080fd5b50356001600160a01b03166112b2565b60408051938452602084019290925282820152519081900360600190f35b61025b600480360360608110156103ef57600080fd5b506001600160a01b03813516906020810135906040013515156112d3565b34801561041957600080fd5b5061025b61165c565b34801561042e57600080fd5b506102346004803603604081101561044557600080fd5b508035906020013561188d565b34801561045e57600080fd5b50610234611a10565b34801561047357600080fd5b506102346004803603606081101561048a57600080fd5b506001600160a01b03813581169160208101359091169060400135611b9f565b3480156104b657600080fd5b506104bf611cc0565b604080516001600160a01b039e8f168152602081019d909d528c81019b909b5260608c0199909952968b1660808b015260a08a019590955260c089019390935260e0880191909152610100870152610120860152851661014085015284166101608401529092166101808201529051908190036101a00190f35b34801561054557600080fd5b506102346004803603606081101561055c57600080fd5b508035906001600160a01b036020820135169060400135611d03565b34801561058457600080fd5b506102346004803603602081101561059b57600080fd5b50356001600160a01b0316611e36565b3480156105b757600080fd5b5061025b611ef8565b61025b600480360360608110156105d657600080fd5b5080351515906020810135151590604001351515612001565b3480156105fb57600080fd5b5061060461235d565b6040518085815260200184815260200183600581111561062057fe5b815260200182815260200194505050505060405180910390f35b34801561064657600080fd5b506102b5612372565b34801561065b57600080fd5b5061025b612381565b34801561067057600080fd5b5061025b6004803603604081101561068757600080fd5b506001600160a01b038135811691602001351661284c565b3480156106ab57600080fd5b5061025b6128c0565b3480156106c057600080fd5b50610234612df2565b3480156106d557600080fd5b506106fc600480360360208110156106ec57600080fd5b50356001600160a01b0316612e0b565b6040805192835260208301919091528051918290030190f35b34801561072157600080fd5b5061025b612f00565b61025b6004803603608081101561074057600080fd5b506001600160a01b038135169060208101351515906040810135151590606001351515613151565b61025b6004803603606081101561077e57600080fd5b506001600160a01b0381351690602081013590604001351515613368565b3480156107a857600080fd5b50610234600480360360208110156107bf57600080fd5b50356001600160a01b0316613579565b3480156107db57600080fd5b5061025b600480360360408110156107f257600080fd5b508035151590602001351515613756565b34801561080f57600080fd5b506102b561394b565b61025b6004803603604081101561082e57600080fd5b5080359060200135151561395a565b34801561084957600080fd5b5061023461399f565b34801561085e57600080fd5b506102346004803603602081101561087557600080fd5b5035613a15565b34801561088857600080fd5b506102346004803603602081101561089f57600080fd5b50356001600160a01b0316613a2f565b3480156108bb57600080fd5b50610234613b54565b600e546007546040805180820190915260028152610ccd60f21b602082015260009283926108fd926108f7914291613bed565b90613c84565b9150505b90565b60145460ff16600081600581111561091857fe5b14610950576040805162461bcd60e51b815260206004820152600360248201526243503160e81b604482015290519081900360640190fd5b6007546002546001600160a01b03164282108015610a6957506109ed68327cb2734119d3b7a9601e1b6108f7600560010154846001600160a01b031663c2bb7c8d6040518163ffffffff1660e01b815260040160206040518083038186803b1580156109bb57600080fd5b505afa1580156109cf573d6000803e3d6000fd5b505050506040513d60208110156109e557600080fd5b505190613ceb565b600360009054906101000a90046001600160a01b03166001600160a01b03166318160ddd6040518163ffffffff1660e01b815260040160206040518083038186803b158015610a3b57600080fd5b505afa158015610a4f573d6000803e3d6000fd5b505050506040513d6020811015610a6557600080fd5b5051105b15610a8057610a786000613d44565b505050610b9e565b60085442811115610ad0576005546001600160a01b03163314610ad0576040805162461bcd60e51b815260206004820152600360248201526221a81960e91b604482015290519081900360640190fd5b6012546000610adf8584613ec8565b90506000846001600160a01b031663cf62591e6040518163ffffffff1660e01b815260040160206040518083038186803b158015610b1c57600080fd5b505afa158015610b30573d6000803e3d6000fd5b505050506040513d6020811015610b4657600080fd5b5051600c54909150600090610b8a9068327cb2734119d3b7a9601e1b906108f7906301e133809082908890610b8490869084908d9084908d90613ceb565b90613ceb565b9050610b9581613d44565b50505050505050505b565b60026001541415610be6576040805162461bcd60e51b815260206004820152601f6024820152600080516020615310833981519152604482015290519081900360640190fd5b60026001556003546001600160a01b03163314610c0257600080fd5b610c0b83611e36565b15610c42576040805162461bcd60e51b8152602060048201526002602482015261062760f31b604482015290519081900360640190fd5b610c4b82611e36565b15610c82576040805162461bcd60e51b8152602060048201526002602482015261313960f01b604482015290519081900360640190fd5b610c8b83613eff565b610c9482613eff565b6001600160a01b03831660009081526004602052604090206002015480610cbb5750610e42565b600354604080516370a0823160e01b81526001600160a01b0387811660048301529151849392909216916370a0823191602480820192602092909190829003018186803b158015610d0b57600080fd5b505afa158015610d1f573d6000803e3d6000fd5b505050506040513d6020811015610d3557600080fd5b50518314610dc857600354604080516370a0823160e01b81526001600160a01b0388811660048301529151610dc59392909216916370a0823191602480820192602092909190829003018186803b158015610d8f57600080fd5b505afa158015610da3573d6000803e3d6000fd5b505050506040513d6020811015610db957600080fd5b50516108f78585613ceb565b90505b6001600160a01b038516600090815260046020526040902060020154610dee9082613f6d565b6001600160a01b038087166000908152600460205260408082206002908101949094559187168152200154610e239082613fca565b6001600160a01b03851660009081526004602052604090206002015550505b50506001805550565b6002546001600160a01b031681565b60026001541415610ea0576040805162461bcd60e51b815260206004820152601f6024820152600080516020615310833981519152604482015290519081900360640190fd5b60026001819055546040805163171e108560e01b815290516001600160a01b039092169163171e108591600480820192602092909190829003018186803b158015610eea57600080fd5b505afa158015610efe573d6000803e3d6000fd5b505050506040513d6020811015610f1457600080fd5b50516001600160a01b03163314610f57576040805162461bcd60e51b8152602060048201526002602482015261323560f01b604482015290519081900360640190fd5b600160145460ff166005811115610f6a57fe5b14610fa1576040805162461bcd60e51b8152602060048201526002602482015261191960f11b604482015290519081900360640190fd5b6014805460ff1916600290811790915554604080516302d5537b60e41b815290516001600160a01b0390921691632d5537b091600480820192602092909190829003018186803b158015610ff457600080fd5b505afa158015611008573d6000803e3d6000fd5b505050506040513d602081101561101e57600080fd5b5051604080516311f2df1b60e21b815290516001600160a01b03909216916347cb7c6c9160048082019260009290919082900301818387803b15801561106357600080fd5b505af1158015611077573d6000803e3d6000fd5b505060055461109392506001600160a01b031690506000614024565b600360009054906101000a90046001600160a01b03166001600160a01b0316638456cb596040518163ffffffff1660e01b8152600401600060405180830381600087803b1580156110e357600080fd5b505af11580156110f7573d6000803e3d6000fd5b50506040517fd9fd1a29efbd67e74bbcd110e7344e0a2fbc8efd8334b946c1b805670d8d08ea925060009150a160018055565b600054610100900460ff168061114357506111436141e6565b80611151575060005460ff16155b61118c5760405162461bcd60e51b815260040180806020018281038252602e81526020018061535e602e913960400191505060405180910390fd5b600054610100900460ff161580156111b7576000805460ff1961ff0019909116610100171660011790555b60028054336001600160a01b0319918216179091556009805482166001600160a01b038f811691909117909155600a8c9055600b8b9055600f805483168e83161790556010805490921690881617905560068f90556112178d86866141f7565b600580546001600160a01b0319166001600160a01b038f16179055600c8e9055600d879055600e88905561124b4283613fca565b6007556112628361125c4285613fca565b90613fca565b6008558015611277576000805461ff00191690555b505050505050505050505050505050565b6000806112ab6301e133806108f760056007015486613ceb90919063ffffffff16565b9392505050565b60046020526000908152604090208054600182015460029092015490919083565b60026001541415611319576040805162461bcd60e51b815260206004820152601f6024820152600080516020615310833981519152604482015290519081900360640190fd5b60026001556011546001600160a01b0316801561146957600260009054906101000a90046001600160a01b03166001600160a01b0316635c7460d66040518163ffffffff1660e01b815260040160206040518083038186803b15801561137e57600080fd5b505afa158015611392573d6000803e3d6000fd5b505050506040513d60208110156113a857600080fd5b505160408051625a87b960e31b81526001600160a01b0387811660048301528481166024830152915191909216916302d43dc8916044808301926020929190829003018186803b1580156113fb57600080fd5b505afa15801561140f573d6000803e3d6000fd5b505050506040513d602081101561142557600080fd5b5051611469576040805162461bcd60e51b815260206004820152600e60248201526d34b73b30b634b2103632b73232b960911b604482015290519081900360640190fd5b600060145460ff16600581111561147c57fe5b146114b3576040805162461bcd60e51b8152602060048201526002602482015261313560f01b604482015290519081900360640190fd5b60075442106114ee576040805162461bcd60e51b8152602060048201526002602482015261189b60f11b604482015290519081900360640190fd5b600654600354604080516318160ddd60e01b815290516000926001600160a01b0316916318160ddd916004808301926020929190829003018186803b15801561153657600080fd5b505afa15801561154a573d6000803e3d6000fd5b505050506040513d602081101561156057600080fd5b505190508161156f8683613fca565b11156115825761157f8282613f6d565b94505b6009546001600160a01b031661159e8560008389823330614287565b50600354604080516340c10f1960e01b81526001600160a01b038a81166004830152602482018a9052915191909216916340c10f1991604480830192600092919082900301818387803b1580156115f457600080fd5b505af1158015611608573d6000803e3d6000fd5b5050604080518981526001600160a01b038b16602082015281517ff09dbebdc018e2d81469b76b813a178bbc38dde6fd1056134b68f291a58802e29450908190039091019150a15050600180555050505050565b600260009054906101000a90046001600160a01b03166001600160a01b0316638da5cb5b6040518163ffffffff1660e01b815260040160206040518083038186803b1580156116aa57600080fd5b505afa1580156116be573d6000803e3d6000fd5b505050506040513d60208110156116d457600080fd5b50516001600160a01b03163314611716576040805162461bcd60e51b81526020600482015260016024820152603360f81b604482015290519081900360640190fd5b611721336000614024565b600360009054906101000a90046001600160a01b03166001600160a01b0316638456cb596040518163ffffffff1660e01b8152600401600060405180830381600087803b15801561177157600080fd5b505af1158015611785573d6000803e3d6000fd5b50506014805460ff191660051790555050600254604080516302d5537b60e41b815290516001600160a01b0390921691632d5537b091600480820192602092909190829003018186803b1580156117db57600080fd5b505afa1580156117ef573d6000803e3d6000fd5b505050506040513d602081101561180557600080fd5b5051604080516311f2df1b60e21b815290516001600160a01b03909216916347cb7c6c9160048082019260009290919082900301818387803b15801561184a57600080fd5b505af115801561185e573d6000803e3d6000fd5b50506040517f07d64959f11f8107f710e3e88140e45b57efb9e6653fbf73e9e546b8aa1b0b36925060009150a1565b600080611919600360009054906101000a90046001600160a01b03166001600160a01b03166318160ddd6040518163ffffffff1660e01b815260040160206040518083038186803b1580156118e157600080fd5b505afa1580156118f5573d6000803e3d6000fd5b505050506040513d602081101561190b57600080fd5b50516108f786610b84611a10565b600f546010549192506001600160a01b039081169116600081156119bf57816001600160a01b03166359846d2987856040518363ffffffff1660e01b815260040180838152602001826001600160a01b0316815260200192505050602060405180830381600087803b15801561198e57600080fd5b505af11580156119a2573d6000803e3d6000fd5b505050506040513d60208110156119b857600080fd5b50516119c1565b855b6009549091506000906119df9085906001600160a01b031684611b9f565b9050611a046119ee8987613fca565b6108f78368327cb2734119d3b7a9601e1b613ceb565b98975050505050505050565b6002546040805163171e108560e01b815290516000926001600160a01b03169183918291849163171e108591600480820192602092909190829003018186803b158015611a5c57600080fd5b505afa158015611a70573d6000803e3d6000fd5b505050506040513d6020811015611a8657600080fd5b50516040805160016216f02b60e01b0319815230600482015281516001600160a01b039093169263ffe90fd592602480840193919291829003018186803b158015611ad057600080fd5b505afa158015611ae4573d6000803e3d6000fd5b505050506040513d6040811015611afa57600080fd5b50805160209091015190925090506000611b204268327cb2734119d3b7a9601e1b613ceb565b600754909150600090611b4a90611b439068327cb2734119d3b7a9601e1b613ceb565b8390613f6d565b9050838111611b6157600095505050505050610901565b6000611b94789f4f2726179a224501d762422c946590d910000000000000006108f7611b8d8589613f6d565b8790613ceb565b965050505050505090565b6000806000600260009054906101000a90046001600160a01b03166001600160a01b0316632630c12f6040518163ffffffff1660e01b815260040160206040518083038186803b158015611bf257600080fd5b505afa158015611c06573d6000803e3d6000fd5b505050506040513d6020811015611c1c57600080fd5b5051604080516310603c1160e01b81526001600160a01b038981166004830152888116602483015282519316926310603c1192604480840193919291829003018186803b158015611c6c57600080fd5b505afa158015611c80573d6000803e3d6000fd5b505050506040513d6040811015611c9657600080fd5b5080516020909101519092509050611cb6600a82900a6108f78685613ceb565b9695505050505050565b600554600654600754600854600954600a54600b54600c54600d54600e54600f546010546011546001600160a01b039c8d169c988916989283169291821691168d565b600080839050600080826001600160a01b0316632630c12f6040518163ffffffff1660e01b815260040160206040518083038186803b158015611d4557600080fd5b505afa158015611d59573d6000803e3d6000fd5b505050506040513d6020811015611d6f57600080fd5b5051600f54600954604080516310603c1160e01b81526001600160a01b0393841660048201529183166024830152805192909316926310603c1192604480840193829003018186803b158015611dc457600080fd5b505afa158015611dd8573d6000803e3d6000fd5b505050506040513d6040811015611dee57600080fd5b5080516020909101519092509050611e2b68327cb2734119d3b7a9601e1b6108f7611e198289613f6d565b610b84600a86900a6108f78d89613ceb565b979650505050505050565b600080600260009054906101000a90046001600160a01b03166001600160a01b0316639b9842c16040518163ffffffff1660e01b815260040160206040518083038186803b158015611e8757600080fd5b505afa158015611e9b573d6000803e3d6000fd5b505050506040513d6020811015611eb157600080fd5b50516001600160a01b038416600090815260046020526040902060010154909150611ee7611ee0836002613ceb565b8290613fca565b4211156112ab575060009392505050565b600354604080516370a0823160e01b81523360048201819052915191926001600160a01b0316916370a0823191602480820192602092909190829003018186803b158015611f4557600080fd5b505afa158015611f59573d6000803e3d6000fd5b505050506040513d6020811015611f6f57600080fd5b5051611fa6576040805162461bcd60e51b81526020600482015260016024820152601960f91b604482015290519081900360640190fd5b60026001541415611fec576040805162461bcd60e51b815260206004820152601f6024820152600080516020615310833981519152604482015290519081900360640190fd5b6002600155611ffa33613eff565b5060018055565b60026001541415612047576040805162461bcd60e51b815260206004820152601f6024820152600080516020615310833981519152604482015290519081900360640190fd5b60026001819055601454905460ff909116906001600160a01b0316600482600581111561207057fe5b141580156121535750806001600160a01b031663171e10856040518163ffffffff1660e01b815260040160206040518083038186803b1580156120b257600080fd5b505afa1580156120c6573d6000803e3d6000fd5b505050506040513d60208110156120dc57600080fd5b505160408051633bada68960e21b815230600482015290516001600160a01b039092169163eeb69a2491602480820192602092909190829003018186803b15801561212657600080fd5b505afa15801561213a573d6000803e3d6000fd5b505050506040513d602081101561215057600080fd5b50515b1561216b576014805460ff1916600490811790915591505b600482600581111561217957fe5b146121b55760405162461bcd60e51b81526004018080602001828103825260358152602001806152db6035913960400191505060405180910390fd5b600f546009546013546012546001600160a01b0393841693909216916000916121de9190613fca565b6010549091506001600160a01b031681811561227a57816001600160a01b03166359846d2984876040518363ffffffff1660e01b815260040180838152602001826001600160a01b0316815260200192505050602060405180830381600087803b15801561224b57600080fd5b505af115801561225f573d6000803e3d6000fd5b505050506040513d602081101561227557600080fd5b505190505b60006122eb8288896001600160a01b031663acca944f6040518163ffffffff1660e01b815260040160206040518083038186803b1580156122ba57600080fd5b505afa1580156122ce573d6000803e3d6000fd5b505050506040513d60208110156122e457600080fd5b5051611d03565b60006013819055601281905590915061230a908c908784823330614287565b506123188a8a888686614392565b506040805133815290517fc54b2aa56ebf583bfce79c646ac5d4618f0e44bc6874bd07194673a5bd2626a09181900360200190a1505060018055505050505050505050565b60125460135460145460155460ff9091169084565b6005546001600160a01b031690565b600354604080516370a0823160e01b81523360048201819052915191926001600160a01b0316916370a0823191602480820192602092909190829003018186803b1580156123ce57600080fd5b505afa1580156123e2573d6000803e3d6000fd5b505050506040513d60208110156123f857600080fd5b505161242f576040805162461bcd60e51b81526020600482015260016024820152601960f91b604482015290519081900360640190fd5b60026001541415612475576040805162461bcd60e51b815260206004820152601f6024820152600080516020615310833981519152604482015290519081900360640190fd5b6002600181905560145460ff169081600581111561248f57fe5b14806124a6575060038160058111156124a457fe5b145b806124bc575060048160058111156124ba57fe5b145b806124d2575060058160058111156124d057fe5b145b612508576040805162461bcd60e51b81526020600482015260026024820152610c8d60f21b604482015290519081900360640190fd5b600354604080516370a0823160e01b815233600482015290516000926001600160a01b0316916370a08231916024808301926020929190829003018186803b15801561255357600080fd5b505afa158015612567573d6000803e3d6000fd5b505050506040513d602081101561257d57600080fd5b5051905080600483600581111561259057fe5b14806125a7575060058360058111156125a557fe5b145b156126c1576009546000906001600160a01b03161561263e57600954604080516370a0823160e01b815230600482015290516001600160a01b03909216916370a0823191602480820192602092909190829003018186803b15801561260b57600080fd5b505afa15801561261f573d6000803e3d6000fd5b505050506040513d602081101561263557600080fd5b50519050612641565b50475b600354604080516318160ddd60e01b815290516126bd926001600160a01b0316916318160ddd916004808301926020929190829003018186803b15801561268757600080fd5b505afa15801561269b573d6000803e3d6000fd5b505050506040513d60208110156126b157600080fd5b50516108f78484613ceb565b9150505b60038360058111156126cf57fe5b141561276657612763611ee0600360009054906101000a90046001600160a01b03166001600160a01b03166318160ddd6040518163ffffffff1660e01b815260040160206040518083038186803b15801561272957600080fd5b505afa15801561273d573d6000803e3d6000fd5b505050506040513d602081101561275357600080fd5b50516015546108f7908590613ceb565b90505b600283600581111561277457fe5b14156127835761278333613eff565b60035460408051632770a7eb60e21b81523360048201526024810185905290516001600160a01b0390921691639dc29fac9160448082019260009290919082900301818387803b1580156127d657600080fd5b505af11580156127ea573d6000803e3d6000fd5b505060095461280792506001600160a01b03169050823033614421565b506040805182815233602082015281517f971f63643b6d0341cf9c1971238adc8625537ce1c41ba0a9dfcbd784832bd5f9929181900390910190a15050600180555050565b6002546001600160a01b0316331461288f576040805162461bcd60e51b81526020600482015260016024820152601b60f91b604482015290519081900360640190fd5b601180546001600160a01b039283166001600160a01b03199182161790915560038054939092169216919091179055565b60055433906001600160a01b03168114612905576040805162461bcd60e51b81526020600482015260016024820152603160f81b604482015290519081900360640190fd5b6002600154141561294b576040805162461bcd60e51b815260206004820152601f6024820152600080516020615310833981519152604482015290519081900360640190fd5b6002600155601454600354604080516318160ddd60e01b8152905160ff909316926000926001600160a01b0316916318160ddd916004808301926020929190829003018186803b15801561299e57600080fd5b505afa1580156129b2573d6000803e3d6000fd5b505050506040513d60208110156129c857600080fd5b5051905060008260058111156129da57fe5b1480156129e8575060075442115b80156129f5575060085442105b612a2b576040805162461bcd60e51b8152602060048201526002602482015261189960f11b604482015290519081900360640190fd5b6002546006546040805163c2bb7c8d60e01b815290516001600160a01b0390931692612a8a9268327cb2734119d3b7a9601e1b926108f792869163c2bb7c8d916004808301926020929190829003018186803b1580156109bb57600080fd5b821015612ac3576040805162461bcd60e51b8152602060048201526002602482015261313360f01b604482015290519081900360640190fd5b6014805460ff191660011790556000612ada613b54565b600b54600a54919250612aed9190613f6d565b811015612b26576040805162461bcd60e51b81526020600482015260026024820152610c4d60f21b604482015290519081900360640190fd5b600d54600e546040805163171e108560e01b815290516001600160a01b0386169163171e1085916004808301926020929190829003018186803b158015612b6c57600080fd5b505afa158015612b80573d6000803e3d6000fd5b505050506040513d6020811015612b9657600080fd5b5051600c5460075460095460408051632447e4a760e11b81526004810188905260248101879052604481019490945260648401929092526001600160a01b039081166084840152905192169163488fc94e9160a48082019260009290919082900301818387803b158015612c0957600080fd5b505af1158015612c1d573d6000803e3d6000fd5b50505050836001600160a01b0316632d5537b06040518163ffffffff1660e01b815260040160206040518083038186803b158015612c5a57600080fd5b505afa158015612c6e573d6000803e3d6000fd5b505050506040513d6020811015612c8457600080fd5b505160408051635ad3867560e11b81526004810184905290516001600160a01b039092169163b5a70cea9160248082019260009290919082900301818387803b158015612cd057600080fd5b505af1158015612ce4573d6000803e3d6000fd5b505060095460408051637bad520760e01b815281516001600160a01b0393841695506000945084938a1692637bad52079260048181019391829003018186803b158015612d3057600080fd5b505afa158015612d44573d6000803e3d6000fd5b505050506040513d6040811015612d5a57600080fd5b50805160209091015190925090506000612d8468327cb2734119d3b7a9601e1b6108f78b86613ceb565b60006008559050612d9784823085614421565b50612dad84612da68b84613f6d565b3033614421565b50604080518a815290517fd34aff353e8e4ad78ec390d5c4bd580941a8299db97e6c9b7a536ce2030d09899181900360200190a1505060018055505050505050505050565b60145460009060ff166005811115612e0657fe5b905090565b600354604080516370a0823160e01b81526001600160a01b03848116600483015291516000938493169182916370a0823191602480820192602092909190829003018186803b158015612e5d57600080fd5b505afa158015612e71573d6000803e3d6000fd5b505050506040513d6020811015612e8757600080fd5b5051604080516318160ddd60e01b815290516001600160a01b038416916318160ddd916004808301926020929190829003018186803b158015612ec957600080fd5b505afa158015612edd573d6000803e3d6000fd5b505050506040513d6020811015612ef357600080fd5b5051909350915050915091565b600354604080516370a0823160e01b81523360048201819052915191926001600160a01b0316916370a0823191602480820192602092909190829003018186803b158015612f4d57600080fd5b505afa158015612f61573d6000803e3d6000fd5b505050506040513d6020811015612f7757600080fd5b5051612fae576040805162461bcd60e51b81526020600482015260016024820152601960f91b604482015290519081900360640190fd5b600160145460ff166005811115612fc157fe5b14612ff7576040805162461bcd60e51b81526020600482015260016024820152600d60fa1b604482015290519081900360640190fd5b6002546001600160a01b031661300c33611e36565b15613047576040805162461bcd60e51b81526020600480830191909152602482015263524d433160e01b604482015290519081900360640190fd5b600a54600b5461305a9061125c33613a2f565b8111613092576040805162461bcd60e51b8152602060048201526002602482015261191b60f11b604482015290519081900360640190fd5b613101826001600160a01b0316639b9842c16040518163ffffffff1660e01b815260040160206040518083038186803b1580156130ce57600080fd5b505afa1580156130e2573d6000803e3d6000fd5b505050506040513d60208110156130f857600080fd5b50514290613fca565b33600081815260046020908152604091829020600101939093558051918252517f5334a046b9fb8040bcaa4dd9a9ecbbe06e299568931f336e4aa6bbf51d511b80929181900390910190a1505050565b60026001541415613197576040805162461bcd60e51b815260206004820152601f6024820152600080516020615310833981519152604482015290519081900360640190fd5b60026001556131a58461465f565b6010546001600160a01b03166000806131bd87614863565b9092509050816001600160a01b0384161561325757600f54604080516359846d2960e01b8152600481018690526001600160a01b0392831660248201529051918616916359846d29916044808201926020929091908290030181600087803b15801561322857600080fd5b505af115801561323c573d6000803e3d6000fd5b505050506040513d602081101561325257600080fd5b505190505b6132628789836149b5565b600f5460009061328090889088906001600160a01b03168886614392565b60035460408051632770a7eb60e21b81526001600160a01b038d81166004830152602482018890529151939450911691639dc29fac9160448082019260009290919082900301818387803b1580156132d757600080fd5b505af11580156132eb573d6000803e3d6000fd5b5050506001600160a01b038a1660008181526004602090815260408083208381556001810184905560020192909255815133815290810192909252818101849052517f9b4fed4f3cd02b7624ed7521dce91b2f3aee138fc5c04d59f2f087e6b261a40d92509081900360600190a150506001805550505050505050565b600260015414156133ae576040805162461bcd60e51b815260206004820152601f6024820152600080516020615310833981519152604482015290519081900360640190fd5b6002600190815560145460ff1660058111156133c657fe5b146133fc576040805162461bcd60e51b81526020600482015260016024820152603960f81b604482015290519081900360640190fd5b4261340684611e36565b101561343e576040805162461bcd60e51b8152602060048201526002602482015261031360f41b604482015290519081900360640190fd5b81613475576040805162461bcd60e51b8152602060048201526002602482015261313160f01b604482015290519081900360640190fd5b600f5460105460009161349d9184916001916001600160a01b03918216918891163330614287565b6013549091506134ad9082613fca565b6013556001600160a01b0384166000908152600460205260409020600201546134d69082613fca565b6001600160a01b038516600090815260046020526040902060020155600a546134fe85613a2f565b10613520576001600160a01b0384166000908152600460205260408120600101555b604080513381526001600160a01b03861660208201528082018590526060810183905290517f7745b8ee282b3bb1a0958b211eb3a34506deb988e5488e560a63b83ce03ba9d99181900360800190a15050600180555050565b600080600260009054906101000a90046001600160a01b03166001600160a01b031663171e10856040518163ffffffff1660e01b815260040160206040518083038186803b1580156135ca57600080fd5b505afa1580156135de573d6000803e3d6000fd5b505050506040513d60208110156135f457600080fd5b505160408051630a3371f560e11b815230600482015290516001600160a01b0390921691631466e3ea91602480820192602092909190829003018186803b15801561363e57600080fd5b505afa158015613652573d6000803e3d6000fd5b505050506040513d602081101561366857600080fd5b50516001600160a01b0380851660009081526004602081815260408084205460035482516318160ddd60e01b81529251979850949661374e969195613748959216936318160ddd938084019391929190829003018186803b1580156136cc57600080fd5b505afa1580156136e0573d6000803e3d6000fd5b505050506040513d60208110156136f657600080fd5b5051600354604080516370a0823160e01b81526001600160a01b038b8116600483015291516108f7938a9316916370a08231916024808301926020929190829003018186803b1580156109bb57600080fd5b90613f6d565b949350505050565b6002600154141561379c576040805162461bcd60e51b815260206004820152601f6024820152600080516020615310833981519152604482015290519081900360640190fd5b6002600155600360145460ff1660058111156137b457fe5b146137e0576040805162461bcd60e51b8152602060048201526000602482015290519081900360640190fd5b6015541561380f576040805162461bcd60e51b8152602060048201526000602482015290519081900360640190fd5b600254601054600f546012546001600160a01b0393841693928316929091169082156138bb57826001600160a01b03166359846d2982846040518363ffffffff1660e01b815260040180838152602001826001600160a01b0316815260200192505050602060405180830381600087803b15801561388c57600080fd5b505af11580156138a0573d6000803e3d6000fd5b505050506040513d60208110156138b657600080fd5b505190505b60006138fb8286876001600160a01b031663acca944f6040518163ffffffff1660e01b815260040160206040518083038186803b1580156122ba57600080fd5b601581905560095490915061391b906001600160a01b0316823330614421565b50600f5460105461393d91899189916001600160a01b03908116911686614392565b505060018055505050505050565b6003546001600160a01b031681565b81613990576040805162461bcd60e51b81526020600482015260016024820152603760f81b604482015290519081900360640190fd5b61399b338383614a3f565b5050565b600354604080516318160ddd60e01b815290516000926001600160a01b0316916318160ddd916004808301926020929190829003018186803b1580156139e457600080fd5b505afa1580156139f8573d6000803e3d6000fd5b505050506040513d6020811015613a0e57600080fd5b5051905090565b6000613a29600560090154610b8484611288565b92915050565b600354604080516370a0823160e01b81526001600160a01b0384811660048301529151600093849316916370a08231916024808301926020929190829003018186803b158015613a7e57600080fd5b505afa158015613a92573d6000803e3d6000fd5b505050506040513d6020811015613aa857600080fd5b50516001600160a01b0380851660009081526004602081815260408084206002015460035482516318160ddd60e01b815292519798509496613b4896919561125c959216936318160ddd938084019391929190829003018186803b158015613b0f57600080fd5b505afa158015613b23573d6000803e3d6000fd5b505050506040513d6020811015613b3957600080fd5b50516012546108f79087613ceb565b905061374e828261188d565b6013546012546000918291613b6891613fca565b90506108fd600360009054906101000a90046001600160a01b03166001600160a01b03166318160ddd6040518163ffffffff1660e01b815260040160206040518083038186803b158015613bbb57600080fd5b505afa158015613bcf573d6000803e3d6000fd5b505050506040513d6020811015613be557600080fd5b50518261188d565b60008184841115613c7c5760405162461bcd60e51b81526004018080602001828103825283818151815260200191508051906020019080838360005b83811015613c41578181015183820152602001613c29565b50505050905090810190601f168015613c6e5780820380516001836020036101000a031916815260200191505b509250505060405180910390fd5b505050900390565b6000808211613cda576040805162461bcd60e51b815260206004820152601a60248201527f536166654d6174683a206469766973696f6e206279207a65726f000000000000604482015290519081900360640190fd5b818381613ce357fe5b049392505050565b600082613cfa57506000613a29565b82820282848281613d0757fe5b04146112ab5760405162461bcd60e51b815260040180806020018281038252602181526020018061538c6021913960400191505060405180910390fd5b6014805460ff19166003179055600254604080516302d5537b60e41b815290516001600160a01b0390921691632d5537b091600480820192602092909190829003018186803b158015613d9657600080fd5b505afa158015613daa573d6000803e3d6000fd5b505050506040513d6020811015613dc057600080fd5b5051604080516311f2df1b60e21b815290516001600160a01b03909216916347cb7c6c9160048082019260009290919082900301818387803b158015613e0557600080fd5b505af1158015613e19573d6000803e3d6000fd5b5050600554613e3492506001600160a01b0316905082614024565b600360009054906101000a90046001600160a01b03166001600160a01b0316638456cb596040518163ffffffff1660e01b8152600401600060405180830381600087803b158015613e8457600080fd5b505af1158015613e98573d6000803e3d6000fd5b50506040517f8cbd53891ca54fbd5e0e3309a32f9a006458224831c41274a5fd8d8a0d937e71925060009150a150565b600e54600090428410156112ab574283811115613ee25750825b613ef6613eef8287613f6d565b8390613fca565b95945050505050565b6000613f0a82613579565b905080613f175750613f6a565b6001600160a01b038216600090815260046020526040902054613f3a9082613fca565b6001600160a01b03808416600090815260046020526040902091909155600954613f679116823085614421565b50505b50565b600082821115613fc4576040805162461bcd60e51b815260206004820152601e60248201527f536166654d6174683a207375627472616374696f6e206f766572666c6f770000604482015290519081900360640190fd5b50900390565b6000828201838110156112ab576040805162461bcd60e51b815260206004820152601b60248201527f536166654d6174683a206164646974696f6e206f766572666c6f770000000000604482015290519081900360640190fd5b601054600f546013546012546001600160a01b039384169390921691600091859161404e91613fca565b111561406c5760135460125461406991869161374891613fca565b90505b806001600160a01b0384161561410257836001600160a01b03166359846d2983856040518363ffffffff1660e01b815260040180838152602001826001600160a01b0316815260200192505050602060405180830381600087803b1580156140d357600080fd5b505af11580156140e7573d6000803e3d6000fd5b505050506040513d60208110156140fd57600080fd5b505190505b6012859055600060138190558215614199576002546040805163ecced62360e01b815290516000926001600160a01b03169163ecced623916004808301926020929190829003018186803b15801561415957600080fd5b505afa15801561416d573d6000803e3d6000fd5b505050506040513d602081101561418357600080fd5b5051905061419581308a86898b614b17565b9150505b604080516001600160a01b03891681526020810183905281517fc30fcfbcaac9e0deffa719714eaa82396ff506a0d0d0eebe170830177288715d929181900390910190a150505050505050565b60006141f130614c62565b15905090565b600954600f5460065460009261421b926001600160a01b0391821692911690611b9f565b600a5490915061423d9068327cb2734119d3b7a9601e1b906108f79084613ceb565b831015614276576040805162461bcd60e51b8152602060048201526002602482015261199b60f11b604482015290519081900360640190fd5b614281848484614a3f565b50505050565b60008715614315576002546040805163ecced62360e01b8152905161430e926001600160a01b03169163ecced623916004808301926020929190829003018186803b1580156142d557600080fd5b505afa1580156142e9573d6000803e3d6000fd5b505050506040513d60208110156142ff57600080fd5b50518484888a8960018e614c68565b9050611e2b565b6002546040805163ecced62360e01b81529051611a04926001600160a01b03169163ecced623916004808301926020929190829003018186803b15801561435b57600080fd5b505afa15801561436f573d6000803e3d6000fd5b505050506040513d602081101561438557600080fd5b50518484888a8c8a614c94565b600080600260009054906101000a90046001600160a01b03166001600160a01b031663ecced6236040518163ffffffff1660e01b815260040160206040518083038186803b1580156143e357600080fd5b505afa1580156143f7573d6000803e3d6000fd5b505050506040513d602081101561440d57600080fd5b50519050611e2b8130338689898c8e614c68565b6000836144305750600061374e565b6001600160a01b038516614617578334101561447d5760405162461bcd60e51b815260040180806020018281038252602e815260200180615330602e913960400191505060405180910390fd5b6001600160a01b0382163014614527576040516000906001600160a01b0384169086908381818185875af1925050503d80600081146144d8576040519150601f19603f3d011682016040523d82523d6000602084013e6144dd565b606091505b5050905080614525576040805162461bcd60e51b815260206004820152600f60248201526e151c985b9cd9995c8819985a5b1959608a1b604482015290519081900360640190fd5b505b833411156145c757604051600090339034879003908381818185875af1925050503d8060008114614574576040519150601f19603f3d011682016040523d82523d6000602084013e614579565b606091505b50509050806145c1576040805162461bcd60e51b815260206004820152600f60248201526e151c985b9cd9995c8819985a5b1959608a1b604482015290519081900360640190fd5b50614610565b833414614610576040805162461bcd60e51b815260206004820152601260248201527124b739bab33334b1b4b2b73a1022ba3432b960711b604482015290519081900360640190fd5b508261374e565b6001600160a01b0383163014156146415761463c6001600160a01b0386168386614cb6565b614656565b6146566001600160a01b038616848487614d08565b50919392505050565b600160145460ff16600581111561467257fe5b148015614680575060085442115b6146b6576040805162461bcd60e51b8152602060048201526002602482015261323760f01b604482015290519081900360640190fd5b6001600160a01b0381166000908152600460205260409020600101546146db82611e36565b61472c576040805162461bcd60e51b815260206004820152601f60248201527f4e6f206d617267696e2063616c6c20686173206265656e2063616c6c65642e00604482015290519081900360640190fd5b428110614765576040805162461bcd60e51b8152602060048201526002602482015261064760f31b604482015290519081900360640190fd5b61476e82613a2f565b600b54600a5461477d91613f6d565b116147b4576040805162461bcd60e51b8152602060048201526002602482015261323960f01b604482015290519081900360640190fd5b600354604080516370a0823160e01b81526001600160a01b038581166004830152915191909216916370a08231916024808301926020929190829003018186803b15801561480157600080fd5b505afa158015614815573d6000803e3d6000fd5b505050506040513d602081101561482b57600080fd5b505161399b576040805162461bcd60e51b8152602060048201526002602482015261033360f41b604482015290519081900360640190fd5b601254600354604080516370a0823160e01b81526001600160a01b03858116600483015291516000948594909316916370a08231916024808301926020929190829003018186803b1580156148b757600080fd5b505afa1580156148cb573d6000803e3d6000fd5b505050506040513d60208110156148e157600080fd5b5051600354604080516318160ddd60e01b81529051929450600092614965926001600160a01b0316916318160ddd916004808301926020929190829003018186803b15801561492f57600080fd5b505afa158015614943573d6000803e3d6000fd5b505050506040513d602081101561495957600080fd5b50516108f78486613ceb565b6001600160a01b03861660009081526004602052604090206002015490915061498e8383613f6d565b60125560135461499e9082613f6d565b6013556149ab8282613fca565b9450505050915091565b6010546002546040805163acca944f60e01b815290516001600160a01b039384169390921691600091614a0d9186918591829163acca944f916004808301926020929190829003018186803b1580156122ba57600080fd5b6009549091506001600160a01b0316614a2c876000838588338c614287565b50614a3686613eff565b50505050505050565b60026001541415614a85576040805162461bcd60e51b815260206004820152601f6024820152600080516020615310833981519152604482015290519081900360640190fd5b60026001908155600f54601054600092614ab19285926001600160a01b03918216918891168930614287565b601254909150614ac19082613fca565b601255604080516001600160a01b03861681526020810185905280820183905290517f11f8990ac38271f23dea447d5728e9914fca7cea2edda43af6c43c415f8bc30b9181900360600190a15050600180555050565b60006001600160a01b038616301415614bbf576040805163448b903960e11b8152600481018690526001600160a01b038581166024830152848116604483015287811660648301529151918916916389172072916084808201926020929091908290030181600087803b158015614b8d57600080fd5b505af1158015614ba1573d6000803e3d6000fd5b505050506040513d6020811015614bb757600080fd5b50614c579050565b604080516319dad0dd60e11b8152600481018690526001600160a01b0385811660248301528481166044830152888116606483015287811660848301529151918916916333b5a1ba9160a4808201926020929091908290030181600087803b158015614c2a57600080fd5b505af1158015614c3e573d6000803e3d6000fd5b505050506040513d6020811015614c5457600080fd5b50505b509195945050505050565b3b151590565b60008115614c8557614c7e898989898989614b17565b9050611a04565b614c7e89898989898989614d62565b60008215614caa5761430e888888888887614ebe565b61430e84868989614421565b604080516001600160a01b038416602482015260448082018490528251808303909101815260649091019091526020810180516001600160e01b031663a9059cbb60e01b179052613f67908490614f9a565b604080516001600160a01b0380861660248301528416604482015260648082018490528251808303909101815260849091019091526020810180516001600160e01b03166323b872dd60e01b179052614281908590614f9a565b60006001600160a01b038716301415614e1357604080516345cd75e960e01b8152600481018790526001600160a01b0386811660248301528581166044830152888116606483015284151560848301529151918a16916345cd75e99160a4808201926020929091908290030181600087803b158015614de057600080fd5b505af1158015614df4573d6000803e3d6000fd5b505050506040513d6020811015614e0a57600080fd5b50519050611e2b565b6040805163ea975cb360e01b8152600481018790526001600160a01b03868116602483015285811660448301528981166064830152888116608483015284151560a48301529151918a169163ea975cb39160c4808201926020929091908290030181600087803b158015614e8657600080fd5b505af1158015614e9a573d6000803e3d6000fd5b505050506040513d6020811015614eb057600080fd5b505198975050505050505050565b6000614ecc83858830614421565b5060006001600160a01b038416614ee4575083614f0c565b826001600160a01b038116614ef65750875b614f0a6001600160a01b038616828861504b565b505b604080516330940a0f60e21b8152600481018790526001600160a01b038681166024830152858116604483015288811660648301529151918a169163c250283c918491608480830192602092919082900301818588803b158015614f6f57600080fd5b505af1158015614f83573d6000803e3d6000fd5b50505050506040513d6020811015614eb057600080fd5b6060614fef826040518060400160405280602081526020017f5361666545524332303a206c6f772d6c6576656c2063616c6c206661696c6564815250856001600160a01b031661515e9092919063ffffffff16565b805190915015613f675780806020019051602081101561500e57600080fd5b5051613f675760405162461bcd60e51b815260040180806020018281038252602a8152602001806153ad602a913960400191505060405180910390fd5b8015806150d1575060408051636eb1769f60e11b81523060048201526001600160a01b03848116602483015291519185169163dd62ed3e91604480820192602092909190829003018186803b1580156150a357600080fd5b505afa1580156150b7573d6000803e3d6000fd5b505050506040513d60208110156150cd57600080fd5b5051155b61510c5760405162461bcd60e51b81526004018080602001828103825260368152602001806153d76036913960400191505060405180910390fd5b604080516001600160a01b038416602482015260448082018490528251808303909101815260649091019091526020810180516001600160e01b031663095ea7b360e01b179052613f67908490614f9a565b606061374e84846000858561517285614c62565b6151c3576040805162461bcd60e51b815260206004820152601d60248201527f416464726573733a2063616c6c20746f206e6f6e2d636f6e7472616374000000604482015290519081900360640190fd5b60006060866001600160a01b031685876040518082805190602001908083835b602083106152025780518252601f1990920191602091820191016151e3565b6001836020036101000a03801982511681845116808217855250505050505090500191505060006040518083038185875af1925050503d8060008114615264576040519150601f19603f3d011682016040523d82523d6000602084013e615269565b606091505b5091509150611e2b828286606083156152835750816112ab565b8251156152935782518084602001fd5b60405162461bcd60e51b8152602060048201818152845160248401528451859391928392604401919085019080838360008315613c41578181015183820152602001613c2956fe506f6f6c3a3a6c6971756964617465506f6f6c202d204e6f20726561736f6e20746f206c69717569646174652074686520706f6f6c5265656e7472616e637947756172643a207265656e7472616e742063616c6c006574686572732070726f76696465642073686f756c642062652067726561746572207468616e205f616d6f756e74496e697469616c697a61626c653a20636f6e747261637420697320616c726561647920696e697469616c697a6564536166654d6174683a206d756c7469706c69636174696f6e206f766572666c6f775361666545524332303a204552433230206f7065726174696f6e20646964206e6f7420737563636565645361666545524332303a20617070726f76652066726f6d206e6f6e2d7a65726f20746f206e6f6e2d7a65726f20616c6c6f77616e6365a2646970667358221220df85c693e6915d3c362324f8dbee7d8981e6ef14e214a67fab0c2c590c21ebf464736f6c63430007000033",
  "linkReferences": {},
  "deployedLinkReferences": {}
}