{
  "_format": "hh-sol-artifact-1",
  "contractName": "PoolFactory",
  "sourceName": "contracts/Pool/PoolFactory.sol",
  "abi": [
    {
      "anonymous": false,
      "inputs": [
        {
          "indexed": false,
          "internalType": "address",
          "name": "borrowToken",
          "type": "address"
        },
        {
          "indexed": false,
          "internalType": "bool",
          "name": "isSupported",
          "type": "bool"
        }
      ],
      "name": "BorrowTokenUpdated",
      "type": "event"
    },
    {
      "anonymous": false,
      "inputs": [
        {
          "indexed": false,
          "internalType": "address",
          "name": "collateralToken",
          "type": "address"
        },
        {
          "indexed": false,
          "internalType": "bool",
          "name": "isSupported",
          "type": "bool"
        }
      ],
      "name": "CollateralTokenUpdated",
      "type": "event"
    },
    {
      "anonymous": false,
      "inputs": [
        {
          "indexed": false,
          "internalType": "uint256",
          "name": "updatedCollectionPeriod",
          "type": "uint256"
        }
      ],
      "name": "CollectionPeriodUpdated",
      "type": "event"
    },
    {
      "anonymous": false,
      "inputs": [
        {
          "indexed": false,
          "internalType": "address",
          "name": "updatedExtension",
          "type": "address"
        }
      ],
      "name": "ExtensionImplUpdated",
      "type": "event"
    },
    {
      "anonymous": false,
      "inputs": [
        {
          "indexed": false,
          "internalType": "uint256",
          "name": "updatedGracePeriodPenaltyFraction",
          "type": "uint256"
        }
      ],
      "name": "GracePeriodPenaltyFractionUpdated",
      "type": "event"
    },
    {
      "anonymous": false,
      "inputs": [
        {
          "indexed": false,
          "internalType": "string",
          "name": "limitType",
          "type": "string"
        },
        {
          "indexed": false,
          "internalType": "uint256",
          "name": "max",
          "type": "uint256"
        },
        {
          "indexed": false,
          "internalType": "uint256",
          "name": "min",
          "type": "uint256"
        }
      ],
      "name": "LimitsUpdated",
      "type": "event"
    },
    {
      "anonymous": false,
      "inputs": [
        {
          "indexed": false,
          "internalType": "uint256",
          "name": "updatedLiquidatorRewardFraction",
          "type": "uint256"
        }
      ],
      "name": "LiquidatorRewardFractionUpdated",
      "type": "event"
    },
    {
      "anonymous": false,
      "inputs": [
        {
          "indexed": false,
          "internalType": "uint256",
          "name": "updatedMarginCallDuration",
          "type": "uint256"
        }
      ],
      "name": "MarginCallDurationUpdated",
      "type": "event"
    },
    {
      "anonymous": false,
      "inputs": [
        {
          "indexed": false,
          "internalType": "uint256",
          "name": "updatedMatchCollateralRatioInterval",
          "type": "uint256"
        }
      ],
      "name": "MatchCollateralRatioIntervalUpdated",
      "type": "event"
    },
    {
      "anonymous": false,
      "inputs": [
        {
          "indexed": true,
          "internalType": "address",
          "name": "previousOwner",
          "type": "address"
        },
        {
          "indexed": true,
          "internalType": "address",
          "name": "newOwner",
          "type": "address"
        }
      ],
      "name": "OwnershipTransferred",
      "type": "event"
    },
    {
      "anonymous": false,
      "inputs": [
        {
          "indexed": false,
          "internalType": "uint256",
          "name": "updatedPoolCancelPenalityFraction",
          "type": "uint256"
        }
      ],
      "name": "PoolCancelPenalityFractionUpdated",
      "type": "event"
    },
    {
      "anonymous": false,
      "inputs": [
        {
          "indexed": false,
          "internalType": "address",
          "name": "pool",
          "type": "address"
        },
        {
          "indexed": false,
          "internalType": "address",
          "name": "borrower",
          "type": "address"
        },
        {
          "indexed": false,
          "internalType": "address",
          "name": "poolToken",
          "type": "address"
        }
      ],
      "name": "PoolCreated",
      "type": "event"
    },
    {
      "anonymous": false,
      "inputs": [
        {
          "indexed": false,
          "internalType": "bytes4",
          "name": "updatedSelector",
          "type": "bytes4"
        }
      ],
      "name": "PoolInitSelectorUpdated",
      "type": "event"
    },
    {
      "anonymous": false,
      "inputs": [
        {
          "indexed": false,
          "internalType": "address",
          "name": "updatedPoolLogic",
          "type": "address"
        }
      ],
      "name": "PoolLogicUpdated",
      "type": "event"
    },
    {
      "anonymous": false,
      "inputs": [
        {
          "indexed": false,
          "internalType": "address",
          "name": "updatedPoolTokenImpl",
          "type": "address"
        }
      ],
      "name": "PoolTokenImplUpdated",
      "type": "event"
    },
    {
      "anonymous": false,
      "inputs": [
        {
          "indexed": false,
          "internalType": "bytes4",
          "name": "updatedSelector",
          "type": "bytes4"
        }
      ],
      "name": "PoolTokenInitFuncSelector",
      "type": "event"
    },
    {
      "anonymous": false,
      "inputs": [
        {
          "indexed": false,
          "internalType": "address",
          "name": "updatedPriceOracle",
          "type": "address"
        }
      ],
      "name": "PriceOracleUpdated",
      "type": "event"
    },
    {
      "anonymous": false,
      "inputs": [
        {
          "indexed": false,
          "internalType": "address",
          "name": "updatedProtocolFeeCollector",
          "type": "address"
        }
      ],
      "name": "ProtocolFeeCollectorUpdated",
      "type": "event"
    },
    {
      "anonymous": false,
      "inputs": [
        {
          "indexed": false,
          "internalType": "uint256",
          "name": "updatedProtocolFee",
          "type": "uint256"
        }
      ],
      "name": "ProtocolFeeFractionUpdated",
      "type": "event"
    },
    {
      "anonymous": false,
      "inputs": [
        {
          "indexed": false,
          "internalType": "address",
          "name": "updatedRepaymentImpl",
          "type": "address"
        }
      ],
      "name": "RepaymentImplUpdated",
      "type": "event"
    },
    {
      "anonymous": false,
      "inputs": [
        {
          "indexed": false,
          "internalType": "address",
          "name": "savingsAccount",
          "type": "address"
        }
      ],
      "name": "SavingsAccountUpdated",
      "type": "event"
    },
    {
      "anonymous": false,
      "inputs": [
        {
          "indexed": false,
          "internalType": "address",
          "name": "updatedStrategyRegistry",
          "type": "address"
        }
      ],
      "name": "StrategyRegistryUpdated",
      "type": "event"
    },
    {
      "anonymous": false,
      "inputs": [
        {
          "indexed": false,
          "internalType": "address",
          "name": "updatedBorrowerRegistry",
          "type": "address"
        }
      ],
      "name": "UserRegistryUpdated",
      "type": "event"
    },
    {
      "anonymous": false,
      "inputs": [
        {
          "indexed": true,
          "internalType": "address",
          "name": "token",
          "type": "address"
        },
        {
          "indexed": false,
          "internalType": "uint256",
          "name": "updatedVolatilityThreshold",
          "type": "uint256"
        }
      ],
      "name": "VolatilityThresholdUpdated",
      "type": "event"
    },
    {
      "inputs": [],
      "name": "MINTER_ROLE",
      "outputs": [
        {
          "internalType": "bytes32",
          "name": "",
          "type": "bytes32"
        }
      ],
      "stateMutability": "view",
      "type": "function"
    },
    {
      "inputs": [],
      "name": "PAUSER_ROLE",
      "outputs": [
        {
          "internalType": "bytes32",
          "name": "",
          "type": "bytes32"
        }
      ],
      "stateMutability": "view",
      "type": "function"
    },
    {
      "inputs": [],
      "name": "collectionPeriod",
      "outputs": [
        {
          "internalType": "uint256",
          "name": "",
          "type": "uint256"
        }
      ],
      "stateMutability": "view",
      "type": "function"
    },
    {
      "inputs": [
        {
          "internalType": "uint256",
          "name": "_poolSize",
          "type": "uint256"
        },
        {
          "internalType": "uint256",
          "name": "_minBorrowAmount",
          "type": "uint256"
        },
        {
          "internalType": "address",
          "name": "_borrowTokenType",
          "type": "address"
        },
        {
          "internalType": "address",
          "name": "_collateralTokenType",
          "type": "address"
        },
        {
          "internalType": "uint256",
          "name": "_collateralRatio",
          "type": "uint256"
        },
        {
          "internalType": "uint256",
          "name": "_borrowRate",
          "type": "uint256"
        },
        {
          "internalType": "uint256",
          "name": "_repaymentInterval",
          "type": "uint256"
        },
        {
          "internalType": "uint256",
          "name": "_noOfRepaymentIntervals",
          "type": "uint256"
        },
        {
          "internalType": "address",
          "name": "_poolSavingsStrategy",
          "type": "address"
        },
        {
          "internalType": "uint256",
          "name": "_collateralAmount",
          "type": "uint256"
        },
        {
          "internalType": "bool",
          "name": "_transferFromSavingsAccount",
          "type": "bool"
        },
        {
          "internalType": "bytes32",
          "name": "_salt",
          "type": "bytes32"
        }
      ],
      "name": "createPool",
      "outputs": [],
      "stateMutability": "payable",
      "type": "function"
    },
    {
      "inputs": [],
      "name": "extension",
      "outputs": [
        {
          "internalType": "address",
          "name": "",
          "type": "address"
        }
      ],
      "stateMutability": "view",
      "type": "function"
    },
    {
      "inputs": [],
      "name": "getProtocolFeeData",
      "outputs": [
        {
          "internalType": "uint256",
          "name": "",
          "type": "uint256"
        },
        {
          "internalType": "address",
          "name": "",
          "type": "address"
        }
      ],
      "stateMutability": "view",
      "type": "function"
    },
    {
      "inputs": [],
      "name": "gracePeriodPenaltyFraction",
      "outputs": [
        {
          "internalType": "uint256",
          "name": "",
          "type": "uint256"
        }
      ],
      "stateMutability": "view",
      "type": "function"
    },
    {
      "inputs": [
        {
          "internalType": "address",
          "name": "_admin",
          "type": "address"
        },
        {
          "internalType": "uint256",
          "name": "_collectionPeriod",
          "type": "uint256"
        },
        {
          "internalType": "uint256",
          "name": "_matchCollateralRatioInterval",
          "type": "uint256"
        },
        {
          "internalType": "uint256",
          "name": "_marginCallDuration",
          "type": "uint256"
        },
        {
          "internalType": "uint256",
          "name": "_gracePeriodPenaltyFraction",
          "type": "uint256"
        },
        {
          "internalType": "bytes4",
          "name": "_poolInitFuncSelector",
          "type": "bytes4"
        },
        {
          "internalType": "bytes4",
          "name": "_poolTokenInitFuncSelector",
          "type": "bytes4"
        },
        {
          "internalType": "uint256",
          "name": "_liquidatorRewardFraction",
          "type": "uint256"
        },
        {
          "internalType": "uint256",
          "name": "_poolCancelPenalityFraction",
          "type": "uint256"
        },
        {
          "internalType": "uint256",
          "name": "_protocolFeeFraction",
          "type": "uint256"
        },
        {
          "internalType": "address",
          "name": "_protocolFeeCollector",
          "type": "address"
        }
      ],
      "name": "initialize",
      "outputs": [],
      "stateMutability": "nonpayable",
      "type": "function"
    },
    {
      "inputs": [],
      "name": "liquidatorRewardFraction",
      "outputs": [
        {
          "internalType": "uint256",
          "name": "",
          "type": "uint256"
        }
      ],
      "stateMutability": "view",
      "type": "function"
    },
    {
      "inputs": [],
      "name": "marginCallDuration",
      "outputs": [
        {
          "internalType": "uint256",
          "name": "",
          "type": "uint256"
        }
      ],
      "stateMutability": "view",
      "type": "function"
    },
    {
      "inputs": [],
      "name": "matchCollateralRatioInterval",
      "outputs": [
        {
          "internalType": "uint256",
          "name": "",
          "type": "uint256"
        }
      ],
      "stateMutability": "view",
      "type": "function"
    },
    {
      "inputs": [
        {
          "internalType": "address",
          "name": "",
          "type": "address"
        }
      ],
      "name": "openBorrowPoolRegistry",
      "outputs": [
        {
          "internalType": "bool",
          "name": "",
          "type": "bool"
        }
      ],
      "stateMutability": "view",
      "type": "function"
    },
    {
      "inputs": [],
      "name": "owner",
      "outputs": [
        {
          "internalType": "address",
          "name": "",
          "type": "address"
        }
      ],
      "stateMutability": "view",
      "type": "function"
    },
    {
      "inputs": [],
      "name": "poolCancelPenalityFraction",
      "outputs": [
        {
          "internalType": "uint256",
          "name": "",
          "type": "uint256"
        }
      ],
      "stateMutability": "view",
      "type": "function"
    },
    {
      "inputs": [],
      "name": "poolImpl",
      "outputs": [
        {
          "internalType": "address",
          "name": "",
          "type": "address"
        }
      ],
      "stateMutability": "view",
      "type": "function"
    },
    {
      "inputs": [],
      "name": "poolInitFuncSelector",
      "outputs": [
        {
          "internalType": "bytes4",
          "name": "",
          "type": "bytes4"
        }
      ],
      "stateMutability": "view",
      "type": "function"
    },
    {
      "inputs": [],
      "name": "poolTokenImpl",
      "outputs": [
        {
          "internalType": "address",
          "name": "",
          "type": "address"
        }
      ],
      "stateMutability": "view",
      "type": "function"
    },
    {
      "inputs": [],
      "name": "poolTokenInitFuncSelector",
      "outputs": [
        {
          "internalType": "bytes4",
          "name": "",
          "type": "bytes4"
        }
      ],
      "stateMutability": "view",
      "type": "function"
    },
    {
      "inputs": [],
      "name": "priceOracle",
      "outputs": [
        {
          "internalType": "address",
          "name": "",
          "type": "address"
        }
      ],
      "stateMutability": "view",
      "type": "function"
    },
    {
      "inputs": [],
      "name": "renounceOwnership",
      "outputs": [],
      "stateMutability": "nonpayable",
      "type": "function"
    },
    {
      "inputs": [],
      "name": "repaymentImpl",
      "outputs": [
        {
          "internalType": "address",
          "name": "",
          "type": "address"
        }
      ],
      "stateMutability": "view",
      "type": "function"
    },
    {
      "inputs": [],
      "name": "savingsAccount",
      "outputs": [
        {
          "internalType": "address",
          "name": "",
          "type": "address"
        }
      ],
      "stateMutability": "view",
      "type": "function"
    },
    {
      "inputs": [
        {
          "internalType": "address",
          "name": "_poolImpl",
          "type": "address"
        },
        {
          "internalType": "address",
          "name": "_repaymentImpl",
          "type": "address"
        },
        {
          "internalType": "address",
          "name": "_poolTokenImpl",
          "type": "address"
        },
        {
          "internalType": "address",
          "name": "_userRegistry",
          "type": "address"
        },
        {
          "internalType": "address",
          "name": "_strategyRegistry",
          "type": "address"
        },
        {
          "internalType": "address",
          "name": "_priceOracle",
          "type": "address"
        },
        {
          "internalType": "address",
          "name": "_savingsAccount",
          "type": "address"
        },
        {
          "internalType": "address",
          "name": "_extension",
          "type": "address"
        }
      ],
      "name": "setImplementations",
      "outputs": [],
      "stateMutability": "nonpayable",
      "type": "function"
    },
    {
      "inputs": [],
      "name": "strategyRegistry",
      "outputs": [
        {
          "internalType": "address",
          "name": "",
          "type": "address"
        }
      ],
      "stateMutability": "view",
      "type": "function"
    },
    {
      "inputs": [
        {
          "internalType": "address",
          "name": "newOwner",
          "type": "address"
        }
      ],
      "name": "transferOwnership",
      "outputs": [],
      "stateMutability": "nonpayable",
      "type": "function"
    },
    {
      "inputs": [
        {
          "internalType": "uint256",
          "name": "_min",
          "type": "uint256"
        },
        {
          "internalType": "uint256",
          "name": "_max",
          "type": "uint256"
        }
      ],
      "name": "updateBorrowRateLimit",
      "outputs": [],
      "stateMutability": "nonpayable",
      "type": "function"
    },
    {
      "inputs": [
        {
          "internalType": "uint256",
          "name": "_min",
          "type": "uint256"
        },
        {
          "internalType": "uint256",
          "name": "_max",
          "type": "uint256"
        }
      ],
      "name": "updateCollateralRatioLimit",
      "outputs": [],
      "stateMutability": "nonpayable",
      "type": "function"
    },
    {
      "inputs": [
        {
          "internalType": "uint256",
          "name": "_collectionPeriod",
          "type": "uint256"
        }
      ],
      "name": "updateCollectionPeriod",
      "outputs": [],
      "stateMutability": "nonpayable",
      "type": "function"
    },
    {
      "inputs": [
        {
          "internalType": "uint256",
          "name": "_gracePeriodPenaltyFraction",
          "type": "uint256"
        }
      ],
      "name": "updateGracePeriodPenaltyFraction",
      "outputs": [],
      "stateMutability": "nonpayable",
      "type": "function"
    },
    {
      "inputs": [
        {
          "internalType": "uint256",
          "name": "_liquidatorRewardFraction",
          "type": "uint256"
        }
      ],
      "name": "updateLiquidatorRewardFraction",
      "outputs": [],
      "stateMutability": "nonpayable",
      "type": "function"
    },
    {
      "inputs": [
        {
          "internalType": "uint256",
          "name": "_marginCallDuration",
          "type": "uint256"
        }
      ],
      "name": "updateMarginCallDuration",
      "outputs": [],
      "stateMutability": "nonpayable",
      "type": "function"
    },
    {
      "inputs": [
        {
          "internalType": "uint256",
          "name": "_matchCollateralRatioInterval",
          "type": "uint256"
        }
      ],
      "name": "updateMatchCollateralRatioInterval",
      "outputs": [],
      "stateMutability": "nonpayable",
      "type": "function"
    },
    {
      "inputs": [
        {
          "internalType": "uint256",
          "name": "_min",
          "type": "uint256"
        },
        {
          "internalType": "uint256",
          "name": "_max",
          "type": "uint256"
        }
      ],
      "name": "updateNoOfRepaymentIntervalsLimit",
      "outputs": [],
      "stateMutability": "nonpayable",
      "type": "function"
    },
    {
      "inputs": [
        {
          "internalType": "uint256",
          "name": "_poolCancelPenalityFraction",
          "type": "uint256"
        }
      ],
      "name": "updatePoolCancelPenalityFraction",
      "outputs": [],
      "stateMutability": "nonpayable",
      "type": "function"
    },
    {
      "inputs": [
        {
          "internalType": "address",
          "name": "_poolLogic",
          "type": "address"
        }
      ],
      "name": "updatePoolLogic",
      "outputs": [],
      "stateMutability": "nonpayable",
      "type": "function"
    },
    {
      "inputs": [
        {
          "internalType": "uint256",
          "name": "_min",
          "type": "uint256"
        },
        {
          "internalType": "uint256",
          "name": "_max",
          "type": "uint256"
        }
      ],
      "name": "updatePoolSizeLimit",
      "outputs": [],
      "stateMutability": "nonpayable",
      "type": "function"
    },
    {
      "inputs": [
        {
          "internalType": "address",
          "name": "_poolTokenImpl",
          "type": "address"
        }
      ],
      "name": "updatePoolTokenImpl",
      "outputs": [],
      "stateMutability": "nonpayable",
      "type": "function"
    },
    {
      "inputs": [
        {
          "internalType": "bytes4",
          "name": "_functionId",
          "type": "bytes4"
        }
      ],
      "name": "updatePoolTokenInitFuncSelector",
      "outputs": [],
      "stateMutability": "nonpayable",
      "type": "function"
    },
    {
      "inputs": [
        {
          "internalType": "address",
          "name": "_priceOracle",
          "type": "address"
        }
      ],
      "name": "updatePriceoracle",
      "outputs": [],
      "stateMutability": "nonpayable",
      "type": "function"
    },
    {
      "inputs": [
        {
          "internalType": "address",
          "name": "_protocolFeeCollector",
          "type": "address"
        }
      ],
      "name": "updateProtocolFeeCollector",
      "outputs": [],
      "stateMutability": "nonpayable",
      "type": "function"
    },
    {
      "inputs": [
        {
          "internalType": "uint256",
          "name": "_protocolFee",
          "type": "uint256"
        }
      ],
      "name": "updateProtocolFeeFraction",
      "outputs": [],
      "stateMutability": "nonpayable",
      "type": "function"
    },
    {
      "inputs": [
        {
          "internalType": "address",
          "name": "_repaymentImpl",
          "type": "address"
        }
      ],
      "name": "updateRepaymentImpl",
      "outputs": [],
      "stateMutability": "nonpayable",
      "type": "function"
    },
    {
      "inputs": [
        {
          "internalType": "uint256",
          "name": "_min",
          "type": "uint256"
        },
        {
          "internalType": "uint256",
          "name": "_max",
          "type": "uint256"
        }
      ],
      "name": "updateRepaymentIntervalLimit",
      "outputs": [],
      "stateMutability": "nonpayable",
      "type": "function"
    },
    {
      "inputs": [
        {
          "internalType": "address",
          "name": "_savingsAccount",
          "type": "address"
        }
      ],
      "name": "updateSavingsAccount",
      "outputs": [],
      "stateMutability": "nonpayable",
      "type": "function"
    },
    {
      "inputs": [
        {
          "internalType": "address",
          "name": "_strategyRegistry",
          "type": "address"
        }
      ],
      "name": "updateStrategyRegistry",
      "outputs": [],
      "stateMutability": "nonpayable",
      "type": "function"
    },
    {
      "inputs": [
        {
          "internalType": "address",
          "name": "_borrowToken",
          "type": "address"
        },
        {
          "internalType": "bool",
          "name": "_isSupported",
          "type": "bool"
        }
      ],
      "name": "updateSupportedBorrowTokens",
      "outputs": [],
      "stateMutability": "nonpayable",
      "type": "function"
    },
    {
      "inputs": [
        {
          "internalType": "address",
          "name": "_collateralToken",
          "type": "address"
        },
        {
          "internalType": "bool",
          "name": "_isSupported",
          "type": "bool"
        }
      ],
      "name": "updateSupportedCollateralTokens",
      "outputs": [],
      "stateMutability": "nonpayable",
      "type": "function"
    },
    {
      "inputs": [
        {
          "internalType": "address",
          "name": "_userRegistry",
          "type": "address"
        }
      ],
      "name": "updateUserRegistry",
      "outputs": [],
      "stateMutability": "nonpayable",
      "type": "function"
    },
    {
      "inputs": [
        {
          "internalType": "address",
          "name": "_token",
          "type": "address"
        },
        {
          "internalType": "uint256",
          "name": "_volatilityThreshold",
          "type": "uint256"
        }
      ],
      "name": "updateVolatilityThreshold",
      "outputs": [],
      "stateMutability": "nonpayable",
      "type": "function"
    },
    {
      "inputs": [
        {
          "internalType": "address",
          "name": "_extension",
          "type": "address"
        }
      ],
      "name": "updatedExtension",
      "outputs": [],
      "stateMutability": "nonpayable",
      "type": "function"
    },
    {
      "inputs": [
        {
          "internalType": "bytes4",
          "name": "_functionId",
          "type": "bytes4"
        }
      ],
      "name": "updatepoolInitFuncSelector",
      "outputs": [],
      "stateMutability": "nonpayable",
      "type": "function"
    },
    {
      "inputs": [],
      "name": "userRegistry",
      "outputs": [
        {
          "internalType": "address",
          "name": "",
          "type": "address"
        }
      ],
      "stateMutability": "view",
      "type": "function"
    },
    {
      "inputs": [
        {
          "internalType": "address",
          "name": "",
          "type": "address"
        }
      ],
      "name": "volatilityThreshold",
      "outputs": [
        {
          "internalType": "uint256",
          "name": "",
          "type": "uint256"
        }
      ],
      "stateMutability": "view",
      "type": "function"
    },
    {
      "inputs": [],
      "name": "votingPassRatio",
      "outputs": [
        {
          "internalType": "uint256",
          "name": "",
          "type": "uint256"
        }
      ],
      "stateMutability": "view",
      "type": "function"
    }
  ],
  "bytecode": "0x608060405234801561001057600080fd5b506144b2806100206000396000f3fe608060405260043610620003865760003560e01c80637bad520711620001d5578063bf658a2e116200010f578063e030a06d11620000a3578063e63ab1e91162000079578063e63ab1e91462000cb4578063ecced6231462000ccc578063f2fde38b1462000ce4578063fd69a5511462000d1b5762000386565b8063e030a06d1462000c31578063e2613ffe1462000c65578063e35ddc071462000c9c5762000386565b8063d080bf2711620000e5578063d080bf271462000b9c578063d53913931462000bb4578063dcc314db1462000bcc578063de9de06e1462000c035762000386565b8063bf658a2e1462000afe578063cad111ab1462000b36578063ce2f9f4c1462000b6e5762000386565b80639732e24c1162000187578063aa76834d116200015d578063aa76834d1462000a36578063acca944f1462000a64578063b5e521671462000a7c578063ba330bc81462000ab35762000386565b80639732e24c14620009d15780639b9842c114620009e9578063a3170fe51462000a015762000386565b80637bad520714620008a05780637be4a7b514620008d95780637cf0aec814620009185780637d3edfee146200094c578063800987ba146200098b5780638da5cb5b14620009b95762000386565b8063406652c111620002c557806363832d5411620002595780636cf14f9d116200022f5780636cf14f9d1462000805578063715018a6146200083c57806374113a2714620008545780637908423b146200086c5762000386565b806363832d54146200079e578063651faffa14620007b65780636687e7b714620007ed5762000386565b806352cd2783116200029b57806352cd278314620006a8578063532cdea514620006df578063565b54ea146200074f5780635c7460d614620007865762000386565b8063406652c1146200061c5780634c1f2dc514620006595780634e73f74b14620006905762000386565b806329ae4a6f116200033d5780632e37d82611620003135780632e37d826146200056257806334c0af541462000599578063363c538014620005cd5780633a02ab3c14620006045762000386565b806329ae4a6f14620004ee5780632d5537b0146200051c5780632e3561ee14620005345762000386565b80630971976e146200038b57806310d22a2914620003b5578063112dc9dc1462000440578063171e1085146200046e57806317c03f0714620004a25780632630c12f14620004d6575b600080fd5b3480156200039857600080fd5b50620003a362000d91565b60408051918252519081900360200190f35b348015620003c257600080fd5b506200043e6004803603610160811015620003dc57600080fd5b506001600160a01b0381358116916020810135916040820135916060810135916080820135916001600160e01b031960a082013581169260c08301359091169160e0810135916101008201359161012081013591610140909101351662000d97565b005b3480156200044d57600080fd5b506200043e600480360360208110156200046657600080fd5b503562000ecf565b3480156200047b57600080fd5b506200048662000f45565b604080516001600160a01b039092168252519081900360200190f35b348015620004af57600080fd5b506200043e60048036036040811015620004c857600080fd5b508035906020013562000f54565b348015620004e357600080fd5b506200048662001031565b348015620004fb57600080fd5b506200043e600480360360208110156200051457600080fd5b503562001040565b3480156200052957600080fd5b5062000486620010b3565b3480156200054157600080fd5b506200043e600480360360208110156200055a57600080fd5b5035620010c2565b3480156200056f57600080fd5b506200043e600480360360208110156200058857600080fd5b50356001600160a01b031662001135565b348015620005a657600080fd5b506200043e60048036036040811015620005bf57600080fd5b5080359060200135620011a8565b348015620005da57600080fd5b50620003a360048036036020811015620005f357600080fd5b50356001600160a01b03166200127f565b3480156200061157600080fd5b50620003a362001291565b3480156200062957600080fd5b506200043e600480360360408110156200064257600080fd5b506001600160a01b03813516906020013562001297565b3480156200066657600080fd5b506200043e600480360360208110156200067f57600080fd5b50356001600160a01b03166200130f565b3480156200069d57600080fd5b50620003a362001382565b348015620006b557600080fd5b506200043e60048036036020811015620006ce57600080fd5b50356001600160a01b031662001388565b348015620006ec57600080fd5b506200043e60048036036101008110156200070657600080fd5b506001600160a01b038135811691602081013582169160408201358116916060810135821691608082013581169160a081013582169160c082013581169160e0013516620013fb565b3480156200075c57600080fd5b506200043e600480360360208110156200077557600080fd5b50356001600160a01b0316620014c5565b3480156200079357600080fd5b506200048662001538565b348015620007ab57600080fd5b506200048662001547565b348015620007c357600080fd5b506200043e60048036036020811015620007dc57600080fd5b50356001600160a01b03166200155d565b348015620007fa57600080fd5b50620003a3620015d0565b3480156200081257600080fd5b506200043e600480360360208110156200082b57600080fd5b50356001600160a01b0316620015d6565b3480156200084957600080fd5b506200043e62001649565b3480156200086157600080fd5b50620003a3620016fb565b3480156200087957600080fd5b506200043e600480360360408110156200089257600080fd5b508035906020013562001701565b348015620008ad57600080fd5b50620008b8620017d7565b604080519283526001600160a01b0390911660208301528051918290030190f35b348015620008e657600080fd5b506200043e60048036036040811015620008ff57600080fd5b506001600160a01b0381351690602001351515620017ea565b3480156200092557600080fd5b506200043e600480360360408110156200093e57600080fd5b50803590602001356200185e565b3480156200095957600080fd5b506200043e600480360360408110156200097257600080fd5b506001600160a01b03813516906020013515156200192d565b3480156200099857600080fd5b506200043e60048036036020811015620009b157600080fd5b5035620019a1565b348015620009c657600080fd5b506200048662001a14565b348015620009de57600080fd5b506200048662001a25565b348015620009f657600080fd5b50620003a362001a34565b34801562000a0e57600080fd5b5062000a1962001a3a565b604080516001600160e01b03199092168252519081900360200190f35b34801562000a4357600080fd5b506200043e6004803603602081101562000a5c57600080fd5b503562001a43565b34801562000a7157600080fd5b50620003a362001ab6565b34801562000a8957600080fd5b506200043e6004803603602081101562000aa257600080fd5b50356001600160a01b031662001abc565b34801562000ac057600080fd5b5062000aea6004803603602081101562000ad957600080fd5b50356001600160a01b031662001b2f565b604080519115158252519081900360200190f35b34801562000b0b57600080fd5b506200043e6004803603602081101562000b2457600080fd5b50356001600160e01b03191662001b44565b34801562000b4357600080fd5b506200043e6004803603602081101562000b5c57600080fd5b50356001600160e01b03191662001bb7565b34801562000b7b57600080fd5b506200043e6004803603602081101562000b9457600080fd5b503562001c2a565b34801562000ba957600080fd5b506200048662001c9d565b34801562000bc157600080fd5b50620003a362001cac565b34801562000bd957600080fd5b506200043e6004803603602081101562000bf257600080fd5b50356001600160a01b031662001cd0565b34801562000c1057600080fd5b506200043e6004803603602081101562000c2957600080fd5b503562001d43565b34801562000c3e57600080fd5b506200043e6004803603604081101562000c5757600080fd5b508035906020013562001db6565b34801562000c7257600080fd5b506200043e6004803603602081101562000c8b57600080fd5b50356001600160a01b031662001e87565b34801562000ca957600080fd5b5062000a1962001efa565b34801562000cc157600080fd5b50620003a362001f0b565b34801562000cd957600080fd5b506200048662001f2f565b34801562000cf157600080fd5b506200043e6004803603602081101562000d0a57600080fd5b50356001600160a01b031662001f3e565b6200043e600480360361018081101562000d3457600080fd5b508035906020810135906001600160a01b036040820135811691606081013582169160808201359160a08101359160c08201359160e081013591610100820135169061012081013590610140810135151590610160013562002049565b606d5481565b600054610100900460ff168062000db3575062000db362002a9b565b8062000dc2575060005460ff16155b62000dff5760405162461bcd60e51b815260040180806020018281038252602e8152602001806200429f602e913960400191505060405180910390fd5b600054610100900460ff1615801562000e2b576000805460ff1961ff0019909116610100171660011790555b62000e3562002aae565b62000e408c62001f3e565b62000e4b8b62002b6b565b62000e568a62002ba6565b62000e618962002be1565b62000e6c8862002c1c565b62000e778762002c57565b62000e828662002cab565b62000e8d8562002d0a565b62000e988462002d45565b62000ea38362002d80565b62000eae8262002dbb565b801562000ec1576000805461ff00191690555b505050505050505050505050565b62000ed962002e0f565b6001600160a01b031662000eec62001a14565b6001600160a01b03161462000f37576040805162461bcd60e51b8152602060048201819052602482015260008051602062004381833981519152604482015290519081900360640190fd5b62000f428162002d0a565b50565b606a546001600160a01b031681565b62000f5e62002e0f565b6001600160a01b031662000f7162001a14565b6001600160a01b03161462000fbc576040805162461bcd60e51b8152602060048201819052602482015260008051602062004381833981519152604482015290519081900360640190fd5b60408051808201825283815260209081018390526082849055608383905581519081018490528082018390526060808252601690820152754e6f4f6652657061796d656e74496e74657276616c7360501b60808201529051600080516020620043618339815191529181900360a00190a15050565b606b546001600160a01b031681565b6200104a62002e0f565b6001600160a01b03166200105d62001a14565b6001600160a01b031614620010a8576040805162461bcd60e51b8152602060048201819052602482015260008051602062004381833981519152604482015290519081900360640190fd5b62000f428162002b6b565b6069546001600160a01b031681565b620010cc62002e0f565b6001600160a01b0316620010df62001a14565b6001600160a01b0316146200112a576040805162461bcd60e51b8152602060048201819052602482015260008051602062004381833981519152604482015290519081900360640190fd5b62000f428162002d45565b6200113f62002e0f565b6001600160a01b03166200115262001a14565b6001600160a01b0316146200119d576040805162461bcd60e51b8152602060048201819052602482015260008051602062004381833981519152604482015290519081900360640190fd5b62000f428162002e13565b620011b262002e0f565b6001600160a01b0316620011c562001a14565b6001600160a01b03161462001210576040805162461bcd60e51b8152602060048201819052602482015260008051602062004381833981519152604482015290519081900360640190fd5b604080518082018252838152602090810183905260808481556081849055825191820185905281830184905260608083526011908301527014995c185e5b595b9d125b9d195c9d985b607a1b908201529051600080516020620043618339815191529181900360a00190a15050565b60706020526000908152604090205481565b606e5481565b620012a162002e0f565b6001600160a01b0316620012b462001a14565b6001600160a01b031614620012ff576040805162461bcd60e51b8152602060048201819052602482015260008051602062004381833981519152604482015290519081900360640190fd5b6200130b828262002e67565b5050565b6200131962002e0f565b6001600160a01b03166200132c62001a14565b6001600160a01b03161462001377576040805162461bcd60e51b8152602060048201819052602482015260008051602062004381833981519152604482015290519081900360640190fd5b62000f428162002ebb565b60715481565b6200139262002e0f565b6001600160a01b0316620013a562001a14565b6001600160a01b031614620013f0576040805162461bcd60e51b8152602060048201819052602482015260008051602062004381833981519152604482015290519081900360640190fd5b62000f428162002f0f565b6200140562002e0f565b6001600160a01b03166200141862001a14565b6001600160a01b03161462001463576040805162461bcd60e51b8152602060048201819052602482015260008051602062004381833981519152604482015290519081900360640190fd5b6200146e8862002f63565b620014798762002fc8565b62001484866200301c565b6200148f8262003070565b6200149a81620030c4565b620014a58562002e13565b620014b08462002ebb565b620014bb8362002f0f565b5050505050505050565b620014cf62002e0f565b6001600160a01b0316620014e262001a14565b6001600160a01b0316146200152d576040805162461bcd60e51b8152602060048201819052602482015260008051602062004381833981519152604482015290519081900360640190fd5b62000f428162002dbb565b6067546001600160a01b031681565b606554600160401b90046001600160a01b031681565b6200156762002e0f565b6001600160a01b03166200157a62001a14565b6001600160a01b031614620015c5576040805162461bcd60e51b8152602060048201819052602482015260008051602062004381833981519152604482015290519081900360640190fd5b62000f428162002fc8565b60745481565b620015e062002e0f565b6001600160a01b0316620015f362001a14565b6001600160a01b0316146200163e576040805162461bcd60e51b8152602060048201819052602482015260008051602062004381833981519152604482015290519081900360640190fd5b62000f428162003070565b6200165362002e0f565b6001600160a01b03166200166662001a14565b6001600160a01b031614620016b1576040805162461bcd60e51b8152602060048201819052602482015260008051602062004381833981519152604482015290519081900360640190fd5b6033546040516000916001600160a01b0316907f8be0079c531659141344cd1fd0a4f28419497f9722a3daafe3b4186f6b6457e0908390a3603380546001600160a01b0319169055565b60735481565b6200170b62002e0f565b6001600160a01b03166200171e62001a14565b6001600160a01b03161462001769576040805162461bcd60e51b8152602060048201819052602482015260008051602062004381833981519152604482015290519081900360640190fd5b6040805180820182528381526020908101839052607c849055607d83905581519081018490528082018390526060808252600f908201526e436f6c6c61746572616c526174696f60881b60808201529051600080516020620043618339815191529181900360a00190a15050565b6075546076546001600160a01b03169091565b620017f462002e0f565b6001600160a01b03166200180762001a14565b6001600160a01b03161462001852576040805162461bcd60e51b8152602060048201819052602482015260008051602062004381833981519152604482015290519081900360640190fd5b6200130b828262003118565b6200186862002e0f565b6001600160a01b03166200187b62001a14565b6001600160a01b031614620018c6576040805162461bcd60e51b8152602060048201819052602482015260008051602062004381833981519152604482015290519081900360640190fd5b6040805180820182528381526020908101839052607a849055607b8390558151908101849052808201839052606080825260089082015267506f6f6c53697a6560c01b60808201529051600080516020620043618339815191529181900360a00190a15050565b6200193762002e0f565b6001600160a01b03166200194a62001a14565b6001600160a01b03161462001995576040805162461bcd60e51b8152602060048201819052602482015260008051602062004381833981519152604482015290519081900360640190fd5b6200130b82826200317c565b620019ab62002e0f565b6001600160a01b0316620019be62001a14565b6001600160a01b03161462001a09576040805162461bcd60e51b8152602060048201819052602482015260008051602062004381833981519152604482015290519081900360640190fd5b62000f428162002ba6565b600062001a20620031e0565b905090565b6066546001600160a01b031681565b606f5481565b60655460e01b81565b62001a4d62002e0f565b6001600160a01b031662001a6062001a14565b6001600160a01b03161462001aab576040805162461bcd60e51b8152602060048201819052602482015260008051602062004381833981519152604482015290519081900360640190fd5b62000f428162002c1c565b60725481565b62001ac662002e0f565b6001600160a01b031662001ad962001a14565b6001600160a01b03161462001b24576040805162461bcd60e51b8152602060048201819052602482015260008051602062004381833981519152604482015290519081900360640190fd5b62000f42816200301c565b60796020526000908152604090205460ff1681565b62001b4e62002e0f565b6001600160a01b031662001b6162001a14565b6001600160a01b03161462001bac576040805162461bcd60e51b8152602060048201819052602482015260008051602062004381833981519152604482015290519081900360640190fd5b62000f428162002c57565b62001bc162002e0f565b6001600160a01b031662001bd462001a14565b6001600160a01b03161462001c1f576040805162461bcd60e51b8152602060048201819052602482015260008051602062004381833981519152604482015290519081900360640190fd5b62000f428162002cab565b62001c3462002e0f565b6001600160a01b031662001c4762001a14565b6001600160a01b03161462001c92576040805162461bcd60e51b8152602060048201819052602482015260008051602062004381833981519152604482015290519081900360640190fd5b62000f428162002be1565b6068546001600160a01b031681565b7f9f2df0fed2c77648de5860a4cc508cd0818c85b8b8a1ab4ceeef8d981c8956a681565b62001cda62002e0f565b6001600160a01b031662001ced62001a14565b6001600160a01b03161462001d38576040805162461bcd60e51b8152602060048201819052602482015260008051602062004381833981519152604482015290519081900360640190fd5b62000f428162002f63565b62001d4d62002e0f565b6001600160a01b031662001d6062001a14565b6001600160a01b03161462001dab576040805162461bcd60e51b8152602060048201819052602482015260008051602062004381833981519152604482015290519081900360640190fd5b62000f428162002d80565b62001dc062002e0f565b6001600160a01b031662001dd362001a14565b6001600160a01b03161462001e1e576040805162461bcd60e51b8152602060048201819052602482015260008051602062004381833981519152604482015290519081900360640190fd5b6040805180820182528381526020908101839052607e849055607f83905581519081018490528082018390526060808252600a9082015269426f72726f775261746560b01b60808201529051600080516020620043618339815191529181900360a00190a15050565b62001e9162002e0f565b6001600160a01b031662001ea462001a14565b6001600160a01b03161462001eef576040805162461bcd60e51b8152602060048201819052602482015260008051602062004381833981519152604482015290519081900360640190fd5b62000f4281620030c4565b606554640100000000900460e01b81565b7f65d7a28e3265b37a6474929f336521b332c1681b933f6cb9f3376673440d862a81565b606c546001600160a01b031681565b62001f4862002e0f565b6001600160a01b031662001f5b62001a14565b6001600160a01b03161462001fa6576040805162461bcd60e51b8152602060048201819052602482015260008051602062004381833981519152604482015290519081900360640190fd5b6001600160a01b03811662001fed5760405162461bcd60e51b8152600401808060200182810382526026815260200180620041866026913960400191505060405180910390fd5b6033546040516001600160a01b038084169216907f8be0079c531659141344cd1fd0a4f28419497f9722a3daafe3b4186f6b6457e090600090a3603380546001600160a01b0319166001600160a01b0392909216919091179055565b60675460408051634209fff160e01b815233600482015290516001600160a01b0390921691634209fff191602480820192602092909190829003018186803b1580156200209557600080fd5b505afa158015620020aa573d6000803e3d6000fd5b505050506040513d6020811015620020c157600080fd5b5051620021005760405162461bcd60e51b8152600401808060200182810382526041815260200180620042226041913960600191505060405180910390fd5b8b8b1115620021415760405162461bcd60e51b8152600401808060200182810382526033815260200180620041536033913960400191505060405180910390fd5b6001600160a01b0389166000908152607060205260409020548810156200219a5760405162461bcd60e51b8152600401808060200182810382526031815260200180620043066031913960400191505060405180910390fd5b6001600160a01b038a1660009081526077602052604090205460ff16620021f35760405162461bcd60e51b8152600401808060200182810382526033815260200180620043df6033913960400191505060405180910390fd5b6001600160a01b03891660009081526078602052604090205460ff166200224c5760405162461bcd60e51b8152600401808060200182810382526037815260200180620044466037913960400191505060405180910390fd5b606b546040805163633defbd60e01b81526001600160a01b038c811660048301528d811660248301529151919092169163633defbd916044808301926020929190829003018186803b158015620022a257600080fd5b505afa158015620022b7573d6000803e3d6000fd5b505050506040513d6020811015620022ce57600080fd5b50516200230d5760405162461bcd60e51b815260040180806020018281038252603f815260200180620041e3603f913960400191505060405180910390fd5b6068546040805163038defd760e01b81526001600160a01b0387811660048301529151919092169163038defd7916024808301926020929190829003018186803b1580156200235b57600080fd5b505afa15801562002370573d6000803e3d6000fd5b505050506040513d60208110156200238757600080fd5b5051620023c65760405162461bcd60e51b815260040180806020018281038252602a81526020018062004337602a913960400191505060405180910390fd5b607a54607b54620023d9918e91620031ef565b620024165760405162461bcd60e51b8152600401808060200182810382526034815260200180620044126034913960400191505060405180910390fd5b607c54607d5462002429918a91620031ef565b620024665760405162461bcd60e51b815260040180806020018281038252603c81526020018062004263603c913960400191505060405180910390fd5b607e54607f5462002479918991620031ef565b620024b65760405162461bcd60e51b8152600401808060200182810382526037815260200180620041ac6037913960400191505060405180910390fd5b608254608354620024c9918791620031ef565b620025065760405162461bcd60e51b8152600401808060200182810382526039815260200180620042cd6039913960400191505060405180910390fd5b60805460815462002519918891620031ef565b620025565760405162461bcd60e51b815260040180806020018281038252603e815260200180620043a1603e913960400191505060405180910390fd5b6060606560009054906101000a900460e01b8d8d338e8e8e8e8e8e8e8e8e606e54606d54604051602401808f81526020018e81526020018d6001600160a01b031681526020018c6001600160a01b031681526020018b6001600160a01b031681526020018a8152602001898152602001888152602001878152602001866001600160a01b0316815260200185815260200184151581526020018381526020018281526020019e505050505050505050505050505050604051602081830303815290604052906001600160e01b0319166020820180516001600160e01b03838183161783525050505090506000823360405160200180838152602001826001600160a01b031660601b8152601401925050506040516020818303038152906040528051906020012090506060604051806020016200269390620034c0565b601f1982820381018352601f9091011660408181526065546001600160a01b03600160401b9091041660208381018281526001938501849052606080860190815289516080870152895193958a949293919260a09091019185019080838360005b838110156200270e578181015183820152602001620026f4565b50505050905090810190601f1680156200273c5780820380516001836020036101000a031916815260200191505b509450505050506040516020818303038152906040526040516020018083805190602001908083835b60208310620027865780518252601f19909201916020918201910162002765565b51815160209384036101000a600019018019909216911617905285519190930192850191508083835b60208310620027d05780518252601f199092019160209182019101620027af565b6001836020036101000a0380198251168184511680821785525050505050509050019250505060405160208183030381529060405290506000806001600160a01b03168d6001600160a01b0316146200282b5760006200282d565b865b905060006200283e8285856200324e565b606554604080516001600160a01b03848116606483015260606024830152601760848301527f4f70656e20426f72726f7720506f6f6c20546f6b656e7300000000000000000060a483015260a06044830152600460c48301526313d0941560e21b60e48084019190915283518084039091018152610104909201835260208201805164010000000090950460e01b6001600160e01b0319166001600160e01b03909516949094179093526066549151939450926000929190911690829084906200290890620034c0565b80846001600160a01b03168152602001836001600160a01b0316815260200180602001828103825283818151815260200191508051906020019080838360005b838110156200296257818101518382015260200162002948565b50505050905090810190601f168015620029905780820380516001836020036101000a031916815260200191505b50945050505050604051809103906000f080158015620029b4573d6000803e3d6000fd5b509050826001600160a01b03166333ce01fd826040518263ffffffff1660e01b815260040180826001600160a01b03168152602001915050600060405180830381600087803b15801562002a0757600080fd5b505af115801562002a1c573d6000803e3d6000fd5b5050506001600160a01b03808516600081815260796020908152604091829020805460ff19166001179055815192835233908301529184168183015290517f9c5d829b9b23efc461f9aeef91979ec04bb903feb3bee4f26d22114abfc7335b92509081900360600190a150505050505050505050505050505050505050565b600062002aa8306200330f565b15905090565b600054610100900460ff168062002aca575062002aca62002a9b565b8062002ad9575060005460ff16155b62002b165760405162461bcd60e51b815260040180806020018281038252602e8152602001806200429f602e913960400191505060405180910390fd5b600054610100900460ff1615801562002b42576000805460ff1961ff0019909116610100171660011790555b62002b4c62003315565b62002b56620033bd565b801562000f42576000805461ff001916905550565b606d8190556040805182815290517f51aa68fcf65b26bbc5a9db0b5933c71c642bc16e263e1d8c9b018a3b951a2cda9181900360200190a150565b606e8190556040805182815290517fd69e359b3075417225bd0005493180e032a9745f5228e51204275897e9d3135e9181900360200190a150565b606f8190556040805182815290517f1e85e6efe46a52b040a7311c9f1e10e4fcda6cae6b435437cb19b633e2e655449181900360200190a150565b60718190556040805182815290517f949071e044e4732649303ce3f5f4ccb54a8840a73b510ae45d5cd9b81e930d889181900360200190a150565b6065805463ffffffff191660e083901c179055604080516001600160e01b03198316815290517fbeee152d2a9de9377f4b5c9385c813ffac47b3bac8f9fc5057902b1f032ea413916020908290030190a150565b6065805467ffffffff00000000191664010000000060e084901c02179055604080516001600160e01b03198316815290517f876c0a03ffe4ebcb472a9a7cad4b9351e28c8e5ab21fd428c2c2344bf6620a5e916020908290030190a150565b60728190556040805182815290517ffc9f5adb3ea0a0ee669d6b5200334f3bb22968c6e7b2eedf0e5819182319c5229181900360200190a150565b60748190556040805182815290517faaba8d8495aaed7834b60167d1ec58d9763fdfee5d35ea29b4b153674fbe11859181900360200190a150565b60758190556040805182815290517fcfd641dab5b2592643d4b878bf2b771142aff4595263753dc7611f947749999d9181900360200190a150565b607680546001600160a01b0383166001600160a01b0319909116811790915560408051918252517f33837f672315b6cffcf11894714abfdec631a913c18d7738fcaf40c444376fb69181900360200190a150565b3390565b606780546001600160a01b0383166001600160a01b0319909116811790915560408051918252517fed714fbe17e15258cc6c9677fcfc9b57807561d3c4ff5c776fd00508f9dc53b99181900360200190a150565b6001600160a01b038216600081815260706020908152604091829020849055815184815291517fb7c6e25243d6bfe4740b10f9614686b77306e91ed0fb3b69db4e0d56c16beb7c9281900390910190a25050565b606880546001600160a01b0383166001600160a01b0319909116811790915560408051918252517f0ae0dc70cd51233fb6650002520dcd7be97d65702ded4fbd4fc90777326935889181900360200190a150565b606b80546001600160a01b0383166001600160a01b0319909116811790915560408051918252517fefe8ab924ca486283a79dc604baa67add51afb82af1db8ac386ebbba643cdffd9181900360200190a150565b606580546001600160a01b038316600160401b810268010000000000000000600160e01b03199092169190911790915560408051918252517f8ee0ac431aa1f635687a8e5d2d1c00dc66d43e9d5d9f587748a563030cbdfc019181900360200190a150565b606a80546001600160a01b0383166001600160a01b0319909116811790915560408051918252517fc5d97bee24802645337b82f06929eb7187d3e96d3abfde102b4b5d316c1b98139181900360200190a150565b606680546001600160a01b0383166001600160a01b0319909116811790915560408051918252517f52ffa3b7d02a00f0464ba1f6c4c80ab69cb0271ae2f267cef0385c68aebc5dd09181900360200190a150565b606c80546001600160a01b0383166001600160a01b0319909116811790915560408051918252517f5e8a3d56d9512a62f643367551a65727148c2516dce6b54956df80926dd2536c9181900360200190a150565b606980546001600160a01b0383166001600160a01b0319909116811790915560408051918252517f48951af222000a326b404ddb507e4909d14517d79d2a5f9eb4e220c5c8f56eb79181900360200190a150565b6001600160a01b038216600081815260776020908152604091829020805460ff191685151590811790915582519384529083015280517fa6c7f9eef436525b9c658fcc90c25e3f399534d7f6654a4204f89690117ec26e9281900390910190a15050565b6001600160a01b038216600081815260786020908152604091829020805460ff191685151590811790915582519384529083015280517fa8465fce7714e145603abc61f76c96665912ca5d2f9b7dd67f27349d83294d629281900390910190a15050565b6033546001600160a01b031690565b600082158015906200320057508115155b156200321f57828410158015620032175750818411155b905062003247565b82156200323157508183101562003247565b81156200324357508083111562003247565b5060015b9392505050565b6000815160001415620032a8576040805162461bcd60e51b815260206004820181905260248201527f437265617465323a2062797465636f6465206c656e677468206973207a65726f604482015290519081900360640190fd5b8282516020840186f590506001600160a01b03811662003247576040805162461bcd60e51b815260206004820152601960248201527f437265617465323a204661696c6564206f6e206465706c6f7900000000000000604482015290519081900360640190fd5b3b151590565b600054610100900460ff16806200333157506200333162002a9b565b8062003340575060005460ff16155b6200337d5760405162461bcd60e51b815260040180806020018281038252602e8152602001806200429f602e913960400191505060405180910390fd5b600054610100900460ff1615801562002b56576000805460ff1961ff001990911661010017166001179055801562000f42576000805461ff001916905550565b600054610100900460ff1680620033d95750620033d962002a9b565b80620033e8575060005460ff16155b620034255760405162461bcd60e51b815260040180806020018281038252602e8152602001806200429f602e913960400191505060405180910390fd5b600054610100900460ff1615801562003451576000805460ff1961ff0019909116610100171660011790555b60006200345d62002e0f565b603380546001600160a01b0319166001600160a01b038316908117909155604051919250906000907f8be0079c531659141344cd1fd0a4f28419497f9722a3daafe3b4186f6b6457e0908290a350801562000f42576000805461ff001916905550565b610c8480620034cf8339019056fe608060405260405162000c8438038062000c84833981810160405260608110156200002957600080fd5b815160208301516040808501805191519395929483019291846401000000008211156200005557600080fd5b9083019060208201858111156200006b57600080fd5b82516401000000008111828201881017156200008657600080fd5b82525081516020918201929091019080838360005b83811015620000b55781810151838201526020016200009b565b50505050905090810190601f168015620000e35780820380516001836020036101000a031916815260200191505b5060405250849150839050828281620000fc826200013d565b8051156200011d576200011b8282620001b460201b620003841760201c565b505b50620001269050565b6200013182620001e3565b505050505050620003c5565b62000153816200020760201b620003b01760201c565b620001905760405162461bcd60e51b815260040180806020018281038252603681526020018062000c286036913960400191505060405180910390fd5b7f360894a13ba1a3210667c828492db98dca3e2076cc3735a920a3ca505d382bbc55565b6060620001dc838360405180606001604052806027815260200162000c01602791396200020d565b9392505050565b7fb53127684a568b3173ae13b9f8a6016e243e63b6e8ee1178d6a717850b5d610355565b3b151590565b60606200021a8462000207565b620002575760405162461bcd60e51b815260040180806020018281038252602681526020018062000c5e6026913960400191505060405180910390fd5b60006060856001600160a01b0316856040518082805190602001908083835b60208310620002975780518252601f19909201916020918201910162000276565b6001836020036101000a038019825116818451168082178552505050505050905001915050600060405180830381855af49150503d8060008114620002f9576040519150601f19603f3d011682016040523d82523d6000602084013e620002fe565b606091505b509092509050620003118282866200031b565b9695505050505050565b606083156200032c575081620001dc565b8251156200033d5782518084602001fd5b8160405162461bcd60e51b81526004018080602001828103825283818151815260200191508051906020019080838360005b83811015620003895781810151838201526020016200036f565b50505050905090810190601f168015620003b75780820380516001836020036101000a031916815260200191505b509250505060405180910390fd5b61082c80620003d56000396000f3fe60806040526004361061004e5760003560e01c80633659cfe6146100655780634f1ef286146100985780635c60da1b146101185780638f28397014610149578063f851a4401461017c5761005d565b3661005d5761005b610191565b005b61005b610191565b34801561007157600080fd5b5061005b6004803603602081101561008857600080fd5b50356001600160a01b03166101ab565b61005b600480360360408110156100ae57600080fd5b6001600160a01b0382351691908101906040810160208201356401000000008111156100d957600080fd5b8201836020820111156100eb57600080fd5b8035906020019184600183028401116401000000008311171561010d57600080fd5b5090925090506101e5565b34801561012457600080fd5b5061012d610262565b604080516001600160a01b039092168252519081900360200190f35b34801561015557600080fd5b5061005b6004803603602081101561016c57600080fd5b50356001600160a01b031661029f565b34801561018857600080fd5b5061012d610359565b6101996103b6565b6101a96101a4610416565b61043b565b565b6101b361045f565b6001600160a01b0316336001600160a01b031614156101da576101d581610484565b6101e2565b6101e2610191565b50565b6101ed61045f565b6001600160a01b0316336001600160a01b031614156102555761020f83610484565b61024f8383838080601f01602080910402602001604051908101604052809392919081815260200183838082843760009201919091525061038492505050565b5061025d565b61025d610191565b505050565b600061026c61045f565b6001600160a01b0316336001600160a01b031614156102945761028d610416565b905061029c565b61029c610191565b90565b6102a761045f565b6001600160a01b0316336001600160a01b031614156101da576001600160a01b0381166103055760405162461bcd60e51b815260040180806020018281038252603a8152602001806106f8603a913960400191505060405180910390fd5b7f7e644d79422f17c01e4894b5f4f588d331ebfa28653d42ae832dc59e38c9798f61032e61045f565b604080516001600160a01b03928316815291841660208301528051918290030190a16101d5816104c4565b600061036361045f565b6001600160a01b0316336001600160a01b031614156102945761028d61045f565b60606103a98383604051806060016040528060278152602001610732602791396104e8565b9392505050565b3b151590565b6103be61045f565b6001600160a01b0316336001600160a01b0316141561040e5760405162461bcd60e51b81526004018080602001828103825260428152602001806107b56042913960600191505060405180910390fd5b6101a96101a9565b7f360894a13ba1a3210667c828492db98dca3e2076cc3735a920a3ca505d382bbc5490565b3660008037600080366000845af43d6000803e80801561045a573d6000f35b3d6000fd5b7fb53127684a568b3173ae13b9f8a6016e243e63b6e8ee1178d6a717850b5d61035490565b61048d816105eb565b6040516001600160a01b038216907fbc7cd75a20ee27fd9adebab32041f755214dbc6bffa90cc0225b39da2e5c2d3b90600090a250565b7fb53127684a568b3173ae13b9f8a6016e243e63b6e8ee1178d6a717850b5d610355565b60606104f3846103b0565b61052e5760405162461bcd60e51b815260040180806020018281038252602681526020018061078f6026913960400191505060405180910390fd5b60006060856001600160a01b0316856040518082805190602001908083835b6020831061056c5780518252601f19909201916020918201910161054d565b6001836020036101000a038019825116818451168082178552505050505050905001915050600060405180830381855af49150503d80600081146105cc576040519150601f19603f3d011682016040523d82523d6000602084013e6105d1565b606091505b50915091506105e1828286610653565b9695505050505050565b6105f4816103b0565b61062f5760405162461bcd60e51b81526004018080602001828103825260368152602001806107596036913960400191505060405180910390fd5b7f360894a13ba1a3210667c828492db98dca3e2076cc3735a920a3ca505d382bbc55565b606083156106625750816103a9565b8251156106725782518084602001fd5b8160405162461bcd60e51b81526004018080602001828103825283818151815260200191508051906020019080838360005b838110156106bc5781810151838201526020016106a4565b50505050905090810190601f1680156106e95780820380516001836020036101000a031916815260200191505b509250505060405180910390fdfe5472616e73706172656e745570677261646561626c6550726f78793a206e65772061646d696e20697320746865207a65726f2061646472657373416464726573733a206c6f772d6c6576656c2064656c65676174652063616c6c206661696c65645570677261646561626c6550726f78793a206e657720696d706c656d656e746174696f6e206973206e6f74206120636f6e7472616374416464726573733a2064656c65676174652063616c6c20746f206e6f6e2d636f6e74726163745472616e73706172656e745570677261646561626c6550726f78793a2061646d696e2063616e6e6f742066616c6c6261636b20746f2070726f787920746172676574a2646970667358221220ad4cc489585b8c2bd332b46fba9cfbb85df9a6e1d894d59c61e2cdbc2e70d83464736f6c63430007000033416464726573733a206c6f772d6c6576656c2064656c65676174652063616c6c206661696c65645570677261646561626c6550726f78793a206e657720696d706c656d656e746174696f6e206973206e6f74206120636f6e7472616374416464726573733a2064656c65676174652063616c6c20746f206e6f6e2d636f6e7472616374506f6f6c466163746f72793a3a637265617465506f6f6c202d20696e76616c6964206d696e20626f72726f7720616d6f756e744f776e61626c653a206e6577206f776e657220697320746865207a65726f2061646472657373506f6f6c466163746f72793a3a637265617465506f6f6c202d20426f72726f772072617465206e6f742077697468696e206c696d697473506f6f6c466163746f72793a3a637265617465506f6f6c202d205072696365206665656420646f65736e277420737570706f727420746f6b656e2070616972506f6f6c466163746f72793a3a6f6e6c79426f72726f776572202d204f6e6c7920612076616c696420426f72726f7765722063616e2063726561746520506f6f6c506f6f6c466163746f72793a3a637265617465506f6f6c202d20436f6c6c61746572616c20526174696f206e6f742077697468696e206c696d697473496e697469616c697a61626c653a20636f6e747261637420697320616c726561647920696e697469616c697a6564506f6f6c466163746f72793a3a637265617465506f6f6c202d204c6f616e206475726174696f6e206e6f742077697468696e206c696d697473506f6f6c466163746f72793a637265617465506f6f6c202d20496e76616c696420636f6c6c61746572616c20726174696f506f6f6c466163746f72793a3a637265617465506f6f6c202d20496e76616c6964207374726174656779e9da20d631ef06f93c14c03acd9bc8f22141e6fce63b1066f76c903adb73ea404f776e61626c653a2063616c6c6572206973206e6f7420746865206f776e6572506f6f6c466163746f72793a3a637265617465506f6f6c202d2052657061796d656e7420696e74657276616c206e6f742077697468696e206c696d697473506f6f6c466163746f72793a3a637265617465506f6f6c202d20496e76616c696420626f72726f7720746f6b656e2074797065506f6f6c466163746f72793a3a637265617465506f6f6c202d20506f6f6c53697a65206e6f742077697468696e206c696d697473506f6f6c466163746f72793a3a637265617465506f6f6c202d20496e76616c696420636f6c6c61746572616c20746f6b656e2074797065a26469706673582212204aa0c2583b9d28b54a796d1e26bf725b694d8e976695f684622b3a8bfb76aa4d64736f6c63430007000033",
  "linkReferences": {},
  "deployedLinkReferences": {}
}