{
  "_format": "hh-sol-artifact-1",
  "contractName": "Pool",
  "sourceName": "contracts/Pool/Pool.sol",
  "abi": [
    {
      "anonymous": false,
      "inputs": [
        {
          "indexed": false,
          "internalType": "uint256",
          "name": "amount",
          "type": "uint256"
        }
      ],
      "name": "AmountBorrowed",
      "type": "event"
    },
    {
      "anonymous": false,
      "inputs": [
        {
          "indexed": false,
          "internalType": "address",
          "name": "borrower",
          "type": "address"
        },
        {
          "indexed": false,
          "internalType": "uint256",
          "name": "amount",
          "type": "uint256"
        },
        {
          "indexed": false,
          "internalType": "uint256",
          "name": "sharesReceived",
          "type": "uint256"
        }
      ],
      "name": "CollateralAdded",
      "type": "event"
    },
    {
      "anonymous": false,
      "inputs": [
        {
          "indexed": false,
          "internalType": "address",
          "name": "borrower",
          "type": "address"
        },
        {
          "indexed": false,
          "internalType": "uint256",
          "name": "amount",
          "type": "uint256"
        }
      ],
      "name": "CollateralWithdrawn",
      "type": "event"
    },
    {
      "anonymous": false,
      "inputs": [
        {
          "indexed": false,
          "internalType": "address",
          "name": "liquidator",
          "type": "address"
        },
        {
          "indexed": false,
          "internalType": "address",
          "name": "lender",
          "type": "address"
        },
        {
          "indexed": false,
          "internalType": "uint256",
          "name": "_tokenReceived",
          "type": "uint256"
        }
      ],
      "name": "LenderLiquidated",
      "type": "event"
    },
    {
      "anonymous": false,
      "inputs": [
        {
          "indexed": false,
          "internalType": "uint256",
          "name": "amountSupplied",
          "type": "uint256"
        },
        {
          "indexed": false,
          "internalType": "address",
          "name": "lenderAddress",
          "type": "address"
        }
      ],
      "name": "LiquiditySupplied",
      "type": "event"
    },
    {
      "anonymous": false,
      "inputs": [
        {
          "indexed": false,
          "internalType": "uint256",
          "name": "amount",
          "type": "uint256"
        },
        {
          "indexed": false,
          "internalType": "address",
          "name": "lenderAddress",
          "type": "address"
        }
      ],
      "name": "LiquidityWithdrawn",
      "type": "event"
    },
    {
      "anonymous": false,
      "inputs": [
        {
          "indexed": false,
          "internalType": "address",
          "name": "borrower",
          "type": "address"
        },
        {
          "indexed": false,
          "internalType": "address",
          "name": "lender",
          "type": "address"
        },
        {
          "indexed": false,
          "internalType": "uint256",
          "name": "amount",
          "type": "uint256"
        },
        {
          "indexed": false,
          "internalType": "uint256",
          "name": "sharesReceived",
          "type": "uint256"
        }
      ],
      "name": "MarginCallCollateralAdded",
      "type": "event"
    },
    {
      "anonymous": false,
      "inputs": [
        {
          "indexed": false,
          "internalType": "address",
          "name": "lenderAddress",
          "type": "address"
        }
      ],
      "name": "MarginCalled",
      "type": "event"
    },
    {
      "anonymous": false,
      "inputs": [],
      "name": "OpenBorrowPoolCancelled",
      "type": "event"
    },
    {
      "anonymous": false,
      "inputs": [],
      "name": "OpenBorrowPoolClosed",
      "type": "event"
    },
    {
      "anonymous": false,
      "inputs": [],
      "name": "OpenBorrowPoolTerminated",
      "type": "event"
    },
    {
      "anonymous": false,
      "inputs": [
        {
          "indexed": false,
          "internalType": "address",
          "name": "liquidator",
          "type": "address"
        }
      ],
      "name": "PoolLiquidated",
      "type": "event"
    },
    {
      "inputs": [
        {
          "internalType": "address",
          "name": "_lender",
          "type": "address"
        },
        {
          "internalType": "uint256",
          "name": "_amount",
          "type": "uint256"
        },
        {
          "internalType": "bool",
          "name": "_transferFromSavingsAccount",
          "type": "bool"
        }
      ],
      "name": "addCollateralInMarginCall",
      "outputs": [],
      "stateMutability": "payable",
      "type": "function"
    },
    {
      "inputs": [
        {
          "internalType": "address",
          "name": "_from",
          "type": "address"
        },
        {
          "internalType": "address",
          "name": "_to",
          "type": "address"
        },
        {
          "internalType": "uint256",
          "name": "_amount",
          "type": "uint256"
        }
      ],
      "name": "beforeTransfer",
      "outputs": [],
      "stateMutability": "nonpayable",
      "type": "function"
    },
    {
      "inputs": [],
      "name": "borrower",
      "outputs": [
        {
          "internalType": "address",
          "name": "",
          "type": "address"
        }
      ],
      "stateMutability": "view",
      "type": "function"
    },
    {
      "inputs": [
        {
          "internalType": "uint256",
          "name": "_balance",
          "type": "uint256"
        },
        {
          "internalType": "uint256",
          "name": "_liquidityShares",
          "type": "uint256"
        }
      ],
      "name": "calculateCollateralRatio",
      "outputs": [
        {
          "internalType": "uint256",
          "name": "_ratio",
          "type": "uint256"
        }
      ],
      "stateMutability": "nonpayable",
      "type": "function"
    },
    {
      "inputs": [],
      "name": "calculateCurrentPeriod",
      "outputs": [
        {
          "internalType": "uint256",
          "name": "",
          "type": "uint256"
        }
      ],
      "stateMutability": "view",
      "type": "function"
    },
    {
      "inputs": [],
      "name": "cancelPool",
      "outputs": [],
      "stateMutability": "nonpayable",
      "type": "function"
    },
    {
      "inputs": [],
      "name": "closeLoan",
      "outputs": [],
      "stateMutability": "payable",
      "type": "function"
    },
    {
      "inputs": [
        {
          "internalType": "uint256",
          "name": "_totalCollateralTokens",
          "type": "uint256"
        },
        {
          "internalType": "address",
          "name": "_poolFactory",
          "type": "address"
        },
        {
          "internalType": "uint256",
          "name": "_fraction",
          "type": "uint256"
        }
      ],
      "name": "correspondingBorrowTokens",
      "outputs": [
        {
          "internalType": "uint256",
          "name": "",
          "type": "uint256"
        }
      ],
      "stateMutability": "view",
      "type": "function"
    },
    {
      "inputs": [
        {
          "internalType": "uint256",
          "name": "_amount",
          "type": "uint256"
        },
        {
          "internalType": "bool",
          "name": "_transferFromSavingsAccount",
          "type": "bool"
        }
      ],
      "name": "depositCollateral",
      "outputs": [],
      "stateMutability": "payable",
      "type": "function"
    },
    {
      "inputs": [
        {
          "internalType": "address",
          "name": "_lender",
          "type": "address"
        }
      ],
      "name": "getBalanceDetails",
      "outputs": [
        {
          "internalType": "uint256",
          "name": "",
          "type": "uint256"
        },
        {
          "internalType": "uint256",
          "name": "",
          "type": "uint256"
        }
      ],
      "stateMutability": "view",
      "type": "function"
    },
    {
      "inputs": [
        {
          "internalType": "address",
          "name": "_lender",
          "type": "address"
        }
      ],
      "name": "getCurrentCollateralRatio",
      "outputs": [
        {
          "internalType": "uint256",
          "name": "_ratio",
          "type": "uint256"
        }
      ],
      "stateMutability": "nonpayable",
      "type": "function"
    },
    {
      "inputs": [],
      "name": "getCurrentCollateralRatio",
      "outputs": [
        {
          "internalType": "uint256",
          "name": "_ratio",
          "type": "uint256"
        }
      ],
      "stateMutability": "nonpayable",
      "type": "function"
    },
    {
      "inputs": [
        {
          "internalType": "address",
          "name": "_source",
          "type": "address"
        },
        {
          "internalType": "address",
          "name": "_target",
          "type": "address"
        },
        {
          "internalType": "uint256",
          "name": "_amount",
          "type": "uint256"
        }
      ],
      "name": "getEquivalentTokens",
      "outputs": [
        {
          "internalType": "uint256",
          "name": "",
          "type": "uint256"
        }
      ],
      "stateMutability": "view",
      "type": "function"
    },
    {
      "inputs": [],
      "name": "getLoanStatus",
      "outputs": [
        {
          "internalType": "uint256",
          "name": "",
          "type": "uint256"
        }
      ],
      "stateMutability": "view",
      "type": "function"
    },
    {
      "inputs": [
        {
          "internalType": "address",
          "name": "_lender",
          "type": "address"
        }
      ],
      "name": "getMarginCallEndTime",
      "outputs": [
        {
          "internalType": "uint256",
          "name": "",
          "type": "uint256"
        }
      ],
      "stateMutability": "view",
      "type": "function"
    },
    {
      "inputs": [],
      "name": "getTotalSupply",
      "outputs": [
        {
          "internalType": "uint256",
          "name": "",
          "type": "uint256"
        }
      ],
      "stateMutability": "view",
      "type": "function"
    },
    {
      "inputs": [
        {
          "internalType": "uint256",
          "name": "_borrowAmountRequested",
          "type": "uint256"
        },
        {
          "internalType": "uint256",
          "name": "_minborrowAmount",
          "type": "uint256"
        },
        {
          "internalType": "address",
          "name": "_borrower",
          "type": "address"
        },
        {
          "internalType": "address",
          "name": "_borrowAsset",
          "type": "address"
        },
        {
          "internalType": "address",
          "name": "_collateralAsset",
          "type": "address"
        },
        {
          "internalType": "uint256",
          "name": "_idealCollateralRatio",
          "type": "uint256"
        },
        {
          "internalType": "uint256",
          "name": "_borrowRate",
          "type": "uint256"
        },
        {
          "internalType": "uint256",
          "name": "_repaymentInterval",
          "type": "uint256"
        },
        {
          "internalType": "uint256",
          "name": "_noOfRepaymentIntervals",
          "type": "uint256"
        },
        {
          "internalType": "address",
          "name": "_poolSavingsStrategy",
          "type": "address"
        },
        {
          "internalType": "uint256",
          "name": "_collateralAmount",
          "type": "uint256"
        },
        {
          "internalType": "bool",
          "name": "_transferFromSavingsAccount",
          "type": "bool"
        },
        {
          "internalType": "uint256",
          "name": "_loanWithdrawalDuration",
          "type": "uint256"
        },
        {
          "internalType": "uint256",
          "name": "_collectionPeriod",
          "type": "uint256"
        }
      ],
      "name": "initialize",
      "outputs": [],
      "stateMutability": "payable",
      "type": "function"
    },
    {
      "inputs": [
        {
          "internalType": "uint256",
          "name": "_balance",
          "type": "uint256"
        }
      ],
      "name": "interestPerPeriod",
      "outputs": [
        {
          "internalType": "uint256",
          "name": "",
          "type": "uint256"
        }
      ],
      "stateMutability": "view",
      "type": "function"
    },
    {
      "inputs": [
        {
          "internalType": "uint256",
          "name": "_principal",
          "type": "uint256"
        }
      ],
      "name": "interestPerSecond",
      "outputs": [
        {
          "internalType": "uint256",
          "name": "",
          "type": "uint256"
        }
      ],
      "stateMutability": "view",
      "type": "function"
    },
    {
      "inputs": [],
      "name": "interestTillNow",
      "outputs": [
        {
          "internalType": "uint256",
          "name": "",
          "type": "uint256"
        }
      ],
      "stateMutability": "view",
      "type": "function"
    },
    {
      "inputs": [
        {
          "internalType": "address",
          "name": "_lender",
          "type": "address"
        },
        {
          "internalType": "uint256",
          "name": "_amountLent",
          "type": "uint256"
        },
        {
          "internalType": "bool",
          "name": "_fromSavingsAccount",
          "type": "bool"
        }
      ],
      "name": "lend",
      "outputs": [],
      "stateMutability": "payable",
      "type": "function"
    },
    {
      "inputs": [
        {
          "internalType": "address",
          "name": "",
          "type": "address"
        }
      ],
      "name": "lenders",
      "outputs": [
        {
          "internalType": "uint256",
          "name": "principalWithdrawn",
          "type": "uint256"
        },
        {
          "internalType": "uint256",
          "name": "interestWithdrawn",
          "type": "uint256"
        },
        {
          "internalType": "uint256",
          "name": "lastVoteTime",
          "type": "uint256"
        },
        {
          "internalType": "uint256",
          "name": "marginCallEndTime",
          "type": "uint256"
        },
        {
          "internalType": "uint256",
          "name": "extraLiquidityShares",
          "type": "uint256"
        }
      ],
      "stateMutability": "view",
      "type": "function"
    },
    {
      "inputs": [
        {
          "internalType": "bool",
          "name": "_toSavingsAccount",
          "type": "bool"
        },
        {
          "internalType": "bool",
          "name": "_receiveLiquidityShare",
          "type": "bool"
        }
      ],
      "name": "liquidateCancelPenality",
      "outputs": [],
      "stateMutability": "nonpayable",
      "type": "function"
    },
    {
      "inputs": [
        {
          "internalType": "address",
          "name": "_lender",
          "type": "address"
        },
        {
          "internalType": "bool",
          "name": "_fromSavingsAccount",
          "type": "bool"
        },
        {
          "internalType": "bool",
          "name": "_toSavingsAccount",
          "type": "bool"
        },
        {
          "internalType": "bool",
          "name": "_recieveLiquidityShare",
          "type": "bool"
        }
      ],
      "name": "liquidateLender",
      "outputs": [],
      "stateMutability": "payable",
      "type": "function"
    },
    {
      "inputs": [
        {
          "internalType": "bool",
          "name": "_fromSavingsAccount",
          "type": "bool"
        },
        {
          "internalType": "bool",
          "name": "_toSavingsAccount",
          "type": "bool"
        },
        {
          "internalType": "bool",
          "name": "_recieveLiquidityShare",
          "type": "bool"
        }
      ],
      "name": "liquidatePool",
      "outputs": [],
      "stateMutability": "payable",
      "type": "function"
    },
    {
      "inputs": [],
      "name": "poolConstants",
      "outputs": [
        {
          "internalType": "address",
          "name": "borrower",
          "type": "address"
        },
        {
          "internalType": "uint256",
          "name": "borrowAmountRequested",
          "type": "uint256"
        },
        {
          "internalType": "uint256",
          "name": "minborrowAmount",
          "type": "uint256"
        },
        {
          "internalType": "uint256",
          "name": "loanStartTime",
          "type": "uint256"
        },
        {
          "internalType": "uint256",
          "name": "loanWithdrawalDeadline",
          "type": "uint256"
        },
        {
          "internalType": "address",
          "name": "borrowAsset",
          "type": "address"
        },
        {
          "internalType": "uint256",
          "name": "idealCollateralRatio",
          "type": "uint256"
        },
        {
          "internalType": "uint256",
          "name": "borrowRate",
          "type": "uint256"
        },
        {
          "internalType": "uint256",
          "name": "noOfRepaymentIntervals",
          "type": "uint256"
        },
        {
          "internalType": "uint256",
          "name": "repaymentInterval",
          "type": "uint256"
        },
        {
          "internalType": "address",
          "name": "collateralAsset",
          "type": "address"
        },
        {
          "internalType": "address",
          "name": "poolSavingsStrategy",
          "type": "address"
        },
        {
          "internalType": "address",
          "name": "lenderVerifier",
          "type": "address"
        }
      ],
      "stateMutability": "view",
      "type": "function"
    },
    {
      "inputs": [],
      "name": "poolToken",
      "outputs": [
        {
          "internalType": "contract IPoolToken",
          "name": "",
          "type": "address"
        }
      ],
      "stateMutability": "view",
      "type": "function"
    },
    {
      "inputs": [],
      "name": "poolVars",
      "outputs": [
        {
          "internalType": "uint256",
          "name": "baseLiquidityShares",
          "type": "uint256"
        },
        {
          "internalType": "uint256",
          "name": "extraLiquidityShares",
          "type": "uint256"
        },
        {
          "internalType": "enum Pool.LoanStatus",
          "name": "loanStatus",
          "type": "uint8"
        },
        {
          "internalType": "uint256",
          "name": "penalityLiquidityAmount",
          "type": "uint256"
        }
      ],
      "stateMutability": "view",
      "type": "function"
    },
    {
      "inputs": [],
      "name": "requestMarginCall",
      "outputs": [],
      "stateMutability": "nonpayable",
      "type": "function"
    },
    {
      "inputs": [
        {
          "internalType": "address",
          "name": "_poolToken",
          "type": "address"
        },
        {
          "internalType": "address",
          "name": "_lenderVerifier",
          "type": "address"
        }
      ],
      "name": "setConstants",
      "outputs": [],
      "stateMutability": "nonpayable",
      "type": "function"
    },
    {
      "inputs": [],
      "name": "terminateOpenBorrowPool",
      "outputs": [],
      "stateMutability": "nonpayable",
      "type": "function"
    },
    {
      "inputs": [],
      "name": "withdrawBorrowedAmount",
      "outputs": [],
      "stateMutability": "nonpayable",
      "type": "function"
    },
    {
      "inputs": [],
      "name": "withdrawLiquidity",
      "outputs": [],
      "stateMutability": "nonpayable",
      "type": "function"
    },
    {
      "inputs": [],
      "name": "withdrawRepayment",
      "outputs": [],
      "stateMutability": "nonpayable",
      "type": "function"
    },
    {
      "stateMutability": "payable",
      "type": "receive"
    }
  ],
  "bytecode": "0x608060405234801561001057600080fd5b5060018055615494806100246000396000f3fe6080604052600436106101fd5760003560e01c80637ea382c11161010d578063bda9e06b116100a0578063d2b93bfd1161006f578063d2b93bfd14610857578063d820d4c91461087c578063daf5539e146108a6578063e3bd9cb6146108d9578063e70d72d714610917576102bf565b8063bda9e06b146107e4578063c145fe69146107f9578063c4e41b221461082d578063cbdf382c14610842576102bf565b8063969dec34116100dc578063969dec3414610723578063acc1ab1314610738578063b2c092331461074d578063bb1a195f14610799576102bf565b80637ea382c11461068a5780637ee0682b1461069f57806383366c19146106d357806395f3f4561461070e576102bf565b80633fe3252011610190578063729544801161015f57806372954480146105a35780637320fc29146105e25780637489b451146106155780637729886f1461062a5780637df1f1b914610659576102bf565b80633fe325201461048c57806346b55fbb146104a15780635afaa80f146104d15780636886c81414610514576102bf565b8063272edaf2116101cc578063272edaf21461034b578063275ac252146103d057806328fd10d7146103fa5780632dea621414610458576102bf565b80630fc72889146102c45780631b55b2a8146102eb5780631ffb811f14610300578063232fa73314610343576102bf565b366102bf57600260009054906101000a90046001600160a01b03166001600160a01b031663ecced6236040518163ffffffff1660e01b815260040160206040518083038186803b15801561025057600080fd5b505afa158015610264573d6000803e3d6000fd5b505050506040513d602081101561027a57600080fd5b50516001600160a01b031633146102bd576040805162461bcd60e51b8152602060048201526002602482015261333560f01b604482015290519081900360640190fd5b005b600080fd5b3480156102d057600080fd5b506102d961092c565b60408051918252519081900360200190f35b3480156102f757600080fd5b506102bd61096c565b34801561030c57600080fd5b506102bd6004803603606081101561032357600080fd5b506001600160a01b03813581169160208101359091169060400135610b8c565b6102bd610e3c565b6102bd60048036036101c081101561036257600080fd5b508035906020810135906001600160a01b0360408201358116916060810135821691608082013581169160a08101359160c08201359160e081013591610100820135916101208101359091169061014081013590610160810135151590610180810135906101a0013561110c565b3480156103dc57600080fd5b506102d9600480360360208110156103f357600080fd5b503561126a565b34801561040657600080fd5b5061042d6004803603602081101561041d57600080fd5b50356001600160a01b0316611294565b6040805195865260208601949094528484019290925260608401526080830152519081900360a00190f35b6102bd6004803603606081101561046e57600080fd5b506001600160a01b03813516906020810135906040013515156112c4565b34801561049857600080fd5b506102d9611654565b3480156104ad57600080fd5b506102d9600480360360408110156104c457600080fd5b50803590602001356117e3565b3480156104dd57600080fd5b506102d9600480360360608110156104f457600080fd5b506001600160a01b038135811691602081013590911690604001356118e5565b34801561052057600080fd5b50610529611a06565b604080516001600160a01b039e8f168152602081019d909d528c81019b909b5260608c019990995260808b0197909752948a1660a08a015260c089019390935260e0880191909152610100870152610120860152851661014085015284166101608401529092166101808201529051908190036101a00190f35b3480156105af57600080fd5b506102d9600480360360608110156105c657600080fd5b508035906001600160a01b036020820135169060400135611a49565b3480156105ee57600080fd5b506102d96004803603602081101561060557600080fd5b50356001600160a01b0316611b7c565b34801561062157600080fd5b506102bd611c37565b6102bd6004803603606081101561064057600080fd5b5080351515906020810135151590604001351515611d40565b34801561066557600080fd5b5061066e61209c565b604080516001600160a01b039092168252519081900360200190f35b34801561069657600080fd5b506102bd6120ab565b3480156106ab57600080fd5b506102bd600480360360408110156106c257600080fd5b508035151590602001351515612586565b3480156106df57600080fd5b506102bd600480360360408110156106f657600080fd5b506001600160a01b038135811691602001351661277b565b34801561071a57600080fd5b506102bd6127ef565b34801561072f57600080fd5b506102bd612d3e565b34801561074457600080fd5b506102d9612f6f565b34801561075957600080fd5b506107806004803603602081101561077057600080fd5b50356001600160a01b0316612f88565b6040805192835260208301919091528051918290030190f35b3480156107a557600080fd5b506107ae61307d565b604051808581526020018481526020018360058111156107ca57fe5b815260200182815260200194505050505060405180910390f35b3480156107f057600080fd5b506102bd613092565b6102bd6004803603606081101561080f57600080fd5b506001600160a01b0381351690602081013590604001351515613356565b34801561083957600080fd5b506102d9613569565b34801561084e57600080fd5b5061066e6135df565b6102bd6004803603604081101561086d57600080fd5b508035906020013515156135ee565b34801561088857600080fd5b506102d96004803603602081101561089f57600080fd5b5035613633565b3480156108b257600080fd5b506102d9600480360360208110156108c957600080fd5b50356001600160a01b031661364d565b6102bd600480360360808110156108ef57600080fd5b506001600160a01b038135169060208101351515906040810135151590606001351515613779565b34801561092357600080fd5b506102d961399f565b600e546008546040805180820190915260028152610ccd60f21b602082015260009283926109659261095f914291613a38565b90613acf565b9150505b90565b60145460ff16600081600581111561098057fe5b146109b8576040805162461bcd60e51b815260206004820152600360248201526243503160e81b604482015290519081900360640190fd5b6008544281108015610a3b5750600754600354604080516318160ddd60e01b815290516001600160a01b03909216916318160ddd91600480820192602092909190829003018186803b158015610a0d57600080fd5b505afa158015610a21573d6000803e3d6000fd5b505050506040513d6020811015610a3757600080fd5b5051105b15610a5157610a4a6000613b36565b5050610b8a565b600954421015610aa0576005546001600160a01b03163314610aa0576040805162461bcd60e51b815260206004820152600360248201526221a81960e91b604482015290519081900360640190fd5b601254600e5442831015610ac557610ac2610abb4285613cba565b8290613d17565b90505b60025460408051636687e7b760e01b815290516000926001600160a01b031691636687e7b7916004808301926020929190829003018186803b158015610b0a57600080fd5b505afa158015610b1e573d6000803e3d6000fd5b505050506040513d6020811015610b3457600080fd5b5051600c54909150600090610b789068327cb2734119d3b7a9601e1b9061095f906301e133809082908890610b7290869084908d9084908d90613d71565b90613d71565b9050610b8381613b36565b5050505050505b565b60026001541415610bd2576040805162461bcd60e51b815260206004820152601f6024820152600080516020615362833981519152604482015290519081900360640190fd5b60026001556003546001600160a01b03163314610bee57600080fd5b610bf783611b7c565b15610c2e576040805162461bcd60e51b8152602060048201526002602482015261062760f31b604482015290519081900360640190fd5b610c3782611b7c565b15610c6e576040805162461bcd60e51b8152602060048201526002602482015261313960f01b604482015290519081900360640190fd5b610c7783613dca565b610c8082613dca565b6001600160a01b0383166000908152600460208190526040909120015480610ca85750610e33565b600354604080516370a0823160e01b81526001600160a01b0387811660048301529151849392909216916370a0823191602480820192602092909190829003018186803b158015610cf857600080fd5b505afa158015610d0c573d6000803e3d6000fd5b505050506040513d6020811015610d2257600080fd5b50518314610db557600354604080516370a0823160e01b81526001600160a01b0388811660048301529151610db29392909216916370a0823191602480820192602092909190829003018186803b158015610d7c57600080fd5b505afa158015610d90573d6000803e3d6000fd5b505050506040513d6020811015610da657600080fd5b505161095f8585613d71565b90505b6001600160a01b03851660009081526004602081905260409091200154610ddc9082613cba565b6001600160a01b0380871660009081526004602081905260408083208201949094559187168152919091200154610e139082613d17565b6001600160a01b0385166000908152600460208190526040909120015550505b50506001805550565b60026001541415610e82576040805162461bcd60e51b815260206004820152601f6024820152600080516020615362833981519152604482015290519081900360640190fd5b60026001819055546040805163171e108560e01b815290516001600160a01b039092169163171e108591600480820192602092909190829003018186803b158015610ecc57600080fd5b505afa158015610ee0573d6000803e3d6000fd5b505050506040513d6020811015610ef657600080fd5b50516001600160a01b03163314610f39576040805162461bcd60e51b8152602060048201526002602482015261323560f01b604482015290519081900360640190fd5b600160145460ff166005811115610f4c57fe5b14610f83576040805162461bcd60e51b8152602060048201526002602482015261191960f11b604482015290519081900360640190fd5b6014805460ff1916600290811790915554604080516302d5537b60e41b815290516001600160a01b0390921691632d5537b091600480820192602092909190829003018186803b158015610fd657600080fd5b505afa158015610fea573d6000803e3d6000fd5b505050506040513d602081101561100057600080fd5b5051604080516311f2df1b60e21b815290516001600160a01b03909216916347cb7c6c9160048082019260009290919082900301818387803b15801561104557600080fd5b505af1158015611059573d6000803e3d6000fd5b505060055461107592506001600160a01b031690506000613e3e565b600360009054906101000a90046001600160a01b03166001600160a01b0316638456cb596040518163ffffffff1660e01b8152600401600060405180830381600087803b1580156110c557600080fd5b505af11580156110d9573d6000803e3d6000fd5b50506040517f16806a4b81acb154f2a096d5f8d970f04bd4546e2a070933d28b8212cfc9ddce925060009150a160018055565b600054610100900460ff16806111255750611125613fef565b80611133575060005460ff16155b61116e5760405162461bcd60e51b815260040180806020018281038252602e8152602001806153b0602e913960400191505060405180910390fd5b600054610100900460ff16158015611199576000805460ff1961ff0019909116610100171660011790555b60028054336001600160a01b031991821617909155600a805482166001600160a01b038f811691909117909155600b8c9055600f805483168e83161790556010805490921690881617905560068f90556111f48d8686614000565b600580546001600160a01b0319166001600160a01b038f1617905560078e9055600c899055600d879055600e88905561122d4283613d17565b6008556112448361123e4285613d17565b90613d17565b6009558015611259576000805461ff00191690555b505050505050505050505050505050565b60008061128d6301e1338061095f60056007015486613d7190919063ffffffff16565b9392505050565b60046020819052600091825260409091208054600182015460028301546003840154939094015491939092909185565b6002600154141561130a576040805162461bcd60e51b815260206004820152601f6024820152600080516020615362833981519152604482015290519081900360640190fd5b60026001556011546001600160a01b0316801561145a57600260009054906101000a90046001600160a01b03166001600160a01b0316635c7460d66040518163ffffffff1660e01b815260040160206040518083038186803b15801561136f57600080fd5b505afa158015611383573d6000803e3d6000fd5b505050506040513d602081101561139957600080fd5b505160408051625a87b960e31b81526001600160a01b0387811660048301528481166024830152915191909216916302d43dc8916044808301926020929190829003018186803b1580156113ec57600080fd5b505afa158015611400573d6000803e3d6000fd5b505050506040513d602081101561141657600080fd5b505161145a576040805162461bcd60e51b815260206004820152600e60248201526d34b73b30b634b2103632b73232b960911b604482015290519081900360640190fd5b600060145460ff16600581111561146d57fe5b146114a4576040805162461bcd60e51b8152602060048201526002602482015261313560f01b604482015290519081900360640190fd5b60085442106114df576040805162461bcd60e51b8152602060048201526002602482015261189b60f11b604482015290519081900360640190fd5b600654600354604080516318160ddd60e01b815290518693926000926001600160a01b03909116916318160ddd91600480820192602092909190829003018186803b15801561152d57600080fd5b505afa158015611541573d6000803e3d6000fd5b505050506040513d602081101561155757600080fd5b50519050816115668783613d17565b1115611579576115768282613cba565b92505b600a546001600160a01b03166115958660008387823330614090565b50600354604080516340c10f1960e01b81526001600160a01b038b8116600483015260248201889052915191909216916340c10f1991604480830192600092919082900301818387803b1580156115eb57600080fd5b505af11580156115ff573d6000803e3d6000fd5b5050604080518781526001600160a01b038c16602082015281517ff09dbebdc018e2d81469b76b813a178bbc38dde6fd1056134b68f291a58802e29450908190039091019150a1505060018055505050505050565b6002546040805163171e108560e01b815290516000926001600160a01b03169183918291849163171e108591600480820192602092909190829003018186803b1580156116a057600080fd5b505afa1580156116b4573d6000803e3d6000fd5b505050506040513d60208110156116ca57600080fd5b50516040805160016216f02b60e01b0319815230600482015281516001600160a01b039093169263ffe90fd592602480840193919291829003018186803b15801561171457600080fd5b505afa158015611728573d6000803e3d6000fd5b505050506040513d604081101561173e57600080fd5b508051602090910151909250905060006117644268327cb2734119d3b7a9601e1b613d71565b60085490915060009061178e906117879068327cb2734119d3b7a9601e1b613d71565b8390613cba565b90508381116117a557600095505050505050610969565b60006117d8789f4f2726179a224501d762422c946590d9100000000000000061095f6117d18589613cba565b8790613d71565b965050505050505090565b6000806117ee611654565b600f546010549192506001600160a01b0390811691166000811561189457816001600160a01b03166359846d2987856040518363ffffffff1660e01b815260040180838152602001826001600160a01b0316815260200192505050602060405180830381600087803b15801561186357600080fd5b505af1158015611877573d6000803e3d6000fd5b505050506040513d602081101561188d57600080fd5b5051611896565b855b600a549091506000906118b49085906001600160a01b0316846118e5565b90506118d96118c38987613d17565b61095f8368327cb2734119d3b7a9601e1b613d71565b98975050505050505050565b6000806000600260009054906101000a90046001600160a01b03166001600160a01b0316632630c12f6040518163ffffffff1660e01b815260040160206040518083038186803b15801561193857600080fd5b505afa15801561194c573d6000803e3d6000fd5b505050506040513d602081101561196257600080fd5b5051604080516310603c1160e01b81526001600160a01b038981166004830152888116602483015282519316926310603c1192604480840193919291829003018186803b1580156119b257600080fd5b505afa1580156119c6573d6000803e3d6000fd5b505050506040513d60408110156119dc57600080fd5b50805160209091015190925090506119fc600a82900a61095f8685613d71565b9695505050505050565b600554600654600754600854600954600a54600b54600c54600d54600e54600f546010546011546001600160a01b039c8d169c978816979283169291821691168d565b600080839050600080826001600160a01b0316632630c12f6040518163ffffffff1660e01b815260040160206040518083038186803b158015611a8b57600080fd5b505afa158015611a9f573d6000803e3d6000fd5b505050506040513d6020811015611ab557600080fd5b5051600f54600a54604080516310603c1160e01b81526001600160a01b0393841660048201529183166024830152805192909316926310603c1192604480840193829003018186803b158015611b0a57600080fd5b505afa158015611b1e573d6000803e3d6000fd5b505050506040513d6040811015611b3457600080fd5b5080516020909101519092509050611b7168327cb2734119d3b7a9601e1b61095f611b5f8289613cba565b610b72600a86900a61095f8d89613d71565b979650505050505050565b600080600260009054906101000a90046001600160a01b03166001600160a01b0316639b9842c16040518163ffffffff1660e01b815260040160206040518083038186803b158015611bcd57600080fd5b505afa158015611be1573d6000803e3d6000fd5b505050506040513d6020811015611bf757600080fd5b50516001600160a01b038416600090815260046020526040902060030154909150611c26610abb836002613d71565b42111561128d575060009392505050565b600354604080516370a0823160e01b81523360048201819052915191926001600160a01b0316916370a0823191602480820192602092909190829003018186803b158015611c8457600080fd5b505afa158015611c98573d6000803e3d6000fd5b505050506040513d6020811015611cae57600080fd5b5051611ce5576040805162461bcd60e51b81526020600482015260016024820152601960f91b604482015290519081900360640190fd5b60026001541415611d2b576040805162461bcd60e51b815260206004820152601f6024820152600080516020615362833981519152604482015290519081900360640190fd5b6002600155611d3933613dca565b5060018055565b60026001541415611d86576040805162461bcd60e51b815260206004820152601f6024820152600080516020615362833981519152604482015290519081900360640190fd5b60026001819055601454905460ff909116906001600160a01b03166004826005811115611daf57fe5b14158015611e925750806001600160a01b031663171e10856040518163ffffffff1660e01b815260040160206040518083038186803b158015611df157600080fd5b505afa158015611e05573d6000803e3d6000fd5b505050506040513d6020811015611e1b57600080fd5b505160408051633bada68960e21b815230600482015290516001600160a01b039092169163eeb69a2491602480820192602092909190829003018186803b158015611e6557600080fd5b505afa158015611e79573d6000803e3d6000fd5b505050506040513d6020811015611e8f57600080fd5b50515b15611eaa576014805460ff1916600490811790915591505b6004826005811115611eb857fe5b14611ef45760405162461bcd60e51b815260040180806020018281038252603581526020018061532d6035913960400191505060405180910390fd5b600f54600a546013546012546001600160a01b039384169390921691600091611f1d9190613d17565b6010549091506001600160a01b0316818115611fb957816001600160a01b03166359846d2984876040518363ffffffff1660e01b815260040180838152602001826001600160a01b0316815260200192505050602060405180830381600087803b158015611f8a57600080fd5b505af1158015611f9e573d6000803e3d6000fd5b505050506040513d6020811015611fb457600080fd5b505190505b600061202a8288896001600160a01b031663acca944f6040518163ffffffff1660e01b815260040160206040518083038186803b158015611ff957600080fd5b505afa15801561200d573d6000803e3d6000fd5b505050506040513d602081101561202357600080fd5b5051611a49565b600060138190556012819055909150612049908c908784823330614090565b506120578a8a88868661419b565b506040805133815290517fc54b2aa56ebf583bfce79c646ac5d4618f0e44bc6874bd07194673a5bd2626a09181900360200190a1505060018055505050505050505050565b6005546001600160a01b031690565b600354604080516370a0823160e01b81523360048201819052915191926001600160a01b0316916370a0823191602480820192602092909190829003018186803b1580156120f857600080fd5b505afa15801561210c573d6000803e3d6000fd5b505050506040513d602081101561212257600080fd5b5051612159576040805162461bcd60e51b81526020600482015260016024820152601960f91b604482015290519081900360640190fd5b6002600154141561219f576040805162461bcd60e51b815260206004820152601f6024820152600080516020615362833981519152604482015290519081900360640190fd5b6002600181905560145460ff16908160058111156121b957fe5b14806121d0575060038160058111156121ce57fe5b145b806121e6575060048160058111156121e457fe5b145b806121fc575060058160058111156121fa57fe5b145b612232576040805162461bcd60e51b81526020600482015260026024820152610c8d60f21b604482015290519081900360640190fd5b600354604080516370a0823160e01b815233600482015290516000926001600160a01b0316916370a08231916024808301926020929190829003018186803b15801561227d57600080fd5b505afa158015612291573d6000803e3d6000fd5b505050506040513d60208110156122a757600080fd5b505190508060048360058111156122ba57fe5b14806122d1575060058360058111156122cf57fe5b145b156123eb57600a546000906001600160a01b03161561236857600a54604080516370a0823160e01b815230600482015290516001600160a01b03909216916370a0823191602480820192602092909190829003018186803b15801561233557600080fd5b505afa158015612349573d6000803e3d6000fd5b505050506040513d602081101561235f57600080fd5b5051905061236b565b50475b600354604080516318160ddd60e01b815290516123e7926001600160a01b0316916318160ddd916004808301926020929190829003018186803b1580156123b157600080fd5b505afa1580156123c5573d6000803e3d6000fd5b505050506040513d60208110156123db57600080fd5b505161095f8484613d71565b9150505b60038360058111156123f957fe5b14156124905761248d610abb600360009054906101000a90046001600160a01b03166001600160a01b03166318160ddd6040518163ffffffff1660e01b815260040160206040518083038186803b15801561245357600080fd5b505afa158015612467573d6000803e3d6000fd5b505050506040513d602081101561247d57600080fd5b505160155461095f908590613d71565b90505b3360009081526004602052604081205560028360058111156124ae57fe5b14156124bd576124bd33613dca565b60035460408051632770a7eb60e21b81523360048201526024810185905290516001600160a01b0390921691639dc29fac9160448082019260009290919082900301818387803b15801561251057600080fd5b505af1158015612524573d6000803e3d6000fd5b5050600a5461254192506001600160a01b0316905082303361422a565b506040805182815233602082015281517f971f63643b6d0341cf9c1971238adc8625537ce1c41ba0a9dfcbd784832bd5f9929181900390910190a15050600180555050565b600260015414156125cc576040805162461bcd60e51b815260206004820152601f6024820152600080516020615362833981519152604482015290519081900360640190fd5b6002600155600360145460ff1660058111156125e457fe5b14612610576040805162461bcd60e51b8152602060048201526000602482015290519081900360640190fd5b6015541561263f576040805162461bcd60e51b8152602060048201526000602482015290519081900360640190fd5b600254601054600f546012546001600160a01b0393841693928316929091169082156126eb57826001600160a01b03166359846d2982846040518363ffffffff1660e01b815260040180838152602001826001600160a01b0316815260200192505050602060405180830381600087803b1580156126bc57600080fd5b505af11580156126d0573d6000803e3d6000fd5b505050506040513d60208110156126e657600080fd5b505190505b600061272b8286876001600160a01b031663acca944f6040518163ffffffff1660e01b815260040160206040518083038186803b158015611ff957600080fd5b6015819055600a5490915061274b906001600160a01b031682333061422a565b50600f5460105461276d91899189916001600160a01b0390811691168661419b565b505060018055505050505050565b6002546001600160a01b031633146127be576040805162461bcd60e51b81526020600482015260016024820152601b60f91b604482015290519081900360640190fd5b601180546001600160a01b039283166001600160a01b03199182161790915560038054939092169216919091179055565b60055433906001600160a01b03168114612834576040805162461bcd60e51b81526020600482015260016024820152603160f81b604482015290519081900360640190fd5b6002600154141561287a576040805162461bcd60e51b815260206004820152601f6024820152600080516020615362833981519152604482015290519081900360640190fd5b6002600155601454600354604080516318160ddd60e01b8152905160ff909316926000926001600160a01b0316916318160ddd916004808301926020929190829003018186803b1580156128cd57600080fd5b505afa1580156128e1573d6000803e3d6000fd5b505050506040513d60208110156128f757600080fd5b50519050600082600581111561290957fe5b148015612917575060085442115b8015612924575060095442105b61295a576040805162461bcd60e51b8152602060048201526002602482015261189960f11b604482015290519081900360640190fd5b600754811015612996576040805162461bcd60e51b8152602060048201526002602482015261313360f01b604482015290519081900360640190fd5b6014805460ff1916600117905560006129ad61399f565b600254600f5460408051626c78a760e71b81526001600160a01b0392831660048201529051939450911691612a3991839163363c538091602480820192602092909190829003018186803b158015612a0457600080fd5b505afa158015612a18573d6000803e3d6000fd5b505050506040513d6020811015612a2e57600080fd5b5051600b5490613cba565b821015612a72576040805162461bcd60e51b81526020600482015260026024820152610c4d60f21b604482015290519081900360640190fd5b600d54600e546040805163171e108560e01b815290516001600160a01b0385169163171e1085916004808301926020929190829003018186803b158015612ab857600080fd5b505afa158015612acc573d6000803e3d6000fd5b505050506040513d6020811015612ae257600080fd5b5051600c54600854600a5460408051632447e4a760e11b81526004810188905260248101879052604481019490945260648401929092526001600160a01b039081166084840152905192169163488fc94e9160a48082019260009290919082900301818387803b158015612b5557600080fd5b505af1158015612b69573d6000803e3d6000fd5b50505050826001600160a01b0316632d5537b06040518163ffffffff1660e01b815260040160206040518083038186803b158015612ba657600080fd5b505afa158015612bba573d6000803e3d6000fd5b505050506040513d6020811015612bd057600080fd5b505160408051635ad3867560e11b81526004810184905290516001600160a01b039092169163b5a70cea9160248082019260009290919082900301818387803b158015612c1c57600080fd5b505af1158015612c30573d6000803e3d6000fd5b5050600a5460408051637bad520760e01b815281516001600160a01b039384169550600094508493891692637bad52079260048082019391829003018186803b158015612c7c57600080fd5b505afa158015612c90573d6000803e3d6000fd5b505050506040513d6040811015612ca657600080fd5b50805160209091015190925090506000612cd068327cb2734119d3b7a9601e1b61095f8b86613d71565b60006009559050612ce38482308561422a565b50612cf984612cf28b84613cba565b303361422a565b50604080518a815290517fd34aff353e8e4ad78ec390d5c4bd580941a8299db97e6c9b7a536ce2030d09899181900360200190a1505060018055505050505050505050565b600260009054906101000a90046001600160a01b03166001600160a01b0316638da5cb5b6040518163ffffffff1660e01b815260040160206040518083038186803b158015612d8c57600080fd5b505afa158015612da0573d6000803e3d6000fd5b505050506040513d6020811015612db657600080fd5b50516001600160a01b03163314612df8576040805162461bcd60e51b81526020600482015260016024820152603360f81b604482015290519081900360640190fd5b612e03336000613e3e565b600360009054906101000a90046001600160a01b03166001600160a01b0316638456cb596040518163ffffffff1660e01b8152600401600060405180830381600087803b158015612e5357600080fd5b505af1158015612e67573d6000803e3d6000fd5b50506014805460ff191660051790555050600254604080516302d5537b60e41b815290516001600160a01b0390921691632d5537b091600480820192602092909190829003018186803b158015612ebd57600080fd5b505afa158015612ed1573d6000803e3d6000fd5b505050506040513d6020811015612ee757600080fd5b5051604080516311f2df1b60e21b815290516001600160a01b03909216916347cb7c6c9160048082019260009290919082900301818387803b158015612f2c57600080fd5b505af1158015612f40573d6000803e3d6000fd5b50506040517f63565abe08812999f78f5a975601697854790c627fc35ad638bcf130f3e537c6925060009150a1565b60145460009060ff166005811115612f8357fe5b905090565b600354604080516370a0823160e01b81526001600160a01b03848116600483015291516000938493169182916370a0823191602480820192602092909190829003018186803b158015612fda57600080fd5b505afa158015612fee573d6000803e3d6000fd5b505050506040513d602081101561300457600080fd5b5051604080516318160ddd60e01b815290516001600160a01b038416916318160ddd916004808301926020929190829003018186803b15801561304657600080fd5b505afa15801561305a573d6000803e3d6000fd5b505050506040513d602081101561307057600080fd5b5051909350915050915091565b60125460135460145460155460ff9091169084565b600354604080516370a0823160e01b81523360048201819052915191926001600160a01b0316916370a0823191602480820192602092909190829003018186803b1580156130df57600080fd5b505afa1580156130f3573d6000803e3d6000fd5b505050506040513d602081101561310957600080fd5b5051613140576040805162461bcd60e51b81526020600482015260016024820152601960f91b604482015290519081900360640190fd5b600160145460ff16600581111561315357fe5b14613189576040805162461bcd60e51b81526020600482015260016024820152600d60fa1b604482015290519081900360640190fd5b6002546001600160a01b031661319e33611b7c565b156131d9576040805162461bcd60e51b81526020600480830191909152602482015263524d433160e01b604482015290519081900360640190fd5b600b54600f5460408051626c78a760e71b81526001600160a01b039283166004820152905161325f9285169163363c5380916024808301926020929190829003018186803b15801561322a57600080fd5b505afa15801561323e573d6000803e3d6000fd5b505050506040513d602081101561325457600080fd5b505161123e3361364d565b8111613297576040805162461bcd60e51b8152602060048201526002602482015261191b60f11b604482015290519081900360640190fd5b613306826001600160a01b0316639b9842c16040518163ffffffff1660e01b815260040160206040518083038186803b1580156132d357600080fd5b505afa1580156132e7573d6000803e3d6000fd5b505050506040513d60208110156132fd57600080fd5b50514290613d17565b33600081815260046020908152604091829020600301939093558051918252517f5334a046b9fb8040bcaa4dd9a9ecbbe06e299568931f336e4aa6bbf51d511b80929181900390910190a1505050565b6002600154141561339c576040805162461bcd60e51b815260206004820152601f6024820152600080516020615362833981519152604482015290519081900360640190fd5b6002600190815560145460ff1660058111156133b457fe5b146133ea576040805162461bcd60e51b81526020600482015260016024820152603960f81b604482015290519081900360640190fd5b426133f484611b7c565b101561342c576040805162461bcd60e51b8152602060048201526002602482015261031360f41b604482015290519081900360640190fd5b81613463576040805162461bcd60e51b8152602060048201526002602482015261313160f01b604482015290519081900360640190fd5b600f5460105460009161348b9184916001916001600160a01b03918216918891163330614090565b60135490915061349b9082613d17565b6013556001600160a01b038416600090815260046020819052604090912001546134c59082613d17565b6001600160a01b03851660009081526004602081905260409091200155600b546134ee8561364d565b10613510576001600160a01b0384166000908152600460205260408120600301555b604080513381526001600160a01b03861660208201528082018590526060810183905290517f7745b8ee282b3bb1a0958b211eb3a34506deb988e5488e560a63b83ce03ba9d99181900360800190a15050600180555050565b600354604080516318160ddd60e01b815290516000926001600160a01b0316916318160ddd916004808301926020929190829003018186803b1580156135ae57600080fd5b505afa1580156135c2573d6000803e3d6000fd5b505050506040513d60208110156135d857600080fd5b5051905090565b6003546001600160a01b031681565b81613624576040805162461bcd60e51b81526020600482015260016024820152603760f81b604482015290519081900360640190fd5b61362f338383614468565b5050565b6000613647600560090154610b728461126a565b92915050565b600354604080516370a0823160e01b81526001600160a01b0384811660048301529151600093849316916370a08231916024808301926020929190829003018186803b15801561369c57600080fd5b505afa1580156136b0573d6000803e3d6000fd5b505050506040513d60208110156136c657600080fd5b50516001600160a01b03808516600090815260046020818152604080842083015460035482516318160ddd60e01b81529251979850949661376596919561123e959216936318160ddd938084019391929190829003018186803b15801561372c57600080fd5b505afa158015613740573d6000803e3d6000fd5b505050506040513d602081101561375657600080fd5b505160125461095f9087613d71565b905061377182826117e3565b949350505050565b600260015414156137bf576040805162461bcd60e51b815260206004820152601f6024820152600080516020615362833981519152604482015290519081900360640190fd5b60026001556137cd84614540565b6010546001600160a01b03166000806137e587614789565b9092509050816001600160a01b0384161561387f57600f54604080516359846d2960e01b8152600481018690526001600160a01b0392831660248201529051918616916359846d29916044808201926020929091908290030181600087803b15801561385057600080fd5b505af1158015613864573d6000803e3d6000fd5b505050506040513d602081101561387a57600080fd5b505190505b61388a8789836148dc565b600f546000906138a890889088906001600160a01b0316888661419b565b60035460408051632770a7eb60e21b81526001600160a01b038d81166004830152602482018890529151939450911691639dc29fac9160448082019260009290919082900301818387803b1580156138ff57600080fd5b505af1158015613913573d6000803e3d6000fd5b5050506001600160a01b038a1660008181526004602081815260408084208481556001810185905560028101859055600381018590559092019290925580513381529182019290925280820184905290517f9b4fed4f3cd02b7624ed7521dce91b2f3aee138fc5c04d59f2f087e6b261a40d92509081900360600190a150506001805550505050505050565b60135460125460009182916139b391613d17565b9050610965600360009054906101000a90046001600160a01b03166001600160a01b03166318160ddd6040518163ffffffff1660e01b815260040160206040518083038186803b158015613a0657600080fd5b505afa158015613a1a573d6000803e3d6000fd5b505050506040513d6020811015613a3057600080fd5b5051826117e3565b60008184841115613ac75760405162461bcd60e51b81526004018080602001828103825283818151815260200191508051906020019080838360005b83811015613a8c578181015183820152602001613a74565b50505050905090810190601f168015613ab95780820380516001836020036101000a031916815260200191505b509250505060405180910390fd5b505050900390565b6000808211613b25576040805162461bcd60e51b815260206004820152601a60248201527f536166654d6174683a206469766973696f6e206279207a65726f000000000000604482015290519081900360640190fd5b818381613b2e57fe5b049392505050565b6014805460ff19166003179055600254604080516302d5537b60e41b815290516001600160a01b0390921691632d5537b091600480820192602092909190829003018186803b158015613b8857600080fd5b505afa158015613b9c573d6000803e3d6000fd5b505050506040513d6020811015613bb257600080fd5b5051604080516311f2df1b60e21b815290516001600160a01b03909216916347cb7c6c9160048082019260009290919082900301818387803b158015613bf757600080fd5b505af1158015613c0b573d6000803e3d6000fd5b5050600554613c2692506001600160a01b0316905082613e3e565b600360009054906101000a90046001600160a01b03166001600160a01b0316638456cb596040518163ffffffff1660e01b8152600401600060405180830381600087803b158015613c7657600080fd5b505af1158015613c8a573d6000803e3d6000fd5b50506040517f1b3fded7559ac6f503ef6da9a5c2322391699306cf412307650cebb15ba6ea28925060009150a150565b600082821115613d11576040805162461bcd60e51b815260206004820152601e60248201527f536166654d6174683a207375627472616374696f6e206f766572666c6f770000604482015290519081900360640190fd5b50900390565b60008282018381101561128d576040805162461bcd60e51b815260206004820152601b60248201527f536166654d6174683a206164646974696f6e206f766572666c6f770000000000604482015290519081900360640190fd5b600082613d8057506000613647565b82820282848281613d8d57fe5b041461128d5760405162461bcd60e51b81526004018080602001828103825260218152602001806153de6021913960400191505060405180910390fd5b6000613dd582614966565b905080613de25750613e3b565b6001600160a01b038216600090815260046020526040902060010154613e089082613d17565b6001600160a01b03808416600090815260046020526040902060010191909155600a54613e38911682308561422a565b50505b50565b601054600f546013546012546001600160a01b039384169390921691600091613e73918691613e6d9190613d17565b90613cba565b9050806001600160a01b03841615613f0b57836001600160a01b03166359846d2983856040518363ffffffff1660e01b815260040180838152602001826001600160a01b0316815260200192505050602060405180830381600087803b158015613edc57600080fd5b505af1158015613ef0573d6000803e3d6000fd5b505050506040513d6020811015613f0657600080fd5b505190505b6012859055600060138190558215613fa2576002546040805163ecced62360e01b815290516000926001600160a01b03169163ecced623916004808301926020929190829003018186803b158015613f6257600080fd5b505afa158015613f76573d6000803e3d6000fd5b505050506040513d6020811015613f8c57600080fd5b50519050613f9e81308a86898b614b6a565b9150505b604080516001600160a01b03891681526020810183905281517fc30fcfbcaac9e0deffa719714eaa82396ff506a0d0d0eebe170830177288715d929181900390910190a150505050505050565b6000613ffa30614cb5565b15905090565b600a54600f54600654600092614024926001600160a01b03918216929116906118e5565b600b549091506140469068327cb2734119d3b7a9601e1b9061095f9084613d71565b83101561407f576040805162461bcd60e51b8152602060048201526002602482015261199b60f11b604482015290519081900360640190fd5b61408a848484614468565b50505050565b6000871561411e576002546040805163ecced62360e01b81529051614117926001600160a01b03169163ecced623916004808301926020929190829003018186803b1580156140de57600080fd5b505afa1580156140f2573d6000803e3d6000fd5b505050506040513d602081101561410857600080fd5b50518484888a8960018e614cbb565b9050611b71565b6002546040805163ecced62360e01b815290516118d9926001600160a01b03169163ecced623916004808301926020929190829003018186803b15801561416457600080fd5b505afa158015614178573d6000803e3d6000fd5b505050506040513d602081101561418e57600080fd5b50518484888a8c8a614ce7565b600080600260009054906101000a90046001600160a01b03166001600160a01b031663ecced6236040518163ffffffff1660e01b815260040160206040518083038186803b1580156141ec57600080fd5b505afa158015614200573d6000803e3d6000fd5b505050506040513d602081101561421657600080fd5b50519050611b718130338689898c8e614cbb565b60008361423957506000613771565b6001600160a01b03851661442057833410156142865760405162461bcd60e51b815260040180806020018281038252602e815260200180615382602e913960400191505060405180910390fd5b6001600160a01b0382163014614330576040516000906001600160a01b0384169086908381818185875af1925050503d80600081146142e1576040519150601f19603f3d011682016040523d82523d6000602084013e6142e6565b606091505b505090508061432e576040805162461bcd60e51b815260206004820152600f60248201526e151c985b9cd9995c8819985a5b1959608a1b604482015290519081900360640190fd5b505b833411156143d057604051600090339034879003908381818185875af1925050503d806000811461437d576040519150601f19603f3d011682016040523d82523d6000602084013e614382565b606091505b50509050806143ca576040805162461bcd60e51b815260206004820152600f60248201526e151c985b9cd9995c8819985a5b1959608a1b604482015290519081900360640190fd5b50614419565b833414614419576040805162461bcd60e51b815260206004820152601260248201527124b739bab33334b1b4b2b73a1022ba3432b960711b604482015290519081900360640190fd5b5082613771565b6001600160a01b03831630141561444a576144456001600160a01b0386168386614d09565b61445f565b61445f6001600160a01b038616848487614d5b565b50919392505050565b600260015414156144ae576040805162461bcd60e51b815260206004820152601f6024820152600080516020615362833981519152604482015290519081900360640190fd5b60026001908155600f546010546000926144da9285926001600160a01b03918216918891168930614090565b6012549091506144ea9082613d17565b601255604080516001600160a01b03861681526020810185905280820183905290517f11f8990ac38271f23dea447d5728e9914fca7cea2edda43af6c43c415f8bc30b9181900360600190a15050600180555050565b600160145460ff16600581111561455357fe5b148015614561575060095442115b614597576040805162461bcd60e51b8152602060048201526002602482015261323760f01b604482015290519081900360640190fd5b6001600160a01b0381166000908152600460205260409020600301546145bc82611b7c565b61460d576040805162461bcd60e51b815260206004820152601f60248201527f4e6f206d617267696e2063616c6c20686173206265656e2063616c6c65642e00604482015290519081900360640190fd5b428110614646576040805162461bcd60e51b8152602060048201526002602482015261064760f31b604482015290519081900360640190fd5b61464f8261364d565b600254600f5460408051626c78a760e71b81526001600160a01b03928316600482015290516146a393929092169163363c538091602480820192602092909190829003018186803b158015612a0457600080fd5b116146da576040805162461bcd60e51b8152602060048201526002602482015261323960f01b604482015290519081900360640190fd5b600354604080516370a0823160e01b81526001600160a01b038581166004830152915191909216916370a08231916024808301926020929190829003018186803b15801561472757600080fd5b505afa15801561473b573d6000803e3d6000fd5b505050506040513d602081101561475157600080fd5b505161362f576040805162461bcd60e51b8152602060048201526002602482015261033360f41b604482015290519081900360640190fd5b601254600354604080516370a0823160e01b81526001600160a01b03858116600483015291516000948594909316916370a08231916024808301926020929190829003018186803b1580156147dd57600080fd5b505afa1580156147f1573d6000803e3d6000fd5b505050506040513d602081101561480757600080fd5b5051600354604080516318160ddd60e01b8152905192945060009261488b926001600160a01b0316916318160ddd916004808301926020929190829003018186803b15801561485557600080fd5b505afa158015614869573d6000803e3d6000fd5b505050506040513d602081101561487f57600080fd5b505161095f8486613d71565b6001600160a01b038616600090815260046020819052604090912001549091506148b58383613cba565b6012556013546148c59082613cba565b6013556148d28282613d17565b9450505050915091565b6010546002546040805163acca944f60e01b815290516001600160a01b0393841693909216916000916149349186918591829163acca944f916004808301926020929190829003018186803b158015611ff957600080fd5b600a549091506001600160a01b0316614953876000838588338c614090565b5061495d86613dca565b50505050505050565b600080600260009054906101000a90046001600160a01b03166001600160a01b031663171e10856040518163ffffffff1660e01b815260040160206040518083038186803b1580156149b757600080fd5b505afa1580156149cb573d6000803e3d6000fd5b505050506040513d60208110156149e157600080fd5b505160408051630a3371f560e11b815230600482015290516001600160a01b0390921691631466e3ea91602480820192602092909190829003018186803b158015614a2b57600080fd5b505afa158015614a3f573d6000803e3d6000fd5b505050506040513d6020811015614a5557600080fd5b50516001600160a01b0380851660009081526004602081815260408084206001015460035482516318160ddd60e01b815292519798509496613771969195613e6d959216936318160ddd938084019391929190829003018186803b158015614abc57600080fd5b505afa158015614ad0573d6000803e3d6000fd5b505050506040513d6020811015614ae657600080fd5b5051600354604080516370a0823160e01b81526001600160a01b038b81166004830152915161095f938a9316916370a08231916024808301926020929190829003018186803b158015614b3857600080fd5b505afa158015614b4c573d6000803e3d6000fd5b505050506040513d6020811015614b6257600080fd5b505190613d71565b60006001600160a01b038616301415614c125760408051633c6340f360e21b81526001600160a01b038581166004830152878116602483015284811660448301526064820187905291519189169163f18d03cc916084808201926020929091908290030181600087803b158015614be057600080fd5b505af1158015614bf4573d6000803e3d6000fd5b505050506040513d6020811015614c0a57600080fd5b50614caa9050565b60408051633713ade960e11b81526001600160a01b03858116600483015288811660248301528781166044830152848116606483015260848201879052915191891691636e275bd29160a4808201926020929091908290030181600087803b158015614c7d57600080fd5b505af1158015614c91573d6000803e3d6000fd5b505050506040513d6020811015614ca757600080fd5b50505b509195945050505050565b3b151590565b60008115614cd857614cd1898989898989614b6a565b90506118d9565b614cd189898989898989614db5565b60008215614cfd57614117888888888887614f11565b6141178486898961422a565b604080516001600160a01b038416602482015260448082018490528251808303909101815260649091019091526020810180516001600160e01b031663a9059cbb60e01b179052613e38908490614fec565b604080516001600160a01b0380861660248301528416604482015260648082018490528251808303909101815260849091019091526020810180516001600160e01b03166323b872dd60e01b17905261408a908590614fec565b60006001600160a01b038716301415614e6657604080516396885ed360e01b81526001600160a01b038881166004830152602482018890528681166044830152858116606483015284151560848301529151918a16916396885ed39160a4808201926020929091908290030181600087803b158015614e3357600080fd5b505af1158015614e47573d6000803e3d6000fd5b505050506040513d6020811015614e5d57600080fd5b50519050611b71565b60408051630bcbab2960e21b81526001600160a01b0389811660048301528881166024830152604482018890528681166064830152858116608483015284151560a48301529151918a1691632f2eaca49160c4808201926020929091908290030181600087803b158015614ed957600080fd5b505af1158015614eed573d6000803e3d6000fd5b505050506040513d6020811015614f0357600080fd5b505198975050505050505050565b6000614f1f8385883061422a565b5060006001600160a01b038416614f37575083614f5f565b826001600160a01b038116614f495750875b614f5d6001600160a01b038616828861509d565b505b6040805162a3da2560e61b8152600481018790526001600160a01b038681166024830152858116604483015288811660648301529151918a16916328f68940918491608480830192602092919082900301818588803b158015614fc157600080fd5b505af1158015614fd5573d6000803e3d6000fd5b50505050506040513d6020811015614f0357600080fd5b6060615041826040518060400160405280602081526020017f5361666545524332303a206c6f772d6c6576656c2063616c6c206661696c6564815250856001600160a01b03166151b09092919063ffffffff16565b805190915015613e385780806020019051602081101561506057600080fd5b5051613e385760405162461bcd60e51b815260040180806020018281038252602a8152602001806153ff602a913960400191505060405180910390fd5b801580615123575060408051636eb1769f60e11b81523060048201526001600160a01b03848116602483015291519185169163dd62ed3e91604480820192602092909190829003018186803b1580156150f557600080fd5b505afa158015615109573d6000803e3d6000fd5b505050506040513d602081101561511f57600080fd5b5051155b61515e5760405162461bcd60e51b81526004018080602001828103825260368152602001806154296036913960400191505060405180910390fd5b604080516001600160a01b038416602482015260448082018490528251808303909101815260649091019091526020810180516001600160e01b031663095ea7b360e01b179052613e38908490614fec565b60606137718484600085856151c485614cb5565b615215576040805162461bcd60e51b815260206004820152601d60248201527f416464726573733a2063616c6c20746f206e6f6e2d636f6e7472616374000000604482015290519081900360640190fd5b60006060866001600160a01b031685876040518082805190602001908083835b602083106152545780518252601f199092019160209182019101615235565b6001836020036101000a03801982511681845116808217855250505050505090500191505060006040518083038185875af1925050503d80600081146152b6576040519150601f19603f3d011682016040523d82523d6000602084013e6152bb565b606091505b5091509150611b71828286606083156152d557508161128d565b8251156152e55782518084602001fd5b60405162461bcd60e51b8152602060048201818152845160248401528451859391928392604401919085019080838360008315613a8c578181015183820152602001613a7456fe506f6f6c3a3a6c6971756964617465506f6f6c202d204e6f20726561736f6e20746f206c69717569646174652074686520706f6f6c5265656e7472616e637947756172643a207265656e7472616e742063616c6c006574686572732070726f76696465642073686f756c642062652067726561746572207468616e205f616d6f756e74496e697469616c697a61626c653a20636f6e747261637420697320616c726561647920696e697469616c697a6564536166654d6174683a206d756c7469706c69636174696f6e206f766572666c6f775361666545524332303a204552433230206f7065726174696f6e20646964206e6f7420737563636565645361666545524332303a20617070726f76652066726f6d206e6f6e2d7a65726f20746f206e6f6e2d7a65726f20616c6c6f77616e6365a2646970667358221220ef47bf49efe24c2236e5ea2e2068f4726f302f49deae8ff3b7ceb7f80e307e7e64736f6c63430007000033",
  "linkReferences": {},
  "deployedLinkReferences": {}
}