{
  "_format": "hh-sol-artifact-1",
  "contractName": "PriceOracle",
  "sourceName": "contracts/PriceOracle.sol",
  "abi": [
    {
      "anonymous": false,
      "inputs": [
        {
          "indexed": true,
          "internalType": "address",
          "name": "token",
          "type": "address"
        },
        {
          "indexed": true,
          "internalType": "address",
          "name": "priceOracle",
          "type": "address"
        }
      ],
      "name": "ChainlinkFeedUpdated",
      "type": "event"
    },
    {
      "anonymous": false,
      "inputs": [
        {
          "indexed": true,
          "internalType": "address",
          "name": "previousOwner",
          "type": "address"
        },
        {
          "indexed": true,
          "internalType": "address",
          "name": "newOwner",
          "type": "address"
        }
      ],
      "name": "OwnershipTransferred",
      "type": "event"
    },
    {
      "anonymous": false,
      "inputs": [
        {
          "indexed": true,
          "internalType": "address",
          "name": "token1",
          "type": "address"
        },
        {
          "indexed": true,
          "internalType": "address",
          "name": "token2",
          "type": "address"
        },
        {
          "indexed": false,
          "internalType": "bytes32",
          "name": "feedId",
          "type": "bytes32"
        },
        {
          "indexed": true,
          "internalType": "address",
          "name": "pool",
          "type": "address"
        }
      ],
      "name": "UniswapFeedUpdated",
      "type": "event"
    },
    {
      "anonymous": false,
      "inputs": [
        {
          "indexed": false,
          "internalType": "uint32",
          "name": "uniswapPriceAveragingPeriod",
          "type": "uint32"
        }
      ],
      "name": "UniswapPriceAveragingPeriodUpdated",
      "type": "event"
    },
    {
      "inputs": [
        {
          "internalType": "address",
          "name": "",
          "type": "address"
        }
      ],
      "name": "chainlinkFeedAddresses",
      "outputs": [
        {
          "internalType": "address",
          "name": "oracle",
          "type": "address"
        },
        {
          "internalType": "uint256",
          "name": "decimals",
          "type": "uint256"
        }
      ],
      "stateMutability": "view",
      "type": "function"
    },
    {
      "inputs": [
        {
          "internalType": "address",
          "name": "token1",
          "type": "address"
        },
        {
          "internalType": "address",
          "name": "token2",
          "type": "address"
        }
      ],
      "name": "doesFeedExist",
      "outputs": [
        {
          "internalType": "bool",
          "name": "",
          "type": "bool"
        }
      ],
      "stateMutability": "view",
      "type": "function"
    },
    {
      "inputs": [
        {
          "internalType": "address",
          "name": "num",
          "type": "address"
        },
        {
          "internalType": "address",
          "name": "den",
          "type": "address"
        }
      ],
      "name": "getChainlinkLatestPrice",
      "outputs": [
        {
          "internalType": "uint256",
          "name": "",
          "type": "uint256"
        },
        {
          "internalType": "uint256",
          "name": "",
          "type": "uint256"
        }
      ],
      "stateMutability": "view",
      "type": "function"
    },
    {
      "inputs": [
        {
          "internalType": "address",
          "name": "num",
          "type": "address"
        },
        {
          "internalType": "address",
          "name": "den",
          "type": "address"
        }
      ],
      "name": "getLatestPrice",
      "outputs": [
        {
          "internalType": "uint256",
          "name": "",
          "type": "uint256"
        },
        {
          "internalType": "uint256",
          "name": "",
          "type": "uint256"
        }
      ],
      "stateMutability": "view",
      "type": "function"
    },
    {
      "inputs": [
        {
          "internalType": "address",
          "name": "num",
          "type": "address"
        },
        {
          "internalType": "address",
          "name": "den",
          "type": "address"
        }
      ],
      "name": "getUniswapLatestPrice",
      "outputs": [
        {
          "internalType": "uint256",
          "name": "",
          "type": "uint256"
        },
        {
          "internalType": "uint256",
          "name": "",
          "type": "uint256"
        }
      ],
      "stateMutability": "view",
      "type": "function"
    },
    {
      "inputs": [
        {
          "internalType": "address",
          "name": "_admin",
          "type": "address"
        }
      ],
      "name": "initialize",
      "outputs": [],
      "stateMutability": "nonpayable",
      "type": "function"
    },
    {
      "inputs": [],
      "name": "owner",
      "outputs": [
        {
          "internalType": "address",
          "name": "",
          "type": "address"
        }
      ],
      "stateMutability": "view",
      "type": "function"
    },
    {
      "inputs": [],
      "name": "renounceOwnership",
      "outputs": [],
      "stateMutability": "nonpayable",
      "type": "function"
    },
    {
      "inputs": [
        {
          "internalType": "address",
          "name": "token",
          "type": "address"
        },
        {
          "internalType": "address",
          "name": "priceOracle",
          "type": "address"
        }
      ],
      "name": "setChainlinkFeedAddress",
      "outputs": [],
      "stateMutability": "nonpayable",
      "type": "function"
    },
    {
      "inputs": [
        {
          "internalType": "address",
          "name": "token1",
          "type": "address"
        },
        {
          "internalType": "address",
          "name": "token2",
          "type": "address"
        },
        {
          "internalType": "address",
          "name": "pool",
          "type": "address"
        }
      ],
      "name": "setUniswapFeedAddress",
      "outputs": [],
      "stateMutability": "nonpayable",
      "type": "function"
    },
    {
      "inputs": [
        {
          "internalType": "uint32",
          "name": "_uniswapPriceAveragingPeriod",
          "type": "uint32"
        }
      ],
      "name": "setUniswapPriceAveragingPeriod",
      "outputs": [],
      "stateMutability": "nonpayable",
      "type": "function"
    },
    {
      "inputs": [
        {
          "internalType": "address",
          "name": "newOwner",
          "type": "address"
        }
      ],
      "name": "transferOwnership",
      "outputs": [],
      "stateMutability": "nonpayable",
      "type": "function"
    },
    {
      "inputs": [
        {
          "internalType": "bytes32",
          "name": "",
          "type": "bytes32"
        }
      ],
      "name": "uniswapPools",
      "outputs": [
        {
          "internalType": "address",
          "name": "",
          "type": "address"
        }
      ],
      "stateMutability": "view",
      "type": "function"
    }
  ],
  "bytecode": "0x608060405234801561001057600080fd5b50611ae1806100206000396000f3fe608060405234801561001057600080fd5b50600436106100cf5760003560e01c806387a37f431161008c578063c4d66de811610066578063c4d66de81461027a578063f2fde38b146102a0578063f37eace8146102c6578063fa6fc430146102f4576100cf565b806387a37f43146101fb5780638da5cb5b146102445780638f8bb8221461024c576100cf565b80630393e8d5146100d45780630626a92b1461010d57806310603c1114610147578063252a62c11461018e578063633defbd146101b1578063715018a6146101f3575b600080fd5b6100f1600480360360208110156100ea57600080fd5b5035610322565b604080516001600160a01b039092168252519081900360200190f35b6101456004803603606081101561012357600080fd5b506001600160a01b03813581169160208101358216916040909101351661033d565b005b6101756004803603604081101561015d57600080fd5b506001600160a01b038135811691602001351661041b565b6040805192835260208301919091528051918290030190f35b610145600480360360208110156101a457600080fd5b503563ffffffff1661049d565b6101df600480360360408110156101c757600080fd5b506001600160a01b038135811691602001351661054d565b604080519115158252519081900360200190f35b6101456105e0565b6102216004803603602081101561021157600080fd5b50356001600160a01b031661068c565b604080516001600160a01b03909316835260208301919091528051918290030190f35b6100f16106b1565b6101756004803603604081101561026257600080fd5b506001600160a01b03813581169160200135166106c1565b6101456004803603602081101561029057600080fd5b50356001600160a01b0316610741565b610145600480360360208110156102b657600080fd5b50356001600160a01b03166107f5565b610175600480360360408110156102dc57600080fd5b506001600160a01b03813581169160200135166108f8565b6101456004803603604081101561030a57600080fd5b506001600160a01b0381358116916020013516610b0f565b6068602052600090815260409020546001600160a01b031681565b610345610c88565b6001600160a01b03166103566106b1565b6001600160a01b03161461039f576040805162461bcd60e51b81526020600482018190526024820152600080516020611a8c833981519152604482015290519081900360640190fd5b60006103ab8484610c8c565b60008181526068602090815260409182902080546001600160a01b0319166001600160a01b03878116918217909255835185815293519495509387821693918916927f2a74ffdf59cac90e9d1f660dffbf82ada64e214ee5aaa96586d4cb00e7bcc947928290030190a450505050565b60008060008061042b86866108f8565b90925090508015610440579092509050610496565b61044a86866106c1565b9092509050801561045f579092509050610496565b60405162461bcd60e51b8152600401808060200182810382526036815260200180611a076036913960400191505060405180910390fd5b9250929050565b6104a5610c88565b6001600160a01b03166104b66106b1565b6001600160a01b0316146104ff576040805162461bcd60e51b81526020600482018190526024820152600080516020611a8c833981519152604482015290519081900360640190fd5b6065805463ffffffff831663ffffffff19909116811790915560408051918252517fce1655e980fdd46c169857872ec226a0882674591ab7a135c66e1126dc8e47d89181900360200190a150565b6001600160a01b038281166000908152606660205260408120549091161580159061059157506001600160a01b038281166000908152606660205260409020541615155b1561059e575060016105da565b60006105aa8484610c8c565b6000818152606860205260409020549091506001600160a01b0316156105d45760019150506105da565b60009150505b92915050565b6105e8610c88565b6001600160a01b03166105f96106b1565b6001600160a01b031614610642576040805162461bcd60e51b81526020600482018190526024820152600080516020611a8c833981519152604482015290519081900360640190fd5b6033546040516000916001600160a01b0316907f8be0079c531659141344cd1fd0a4f28419497f9722a3daafe3b4186f6b6457e0908390a3603380546001600160a01b0319169055565b606660205260009081526040902080546001909101546001600160a01b039091169082565b6033546001600160a01b03165b90565b60008060006106d08585610c8c565b6000818152606860205260409020549091506001600160a01b0316806106fe57600080935093505050610496565b60655460009061071590839063ffffffff16610d44565b90506000610732826c0c9f2c9cd04674edea40000000898b611044565b98601e98509650505050505050565b600054610100900460ff168061075a575061075a61113b565b80610768575060005460ff16155b6107a35760405162461bcd60e51b815260040180806020018281038252602e815260200180611a3d602e913960400191505060405180910390fd5b600054610100900460ff161580156107ce576000805460ff1961ff0019909116610100171660011790555b6107d661114c565b6107df826107f5565b80156107f1576000805461ff00191690555b5050565b6107fd610c88565b6001600160a01b031661080e6106b1565b6001600160a01b031614610857576040805162461bcd60e51b81526020600482018190526024820152600080516020611a8c833981519152604482015290519081900360640190fd5b6001600160a01b03811661089c5760405162461bcd60e51b81526004018080602001828103825260268152602001806119e16026913960400191505060405180910390fd5b6033546040516001600160a01b038084169216907f8be0079c531659141344cd1fd0a4f28419497f9722a3daafe3b4186f6b6457e090600090a3603380546001600160a01b0319166001600160a01b0392909216919091179055565b60008061090361191e565b506001600160a01b038085166000908152606660209081526040918290208251808401909352805490931682526001909201549181019190915261094561191e565b506001600160a01b038085166000908152606660209081526040918290208251808401909352805484168352600101549082015282519091161580610992575080516001600160a01b0316155b156109a557600080935093505050610496565b60008083600001516001600160a01b031663feaf968c6040518163ffffffff1660e01b815260040160a06040518083038186803b1580156109e557600080fd5b505afa1580156109f9573d6000803e3d6000fd5b505050506040513d60a0811015610a0f57600080fd5b5060200151835160408051633fabe5a360e21b815290519294506001600160a01b039091169163feaf968c9160048082019260a092909190829003018186803b158015610a5b57600080fd5b505afa158015610a6f573d6000803e3d6000fd5b505050506040513d60a0811015610a8557600080fd5b506020908101516001600160a01b03808b16600090815260678452604080822054928c16825281205488850151948801519395509093610aff93600a93840a93610af993810a92610af39290820a9185918a9183916c0c9f2c9cd04674edea400000009187918f910a6111fe565b906111fe565b9061125e565b99601e9950975050505050505050565b610b17610c88565b6001600160a01b0316610b286106b1565b6001600160a01b031614610b71576040805162461bcd60e51b81526020600482018190526024820152600080516020611a8c833981519152604482015290519081900360640190fd5b6000816001600160a01b031663313ce5676040518163ffffffff1660e01b815260040160206040518083038186803b158015610bac57600080fd5b505afa158015610bc0573d6000803e3d6000fd5b505050506040513d6020811015610bd657600080fd5b50516040805180820182526001600160a01b03858116825260ff909316602080830182815288861660009081526066909252939020915182546001600160a01b031916941693909317815590516001909101559050610c34836112c5565b6001600160a01b0380851660008181526067602052604080822060ff9590951690945592519185169290917f3be680563c528780d5a9cd763a27b4a48ab5f9dc10e4083a2fa55b6fc5ff33e69190a3505050565b3390565b6000816001600160a01b0316836001600160a01b03161015610cf657828260405160200180836001600160a01b031660601b8152601401826001600160a01b031660601b8152601401925050506040516020818303038152906040528051906020012090506105da565b818360405160200180836001600160a01b031660601b8152601401826001600160a01b031660601b8152601401925050506040516020818303038152906040528051906020012090506105da565b600063ffffffff8216610d83576040805162461bcd60e51b8152602060048201526002602482015261042560f41b604482015290519081900360640190fd5b60408051600280825260608083018452926020830190803683370190505090508281600081518110610db157fe5b602002602001019063ffffffff16908163ffffffff1681525050600081600181518110610dda57fe5b63ffffffff90921660209283029190910182015260405163883bdbfd60e01b8152600481018281528351602483015283516060936001600160a01b0389169363883bdbfd9387939092839260440191858201910280838360005b83811015610e4c578181015183820152602001610e34565b505050509050019250505060006040518083038186803b158015610e6f57600080fd5b505afa158015610e83573d6000803e3d6000fd5b505050506040513d6000823e601f3d908101601f191682016040908152811015610eac57600080fd5b8101908080516040519392919084640100000000821115610ecc57600080fd5b908301906020820185811115610ee157600080fd5b8251866020820283011164010000000082111715610efe57600080fd5b82525081516020918201928201910280838360005b83811015610f2b578181015183820152602001610f13565b5050505090500160405260200180516040519392919084640100000000821115610f5457600080fd5b908301906020820185811115610f6957600080fd5b8251866020820283011164010000000082111715610f8657600080fd5b82525081516020918201928201910280838360005b83811015610fb3578181015183820152602001610f9b565b50505050905001604052505050509050600081600081518110610fd257fe5b602002602001015182600181518110610fe757fe5b60200260200101510390508463ffffffff168160060b8161100457fe5b05935060008160060b12801561102e57508463ffffffff168160060b8161102757fe5b0760060b15155b1561103b57600019909301925b50505092915050565b6000806110508661139e565b90506001600160801b036001600160a01b038216116110bf576001600160a01b038082168002908481169086161061109f5761109a600160c01b876001600160801b0316836116d0565b6110b7565b6110b781876001600160801b0316600160c01b6116d0565b925050611132565b60006110de6001600160a01b03831680680100000000000000006116d0565b9050836001600160a01b0316856001600160a01b03161061111657611111600160801b876001600160801b0316836116d0565b61112e565b61112e81876001600160801b0316600160801b6116d0565b9250505b50949350505050565b60006111463061177f565b15905090565b600054610100900460ff1680611165575061116561113b565b80611173575060005460ff16155b6111ae5760405162461bcd60e51b815260040180806020018281038252602e815260200180611a3d602e913960400191505060405180910390fd5b600054610100900460ff161580156111d9576000805460ff1961ff0019909116610100171660011790555b6111e1611785565b6111e9611825565b80156111fb576000805461ff00191690555b50565b60008261120d575060006105da565b8282028284828161121a57fe5b04146112575760405162461bcd60e51b8152600401808060200182810382526021815260200180611a6b6021913960400191505060405180910390fd5b9392505050565b60008082116112b4576040805162461bcd60e51b815260206004820152601a60248201527f536166654d6174683a206469766973696f6e206279207a65726f000000000000604482015290519081900360640190fd5b8183816112bd57fe5b049392505050565b60006001600160a01b0382166112dd57506012611399565b816001600160a01b031663313ce5676040518163ffffffff1660e01b815260040160206040518083038186803b15801561131657600080fd5b505afa92505050801561133b57506040513d602081101561133657600080fd5b505160015b6113965761134761193b565b80611352575061135c565b6000915050611399565b3d808015611386576040519150601f19603f3d011682016040523d82523d6000602084013e61138b565b606091505b506000915050611399565b90505b919050565b60008060008360020b126113b5578260020b6113bd565b8260020b6000035b9050620d89e88111156113fb576040805162461bcd60e51b81526020600482015260016024820152601560fa1b604482015290519081900360640190fd5b60006001821661140f57600160801b611421565b6ffffcb933bd6fad37aa2d162d1a5940015b70ffffffffffffffffffffffffffffffffff1690506002821615611455576ffff97272373d413259a46990580e213a0260801c5b6004821615611474576ffff2e50f5f656932ef12357cf3c7fdcc0260801c5b6008821615611493576fffe5caca7e10e4e61c3624eaa0941cd00260801c5b60108216156114b2576fffcb9843d60f6159c9db58835c9266440260801c5b60208216156114d1576fff973b41fa98c081472e6896dfb254c00260801c5b60408216156114f0576fff2ea16466c96a3843ec78b326b528610260801c5b608082161561150f576ffe5dee046a99a2a811c461f1969c30530260801c5b61010082161561152f576ffcbe86c7900a88aedcffc83b479aa3a40260801c5b61020082161561154f576ff987a7253ac413176f2b074cf7815e540260801c5b61040082161561156f576ff3392b0822b70005940c7a398e4b70f30260801c5b61080082161561158f576fe7159475a2c29b7443b29c7fa6e889d90260801c5b6110008216156115af576fd097f3bdfd2022b8845ad8f792aa58250260801c5b6120008216156115cf576fa9f746462d870fdf8a65dc1f90e061e50260801c5b6140008216156115ef576f70d869a156d2a1b890bb3df62baf32f70260801c5b61800082161561160f576f31be135f97d08fd981231505542fcfa60260801c5b62010000821615611630576f09aa508b5b7a84e1c677de54f3e99bc90260801c5b62020000821615611650576e5d6af8dedb81196699c329225ee6040260801c5b6204000082161561166f576d2216e584f5fa1ea926041bedfe980260801c5b6208000082161561168c576b048a170391f7dc42444e8fa20260801c5b60008460020b13156116a75780600019816116a357fe5b0490505b6401000000008106156116bb5760016116be565b60005b60ff16602082901c0192505050919050565b600080806000198587098686029250828110908390030390508061170657600084116116fb57600080fd5b508290049050611257565b80841161171257600080fd5b6000848688096000868103871696879004966002600389028118808a02820302808a02820302808a02820302808a02820302808a02820302808a02909103029181900381900460010186841190950394909402919094039290920491909117919091029150509392505050565b3b151590565b600054610100900460ff168061179e575061179e61113b565b806117ac575060005460ff16155b6117e75760405162461bcd60e51b815260040180806020018281038252602e815260200180611a3d602e913960400191505060405180910390fd5b600054610100900460ff161580156111e9576000805460ff1961ff00199091166101001716600117905580156111fb576000805461ff001916905550565b600054610100900460ff168061183e575061183e61113b565b8061184c575060005460ff16155b6118875760405162461bcd60e51b815260040180806020018281038252602e815260200180611a3d602e913960400191505060405180910390fd5b600054610100900460ff161580156118b2576000805460ff1961ff0019909116610100171660011790555b60006118bc610c88565b603380546001600160a01b0319166001600160a01b038316908117909155604051919250906000907f8be0079c531659141344cd1fd0a4f28419497f9722a3daafe3b4186f6b6457e0908290a35080156111fb576000805461ff001916905550565b604080518082019091526000808252602082015290565b60e01c90565b600060443d101561194b576106be565b600481823e6308c379a061195f8251611935565b14611969576106be565b6040513d600319016004823e80513d67ffffffffffffffff816024840111818411171561199957505050506106be565b828401925082519150808211156119b357505050506106be565b503d830160208284010111156119cb575050506106be565b601f01601f191681016020016040529150509056fe4f776e61626c653a206e6577206f776e657220697320746865207a65726f206164647265737350726963654f7261636c653a3a6765744c61746573745072696365202d205072696365204665656420646f65736e2774206578697374496e697469616c697a61626c653a20636f6e747261637420697320616c726561647920696e697469616c697a6564536166654d6174683a206d756c7469706c69636174696f6e206f766572666c6f774f776e61626c653a2063616c6c6572206973206e6f7420746865206f776e6572a2646970667358221220a727a8471170f82832aea537d0eed235d4e8cec61257600cd4d4d8622f6701b564736f6c63430007000033",
  "linkReferences": {},
  "deployedLinkReferences": {}
}