{
  "_format": "hh-sol-artifact-1",
  "contractName": "PriceOracle",
  "sourceName": "contracts/PriceOracle.sol",
  "abi": [
    {
      "anonymous": false,
      "inputs": [
        {
          "indexed": false,
          "internalType": "address",
          "name": "token",
          "type": "address"
        },
        {
          "indexed": false,
          "internalType": "address",
          "name": "priceOracle",
          "type": "address"
        }
      ],
      "name": "ChainlinkFeedUpdated",
      "type": "event"
    },
    {
      "anonymous": false,
      "inputs": [
        {
          "indexed": true,
          "internalType": "address",
          "name": "previousOwner",
          "type": "address"
        },
        {
          "indexed": true,
          "internalType": "address",
          "name": "newOwner",
          "type": "address"
        }
      ],
      "name": "OwnershipTransferred",
      "type": "event"
    },
    {
      "anonymous": false,
      "inputs": [
        {
          "indexed": false,
          "internalType": "address",
          "name": "token1",
          "type": "address"
        },
        {
          "indexed": false,
          "internalType": "address",
          "name": "token2",
          "type": "address"
        },
        {
          "indexed": false,
          "internalType": "bytes32",
          "name": "feedId",
          "type": "bytes32"
        },
        {
          "indexed": false,
          "internalType": "address",
          "name": "pool",
          "type": "address"
        }
      ],
      "name": "UniswapFeedUpdated",
      "type": "event"
    },
    {
      "anonymous": false,
      "inputs": [
        {
          "indexed": false,
          "internalType": "uint32",
          "name": "uniswapPriceAveragingPeriod",
          "type": "uint32"
        }
      ],
      "name": "UniswapPriceAveragingPeriodUpdated",
      "type": "event"
    },
    {
      "inputs": [
        {
          "internalType": "address",
          "name": "token1",
          "type": "address"
        },
        {
          "internalType": "address",
          "name": "token2",
          "type": "address"
        }
      ],
      "name": "doesFeedExist",
      "outputs": [
        {
          "internalType": "bool",
          "name": "",
          "type": "bool"
        }
      ],
      "stateMutability": "view",
      "type": "function"
    },
    {
      "inputs": [
        {
          "internalType": "address",
          "name": "num",
          "type": "address"
        },
        {
          "internalType": "address",
          "name": "den",
          "type": "address"
        }
      ],
      "name": "getChainlinkLatestPrice",
      "outputs": [
        {
          "internalType": "uint256",
          "name": "",
          "type": "uint256"
        },
        {
          "internalType": "uint256",
          "name": "",
          "type": "uint256"
        }
      ],
      "stateMutability": "view",
      "type": "function"
    },
    {
      "inputs": [
        {
          "internalType": "address",
          "name": "num",
          "type": "address"
        },
        {
          "internalType": "address",
          "name": "den",
          "type": "address"
        }
      ],
      "name": "getLatestPrice",
      "outputs": [
        {
          "internalType": "uint256",
          "name": "",
          "type": "uint256"
        },
        {
          "internalType": "uint256",
          "name": "",
          "type": "uint256"
        }
      ],
      "stateMutability": "view",
      "type": "function"
    },
    {
      "inputs": [
        {
          "internalType": "address",
          "name": "num",
          "type": "address"
        },
        {
          "internalType": "address",
          "name": "den",
          "type": "address"
        }
      ],
      "name": "getUniswapLatestPrice",
      "outputs": [
        {
          "internalType": "uint256",
          "name": "",
          "type": "uint256"
        },
        {
          "internalType": "uint256",
          "name": "",
          "type": "uint256"
        }
      ],
      "stateMutability": "view",
      "type": "function"
    },
    {
      "inputs": [
        {
          "internalType": "address",
          "name": "_admin",
          "type": "address"
        }
      ],
      "name": "initialize",
      "outputs": [],
      "stateMutability": "nonpayable",
      "type": "function"
    },
    {
      "inputs": [],
      "name": "owner",
      "outputs": [
        {
          "internalType": "address",
          "name": "",
          "type": "address"
        }
      ],
      "stateMutability": "view",
      "type": "function"
    },
    {
      "inputs": [],
      "name": "renounceOwnership",
      "outputs": [],
      "stateMutability": "nonpayable",
      "type": "function"
    },
    {
      "inputs": [
        {
          "internalType": "address",
          "name": "token",
          "type": "address"
        },
        {
          "internalType": "address",
          "name": "priceOracle",
          "type": "address"
        }
      ],
      "name": "setChainlinkFeedAddress",
      "outputs": [],
      "stateMutability": "nonpayable",
      "type": "function"
    },
    {
      "inputs": [
        {
          "internalType": "address",
          "name": "token1",
          "type": "address"
        },
        {
          "internalType": "address",
          "name": "token2",
          "type": "address"
        },
        {
          "internalType": "address",
          "name": "pool",
          "type": "address"
        }
      ],
      "name": "setUniswapFeedAddress",
      "outputs": [],
      "stateMutability": "nonpayable",
      "type": "function"
    },
    {
      "inputs": [
        {
          "internalType": "uint32",
          "name": "_uniswapPriceAveragingPeriod",
          "type": "uint32"
        }
      ],
      "name": "setUniswapPriceAveragingPeriod",
      "outputs": [],
      "stateMutability": "nonpayable",
      "type": "function"
    },
    {
      "inputs": [
        {
          "internalType": "address",
          "name": "newOwner",
          "type": "address"
        }
      ],
      "name": "transferOwnership",
      "outputs": [],
      "stateMutability": "nonpayable",
      "type": "function"
    }
  ],
  "bytecode": "0x608060405234801561001057600080fd5b50611a06806100206000396000f3fe608060405234801561001057600080fd5b50600436106100a95760003560e01c80638da5cb5b116100715780638da5cb5b1461019c5780638f8bb822146101c0578063c4d66de8146101ee578063f2fde38b14610214578063f37eace81461023a578063fa6fc43014610268576100a9565b80630626a92b146100ae57806310603c11146100e8578063252a62c11461012f578063633defbd14610152578063715018a614610194575b600080fd5b6100e6600480360360608110156100c457600080fd5b506001600160a01b038135811691602081013582169160409091013516610296565b005b610116600480360360408110156100fe57600080fd5b506001600160a01b0381358116916020013516610389565b6040805192835260208301919091528051918290030190f35b6100e66004803603602081101561014557600080fd5b503563ffffffff1661040b565b6101806004803603604081101561016857600080fd5b506001600160a01b03813581169160200135166104bb565b604080519115158252519081900360200190f35b6100e661054e565b6101a46105fa565b604080516001600160a01b039092168252519081900360200190f35b610116600480360360408110156101d657600080fd5b506001600160a01b038135811691602001351661060a565b6100e66004803603602081101561020457600080fd5b50356001600160a01b031661068a565b6100e66004803603602081101561022a57600080fd5b50356001600160a01b031661073e565b6101166004803603604081101561025057600080fd5b506001600160a01b0381358116916020013516610841565b6100e66004803603604081101561027e57600080fd5b506001600160a01b0381358116916020013516610a51565b61029e610bad565b6001600160a01b03166102af6105fa565b6001600160a01b0316146102f8576040805162461bcd60e51b815260206004820181905260248201526000805160206119b1833981519152604482015290519081900360640190fd5b60006103048484610bb1565b60008181526067602090815260409182902080546001600160a01b038088166001600160a01b031990921682179092558351898316815291881692820192909252808301849052606081019190915290519192507f2a74ffdf59cac90e9d1f660dffbf82ada64e214ee5aaa96586d4cb00e7bcc947919081900360800190a150505050565b6000806000806103998686610841565b909250905080156103ae579092509050610404565b6103b8868661060a565b909250905080156103cd579092509050610404565b60405162461bcd60e51b815260040180806020018281038252603681526020018061192c6036913960400191505060405180910390fd5b9250929050565b610413610bad565b6001600160a01b03166104246105fa565b6001600160a01b03161461046d576040805162461bcd60e51b815260206004820181905260248201526000805160206119b1833981519152604482015290519081900360640190fd5b6065805463ffffffff831663ffffffff19909116811790915560408051918252517fce1655e980fdd46c169857872ec226a0882674591ab7a135c66e1126dc8e47d89181900360200190a150565b6001600160a01b03828116600090815260666020526040812054909116158015906104ff57506001600160a01b038281166000908152606660205260409020541615155b1561050c57506001610548565b60006105188484610bb1565b6000818152606760205260409020549091506001600160a01b031615610542576001915050610548565b60009150505b92915050565b610556610bad565b6001600160a01b03166105676105fa565b6001600160a01b0316146105b0576040805162461bcd60e51b815260206004820181905260248201526000805160206119b1833981519152604482015290519081900360640190fd5b6033546040516000916001600160a01b0316907f8be0079c531659141344cd1fd0a4f28419497f9722a3daafe3b4186f6b6457e0908390a3603380546001600160a01b0319169055565b6033546001600160a01b03165b90565b60008060006106198585610bb1565b6000818152606760205260409020549091506001600160a01b03168061064757600080935093505050610404565b60655460009061065e90839063ffffffff16610c69565b9050600061067b826c0c9f2c9cd04674edea40000000898b610f69565b98601e98509650505050505050565b600054610100900460ff16806106a357506106a3611060565b806106b1575060005460ff16155b6106ec5760405162461bcd60e51b815260040180806020018281038252602e815260200180611962602e913960400191505060405180910390fd5b600054610100900460ff16158015610717576000805460ff1961ff0019909116610100171660011790555b61071f611071565b6107288261073e565b801561073a576000805461ff00191690555b5050565b610746610bad565b6001600160a01b03166107576105fa565b6001600160a01b0316146107a0576040805162461bcd60e51b815260206004820181905260248201526000805160206119b1833981519152604482015290519081900360640190fd5b6001600160a01b0381166107e55760405162461bcd60e51b81526004018080602001828103825260268152602001806119066026913960400191505060405180910390fd5b6033546040516001600160a01b038084169216907f8be0079c531659141344cd1fd0a4f28419497f9722a3daafe3b4186f6b6457e090600090a3603380546001600160a01b0319166001600160a01b0392909216919091179055565b60008061084c611843565b506001600160a01b038085166000908152606660209081526040918290208251808401909352805490931682526001909201549181019190915261088e611843565b506001600160a01b0380851660009081526066602090815260409182902082518084019093528054841683526001015490820152825190911615806108db575080516001600160a01b0316155b156108ee57600080935093505050610404565b60008083600001516001600160a01b031663feaf968c6040518163ffffffff1660e01b815260040160a06040518083038186803b15801561092e57600080fd5b505afa158015610942573d6000803e3d6000fd5b505050506040513d60a081101561095857600080fd5b5060200151835160408051633fabe5a360e21b815290519294506001600160a01b039091169163feaf968c9160048082019260a092909190829003018186803b1580156109a457600080fd5b505afa1580156109b8573d6000803e3d6000fd5b505050506040513d60a08110156109ce57600080fd5b506020015190506000610a416109e38a611123565b60ff16600a0a610a3b6109f58b611123565b60ff16600a0a610a358960200151600a0a610a3b88610a3b6c0c9f2c9cd04674edea40000000610a358e60200151600a0a8e6111fc90919063ffffffff16565b906111fc565b9061125c565b99601e9950975050505050505050565b610a59610bad565b6001600160a01b0316610a6a6105fa565b6001600160a01b031614610ab3576040805162461bcd60e51b815260206004820181905260248201526000805160206119b1833981519152604482015290519081900360640190fd5b6000816001600160a01b031663313ce5676040518163ffffffff1660e01b815260040160206040518083038186803b158015610aee57600080fd5b505afa158015610b02573d6000803e3d6000fd5b505050506040513d6020811015610b1857600080fd5b50516040805180820182526001600160a01b0385811680835260ff9094166020808401828152898416600081815260668452879020955186546001600160a01b03191695169490941785555160019094019390935583519182529181019390935281519093507f3be680563c528780d5a9cd763a27b4a48ab5f9dc10e4083a2fa55b6fc5ff33e69281900390910190a1505050565b3390565b6000816001600160a01b0316836001600160a01b03161015610c1b57828260405160200180836001600160a01b031660601b8152601401826001600160a01b031660601b815260140192505050604051602081830303815290604052805190602001209050610548565b828260405160200180836001600160a01b031660601b8152601401826001600160a01b031660601b815260140192505050604051602081830303815290604052805190602001209050610548565b600063ffffffff8216610ca8576040805162461bcd60e51b8152602060048201526002602482015261042560f41b604482015290519081900360640190fd5b60408051600280825260608083018452926020830190803683370190505090508281600081518110610cd657fe5b602002602001019063ffffffff16908163ffffffff1681525050600081600181518110610cff57fe5b63ffffffff90921660209283029190910182015260405163883bdbfd60e01b8152600481018281528351602483015283516060936001600160a01b0389169363883bdbfd9387939092839260440191858201910280838360005b83811015610d71578181015183820152602001610d59565b505050509050019250505060006040518083038186803b158015610d9457600080fd5b505afa158015610da8573d6000803e3d6000fd5b505050506040513d6000823e601f3d908101601f191682016040908152811015610dd157600080fd5b8101908080516040519392919084640100000000821115610df157600080fd5b908301906020820185811115610e0657600080fd5b8251866020820283011164010000000082111715610e2357600080fd5b82525081516020918201928201910280838360005b83811015610e50578181015183820152602001610e38565b5050505090500160405260200180516040519392919084640100000000821115610e7957600080fd5b908301906020820185811115610e8e57600080fd5b8251866020820283011164010000000082111715610eab57600080fd5b82525081516020918201928201910280838360005b83811015610ed8578181015183820152602001610ec0565b50505050905001604052505050509050600081600081518110610ef757fe5b602002602001015182600181518110610f0c57fe5b60200260200101510390508463ffffffff168160060b81610f2957fe5b05935060008160060b128015610f5357508463ffffffff168160060b81610f4c57fe5b0760060b15155b15610f6057600019909301925b50505092915050565b600080610f75866112c3565b90506001600160801b036001600160a01b03821611610fe4576001600160a01b0380821680029084811690861610610fc457610fbf600160c01b876001600160801b0316836115f5565b610fdc565b610fdc81876001600160801b0316600160c01b6115f5565b925050611057565b60006110036001600160a01b03831680680100000000000000006115f5565b9050836001600160a01b0316856001600160a01b03161061103b57611036600160801b876001600160801b0316836115f5565b611053565b61105381876001600160801b0316600160801b6115f5565b9250505b50949350505050565b600061106b306116a4565b15905090565b600054610100900460ff168061108a575061108a611060565b80611098575060005460ff16155b6110d35760405162461bcd60e51b815260040180806020018281038252602e815260200180611962602e913960400191505060405180910390fd5b600054610100900460ff161580156110fe576000805460ff1961ff0019909116610100171660011790555b6111066116aa565b61110e61174a565b8015611120576000805461ff00191690555b50565b60006001600160a01b03821661113b575060126111f7565b816001600160a01b031663313ce5676040518163ffffffff1660e01b815260040160206040518083038186803b15801561117457600080fd5b505afa92505050801561119957506040513d602081101561119457600080fd5b505160015b6111f4576111a5611860565b806111b057506111ba565b60009150506111f7565b3d8080156111e4576040519150601f19603f3d011682016040523d82523d6000602084013e6111e9565b606091505b5060009150506111f7565b90505b919050565b60008261120b57506000610548565b8282028284828161121857fe5b04146112555760405162461bcd60e51b81526004018080602001828103825260218152602001806119906021913960400191505060405180910390fd5b9392505050565b60008082116112b2576040805162461bcd60e51b815260206004820152601a60248201527f536166654d6174683a206469766973696f6e206279207a65726f000000000000604482015290519081900360640190fd5b8183816112bb57fe5b049392505050565b60008060008360020b126112da578260020b6112e2565b8260020b6000035b9050620d89e8811115611320576040805162461bcd60e51b81526020600482015260016024820152601560fa1b604482015290519081900360640190fd5b60006001821661133457600160801b611346565b6ffffcb933bd6fad37aa2d162d1a5940015b70ffffffffffffffffffffffffffffffffff169050600282161561137a576ffff97272373d413259a46990580e213a0260801c5b6004821615611399576ffff2e50f5f656932ef12357cf3c7fdcc0260801c5b60088216156113b8576fffe5caca7e10e4e61c3624eaa0941cd00260801c5b60108216156113d7576fffcb9843d60f6159c9db58835c9266440260801c5b60208216156113f6576fff973b41fa98c081472e6896dfb254c00260801c5b6040821615611415576fff2ea16466c96a3843ec78b326b528610260801c5b6080821615611434576ffe5dee046a99a2a811c461f1969c30530260801c5b610100821615611454576ffcbe86c7900a88aedcffc83b479aa3a40260801c5b610200821615611474576ff987a7253ac413176f2b074cf7815e540260801c5b610400821615611494576ff3392b0822b70005940c7a398e4b70f30260801c5b6108008216156114b4576fe7159475a2c29b7443b29c7fa6e889d90260801c5b6110008216156114d4576fd097f3bdfd2022b8845ad8f792aa58250260801c5b6120008216156114f4576fa9f746462d870fdf8a65dc1f90e061e50260801c5b614000821615611514576f70d869a156d2a1b890bb3df62baf32f70260801c5b618000821615611534576f31be135f97d08fd981231505542fcfa60260801c5b62010000821615611555576f09aa508b5b7a84e1c677de54f3e99bc90260801c5b62020000821615611575576e5d6af8dedb81196699c329225ee6040260801c5b62040000821615611594576d2216e584f5fa1ea926041bedfe980260801c5b620800008216156115b1576b048a170391f7dc42444e8fa20260801c5b60008460020b13156115cc5780600019816115c857fe5b0490505b6401000000008106156115e05760016115e3565b60005b60ff16602082901c0192505050919050565b600080806000198587098686029250828110908390030390508061162b576000841161162057600080fd5b508290049050611255565b80841161163757600080fd5b6000848688096000868103871696879004966002600389028118808a02820302808a02820302808a02820302808a02820302808a02820302808a02909103029181900381900460010186841190950394909402919094039290920491909117919091029150509392505050565b3b151590565b600054610100900460ff16806116c357506116c3611060565b806116d1575060005460ff16155b61170c5760405162461bcd60e51b815260040180806020018281038252602e815260200180611962602e913960400191505060405180910390fd5b600054610100900460ff1615801561110e576000805460ff1961ff0019909116610100171660011790558015611120576000805461ff001916905550565b600054610100900460ff16806117635750611763611060565b80611771575060005460ff16155b6117ac5760405162461bcd60e51b815260040180806020018281038252602e815260200180611962602e913960400191505060405180910390fd5b600054610100900460ff161580156117d7576000805460ff1961ff0019909116610100171660011790555b60006117e1610bad565b603380546001600160a01b0319166001600160a01b038316908117909155604051919250906000907f8be0079c531659141344cd1fd0a4f28419497f9722a3daafe3b4186f6b6457e0908290a3508015611120576000805461ff001916905550565b604080518082019091526000808252602082015290565b60e01c90565b600060443d101561187057610607565b600481823e6308c379a0611884825161185a565b1461188e57610607565b6040513d600319016004823e80513d67ffffffffffffffff81602484011181841117156118be5750505050610607565b828401925082519150808211156118d85750505050610607565b503d830160208284010111156118f057505050610607565b601f01601f191681016020016040529150509056fe4f776e61626c653a206e6577206f776e657220697320746865207a65726f206164647265737350726963654f7261636c653a3a6765744c61746573745072696365202d205072696365204665656420646f65736e2774206578697374496e697469616c697a61626c653a20636f6e747261637420697320616c726561647920696e697469616c697a6564536166654d6174683a206d756c7469706c69636174696f6e206f766572666c6f774f776e61626c653a2063616c6c6572206973206e6f7420746865206f776e6572a26469706673582212203e45ee51fefe39924ca3c3577e983bb167a7dfe9d869c1a1ac9f32edb309323464736f6c63430007000033",
  "linkReferences": {},
  "deployedLinkReferences": {}
}