{
  "_format": "hh-sol-artifact-1",
  "contractName": "Repayments",
  "sourceName": "contracts/Pool/Repayments.sol",
  "abi": [
    {
      "anonymous": false,
      "inputs": [
        {
          "indexed": false,
          "internalType": "uint256",
          "name": "gracePenaltyRate",
          "type": "uint256"
        }
      ],
      "name": "GracePenalityRateUpdated",
      "type": "event"
    },
    {
      "anonymous": false,
      "inputs": [
        {
          "indexed": false,
          "internalType": "uint256",
          "name": "gracePeriodFraction",
          "type": "uint256"
        }
      ],
      "name": "GracePeriodFractionUpdated",
      "type": "event"
    },
    {
      "anonymous": false,
      "inputs": [
        {
          "indexed": false,
          "internalType": "address",
          "name": "poolID",
          "type": "address"
        },
        {
          "indexed": false,
          "internalType": "uint256",
          "name": "repayAmount",
          "type": "uint256"
        }
      ],
      "name": "InterestRepaid",
      "type": "event"
    },
    {
      "anonymous": false,
      "inputs": [
        {
          "indexed": false,
          "internalType": "address",
          "name": "poolID",
          "type": "address"
        }
      ],
      "name": "MissedRepaymentRepaid",
      "type": "event"
    },
    {
      "anonymous": false,
      "inputs": [
        {
          "indexed": false,
          "internalType": "address",
          "name": "poolID",
          "type": "address"
        }
      ],
      "name": "PartialExtensionRepaymentMade",
      "type": "event"
    },
    {
      "anonymous": false,
      "inputs": [
        {
          "indexed": false,
          "internalType": "address",
          "name": "poolFactory",
          "type": "address"
        }
      ],
      "name": "PoolFactoryUpdated",
      "type": "event"
    },
    {
      "anonymous": false,
      "inputs": [
        {
          "indexed": false,
          "internalType": "address",
          "name": "savingsAccount",
          "type": "address"
        }
      ],
      "name": "SavingsAccountUpdated",
      "type": "event"
    },
    {
      "inputs": [
        {
          "internalType": "address",
          "name": "_poolID",
          "type": "address"
        }
      ],
      "name": "didBorrowerDefault",
      "outputs": [
        {
          "internalType": "bool",
          "name": "",
          "type": "bool"
        }
      ],
      "stateMutability": "view",
      "type": "function"
    },
    {
      "inputs": [
        {
          "internalType": "address",
          "name": "_poolID",
          "type": "address"
        }
      ],
      "name": "getCurrentInstalmentInterval",
      "outputs": [
        {
          "internalType": "uint256",
          "name": "",
          "type": "uint256"
        }
      ],
      "stateMutability": "view",
      "type": "function"
    },
    {
      "inputs": [
        {
          "internalType": "address",
          "name": "_poolID",
          "type": "address"
        }
      ],
      "name": "getCurrentLoanInterval",
      "outputs": [
        {
          "internalType": "uint256",
          "name": "",
          "type": "uint256"
        }
      ],
      "stateMutability": "view",
      "type": "function"
    },
    {
      "inputs": [],
      "name": "getGracePeriodFraction",
      "outputs": [
        {
          "internalType": "uint256",
          "name": "",
          "type": "uint256"
        }
      ],
      "stateMutability": "view",
      "type": "function"
    },
    {
      "inputs": [
        {
          "internalType": "address",
          "name": "_poolID",
          "type": "address"
        }
      ],
      "name": "getInstalmentsCompleted",
      "outputs": [
        {
          "internalType": "uint256",
          "name": "",
          "type": "uint256"
        }
      ],
      "stateMutability": "view",
      "type": "function"
    },
    {
      "inputs": [
        {
          "internalType": "address",
          "name": "_poolID",
          "type": "address"
        }
      ],
      "name": "getInterestCalculationVars",
      "outputs": [
        {
          "internalType": "uint256",
          "name": "",
          "type": "uint256"
        },
        {
          "internalType": "uint256",
          "name": "",
          "type": "uint256"
        }
      ],
      "stateMutability": "view",
      "type": "function"
    },
    {
      "inputs": [
        {
          "internalType": "address",
          "name": "_poolID",
          "type": "address"
        }
      ],
      "name": "getInterestDueTillInstalmentDeadline",
      "outputs": [
        {
          "internalType": "uint256",
          "name": "",
          "type": "uint256"
        }
      ],
      "stateMutability": "view",
      "type": "function"
    },
    {
      "inputs": [
        {
          "internalType": "address",
          "name": "_poolID",
          "type": "address"
        }
      ],
      "name": "getInterestLeft",
      "outputs": [
        {
          "internalType": "uint256",
          "name": "",
          "type": "uint256"
        }
      ],
      "stateMutability": "view",
      "type": "function"
    },
    {
      "inputs": [
        {
          "internalType": "address",
          "name": "_poolID",
          "type": "address"
        }
      ],
      "name": "getInterestOverdue",
      "outputs": [
        {
          "internalType": "uint256",
          "name": "",
          "type": "uint256"
        }
      ],
      "stateMutability": "view",
      "type": "function"
    },
    {
      "inputs": [
        {
          "internalType": "address",
          "name": "_poolID",
          "type": "address"
        }
      ],
      "name": "getInterestPerSecond",
      "outputs": [
        {
          "internalType": "uint256",
          "name": "",
          "type": "uint256"
        }
      ],
      "stateMutability": "view",
      "type": "function"
    },
    {
      "inputs": [
        {
          "internalType": "address",
          "name": "_poolID",
          "type": "address"
        }
      ],
      "name": "getNextInstalmentDeadline",
      "outputs": [
        {
          "internalType": "uint256",
          "name": "",
          "type": "uint256"
        }
      ],
      "stateMutability": "view",
      "type": "function"
    },
    {
      "inputs": [
        {
          "internalType": "address",
          "name": "_poolID",
          "type": "address"
        }
      ],
      "name": "getTotalRepaidAmount",
      "outputs": [
        {
          "internalType": "uint256",
          "name": "",
          "type": "uint256"
        }
      ],
      "stateMutability": "view",
      "type": "function"
    },
    {
      "inputs": [
        {
          "internalType": "address",
          "name": "_poolFactory",
          "type": "address"
        },
        {
          "internalType": "uint256",
          "name": "_gracePenaltyRate",
          "type": "uint256"
        },
        {
          "internalType": "uint256",
          "name": "_gracePeriodFraction",
          "type": "uint256"
        },
        {
          "internalType": "address",
          "name": "_savingsAccount",
          "type": "address"
        }
      ],
      "name": "initialize",
      "outputs": [],
      "stateMutability": "nonpayable",
      "type": "function"
    },
    {
      "inputs": [
        {
          "internalType": "uint256",
          "name": "numberOfTotalRepayments",
          "type": "uint256"
        },
        {
          "internalType": "uint256",
          "name": "repaymentInterval",
          "type": "uint256"
        },
        {
          "internalType": "uint256",
          "name": "borrowRate",
          "type": "uint256"
        },
        {
          "internalType": "uint256",
          "name": "loanStartTime",
          "type": "uint256"
        },
        {
          "internalType": "address",
          "name": "lentAsset",
          "type": "address"
        }
      ],
      "name": "initializeRepayment",
      "outputs": [],
      "stateMutability": "nonpayable",
      "type": "function"
    },
    {
      "inputs": [
        {
          "internalType": "address",
          "name": "_poolID",
          "type": "address"
        },
        {
          "internalType": "uint256",
          "name": "_period",
          "type": "uint256"
        }
      ],
      "name": "instalmentDeadlineExtended",
      "outputs": [],
      "stateMutability": "nonpayable",
      "type": "function"
    },
    {
      "inputs": [
        {
          "internalType": "address",
          "name": "_poolID",
          "type": "address"
        }
      ],
      "name": "isGracePenaltyApplicable",
      "outputs": [
        {
          "internalType": "bool",
          "name": "",
          "type": "bool"
        }
      ],
      "stateMutability": "view",
      "type": "function"
    },
    {
      "inputs": [
        {
          "internalType": "address",
          "name": "_poolID",
          "type": "address"
        },
        {
          "internalType": "uint256",
          "name": "_amount",
          "type": "uint256"
        }
      ],
      "name": "repayAmount",
      "outputs": [],
      "stateMutability": "payable",
      "type": "function"
    },
    {
      "inputs": [
        {
          "internalType": "address payable",
          "name": "_poolID",
          "type": "address"
        },
        {
          "internalType": "uint256",
          "name": "_amount",
          "type": "uint256"
        }
      ],
      "name": "repayPrincipal",
      "outputs": [],
      "stateMutability": "payable",
      "type": "function"
    },
    {
      "inputs": [
        {
          "internalType": "address",
          "name": "",
          "type": "address"
        }
      ],
      "name": "repaymentConstants",
      "outputs": [
        {
          "internalType": "uint256",
          "name": "numberOfTotalRepayments",
          "type": "uint256"
        },
        {
          "internalType": "uint256",
          "name": "gracePenaltyRate",
          "type": "uint256"
        },
        {
          "internalType": "uint256",
          "name": "gracePeriodFraction",
          "type": "uint256"
        },
        {
          "internalType": "uint256",
          "name": "loanDuration",
          "type": "uint256"
        },
        {
          "internalType": "uint256",
          "name": "repaymentInterval",
          "type": "uint256"
        },
        {
          "internalType": "uint256",
          "name": "borrowRate",
          "type": "uint256"
        },
        {
          "internalType": "uint256",
          "name": "loanStartTime",
          "type": "uint256"
        },
        {
          "internalType": "address",
          "name": "repayAsset",
          "type": "address"
        },
        {
          "internalType": "address",
          "name": "savingsAccount",
          "type": "address"
        }
      ],
      "stateMutability": "view",
      "type": "function"
    },
    {
      "inputs": [
        {
          "internalType": "address",
          "name": "",
          "type": "address"
        }
      ],
      "name": "repaymentVars",
      "outputs": [
        {
          "internalType": "uint256",
          "name": "totalRepaidAmount",
          "type": "uint256"
        },
        {
          "internalType": "uint256",
          "name": "repaymentPeriodCovered",
          "type": "uint256"
        },
        {
          "internalType": "uint256",
          "name": "repaidAmount",
          "type": "uint256"
        },
        {
          "internalType": "bool",
          "name": "isLoanExtensionActive",
          "type": "bool"
        },
        {
          "internalType": "uint256",
          "name": "loanDurationCovered",
          "type": "uint256"
        },
        {
          "internalType": "uint256",
          "name": "nextDuePeriod",
          "type": "uint256"
        },
        {
          "internalType": "uint256",
          "name": "nInstalmentsFullyPaid",
          "type": "uint256"
        },
        {
          "internalType": "uint256",
          "name": "loanExtensionPeriod",
          "type": "uint256"
        }
      ],
      "stateMutability": "view",
      "type": "function"
    },
    {
      "inputs": [
        {
          "internalType": "uint256",
          "name": "_gracePenaltyRate",
          "type": "uint256"
        }
      ],
      "name": "updateGracePenalityRate",
      "outputs": [],
      "stateMutability": "nonpayable",
      "type": "function"
    },
    {
      "inputs": [
        {
          "internalType": "uint256",
          "name": "_gracePeriodFraction",
          "type": "uint256"
        }
      ],
      "name": "updateGracePeriodFraction",
      "outputs": [],
      "stateMutability": "nonpayable",
      "type": "function"
    },
    {
      "inputs": [
        {
          "internalType": "address",
          "name": "_poolFactory",
          "type": "address"
        }
      ],
      "name": "updatePoolFactory",
      "outputs": [],
      "stateMutability": "nonpayable",
      "type": "function"
    },
    {
      "inputs": [
        {
          "internalType": "address",
          "name": "_savingsAccount",
          "type": "address"
        }
      ],
      "name": "updateSavingsAccount",
      "outputs": [],
      "stateMutability": "nonpayable",
      "type": "function"
    }
  ],
  "bytecode": "0x608060405234801561001057600080fd5b5060018055612778806100246000396000f3fe60806040526004361061014b5760003560e01c806392b98309116100b6578063eeb69a241161006f578063eeb69a241461059d578063ef3bcd18146105d0578063f2a8a80614610603578063fb780e8914610636578063fc60fb5d14610669578063ffe90fd5146106955761014b565b806392b98309146104145780639e3d87cd1461043e578063a4c5a11514610485578063aba7545e146104f9578063bf3b8e4b14610523578063d2144951146105565761014b565b80632c7f475a116101085780632c7f475a1461027757806345f8f010146102aa578063488fc94e146102dd5780634bbf204714610328578063632d31141461035b5780636cf14f9d146103e15761014b565b8063039785f4146101505780630d3a4ef81461018b5780631466e3ea146101d05780631928570b146102035780631a34ae18146102185780632638774c1461024b575b600080fd5b34801561015c57600080fd5b506101896004803603604081101561017357600080fd5b506001600160a01b0381351690602001356106e1565b005b34801561019757600080fd5b506101be600480360360208110156101ae57600080fd5b50356001600160a01b03166107cf565b60408051918252519081900360200190f35b3480156101dc57600080fd5b506101be600480360360208110156101f357600080fd5b50356001600160a01b031661085d565b34801561020f57600080fd5b506101be61087b565b34801561022457600080fd5b506101be6004803603602081101561023b57600080fd5b50356001600160a01b0316610881565b6101896004803603604081101561026157600080fd5b506001600160a01b0381351690602001356108ec565b34801561028357600080fd5b506101be6004803603602081101561029a57600080fd5b50356001600160a01b0316610f6d565b3480156102b657600080fd5b50610189600480360360208110156102cd57600080fd5b50356001600160a01b0316610f98565b3480156102e957600080fd5b50610189600480360360a081101561030057600080fd5b50803590602081013590604081013590606081013590608001356001600160a01b0316611066565b34801561033457600080fd5b506101be6004803603602081101561034b57600080fd5b50356001600160a01b0316611211565b34801561036757600080fd5b5061038e6004803603602081101561037e57600080fd5b50356001600160a01b0316611257565b60408051998a5260208a0198909852888801969096526060880194909452608087019290925260a086015260c08501526001600160a01b0390811660e08501521661010083015251908190036101200190f35b3480156103ed57600080fd5b506101896004803603602081101561040457600080fd5b50356001600160a01b03166112ae565b34801561042057600080fd5b506101896004803603602081101561043757600080fd5b5035611379565b34801561044a57600080fd5b506101896004803603608081101561046157600080fd5b506001600160a01b0381358116916020810135916040820135916060013516611444565b34801561049157600080fd5b506104b8600480360360208110156104a857600080fd5b50356001600160a01b031661150e565b604080519889526020890197909752878701959095529215156060870152608086019190915260a085015260c084015260e083015251908190036101000190f35b34801561050557600080fd5b506101896004803603602081101561051c57600080fd5b5035611555565b34801561052f57600080fd5b506101be6004803603602081101561054657600080fd5b50356001600160a01b0316611620565b34801561056257600080fd5b506105896004803603602081101561057957600080fd5b50356001600160a01b03166116ef565b604080519115158252519081900360200190f35b3480156105a957600080fd5b50610589600480360360208110156105c057600080fd5b50356001600160a01b03166117e5565b3480156105dc57600080fd5b506101be600480360360208110156105f357600080fd5b50356001600160a01b0316611887565b34801561060f57600080fd5b506101be6004803603602081101561062657600080fd5b50356001600160a01b031661195e565b34801561064257600080fd5b506101be6004803603602081101561065957600080fd5b50356001600160a01b03166119d2565b6101896004803603604081101561067f57600080fd5b506001600160a01b038135169060200135611a77565b3480156106a157600080fd5b506106c8600480360360208110156106b857600080fd5b50356001600160a01b0316611ec4565b6040805192835260208301919091528051918290030190f35b600360009054906101000a90046001600160a01b03166001600160a01b0316632d5537b06040518163ffffffff1660e01b815260040160206040518083038186803b15801561072f57600080fd5b505afa158015610743573d6000803e3d6000fd5b505050506040513d602081101561075957600080fd5b50516001600160a01b031633146107a15760405162461bcd60e51b815260040180806020018281038252602e815260200180612576602e913960400191505060405180910390fd5b6001600160a01b03909116600090815260086020526040902060038101805460ff1916600117905560070155565b6000806107db836119d2565b905060006107e884611620565b6001600160a01b0385166000908152600860209081526040808320600401546009909252822060060154929350916108519068327cb2734119d3b7a9601e1b9061084b90879061084590879061083f908a90611ef7565b90611ef7565b90611f59565b90611fb2565b9450505050505b919050565b6001600160a01b031660009081526008602052604090206002015490565b60075490565b60008061088d836119d2565b6001600160a01b038416600090815260086020908152604080832060040154600990925282206003015492935090916108c591611ef7565b905060006108e368327cb2734119d3b7a9601e1b61084b8585611f59565b95945050505050565b60026001541415610944576040805162461bcd60e51b815260206004820152601f60248201527f5265656e7472616e637947756172643a207265656e7472616e742063616c6c00604482015290519081900360640190fd5b60026001556001600160a01b03821660009081526009602052604090205482906109af576040805162461bcd60e51b8152602060048201526017602482015276141bdbdb081a5cc81b9bdd08125b9a5d1a5b1a585e9959604a1b604482015290519081900360640190fd5b60008390508268327cb2734119d3b7a9601e1b0292506000816001600160a01b031663acc1ab136040518163ffffffff1660e01b815260040160206040518083038186803b158015610a0057600080fd5b505afa158015610a14573d6000803e3d6000fd5b505050506040513d6020811015610a2a57600080fd5b5051905060018114610a6d5760405162461bcd60e51b815260040180806020018281038252602f81526020018061251f602f913960400191505060405180910390fd5b600080610a79876119d2565b6001600160a01b03881660009081526008602052604090206003015490915060ff16151560011415610bbc576000610ab088611887565b9050808710610b4d57610ac38782611ef7565b9650610acf8382612019565b6001600160a01b0389166000908152600860209081526040808320600301805460ff191690556009909152902060040154909350610b2c9068327cb2734119d3b7a9601e1b9061084b9061084583610b268e611211565b90612019565b6001600160a01b038916600090815260086020526040902060040155610bba565b610b578388612019565b9250610b98610b768361084b8a68327cb2734119d3b7a9601e1b611f59565b6001600160a01b038a1660009081526008602052604090206004015490612019565b6001600160a01b03891660009081526008602052604081206004019190915596505b505b8515610d00576000610bcd88610881565b90506000610bda896116ef565b90508015610c3e576000610c2268327cb2734119d3b7a9601e1b61084b610c008d6107cf565b6001600160a01b038e1660009081526009602052604090206001015490611f59565b9050610c2e8982611ef7565b9850610c3a8582612019565b9450505b81881015610cb9576000610c628461084b8b68327cb2734119d3b7a9601e1b611f59565b6001600160a01b038b16600090815260086020526040902060040154909150610c8b9082612019565b6001600160a01b038b16600090815260086020526040902060040155610cb1858a612019565b945050610cfd565b6001600160a01b038916600090815260096020908152604080832060030154600890925290912060040155610cee8883611ef7565b9750610cfa8483612019565b93505b50505b6001600160a01b038088166000908152600960205260409020600701541682610d5a5760405162461bcd60e51b815260040180806020018281038252602581526020018061271e6025913960400191505060405180910390fd5b610d708368327cb2734119d3b7a9601e1b611fb2565b6001600160a01b038916600090815260086020526040902060020154909350610d999084612019565b6001600160a01b03808a166000908152600860205260409020600201919091558116610e9c5734831115610dfe5760405162461bcd60e51b815260040180806020018281038252603c81526020018061264b603c913960400191505060405180910390fd5b6040516000906001600160a01b038a169085908381818185875af1925050503d8060008114610e49576040519150601f19603f3d011682016040523d82523d6000602084013e610e4e565b606091505b5050905080610e96576040805162461bcd60e51b815260206004820152600f60248201526e151c985b9cd9995c8819985a5b1959608a1b604482015290519081900360640190fd5b50610eb1565b610eb16001600160a01b038216338a86612073565b6001600160a01b038116610f5f5782341115610f5f57600033610ed43486611ef7565b604051600081818185875af1925050503d8060008114610f10576040519150601f19603f3d011682016040523d82523d6000602084013e610f15565b606091505b5050905080610f5d576040805162461bcd60e51b815260206004820152600f60248201526e151c985b9cd9995c8819985a5b1959608a1b604482015290519081900360640190fd5b505b505060018055505050505050565b600080610f7983611211565b9050610f918168327cb2734119d3b7a9601e1b612019565b9392505050565b600360009054906101000a90046001600160a01b03166001600160a01b0316638da5cb5b6040518163ffffffff1660e01b815260040160206040518083038186803b158015610fe657600080fd5b505afa158015610ffa573d6000803e3d6000fd5b505050506040513d602081101561101057600080fd5b50516001600160a01b0316331461105a576040805162461bcd60e51b81526020600482015260096024820152682737ba1037bbb732b960b91b604482015290519081900360640190fd5b611063816120d3565b50565b60035460408051631746617960e31b815233600482015290516001600160a01b039092169163ba330bc891602480820192602092909190829003018186803b1580156110b157600080fd5b505afa1580156110c5573d6000803e3d6000fd5b505050506040513d60208110156110db57600080fd5b50516111185760405162461bcd60e51b815260040180806020018281038252602881526020018061254e6028913960400191505060405180910390fd5b6006543360009081526009602052604090206001810191909155600754600282015585905561115768327cb2734119d3b7a9601e1b6108458688611f59565b336000908152600960205260409020600301556111808468327cb2734119d3b7a9601e1b611f59565b33600090815260096020526040902060048101919091556005018390556111b38268327cb2734119d3b7a9601e1b611f59565b3360009081526009602090815260408083206006808201959095556007810180546001600160a01b03199081166001600160a01b03988916179091556004546008928301805491909816911617909555939052918220015550505050565b6001600160a01b038116600090815260096020908152604080832060049081015460089093529083200154826108e368327cb2734119d3b7a9601e1b6108458486611fb2565b60096020526000908152604090208054600182015460028301546003840154600485015460058601546006870154600788015460089098015496979596949593949293919290916001600160a01b03908116911689565b600360009054906101000a90046001600160a01b03166001600160a01b0316638da5cb5b6040518163ffffffff1660e01b815260040160206040518083038186803b1580156112fc57600080fd5b505afa158015611310573d6000803e3d6000fd5b505050506040513d602081101561132657600080fd5b50516001600160a01b03163314611370576040805162461bcd60e51b81526020600482015260096024820152682737ba1037bbb732b960b91b604482015290519081900360640190fd5b6110638161217a565b600360009054906101000a90046001600160a01b03166001600160a01b0316638da5cb5b6040518163ffffffff1660e01b815260040160206040518083038186803b1580156113c757600080fd5b505afa1580156113db573d6000803e3d6000fd5b505050506040513d60208110156113f157600080fd5b50516001600160a01b0316331461143b576040805162461bcd60e51b81526020600482015260096024820152682737ba1037bbb732b960b91b604482015290519081900360640190fd5b61106381612221565b600054610100900460ff168061145d575061145d61225c565b8061146b575060005460ff16155b6114a65760405162461bcd60e51b815260040180806020018281038252602e8152602001806125a4602e913960400191505060405180910390fd5b600054610100900460ff161580156114d1576000805460ff1961ff0019909116610100171660011790555b6114da856120d3565b6114e38461226d565b6114ec83612221565b6114f58261217a565b8015611507576000805461ff00191690555b5050505050565b6008602052600090815260409020805460018201546002830154600384015460048501546005860154600687015460079097015495969495939460ff909316939192909188565b600360009054906101000a90046001600160a01b03166001600160a01b0316638da5cb5b6040518163ffffffff1660e01b815260040160206040518083038186803b1580156115a357600080fd5b505afa1580156115b7573d6000803e3d6000fd5b505050506040513d60208110156115cd57600080fd5b50516001600160a01b03163314611617576040805162461bcd60e51b81526020600482015260096024820152682737ba1037bbb732b960b91b604482015290519081900360640190fd5b6110638161226d565b60008061162c83611211565b6001600160a01b038416600090815260096020526040902054909150811415611659576000915050610858565b6001600160a01b0383166000908152600860209081526040808320600701546009909252822060048101546006909101549192909190848411156116c2576116bb82610b2668327cb2734119d3b7a9601e1b61084b8761084583858d82612019565b9050610851565b6116e482610b2668327cb2734119d3b7a9601e1b61084b876108458b84612019565b979650505050505050565b6001600160a01b038116600090815260096020526040812060040154816117224268327cb2734119d3b7a9601e1b611f59565b6001600160a01b03851660009081526009602052604081206002015491925061174a86611620565b9050600061177261176b68327cb2734119d3b7a9601e1b61084b8689611f59565b8390612019565b9050808411156117c2576040805162461bcd60e51b8152602060048201526016602482015275109bdc9c9bddd95c881a185cc8191959985d5b1d195960521b604482015290519081900360640190fd5b8184116117d757600095505050505050610858565b600195505050505050610858565b6001600160a01b038116600090815260096020526040812060040154816118184268327cb2734119d3b7a9601e1b611f59565b6001600160a01b03851660009081526009602052604081206002015491925061184086611620565b9050600061186161176b68327cb2734119d3b7a9601e1b61084b8689611f59565b90508084111561187957600195505050505050610858565b600095505050505050610858565b6001600160a01b03811660009081526008602052604081206003015460ff1615156001146118e9576040805162461bcd60e51b815260206004820152600a6024820152694e6f206f76657264756560b01b604482015290519081900360640190fd5b60006118f483611211565b90506000611901846119d2565b6001600160a01b03851660009081526008602090815260408083206004908101546009909352908320015492935090916108e39168327cb2734119d3b7a9601e1b9161084b918691610845919061083f9086908690858d84612019565b6001600160a01b038116600090815260096020526040812060060154816119914268327cb2734119d3b7a9601e1b611f59565b6001600160a01b03851660009081526009602052604081206004015491925061085168327cb2734119d3b7a9601e1b610b268461084b83610845898b611ef7565b600080826001600160a01b031663c4e41b226040518163ffffffff1660e01b815260040160206040518083038186803b158015611a0e57600080fd5b505afa158015611a22573d6000803e3d6000fd5b505050506040513d6020811015611a3857600080fd5b50516001600160a01b03841660009081526009602052604081206005015491925090611a6f906301e133809061084b908590611f59565b949350505050565b60026001541415611acf576040805162461bcd60e51b815260206004820152601f60248201527f5265656e7472616e637947756172643a207265656e7472616e742063616c6c00604482015290519081900360640190fd5b60026001556001600160a01b0382166000908152600960205260409020548290611b3a576040805162461bcd60e51b8152602060048201526017602482015276141bdbdb081a5cc81b9bdd08125b9a5d1a5b1a585e9959604a1b604482015290519081900360640190fd5b60008390506000816001600160a01b031663acc1ab136040518163ffffffff1660e01b815260040160206040518083038186803b158015611b7a57600080fd5b505afa158015611b8e573d6000803e3d6000fd5b505050506040513d6020811015611ba457600080fd5b5051905060018114611be75760405162461bcd60e51b815260040180806020018281038252602f81526020018061261c602f913960400191505060405180910390fd5b6001600160a01b03851660009081526008602052604090206003015460ff1615611c425760405162461bcd60e51b81526004018080602001828103825260328152602001806126ec6032913960400191505060405180910390fd5b6001600160a01b03851660009081526008602090815260408083206004015460099092529091206003015414611ca95760405162461bcd60e51b81526004018080602001828103825260298152602001806125d26029913960400191505060405180910390fd5b6000826001600160a01b031663c4e41b226040518163ffffffff1660e01b815260040160206040518083038186803b158015611ce457600080fd5b505afa158015611cf8573d6000803e3d6000fd5b505050506040513d6020811015611d0e57600080fd5b50519050848114611d505760405162461bcd60e51b815260040180806020018281038252603b815260200180612687603b913960400191505060405180910390fd5b6001600160a01b038087166000908152600960205260409020600701541680611e4f57348614611db15760405162461bcd60e51b815260040180806020018281038252603c81526020018061264b603c913960400191505060405180910390fd5b6040516000906001600160a01b0389169088908381818185875af1925050503d8060008114611dfc576040519150601f19603f3d011682016040523d82523d6000602084013e611e01565b606091505b5050905080611e49576040805162461bcd60e51b815260206004820152600f60248201526e151c985b9cd9995c8819985a5b1959608a1b604482015290519081900360640190fd5b50611e64565b611e646001600160a01b038216338989612073565b866001600160a01b031663232fa7336040518163ffffffff1660e01b8152600401600060405180830381600087803b158015611e9f57600080fd5b505af1158015611eb3573d6000803e3d6000fd5b505060018055505050505050505050565b6000806000611ed2846119d2565b6001600160a01b03949094166000908152600860205260409020600401549492505050565b600082821115611f4e576040805162461bcd60e51b815260206004820152601e60248201527f536166654d6174683a207375627472616374696f6e206f766572666c6f770000604482015290519081900360640190fd5b508082035b92915050565b600082611f6857506000611f53565b82820282848281611f7557fe5b0414610f915760405162461bcd60e51b81526004018080602001828103825260218152602001806125fb6021913960400191505060405180910390fd5b6000808211612008576040805162461bcd60e51b815260206004820152601a60248201527f536166654d6174683a206469766973696f6e206279207a65726f000000000000604482015290519081900360640190fd5b81838161201157fe5b049392505050565b600082820183811015610f91576040805162461bcd60e51b815260206004820152601b60248201527f536166654d6174683a206164646974696f6e206f766572666c6f770000000000604482015290519081900360640190fd5b604080516001600160a01b0380861660248301528416604482015260648082018490528251808303909101815260849091019091526020810180516001600160e01b03166323b872dd60e01b1790526120cd9085906122a8565b50505050565b6001600160a01b038116612126576040805162461bcd60e51b81526020600482015260156024820152740c081859191c995cdcc81b9bdd08185b1b1bddd959605a1b604482015290519081900360640190fd5b600380546001600160a01b0383166001600160a01b0319909116811790915560408051918252517f1c7678eaee5fa898fb56c2cae0f73cba66bd4eee97d2df577030caea131dd9a59181900360200190a150565b6001600160a01b0381166121cd576040805162461bcd60e51b81526020600482015260156024820152740c081859191c995cdcc81b9bdd08185b1b1bddd959605a1b604482015290519081900360640190fd5b600480546001600160a01b0383166001600160a01b0319909116811790915560408051918252517f5e8a3d56d9512a62f643367551a65727148c2516dce6b54956df80926dd2536c9181900360200190a150565b60078190556040805182815290517fb9d9ff4c2f033fddd2d79ede90ed4b266a4b14f2fb7a53b65f841f782ab732f79181900360200190a150565b60006122673061235e565b15905090565b60068190556040805182815290517f1662cfaeee18d231409458a532e2ffdf25516e6efd5918d1c9497d7a7dd7dae89181900360200190a150565b60606122fd826040518060400160405280602081526020017f5361666545524332303a206c6f772d6c6576656c2063616c6c206661696c6564815250856001600160a01b03166123649092919063ffffffff16565b8051909150156123595780806020019051602081101561231c57600080fd5b50516123595760405162461bcd60e51b815260040180806020018281038252602a8152602001806126c2602a913960400191505060405180910390fd5b505050565b3b151590565b6060611a6f8484600085856123788561235e565b6123c9576040805162461bcd60e51b815260206004820152601d60248201527f416464726573733a2063616c6c20746f206e6f6e2d636f6e7472616374000000604482015290519081900360640190fd5b60006060866001600160a01b031685876040518082805190602001908083835b602083106124085780518252601f1990920191602091820191016123e9565b6001836020036101000a03801982511681845116808217855250505050505090500191505060006040518083038185875af1925050503d806000811461246a576040519150601f19603f3d011682016040523d82523d6000602084013e61246f565b606091505b50915091506116e482828660608315612489575081610f91565b8251156124995782518084602001fd5b8160405162461bcd60e51b81526004018080602001828103825283818151815260200191508051906020019080838360005b838110156124e35781810151838201526020016124cb565b50505050905090810190601f1680156125105780820380516001836020036101000a031916815260200191505b509250505060405180910390fdfe52657061796d656e74733a7265706179496e74657265737420506f6f6c2073686f756c64206265206163746976652e52657061796d656e74733a3a6f6e6c7956616c6964506f6f6c202d20496e76616c696420506f6f6c52657061796d656e74733a3a72657061796d656e74457874656e646564202d20496e76616c69642063616c6c6572496e697469616c697a61626c653a20636f6e747261637420697320616c726561647920696e697469616c697a656452657061796d656e74733a72657061795072696e636970616c20556e7061696420696e746572657374536166654d6174683a206d756c7469706c69636174696f6e206f766572666c6f7752657061796d656e74733a72657061795072696e636970616c20506f6f6c2073686f756c642062652061637469766552657061796d656e74733a3a7265706179416d6f756e7420616d6f756e7420646f6573206e6f74206d61746368206d6573736167652076616c75652e52657061796d656e74733a72657061795072696e636970616c20416d6f756e742073686f756c64206d6174636820746865207072696e636970616c5361666545524332303a204552433230206f7065726174696f6e20646964206e6f74207375636365656452657061796d656e74733a72657061795072696e636970616c2052657061796d656e74206f76657264756520756e7061696452657061796d656e74733a3a7265706179416d6f756e74206e6f74206e6563657373617279a26469706673582212201750af16f4497f38397edb825fac387ad31ee3bc6630b2caa3009a8173706a4e64736f6c63430007000033",
  "linkReferences": {},
  "deployedLinkReferences": {}
}