{
  "_format": "hh-sol-artifact-1",
  "contractName": "Repayments",
  "sourceName": "contracts/Pool/Repayments.sol",
  "abi": [
    {
      "anonymous": false,
      "inputs": [
        {
          "indexed": false,
          "internalType": "address",
          "name": "poolID",
          "type": "address"
        },
        {
          "indexed": false,
          "internalType": "uint256",
          "name": "repayAmount",
          "type": "uint256"
        }
      ],
      "name": "ExtensionRepaymentComplete",
      "type": "event"
    },
    {
      "anonymous": false,
      "inputs": [
        {
          "indexed": false,
          "internalType": "uint256",
          "name": "gracePenaltyRate",
          "type": "uint256"
        }
      ],
      "name": "GracePenaltyRateUpdated",
      "type": "event"
    },
    {
      "anonymous": false,
      "inputs": [
        {
          "indexed": false,
          "internalType": "address",
          "name": "poolID",
          "type": "address"
        },
        {
          "indexed": false,
          "internalType": "uint256",
          "name": "repayAmount",
          "type": "uint256"
        }
      ],
      "name": "GracePenaltyRepaid",
      "type": "event"
    },
    {
      "anonymous": false,
      "inputs": [
        {
          "indexed": false,
          "internalType": "uint256",
          "name": "gracePeriodFraction",
          "type": "uint256"
        }
      ],
      "name": "GracePeriodFractionUpdated",
      "type": "event"
    },
    {
      "anonymous": false,
      "inputs": [
        {
          "indexed": false,
          "internalType": "address",
          "name": "poolID",
          "type": "address"
        },
        {
          "indexed": false,
          "internalType": "uint256",
          "name": "repayAmount",
          "type": "uint256"
        }
      ],
      "name": "InterestRepaid",
      "type": "event"
    },
    {
      "anonymous": false,
      "inputs": [
        {
          "indexed": false,
          "internalType": "address",
          "name": "poolID",
          "type": "address"
        },
        {
          "indexed": false,
          "internalType": "uint256",
          "name": "repayAmount",
          "type": "uint256"
        }
      ],
      "name": "InterestRepaymentComplete",
      "type": "event"
    },
    {
      "anonymous": false,
      "inputs": [
        {
          "indexed": false,
          "internalType": "address",
          "name": "poolID",
          "type": "address"
        },
        {
          "indexed": false,
          "internalType": "uint256",
          "name": "repayAmount",
          "type": "uint256"
        }
      ],
      "name": "PartialExtensionRepaid",
      "type": "event"
    },
    {
      "anonymous": false,
      "inputs": [
        {
          "indexed": false,
          "internalType": "address",
          "name": "poolFactory",
          "type": "address"
        }
      ],
      "name": "PoolFactoryUpdated",
      "type": "event"
    },
    {
      "anonymous": false,
      "inputs": [
        {
          "indexed": false,
          "internalType": "address",
          "name": "poolID",
          "type": "address"
        },
        {
          "indexed": false,
          "internalType": "uint256",
          "name": "repayAmount",
          "type": "uint256"
        }
      ],
      "name": "PrincipalRepaid",
      "type": "event"
    },
    {
      "inputs": [
        {
          "internalType": "address",
          "name": "_poolID",
          "type": "address"
        }
      ],
      "name": "didBorrowerDefault",
      "outputs": [
        {
          "internalType": "bool",
          "name": "",
          "type": "bool"
        }
      ],
      "stateMutability": "view",
      "type": "function"
    },
    {
      "inputs": [
        {
          "internalType": "address",
          "name": "_poolID",
          "type": "address"
        }
      ],
      "name": "getCurrentInstalmentInterval",
      "outputs": [
        {
          "internalType": "uint256",
          "name": "",
          "type": "uint256"
        }
      ],
      "stateMutability": "view",
      "type": "function"
    },
    {
      "inputs": [
        {
          "internalType": "address",
          "name": "_poolID",
          "type": "address"
        }
      ],
      "name": "getCurrentLoanInterval",
      "outputs": [
        {
          "internalType": "uint256",
          "name": "",
          "type": "uint256"
        }
      ],
      "stateMutability": "view",
      "type": "function"
    },
    {
      "inputs": [],
      "name": "getGracePeriodFraction",
      "outputs": [
        {
          "internalType": "uint256",
          "name": "",
          "type": "uint256"
        }
      ],
      "stateMutability": "view",
      "type": "function"
    },
    {
      "inputs": [
        {
          "internalType": "address",
          "name": "_poolID",
          "type": "address"
        }
      ],
      "name": "getInstalmentsCompleted",
      "outputs": [
        {
          "internalType": "uint256",
          "name": "",
          "type": "uint256"
        }
      ],
      "stateMutability": "view",
      "type": "function"
    },
    {
      "inputs": [
        {
          "internalType": "address",
          "name": "_poolID",
          "type": "address"
        }
      ],
      "name": "getInterestCalculationVars",
      "outputs": [
        {
          "internalType": "uint256",
          "name": "",
          "type": "uint256"
        },
        {
          "internalType": "uint256",
          "name": "",
          "type": "uint256"
        }
      ],
      "stateMutability": "view",
      "type": "function"
    },
    {
      "inputs": [
        {
          "internalType": "address",
          "name": "_poolID",
          "type": "address"
        }
      ],
      "name": "getInterestDueTillInstalmentDeadline",
      "outputs": [
        {
          "internalType": "uint256",
          "name": "",
          "type": "uint256"
        }
      ],
      "stateMutability": "view",
      "type": "function"
    },
    {
      "inputs": [
        {
          "internalType": "address",
          "name": "_poolID",
          "type": "address"
        }
      ],
      "name": "getInterestLeft",
      "outputs": [
        {
          "internalType": "uint256",
          "name": "",
          "type": "uint256"
        }
      ],
      "stateMutability": "view",
      "type": "function"
    },
    {
      "inputs": [
        {
          "internalType": "address",
          "name": "_poolID",
          "type": "address"
        }
      ],
      "name": "getInterestOverdue",
      "outputs": [
        {
          "internalType": "uint256",
          "name": "",
          "type": "uint256"
        }
      ],
      "stateMutability": "view",
      "type": "function"
    },
    {
      "inputs": [
        {
          "internalType": "address",
          "name": "_poolID",
          "type": "address"
        }
      ],
      "name": "getInterestPerSecond",
      "outputs": [
        {
          "internalType": "uint256",
          "name": "",
          "type": "uint256"
        }
      ],
      "stateMutability": "view",
      "type": "function"
    },
    {
      "inputs": [
        {
          "internalType": "address",
          "name": "_poolID",
          "type": "address"
        }
      ],
      "name": "getNextInstalmentDeadline",
      "outputs": [
        {
          "internalType": "uint256",
          "name": "",
          "type": "uint256"
        }
      ],
      "stateMutability": "view",
      "type": "function"
    },
    {
      "inputs": [
        {
          "internalType": "address",
          "name": "_poolID",
          "type": "address"
        }
      ],
      "name": "getTotalRepaidAmount",
      "outputs": [
        {
          "internalType": "uint256",
          "name": "",
          "type": "uint256"
        }
      ],
      "stateMutability": "view",
      "type": "function"
    },
    {
      "inputs": [
        {
          "internalType": "address",
          "name": "_poolFactory",
          "type": "address"
        },
        {
          "internalType": "uint256",
          "name": "_gracePenaltyRate",
          "type": "uint256"
        },
        {
          "internalType": "uint256",
          "name": "_gracePeriodFraction",
          "type": "uint256"
        }
      ],
      "name": "initialize",
      "outputs": [],
      "stateMutability": "nonpayable",
      "type": "function"
    },
    {
      "inputs": [
        {
          "internalType": "uint256",
          "name": "numberOfTotalRepayments",
          "type": "uint256"
        },
        {
          "internalType": "uint256",
          "name": "repaymentInterval",
          "type": "uint256"
        },
        {
          "internalType": "uint256",
          "name": "borrowRate",
          "type": "uint256"
        },
        {
          "internalType": "uint256",
          "name": "loanStartTime",
          "type": "uint256"
        },
        {
          "internalType": "address",
          "name": "lentAsset",
          "type": "address"
        }
      ],
      "name": "initializeRepayment",
      "outputs": [],
      "stateMutability": "nonpayable",
      "type": "function"
    },
    {
      "inputs": [
        {
          "internalType": "address",
          "name": "_poolID",
          "type": "address"
        },
        {
          "internalType": "uint256",
          "name": "_period",
          "type": "uint256"
        }
      ],
      "name": "instalmentDeadlineExtended",
      "outputs": [],
      "stateMutability": "nonpayable",
      "type": "function"
    },
    {
      "inputs": [
        {
          "internalType": "address",
          "name": "_poolID",
          "type": "address"
        }
      ],
      "name": "isGracePenaltyApplicable",
      "outputs": [
        {
          "internalType": "bool",
          "name": "",
          "type": "bool"
        }
      ],
      "stateMutability": "view",
      "type": "function"
    },
    {
      "inputs": [
        {
          "internalType": "address",
          "name": "_poolID",
          "type": "address"
        },
        {
          "internalType": "uint256",
          "name": "_amount",
          "type": "uint256"
        }
      ],
      "name": "repay",
      "outputs": [],
      "stateMutability": "payable",
      "type": "function"
    },
    {
      "inputs": [
        {
          "internalType": "address",
          "name": "",
          "type": "address"
        }
      ],
      "name": "repayConstants",
      "outputs": [
        {
          "internalType": "uint256",
          "name": "numberOfTotalRepayments",
          "type": "uint256"
        },
        {
          "internalType": "uint256",
          "name": "gracePenaltyRate",
          "type": "uint256"
        },
        {
          "internalType": "uint256",
          "name": "gracePeriodFraction",
          "type": "uint256"
        },
        {
          "internalType": "uint256",
          "name": "loanDuration",
          "type": "uint256"
        },
        {
          "internalType": "uint256",
          "name": "repaymentInterval",
          "type": "uint256"
        },
        {
          "internalType": "uint256",
          "name": "borrowRate",
          "type": "uint256"
        },
        {
          "internalType": "uint256",
          "name": "loanStartTime",
          "type": "uint256"
        },
        {
          "internalType": "address",
          "name": "repayAsset",
          "type": "address"
        }
      ],
      "stateMutability": "view",
      "type": "function"
    },
    {
      "inputs": [
        {
          "internalType": "address payable",
          "name": "_poolID",
          "type": "address"
        }
      ],
      "name": "repayPrincipal",
      "outputs": [],
      "stateMutability": "payable",
      "type": "function"
    },
    {
      "inputs": [
        {
          "internalType": "address",
          "name": "",
          "type": "address"
        }
      ],
      "name": "repayVariables",
      "outputs": [
        {
          "internalType": "uint256",
          "name": "repaidAmount",
          "type": "uint256"
        },
        {
          "internalType": "bool",
          "name": "isLoanExtensionActive",
          "type": "bool"
        },
        {
          "internalType": "uint256",
          "name": "loanDurationCovered",
          "type": "uint256"
        },
        {
          "internalType": "uint256",
          "name": "loanExtensionPeriod",
          "type": "uint256"
        }
      ],
      "stateMutability": "view",
      "type": "function"
    },
    {
      "inputs": [
        {
          "internalType": "uint256",
          "name": "_gracePenaltyRate",
          "type": "uint256"
        }
      ],
      "name": "updateGracePenaltyRate",
      "outputs": [],
      "stateMutability": "nonpayable",
      "type": "function"
    },
    {
      "inputs": [
        {
          "internalType": "uint256",
          "name": "_gracePeriodFraction",
          "type": "uint256"
        }
      ],
      "name": "updateGracePeriodFraction",
      "outputs": [],
      "stateMutability": "nonpayable",
      "type": "function"
    },
    {
      "inputs": [
        {
          "internalType": "address",
          "name": "_poolFactory",
          "type": "address"
        }
      ],
      "name": "updatePoolFactory",
      "outputs": [],
      "stateMutability": "nonpayable",
      "type": "function"
    }
  ],
  "bytecode": "0x608060405234801561001057600080fd5b506001805561264e806100246000396000f3fe6080604052600436106101405760003560e01c8063533b2723116100b6578063d21449511161006f578063d214495114610512578063eeb69a2414610559578063ef3bcd181461058c578063f2a8a806146105bf578063fb780e89146105f2578063ffe90fd51461062557610140565b8063533b2723146103765780637a1ac61e146103a057806390025355146103df57806392b9830914610438578063bf3b8e4b14610462578063c006c5291461049557610140565b80631a34ae18116101085780631a34ae181461023357806322867d78146102665780632c7f475a1461029257806345f8f010146102c5578063488fc94e146102f85780634bbf20471461034357610140565b8063039785f414610145578063040ca2eb146101805780630d3a4ef8146101a65780631466e3ea146101eb5780631928570b1461021e575b600080fd5b34801561015157600080fd5b5061017e6004803603604081101561016857600080fd5b506001600160a01b038135169060200135610671565b005b61017e6004803603602081101561019657600080fd5b50356001600160a01b0316610760565b3480156101b257600080fd5b506101d9600480360360208110156101c957600080fd5b50356001600160a01b0316610bb3565b60408051918252519081900360200190f35b3480156101f757600080fd5b506101d96004803603602081101561020e57600080fd5b50356001600160a01b0316610c41565b34801561022a57600080fd5b506101d9610c5c565b34801561023f57600080fd5b506101d96004803603602081101561025657600080fd5b50356001600160a01b0316610c62565b61017e6004803603604081101561027c57600080fd5b506001600160a01b038135169060200135610ccd565b34801561029e57600080fd5b506101d9600480360360208110156102b557600080fd5b50356001600160a01b0316611496565b3480156102d157600080fd5b5061017e600480360360208110156102e857600080fd5b50356001600160a01b03166114c1565b34801561030457600080fd5b5061017e600480360360a081101561031b57600080fd5b50803590602081013590604081013590606081013590608001356001600160a01b031661158f565b34801561034f57600080fd5b506101d96004803603602081101561036657600080fd5b50356001600160a01b031661171a565b34801561038257600080fd5b5061017e6004803603602081101561039957600080fd5b503561175f565b3480156103ac57600080fd5b5061017e600480360360608110156103c357600080fd5b506001600160a01b03813516906020810135906040013561182a565b3480156103eb57600080fd5b506104126004803603602081101561040257600080fd5b50356001600160a01b03166118ea565b604080519485529215156020850152838301919091526060830152519081900360800190f35b34801561044457600080fd5b5061017e6004803603602081101561045b57600080fd5b5035611915565b34801561046e57600080fd5b506101d96004803603602081101561048557600080fd5b50356001600160a01b03166119e0565b3480156104a157600080fd5b506104c8600480360360208110156104b857600080fd5b50356001600160a01b0316611aaf565b604080519889526020890197909752878701959095526060870193909352608086019190915260a085015260c08401526001600160a01b031660e083015251908190036101000190f35b34801561051e57600080fd5b506105456004803603602081101561053557600080fd5b50356001600160a01b0316611afb565b604080519115158252519081900360200190f35b34801561056557600080fd5b506105456004803603602081101561057c57600080fd5b50356001600160a01b0316611bf1565b34801561059857600080fd5b506101d9600480360360208110156105af57600080fd5b50356001600160a01b0316611c93565b3480156105cb57600080fd5b506101d9600480360360208110156105e257600080fd5b50356001600160a01b0316611d69565b3480156105fe57600080fd5b506101d96004803603602081101561061557600080fd5b50356001600160a01b0316611ddd565b34801561063157600080fd5b506106586004803603602081101561064857600080fd5b50356001600160a01b0316611e82565b6040805192835260208301919091528051918290030190f35b600360009054906101000a90046001600160a01b03166001600160a01b0316632d5537b06040518163ffffffff1660e01b815260040160206040518083038186803b1580156106bf57600080fd5b505afa1580156106d3573d6000803e3d6000fd5b505050506040513d60208110156106e957600080fd5b50516001600160a01b031633146107315760405162461bcd60e51b815260040180806020018281038252602e815260200180612487602e913960400191505060405180910390fd5b6001600160a01b0390911660009081526008602052604090206001818101805460ff1916909117905560030155565b600260015414156107b8576040805162461bcd60e51b815260206004820152601f60248201527f5265656e7472616e637947756172643a207265656e7472616e742063616c6c00604482015290519081900360640190fd5b60026001556001600160a01b0381166000908152600960205260409020548190610823576040805162461bcd60e51b8152602060048201526017602482015276141bdbdb081a5cc81b9bdd08125b9a5d1a5b1a585e9959604a1b604482015290519081900360640190fd5b60008290506000816001600160a01b031663acc1ab136040518163ffffffff1660e01b815260040160206040518083038186803b15801561086357600080fd5b505afa158015610877573d6000803e3d6000fd5b505050506040513d602081101561088d57600080fd5b50519050600181146108d05760405162461bcd60e51b815260040180806020018281038252602f81526020018061252d602f913960400191505060405180910390fd5b6001600160a01b03841660009081526008602052604090206001015460ff161561092b5760405162461bcd60e51b81526004018080602001828103825260328152602001806125c26032913960400191505060405180910390fd5b6001600160a01b038416600090815260086020908152604080832060020154600990925290912060030154146109925760405162461bcd60e51b81526004018080602001828103825260298152602001806124e36029913960400191505060405180910390fd5b6000826001600160a01b031663d7c358ae6040518163ffffffff1660e01b815260040160206040518083038186803b1580156109cd57600080fd5b505afa1580156109e1573d6000803e3d6000fd5b505050506040513d60208110156109f757600080fd5b50516001600160a01b038087166000908152600960205260409020600701549192501680610afb57348214610a5d5760405162461bcd60e51b815260040180806020018281038252603c81526020018061255c603c913960400191505060405180910390fd5b6040516000906001600160a01b0388169084908381818185875af1925050503d8060008114610aa8576040519150601f19603f3d011682016040523d82523d6000602084013e610aad565b606091505b5050905080610af5576040805162461bcd60e51b815260206004820152600f60248201526e151c985b9cd9995c8819985a5b1959608a1b604482015290519081900360640190fd5b50610b10565b610b106001600160a01b038216338885611eb5565b604080516001600160a01b03881681526020810184905281517f2c80036a7bf5dfea806c41e229a15333df8725344a4d1d03926f1f0b3cab22c6929181900390910190a1856001600160a01b031663232fa7336040518163ffffffff1660e01b8152600401600060405180830381600087803b158015610b8f57600080fd5b505af1158015610ba3573d6000803e3d6000fd5b5050600180555050505050505050565b600080610bbf83611ddd565b90506000610bcc846119e0565b6001600160a01b038516600090815260086020908152604080832060020154600990925282206006015492935091610c359068327cb2734119d3b7a9601e1b90610c2f908790610c29908790610c23908a90611f0f565b90611f0f565b90611f71565b90611fca565b9450505050505b919050565b6001600160a01b031660009081526008602052604090205490565b60075490565b600080610c6e83611ddd565b6001600160a01b03841660009081526008602090815260408083206002015460099092528220600301549293509091610ca691611f0f565b90506000610cc468327cb2734119d3b7a9601e1b610c2f8585611f71565b95945050505050565b60026001541415610d25576040805162461bcd60e51b815260206004820152601f60248201527f5265656e7472616e637947756172643a207265656e7472616e742063616c6c00604482015290519081900360640190fd5b60026001556001600160a01b0382166000908152600960205260409020548290610d90576040805162461bcd60e51b8152602060048201526017602482015276141bdbdb081a5cc81b9bdd08125b9a5d1a5b1a585e9959604a1b604482015290519081900360640190fd5b60008390508268327cb2734119d3b7a9601e1b0292506000816001600160a01b031663acc1ab136040518163ffffffff1660e01b815260040160206040518083038186803b158015610de157600080fd5b505afa158015610df5573d6000803e3d6000fd5b505050506040513d6020811015610e0b57600080fd5b5051905060018114610e4e5760405162461bcd60e51b815260040180806020018281038252602f815260200180612430602f913960400191505060405180910390fd5b600080610e5a87611ddd565b6001600160a01b038816600090815260086020526040902060019081015491925060ff9091161515141561101c576000610e9388611c93565b9050808710610f6f57610ea68782611f0f565b9650610eb28382612031565b6001600160a01b0389166000908152600860209081526040808320600101805460ff191690556009909152902060040154909350610f0f9068327cb2734119d3b7a9601e1b90610c2f90610c2983610f098e61171a565b90612031565b6001600160a01b03891660008181526008602090815260409182902060020193909355805191825291810183905281517f3bbfe86a4d1b45be29320ddf553d61888ef7cb34be25e1b45cbb958090713034929181900390910190a161101a565b610f798388612031565b9250610fba610f9883610c2f8a68327cb2734119d3b7a9601e1b611f71565b6001600160a01b038a1660009081526008602052604090206002015490612031565b6001600160a01b03891660008181526008602090815260409182902060020193909355805191825291810189905281517f5d33705c7483c7efd9f3b544b705b56a4847394c44c1fc2bfcb7ffde8f7b919f929181900390910190a1600096505b505b851561122f57600061102d88610c62565b9050600061103a89611afb565b905080156110e357600061108268327cb2734119d3b7a9601e1b610c2f6110608d610bb3565b6001600160a01b038e1660009081526009602052604090206001015490611f71565b905061108e8982611f0f565b985061109a8582612031565b604080516001600160a01b038d1681526020810184905281519297507fb205a9ea9862b64f9b6c381b807a47e7c2ddf5f8ab907fb47de93f700aa1a5a3929081900390910190a1505b818810156111a357600061110784610c2f8b68327cb2734119d3b7a9601e1b611f71565b6001600160a01b038b166000908152600860205260409020600201549091506111309082612031565b6001600160a01b038b16600090815260086020526040902060020155611156858a612031565b604080516001600160a01b038d168152602081018c905281519297507feff139234683b4c380101256c460e14460d28453ed77503b5eb3364e9d9b92c5929081900390910190a15061122c565b6001600160a01b0389166000908152600960209081526040808320600301546008909252909120600201556111d88883611f0f565b97506111e48483612031565b604080516001600160a01b038c168152602081018b905281519296507fc3e8d495d2888e99975640847a1ceb9831a2348f3cd1d9fa339afdb28bbff139929081900390910190a15b50505b6001600160a01b0380881660009081526009602052604090206007015416826112895760405162461bcd60e51b81526004018080602001828103825260258152602001806125f46025913960400191505060405180910390fd5b61129f8368327cb2734119d3b7a9601e1b611fca565b6001600160a01b0389166000908152600860205260409020549093506112c59084612031565b6001600160a01b03808a1660009081526008602052604090209190915581166113c557348311156113275760405162461bcd60e51b815260040180806020018281038252603c81526020018061255c603c913960400191505060405180910390fd5b6040516000906001600160a01b038a169085908381818185875af1925050503d8060008114611372576040519150601f19603f3d011682016040523d82523d6000602084013e611377565b606091505b50509050806113bf576040805162461bcd60e51b815260206004820152600f60248201526e151c985b9cd9995c8819985a5b1959608a1b604482015290519081900360640190fd5b506113da565b6113da6001600160a01b038216338a86611eb5565b6001600160a01b0381166114885782341115611488576000336113fd3486611f0f565b604051600081818185875af1925050503d8060008114611439576040519150601f19603f3d011682016040523d82523d6000602084013e61143e565b606091505b5050905080611486576040805162461bcd60e51b815260206004820152600f60248201526e151c985b9cd9995c8819985a5b1959608a1b604482015290519081900360640190fd5b505b505060018055505050505050565b6000806114a28361171a565b90506114ba8168327cb2734119d3b7a9601e1b612031565b9392505050565b600360009054906101000a90046001600160a01b03166001600160a01b0316638da5cb5b6040518163ffffffff1660e01b815260040160206040518083038186803b15801561150f57600080fd5b505afa158015611523573d6000803e3d6000fd5b505050506040513d602081101561153957600080fd5b50516001600160a01b03163314611583576040805162461bcd60e51b81526020600482015260096024820152682737ba1037bbb732b960b91b604482015290519081900360640190fd5b61158c8161208b565b50565b6003546040805163edf7ae2160e01b815233600482015290516001600160a01b039092169163edf7ae2191602480820192602092909190829003018186803b1580156115da57600080fd5b505afa1580156115ee573d6000803e3d6000fd5b505050506040513d602081101561160457600080fd5b50516116415760405162461bcd60e51b815260040180806020018281038252602881526020018061245f6028913960400191505060405180910390fd5b6006543360009081526009602052604090206001810191909155600754600282015585905561168068327cb2734119d3b7a9601e1b610c298688611f71565b336000908152600960205260409020600301556116a98468327cb2734119d3b7a9601e1b611f71565b33600090815260096020526040902060048101919091556005018390556116dc8268327cb2734119d3b7a9601e1b611f71565b336000908152600960205260409020600681019190915560070180546001600160a01b0319166001600160a01b039290921691909117905550505050565b6001600160a01b038116600090815260096020908152604080832060040154600890925282206002015482610cc468327cb2734119d3b7a9601e1b610c298486611fca565b600360009054906101000a90046001600160a01b03166001600160a01b0316638da5cb5b6040518163ffffffff1660e01b815260040160206040518083038186803b1580156117ad57600080fd5b505afa1580156117c1573d6000803e3d6000fd5b505050506040513d60208110156117d757600080fd5b50516001600160a01b03163314611821576040805162461bcd60e51b81526020600482015260096024820152682737ba1037bbb732b960b91b604482015290519081900360640190fd5b61158c81612132565b600054610100900460ff1680611843575061184361216d565b80611851575060005460ff16155b61188c5760405162461bcd60e51b815260040180806020018281038252602e8152602001806124b5602e913960400191505060405180910390fd5b600054610100900460ff161580156118b7576000805460ff1961ff0019909116610100171660011790555b6118c08461208b565b6118c983612132565b6118d28261217e565b80156118e4576000805461ff00191690555b50505050565b6008602052600090815260409020805460018201546002830154600390930154919260ff9091169184565b600360009054906101000a90046001600160a01b03166001600160a01b0316638da5cb5b6040518163ffffffff1660e01b815260040160206040518083038186803b15801561196357600080fd5b505afa158015611977573d6000803e3d6000fd5b505050506040513d602081101561198d57600080fd5b50516001600160a01b031633146119d7576040805162461bcd60e51b81526020600482015260096024820152682737ba1037bbb732b960b91b604482015290519081900360640190fd5b61158c8161217e565b6000806119ec8361171a565b6001600160a01b038416600090815260096020526040902054909150811415611a19576000915050610c3c565b6001600160a01b038316600090815260086020908152604080832060030154600990925282206004810154600690910154919290919084841115611a8257611a7b82610f0968327cb2734119d3b7a9601e1b610c2f87610c2983858d82612031565b9050610c35565b611aa482610f0968327cb2734119d3b7a9601e1b610c2f87610c298b84612031565b979650505050505050565b600960205260009081526040902080546001820154600283015460038401546004850154600586015460068701546007909701549596949593949293919290916001600160a01b031688565b6001600160a01b03811660009081526009602052604081206004015481611b2e4268327cb2734119d3b7a9601e1b611f71565b6001600160a01b038516600090815260096020526040812060020154919250611b56866119e0565b90506000611b7e611b7768327cb2734119d3b7a9601e1b610c2f8689611f71565b8390612031565b905080841115611bce576040805162461bcd60e51b8152602060048201526016602482015275109bdc9c9bddd95c881a185cc8191959985d5b1d195960521b604482015290519081900360640190fd5b818411611be357600095505050505050610c3c565b600195505050505050610c3c565b6001600160a01b03811660009081526009602052604081206004015481611c244268327cb2734119d3b7a9601e1b611f71565b6001600160a01b038516600090815260096020526040812060020154919250611c4c866119e0565b90506000611c6d611b7768327cb2734119d3b7a9601e1b610c2f8689611f71565b905080841115611c8557600195505050505050610c3c565b600095505050505050610c3c565b6001600160a01b038116600090815260086020526040812060019081015460ff16151514611cf5576040805162461bcd60e51b815260206004820152600a6024820152694e6f206f76657264756560b01b604482015290519081900360640190fd5b6000611d008361171a565b90506000611d0d84611ddd565b6001600160a01b03851660009081526008602090815260408083206002015460099092528220600401549293509091610cc49168327cb2734119d3b7a9601e1b91610c2f918691610c299190610c239086908690858d84612031565b6001600160a01b03811660009081526009602052604081206006015481611d9c4268327cb2734119d3b7a9601e1b611f71565b6001600160a01b038516600090815260096020526040812060040154919250610c3568327cb2734119d3b7a9601e1b610f0984610c2f83610c29898b611f0f565b600080826001600160a01b031663d7c358ae6040518163ffffffff1660e01b815260040160206040518083038186803b158015611e1957600080fd5b505afa158015611e2d573d6000803e3d6000fd5b505050506040513d6020811015611e4357600080fd5b50516001600160a01b03841660009081526009602052604081206005015491925090611e7a906301e1338090610c2f908590611f71565b949350505050565b6000806000611e9084611ddd565b6001600160a01b03949094166000908152600860205260409020600201549492505050565b604080516001600160a01b0380861660248301528416604482015260648082018490528251808303909101815260849091019091526020810180516001600160e01b03166323b872dd60e01b1790526118e49085906121b9565b600082821115611f66576040805162461bcd60e51b815260206004820152601e60248201527f536166654d6174683a207375627472616374696f6e206f766572666c6f770000604482015290519081900360640190fd5b508082035b92915050565b600082611f8057506000611f6b565b82820282848281611f8d57fe5b04146114ba5760405162461bcd60e51b815260040180806020018281038252602181526020018061250c6021913960400191505060405180910390fd5b6000808211612020576040805162461bcd60e51b815260206004820152601a60248201527f536166654d6174683a206469766973696f6e206279207a65726f000000000000604482015290519081900360640190fd5b81838161202957fe5b049392505050565b6000828201838110156114ba576040805162461bcd60e51b815260206004820152601b60248201527f536166654d6174683a206164646974696f6e206f766572666c6f770000000000604482015290519081900360640190fd5b6001600160a01b0381166120de576040805162461bcd60e51b81526020600482015260156024820152740c081859191c995cdcc81b9bdd08185b1b1bddd959605a1b604482015290519081900360640190fd5b600380546001600160a01b0383166001600160a01b0319909116811790915560408051918252517f1c7678eaee5fa898fb56c2cae0f73cba66bd4eee97d2df577030caea131dd9a59181900360200190a150565b60068190556040805182815290517f191bb9be3a644dcc5e81bffa96f90a666c848d5bdef6c138be9e2909f683c1369181900360200190a150565b60006121783061226f565b15905090565b60078190556040805182815290517fb9d9ff4c2f033fddd2d79ede90ed4b266a4b14f2fb7a53b65f841f782ab732f79181900360200190a150565b606061220e826040518060400160405280602081526020017f5361666545524332303a206c6f772d6c6576656c2063616c6c206661696c6564815250856001600160a01b03166122759092919063ffffffff16565b80519091501561226a5780806020019051602081101561222d57600080fd5b505161226a5760405162461bcd60e51b815260040180806020018281038252602a815260200180612598602a913960400191505060405180910390fd5b505050565b3b151590565b6060611e7a8484600085856122898561226f565b6122da576040805162461bcd60e51b815260206004820152601d60248201527f416464726573733a2063616c6c20746f206e6f6e2d636f6e7472616374000000604482015290519081900360640190fd5b60006060866001600160a01b031685876040518082805190602001908083835b602083106123195780518252601f1990920191602091820191016122fa565b6001836020036101000a03801982511681845116808217855250505050505090500191505060006040518083038185875af1925050503d806000811461237b576040519150601f19603f3d011682016040523d82523d6000602084013e612380565b606091505b5091509150611aa48282866060831561239a5750816114ba565b8251156123aa5782518084602001fd5b8160405162461bcd60e51b81526004018080602001828103825283818151815260200191508051906020019080838360005b838110156123f45781810151838201526020016123dc565b50505050905090810190601f1680156124215780820380516001836020036101000a031916815260200191505b509250505060405180910390fdfe52657061796d656e74733a7265706179496e74657265737420506f6f6c2073686f756c64206265206163746976652e52657061796d656e74733a3a6f6e6c7956616c6964506f6f6c202d20496e76616c696420506f6f6c52657061796d656e74733a3a72657061796d656e74457874656e646564202d20496e76616c69642063616c6c6572496e697469616c697a61626c653a20636f6e747261637420697320616c726561647920696e697469616c697a656452657061796d656e74733a72657061795072696e636970616c20556e7061696420696e746572657374536166654d6174683a206d756c7469706c69636174696f6e206f766572666c6f7752657061796d656e74733a72657061795072696e636970616c20506f6f6c2073686f756c642062652061637469766552657061796d656e74733a3a7265706179416d6f756e7420616d6f756e7420646f6573206e6f74206d61746368206d6573736167652076616c75652e5361666545524332303a204552433230206f7065726174696f6e20646964206e6f74207375636365656452657061796d656e74733a72657061795072696e636970616c2052657061796d656e74206f76657264756520756e7061696452657061796d656e74733a3a7265706179416d6f756e74206e6f74206e6563657373617279a26469706673582212209ded9a5468b9a6144f6848604e9e78b3ca4f96c740811c245dcbafb809c4fd8064736f6c63430007000033",
  "linkReferences": {},
  "deployedLinkReferences": {}
}