{
  "_format": "hh-sol-artifact-1",
  "contractName": "Repayments",
  "sourceName": "contracts/Repayments/Repayments.sol",
  "abi": [
    {
      "anonymous": false,
      "inputs": [
        {
          "indexed": false,
          "internalType": "uint256",
          "name": "gracePenaltyRate",
          "type": "uint256"
        }
      ],
      "name": "GracePenalityRateUpdated",
      "type": "event"
    },
    {
      "anonymous": false,
      "inputs": [
        {
          "indexed": false,
          "internalType": "uint256",
          "name": "gracePeriodFraction",
          "type": "uint256"
        }
      ],
      "name": "GracePeriodFractionUpdated",
      "type": "event"
    },
    {
      "anonymous": false,
      "inputs": [
        {
          "indexed": false,
          "internalType": "address",
          "name": "poolID",
          "type": "address"
        },
        {
          "indexed": false,
          "internalType": "uint256",
          "name": "repayAmount",
          "type": "uint256"
        }
      ],
      "name": "InterestRepaid",
      "type": "event"
    },
    {
      "anonymous": false,
      "inputs": [
        {
          "indexed": false,
          "internalType": "address",
          "name": "poolID",
          "type": "address"
        }
      ],
      "name": "MissedRepaymentRepaid",
      "type": "event"
    },
    {
      "anonymous": false,
      "inputs": [
        {
          "indexed": false,
          "internalType": "address",
          "name": "poolID",
          "type": "address"
        }
      ],
      "name": "PartialExtensionRepaymentMade",
      "type": "event"
    },
    {
      "anonymous": false,
      "inputs": [
        {
          "indexed": false,
          "internalType": "address",
          "name": "poolFactory",
          "type": "address"
        }
      ],
      "name": "PoolFactoryUpdated",
      "type": "event"
    },
    {
      "anonymous": false,
      "inputs": [
        {
          "indexed": false,
          "internalType": "address",
          "name": "savingnsAccount",
          "type": "address"
        }
      ],
      "name": "SavingsAccountUpdated",
      "type": "event"
    },
    {
      "inputs": [
        {
          "internalType": "address",
          "name": "_poolID",
          "type": "address"
        }
      ],
      "name": "didBorrowerDefault",
      "outputs": [
        {
          "internalType": "bool",
          "name": "",
          "type": "bool"
        }
      ],
      "stateMutability": "view",
      "type": "function"
    },
    {
      "inputs": [
        {
          "internalType": "address",
          "name": "_poolID",
          "type": "address"
        }
      ],
      "name": "getCurrentInstalmentInterval",
      "outputs": [
        {
          "internalType": "uint256",
          "name": "",
          "type": "uint256"
        }
      ],
      "stateMutability": "view",
      "type": "function"
    },
    {
      "inputs": [
        {
          "internalType": "address",
          "name": "_poolID",
          "type": "address"
        }
      ],
      "name": "getCurrentLoanInterval",
      "outputs": [
        {
          "internalType": "uint256",
          "name": "",
          "type": "uint256"
        }
      ],
      "stateMutability": "view",
      "type": "function"
    },
    {
      "inputs": [],
      "name": "getGracePeriodFraction",
      "outputs": [
        {
          "internalType": "uint256",
          "name": "",
          "type": "uint256"
        }
      ],
      "stateMutability": "view",
      "type": "function"
    },
    {
      "inputs": [
        {
          "internalType": "address",
          "name": "_poolID",
          "type": "address"
        }
      ],
      "name": "getInstalmentsCompleted",
      "outputs": [
        {
          "internalType": "uint256",
          "name": "",
          "type": "uint256"
        }
      ],
      "stateMutability": "view",
      "type": "function"
    },
    {
      "inputs": [
        {
          "internalType": "address",
          "name": "_poolID",
          "type": "address"
        }
      ],
      "name": "getInterestCalculationVars",
      "outputs": [
        {
          "internalType": "uint256",
          "name": "",
          "type": "uint256"
        },
        {
          "internalType": "uint256",
          "name": "",
          "type": "uint256"
        }
      ],
      "stateMutability": "view",
      "type": "function"
    },
    {
      "inputs": [
        {
          "internalType": "address",
          "name": "_poolID",
          "type": "address"
        }
      ],
      "name": "getInterestDueTillInstalmentDeadline",
      "outputs": [
        {
          "internalType": "uint256",
          "name": "",
          "type": "uint256"
        }
      ],
      "stateMutability": "view",
      "type": "function"
    },
    {
      "inputs": [
        {
          "internalType": "address",
          "name": "_poolID",
          "type": "address"
        }
      ],
      "name": "getInterestLeft",
      "outputs": [
        {
          "internalType": "uint256",
          "name": "",
          "type": "uint256"
        }
      ],
      "stateMutability": "view",
      "type": "function"
    },
    {
      "inputs": [
        {
          "internalType": "address",
          "name": "_poolID",
          "type": "address"
        }
      ],
      "name": "getInterestOverdue",
      "outputs": [
        {
          "internalType": "uint256",
          "name": "",
          "type": "uint256"
        }
      ],
      "stateMutability": "view",
      "type": "function"
    },
    {
      "inputs": [
        {
          "internalType": "address",
          "name": "_poolID",
          "type": "address"
        }
      ],
      "name": "getInterestPerSecond",
      "outputs": [
        {
          "internalType": "uint256",
          "name": "",
          "type": "uint256"
        }
      ],
      "stateMutability": "view",
      "type": "function"
    },
    {
      "inputs": [
        {
          "internalType": "address",
          "name": "_poolID",
          "type": "address"
        }
      ],
      "name": "getNextInstalmentDeadline",
      "outputs": [
        {
          "internalType": "uint256",
          "name": "",
          "type": "uint256"
        }
      ],
      "stateMutability": "view",
      "type": "function"
    },
    {
      "inputs": [
        {
          "internalType": "address",
          "name": "_poolID",
          "type": "address"
        }
      ],
      "name": "getTotalRepaidAmount",
      "outputs": [
        {
          "internalType": "uint256",
          "name": "",
          "type": "uint256"
        }
      ],
      "stateMutability": "view",
      "type": "function"
    },
    {
      "inputs": [
        {
          "internalType": "address",
          "name": "_poolFactory",
          "type": "address"
        },
        {
          "internalType": "uint256",
          "name": "_gracePenaltyRate",
          "type": "uint256"
        },
        {
          "internalType": "uint256",
          "name": "_gracePeriodFraction",
          "type": "uint256"
        },
        {
          "internalType": "address",
          "name": "_savingsAccount",
          "type": "address"
        }
      ],
      "name": "initialize",
      "outputs": [],
      "stateMutability": "nonpayable",
      "type": "function"
    },
    {
      "inputs": [
        {
          "internalType": "uint256",
          "name": "numberOfTotalRepayments",
          "type": "uint256"
        },
        {
          "internalType": "uint256",
          "name": "repaymentInterval",
          "type": "uint256"
        },
        {
          "internalType": "uint256",
          "name": "borrowRate",
          "type": "uint256"
        },
        {
          "internalType": "uint256",
          "name": "loanStartTime",
          "type": "uint256"
        },
        {
          "internalType": "address",
          "name": "lentAsset",
          "type": "address"
        }
      ],
      "name": "initializeRepayment",
      "outputs": [],
      "stateMutability": "nonpayable",
      "type": "function"
    },
    {
      "inputs": [
        {
          "internalType": "address",
          "name": "_poolID",
          "type": "address"
        },
        {
          "internalType": "uint256",
          "name": "_period",
          "type": "uint256"
        }
      ],
      "name": "instalmentDeadlineExtended",
      "outputs": [],
      "stateMutability": "nonpayable",
      "type": "function"
    },
    {
      "inputs": [
        {
          "internalType": "address",
          "name": "_poolID",
          "type": "address"
        }
      ],
      "name": "isGracePenaltyApplicable",
      "outputs": [
        {
          "internalType": "bool",
          "name": "",
          "type": "bool"
        }
      ],
      "stateMutability": "view",
      "type": "function"
    },
    {
      "inputs": [
        {
          "internalType": "address",
          "name": "_poolID",
          "type": "address"
        },
        {
          "internalType": "uint256",
          "name": "_amount",
          "type": "uint256"
        }
      ],
      "name": "repayAmount",
      "outputs": [],
      "stateMutability": "payable",
      "type": "function"
    },
    {
      "inputs": [
        {
          "internalType": "address payable",
          "name": "_poolID",
          "type": "address"
        },
        {
          "internalType": "uint256",
          "name": "_amount",
          "type": "uint256"
        }
      ],
      "name": "repayPrincipal",
      "outputs": [],
      "stateMutability": "payable",
      "type": "function"
    },
    {
      "inputs": [
        {
          "internalType": "address",
          "name": "",
          "type": "address"
        }
      ],
      "name": "repaymentConstants",
      "outputs": [
        {
          "internalType": "uint256",
          "name": "numberOfTotalRepayments",
          "type": "uint256"
        },
        {
          "internalType": "uint256",
          "name": "gracePenaltyRate",
          "type": "uint256"
        },
        {
          "internalType": "uint256",
          "name": "gracePeriodFraction",
          "type": "uint256"
        },
        {
          "internalType": "uint256",
          "name": "loanDuration",
          "type": "uint256"
        },
        {
          "internalType": "uint256",
          "name": "repaymentInterval",
          "type": "uint256"
        },
        {
          "internalType": "uint256",
          "name": "borrowRate",
          "type": "uint256"
        },
        {
          "internalType": "uint256",
          "name": "loanStartTime",
          "type": "uint256"
        },
        {
          "internalType": "address",
          "name": "repayAsset",
          "type": "address"
        },
        {
          "internalType": "address",
          "name": "savingsAccount",
          "type": "address"
        }
      ],
      "stateMutability": "view",
      "type": "function"
    },
    {
      "inputs": [
        {
          "internalType": "address",
          "name": "",
          "type": "address"
        }
      ],
      "name": "repaymentVars",
      "outputs": [
        {
          "internalType": "uint256",
          "name": "totalRepaidAmount",
          "type": "uint256"
        },
        {
          "internalType": "uint256",
          "name": "repaymentPeriodCovered",
          "type": "uint256"
        },
        {
          "internalType": "uint256",
          "name": "repaidAmount",
          "type": "uint256"
        },
        {
          "internalType": "bool",
          "name": "isLoanExtensionActive",
          "type": "bool"
        },
        {
          "internalType": "uint256",
          "name": "loanDurationCovered",
          "type": "uint256"
        },
        {
          "internalType": "uint256",
          "name": "nextDuePeriod",
          "type": "uint256"
        },
        {
          "internalType": "uint256",
          "name": "nInstalmentsFullyPaid",
          "type": "uint256"
        },
        {
          "internalType": "uint256",
          "name": "loanExtensionPeriod",
          "type": "uint256"
        }
      ],
      "stateMutability": "view",
      "type": "function"
    },
    {
      "inputs": [
        {
          "internalType": "uint256",
          "name": "_gracePenaltyRate",
          "type": "uint256"
        }
      ],
      "name": "updateGracePenalityRate",
      "outputs": [],
      "stateMutability": "nonpayable",
      "type": "function"
    },
    {
      "inputs": [
        {
          "internalType": "uint256",
          "name": "_gracePeriodFraction",
          "type": "uint256"
        }
      ],
      "name": "updateGracePeriodFraction",
      "outputs": [],
      "stateMutability": "nonpayable",
      "type": "function"
    },
    {
      "inputs": [
        {
          "internalType": "address",
          "name": "_poolFactory",
          "type": "address"
        }
      ],
      "name": "updatePoolFactory",
      "outputs": [],
      "stateMutability": "nonpayable",
      "type": "function"
    },
    {
      "inputs": [
        {
          "internalType": "address",
          "name": "_savingsAccount",
          "type": "address"
        }
      ],
      "name": "updateSavingsAccount",
      "outputs": [],
      "stateMutability": "nonpayable",
      "type": "function"
    }
  ],
  "bytecode": "0x608060405234801561001057600080fd5b506001600855612805806100256000396000f3fe60806040526004361061014b5760003560e01c806392b98309116100b6578063eeb69a241161006f578063eeb69a241461059d578063ef3bcd18146105d0578063f2a8a80614610603578063fb780e8914610636578063fc60fb5d14610669578063ffe90fd5146106955761014b565b806392b98309146104145780639e3d87cd1461043e578063a4c5a11514610485578063aba7545e146104f9578063bf3b8e4b14610523578063d2144951146105565761014b565b80632c7f475a116101085780632c7f475a1461027757806345f8f010146102aa578063488fc94e146102dd5780634bbf204714610328578063632d31141461035b5780636cf14f9d146103e15761014b565b8063039785f4146101505780630d3a4ef81461018b5780631466e3ea146101d05780631928570b146102035780631a34ae18146102185780632638774c1461024b575b600080fd5b34801561015c57600080fd5b506101896004803603604081101561017357600080fd5b506001600160a01b0381351690602001356106e1565b005b34801561019757600080fd5b506101be600480360360208110156101ae57600080fd5b50356001600160a01b03166107cf565b60408051918252519081900360200190f35b3480156101dc57600080fd5b506101be600480360360208110156101f357600080fd5b50356001600160a01b031661085d565b34801561020f57600080fd5b506101be61087b565b34801561022457600080fd5b506101be6004803603602081101561023b57600080fd5b50356001600160a01b0316610881565b6101896004803603604081101561026157600080fd5b506001600160a01b0381351690602001356108ec565b34801561028357600080fd5b506101be6004803603602081101561029a57600080fd5b50356001600160a01b0316610ffa565b3480156102b657600080fd5b50610189600480360360208110156102cd57600080fd5b50356001600160a01b0316611025565b3480156102e957600080fd5b50610189600480360360a081101561030057600080fd5b50803590602081013590604081013590606081013590608001356001600160a01b03166110f3565b34801561033457600080fd5b506101be6004803603602081101561034b57600080fd5b50356001600160a01b03166112a1565b34801561036757600080fd5b5061038e6004803603602081101561037e57600080fd5b50356001600160a01b03166112e7565b60408051998a5260208a0198909852888801969096526060880194909452608087019290925260a086015260c08501526001600160a01b0390811660e08501521661010083015251908190036101200190f35b3480156103ed57600080fd5b506101896004803603602081101561040457600080fd5b50356001600160a01b031661133e565b34801561042057600080fd5b506101896004803603602081101561043757600080fd5b5035611409565b34801561044a57600080fd5b506101896004803603608081101561046157600080fd5b506001600160a01b03813581169160208101359160408201359160600135166114d4565b34801561049157600080fd5b506104b8600480360360208110156104a857600080fd5b50356001600160a01b031661159e565b604080519889526020890197909752878701959095529215156060870152608086019190915260a085015260c084015260e083015251908190036101000190f35b34801561050557600080fd5b506101896004803603602081101561051c57600080fd5b50356115e7565b34801561052f57600080fd5b506101be6004803603602081101561054657600080fd5b50356001600160a01b03166116b2565b34801561056257600080fd5b506105896004803603602081101561057957600080fd5b50356001600160a01b031661177a565b604080519115158252519081900360200190f35b3480156105a957600080fd5b50610589600480360360208110156105c057600080fd5b50356001600160a01b0316611870565b3480156105dc57600080fd5b506101be600480360360208110156105f357600080fd5b50356001600160a01b0316611912565b34801561060f57600080fd5b506101be6004803603602081101561062657600080fd5b50356001600160a01b03166119e9565b34801561064257600080fd5b506101be6004803603602081101561065957600080fd5b50356001600160a01b0316611a5d565b6101896004803603604081101561067f57600080fd5b506001600160a01b038135169060200135611b02565b3480156106a157600080fd5b506106c8600480360360208110156106b857600080fd5b50356001600160a01b0316611f51565b6040805192835260208301919091528051918290030190f35b600160009054906101000a90046001600160a01b03166001600160a01b0316632d5537b06040518163ffffffff1660e01b815260040160206040518083038186803b15801561072f57600080fd5b505afa158015610743573d6000803e3d6000fd5b505050506040513d602081101561075957600080fd5b50516001600160a01b031633146107a15760405162461bcd60e51b815260040180806020018281038252602e815260200180612603602e913960400191505060405180910390fd5b6001600160a01b03909116600090815260066020526040902060038101805460ff1916600117905560070155565b6000806107db83611a5d565b905060006107e8846116b2565b6001600160a01b0385166000908152600660208181526040808420600401546007909252832090910154929350916108519068327cb2734119d3b7a9601e1b9061084b90879061084590879061083f908a90611f84565b90611f84565b90611fe6565b9061203f565b9450505050505b919050565b6001600160a01b031660009081526006602052604090206002015490565b60055490565b60008061088d83611a5d565b6001600160a01b038416600090815260066020908152604080832060040154600790925282206003015492935090916108c591611f84565b905060006108e368327cb2734119d3b7a9601e1b61084b8585611fe6565b95945050505050565b60026008541415610944576040805162461bcd60e51b815260206004820152601f60248201527f5265656e7472616e637947756172643a207265656e7472616e742063616c6c00604482015290519081900360640190fd5b60026008556001600160a01b03821660009081526007602052604090205482906109af576040805162461bcd60e51b8152602060048201526017602482015276141bdbdb081a5cc81b9bdd08125b9a5d1a5b1a585e9959604a1b604482015290519081900360640190fd5b60008390508268327cb2734119d3b7a9601e1b0292506000816001600160a01b031663acc1ab136040518163ffffffff1660e01b815260040160206040518083038186803b158015610a0057600080fd5b505afa158015610a14573d6000803e3d6000fd5b505050506040513d6020811015610a2a57600080fd5b5051905060018114610a6d5760405162461bcd60e51b815260040180806020018281038252602f8152602001806125ac602f913960400191505060405180910390fd5b600080610a7987611a5d565b6001600160a01b03881660009081526006602052604090206003015490915060ff16151560011415610bbc576000610ab088611912565b9050808710610b4d57610ac38782611f84565b9650610acf83826120a6565b6001600160a01b0389166000908152600660209081526040808320600301805460ff191690556007909152902060040154909350610b2c9068327cb2734119d3b7a9601e1b9061084b9061084583610b268e6112a1565b906120a6565b6001600160a01b038916600090815260066020526040902060040155610bba565b610b5783886120a6565b9250610b98610b768361084b8a68327cb2734119d3b7a9601e1b611fe6565b6001600160a01b038a16600090815260066020526040902060040154906120a6565b6001600160a01b03891660009081526006602052604081206004019190915596505b505b8515610d00576000610bcd88610881565b90506000610bda8961177a565b90508015610c3e576000610c2268327cb2734119d3b7a9601e1b61084b610c008d6107cf565b6001600160a01b038e1660009081526007602052604090206001015490611fe6565b9050610c2e8982611f84565b9850610c3a85826120a6565b9450505b81881015610cb9576000610c628461084b8b68327cb2734119d3b7a9601e1b611fe6565b6001600160a01b038b16600090815260066020526040902060040154909150610c8b90826120a6565b6001600160a01b038b16600090815260066020526040902060040155610cb1858a6120a6565b945050610cfd565b6001600160a01b038916600090815260076020908152604080832060030154600690925290912060040155610cee8883611f84565b9750610cfa84836120a6565b93505b50505b6001600160a01b03808816600090815260076020819052604090912001541682610d5b5760405162461bcd60e51b81526004018080602001828103825260258152602001806127ab6025913960400191505060405180910390fd5b610d718368327cb2734119d3b7a9601e1b61203f565b6001600160a01b038916600090815260066020526040902060020154909350610d9a90846120a6565b6001600160a01b03808a166000908152600660205260409020600201919091558116610e9d5734831115610dff5760405162461bcd60e51b815260040180806020018281038252603c8152602001806126d8603c913960400191505060405180910390fd5b6040516000906001600160a01b038a169085908381818185875af1925050503d8060008114610e4a576040519150601f19603f3d011682016040523d82523d6000602084013e610e4f565b606091505b5050905080610e97576040805162461bcd60e51b815260206004820152600f60248201526e151c985b9cd9995c8819985a5b1959608a1b604482015290519081900360640190fd5b50610eb2565b610eb26001600160a01b038216338a86612100565b6001600160a01b038116610f655782341115610f6057600033610ed53486611f84565b604051600081818185875af1925050503d8060008114610f11576040519150601f19603f3d011682016040523d82523d6000602084013e610f16565b606091505b5050905080610f5e576040805162461bcd60e51b815260206004820152600f60248201526e151c985b9cd9995c8819985a5b1959608a1b604482015290519081900360640190fd5b505b610feb565b604080516323b872dd60e01b81523360048201526001600160a01b038a81166024830152604482018690529151918316916323b872dd916064808201926020929091908290030181600087803b158015610fbe57600080fd5b505af1158015610fd2573d6000803e3d6000fd5b505050506040513d6020811015610fe857600080fd5b50505b50506001600855505050505050565b600080611006836112a1565b905061101e8168327cb2734119d3b7a9601e1b6120a6565b9392505050565b600160009054906101000a90046001600160a01b03166001600160a01b0316638da5cb5b6040518163ffffffff1660e01b815260040160206040518083038186803b15801561107357600080fd5b505afa158015611087573d6000803e3d6000fd5b505050506040513d602081101561109d57600080fd5b50516001600160a01b031633146110e7576040805162461bcd60e51b81526020600482015260096024820152682737ba1037bbb732b960b91b604482015290519081900360640190fd5b6110f081612160565b50565b60015460408051631746617960e31b815233600482015290516001600160a01b039092169163ba330bc891602480820192602092909190829003018186803b15801561113e57600080fd5b505afa158015611152573d6000803e3d6000fd5b505050506040513d602081101561116857600080fd5b50516111a55760405162461bcd60e51b81526004018080602001828103825260288152602001806125db6028913960400191505060405180910390fd5b600454336000908152600760205260409020600181019190915560055460028201558590556111e468327cb2734119d3b7a9601e1b6108458688611fe6565b3360009081526007602052604090206003015561120d8468327cb2734119d3b7a9601e1b611fe6565b33600090815260076020526040902060048101919091556005018390556112408268327cb2734119d3b7a9601e1b611fe6565b33600090815260076020818152604080842060068082019690965592830180546001600160a01b03199081166001600160a01b0398891617909155600254600890940180549490971693169290921790945592829052918220015550505050565b6001600160a01b038116600090815260076020908152604080832060049081015460069093529083200154826108e368327cb2734119d3b7a9601e1b610845848661203f565b60076020819052600091825260409091208054600182015460028301546003840154600485015460058601546006870154978701546008909701549597949693959294919390926001600160a01b03918216911689565b600160009054906101000a90046001600160a01b03166001600160a01b0316638da5cb5b6040518163ffffffff1660e01b815260040160206040518083038186803b15801561138c57600080fd5b505afa1580156113a0573d6000803e3d6000fd5b505050506040513d60208110156113b657600080fd5b50516001600160a01b03163314611400576040805162461bcd60e51b81526020600482015260096024820152682737ba1037bbb732b960b91b604482015290519081900360640190fd5b6110f081612207565b600160009054906101000a90046001600160a01b03166001600160a01b0316638da5cb5b6040518163ffffffff1660e01b815260040160206040518083038186803b15801561145757600080fd5b505afa15801561146b573d6000803e3d6000fd5b505050506040513d602081101561148157600080fd5b50516001600160a01b031633146114cb576040805162461bcd60e51b81526020600482015260096024820152682737ba1037bbb732b960b91b604482015290519081900360640190fd5b6110f0816122ae565b600054610100900460ff16806114ed57506114ed6122e9565b806114fb575060005460ff16155b6115365760405162461bcd60e51b815260040180806020018281038252602e815260200180612631602e913960400191505060405180910390fd5b600054610100900460ff16158015611561576000805460ff1961ff0019909116610100171660011790555b61156a85612160565b611573846122fa565b61157c836122ae565b61158582612207565b8015611597576000805461ff00191690555b5050505050565b60066020819052600091825260409091208054600182015460028301546003840154600485015460058601549686015460079096015494969395929460ff909216939092909188565b600160009054906101000a90046001600160a01b03166001600160a01b0316638da5cb5b6040518163ffffffff1660e01b815260040160206040518083038186803b15801561163557600080fd5b505afa158015611649573d6000803e3d6000fd5b505050506040513d602081101561165f57600080fd5b50516001600160a01b031633146116a9576040805162461bcd60e51b81526020600482015260096024820152682737ba1037bbb732b960b91b604482015290519081900360640190fd5b6110f0816122fa565b6000806116be836112a1565b6001600160a01b0384166000908152600760205260409020549091508114156116eb576000915050610858565b6001600160a01b038316600090815260066020818152604080842060079081015492528320600481015492015490928484111561174d5761174682610b2668327cb2734119d3b7a9601e1b61084b8761084583858d826120a6565b9050610851565b61176f82610b2668327cb2734119d3b7a9601e1b61084b876108458b846120a6565b979650505050505050565b6001600160a01b038116600090815260076020526040812060040154816117ad4268327cb2734119d3b7a9601e1b611fe6565b6001600160a01b0385166000908152600760205260408120600201549192506117d5866116b2565b905060006117fd6117f668327cb2734119d3b7a9601e1b61084b8689611fe6565b83906120a6565b90508084111561184d576040805162461bcd60e51b8152602060048201526016602482015275109bdc9c9bddd95c881a185cc8191959985d5b1d195960521b604482015290519081900360640190fd5b81841161186257600095505050505050610858565b600195505050505050610858565b6001600160a01b038116600090815260076020526040812060040154816118a34268327cb2734119d3b7a9601e1b611fe6565b6001600160a01b0385166000908152600760205260408120600201549192506118cb866116b2565b905060006118ec6117f668327cb2734119d3b7a9601e1b61084b8689611fe6565b90508084111561190457600195505050505050610858565b600095505050505050610858565b6001600160a01b03811660009081526006602052604081206003015460ff161515600114611974576040805162461bcd60e51b815260206004820152600a6024820152694e6f206f76657264756560b01b604482015290519081900360640190fd5b600061197f836112a1565b9050600061198c84611a5d565b6001600160a01b03851660009081526006602090815260408083206004908101546007909352908320015492935090916108e39168327cb2734119d3b7a9601e1b9161084b918691610845919061083f9086908690858d846120a6565b6001600160a01b03811660009081526007602052604081206006015481611a1c4268327cb2734119d3b7a9601e1b611fe6565b6001600160a01b03851660009081526007602052604081206004015491925061085168327cb2734119d3b7a9601e1b610b268461084b83610845898b611f84565b600080826001600160a01b031663c4e41b226040518163ffffffff1660e01b815260040160206040518083038186803b158015611a9957600080fd5b505afa158015611aad573d6000803e3d6000fd5b505050506040513d6020811015611ac357600080fd5b50516001600160a01b03841660009081526007602052604081206005015491925090611afa906301e133809061084b908590611fe6565b949350505050565b60026008541415611b5a576040805162461bcd60e51b815260206004820152601f60248201527f5265656e7472616e637947756172643a207265656e7472616e742063616c6c00604482015290519081900360640190fd5b60026008556001600160a01b0382166000908152600760205260409020548290611bc5576040805162461bcd60e51b8152602060048201526017602482015276141bdbdb081a5cc81b9bdd08125b9a5d1a5b1a585e9959604a1b604482015290519081900360640190fd5b60008390506000816001600160a01b031663acc1ab136040518163ffffffff1660e01b815260040160206040518083038186803b158015611c0557600080fd5b505afa158015611c19573d6000803e3d6000fd5b505050506040513d6020811015611c2f57600080fd5b5051905060018114611c725760405162461bcd60e51b815260040180806020018281038252602f8152602001806126a9602f913960400191505060405180910390fd5b6001600160a01b03851660009081526006602052604090206003015460ff1615611ccd5760405162461bcd60e51b81526004018080602001828103825260328152602001806127796032913960400191505060405180910390fd5b6001600160a01b03851660009081526006602090815260408083206004015460079092529091206003015414611d345760405162461bcd60e51b815260040180806020018281038252602981526020018061265f6029913960400191505060405180910390fd5b6000826001600160a01b031663c4e41b226040518163ffffffff1660e01b815260040160206040518083038186803b158015611d6f57600080fd5b505afa158015611d83573d6000803e3d6000fd5b505050506040513d6020811015611d9957600080fd5b50519050848114611ddb5760405162461bcd60e51b815260040180806020018281038252603b815260200180612714603b913960400191505060405180910390fd5b6001600160a01b03808716600090815260076020819052604090912001541680611edb57348614611e3d5760405162461bcd60e51b815260040180806020018281038252603c8152602001806126d8603c913960400191505060405180910390fd5b6040516000906001600160a01b0389169088908381818185875af1925050503d8060008114611e88576040519150601f19603f3d011682016040523d82523d6000602084013e611e8d565b606091505b5050905080611ed5576040805162461bcd60e51b815260206004820152600f60248201526e151c985b9cd9995c8819985a5b1959608a1b604482015290519081900360640190fd5b50611ef0565b611ef06001600160a01b038216338989612100565b866001600160a01b031663232fa7336040518163ffffffff1660e01b8152600401600060405180830381600087803b158015611f2b57600080fd5b505af1158015611f3f573d6000803e3d6000fd5b50506001600855505050505050505050565b6000806000611f5f84611a5d565b6001600160a01b03949094166000908152600660205260409020600401549492505050565b600082821115611fdb576040805162461bcd60e51b815260206004820152601e60248201527f536166654d6174683a207375627472616374696f6e206f766572666c6f770000604482015290519081900360640190fd5b508082035b92915050565b600082611ff557506000611fe0565b8282028284828161200257fe5b041461101e5760405162461bcd60e51b81526004018080602001828103825260218152602001806126886021913960400191505060405180910390fd5b6000808211612095576040805162461bcd60e51b815260206004820152601a60248201527f536166654d6174683a206469766973696f6e206279207a65726f000000000000604482015290519081900360640190fd5b81838161209e57fe5b049392505050565b60008282018381101561101e576040805162461bcd60e51b815260206004820152601b60248201527f536166654d6174683a206164646974696f6e206f766572666c6f770000000000604482015290519081900360640190fd5b604080516001600160a01b0380861660248301528416604482015260648082018490528251808303909101815260849091019091526020810180516001600160e01b03166323b872dd60e01b17905261215a908590612335565b50505050565b6001600160a01b0381166121b3576040805162461bcd60e51b81526020600482015260156024820152740c081859191c995cdcc81b9bdd08185b1b1bddd959605a1b604482015290519081900360640190fd5b600180546001600160a01b0383166001600160a01b0319909116811790915560408051918252517f1c7678eaee5fa898fb56c2cae0f73cba66bd4eee97d2df577030caea131dd9a59181900360200190a150565b6001600160a01b03811661225a576040805162461bcd60e51b81526020600482015260156024820152740c081859191c995cdcc81b9bdd08185b1b1bddd959605a1b604482015290519081900360640190fd5b600280546001600160a01b0383166001600160a01b0319909116811790915560408051918252517f5e8a3d56d9512a62f643367551a65727148c2516dce6b54956df80926dd2536c9181900360200190a150565b60058190556040805182815290517fb9d9ff4c2f033fddd2d79ede90ed4b266a4b14f2fb7a53b65f841f782ab732f79181900360200190a150565b60006122f4306123eb565b15905090565b60048190556040805182815290517f1662cfaeee18d231409458a532e2ffdf25516e6efd5918d1c9497d7a7dd7dae89181900360200190a150565b606061238a826040518060400160405280602081526020017f5361666545524332303a206c6f772d6c6576656c2063616c6c206661696c6564815250856001600160a01b03166123f19092919063ffffffff16565b8051909150156123e6578080602001905160208110156123a957600080fd5b50516123e65760405162461bcd60e51b815260040180806020018281038252602a81526020018061274f602a913960400191505060405180910390fd5b505050565b3b151590565b6060611afa848460008585612405856123eb565b612456576040805162461bcd60e51b815260206004820152601d60248201527f416464726573733a2063616c6c20746f206e6f6e2d636f6e7472616374000000604482015290519081900360640190fd5b60006060866001600160a01b031685876040518082805190602001908083835b602083106124955780518252601f199092019160209182019101612476565b6001836020036101000a03801982511681845116808217855250505050505090500191505060006040518083038185875af1925050503d80600081146124f7576040519150601f19603f3d011682016040523d82523d6000602084013e6124fc565b606091505b509150915061176f8282866060831561251657508161101e565b8251156125265782518084602001fd5b8160405162461bcd60e51b81526004018080602001828103825283818151815260200191508051906020019080838360005b83811015612570578181015183820152602001612558565b50505050905090810190601f16801561259d5780820380516001836020036101000a031916815260200191505b509250505060405180910390fdfe52657061796d656e74733a7265706179496e74657265737420506f6f6c2073686f756c64206265206163746976652e52657061796d656e74733a3a6f6e6c7956616c6964506f6f6c202d20496e76616c696420506f6f6c52657061796d656e74733a3a72657061796d656e74457874656e646564202d20496e76616c69642063616c6c6572496e697469616c697a61626c653a20636f6e747261637420697320616c726561647920696e697469616c697a656452657061796d656e74733a72657061795072696e636970616c20556e7061696420696e746572657374536166654d6174683a206d756c7469706c69636174696f6e206f766572666c6f7752657061796d656e74733a72657061795072696e636970616c20506f6f6c2073686f756c642062652061637469766552657061796d656e74733a3a7265706179416d6f756e7420616d6f756e7420646f6573206e6f74206d61746368206d6573736167652076616c75652e52657061796d656e74733a72657061795072696e636970616c20416d6f756e742073686f756c64206d6174636820746865207072696e636970616c5361666545524332303a204552433230206f7065726174696f6e20646964206e6f74207375636365656452657061796d656e74733a72657061795072696e636970616c2052657061796d656e74206f76657264756520756e7061696452657061796d656e74733a3a7265706179416d6f756e74206e6f74206e6563657373617279a2646970667358221220d3387ea693ad46625263b53a77bb50f8e18001eee3142cb2e8e8c5b24738c17564736f6c63430007000033",
  "linkReferences": {},
  "deployedLinkReferences": {}
}