{
  "_format": "hh-sol-artifact-1",
  "contractName": "SavingsAccount",
  "sourceName": "contracts/SavingsAccount/SavingsAccount.sol",
  "abi": [
    {
      "anonymous": false,
      "inputs": [
        {
          "indexed": false,
          "internalType": "address",
          "name": "token",
          "type": "address"
        },
        {
          "indexed": false,
          "internalType": "address",
          "name": "from",
          "type": "address"
        },
        {
          "indexed": false,
          "internalType": "address",
          "name": "to",
          "type": "address"
        },
        {
          "indexed": false,
          "internalType": "uint256",
          "name": "amount",
          "type": "uint256"
        }
      ],
      "name": "Approved",
      "type": "event"
    },
    {
      "anonymous": false,
      "inputs": [
        {
          "indexed": false,
          "internalType": "address",
          "name": "token",
          "type": "address"
        },
        {
          "indexed": false,
          "internalType": "address",
          "name": "from",
          "type": "address"
        },
        {
          "indexed": false,
          "internalType": "uint256",
          "name": "amount",
          "type": "uint256"
        }
      ],
      "name": "CreditLineAllowanceRefreshed",
      "type": "event"
    },
    {
      "anonymous": false,
      "inputs": [
        {
          "indexed": false,
          "internalType": "address",
          "name": "_updatedCreditLine",
          "type": "address"
        }
      ],
      "name": "CreditLineUpdated",
      "type": "event"
    },
    {
      "anonymous": false,
      "inputs": [
        {
          "indexed": false,
          "internalType": "address",
          "name": "user",
          "type": "address"
        },
        {
          "indexed": false,
          "internalType": "uint256",
          "name": "amount",
          "type": "uint256"
        },
        {
          "indexed": false,
          "internalType": "address",
          "name": "token",
          "type": "address"
        },
        {
          "indexed": false,
          "internalType": "address",
          "name": "strategy",
          "type": "address"
        }
      ],
      "name": "Deposited",
      "type": "event"
    },
    {
      "anonymous": false,
      "inputs": [
        {
          "indexed": true,
          "internalType": "address",
          "name": "previousOwner",
          "type": "address"
        },
        {
          "indexed": true,
          "internalType": "address",
          "name": "newOwner",
          "type": "address"
        }
      ],
      "name": "OwnershipTransferred",
      "type": "event"
    },
    {
      "anonymous": false,
      "inputs": [
        {
          "indexed": false,
          "internalType": "address",
          "name": "_updatedStrategyRegistry",
          "type": "address"
        }
      ],
      "name": "StrategyRegistryUpdated",
      "type": "event"
    },
    {
      "anonymous": false,
      "inputs": [
        {
          "indexed": false,
          "internalType": "address",
          "name": "user",
          "type": "address"
        },
        {
          "indexed": false,
          "internalType": "address",
          "name": "token",
          "type": "address"
        },
        {
          "indexed": false,
          "internalType": "address",
          "name": "currentStrategy",
          "type": "address"
        },
        {
          "indexed": false,
          "internalType": "address",
          "name": "newStrategy",
          "type": "address"
        }
      ],
      "name": "StrategySwitched",
      "type": "event"
    },
    {
      "anonymous": false,
      "inputs": [
        {
          "indexed": false,
          "internalType": "address",
          "name": "token",
          "type": "address"
        },
        {
          "indexed": false,
          "internalType": "address",
          "name": "strategy",
          "type": "address"
        },
        {
          "indexed": false,
          "internalType": "address",
          "name": "from",
          "type": "address"
        },
        {
          "indexed": false,
          "internalType": "address",
          "name": "to",
          "type": "address"
        },
        {
          "indexed": false,
          "internalType": "uint256",
          "name": "amount",
          "type": "uint256"
        }
      ],
      "name": "Transfer",
      "type": "event"
    },
    {
      "anonymous": false,
      "inputs": [
        {
          "indexed": false,
          "internalType": "address",
          "name": "from",
          "type": "address"
        },
        {
          "indexed": false,
          "internalType": "address",
          "name": "to",
          "type": "address"
        },
        {
          "indexed": false,
          "internalType": "uint256",
          "name": "amountReceived",
          "type": "uint256"
        },
        {
          "indexed": false,
          "internalType": "address",
          "name": "token",
          "type": "address"
        },
        {
          "indexed": false,
          "internalType": "address",
          "name": "strategy",
          "type": "address"
        }
      ],
      "name": "Withdrawn",
      "type": "event"
    },
    {
      "anonymous": false,
      "inputs": [
        {
          "indexed": false,
          "internalType": "address",
          "name": "user",
          "type": "address"
        },
        {
          "indexed": false,
          "internalType": "uint256",
          "name": "tokenReceived",
          "type": "uint256"
        },
        {
          "indexed": false,
          "internalType": "address",
          "name": "token",
          "type": "address"
        }
      ],
      "name": "WithdrawnAll",
      "type": "event"
    },
    {
      "inputs": [
        {
          "internalType": "address",
          "name": "",
          "type": "address"
        },
        {
          "internalType": "address",
          "name": "",
          "type": "address"
        },
        {
          "internalType": "address",
          "name": "",
          "type": "address"
        }
      ],
      "name": "allowance",
      "outputs": [
        {
          "internalType": "uint256",
          "name": "",
          "type": "uint256"
        }
      ],
      "stateMutability": "view",
      "type": "function"
    },
    {
      "inputs": [
        {
          "internalType": "uint256",
          "name": "_amount",
          "type": "uint256"
        },
        {
          "internalType": "address",
          "name": "_token",
          "type": "address"
        },
        {
          "internalType": "address",
          "name": "_to",
          "type": "address"
        }
      ],
      "name": "approve",
      "outputs": [],
      "stateMutability": "nonpayable",
      "type": "function"
    },
    {
      "inputs": [
        {
          "internalType": "address",
          "name": "",
          "type": "address"
        },
        {
          "internalType": "address",
          "name": "",
          "type": "address"
        },
        {
          "internalType": "address",
          "name": "",
          "type": "address"
        }
      ],
      "name": "balanceInShares",
      "outputs": [
        {
          "internalType": "uint256",
          "name": "",
          "type": "uint256"
        }
      ],
      "stateMutability": "view",
      "type": "function"
    },
    {
      "inputs": [],
      "name": "creditLine",
      "outputs": [
        {
          "internalType": "address",
          "name": "",
          "type": "address"
        }
      ],
      "stateMutability": "view",
      "type": "function"
    },
    {
      "inputs": [
        {
          "internalType": "uint256",
          "name": "_amount",
          "type": "uint256"
        },
        {
          "internalType": "address",
          "name": "_token",
          "type": "address"
        },
        {
          "internalType": "address",
          "name": "_to",
          "type": "address"
        }
      ],
      "name": "decreaseAllowance",
      "outputs": [],
      "stateMutability": "nonpayable",
      "type": "function"
    },
    {
      "inputs": [
        {
          "internalType": "uint256",
          "name": "_amount",
          "type": "uint256"
        },
        {
          "internalType": "address",
          "name": "_token",
          "type": "address"
        },
        {
          "internalType": "address",
          "name": "_strategy",
          "type": "address"
        },
        {
          "internalType": "address",
          "name": "_to",
          "type": "address"
        }
      ],
      "name": "deposit",
      "outputs": [
        {
          "internalType": "uint256",
          "name": "",
          "type": "uint256"
        }
      ],
      "stateMutability": "payable",
      "type": "function"
    },
    {
      "inputs": [
        {
          "internalType": "address",
          "name": "_user",
          "type": "address"
        },
        {
          "internalType": "address",
          "name": "_token",
          "type": "address"
        }
      ],
      "name": "getTotalTokens",
      "outputs": [
        {
          "internalType": "uint256",
          "name": "_totalTokens",
          "type": "uint256"
        }
      ],
      "stateMutability": "nonpayable",
      "type": "function"
    },
    {
      "inputs": [
        {
          "internalType": "uint256",
          "name": "_amount",
          "type": "uint256"
        },
        {
          "internalType": "address",
          "name": "_token",
          "type": "address"
        },
        {
          "internalType": "address",
          "name": "_to",
          "type": "address"
        }
      ],
      "name": "increaseAllowance",
      "outputs": [],
      "stateMutability": "nonpayable",
      "type": "function"
    },
    {
      "inputs": [
        {
          "internalType": "uint256",
          "name": "_amount",
          "type": "uint256"
        },
        {
          "internalType": "address",
          "name": "_token",
          "type": "address"
        },
        {
          "internalType": "address",
          "name": "_from",
          "type": "address"
        }
      ],
      "name": "increaseAllowanceToCreditLine",
      "outputs": [],
      "stateMutability": "nonpayable",
      "type": "function"
    },
    {
      "inputs": [
        {
          "internalType": "address",
          "name": "_owner",
          "type": "address"
        },
        {
          "internalType": "address",
          "name": "_strategyRegistry",
          "type": "address"
        },
        {
          "internalType": "address",
          "name": "_creditLine",
          "type": "address"
        }
      ],
      "name": "initialize",
      "outputs": [],
      "stateMutability": "nonpayable",
      "type": "function"
    },
    {
      "inputs": [],
      "name": "owner",
      "outputs": [
        {
          "internalType": "address",
          "name": "",
          "type": "address"
        }
      ],
      "stateMutability": "view",
      "type": "function"
    },
    {
      "inputs": [],
      "name": "renounceOwnership",
      "outputs": [],
      "stateMutability": "nonpayable",
      "type": "function"
    },
    {
      "inputs": [],
      "name": "strategyRegistry",
      "outputs": [
        {
          "internalType": "address",
          "name": "",
          "type": "address"
        }
      ],
      "stateMutability": "view",
      "type": "function"
    },
    {
      "inputs": [
        {
          "internalType": "uint256",
          "name": "_amount",
          "type": "uint256"
        },
        {
          "internalType": "address",
          "name": "_token",
          "type": "address"
        },
        {
          "internalType": "address",
          "name": "_currentStrategy",
          "type": "address"
        },
        {
          "internalType": "address",
          "name": "_newStrategy",
          "type": "address"
        }
      ],
      "name": "switchStrategy",
      "outputs": [],
      "stateMutability": "nonpayable",
      "type": "function"
    },
    {
      "inputs": [
        {
          "internalType": "uint256",
          "name": "_amount",
          "type": "uint256"
        },
        {
          "internalType": "address",
          "name": "_token",
          "type": "address"
        },
        {
          "internalType": "address",
          "name": "_strategy",
          "type": "address"
        },
        {
          "internalType": "address",
          "name": "_to",
          "type": "address"
        }
      ],
      "name": "transfer",
      "outputs": [
        {
          "internalType": "uint256",
          "name": "",
          "type": "uint256"
        }
      ],
      "stateMutability": "nonpayable",
      "type": "function"
    },
    {
      "inputs": [
        {
          "internalType": "uint256",
          "name": "_amount",
          "type": "uint256"
        },
        {
          "internalType": "address",
          "name": "_token",
          "type": "address"
        },
        {
          "internalType": "address",
          "name": "_strategy",
          "type": "address"
        },
        {
          "internalType": "address",
          "name": "_from",
          "type": "address"
        },
        {
          "internalType": "address",
          "name": "_to",
          "type": "address"
        }
      ],
      "name": "transferFrom",
      "outputs": [
        {
          "internalType": "uint256",
          "name": "",
          "type": "uint256"
        }
      ],
      "stateMutability": "nonpayable",
      "type": "function"
    },
    {
      "inputs": [
        {
          "internalType": "address",
          "name": "newOwner",
          "type": "address"
        }
      ],
      "name": "transferOwnership",
      "outputs": [],
      "stateMutability": "nonpayable",
      "type": "function"
    },
    {
      "inputs": [
        {
          "internalType": "address",
          "name": "_creditLine",
          "type": "address"
        }
      ],
      "name": "updateCreditLine",
      "outputs": [],
      "stateMutability": "nonpayable",
      "type": "function"
    },
    {
      "inputs": [
        {
          "internalType": "address",
          "name": "_strategyRegistry",
          "type": "address"
        }
      ],
      "name": "updateStrategyRegistry",
      "outputs": [],
      "stateMutability": "nonpayable",
      "type": "function"
    },
    {
      "inputs": [
        {
          "internalType": "uint256",
          "name": "_amount",
          "type": "uint256"
        },
        {
          "internalType": "address",
          "name": "_token",
          "type": "address"
        },
        {
          "internalType": "address",
          "name": "_strategy",
          "type": "address"
        },
        {
          "internalType": "address payable",
          "name": "_to",
          "type": "address"
        },
        {
          "internalType": "bool",
          "name": "_withdrawShares",
          "type": "bool"
        }
      ],
      "name": "withdraw",
      "outputs": [
        {
          "internalType": "uint256",
          "name": "",
          "type": "uint256"
        }
      ],
      "stateMutability": "nonpayable",
      "type": "function"
    },
    {
      "inputs": [
        {
          "internalType": "address",
          "name": "_token",
          "type": "address"
        }
      ],
      "name": "withdrawAll",
      "outputs": [
        {
          "internalType": "uint256",
          "name": "_tokenReceived",
          "type": "uint256"
        }
      ],
      "stateMutability": "nonpayable",
      "type": "function"
    },
    {
      "inputs": [
        {
          "internalType": "uint256",
          "name": "_amount",
          "type": "uint256"
        },
        {
          "internalType": "address",
          "name": "_token",
          "type": "address"
        },
        {
          "internalType": "address",
          "name": "_strategy",
          "type": "address"
        },
        {
          "internalType": "address",
          "name": "_from",
          "type": "address"
        },
        {
          "internalType": "address payable",
          "name": "_to",
          "type": "address"
        },
        {
          "internalType": "bool",
          "name": "_withdrawShares",
          "type": "bool"
        }
      ],
      "name": "withdrawFrom",
      "outputs": [
        {
          "internalType": "uint256",
          "name": "",
          "type": "uint256"
        }
      ],
      "stateMutability": "nonpayable",
      "type": "function"
    },
    {
      "stateMutability": "payable",
      "type": "receive"
    }
  ],
  "bytecode": "0x608060405234801561001057600080fd5b50600160655561352b806100256000396000f3fe6080604052600436106101395760003560e01c80638ae44be9116100ab578063c0c53b8b1161006f578063c0c53b8b1461051b578063c250283c14610560578063d080bf271461059e578063ea975cb3146105b3578063f2fde38b1461060e578063fa09e6301461064157610140565b80638ae44be9146103f65780638da5cb5b1461043b578063927da10514610450578063ab608e0b14610495578063b98ad570146104d057610140565b80634c1f2dc5116100fd5780634c1f2dc5146102ae57806353c6e2ef146102e15780635895a8e914610314578063715018a6146103555780637851a2d81461036a57806389172072146103ab57610140565b806311c35928146101455780632fac5d9f1461018857806333b5a1ba146101c957806345cd75e91461022c57806347195e131461027d57610140565b3661014057005b600080fd5b34801561015157600080fd5b506101866004803603606081101561016857600080fd5b508035906001600160a01b0360208201358116916040013516610674565b005b34801561019457600080fd5b50610186600480360360608110156101ab57600080fd5b508035906001600160a01b0360208201358116916040013516610734565b3480156101d557600080fd5b5061021a600480360360a08110156101ec57600080fd5b508035906001600160a01b0360208201358116916040810135821691606082013581169160800135166107b5565b60408051918252519081900360200190f35b34801561023857600080fd5b5061021a600480360360a081101561024f57600080fd5b508035906001600160a01b036020820135811691604081013582169160608201351690608001351515610a44565b34801561028957600080fd5b50610292610c66565b604080516001600160a01b039092168252519081900360200190f35b3480156102ba57600080fd5b50610186600480360360208110156102d157600080fd5b50356001600160a01b0316610c75565b3480156102ed57600080fd5b506101866004803603602081101561030457600080fd5b50356001600160a01b0316610ce3565b34801561032057600080fd5b506101866004803603606081101561033757600080fd5b508035906001600160a01b0360208201358116916040013516610d4e565b34801561036157600080fd5b50610186610e4e565b34801561037657600080fd5b506101866004803603606081101561038d57600080fd5b508035906001600160a01b0360208201358116916040013516610efa565b3480156103b757600080fd5b5061021a600480360360808110156103ce57600080fd5b508035906001600160a01b036020820135811691604081013582169160609091013516610f34565b34801561040257600080fd5b5061021a6004803603606081101561041957600080fd5b506001600160a01b038135811691602081013582169160409091013516611141565b34801561044757600080fd5b50610292611164565b34801561045c57600080fd5b5061021a6004803603606081101561047357600080fd5b506001600160a01b038135811691602081013582169160409091013516611173565b3480156104a157600080fd5b5061021a600480360360408110156104b857600080fd5b506001600160a01b0381358116916020013516611196565b3480156104dc57600080fd5b50610186600480360360808110156104f357600080fd5b508035906001600160a01b03602082013581169160408101358216916060909101351661140a565b34801561052757600080fd5b506101866004803603606081101561053e57600080fd5b506001600160a01b038135811691602081013582169160409091013516611789565b61021a6004803603608081101561057657600080fd5b508035906001600160a01b036020820135811691604081013582169160609091013516611851565b3480156105aa57600080fd5b506102926119b6565b3480156105bf57600080fd5b5061021a600480360360c08110156105d657600080fd5b508035906001600160a01b0360208201358116916040810135821691606082013581169160808101359091169060a0013515156119c5565b34801561061a57600080fd5b506101866004803603602081101561063157600080fd5b50356001600160a01b0316611c66565b34801561064d57600080fd5b5061021a6004803603602081101561066457600080fd5b50356001600160a01b0316611d69565b3360009081526069602090815260408083206001600160a01b03868116855290835281842090851684529091528120546106ae90856121bc565b3360008181526069602090815260408083206001600160a01b0389811680865291845282852090891680865290845293829020869055815190815291820193909352808301919091526060810183905290519192507f8d924fb660ea5dc99861c06d5104285681bb68ef281ebe73b6245e399a1ce2ff919081900360800190a150505050565b3360008181526069602090815260408083206001600160a01b0387811680865291845282852090871680865290845293829020889055815190815291820193909352808301919091526060810185905290517f8d924fb660ea5dc99861c06d5104285681bb68ef281ebe73b6245e399a1ce2ff9181900360800190a1505050565b6000856107f35760405162461bcd60e51b81526004018080602001828103825260288152602001806134ce6028913960400191505060405180910390fd5b6108458660405180606001604052806036815260200161336a603691396001600160a01b038087166000908152606960209081526040808320938c16835292815282822033835290522054919061221d565b6001600160a01b0380851660009081526069602090815260408083208a85168452825280832033845290915290209190915584161561090457836001600160a01b031663934a525287876040518363ffffffff1660e01b815260040180838152602001826001600160a01b0316815260200192505050602060405180830381600087803b1580156108d557600080fd5b505af11580156108e9573d6000803e3d6000fd5b505050506040513d60208110156108ff57600080fd5b505195505b610958866040518060600160405280603381526020016132a1603391396001600160a01b0380871660009081526068602090815260408083208c851684528252808320938b1683529290522054919061221d565b6001600160a01b0380851660009081526068602081815260408084208b86168086529083528185208b87168087529084528286209790975594881684529181528183209383529283528082209382529290915220546109b790876121bc565b6001600160a01b0380841660008181526068602090815260408083208b86168085529083528184208b8716808652908452938290209690965580519586529085019190915291861683830152606083015260808201889052517f5b21a3c624a398df3917a0a930f91e3837519b8eab3302b834746433065f29599181900360a00190a15093949350505050565b600060026065541415610a8c576040805162461bcd60e51b815260206004820152601f6024820152600080516020612fed833981519152604482015290519081900360640190fd5b600260655585610acd5760405162461bcd60e51b815260040180806020018281038252603981526020018061300d6039913960400191505060405180910390fd5b6001600160a01b03841615610b6257836001600160a01b031663934a525287876040518363ffffffff1660e01b815260040180838152602001826001600160a01b0316815260200192505050602060405180830381600087803b158015610b3357600080fd5b505af1158015610b47573d6000803e3d6000fd5b505050506040513d6020811015610b5d57600080fd5b505195505b610bb6866040518060600160405280602c815260200161324e602c91393360009081526068602090815260408083206001600160a01b038c81168552908352818420908b168452909152902054919061221d565b3360009081526068602090815260408083206001600160a01b038a81168552908352818420908916845290915281209190915580610bf788888888886122b4565b604080513381526001600160a01b03808a16602083015281830184905280851660608301528a16608082015290519294509092507fc7e63ac0b6e9d33ab0c9db193f5348608183ac4afdd1fa187bd2c382b7b2c380919081900360a00190a16001606555979650505050505050565b6067546001600160a01b031681565b610c7d6124c8565b6001600160a01b0316610c8e611164565b6001600160a01b031614610cd7576040805162461bcd60e51b81526020600482018190526024820152600080516020613317833981519152604482015290519081900360640190fd5b610ce0816124cc565b50565b610ceb6124c8565b6001600160a01b0316610cfc611164565b6001600160a01b031614610d45576040805162461bcd60e51b81526020600482018190526024820152600080516020613317833981519152604482015290519081900360640190fd5b610ce081612565565b60675433906001600160a01b03168114610da0576040805162461bcd60e51b815260206004820152600e60248201526d24b73b30b634b21031b0b63632b960911b604482015290519081900360640190fd5b6001600160a01b038083166000908152606960209081526040808320938716835292815282822033835290522054610dd890856121bc565b6001600160a01b0380841660008181526069602090815260408083209489168084529482528083203384528252918290209490945580519283529282015280820186905290517f6c6fc021c301dde0d9b414af2a031e6f3745e2a2e85f6d2b7784e60350b0bcf19181900360600190a150505050565b610e566124c8565b6001600160a01b0316610e67611164565b6001600160a01b031614610eb0576040805162461bcd60e51b81526020600482018190526024820152600080516020613317833981519152604482015290519081900360640190fd5b6033546040516000916001600160a01b0316907f8be0079c531659141344cd1fd0a4f28419497f9722a3daafe3b4186f6b6457e0908390a3603380546001600160a01b0319169055565b3360009081526069602090815260408083206001600160a01b03868116855290835281842090851684529091528120546106ae90856125fe565b600084610f725760405162461bcd60e51b81526004018080602001828103825260248152602001806130466024913960400191505060405180910390fd5b6001600160a01b0383161561100757826001600160a01b031663934a525286866040518363ffffffff1660e01b815260040180838152602001826001600160a01b0316815260200192505050602060405180830381600087803b158015610fd857600080fd5b505af1158015610fec573d6000803e3d6000fd5b505050506040513d602081101561100257600080fd5b505194505b61105b856040518060600160405280602b815260200161318a602b91393360009081526068602090815260408083206001600160a01b038b81168552908352818420908a168452909152902054919061221d565b3360009081526068602081815260408084206001600160a01b038a81168087529184528286208a821680885290855283872097909755881685529282528084209284529181528183209383529290925220546110b790866121bc565b6001600160a01b0380841660008181526068602090815260408083208a8616808552908352818420958a1680855295835292819020959095558451918252810192909252338284015260608201526080810187905290517f5b21a3c624a398df3917a0a930f91e3837519b8eab3302b834746433065f29599181900360a00190a150929392505050565b606860209081526000938452604080852082529284528284209052825290205481565b6033546001600160a01b031690565b606960209081526000938452604080852082529284528284209052825290205481565b60006060606660009054906101000a90046001600160a01b03166001600160a01b031663b49a60bb6040518163ffffffff1660e01b815260040160006040518083038186803b1580156111e857600080fd5b505afa1580156111fc573d6000803e3d6000fd5b505050506040513d6000823e601f3d908101601f19168201604052602081101561122557600080fd5b810190808051604051939291908464010000000082111561124557600080fd5b90830190602082018581111561125a57600080fd5b825186602082028301116401000000008211171561127757600080fd5b82525081516020918201928201910280838360005b838110156112a457818101518382015260200161128c565b50505050905001604052505050905060005b8151811015611402576001600160a01b0380861660009081526068602090815260408083209388168352929052908120835182908590859081106112f657fe5b60200260200101516001600160a01b03166001600160a01b03168152602001908152602001600020549050806000146113f9578251819060009085908590811061133c57fe5b60200260200101516001600160a01b0316146113eb5783838151811061135e57fe5b60200260200101516001600160a01b03166359846d2983886040518363ffffffff1660e01b815260040180838152602001826001600160a01b0316815260200192505050602060405180830381600087803b1580156113bc57600080fd5b505af11580156113d0573d6000803e3d6000fd5b505050506040513d60208110156113e657600080fd5b505190505b6113f585826121bc565b9450505b506001016112b6565b505092915050565b60026065541415611450576040805162461bcd60e51b815260206004820152601f6024820152600080516020612fed833981519152604482015290519081900360640190fd5b60026065556001600160a01b0382811690821614156114a05760405162461bcd60e51b815260040180806020018281038252602c815260200180613222602c913960400191505060405180910390fd5b836114dc5760405162461bcd60e51b815260040180806020018281038252603f8152602001806131b5603f913960400191505060405180910390fd5b6001600160a01b0382161561157157816001600160a01b031663934a525285856040518363ffffffff1660e01b815260040180838152602001826001600160a01b0316815260200192505050602060405180830381600087803b15801561154257600080fd5b505af1158015611556573d6000803e3d6000fd5b505050506040513d602081101561156c57600080fd5b505193505b6115c58460405180606001604052806033815260200161343b603391393360009081526068602090815260408083206001600160a01b038a811685529083528184209089168452909152902054919061221d565b3360009081526068602090815260408083206001600160a01b03888116855290835281842090871680855292529091209190915584901561168657826001600160a01b0316639d564d9a85876040518363ffffffff1660e01b815260040180836001600160a01b0316815260200182815260200192505050602060405180830381600087803b15801561165757600080fd5b505af115801561166b573d6000803e3d6000fd5b505050506040513d602081101561168157600080fd5b505190505b806001600160a01b038316156116c7576001600160a01b038516156116b9576116b96001600160a01b038616848461265b565b6116c4828685612773565b90505b3360009081526068602090815260408083206001600160a01b038981168552908352818420908716845290915290205461170190826121bc565b3360008181526068602090815260408083206001600160a01b038b81168086529184528285208a8216808752908552948390209690965581519485529184019190915292871682840152606082015290517fd72d9c373b5ce5627d77cef84ead4b8b05f75aef1b979161ef38c5b7a3cf173f9181900360800190a15050600160655550505050565b600054610100900460ff16806117a257506117a26128cd565b806117b0575060005460ff16155b6117eb5760405162461bcd60e51b815260040180806020018281038252602e8152602001806131f4602e913960400191505060405180910390fd5b600054610100900460ff16158015611816576000805460ff1961ff0019909116610100171660011790555b61181e6128de565b61182784611c66565b61183082612565565b611839836124cc565b801561184b576000805461ff00191690555b50505050565b600060026065541415611899576040805162461bcd60e51b815260206004820152601f6024820152600080516020612fed833981519152604482015290519081900360640190fd5b60026065556001600160a01b0382166118e35760405162461bcd60e51b81526004018080602001828103825260438152602001806132d46043913960600191505060405180910390fd5b60006118f086868661298f565b6001600160a01b0380851660009081526068602090815260408083208a8516845282528083209389168352929052205490915061192d90826121bc565b6001600160a01b0380851660008181526068602090815260408083208b8616808552908352818420958b168085529583529281902095909555845192835282018a905281840152606081019190915290517f53d3a44a3fc80dc86c6d50d5d2082bb2c5f0ee5621b9f50a7be8d1bd202c8aba9181900360800190a1600160655595945050505050565b6066546001600160a01b031681565b600060026065541415611a0d576040805162461bcd60e51b815260206004820152601f6024820152600080516020612fed833981519152604482015290519081900360640190fd5b600260655586611a4e5760405162461bcd60e51b815260040180806020018281038252603d8152602001806133a0603d913960400191505060405180910390fd5b611aa08760405180606001604052806036815260200161306a603691396001600160a01b038088166000908152606960209081526040808320938d16835292815282822033835290522054919061221d565b6001600160a01b0380861660009081526069602090815260408083208b851684528252808320338452909152902091909155851615611b5f57846001600160a01b031663934a525288886040518363ffffffff1660e01b815260040180838152602001826001600160a01b0316815260200192505050602060405180830381600087803b158015611b3057600080fd5b505af1158015611b44573d6000803e3d6000fd5b505050506040513d6020811015611b5a57600080fd5b505196505b611bb3876040518060600160405280603181526020016133dd603191396001600160a01b0380881660009081526068602090815260408083208d851684528252808320938c1683529290522054919061221d565b6001600160a01b0380861660009081526068602090815260408083208b851684528252808320938a1683529290529081209190915580611bf689898988886122b4565b604080516001600160a01b03808b16825233602083015281830184905280851660608301528b16608082015290519294509092507fc7e63ac0b6e9d33ab0c9db193f5348608183ac4afdd1fa187bd2c382b7b2c380919081900360a00190a1600160655598975050505050505050565b611c6e6124c8565b6001600160a01b0316611c7f611164565b6001600160a01b031614611cc8576040805162461bcd60e51b81526020600482018190526024820152600080516020613317833981519152604482015290519081900360640190fd5b6001600160a01b038116611d0d5760405162461bcd60e51b81526004018080602001828103825260268152602001806130a06026913960400191505060405180910390fd5b6033546040516001600160a01b038084169216907f8be0079c531659141344cd1fd0a4f28419497f9722a3daafe3b4186f6b6457e090600090a3603380546001600160a01b0319166001600160a01b0392909216919091179055565b600060026065541415611db1576040805162461bcd60e51b815260206004820152601f6024820152600080516020612fed833981519152604482015290519081900360640190fd5b60026065556066546040805163b49a60bb60e01b815290516060926001600160a01b03169163b49a60bb916004808301926000929190829003018186803b158015611dfb57600080fd5b505afa158015611e0f573d6000803e3d6000fd5b505050506040513d6000823e601f3d908101601f191682016040526020811015611e3857600080fd5b8101908080516040519392919084640100000000821115611e5857600080fd5b908301906020820185811115611e6d57600080fd5b8251866020820283011164010000000082111715611e8a57600080fd5b82525081516020918201928201910280838360005b83811015611eb7578181015183820152602001611e9f565b50505050905001604052505050905060005b815181101561214d573360009081526068602090815260408083206001600160a01b038816845290915281208351909190849084908110611f0657fe5b60200260200101516001600160a01b03166001600160a01b0316815260200190815260200160002054600014612145573360009081526068602090815260408083206001600160a01b0388168452909152812083518290859085908110611f6957fe5b60200260200101516001600160a01b03166001600160a01b0316815260200190815260200160002054905060006001600160a01b0316838381518110611fab57fe5b60200260200101516001600160a01b0316146120d857828281518110611fcd57fe5b60200260200101516001600160a01b0316639d564d9a8660686000336001600160a01b03166001600160a01b031681526020019081526020016000206000896001600160a01b03166001600160a01b03168152602001908152602001600020600087878151811061203a57fe5b60200260200101516001600160a01b03166001600160a01b03168152602001908152602001600020546040518363ffffffff1660e01b815260040180836001600160a01b0316815260200182815260200192505050602060405180830381600087803b1580156120a957600080fd5b505af11580156120bd573d6000803e3d6000fd5b505050506040513d60208110156120d357600080fd5b505190505b6120e284826121bc565b3360009081526068602090815260408083206001600160a01b038a168452909152812085519296509185908590811061211757fe5b60200260200101516001600160a01b03166001600160a01b0316815260200190815260200160002060009055505b600101611ec9565b508161215d5760009150506121b2565b612168828433612a57565b60408051338152602081018490526001600160a01b0385168183015290517f328db4c25b66e05dd2f9a763caa536ec2d870c6128ee9e34fb6de0cf3693ec919181900360600190a1505b6001606555919050565b600082820183811015612216576040805162461bcd60e51b815260206004820152601b60248201527f536166654d6174683a206164646974696f6e206f766572666c6f770000000000604482015290519081900360640190fd5b9392505050565b600081848411156122ac5760405162461bcd60e51b81526004018080602001828103825283818151815260200191508051906020019080838360005b83811015612271578181015183820152602001612259565b50505050905090810190601f16801561229e5780820380516001836020036101000a031916815260200191505b509250505060405180910390fd5b505050900390565b6000806001600160a01b0385166122da576122d0878786612a57565b50849050856124be565b821561242a57846001600160a01b0316631391abc7876040518263ffffffff1660e01b815260040180826001600160a01b0316815260200191505060206040518083038186803b15801561232d57600080fd5b505afa158015612341573d6000803e3d6000fd5b505050506040513d602081101561235757600080fd5b505191506001600160a01b0382166123a05760405162461bcd60e51b815260040180806020018281038252602d81526020018061340e602d913960400191505060405180910390fd5b846001600160a01b03166376467da083896040518363ffffffff1660e01b815260040180836001600160a01b0316815260200182815260200192505050602060405180830381600087803b1580156123f757600080fd5b505af115801561240b573d6000803e3d6000fd5b505050506040513d602081101561242157600080fd5b505190506124b3565b859150846001600160a01b0316639d564d9a87896040518363ffffffff1660e01b815260040180836001600160a01b0316815260200182815260200192505050602060405180830381600087803b15801561248457600080fd5b505af1158015612498573d6000803e3d6000fd5b505050506040513d60208110156124ae57600080fd5b505190505b6124be818386612a57565b9550959350505050565b3390565b6001600160a01b0381166125115760405162461bcd60e51b81526004018080602001828103825260338152602001806133376033913960400191505060405180910390fd5b606680546001600160a01b0383166001600160a01b0319909116811790915560408051918252517f0ae0dc70cd51233fb6650002520dcd7be97d65702ded4fbd4fc90777326935889181900360200190a150565b6001600160a01b0381166125aa5760405162461bcd60e51b815260040180806020018281038252602781526020018061327a6027913960400191505060405180910390fd5b606780546001600160a01b0383166001600160a01b0319909116811790915560408051918252517fb29dde25659bdd414bfe336ba2fb6819c3ccd509b278d7c73ae3b7bb7cac11a79181900360200190a150565b600082821115612655576040805162461bcd60e51b815260206004820152601e60248201527f536166654d6174683a207375627472616374696f6e206f766572666c6f770000604482015290519081900360640190fd5b50900390565b8015806126e1575060408051636eb1769f60e11b81523060048201526001600160a01b03848116602483015291519185169163dd62ed3e91604480820192602092909190829003018186803b1580156126b357600080fd5b505afa1580156126c7573d6000803e3d6000fd5b505050506040513d60208110156126dd57600080fd5b5051155b61271c5760405162461bcd60e51b81526004018080602001828103825260368152602001806134986036913960400191505060405180910390fd5b604080516001600160a01b038416602482015260448082018490528251808303909101815260649091019091526020810180516001600160e01b031663095ea7b360e01b17905261276e908490612b17565b505050565b6066546040805163038defd760e01b81526001600160a01b0384811660048301529151600093929092169163038defd791602480820192602092909190829003018186803b1580156127c457600080fd5b505afa1580156127d8573d6000803e3d6000fd5b505050506040513d60208110156127ee57600080fd5b505161282b5760405162461bcd60e51b815260040180806020018281038252602d8152602001806130fe602d913960400191505060405180910390fd5b60006001600160a01b03841661283e5750835b604080516323b3e77760e11b81523360048201526001600160a01b03868116602483015260448201889052915191851691634767ceee918491606480830192602092919082900301818588803b15801561289757600080fd5b505af11580156128ab573d6000803e3d6000fd5b50505050506040513d60208110156128c257600080fd5b505195945050505050565b60006128d830612bc8565b15905090565b600054610100900460ff16806128f757506128f76128cd565b80612905575060005460ff16155b6129405760405162461bcd60e51b815260040180806020018281038252602e8152602001806131f4602e913960400191505060405180910390fd5b600054610100900460ff1615801561296b576000805460ff1961ff0019909116610100171660011790555b612973612bce565b61297b612c6e565b8015610ce0576000805461ff001916905550565b6000836129cd5760405162461bcd60e51b815260040180806020018281038252603981526020018061312b6039913960400191505060405180910390fd5b6001600160a01b038216156129ee576129e7848484612773565b9050612216565b50826001600160a01b03831615612a1957612a146001600160a01b038416333087612d67565b612216565b8334146122165760405162461bcd60e51b81526004018080602001828103825260388152602001806130c66038913960400191505060405180910390fd5b6001600160a01b038216612b03576040516000906001600160a01b0383169085908381818185875af1925050503d8060008114612ab0576040519150601f19603f3d011682016040523d82523d6000602084013e612ab5565b606091505b5050905080612afd576040805162461bcd60e51b815260206004820152600f60248201526e151c985b9cd9995c8819985a5b1959608a1b604482015290519081900360640190fd5b5061276e565b61276e6001600160a01b0383168285612dc1565b6060612b6c826040518060400160405280602081526020017f5361666545524332303a206c6f772d6c6576656c2063616c6c206661696c6564815250856001600160a01b0316612e139092919063ffffffff16565b80519091501561276e57808060200190516020811015612b8b57600080fd5b505161276e5760405162461bcd60e51b815260040180806020018281038252602a81526020018061346e602a913960400191505060405180910390fd5b3b151590565b600054610100900460ff1680612be75750612be76128cd565b80612bf5575060005460ff16155b612c305760405162461bcd60e51b815260040180806020018281038252602e8152602001806131f4602e913960400191505060405180910390fd5b600054610100900460ff1615801561297b576000805460ff1961ff0019909116610100171660011790558015610ce0576000805461ff001916905550565b600054610100900460ff1680612c875750612c876128cd565b80612c95575060005460ff16155b612cd05760405162461bcd60e51b815260040180806020018281038252602e8152602001806131f4602e913960400191505060405180910390fd5b600054610100900460ff16158015612cfb576000805460ff1961ff0019909116610100171660011790555b6000612d056124c8565b603380546001600160a01b0319166001600160a01b038316908117909155604051919250906000907f8be0079c531659141344cd1fd0a4f28419497f9722a3daafe3b4186f6b6457e0908290a3508015610ce0576000805461ff001916905550565b604080516001600160a01b0380861660248301528416604482015260648082018490528251808303909101815260849091019091526020810180516001600160e01b03166323b872dd60e01b17905261184b908590612b17565b604080516001600160a01b038416602482015260448082018490528251808303909101815260649091019091526020810180516001600160e01b031663a9059cbb60e01b17905261276e908490612b17565b6060612e228484600085612e2a565b949350505050565b606082471015612e6b5760405162461bcd60e51b81526004018080602001828103825260268152602001806131646026913960400191505060405180910390fd5b612e7485612bc8565b612ec5576040805162461bcd60e51b815260206004820152601d60248201527f416464726573733a2063616c6c20746f206e6f6e2d636f6e7472616374000000604482015290519081900360640190fd5b60006060866001600160a01b031685876040518082805190602001908083835b60208310612f045780518252601f199092019160209182019101612ee5565b6001836020036101000a03801982511681845116808217855250505050505090500191505060006040518083038185875af1925050503d8060008114612f66576040519150601f19603f3d011682016040523d82523d6000602084013e612f6b565b606091505b5091509150612f7b828286612f86565b979650505050505050565b60608315612f95575081612216565b825115612fa55782518084602001fd5b60405162461bcd60e51b815260206004820181815284516024840152845185939192839260440191908501908083836000831561227157818101518382015260200161225956fe5265656e7472616e637947756172643a207265656e7472616e742063616c6c00536176696e67734163636f756e743a3a776974686472617720416d6f756e74206d7573742062652067726561746572207468616e207a65726f536176696e67734163636f756e743a3a7472616e73666572207a65726f20616d6f756e74536176696e67734163636f756e743a3a776974686472617746726f6d20616c6c6f77616e6365206c696d697420657863656564696e674f776e61626c653a206e6577206f776e657220697320746865207a65726f2061646472657373536176696e67734163636f756e743a3a6465706f736974204554482073656e74206d75737420626520657175616c20746f20616d6f756e74536176696e67734163636f756e743a3a6465706f73697420737472617465677920646f206e6f74206578697374536176696e67734163636f756e743a3a5f6465706f73697420416d6f756e74206d7573742062652067726561746572207468616e207a65726f416464726573733a20696e73756666696369656e742062616c616e636520666f722063616c6c536176696e67734163636f756e743a3a7472616e7366657220696e73756666696369656e742066756e6473536176696e67734163636f756e743a3a737769746368537472617465677920416d6f756e74206d7573742062652067726561746572207468616e207a65726f496e697469616c697a61626c653a20636f6e747261637420697320616c726561647920696e697469616c697a6564536176696e67734163636f756e743a3a73776974636853747261746567792053616d65207374726174656779536176696e67734163636f756e743a3a776974686472617720496e73756666696369656e7420616d6f756e74536176696e67734163636f756e743a3a696e697469616c697a65207a65726f2061646472657373536176696e67734163636f756e743a3a7472616e7366657246726f6d20696e73756666696369656e7420616c6c6f77616e6365536176696e67734163636f756e743a3a6465706f73697420726563656976657220616464726573732073686f756c64206e6f74206265207a65726f20616464726573734f776e61626c653a2063616c6c6572206973206e6f7420746865206f776e6572536176696e67734163636f756e743a3a75706461746553747261746567795265676973747279207a65726f2061646472657373536176696e67734163636f756e743a3a7472616e7366657246726f6d20616c6c6f77616e6365206c696d697420657863656564696e67536176696e67734163636f756e743a3a776974686472617746726f6d20416d6f756e74206d7573742062652067726561746572207468616e207a65726f536176696e67734163636f756e743a3a776974686472617746726f6d20696e73756666696369656e742062616c616e63654c697175696469747920546f6b656e7320616464726573732063616e6e6f742062652061646472657373283029536176696e67734163636f756e743a3a737769746368537472617465677920496e73756666696369656e742062616c616e63655361666545524332303a204552433230206f7065726174696f6e20646964206e6f7420737563636565645361666545524332303a20617070726f76652066726f6d206e6f6e2d7a65726f20746f206e6f6e2d7a65726f20616c6c6f77616e6365536176696e67734163636f756e743a3a7472616e7366657246726f6d207a65726f20616d6f756e74a264697066735822122010c6ebfc579382514b7deb10657310581bc52160a37e53a280bfd6c26613efc364736f6c63430007000033",
  "linkReferences": {},
  "deployedLinkReferences": {}
}