{
  "_format": "hh-sol-artifact-1",
  "contractName": "SavingsAccount",
  "sourceName": "contracts/SavingsAccount/SavingsAccount.sol",
  "abi": [
    {
      "anonymous": false,
      "inputs": [
        {
          "indexed": false,
          "internalType": "address",
          "name": "token",
          "type": "address"
        },
        {
          "indexed": false,
          "internalType": "address",
          "name": "from",
          "type": "address"
        },
        {
          "indexed": false,
          "internalType": "address",
          "name": "to",
          "type": "address"
        },
        {
          "indexed": false,
          "internalType": "uint256",
          "name": "amount",
          "type": "uint256"
        }
      ],
      "name": "Approved",
      "type": "event"
    },
    {
      "anonymous": false,
      "inputs": [
        {
          "indexed": false,
          "internalType": "address",
          "name": "token",
          "type": "address"
        },
        {
          "indexed": false,
          "internalType": "address",
          "name": "from",
          "type": "address"
        },
        {
          "indexed": false,
          "internalType": "uint256",
          "name": "amount",
          "type": "uint256"
        }
      ],
      "name": "CreditLineAllowanceRefreshed",
      "type": "event"
    },
    {
      "anonymous": false,
      "inputs": [
        {
          "indexed": false,
          "internalType": "address",
          "name": "_updatedCreditLine",
          "type": "address"
        }
      ],
      "name": "CreditLineUpdated",
      "type": "event"
    },
    {
      "anonymous": false,
      "inputs": [
        {
          "indexed": false,
          "internalType": "address",
          "name": "user",
          "type": "address"
        },
        {
          "indexed": false,
          "internalType": "uint256",
          "name": "amount",
          "type": "uint256"
        },
        {
          "indexed": false,
          "internalType": "address",
          "name": "asset",
          "type": "address"
        },
        {
          "indexed": false,
          "internalType": "address",
          "name": "strategy",
          "type": "address"
        }
      ],
      "name": "Deposited",
      "type": "event"
    },
    {
      "anonymous": false,
      "inputs": [
        {
          "indexed": true,
          "internalType": "address",
          "name": "previousOwner",
          "type": "address"
        },
        {
          "indexed": true,
          "internalType": "address",
          "name": "newOwner",
          "type": "address"
        }
      ],
      "name": "OwnershipTransferred",
      "type": "event"
    },
    {
      "anonymous": false,
      "inputs": [
        {
          "indexed": false,
          "internalType": "address",
          "name": "_updatedStrategyRegistry",
          "type": "address"
        }
      ],
      "name": "StrategyRegistryUpdated",
      "type": "event"
    },
    {
      "anonymous": false,
      "inputs": [
        {
          "indexed": false,
          "internalType": "address",
          "name": "user",
          "type": "address"
        },
        {
          "indexed": false,
          "internalType": "address",
          "name": "asset",
          "type": "address"
        },
        {
          "indexed": false,
          "internalType": "address",
          "name": "currentStrategy",
          "type": "address"
        },
        {
          "indexed": false,
          "internalType": "address",
          "name": "newStrategy",
          "type": "address"
        }
      ],
      "name": "StrategySwitched",
      "type": "event"
    },
    {
      "anonymous": false,
      "inputs": [
        {
          "indexed": false,
          "internalType": "address",
          "name": "token",
          "type": "address"
        },
        {
          "indexed": false,
          "internalType": "address",
          "name": "strategy",
          "type": "address"
        },
        {
          "indexed": false,
          "internalType": "address",
          "name": "from",
          "type": "address"
        },
        {
          "indexed": false,
          "internalType": "address",
          "name": "to",
          "type": "address"
        },
        {
          "indexed": false,
          "internalType": "uint256",
          "name": "amount",
          "type": "uint256"
        }
      ],
      "name": "Transfer",
      "type": "event"
    },
    {
      "anonymous": false,
      "inputs": [
        {
          "indexed": false,
          "internalType": "address",
          "name": "from",
          "type": "address"
        },
        {
          "indexed": false,
          "internalType": "address",
          "name": "to",
          "type": "address"
        },
        {
          "indexed": false,
          "internalType": "uint256",
          "name": "amountReceived",
          "type": "uint256"
        },
        {
          "indexed": false,
          "internalType": "address",
          "name": "token",
          "type": "address"
        },
        {
          "indexed": false,
          "internalType": "address",
          "name": "strategy",
          "type": "address"
        }
      ],
      "name": "Withdrawn",
      "type": "event"
    },
    {
      "anonymous": false,
      "inputs": [
        {
          "indexed": false,
          "internalType": "address",
          "name": "user",
          "type": "address"
        },
        {
          "indexed": false,
          "internalType": "uint256",
          "name": "tokenReceived",
          "type": "uint256"
        },
        {
          "indexed": false,
          "internalType": "address",
          "name": "asset",
          "type": "address"
        }
      ],
      "name": "WithdrawnAll",
      "type": "event"
    },
    {
      "inputs": [],
      "name": "CreditLine",
      "outputs": [
        {
          "internalType": "address",
          "name": "",
          "type": "address"
        }
      ],
      "stateMutability": "view",
      "type": "function"
    },
    {
      "inputs": [
        {
          "internalType": "address",
          "name": "",
          "type": "address"
        },
        {
          "internalType": "address",
          "name": "",
          "type": "address"
        },
        {
          "internalType": "address",
          "name": "",
          "type": "address"
        }
      ],
      "name": "allowance",
      "outputs": [
        {
          "internalType": "uint256",
          "name": "",
          "type": "uint256"
        }
      ],
      "stateMutability": "view",
      "type": "function"
    },
    {
      "inputs": [
        {
          "internalType": "address",
          "name": "token",
          "type": "address"
        },
        {
          "internalType": "address",
          "name": "to",
          "type": "address"
        },
        {
          "internalType": "uint256",
          "name": "amount",
          "type": "uint256"
        }
      ],
      "name": "approve",
      "outputs": [],
      "stateMutability": "nonpayable",
      "type": "function"
    },
    {
      "inputs": [
        {
          "internalType": "address",
          "name": "token",
          "type": "address"
        },
        {
          "internalType": "address",
          "name": "from",
          "type": "address"
        },
        {
          "internalType": "uint256",
          "name": "amount",
          "type": "uint256"
        }
      ],
      "name": "approveFromToCreditLine",
      "outputs": [],
      "stateMutability": "nonpayable",
      "type": "function"
    },
    {
      "inputs": [
        {
          "internalType": "address",
          "name": "token",
          "type": "address"
        },
        {
          "internalType": "address",
          "name": "to",
          "type": "address"
        },
        {
          "internalType": "uint256",
          "name": "amount",
          "type": "uint256"
        }
      ],
      "name": "decreaseAllowance",
      "outputs": [],
      "stateMutability": "nonpayable",
      "type": "function"
    },
    {
      "inputs": [
        {
          "internalType": "uint256",
          "name": "amount",
          "type": "uint256"
        },
        {
          "internalType": "address",
          "name": "asset",
          "type": "address"
        },
        {
          "internalType": "address",
          "name": "strategy",
          "type": "address"
        },
        {
          "internalType": "address",
          "name": "to",
          "type": "address"
        }
      ],
      "name": "depositTo",
      "outputs": [
        {
          "internalType": "uint256",
          "name": "sharesReceived",
          "type": "uint256"
        }
      ],
      "stateMutability": "payable",
      "type": "function"
    },
    {
      "inputs": [
        {
          "internalType": "address",
          "name": "_user",
          "type": "address"
        },
        {
          "internalType": "address",
          "name": "_asset",
          "type": "address"
        }
      ],
      "name": "getTotalAsset",
      "outputs": [
        {
          "internalType": "uint256",
          "name": "_totalTokens",
          "type": "uint256"
        }
      ],
      "stateMutability": "nonpayable",
      "type": "function"
    },
    {
      "inputs": [
        {
          "internalType": "address",
          "name": "token",
          "type": "address"
        },
        {
          "internalType": "address",
          "name": "to",
          "type": "address"
        },
        {
          "internalType": "uint256",
          "name": "amount",
          "type": "uint256"
        }
      ],
      "name": "increaseAllowance",
      "outputs": [],
      "stateMutability": "nonpayable",
      "type": "function"
    },
    {
      "inputs": [
        {
          "internalType": "address",
          "name": "_owner",
          "type": "address"
        },
        {
          "internalType": "address",
          "name": "_strategyRegistry",
          "type": "address"
        },
        {
          "internalType": "address",
          "name": "_creditLine",
          "type": "address"
        }
      ],
      "name": "initialize",
      "outputs": [],
      "stateMutability": "nonpayable",
      "type": "function"
    },
    {
      "inputs": [],
      "name": "owner",
      "outputs": [
        {
          "internalType": "address",
          "name": "",
          "type": "address"
        }
      ],
      "stateMutability": "view",
      "type": "function"
    },
    {
      "inputs": [],
      "name": "renounceOwnership",
      "outputs": [],
      "stateMutability": "nonpayable",
      "type": "function"
    },
    {
      "inputs": [],
      "name": "strategyRegistry",
      "outputs": [
        {
          "internalType": "address",
          "name": "",
          "type": "address"
        }
      ],
      "stateMutability": "view",
      "type": "function"
    },
    {
      "inputs": [
        {
          "internalType": "address",
          "name": "currentStrategy",
          "type": "address"
        },
        {
          "internalType": "address",
          "name": "newStrategy",
          "type": "address"
        },
        {
          "internalType": "address",
          "name": "asset",
          "type": "address"
        },
        {
          "internalType": "uint256",
          "name": "amount",
          "type": "uint256"
        }
      ],
      "name": "switchStrategy",
      "outputs": [],
      "stateMutability": "nonpayable",
      "type": "function"
    },
    {
      "inputs": [
        {
          "internalType": "address",
          "name": "token",
          "type": "address"
        },
        {
          "internalType": "address",
          "name": "to",
          "type": "address"
        },
        {
          "internalType": "address",
          "name": "strategy",
          "type": "address"
        },
        {
          "internalType": "uint256",
          "name": "amount",
          "type": "uint256"
        }
      ],
      "name": "transfer",
      "outputs": [
        {
          "internalType": "uint256",
          "name": "",
          "type": "uint256"
        }
      ],
      "stateMutability": "nonpayable",
      "type": "function"
    },
    {
      "inputs": [
        {
          "internalType": "address",
          "name": "token",
          "type": "address"
        },
        {
          "internalType": "address",
          "name": "from",
          "type": "address"
        },
        {
          "internalType": "address",
          "name": "to",
          "type": "address"
        },
        {
          "internalType": "address",
          "name": "strategy",
          "type": "address"
        },
        {
          "internalType": "uint256",
          "name": "amount",
          "type": "uint256"
        }
      ],
      "name": "transferFrom",
      "outputs": [
        {
          "internalType": "uint256",
          "name": "",
          "type": "uint256"
        }
      ],
      "stateMutability": "nonpayable",
      "type": "function"
    },
    {
      "inputs": [
        {
          "internalType": "address",
          "name": "newOwner",
          "type": "address"
        }
      ],
      "name": "transferOwnership",
      "outputs": [],
      "stateMutability": "nonpayable",
      "type": "function"
    },
    {
      "inputs": [
        {
          "internalType": "address",
          "name": "_creditLine",
          "type": "address"
        }
      ],
      "name": "updateCreditLine",
      "outputs": [],
      "stateMutability": "nonpayable",
      "type": "function"
    },
    {
      "inputs": [
        {
          "internalType": "address",
          "name": "_strategyRegistry",
          "type": "address"
        }
      ],
      "name": "updateStrategyRegistry",
      "outputs": [],
      "stateMutability": "nonpayable",
      "type": "function"
    },
    {
      "inputs": [
        {
          "internalType": "address",
          "name": "",
          "type": "address"
        },
        {
          "internalType": "address",
          "name": "",
          "type": "address"
        },
        {
          "internalType": "address",
          "name": "",
          "type": "address"
        }
      ],
      "name": "userLockedBalance",
      "outputs": [
        {
          "internalType": "uint256",
          "name": "",
          "type": "uint256"
        }
      ],
      "stateMutability": "view",
      "type": "function"
    },
    {
      "inputs": [
        {
          "internalType": "address payable",
          "name": "withdrawTo",
          "type": "address"
        },
        {
          "internalType": "uint256",
          "name": "amount",
          "type": "uint256"
        },
        {
          "internalType": "address",
          "name": "asset",
          "type": "address"
        },
        {
          "internalType": "address",
          "name": "strategy",
          "type": "address"
        },
        {
          "internalType": "bool",
          "name": "withdrawShares",
          "type": "bool"
        }
      ],
      "name": "withdraw",
      "outputs": [
        {
          "internalType": "uint256",
          "name": "amountReceived",
          "type": "uint256"
        }
      ],
      "stateMutability": "nonpayable",
      "type": "function"
    },
    {
      "inputs": [
        {
          "internalType": "address",
          "name": "_asset",
          "type": "address"
        }
      ],
      "name": "withdrawAll",
      "outputs": [
        {
          "internalType": "uint256",
          "name": "tokenReceived",
          "type": "uint256"
        }
      ],
      "stateMutability": "nonpayable",
      "type": "function"
    },
    {
      "inputs": [
        {
          "internalType": "address",
          "name": "from",
          "type": "address"
        },
        {
          "internalType": "address payable",
          "name": "to",
          "type": "address"
        },
        {
          "internalType": "uint256",
          "name": "amount",
          "type": "uint256"
        },
        {
          "internalType": "address",
          "name": "asset",
          "type": "address"
        },
        {
          "internalType": "address",
          "name": "strategy",
          "type": "address"
        },
        {
          "internalType": "bool",
          "name": "withdrawShares",
          "type": "bool"
        }
      ],
      "name": "withdrawFrom",
      "outputs": [
        {
          "internalType": "uint256",
          "name": "amountReceived",
          "type": "uint256"
        }
      ],
      "stateMutability": "nonpayable",
      "type": "function"
    },
    {
      "stateMutability": "payable",
      "type": "receive"
    }
  ],
  "bytecode": "0x608060405234801561001057600080fd5b5060016065556135b6806100256000396000f3fe6080604052600436106101395760003560e01c8063927da105116100ab578063d080bf271161006f578063d080bf2714610530578063d73b1dc914610545578063e1f21c6714610588578063f18d03cc146105cb578063f2fde38b14610614578063fa09e6301461064757610140565b8063927da105146103d557806396885ed31461041a578063a0fbcba01461046d578063b9d15aa9146104a8578063c0c53b8b146104eb57610140565b80634c1f2dc5116100fd5780634c1f2dc5146102af57806353c6e2ef146102e25780636c43a2ca146103155780636e275bd214610358578063715018a6146103ab5780638da5cb5b146103c057610140565b806325f5527f1461014557806328f68940146101765780632f2eaca4146101c65780633281ac781461021f57806343e145341461026457610140565b3661014057005b600080fd5b34801561015157600080fd5b5061015a61067a565b604080516001600160a01b039092168252519081900360200190f35b6101b46004803603608081101561018c57600080fd5b508035906001600160a01b036020820135811691604081013582169160609091013516610689565b60408051918252519081900360200190f35b3480156101d257600080fd5b506101b4600480360360c08110156101e957600080fd5b506001600160a01b038135811691602081013582169160408201359160608101358216916080820135169060a0013515156107eb565b34801561022b57600080fd5b506101b46004803603606081101561024257600080fd5b506001600160a01b038135811691602081013582169160409091013516610a89565b34801561027057600080fd5b506102ad6004803603608081101561028757600080fd5b506001600160a01b03813581169160208101358216916040820135169060600135610aac565b005b3480156102bb57600080fd5b506102ad600480360360208110156102d257600080fd5b50356001600160a01b0316610e2b565b3480156102ee57600080fd5b506102ad6004803603602081101561030557600080fd5b50356001600160a01b0316610e99565b34801561032157600080fd5b506102ad6004803603606081101561033857600080fd5b506001600160a01b03813581169160208101359091169060400135610f04565b34801561036457600080fd5b506101b4600480360360a081101561037b57600080fd5b506001600160a01b0381358116916020810135821691604082013581169160608101359091169060800135610fc4565b3480156103b757600080fd5b506102ad611252565b3480156103cc57600080fd5b5061015a6112fe565b3480156103e157600080fd5b506101b4600480360360608110156103f857600080fd5b506001600160a01b03813581169160208101358216916040909101351661130d565b34801561042657600080fd5b506101b4600480360360a081101561043d57600080fd5b506001600160a01b0381358116916020810135916040820135811691606081013590911690608001351515611330565b34801561047957600080fd5b506101b46004803603604081101561049057600080fd5b506001600160a01b038135811691602001351661154f565b3480156104b457600080fd5b506102ad600480360360608110156104cb57600080fd5b506001600160a01b038135811691602081013590911690604001356117c3565b3480156104f757600080fd5b506102ad6004803603606081101561050e57600080fd5b506001600160a01b0381358116916020810135821691604090910135166118c3565b34801561053c57600080fd5b5061015a61198b565b34801561055157600080fd5b506102ad6004803603606081101561056857600080fd5b506001600160a01b0381358116916020810135909116906040013561199a565b34801561059457600080fd5b506102ad600480360360608110156105ab57600080fd5b506001600160a01b038135811691602081013590911690604001356119d4565b3480156105d757600080fd5b506101b4600480360360808110156105ee57600080fd5b506001600160a01b03813581169160208101358216916040820135169060600135611a55565b34801561062057600080fd5b506102ad6004803603602081101561063757600080fd5b50356001600160a01b0316611c61565b34801561065357600080fd5b506101b46004803603602081101561066a57600080fd5b50356001600160a01b0316611d64565b6067546001600160a01b031681565b6000600260655414156106d1576040805162461bcd60e51b815260206004820152601f6024820152600080516020613076833981519152604482015290519081900360640190fd5b60026065556001600160a01b03821661071b5760405162461bcd60e51b81526004018080602001828103825260458152602001806133e66045913960600191505060405180910390fd5b6107268585856121b7565b6001600160a01b03808416600090815260686020908152604080832089851684528252808320938816835292905220549091506107639082612286565b6001600160a01b0380841660008181526068602090815260408083208a8616808552908352818420958a1680855295835292819020959095558451928352820189905281840152606081019190915290517f53d3a44a3fc80dc86c6d50d5d2082bb2c5f0ee5621b9f50a7be8d1bd202c8aba9181900360800190a16001606555949350505050565b600060026065541415610833576040805162461bcd60e51b815260206004820152601f6024820152600080516020613076833981519152604482015290519081900360640190fd5b6002606555846108745760405162461bcd60e51b815260040180806020018281038252603d81526020018061342b603d913960400191505060405180910390fd5b6108c6856040518060600160405280603681526020016130f3603691396001600160a01b03808b166000908152606960209081526040808320938b1683529281528282203383529052205491906122e0565b6001600160a01b0380891660009081526069602090815260408083208985168452825280832033845290915290209190915583161561098557826001600160a01b031663934a525286866040518363ffffffff1660e01b815260040180838152602001826001600160a01b0316815260200192505050602060405180830381600087803b15801561095657600080fd5b505af115801561096a573d6000803e3d6000fd5b505050506040513d602081101561098057600080fd5b505194505b6109d985604051806060016040528060318152602001613468603191396001600160a01b03808b1660009081526068602090815260408083208b851684528252808320938a168352929052205491906122e0565b6001600160a01b03808916600090815260686020908152604080832089851684528252808320938816835292905290812091909155610a1b8787878787612377565b604080516001600160a01b03808d16825233602083015281830184905280851660608301528816608082015290519194509192507fc7e63ac0b6e9d33ab0c9db193f5348608183ac4afdd1fa187bd2c382b7b2c3809181900360a00190a15060016065559695505050505050565b606860209081526000938452604080852082529284528284209052825290205481565b60026065541415610af2576040805162461bcd60e51b815260206004820152601f6024820152600080516020613076833981519152604482015290519081900360640190fd5b60026065556001600160a01b038481169084161415610b425760405162461bcd60e51b815260040180806020018281038252602c8152602001806132ab602c913960400191505060405180910390fd5b80610b7e5760405162461bcd60e51b815260040180806020018281038252603f81526020018061323e603f913960400191505060405180910390fd5b6001600160a01b03841615610c1357836001600160a01b031663934a525282846040518363ffffffff1660e01b815260040180838152602001826001600160a01b0316815260200192505050602060405180830381600087803b158015610be457600080fd5b505af1158015610bf8573d6000803e3d6000fd5b505050506040513d6020811015610c0e57600080fd5b505190505b610c67816040518060600160405280603381526020016134c6603391393360009081526068602090815260408083206001600160a01b038981168552908352818420908b16845290915290205491906122e0565b3360009081526068602090815260408083206001600160a01b038781168552908352818420908916808552925290912091909155819015610d2857846001600160a01b0316639d564d9a84846040518363ffffffff1660e01b815260040180836001600160a01b0316815260200182815260200192505050602060405180830381600087803b158015610cf957600080fd5b505af1158015610d0d573d6000803e3d6000fd5b505050506040513d6020811015610d2357600080fd5b505190505b806001600160a01b03851615610d69576001600160a01b03841615610d5b57610d5b6001600160a01b0385168684612597565b610d668285876126af565b90505b3360009081526068602090815260408083206001600160a01b0388811685529083528184209089168452909152902054610da39082612286565b3360008181526068602090815260408083206001600160a01b038a81168086529184528285208c8216808752908552948390209690965581519485529184019190915292891682840152606082015290517fd72d9c373b5ce5627d77cef84ead4b8b05f75aef1b979161ef38c5b7a3cf173f9181900360800190a15050600160655550505050565b610e3361288f565b6001600160a01b0316610e446112fe565b6001600160a01b031614610e8d576040805162461bcd60e51b8152602060048201819052602482015260008051602061335d833981519152604482015290519081900360640190fd5b610e9681612893565b50565b610ea161288f565b6001600160a01b0316610eb26112fe565b6001600160a01b031614610efb576040805162461bcd60e51b8152602060048201819052602482015260008051602061335d833981519152604482015290519081900360640190fd5b610e968161292c565b3360009081526069602090815260408083206001600160a01b0387811685529083528184209086168452909152812054610f3e9083612286565b3360008181526069602090815260408083206001600160a01b038a8116808652918452828520908a1680865290845293829020869055815190815291820193909352808301919091526060810183905290519192507f8d924fb660ea5dc99861c06d5104285681bb68ef281ebe73b6245e399a1ce2ff919081900360800190a150505050565b6000816110025760405162461bcd60e51b81526004018080602001828103825260288152602001806135596028913960400191505060405180910390fd5b611054826040518060600160405280603681526020016133b0603691396001600160a01b038089166000908152606960209081526040808320938d1683529281528282203383529052205491906122e0565b6001600160a01b0380871660009081526069602090815260408083208b85168452825280832033845290915290209190915583161561111357826001600160a01b031663934a525283886040518363ffffffff1660e01b815260040180838152602001826001600160a01b0316815260200192505050602060405180830381600087803b1580156110e457600080fd5b505af11580156110f8573d6000803e3d6000fd5b505050506040513d602081101561110e57600080fd5b505191505b6111678260405180606001604052806033815260200161332a603391396001600160a01b0380891660009081526068602090815260408083208d851684528252808320938a168352929052205491906122e0565b6001600160a01b0380871660009081526068602081815260408084208c86168086529083528185208a871680875290845282862097909755948a1684529181528183209383529283528082209382529290915220546111c69083612286565b6001600160a01b0380861660008181526068602090815260408083208c86168085529083528184208a8716808652908452938290209690965580519586529085019190915291881683830152606083015260808201849052517f5b21a3c624a398df3917a0a930f91e3837519b8eab3302b834746433065f29599181900360a00190a150949350505050565b61125a61288f565b6001600160a01b031661126b6112fe565b6001600160a01b0316146112b4576040805162461bcd60e51b8152602060048201819052602482015260008051602061335d833981519152604482015290519081900360640190fd5b6033546040516000916001600160a01b0316907f8be0079c531659141344cd1fd0a4f28419497f9722a3daafe3b4186f6b6457e0908390a3603380546001600160a01b0319169055565b6033546001600160a01b031690565b606960209081526000938452604080852082529284528284209052825290205481565b600060026065541415611378576040805162461bcd60e51b815260206004820152601f6024820152600080516020613076833981519152604482015290519081900360640190fd5b6002606555846113b95760405162461bcd60e51b81526004018080602001828103825260398152602001806130966039913960400191505060405180910390fd5b6001600160a01b0383161561144e57826001600160a01b031663934a525286866040518363ffffffff1660e01b815260040180838152602001826001600160a01b0316815260200192505050602060405180830381600087803b15801561141f57600080fd5b505af1158015611433573d6000803e3d6000fd5b505050506040513d602081101561144957600080fd5b505194505b6114a2856040518060600160405280602c81526020016132d7602c91393360009081526068602090815260408083206001600160a01b038b81168552908352818420908a16845290915290205491906122e0565b3360009081526068602090815260408083206001600160a01b03898116855290835281842090881684529091528120919091556114e28787878787612377565b604080513381526001600160a01b03808c16602083015281830184905280851660608301528816608082015290519194509192507fc7e63ac0b6e9d33ab0c9db193f5348608183ac4afdd1fa187bd2c382b7b2c3809181900360a00190a150600160655595945050505050565b60006060606660009054906101000a90046001600160a01b03166001600160a01b031663b49a60bb6040518163ffffffff1660e01b815260040160006040518083038186803b1580156115a157600080fd5b505afa1580156115b5573d6000803e3d6000fd5b505050506040513d6000823e601f3d908101601f1916820160405260208110156115de57600080fd5b81019080805160405193929190846401000000008211156115fe57600080fd5b90830190602082018581111561161357600080fd5b825186602082028301116401000000008211171561163057600080fd5b82525081516020918201928201910280838360005b8381101561165d578181015183820152602001611645565b50505050905001604052505050905060005b81518110156117bb576001600160a01b0380861660009081526068602090815260408083209388168352929052908120835182908590859081106116af57fe5b60200260200101516001600160a01b03166001600160a01b03168152602001908152602001600020549050806000146117b257825181906000908590859081106116f557fe5b60200260200101516001600160a01b0316146117a45783838151811061171757fe5b60200260200101516001600160a01b03166359846d2983886040518363ffffffff1660e01b815260040180838152602001826001600160a01b0316815260200192505050602060405180830381600087803b15801561177557600080fd5b505af1158015611789573d6000803e3d6000fd5b505050506040513d602081101561179f57600080fd5b505190505b6117ae8582612286565b9450505b5060010161166f565b505092915050565b60675433906001600160a01b03168114611815576040805162461bcd60e51b815260206004820152600e60248201526d24b73b30b634b21031b0b63632b960911b604482015290519081900360640190fd5b6001600160a01b03808416600090815260696020908152604080832093881683529281528282203383529052205461184d9083612286565b6001600160a01b038085166000818152606960209081526040808320948a168084529482528083203384528252918290209490945580519283529282015280820184905290517f6c6fc021c301dde0d9b414af2a031e6f3745e2a2e85f6d2b7784e60350b0bcf19181900360600190a150505050565b600054610100900460ff16806118dc57506118dc6129c5565b806118ea575060005460ff16155b6119255760405162461bcd60e51b815260040180806020018281038252602e81526020018061327d602e913960400191505060405180910390fd5b600054610100900460ff16158015611950576000805460ff1961ff0019909116610100171660011790555b6119586129d6565b61196184611c61565b61196a8261292c565b61197383612893565b8015611985576000805461ff00191690555b50505050565b6066546001600160a01b031681565b3360009081526069602090815260408083206001600160a01b0387811685529083528184209086168452909152812054610f3e9083612a87565b3360008181526069602090815260408083206001600160a01b0388811680865291845282852090881680865290845293829020869055815190815291820193909352808301919091526060810183905290517f8d924fb660ea5dc99861c06d5104285681bb68ef281ebe73b6245e399a1ce2ff9181900360800190a1505050565b600081611a935760405162461bcd60e51b81526004018080602001828103825260248152602001806130cf6024913960400191505060405180910390fd5b6001600160a01b03831615611b2857826001600160a01b031663934a525283876040518363ffffffff1660e01b815260040180838152602001826001600160a01b0316815260200192505050602060405180830381600087803b158015611af957600080fd5b505af1158015611b0d573d6000803e3d6000fd5b505050506040513d6020811015611b2357600080fd5b505191505b611b7c826040518060600160405280602b8152602001613213602b91393360009081526068602090815260408083206001600160a01b038c81168552908352818420908a16845290915290205491906122e0565b3360009081526068602081815260408084206001600160a01b038b81168087529184528286208a8216808852908552838720979097558a168552928252808420928452918152818320938352929092522054611bd89083612286565b6001600160a01b0380861660008181526068602090815260408083208b8616808552908352818420958a1680855295835292819020959095558451918252810192909252338284015260608201526080810184905290517f5b21a3c624a398df3917a0a930f91e3837519b8eab3302b834746433065f29599181900360a00190a1509392505050565b611c6961288f565b6001600160a01b0316611c7a6112fe565b6001600160a01b031614611cc3576040805162461bcd60e51b8152602060048201819052602482015260008051602061335d833981519152604482015290519081900360640190fd5b6001600160a01b038116611d085760405162461bcd60e51b81526004018080602001828103825260268152602001806131296026913960400191505060405180910390fd5b6033546040516001600160a01b038084169216907f8be0079c531659141344cd1fd0a4f28419497f9722a3daafe3b4186f6b6457e090600090a3603380546001600160a01b0319166001600160a01b0392909216919091179055565b600060026065541415611dac576040805162461bcd60e51b815260206004820152601f6024820152600080516020613076833981519152604482015290519081900360640190fd5b60026065556066546040805163b49a60bb60e01b815290516060926001600160a01b03169163b49a60bb916004808301926000929190829003018186803b158015611df657600080fd5b505afa158015611e0a573d6000803e3d6000fd5b505050506040513d6000823e601f3d908101601f191682016040526020811015611e3357600080fd5b8101908080516040519392919084640100000000821115611e5357600080fd5b908301906020820185811115611e6857600080fd5b8251866020820283011164010000000082111715611e8557600080fd5b82525081516020918201928201910280838360005b83811015611eb2578181015183820152602001611e9a565b50505050905001604052505050905060005b8151811015612148573360009081526068602090815260408083206001600160a01b038816845290915281208351909190849084908110611f0157fe5b60200260200101516001600160a01b03166001600160a01b0316815260200190815260200160002054600014612140573360009081526068602090815260408083206001600160a01b0388168452909152812083518290859085908110611f6457fe5b60200260200101516001600160a01b03166001600160a01b0316815260200190815260200160002054905060006001600160a01b0316838381518110611fa657fe5b60200260200101516001600160a01b0316146120d357828281518110611fc857fe5b60200260200101516001600160a01b0316639d564d9a8660686000336001600160a01b03166001600160a01b031681526020019081526020016000206000896001600160a01b03166001600160a01b03168152602001908152602001600020600087878151811061203557fe5b60200260200101516001600160a01b03166001600160a01b03168152602001908152602001600020546040518363ffffffff1660e01b815260040180836001600160a01b0316815260200182815260200192505050602060405180830381600087803b1580156120a457600080fd5b505af11580156120b8573d6000803e3d6000fd5b505050506040513d60208110156120ce57600080fd5b505190505b6120dd8482612286565b3360009081526068602090815260408083206001600160a01b038a168452909152812085519296509185908590811061211257fe5b60200260200101516001600160a01b03166001600160a01b0316815260200190815260200160002060009055505b600101611ec4565b50816121585760009150506121ad565b612163833384612ae4565b60408051338152602081018490526001600160a01b0385168183015290517f328db4c25b66e05dd2f9a763caa536ec2d870c6128ee9e34fb6de0cf3693ec919181900360600190a1505b6001606555919050565b6000836121f55760405162461bcd60e51b81526004018080602001828103825260398152602001806131b46039913960400191505060405180910390fd5b6001600160a01b038216156122165761220f8484846126af565b905061227f565b50826001600160a01b038316156122415761223c6001600160a01b038416333087612ba4565b61227f565b83341461227f5760405162461bcd60e51b815260040180806020018281038252603881526020018061314f6038913960400191505060405180910390fd5b9392505050565b60008282018381101561227f576040805162461bcd60e51b815260206004820152601b60248201527f536166654d6174683a206164646974696f6e206f766572666c6f770000000000604482015290519081900360640190fd5b6000818484111561236f5760405162461bcd60e51b81526004018080602001828103825283818151815260200191508051906020019080838360005b8381101561233457818101518382015260200161231c565b50505050905090810190601f1680156123615780820380516001836020036101000a031916815260200191505b509250505060405180910390fd5b505050900390565b6000806001600160a01b03841661239f575084612395858883612ae4565b508390508461258d565b82156124fa57836001600160a01b0316631391abc7866040518263ffffffff1660e01b815260040180826001600160a01b0316815260200191505060206040518083038186803b1580156123f257600080fd5b505afa158015612406573d6000803e3d6000fd5b505050506040513d602081101561241c57600080fd5b505191506001600160a01b0382166124655760405162461bcd60e51b815260040180806020018281038252602d815260200180613499602d913960400191505060405180910390fd5b836001600160a01b03166376467da083886040518363ffffffff1660e01b815260040180836001600160a01b0316815260200182815260200192505050602060405180830381600087803b1580156124bc57600080fd5b505af11580156124d0573d6000803e3d6000fd5b505050506040513d60208110156124e657600080fd5b505190506124f5828883612ae4565b61258d565b849150836001600160a01b0316639d564d9a86886040518363ffffffff1660e01b815260040180836001600160a01b0316815260200182815260200192505050602060405180830381600087803b15801561255457600080fd5b505af1158015612568573d6000803e3d6000fd5b505050506040513d602081101561257e57600080fd5b5051905061258d828883612ae4565b9550959350505050565b80158061261d575060408051636eb1769f60e11b81523060048201526001600160a01b03848116602483015291519185169163dd62ed3e91604480820192602092909190829003018186803b1580156125ef57600080fd5b505afa158015612603573d6000803e3d6000fd5b505050506040513d602081101561261957600080fd5b5051155b6126585760405162461bcd60e51b81526004018080602001828103825260368152602001806135236036913960400191505060405180910390fd5b604080516001600160a01b038416602482015260448082018490528251808303909101815260649091019091526020810180516001600160e01b031663095ea7b360e01b1790526126aa908490612bfa565b505050565b6066546040805163038defd760e01b81526001600160a01b0384811660048301529151600093929092169163038defd791602480820192602092909190829003018186803b15801561270057600080fd5b505afa158015612714573d6000803e3d6000fd5b505050506040513d602081101561272a57600080fd5b50516127675760405162461bcd60e51b815260040180806020018281038252602d815260200180613187602d913960400191505060405180910390fd5b6001600160a01b03831661280257604080516323b3e77760e11b81523360048201526001600160a01b03858116602483015260448201879052915191841691634767ceee918791606480830192602092919082900301818588803b1580156127ce57600080fd5b505af11580156127e2573d6000803e3d6000fd5b50505050506040513d60208110156127f957600080fd5b5051905061227f565b604080516323b3e77760e11b81523360048201526001600160a01b03858116602483015260448201879052915191841691634767ceee916064808201926020929091908290030181600087803b15801561285b57600080fd5b505af115801561286f573d6000803e3d6000fd5b505050506040513d602081101561288557600080fd5b5051949350505050565b3390565b6001600160a01b0381166128d85760405162461bcd60e51b815260040180806020018281038252603381526020018061337d6033913960400191505060405180910390fd5b606680546001600160a01b0383166001600160a01b0319909116811790915560408051918252517f0ae0dc70cd51233fb6650002520dcd7be97d65702ded4fbd4fc90777326935889181900360200190a150565b6001600160a01b0381166129715760405162461bcd60e51b81526004018080602001828103825260278152602001806133036027913960400191505060405180910390fd5b606780546001600160a01b0383166001600160a01b0319909116811790915560408051918252517fb29dde25659bdd414bfe336ba2fb6819c3ccd509b278d7c73ae3b7bb7cac11a79181900360200190a150565b60006129d030612cab565b15905090565b600054610100900460ff16806129ef57506129ef6129c5565b806129fd575060005460ff16155b612a385760405162461bcd60e51b815260040180806020018281038252602e81526020018061327d602e913960400191505060405180910390fd5b600054610100900460ff16158015612a63576000805460ff1961ff0019909116610100171660011790555b612a6b612cb1565b612a73612d51565b8015610e96576000805461ff001916905550565b600082821115612ade576040805162461bcd60e51b815260206004820152601e60248201527f536166654d6174683a207375627472616374696f6e206f766572666c6f770000604482015290519081900360640190fd5b50900390565b6001600160a01b038316612b90576040516000906001600160a01b0384169083908381818185875af1925050503d8060008114612b3d576040519150601f19603f3d011682016040523d82523d6000602084013e612b42565b606091505b5050905080612b8a576040805162461bcd60e51b815260206004820152600f60248201526e151c985b9cd9995c8819985a5b1959608a1b604482015290519081900360640190fd5b506126aa565b6126aa6001600160a01b0384168383612e4a565b604080516001600160a01b0380861660248301528416604482015260648082018490528251808303909101815260849091019091526020810180516001600160e01b03166323b872dd60e01b1790526119859085905b6060612c4f826040518060400160405280602081526020017f5361666545524332303a206c6f772d6c6576656c2063616c6c206661696c6564815250856001600160a01b0316612e9c9092919063ffffffff16565b8051909150156126aa57808060200190516020811015612c6e57600080fd5b50516126aa5760405162461bcd60e51b815260040180806020018281038252602a8152602001806134f9602a913960400191505060405180910390fd5b3b151590565b600054610100900460ff1680612cca5750612cca6129c5565b80612cd8575060005460ff16155b612d135760405162461bcd60e51b815260040180806020018281038252602e81526020018061327d602e913960400191505060405180910390fd5b600054610100900460ff16158015612a73576000805460ff1961ff0019909116610100171660011790558015610e96576000805461ff001916905550565b600054610100900460ff1680612d6a5750612d6a6129c5565b80612d78575060005460ff16155b612db35760405162461bcd60e51b815260040180806020018281038252602e81526020018061327d602e913960400191505060405180910390fd5b600054610100900460ff16158015612dde576000805460ff1961ff0019909116610100171660011790555b6000612de861288f565b603380546001600160a01b0319166001600160a01b038316908117909155604051919250906000907f8be0079c531659141344cd1fd0a4f28419497f9722a3daafe3b4186f6b6457e0908290a3508015610e96576000805461ff001916905550565b604080516001600160a01b038416602482015260448082018490528251808303909101815260649091019091526020810180516001600160e01b031663a9059cbb60e01b1790526126aa908490612bfa565b6060612eab8484600085612eb3565b949350505050565b606082471015612ef45760405162461bcd60e51b81526004018080602001828103825260268152602001806131ed6026913960400191505060405180910390fd5b612efd85612cab565b612f4e576040805162461bcd60e51b815260206004820152601d60248201527f416464726573733a2063616c6c20746f206e6f6e2d636f6e7472616374000000604482015290519081900360640190fd5b60006060866001600160a01b031685876040518082805190602001908083835b60208310612f8d5780518252601f199092019160209182019101612f6e565b6001836020036101000a03801982511681845116808217855250505050505090500191505060006040518083038185875af1925050503d8060008114612fef576040519150601f19603f3d011682016040523d82523d6000602084013e612ff4565b606091505b509150915061300482828661300f565b979650505050505050565b6060831561301e57508161227f565b82511561302e5782518084602001fd5b60405162461bcd60e51b815260206004820181815284516024840152845185939192839260440191908501908083836000831561233457818101518382015260200161231c56fe5265656e7472616e637947756172643a207265656e7472616e742063616c6c00536176696e67734163636f756e743a3a776974686472617720416d6f756e74206d7573742062652067726561746572207468616e207a65726f536176696e67734163636f756e743a3a7472616e73666572207a65726f20616d6f756e74536176696e67734163636f756e743a3a776974686472617746726f6d20616c6c6f77616e6365206c696d697420657863656564696e674f776e61626c653a206e6577206f776e657220697320746865207a65726f2061646472657373536176696e67734163636f756e743a3a6465706f736974204554482073656e74206d75737420626520657175616c20746f20616d6f756e74536176696e67734163636f756e743a3a6465706f73697420737472617465677920646f206e6f74206578697374536176696e67734163636f756e743a3a5f6465706f73697420416d6f756e74206d7573742062652067726561746572207468616e207a65726f416464726573733a20696e73756666696369656e742062616c616e636520666f722063616c6c536176696e67734163636f756e743a3a7472616e7366657220696e73756666696369656e742066756e6473536176696e67734163636f756e743a3a737769746368537472617465677920416d6f756e74206d7573742062652067726561746572207468616e207a65726f496e697469616c697a61626c653a20636f6e747261637420697320616c726561647920696e697469616c697a6564536176696e67734163636f756e743a3a73776974636853747261746567792053616d65207374726174656779536176696e67734163636f756e743a3a776974686472617720496e73756666696369656e7420616d6f756e74536176696e67734163636f756e743a3a696e697469616c697a65207a65726f2061646472657373536176696e67734163636f756e743a3a7472616e7366657246726f6d20696e73756666696369656e7420616c6c6f77616e63654f776e61626c653a2063616c6c6572206973206e6f7420746865206f776e6572536176696e67734163636f756e743a3a75706461746553747261746567795265676973747279207a65726f2061646472657373536176696e67734163636f756e743a3a7472616e7366657246726f6d20616c6c6f77616e6365206c696d697420657863656564696e67536176696e67734163636f756e743a3a6465706f736974546f20726563656976657220616464726573732073686f756c64206e6f74206265207a65726f2061646472657373536176696e67734163636f756e743a3a776974686472617746726f6d20416d6f756e74206d7573742062652067726561746572207468616e207a65726f536176696e67734163636f756e743a3a776974686472617746726f6d20696e73756666696369656e742062616c616e63654c697175696469747920546f6b656e7320616464726573732063616e6e6f742062652061646472657373283029536176696e67734163636f756e743a3a737769746368537472617465677920496e73756666696369656e742062616c616e63655361666545524332303a204552433230206f7065726174696f6e20646964206e6f7420737563636565645361666545524332303a20617070726f76652066726f6d206e6f6e2d7a65726f20746f206e6f6e2d7a65726f20616c6c6f77616e6365536176696e67734163636f756e743a3a7472616e7366657246726f6d207a65726f20616d6f756e74a2646970667358221220d2357c780cf97d53cb381356a440feb562ade04c79f9c60037f19050992589d064736f6c63430007000033",
  "linkReferences": {},
  "deployedLinkReferences": {}
}