{
  "_format": "hh-sol-artifact-1",
  "contractName": "Verification",
  "sourceName": "contracts/Verification/Verification.sol",
  "abi": [
    {
      "anonymous": false,
      "inputs": [
        {
          "indexed": true,
          "internalType": "address",
          "name": "previousOwner",
          "type": "address"
        },
        {
          "indexed": true,
          "internalType": "address",
          "name": "newOwner",
          "type": "address"
        }
      ],
      "name": "OwnershipTransferred",
      "type": "event"
    },
    {
      "anonymous": false,
      "inputs": [
        {
          "indexed": false,
          "internalType": "address",
          "name": "masterAddress",
          "type": "address"
        },
        {
          "indexed": false,
          "internalType": "address",
          "name": "verifier",
          "type": "address"
        },
        {
          "indexed": false,
          "internalType": "bool",
          "name": "isMasterLinked",
          "type": "bool"
        }
      ],
      "name": "UserRegistered",
      "type": "event"
    },
    {
      "anonymous": false,
      "inputs": [
        {
          "indexed": false,
          "internalType": "address",
          "name": "masterAddress",
          "type": "address"
        },
        {
          "indexed": false,
          "internalType": "address",
          "name": "verifier",
          "type": "address"
        },
        {
          "indexed": false,
          "internalType": "address",
          "name": "unregisteredBy",
          "type": "address"
        }
      ],
      "name": "UserUnregistered",
      "type": "event"
    },
    {
      "anonymous": false,
      "inputs": [
        {
          "indexed": false,
          "internalType": "address",
          "name": "verifier",
          "type": "address"
        }
      ],
      "name": "VerifierAdded",
      "type": "event"
    },
    {
      "anonymous": false,
      "inputs": [
        {
          "indexed": false,
          "internalType": "address",
          "name": "verifier",
          "type": "address"
        }
      ],
      "name": "VerifierRemoved",
      "type": "event"
    },
    {
      "anonymous": false,
      "inputs": [
        {
          "indexed": false,
          "internalType": "address",
          "name": "linkedAddress",
          "type": "address"
        },
        {
          "indexed": false,
          "internalType": "address",
          "name": "masterAddress",
          "type": "address"
        }
      ],
      "name": "addressLinked",
      "type": "event"
    },
    {
      "anonymous": false,
      "inputs": [
        {
          "indexed": false,
          "internalType": "address",
          "name": "linkedAddress",
          "type": "address"
        },
        {
          "indexed": false,
          "internalType": "address",
          "name": "masterAddress",
          "type": "address"
        }
      ],
      "name": "addressUnlinked",
      "type": "event"
    },
    {
      "inputs": [
        {
          "internalType": "address",
          "name": "_verifier",
          "type": "address"
        }
      ],
      "name": "addVerifier",
      "outputs": [],
      "stateMutability": "nonpayable",
      "type": "function"
    },
    {
      "inputs": [
        {
          "internalType": "address",
          "name": "_admin",
          "type": "address"
        }
      ],
      "name": "initialize",
      "outputs": [],
      "stateMutability": "nonpayable",
      "type": "function"
    },
    {
      "inputs": [
        {
          "internalType": "address",
          "name": "_user",
          "type": "address"
        },
        {
          "internalType": "address",
          "name": "_verifier",
          "type": "address"
        }
      ],
      "name": "isUser",
      "outputs": [
        {
          "internalType": "bool",
          "name": "",
          "type": "bool"
        }
      ],
      "stateMutability": "view",
      "type": "function"
    },
    {
      "inputs": [
        {
          "internalType": "bytes",
          "name": "_approval",
          "type": "bytes"
        }
      ],
      "name": "linkAddress",
      "outputs": [],
      "stateMutability": "nonpayable",
      "type": "function"
    },
    {
      "inputs": [
        {
          "internalType": "address",
          "name": "",
          "type": "address"
        }
      ],
      "name": "linkedAddresses",
      "outputs": [
        {
          "internalType": "address",
          "name": "",
          "type": "address"
        }
      ],
      "stateMutability": "view",
      "type": "function"
    },
    {
      "inputs": [
        {
          "internalType": "address",
          "name": "",
          "type": "address"
        },
        {
          "internalType": "address",
          "name": "",
          "type": "address"
        }
      ],
      "name": "masterAddresses",
      "outputs": [
        {
          "internalType": "bool",
          "name": "",
          "type": "bool"
        }
      ],
      "stateMutability": "view",
      "type": "function"
    },
    {
      "inputs": [],
      "name": "owner",
      "outputs": [
        {
          "internalType": "address",
          "name": "",
          "type": "address"
        }
      ],
      "stateMutability": "view",
      "type": "function"
    },
    {
      "inputs": [
        {
          "internalType": "address",
          "name": "_masterAddress",
          "type": "address"
        },
        {
          "internalType": "bool",
          "name": "_isMasterLinked",
          "type": "bool"
        }
      ],
      "name": "registerMasterAddress",
      "outputs": [],
      "stateMutability": "nonpayable",
      "type": "function"
    },
    {
      "inputs": [
        {
          "internalType": "address",
          "name": "_verifier",
          "type": "address"
        }
      ],
      "name": "removeVerifier",
      "outputs": [],
      "stateMutability": "nonpayable",
      "type": "function"
    },
    {
      "inputs": [],
      "name": "renounceOwnership",
      "outputs": [],
      "stateMutability": "nonpayable",
      "type": "function"
    },
    {
      "inputs": [
        {
          "internalType": "address",
          "name": "newOwner",
          "type": "address"
        }
      ],
      "name": "transferOwnership",
      "outputs": [],
      "stateMutability": "nonpayable",
      "type": "function"
    },
    {
      "inputs": [
        {
          "internalType": "address",
          "name": "_linkedAddress",
          "type": "address"
        }
      ],
      "name": "unlinkAddress",
      "outputs": [],
      "stateMutability": "nonpayable",
      "type": "function"
    },
    {
      "inputs": [
        {
          "internalType": "address",
          "name": "_masterAddress",
          "type": "address"
        },
        {
          "internalType": "address",
          "name": "_verifier",
          "type": "address"
        }
      ],
      "name": "unregisterMasterAddress",
      "outputs": [],
      "stateMutability": "nonpayable",
      "type": "function"
    },
    {
      "inputs": [
        {
          "internalType": "address",
          "name": "",
          "type": "address"
        }
      ],
      "name": "verifiers",
      "outputs": [
        {
          "internalType": "bool",
          "name": "",
          "type": "bool"
        }
      ],
      "stateMutability": "view",
      "type": "function"
    }
  ],
  "bytecode": "0x608060405234801561001057600080fd5b50611436806100206000396000f3fe608060405234801561001057600080fd5b50600436106100ea5760003560e01c8063a21dae471161008c578063b59284ac11610066578063b59284ac14610301578063c4d66de814610327578063ca2dfd0a1461034d578063f2fde38b14610373576100ea565b8063a21dae471461027f578063a94413a1146102a5578063b4d59d0e146102d3576100ea565b8063715018a6116100c8578063715018a6146101ff5780638da5cb5b146102075780639000b3d61461022b5780639a5f0e3f14610251576100ea565b806302d43dc8146100ef57806308d04d4f146101315780636c824487146101d9575b600080fd5b61011d6004803603604081101561010557600080fd5b506001600160a01b0381358116916020013516610399565b604080519115158252519081900360200190f35b6101d76004803603602081101561014757600080fd5b81019060208101813564010000000081111561016257600080fd5b82018360208201111561017457600080fd5b8035906020019184600183028401116401000000008311171561019657600080fd5b91908080601f016020809104026020016040519081016040528093929190818152602001838380828437600092019190915250929550610404945050505050565b005b61011d600480360360208110156101ef57600080fd5b50356001600160a01b031661058a565b6101d761059f565b61020f61064b565b604080516001600160a01b039092168252519081900360200190f35b6101d76004803603602081101561024157600080fd5b50356001600160a01b031661065a565b61011d6004803603604081101561026757600080fd5b506001600160a01b03813581169160200135166107d7565b61020f6004803603602081101561029557600080fd5b50356001600160a01b03166107f7565b6101d7600480360360408110156102bb57600080fd5b506001600160a01b0381351690602001351515610812565b6101d7600480360360408110156102e957600080fd5b506001600160a01b038135811691602001351661098d565b6101d76004803603602081101561031757600080fd5b50356001600160a01b0316610aa2565b6101d76004803603602081101561033d57600080fd5b50356001600160a01b0316610bd7565b6101d76004803603602081101561036357600080fd5b50356001600160a01b0316610c8b565b6101d76004803603602081101561038957600080fd5b50356001600160a01b0316610db2565b6001600160a01b038083166000908152606760205260408120549091168015806103e957506001600160a01b0380821660009081526066602090815260408083209387168352929052205460ff16155b156103f85760009150506103fe565b60019150505b92915050565b336000908152606760205260409020546001600160a01b03161561046f576040805162461bcd60e51b815260206004820152601b60248201527f563a4c412d4164647265737320616c7265616479206c696e6b65640000000000604482015290519081900360640190fd5b60606040518060600160405280602f81526020016113d2602f9139336040516020018083805190602001908083835b602083106104bd5780518252601f19909201916020918201910161049e565b6001836020036101000a038019825116818451168082178552505050505050905001826001600160a01b031660601b8152601401925050506040516020818303038152906040529050600081805190602001209050600061051e8285610eb5565b3360008181526067602090815260409182902080546001600160a01b0319166001600160a01b03861690811790915582519384529083015280519293507fd0c463b5556d4e3cbc5da50aa6699931a1aa6dffff326e151189a8e15449556692918290030190a150505050565b60656020526000908152604090205460ff1681565b6105a7610f35565b6001600160a01b03166105b861064b565b6001600160a01b031614610601576040805162461bcd60e51b815260206004820181905260248201526000805160206113b2833981519152604482015290519081900360640190fd5b6033546040516000916001600160a01b0316907f8be0079c531659141344cd1fd0a4f28419497f9722a3daafe3b4186f6b6457e0908390a3603380546001600160a01b0319169055565b6033546001600160a01b031690565b610662610f35565b6001600160a01b031661067361064b565b6001600160a01b0316146106bc576040805162461bcd60e51b815260206004820181905260248201526000805160206113b2833981519152604482015290519081900360640190fd5b6001600160a01b038116610717576040805162461bcd60e51b815260206004820152601f60248201527f563a41562d56657269666965722063616e742062652030206164647265737300604482015290519081900360640190fd5b6001600160a01b03811660009081526065602052604090205460ff161561077c576040805162461bcd60e51b8152602060048201526014602482015273563a41562d56657269666965722065786973747360601b604482015290519081900360640190fd5b6001600160a01b038116600081815260656020908152604091829020805460ff19166001179055815192835290517f6d05492139c5ea989514a5d2150c028041e5c087e2a39967f67dc7d2655adb819281900390910190a150565b606660209081526000928352604080842090915290825290205460ff1681565b6067602052600090815260409020546001600160a01b031681565b3360009081526065602052604090205460ff16610869576040805162461bcd60e51b815260206004820152601060248201526f24b73b30b634b2103b32b934b334b2b960811b604482015290519081900360640190fd5b6001600160a01b038216600090815260666020908152604080832033845290915290205460ff16156108e2576040805162461bcd60e51b815260206004820152601860248201527f563a524d412d416c726561647920726567697374657265640000000000000000604482015290519081900360640190fd5b6001600160a01b03821660009081526066602090815260408083203384529091529020805460ff191660011790558015610940576001600160a01b038216600081815260676020526040902080546001600160a01b03191690911790555b604080516001600160a01b03841681523360208201528215158183015290517f859d113797d39f050d937c356ae6c65cef56740d5748fdbe2766c43aab2f54389181900360600190a15050565b61099561064b565b6001600160a01b0316336001600160a01b031614610a31576001600160a01b038216600090815260666020908152604080832033845290915290205460ff16806109e75750336001600160a01b038216145b610a31576040805162461bcd60e51b81526020600482015260166024820152752b1d2aa6a096a4b73b30b634b2103b32b934b334b2b960511b604482015290519081900360640190fd5b6001600160a01b03808316600081815260666020908152604080832094861680845294825291829020805460ff191690558151928352820192909252338183015290517f5eafa2f9e2a450ef3572e53b30967abce55adc77273307c9a17059eb0084614d9181900360600190a15050565b6001600160a01b038082166000908152606760205260409020541680610b0f576040805162461bcd60e51b815260206004820152601760248201527f563a55412d41646472657373206e6f74206c696e6b6564000000000000000000604482015290519081900360640190fd5b6001600160a01b0381163314610b6c576040805162461bcd60e51b815260206004820152601960248201527f563a55412d4e6f74206c696e6b656420746f2073656e64657200000000000000604482015290519081900360640190fd5b6001600160a01b0380831660008181526067602090815260409182902080546001600160a01b031916905581519283529284169282019290925281517ff05e36c1ca443662674a6f5123293683bd2a280d5d9c48adee27cb950e1a8aaf929181900390910190a15050565b600054610100900460ff1680610bf05750610bf0610f39565b80610bfe575060005460ff16155b610c395760405162461bcd60e51b815260040180806020018281038252602e815260200180611362602e913960400191505060405180910390fd5b600054610100900460ff16158015610c64576000805460ff1961ff0019909116610100171660011790555b610c6c610f4a565b610c7582610db2565b8015610c87576000805461ff00191690555b5050565b610c93610f35565b6001600160a01b0316610ca461064b565b6001600160a01b031614610ced576040805162461bcd60e51b815260206004820181905260248201526000805160206113b2833981519152604482015290519081900360640190fd5b6001600160a01b03811660009081526065602052604090205460ff16610d5a576040805162461bcd60e51b815260206004820152601a60248201527f563a41562d566572696669657220646f65736e74206578697374000000000000604482015290519081900360640190fd5b6001600160a01b038116600081815260656020908152604091829020805460ff19169055815192835290517f44a3cd4eb5cc5748f6169df057b1cb2ae4c383e87cd94663c430e095d4cba4249281900390910190a150565b610dba610f35565b6001600160a01b0316610dcb61064b565b6001600160a01b031614610e14576040805162461bcd60e51b815260206004820181905260248201526000805160206113b2833981519152604482015290519081900360640190fd5b6001600160a01b038116610e595760405162461bcd60e51b815260040180806020018281038252602681526020018061131a6026913960400191505060405180910390fd5b6033546040516001600160a01b038084169216907f8be0079c531659141344cd1fd0a4f28419497f9722a3daafe3b4186f6b6457e090600090a3603380546001600160a01b0319166001600160a01b0392909216919091179055565b60008151604114610f0d576040805162461bcd60e51b815260206004820152601f60248201527f45434453413a20696e76616c6964207369676e6174757265206c656e67746800604482015290519081900360640190fd5b60208201516040830151606084015160001a610f2b86828585610ffc565b9695505050505050565b3390565b6000610f443061117a565b15905090565b600054610100900460ff1680610f635750610f63610f39565b80610f71575060005460ff16155b610fac5760405162461bcd60e51b815260040180806020018281038252602e815260200180611362602e913960400191505060405180910390fd5b600054610100900460ff16158015610fd7576000805460ff1961ff0019909116610100171660011790555b610fdf611180565b610fe7611220565b8015610ff9576000805461ff00191690555b50565b60007f7fffffffffffffffffffffffffffffff5d576e7357a4501ddfe92f46681b20a082111561105d5760405162461bcd60e51b81526004018080602001828103825260228152602001806113406022913960400191505060405180910390fd5b8360ff16601b148061107257508360ff16601c145b6110ad5760405162461bcd60e51b81526004018080602001828103825260228152602001806113906022913960400191505060405180910390fd5b600060018686868660405160008152602001604052604051808581526020018460ff1681526020018381526020018281526020019450505050506020604051602081039080840390855afa158015611109573d6000803e3d6000fd5b5050604051601f1901519150506001600160a01b038116611171576040805162461bcd60e51b815260206004820152601860248201527f45434453413a20696e76616c6964207369676e61747572650000000000000000604482015290519081900360640190fd5b95945050505050565b3b151590565b600054610100900460ff16806111995750611199610f39565b806111a7575060005460ff16155b6111e25760405162461bcd60e51b815260040180806020018281038252602e815260200180611362602e913960400191505060405180910390fd5b600054610100900460ff16158015610fe7576000805460ff1961ff0019909116610100171660011790558015610ff9576000805461ff001916905550565b600054610100900460ff16806112395750611239610f39565b80611247575060005460ff16155b6112825760405162461bcd60e51b815260040180806020018281038252602e815260200180611362602e913960400191505060405180910390fd5b600054610100900460ff161580156112ad576000805460ff1961ff0019909116610100171660011790555b60006112b7610f35565b603380546001600160a01b0319166001600160a01b038316908117909155604051919250906000907f8be0079c531659141344cd1fd0a4f28419497f9722a3daafe3b4186f6b6457e0908290a3508015610ff9576000805461ff00191690555056fe4f776e61626c653a206e6577206f776e657220697320746865207a65726f206164647265737345434453413a20696e76616c6964207369676e6174757265202773272076616c7565496e697469616c697a61626c653a20636f6e747261637420697320616c726561647920696e697469616c697a656445434453413a20696e76616c6964207369676e6174757265202776272076616c75654f776e61626c653a2063616c6c6572206973206e6f7420746865206f776e6572415050524f56494e47204144445245535320544f204245204c494e4b454420544f204d45204f4e205355424c494d45a264697066735822122068cbba80b4813975c34bef3aee811f70b03b5dd50b1414051e0a724a98885a9864736f6c63430007000033",
  "linkReferences": {},
  "deployedLinkReferences": {}
}